{
  "_format": "hh-sol-artifact-1",
  "contractName": "PL1155",
  "sourceName": "contracts/pl.sol",
  "abi": [
    {
      "inputs": [],
      "stateMutability": "nonpayable",
      "type": "constructor"
    },
    {
      "anonymous": false,
      "inputs": [
        {
          "indexed": true,
          "internalType": "address",
          "name": "account",
          "type": "address"
        },
        {
          "indexed": true,
          "internalType": "address",
          "name": "operator",
          "type": "address"
        },
        {
          "indexed": false,
          "internalType": "bool",
          "name": "approved",
          "type": "bool"
        }
      ],
      "name": "ApprovalForAll",
      "type": "event"
    },
    {
      "anonymous": false,
      "inputs": [
        {
          "indexed": true,
          "internalType": "address",
          "name": "previousOwner",
          "type": "address"
        },
        {
          "indexed": true,
          "internalType": "address",
          "name": "newOwner",
          "type": "address"
        }
      ],
      "name": "OwnershipTransferred",
      "type": "event"
    },
    {
      "anonymous": false,
      "inputs": [
        {
          "indexed": false,
          "internalType": "address",
          "name": "account",
          "type": "address"
        }
      ],
      "name": "Paused",
      "type": "event"
    },
    {
      "anonymous": false,
      "inputs": [
        {
          "indexed": true,
          "internalType": "address",
          "name": "operator",
          "type": "address"
        },
        {
          "indexed": true,
          "internalType": "address",
          "name": "from",
          "type": "address"
        },
        {
          "indexed": true,
          "internalType": "address",
          "name": "to",
          "type": "address"
        },
        {
          "indexed": false,
          "internalType": "uint256[]",
          "name": "ids",
          "type": "uint256[]"
        },
        {
          "indexed": false,
          "internalType": "uint256[]",
          "name": "values",
          "type": "uint256[]"
        }
      ],
      "name": "TransferBatch",
      "type": "event"
    },
    {
      "anonymous": false,
      "inputs": [
        {
          "indexed": true,
          "internalType": "address",
          "name": "operator",
          "type": "address"
        },
        {
          "indexed": true,
          "internalType": "address",
          "name": "from",
          "type": "address"
        },
        {
          "indexed": true,
          "internalType": "address",
          "name": "to",
          "type": "address"
        },
        {
          "indexed": false,
          "internalType": "uint256",
          "name": "id",
          "type": "uint256"
        },
        {
          "indexed": false,
          "internalType": "uint256",
          "name": "value",
          "type": "uint256"
        }
      ],
      "name": "TransferSingle",
      "type": "event"
    },
    {
      "anonymous": false,
      "inputs": [
        {
          "indexed": false,
          "internalType": "string",
          "name": "value",
          "type": "string"
        },
        {
          "indexed": true,
          "internalType": "uint256",
          "name": "id",
          "type": "uint256"
        }
      ],
      "name": "URI",
      "type": "event"
    },
    {
      "anonymous": false,
      "inputs": [
        {
          "indexed": false,
          "internalType": "address",
          "name": "account",
          "type": "address"
        }
      ],
      "name": "Unpaused",
      "type": "event"
    },
    {
      "inputs": [
        {
          "internalType": "address",
          "name": "account",
          "type": "address"
        },
        {
          "internalType": "uint256",
          "name": "id",
          "type": "uint256"
        }
      ],
      "name": "balanceOf",
      "outputs": [
        {
          "internalType": "uint256",
          "name": "",
          "type": "uint256"
        }
      ],
      "stateMutability": "view",
      "type": "function"
    },
    {
      "inputs": [
        {
          "internalType": "address[]",
          "name": "accounts",
          "type": "address[]"
        },
        {
          "internalType": "uint256[]",
          "name": "ids",
          "type": "uint256[]"
        }
      ],
      "name": "balanceOfBatch",
      "outputs": [
        {
          "internalType": "uint256[]",
          "name": "",
          "type": "uint256[]"
        }
      ],
      "stateMutability": "view",
      "type": "function"
    },
    {
      "inputs": [
        {
          "internalType": "address",
          "name": "account",
          "type": "address"
        },
        {
          "internalType": "uint256",
          "name": "id",
          "type": "uint256"
        },
        {
          "internalType": "uint256",
          "name": "value",
          "type": "uint256"
        }
      ],
      "name": "burn",
      "outputs": [],
      "stateMutability": "nonpayable",
      "type": "function"
    },
    {
      "inputs": [
        {
          "internalType": "address",
          "name": "account",
          "type": "address"
        },
        {
          "internalType": "uint256[]",
          "name": "ids",
          "type": "uint256[]"
        },
        {
          "internalType": "uint256[]",
          "name": "values",
          "type": "uint256[]"
        }
      ],
      "name": "burnBatch",
      "outputs": [],
      "stateMutability": "nonpayable",
      "type": "function"
    },
    {
      "inputs": [
        {
          "internalType": "uint256",
          "name": "id",
          "type": "uint256"
        }
      ],
      "name": "exists",
      "outputs": [
        {
          "internalType": "bool",
          "name": "",
          "type": "bool"
        }
      ],
      "stateMutability": "view",
      "type": "function"
    },
    {
      "inputs": [
        {
          "internalType": "address",
          "name": "account",
          "type": "address"
        },
        {
          "internalType": "address",
          "name": "operator",
          "type": "address"
        }
      ],
      "name": "isApprovedForAll",
      "outputs": [
        {
          "internalType": "bool",
          "name": "",
          "type": "bool"
        }
      ],
      "stateMutability": "view",
      "type": "function"
    },
    {
      "inputs": [
        {
          "internalType": "address",
          "name": "account",
          "type": "address"
        },
        {
          "internalType": "uint256",
          "name": "id",
          "type": "uint256"
        },
        {
          "internalType": "uint256",
          "name": "amount",
          "type": "uint256"
        },
        {
          "internalType": "bytes",
          "name": "data",
          "type": "bytes"
        }
      ],
      "name": "mint",
      "outputs": [],
      "stateMutability": "nonpayable",
      "type": "function"
    },
    {
      "inputs": [
        {
          "internalType": "address",
          "name": "to",
          "type": "address"
        },
        {
          "internalType": "uint256[]",
          "name": "ids",
          "type": "uint256[]"
        },
        {
          "internalType": "uint256[]",
          "name": "amounts",
          "type": "uint256[]"
        },
        {
          "internalType": "bytes",
          "name": "data",
          "type": "bytes"
        }
      ],
      "name": "mintBatch",
      "outputs": [],
      "stateMutability": "nonpayable",
      "type": "function"
    },
    {
      "inputs": [],
      "name": "owner",
      "outputs": [
        {
          "internalType": "address",
          "name": "",
          "type": "address"
        }
      ],
      "stateMutability": "view",
      "type": "function"
    },
    {
      "inputs": [],
      "name": "pause",
      "outputs": [],
      "stateMutability": "nonpayable",
      "type": "function"
    },
    {
      "inputs": [],
      "name": "paused",
      "outputs": [
        {
          "internalType": "bool",
          "name": "",
          "type": "bool"
        }
      ],
      "stateMutability": "view",
      "type": "function"
    },
    {
      "inputs": [],
      "name": "renounceOwnership",
      "outputs": [],
      "stateMutability": "nonpayable",
      "type": "function"
    },
    {
      "inputs": [
        {
          "internalType": "address",
          "name": "from",
          "type": "address"
        },
        {
          "internalType": "address",
          "name": "to",
          "type": "address"
        },
        {
          "internalType": "uint256[]",
          "name": "ids",
          "type": "uint256[]"
        },
        {
          "internalType": "uint256[]",
          "name": "amounts",
          "type": "uint256[]"
        },
        {
          "internalType": "bytes",
          "name": "data",
          "type": "bytes"
        }
      ],
      "name": "safeBatchTransferFrom",
      "outputs": [],
      "stateMutability": "nonpayable",
      "type": "function"
    },
    {
      "inputs": [
        {
          "internalType": "address",
          "name": "from",
          "type": "address"
        },
        {
          "internalType": "address",
          "name": "to",
          "type": "address"
        },
        {
          "internalType": "uint256",
          "name": "id",
          "type": "uint256"
        },
        {
          "internalType": "uint256",
          "name": "amount",
          "type": "uint256"
        },
        {
          "internalType": "bytes",
          "name": "data",
          "type": "bytes"
        }
      ],
      "name": "safeTransferFrom",
      "outputs": [],
      "stateMutability": "nonpayable",
      "type": "function"
    },
    {
      "inputs": [
        {
          "internalType": "address",
          "name": "operator",
          "type": "address"
        },
        {
          "internalType": "bool",
          "name": "approved",
          "type": "bool"
        }
      ],
      "name": "setApprovalForAll",
      "outputs": [],
      "stateMutability": "nonpayable",
      "type": "function"
    },
    {
      "inputs": [
        {
          "internalType": "string",
          "name": "newuri",
          "type": "string"
        }
      ],
      "name": "setURI",
      "outputs": [],
      "stateMutability": "nonpayable",
      "type": "function"
    },
    {
      "inputs": [
        {
          "internalType": "bytes4",
          "name": "interfaceId",
          "type": "bytes4"
        }
      ],
      "name": "supportsInterface",
      "outputs": [
        {
          "internalType": "bool",
          "name": "",
          "type": "bool"
        }
      ],
      "stateMutability": "view",
      "type": "function"
    },
    {
      "inputs": [
        {
          "internalType": "uint256",
          "name": "id",
          "type": "uint256"
        }
      ],
      "name": "totalSupply",
      "outputs": [
        {
          "internalType": "uint256",
          "name": "",
          "type": "uint256"
        }
      ],
      "stateMutability": "view",
      "type": "function"
    },
    {
      "inputs": [
        {
          "internalType": "address",
          "name": "newOwner",
          "type": "address"
        }
      ],
      "name": "transferOwnership",
      "outputs": [],
      "stateMutability": "nonpayable",
      "type": "function"
    },
    {
      "inputs": [],
      "name": "unpause",
      "outputs": [],
      "stateMutability": "nonpayable",
      "type": "function"
    },
    {
      "inputs": [
        {
          "internalType": "uint256",
          "name": "",
          "type": "uint256"
        }
      ],
      "name": "uri",
      "outputs": [
        {
          "internalType": "string",
          "name": "",
          "type": "string"
        }
      ],
      "stateMutability": "view",
      "type": "function"
    }
  ],
  "bytecode": "0x60806040523480156200001157600080fd5b506040518060600160405280602d8152602001620045f1602d91396200003d816200007f60201b60201c565b506200005e620000526200009b60201b60201c565b620000a360201b60201c565b6000600360146101000a81548160ff0219169083151502179055506200027e565b80600290805190602001906200009792919062000169565b5050565b600033905090565b6000600360009054906101000a900473ffffffffffffffffffffffffffffffffffffffff16905081600360006101000a81548173ffffffffffffffffffffffffffffffffffffffff021916908373ffffffffffffffffffffffffffffffffffffffff1602179055508173ffffffffffffffffffffffffffffffffffffffff168173ffffffffffffffffffffffffffffffffffffffff167f8be0079c531659141344cd1fd0a4f28419497f9722a3daafe3b4186f6b6457e060405160405180910390a35050565b828054620001779062000219565b90600052602060002090601f0160209004810192826200019b5760008555620001e7565b82601f10620001b657805160ff1916838001178555620001e7565b82800160010185558215620001e7579182015b82811115620001e6578251825591602001919060010190620001c9565b5b509050620001f69190620001fa565b5090565b5b8082111562000215576000816000905550600101620001fb565b5090565b600060028204905060018216806200023257607f821691505b602082108114156200024957620002486200024f565b5b50919050565b7f4e487b7100000000000000000000000000000000000000000000000000000000600052602260045260246000fd5b614363806200028e6000396000f3fe608060405234801561001057600080fd5b50600436106101365760003560e01c80636b20c454116100b8578063a22cb4651161007c578063a22cb46514610311578063bd85b0391461032d578063e985e9c51461035d578063f242432a1461038d578063f2fde38b146103a9578063f5298aca146103c557610136565b80636b20c454146102a7578063715018a6146102c3578063731133e9146102cd5780638456cb59146102e95780638da5cb5b146102f357610136565b80632eb2c2d6116100ff5780632eb2c2d6146102035780633f4ba83a1461021f5780634e1273f4146102295780634f558e79146102595780635c975abb1461028957610136565b8062fdd58e1461013b57806301ffc9a71461016b57806302fe53051461019b5780630e89341c146101b75780631f7fdffa146101e7575b600080fd5b61015560048036038101906101509190612fe9565b6103e1565b6040516101629190613921565b60405180910390f35b6101856004803603810190610180919061315b565b6104aa565b60405161019291906136c4565b60405180910390f35b6101b560048036038101906101b091906131ad565b61058c565b005b6101d160048036038101906101cc91906131ee565b610614565b6040516101de91906136df565b60405180910390f35b61020160048036038101906101fc9190612f02565b6106a8565b005b61021d60048036038101906102189190612d35565b610736565b005b6102276107d7565b005b610243600480360381019061023e91906130ef565b61085d565b604051610250919061366b565b60405180910390f35b610273600480360381019061026e91906131ee565b610a0e565b60405161028091906136c4565b60405180910390f35b610291610a22565b60405161029e91906136c4565b60405180910390f35b6102c160048036038101906102bc9190612e83565b610a39565b005b6102cb610ad6565b005b6102e760048036038101906102e29190613074565b610b5e565b005b6102f1610bec565b005b6102fb610c72565b604051610308919061358e565b60405180910390f35b61032b60048036038101906103269190612fad565b610c9c565b005b610347600480360381019061034291906131ee565b610cb2565b6040516103549190613921565b60405180910390f35b61037760048036038101906103729190612cf9565b610ccf565b60405161038491906136c4565b60405180910390f35b6103a760048036038101906103a29190612df4565b610d63565b005b6103c360048036038101906103be9190612cd0565b610e04565b005b6103df60048036038101906103da9190613025565b610efc565b005b60008073ffffffffffffffffffffffffffffffffffffffff168373ffffffffffffffffffffffffffffffffffffffff161415610452576040517f08c379a000000000000000000000000000000000000000000000000000000000815260040161044990613761565b60405180910390fd5b60008083815260200190815260200160002060008473ffffffffffffffffffffffffffffffffffffffff1673ffffffffffffffffffffffffffffffffffffffff16815260200190815260200160002054905092915050565b60007fd9b67a26000000000000000000000000000000000000000000000000000000007bffffffffffffffffffffffffffffffffffffffffffffffffffffffff1916827bffffffffffffffffffffffffffffffffffffffffffffffffffffffff1916148061057557507f0e89341c000000000000000000000000000000000000000000000000000000007bffffffffffffffffffffffffffffffffffffffffffffffffffffffff1916827bffffffffffffffffffffffffffffffffffffffffffffffffffffffff1916145b80610585575061058482610f99565b5b9050919050565b610594611003565b73ffffffffffffffffffffffffffffffffffffffff166105b2610c72565b73ffffffffffffffffffffffffffffffffffffffff1614610608576040517f08c379a00000000000000000000000000000000000000000000000000000000081526004016105ff90613881565b60405180910390fd5b6106118161100b565b50565b60606002805461062390613bf5565b80601f016020809104026020016040519081016040528092919081815260200182805461064f90613bf5565b801561069c5780601f106106715761010080835404028352916020019161069c565b820191906000526020600020905b81548152906001019060200180831161067f57829003601f168201915b50505050509050919050565b6106b0611003565b73ffffffffffffffffffffffffffffffffffffffff166106ce610c72565b73ffffffffffffffffffffffffffffffffffffffff1614610724576040517f08c379a000000000000000000000000000000000000000000000000000000000815260040161071b90613881565b60405180910390fd5b61073084848484611025565b50505050565b61073e611003565b73ffffffffffffffffffffffffffffffffffffffff168573ffffffffffffffffffffffffffffffffffffffff16148061078457506107838561077e611003565b610ccf565b5b6107c3576040517f08c379a00000000000000000000000000000000000000000000000000000000081526004016107ba90613821565b60405180910390fd5b6107d0858585858561128f565b5050505050565b6107df611003565b73ffffffffffffffffffffffffffffffffffffffff166107fd610c72565b73ffffffffffffffffffffffffffffffffffffffff1614610853576040517f08c379a000000000000000000000000000000000000000000000000000000000815260040161084a90613881565b60405180910390fd5b61085b6115ef565b565b606081518351146108a3576040517f08c379a000000000000000000000000000000000000000000000000000000000815260040161089a906138c1565b60405180910390fd5b6000835167ffffffffffffffff8111156108e6577f4e487b7100000000000000000000000000000000000000000000000000000000600052604160045260246000fd5b6040519080825280602002602001820160405280156109145781602001602082028036833780820191505090505b50905060005b8451811015610a03576109ad85828151811061095f577f4e487b7100000000000000000000000000000000000000000000000000000000600052603260045260246000fd5b60200260200101518583815181106109a0577f4e487b7100000000000000000000000000000000000000000000000000000000600052603260045260246000fd5b60200260200101516103e1565b8282815181106109e6577f4e487b7100000000000000000000000000000000000000000000000000000000600052603260045260246000fd5b602002602001018181525050806109fc90613c58565b905061091a565b508091505092915050565b600080610a1a83610cb2565b119050919050565b6000600360149054906101000a900460ff16905090565b610a41611003565b73ffffffffffffffffffffffffffffffffffffffff168373ffffffffffffffffffffffffffffffffffffffff161480610a875750610a8683610a81611003565b610ccf565b5b610ac6576040517f08c379a0000000000000000000000000000000000000000000000000000000008152600401610abd906137c1565b60405180910390fd5b610ad1838383611691565b505050565b610ade611003565b73ffffffffffffffffffffffffffffffffffffffff16610afc610c72565b73ffffffffffffffffffffffffffffffffffffffff1614610b52576040517f08c379a0000000000000000000000000000000000000000000000000000000008152600401610b4990613881565b60405180910390fd5b610b5c600061198e565b565b610b66611003565b73ffffffffffffffffffffffffffffffffffffffff16610b84610c72565b73ffffffffffffffffffffffffffffffffffffffff1614610bda576040517f08c379a0000000000000000000000000000000000000000000000000000000008152600401610bd190613881565b60405180910390fd5b610be684848484611a54565b50505050565b610bf4611003565b73ffffffffffffffffffffffffffffffffffffffff16610c12610c72565b73ffffffffffffffffffffffffffffffffffffffff1614610c68576040517f08c379a0000000000000000000000000000000000000000000000000000000008152600401610c5f90613881565b60405180910390fd5b610c70611bea565b565b6000600360009054906101000a900473ffffffffffffffffffffffffffffffffffffffff16905090565b610cae610ca7611003565b8383611c8d565b5050565b600060046000838152602001908152602001600020549050919050565b6000600160008473ffffffffffffffffffffffffffffffffffffffff1673ffffffffffffffffffffffffffffffffffffffff16815260200190815260200160002060008373ffffffffffffffffffffffffffffffffffffffff1673ffffffffffffffffffffffffffffffffffffffff16815260200190815260200160002060009054906101000a900460ff16905092915050565b610d6b611003565b73ffffffffffffffffffffffffffffffffffffffff168573ffffffffffffffffffffffffffffffffffffffff161480610db15750610db085610dab611003565b610ccf565b5b610df0576040517f08c379a0000000000000000000000000000000000000000000000000000000008152600401610de7906137c1565b60405180910390fd5b610dfd8585858585611dfa565b5050505050565b610e0c611003565b73ffffffffffffffffffffffffffffffffffffffff16610e2a610c72565b73ffffffffffffffffffffffffffffffffffffffff1614610e80576040517f08c379a0000000000000000000000000000000000000000000000000000000008152600401610e7790613881565b60405180910390fd5b600073ffffffffffffffffffffffffffffffffffffffff168173ffffffffffffffffffffffffffffffffffffffff161415610ef0576040517f08c379a0000000000000000000000000000000000000000000000000000000008152600401610ee790613781565b60405180910390fd5b610ef98161198e565b50565b610f04611003565b73ffffffffffffffffffffffffffffffffffffffff168373ffffffffffffffffffffffffffffffffffffffff161480610f4a5750610f4983610f44611003565b610ccf565b5b610f89576040517f08c379a0000000000000000000000000000000000000000000000000000000008152600401610f80906137c1565b60405180910390fd5b610f9483838361207c565b505050565b60007f01ffc9a7000000000000000000000000000000000000000000000000000000007bffffffffffffffffffffffffffffffffffffffffffffffffffffffff1916827bffffffffffffffffffffffffffffffffffffffffffffffffffffffff1916149050919050565b600033905090565b80600290805190602001906110219291906129c8565b5050565b600073ffffffffffffffffffffffffffffffffffffffff168473ffffffffffffffffffffffffffffffffffffffff161415611095576040517f08c379a000000000000000000000000000000000000000000000000000000000815260040161108c90613901565b60405180910390fd5b81518351146110d9576040517f08c379a00000000000000000000000000000000000000000000000000000000081526004016110d0906138e1565b60405180910390fd5b60006110e3611003565b90506110f481600087878787612299565b60005b84518110156111f957838181518110611139577f4e487b7100000000000000000000000000000000000000000000000000000000600052603260045260246000fd5b602002602001015160008087848151811061117d577f4e487b7100000000000000000000000000000000000000000000000000000000600052603260045260246000fd5b6020026020010151815260200190815260200160002060008873ffffffffffffffffffffffffffffffffffffffff1673ffffffffffffffffffffffffffffffffffffffff16815260200190815260200160002060008282546111df9190613ab5565b9250508190555080806111f190613c58565b9150506110f7565b508473ffffffffffffffffffffffffffffffffffffffff16600073ffffffffffffffffffffffffffffffffffffffff168273ffffffffffffffffffffffffffffffffffffffff167f4a39dc06d4c0dbc64b70af90fd698a233a518aa5d07e595d983b8c0526c8f7fb878760405161127192919061368d565b60405180910390a4611288816000878787876122f7565b5050505050565b81518351146112d3576040517f08c379a00000000000000000000000000000000000000000000000000000000081526004016112ca906138e1565b60405180910390fd5b600073ffffffffffffffffffffffffffffffffffffffff168473ffffffffffffffffffffffffffffffffffffffff161415611343576040517f08c379a000000000000000000000000000000000000000000000000000000000815260040161133a90613801565b60405180910390fd5b600061134d611003565b905061135d818787878787612299565b60005b845181101561155a5760008582815181106113a4577f4e487b7100000000000000000000000000000000000000000000000000000000600052603260045260246000fd5b6020026020010151905060008583815181106113e9577f4e487b7100000000000000000000000000000000000000000000000000000000600052603260045260246000fd5b60200260200101519050600080600084815260200190815260200160002060008b73ffffffffffffffffffffffffffffffffffffffff1673ffffffffffffffffffffffffffffffffffffffff1681526020019081526020016000205490508181101561148a576040517f08c379a000000000000000000000000000000000000000000000000000000000815260040161148190613861565b60405180910390fd5b81810360008085815260200190815260200160002060008c73ffffffffffffffffffffffffffffffffffffffff1673ffffffffffffffffffffffffffffffffffffffff168152602001908152602001600020819055508160008085815260200190815260200160002060008b73ffffffffffffffffffffffffffffffffffffffff1673ffffffffffffffffffffffffffffffffffffffff168152602001908152602001600020600082825461153f9190613ab5565b925050819055505050508061155390613c58565b9050611360565b508473ffffffffffffffffffffffffffffffffffffffff168673ffffffffffffffffffffffffffffffffffffffff168273ffffffffffffffffffffffffffffffffffffffff167f4a39dc06d4c0dbc64b70af90fd698a233a518aa5d07e595d983b8c0526c8f7fb87876040516115d192919061368d565b60405180910390a46115e78187878787876122f7565b505050505050565b6115f7610a22565b611636576040517f08c379a000000000000000000000000000000000000000000000000000000000815260040161162d90613741565b60405180910390fd5b6000600360146101000a81548160ff0219169083151502179055507f5db9ee0a495bf2e6ff9c91a7834c1ba4fdd244a5e8aa4e537bd38aeae4b073aa61167a611003565b604051611687919061358e565b60405180910390a1565b600073ffffffffffffffffffffffffffffffffffffffff168373ffffffffffffffffffffffffffffffffffffffff161415611701576040517f08c379a00000000000000000000000000000000000000000000000000000000081526004016116f890613841565b60405180910390fd5b8051825114611745576040517f08c379a000000000000000000000000000000000000000000000000000000000815260040161173c906138e1565b60405180910390fd5b600061174f611003565b905061176f81856000868660405180602001604052806000815250612299565b60005b83518110156119085760008482815181106117b6577f4e487b7100000000000000000000000000000000000000000000000000000000600052603260045260246000fd5b6020026020010151905060008483815181106117fb577f4e487b7100000000000000000000000000000000000000000000000000000000600052603260045260246000fd5b60200260200101519050600080600084815260200190815260200160002060008973ffffffffffffffffffffffffffffffffffffffff1673ffffffffffffffffffffffffffffffffffffffff1681526020019081526020016000205490508181101561189c576040517f08c379a0000000000000000000000000000000000000000000000000000000008152600401611893906137a1565b60405180910390fd5b81810360008085815260200190815260200160002060008a73ffffffffffffffffffffffffffffffffffffffff1673ffffffffffffffffffffffffffffffffffffffff16815260200190815260200160002081905550505050808061190090613c58565b915050611772565b50600073ffffffffffffffffffffffffffffffffffffffff168473ffffffffffffffffffffffffffffffffffffffff168273ffffffffffffffffffffffffffffffffffffffff167f4a39dc06d4c0dbc64b70af90fd698a233a518aa5d07e595d983b8c0526c8f7fb868660405161198092919061368d565b60405180910390a450505050565b6000600360009054906101000a900473ffffffffffffffffffffffffffffffffffffffff16905081600360006101000a81548173ffffffffffffffffffffffffffffffffffffffff021916908373ffffffffffffffffffffffffffffffffffffffff1602179055508173ffffffffffffffffffffffffffffffffffffffff168173ffffffffffffffffffffffffffffffffffffffff167f8be0079c531659141344cd1fd0a4f28419497f9722a3daafe3b4186f6b6457e060405160405180910390a35050565b600073ffffffffffffffffffffffffffffffffffffffff168473ffffffffffffffffffffffffffffffffffffffff161415611ac4576040517f08c379a0000000000000000000000000000000000000000000000000000000008152600401611abb90613901565b60405180910390fd5b6000611ace611003565b9050611aef81600087611ae0886124de565b611ae9886124de565b87612299565b8260008086815260200190815260200160002060008773ffffffffffffffffffffffffffffffffffffffff1673ffffffffffffffffffffffffffffffffffffffff1681526020019081526020016000206000828254611b4e9190613ab5565b925050819055508473ffffffffffffffffffffffffffffffffffffffff16600073ffffffffffffffffffffffffffffffffffffffff168273ffffffffffffffffffffffffffffffffffffffff167fc3d58168c5ae7397731d063d5bbf3d657854427343f4c083240f7aacaa2d0f628787604051611bcc92919061393c565b60405180910390a4611be3816000878787876125a4565b5050505050565b611bf2610a22565b15611c32576040517f08c379a0000000000000000000000000000000000000000000000000000000008152600401611c29906137e1565b60405180910390fd5b6001600360146101000a81548160ff0219169083151502179055507f62e78cea01bee320cd4e420270b5ea74000d11b0c9f74754ebdbfc544b05a258611c76611003565b604051611c83919061358e565b60405180910390a1565b8173ffffffffffffffffffffffffffffffffffffffff168373ffffffffffffffffffffffffffffffffffffffff161415611cfc576040517f08c379a0000000000000000000000000000000000000000000000000000000008152600401611cf3906138a1565b60405180910390fd5b80600160008573ffffffffffffffffffffffffffffffffffffffff1673ffffffffffffffffffffffffffffffffffffffff16815260200190815260200160002060008473ffffffffffffffffffffffffffffffffffffffff1673ffffffffffffffffffffffffffffffffffffffff16815260200190815260200160002060006101000a81548160ff0219169083151502179055508173ffffffffffffffffffffffffffffffffffffffff168373ffffffffffffffffffffffffffffffffffffffff167f17307eab39ab6107e8899845ad3d59bd9653f200f220920489ca2b5937696c3183604051611ded91906136c4565b60405180910390a3505050565b600073ffffffffffffffffffffffffffffffffffffffff168473ffffffffffffffffffffffffffffffffffffffff161415611e6a576040517f08c379a0000000000000000000000000000000000000000000000000000000008152600401611e6190613801565b60405180910390fd5b6000611e74611003565b9050611e94818787611e85886124de565b611e8e886124de565b87612299565b600080600086815260200190815260200160002060008873ffffffffffffffffffffffffffffffffffffffff1673ffffffffffffffffffffffffffffffffffffffff16815260200190815260200160002054905083811015611f2b576040517f08c379a0000000000000000000000000000000000000000000000000000000008152600401611f2290613861565b60405180910390fd5b83810360008087815260200190815260200160002060008973ffffffffffffffffffffffffffffffffffffffff1673ffffffffffffffffffffffffffffffffffffffff168152602001908152602001600020819055508360008087815260200190815260200160002060008873ffffffffffffffffffffffffffffffffffffffff1673ffffffffffffffffffffffffffffffffffffffff1681526020019081526020016000206000828254611fe09190613ab5565b925050819055508573ffffffffffffffffffffffffffffffffffffffff168773ffffffffffffffffffffffffffffffffffffffff168373ffffffffffffffffffffffffffffffffffffffff167fc3d58168c5ae7397731d063d5bbf3d657854427343f4c083240f7aacaa2d0f62888860405161205d92919061393c565b60405180910390a46120738288888888886125a4565b50505050505050565b600073ffffffffffffffffffffffffffffffffffffffff168373ffffffffffffffffffffffffffffffffffffffff1614156120ec576040517f08c379a00000000000000000000000000000000000000000000000000000000081526004016120e390613841565b60405180910390fd5b60006120f6611003565b905061212681856000612108876124de565b612111876124de565b60405180602001604052806000815250612299565b600080600085815260200190815260200160002060008673ffffffffffffffffffffffffffffffffffffffff1673ffffffffffffffffffffffffffffffffffffffff168152602001908152602001600020549050828110156121bd576040517f08c379a00000000000000000000000000000000000000000000000000000000081526004016121b4906137a1565b60405180910390fd5b82810360008086815260200190815260200160002060008773ffffffffffffffffffffffffffffffffffffffff1673ffffffffffffffffffffffffffffffffffffffff16815260200190815260200160002081905550600073ffffffffffffffffffffffffffffffffffffffff168573ffffffffffffffffffffffffffffffffffffffff168373ffffffffffffffffffffffffffffffffffffffff167fc3d58168c5ae7397731d063d5bbf3d657854427343f4c083240f7aacaa2d0f62878760405161228a92919061393c565b60405180910390a45050505050565b6122a1610a22565b156122e1576040517f08c379a00000000000000000000000000000000000000000000000000000000081526004016122d8906137e1565b60405180910390fd5b6122ef86868686868661278b565b505050505050565b6123168473ffffffffffffffffffffffffffffffffffffffff1661299d565b156124d6578373ffffffffffffffffffffffffffffffffffffffff1663bc197c8187878686866040518663ffffffff1660e01b815260040161235c9594939291906135a9565b602060405180830381600087803b15801561237657600080fd5b505af19250505080156123a757506040513d601f19601f820116820180604052508101906123a49190613184565b60015b61244d576123b3613d2e565b806308c379a0141561241057506123c861423b565b806123d35750612412565b806040517f08c379a000000000000000000000000000000000000000000000000000000000815260040161240791906136df565b60405180910390fd5b505b6040517f08c379a000000000000000000000000000000000000000000000000000000000815260040161244490613701565b60405180910390fd5b63bc197c8160e01b7bffffffffffffffffffffffffffffffffffffffffffffffffffffffff1916817bffffffffffffffffffffffffffffffffffffffffffffffffffffffff1916146124d4576040517f08c379a00000000000000000000000000000000000000000000000000000000081526004016124cb90613721565b60405180910390fd5b505b505050505050565b60606000600167ffffffffffffffff811115612523577f4e487b7100000000000000000000000000000000000000000000000000000000600052604160045260246000fd5b6040519080825280602002602001820160405280156125515781602001602082028036833780820191505090505b509050828160008151811061258f577f4e487b7100000000000000000000000000000000000000000000000000000000600052603260045260246000fd5b60200260200101818152505080915050919050565b6125c38473ffffffffffffffffffffffffffffffffffffffff1661299d565b15612783578373ffffffffffffffffffffffffffffffffffffffff1663f23a6e6187878686866040518663ffffffff1660e01b8152600401612609959493929190613611565b602060405180830381600087803b15801561262357600080fd5b505af192505050801561265457506040513d601f19601f820116820180604052508101906126519190613184565b60015b6126fa57612660613d2e565b806308c379a014156126bd575061267561423b565b8061268057506126bf565b806040517f08c379a00000000000000000000000000000000000000000000000000000000081526004016126b491906136df565b60405180910390fd5b505b6040517f08c379a00000000000000000000000000000000000000000000000000000000081526004016126f190613701565b60405180910390fd5b63f23a6e6160e01b7bffffffffffffffffffffffffffffffffffffffffffffffffffffffff1916817bffffffffffffffffffffffffffffffffffffffffffffffffffffffff191614612781576040517f08c379a000000000000000000000000000000000000000000000000000000000815260040161277890613721565b60405180910390fd5b505b505050505050565b6127998686868686866129c0565b600073ffffffffffffffffffffffffffffffffffffffff168573ffffffffffffffffffffffffffffffffffffffff1614156128975760005b835181101561289557828181518110612813577f4e487b7100000000000000000000000000000000000000000000000000000000600052603260045260246000fd5b602002602001015160046000868481518110612858577f4e487b7100000000000000000000000000000000000000000000000000000000600052603260045260246000fd5b60200260200101518152602001908152602001600020600082825461287d9190613ab5565b925050819055508061288e90613c58565b90506127d1565b505b600073ffffffffffffffffffffffffffffffffffffffff168473ffffffffffffffffffffffffffffffffffffffff1614156129955760005b835181101561299357828181518110612911577f4e487b7100000000000000000000000000000000000000000000000000000000600052603260045260246000fd5b602002602001015160046000868481518110612956577f4e487b7100000000000000000000000000000000000000000000000000000000600052603260045260246000fd5b60200260200101518152602001908152602001600020600082825461297b9190613b0b565b925050819055508061298c90613c58565b90506128cf565b505b505050505050565b6000808273ffffffffffffffffffffffffffffffffffffffff163b119050919050565b505050505050565b8280546129d490613bf5565b90600052602060002090601f0160209004810192826129f65760008555612a3d565b82601f10612a0f57805160ff1916838001178555612a3d565b82800160010185558215612a3d579182015b82811115612a3c578251825591602001919060010190612a21565b5b509050612a4a9190612a4e565b5090565b5b80821115612a67576000816000905550600101612a4f565b5090565b6000612a7e612a798461398a565b613965565b90508083825260208201905082856020860282011115612a9d57600080fd5b60005b85811015612acd5781612ab38882612bbf565b845260208401935060208301925050600181019050612aa0565b5050509392505050565b6000612aea612ae5846139b6565b613965565b90508083825260208201905082856020860282011115612b0957600080fd5b60005b85811015612b395781612b1f8882612cbb565b845260208401935060208301925050600181019050612b0c565b5050509392505050565b6000612b56612b51846139e2565b613965565b905082815260208101848484011115612b6e57600080fd5b612b79848285613bb3565b509392505050565b6000612b94612b8f84613a13565b613965565b905082815260208101848484011115612bac57600080fd5b612bb7848285613bb3565b509392505050565b600081359050612bce816142d1565b92915050565b600082601f830112612be557600080fd5b8135612bf5848260208601612a6b565b91505092915050565b600082601f830112612c0f57600080fd5b8135612c1f848260208601612ad7565b91505092915050565b600081359050612c37816142e8565b92915050565b600081359050612c4c816142ff565b92915050565b600081519050612c61816142ff565b92915050565b600082601f830112612c7857600080fd5b8135612c88848260208601612b43565b91505092915050565b600082601f830112612ca257600080fd5b8135612cb2848260208601612b81565b91505092915050565b600081359050612cca81614316565b92915050565b600060208284031215612ce257600080fd5b6000612cf084828501612bbf565b91505092915050565b60008060408385031215612d0c57600080fd5b6000612d1a85828601612bbf565b9250506020612d2b85828601612bbf565b9150509250929050565b600080600080600060a08688031215612d4d57600080fd5b6000612d5b88828901612bbf565b9550506020612d6c88828901612bbf565b945050604086013567ffffffffffffffff811115612d8957600080fd5b612d9588828901612bfe565b935050606086013567ffffffffffffffff811115612db257600080fd5b612dbe88828901612bfe565b925050608086013567ffffffffffffffff811115612ddb57600080fd5b612de788828901612c67565b9150509295509295909350565b600080600080600060a08688031215612e0c57600080fd5b6000612e1a88828901612bbf565b9550506020612e2b88828901612bbf565b9450506040612e3c88828901612cbb565b9350506060612e4d88828901612cbb565b925050608086013567ffffffffffffffff811115612e6a57600080fd5b612e7688828901612c67565b9150509295509295909350565b600080600060608486031215612e9857600080fd5b6000612ea686828701612bbf565b935050602084013567ffffffffffffffff811115612ec357600080fd5b612ecf86828701612bfe565b925050604084013567ffffffffffffffff811115612eec57600080fd5b612ef886828701612bfe565b9150509250925092565b60008060008060808587031215612f1857600080fd5b6000612f2687828801612bbf565b945050602085013567ffffffffffffffff811115612f4357600080fd5b612f4f87828801612bfe565b935050604085013567ffffffffffffffff811115612f6c57600080fd5b612f7887828801612bfe565b925050606085013567ffffffffffffffff811115612f9557600080fd5b612fa187828801612c67565b91505092959194509250565b60008060408385031215612fc057600080fd5b6000612fce85828601612bbf565b9250506020612fdf85828601612c28565b9150509250929050565b60008060408385031215612ffc57600080fd5b600061300a85828601612bbf565b925050602061301b85828601612cbb565b9150509250929050565b60008060006060848603121561303a57600080fd5b600061304886828701612bbf565b935050602061305986828701612cbb565b925050604061306a86828701612cbb565b9150509250925092565b6000806000806080858703121561308a57600080fd5b600061309887828801612bbf565b94505060206130a987828801612cbb565b93505060406130ba87828801612cbb565b925050606085013567ffffffffffffffff8111156130d757600080fd5b6130e387828801612c67565b91505092959194509250565b6000806040838503121561310257600080fd5b600083013567ffffffffffffffff81111561311c57600080fd5b61312885828601612bd4565b925050602083013567ffffffffffffffff81111561314557600080fd5b61315185828601612bfe565b9150509250929050565b60006020828403121561316d57600080fd5b600061317b84828501612c3d565b91505092915050565b60006020828403121561319657600080fd5b60006131a484828501612c52565b91505092915050565b6000602082840312156131bf57600080fd5b600082013567ffffffffffffffff8111156131d957600080fd5b6131e584828501612c91565b91505092915050565b60006020828403121561320057600080fd5b600061320e84828501612cbb565b91505092915050565b60006132238383613570565b60208301905092915050565b61323881613b3f565b82525050565b600061324982613a54565b6132538185613a82565b935061325e83613a44565b8060005b8381101561328f5781516132768882613217565b975061328183613a75565b925050600181019050613262565b5085935050505092915050565b6132a581613b51565b82525050565b60006132b682613a5f565b6132c08185613a93565b93506132d0818560208601613bc2565b6132d981613d50565b840191505092915050565b60006132ef82613a6a565b6132f98185613aa4565b9350613309818560208601613bc2565b61331281613d50565b840191505092915050565b600061332a603483613aa4565b915061333582613d6e565b604082019050919050565b600061334d602883613aa4565b915061335882613dbd565b604082019050919050565b6000613370601483613aa4565b915061337b82613e0c565b602082019050919050565b6000613393602b83613aa4565b915061339e82613e35565b604082019050919050565b60006133b6602683613aa4565b91506133c182613e84565b604082019050919050565b60006133d9602483613aa4565b91506133e482613ed3565b604082019050919050565b60006133fc602983613aa4565b915061340782613f22565b604082019050919050565b600061341f601083613aa4565b915061342a82613f71565b602082019050919050565b6000613442602583613aa4565b915061344d82613f9a565b604082019050919050565b6000613465603283613aa4565b915061347082613fe9565b604082019050919050565b6000613488602383613aa4565b915061349382614038565b604082019050919050565b60006134ab602a83613aa4565b91506134b682614087565b604082019050919050565b60006134ce602083613aa4565b91506134d9826140d6565b602082019050919050565b60006134f1602983613aa4565b91506134fc826140ff565b604082019050919050565b6000613514602983613aa4565b915061351f8261414e565b604082019050919050565b6000613537602883613aa4565b91506135428261419d565b604082019050919050565b600061355a602183613aa4565b9150613565826141ec565b604082019050919050565b61357981613ba9565b82525050565b61358881613ba9565b82525050565b60006020820190506135a3600083018461322f565b92915050565b600060a0820190506135be600083018861322f565b6135cb602083018761322f565b81810360408301526135dd818661323e565b905081810360608301526135f1818561323e565b9050818103608083015261360581846132ab565b90509695505050505050565b600060a082019050613626600083018861322f565b613633602083018761322f565b613640604083018661357f565b61364d606083018561357f565b818103608083015261365f81846132ab565b90509695505050505050565b60006020820190508181036000830152613685818461323e565b905092915050565b600060408201905081810360008301526136a7818561323e565b905081810360208301526136bb818461323e565b90509392505050565b60006020820190506136d9600083018461329c565b92915050565b600060208201905081810360008301526136f981846132e4565b905092915050565b6000602082019050818103600083015261371a8161331d565b9050919050565b6000602082019050818103600083015261373a81613340565b9050919050565b6000602082019050818103600083015261375a81613363565b9050919050565b6000602082019050818103600083015261377a81613386565b9050919050565b6000602082019050818103600083015261379a816133a9565b9050919050565b600060208201905081810360008301526137ba816133cc565b9050919050565b600060208201905081810360008301526137da816133ef565b9050919050565b600060208201905081810360008301526137fa81613412565b9050919050565b6000602082019050818103600083015261381a81613435565b9050919050565b6000602082019050818103600083015261383a81613458565b9050919050565b6000602082019050818103600083015261385a8161347b565b9050919050565b6000602082019050818103600083015261387a8161349e565b9050919050565b6000602082019050818103600083015261389a816134c1565b9050919050565b600060208201905081810360008301526138ba816134e4565b9050919050565b600060208201905081810360008301526138da81613507565b9050919050565b600060208201905081810360008301526138fa8161352a565b9050919050565b6000602082019050818103600083015261391a8161354d565b9050919050565b6000602082019050613936600083018461357f565b92915050565b6000604082019050613951600083018561357f565b61395e602083018461357f565b9392505050565b600061396f613980565b905061397b8282613c27565b919050565b6000604051905090565b600067ffffffffffffffff8211156139a5576139a4613cff565b5b602082029050602081019050919050565b600067ffffffffffffffff8211156139d1576139d0613cff565b5b602082029050602081019050919050565b600067ffffffffffffffff8211156139fd576139fc613cff565b5b613a0682613d50565b9050602081019050919050565b600067ffffffffffffffff821115613a2e57613a2d613cff565b5b613a3782613d50565b9050602081019050919050565b6000819050602082019050919050565b600081519050919050565b600081519050919050565b600081519050919050565b6000602082019050919050565b600082825260208201905092915050565b600082825260208201905092915050565b600082825260208201905092915050565b6000613ac082613ba9565b9150613acb83613ba9565b9250827fffffffffffffffffffffffffffffffffffffffffffffffffffffffffffffffff03821115613b0057613aff613ca1565b5b828201905092915050565b6000613b1682613ba9565b9150613b2183613ba9565b925082821015613b3457613b33613ca1565b5b828203905092915050565b6000613b4a82613b89565b9050919050565b60008115159050919050565b60007fffffffff0000000000000000000000000000000000000000000000000000000082169050919050565b600073ffffffffffffffffffffffffffffffffffffffff82169050919050565b6000819050919050565b82818337600083830152505050565b60005b83811015613be0578082015181840152602081019050613bc5565b83811115613bef576000848401525b50505050565b60006002820490506001821680613c0d57607f821691505b60208210811415613c2157613c20613cd0565b5b50919050565b613c3082613d50565b810181811067ffffffffffffffff82111715613c4f57613c4e613cff565b5b80604052505050565b6000613c6382613ba9565b91507fffffffffffffffffffffffffffffffffffffffffffffffffffffffffffffffff821415613c9657613c95613ca1565b5b600182019050919050565b7f4e487b7100000000000000000000000000000000000000000000000000000000600052601160045260246000fd5b7f4e487b7100000000000000000000000000000000000000000000000000000000600052602260045260246000fd5b7f4e487b7100000000000000000000000000000000000000000000000000000000600052604160045260246000fd5b600060033d1115613d4d5760046000803e613d4a600051613d61565b90505b90565b6000601f19601f8301169050919050565b60008160e01c9050919050565b7f455243313135353a207472616e7366657220746f206e6f6e204552433131353560008201527f526563656976657220696d706c656d656e746572000000000000000000000000602082015250565b7f455243313135353a204552433131353552656365697665722072656a6563746560008201527f6420746f6b656e73000000000000000000000000000000000000000000000000602082015250565b7f5061757361626c653a206e6f7420706175736564000000000000000000000000600082015250565b7f455243313135353a2062616c616e636520717565727920666f7220746865207a60008201527f65726f2061646472657373000000000000000000000000000000000000000000602082015250565b7f4f776e61626c653a206e6577206f776e657220697320746865207a65726f206160008201527f6464726573730000000000000000000000000000000000000000000000000000602082015250565b7f455243313135353a206275726e20616d6f756e7420657863656564732062616c60008201527f616e636500000000000000000000000000000000000000000000000000000000602082015250565b7f455243313135353a2063616c6c6572206973206e6f74206f776e6572206e6f7260008201527f20617070726f7665640000000000000000000000000000000000000000000000602082015250565b7f5061757361626c653a2070617573656400000000000000000000000000000000600082015250565b7f455243313135353a207472616e7366657220746f20746865207a65726f20616460008201527f6472657373000000000000000000000000000000000000000000000000000000602082015250565b7f455243313135353a207472616e736665722063616c6c6572206973206e6f742060008201527f6f776e6572206e6f7220617070726f7665640000000000000000000000000000602082015250565b7f455243313135353a206275726e2066726f6d20746865207a65726f206164647260008201527f6573730000000000000000000000000000000000000000000000000000000000602082015250565b7f455243313135353a20696e73756666696369656e742062616c616e636520666f60008201527f72207472616e7366657200000000000000000000000000000000000000000000602082015250565b7f4f776e61626c653a2063616c6c6572206973206e6f7420746865206f776e6572600082015250565b7f455243313135353a2073657474696e6720617070726f76616c2073746174757360008201527f20666f722073656c660000000000000000000000000000000000000000000000602082015250565b7f455243313135353a206163636f756e747320616e6420696473206c656e67746860008201527f206d69736d617463680000000000000000000000000000000000000000000000602082015250565b7f455243313135353a2069647320616e6420616d6f756e7473206c656e6774682060008201527f6d69736d61746368000000000000000000000000000000000000000000000000602082015250565b7f455243313135353a206d696e7420746f20746865207a65726f2061646472657360008201527f7300000000000000000000000000000000000000000000000000000000000000602082015250565b600060443d101561424b576142ce565b614253613980565b60043d036004823e80513d602482011167ffffffffffffffff8211171561427b5750506142ce565b808201805167ffffffffffffffff81111561429957505050506142ce565b80602083010160043d0385018111156142b65750505050506142ce565b6142c582602001850186613c27565b82955050505050505b90565b6142da81613b3f565b81146142e557600080fd5b50565b6142f181613b51565b81146142fc57600080fd5b50565b61430881613b5d565b811461431357600080fd5b50565b61431f81613ba9565b811461432a57600080fd5b5056fea2646970667358221220d1fe07dbe54313f82ae42ea945c89ab116b1d00fe2f3ffd25073fa8053f23e5664736f6c6343000804003368747470733a2f2f6d657461707974686f6e2e6865726f6b756170702e636f6d2f6170692f626f782f7b69647d",
  "linkReferences": {},
  "deployedLinkReferences": {}
}