{
	"data": {
		"bytecode": {
			"linkReferences": {},
			"object": "60806040526203200060065573f57b2c51ded3a29e6891aba85459d600256cf317600760006101000a81548173ffffffffffffffffffffffffffffffffffffffff021916908373ffffffffffffffffffffffffffffffffffffffff1602179055503480156200006d57600080fd5b5060405180606001604052806029815260200162004d24602991396200009981620000db60201b60201c565b50620000ba620000ae620000f760201b60201c565b620000ff60201b60201c565b6000600360146101000a81548160ff021916908315150217905550620002da565b8060029080519060200190620000f3929190620001c5565b5050565b600033905090565b6000600360009054906101000a900473ffffffffffffffffffffffffffffffffffffffff16905081600360006101000a81548173ffffffffffffffffffffffffffffffffffffffff021916908373ffffffffffffffffffffffffffffffffffffffff1602179055508173ffffffffffffffffffffffffffffffffffffffff168173ffffffffffffffffffffffffffffffffffffffff167f8be0079c531659141344cd1fd0a4f28419497f9722a3daafe3b4186f6b6457e060405160405180910390a35050565b828054620001d39062000275565b90600052602060002090601f016020900481019282620001f7576000855562000243565b82601f106200021257805160ff191683800117855562000243565b8280016001018555821562000243579182015b828111156200024257825182559160200191906001019062000225565b5b50905062000252919062000256565b5090565b5b808211156200027157600081600090555060010162000257565b5090565b600060028204905060018216806200028e57607f821691505b60208210811415620002a557620002a4620002ab565b5b50919050565b7f4e487b7100000000000000000000000000000000000000000000000000000000600052602260045260246000fd5b614a3a80620002ea6000396000f3fe608060405234801561001057600080fd5b506004361061018d5760003560e01c8063715018a6116100de578063a22cb46511610097578063e985e9c511610071578063e985e9c514610442578063f242432a14610472578063f2fde38b1461048e578063f5298aca146104aa5761018d565b8063a22cb465146103d8578063bd85b039146103f4578063cce132d1146104245761018d565b8063715018a614610352578063731133e91461035c57806379c9cb7b146103785780638456cb59146103945780638da5cb5b1461039e57806397107d6d146103bc5761018d565b80632eb2c2d61161014b5780634f15787c116101255780634f15787c146102cc5780634f558e79146102e85780635c975abb146103185780636b20c454146103365761018d565b80632eb2c2d6146102765780633f4ba83a146102925780634e1273f41461029c5761018d565b8062fdd58e1461019257806301ffc9a7146101c257806302fe5305146101f25780630e89341c1461020e578063162094c41461023e5780631f7fdffa1461025a575b600080fd5b6101ac60048036038101906101a7919061343f565b6104c6565b6040516101b99190613f6a565b60405180910390f35b6101dc60048036038101906101d791906135cd565b61058f565b6040516101e99190613d0d565b60405180910390f35b61020c60048036038101906102079190613627565b610671565b005b61022860048036038101906102239190613670565b6106f9565b6040516102359190613d28565b60405180910390f35b6102586004803603810190610253919061369d565b61070b565b005b610274600480360381019061026f9190613275565b610795565b005b610290600480360381019061028b9190613084565b61085e565b005b61029a6108ff565b005b6102b660048036038101906102b19190613555565b610985565b6040516102c39190613cb4565b60405180910390f35b6102e660048036038101906102e19190613330565b610a9e565b005b61030260048036038101906102fd9190613670565b610af9565b60405161030f9190613d0d565b60405180910390f35b610320610b0d565b60405161032d9190613d0d565b60405180910390f35b610350600480360381019061034b91906131ea565b610b24565b005b61035a610bc1565b005b610376600480360381019061037191906134d2565b610c49565b005b610392600480360381019061038d9190613670565b610d12565b005b61039c610d98565b005b6103a6610e1e565b6040516103b39190613b24565b60405180910390f35b6103d660048036038101906103d19190613017565b610e48565b005b6103f260048036038101906103ed91906133ff565b610f08565b005b61040e60048036038101906104099190613670565b610f1e565b60405161041b9190613f6a565b60405180910390f35b61042c610f3b565b6040516104399190613f6a565b60405180910390f35b61045c60048036038101906104579190613044565b610f41565b6040516104699190613d0d565b60405180910390f35b61048c60048036038101906104879190613153565b610fb5565b005b6104a860048036038101906104a39190613017565b611056565b005b6104c460048036038101906104bf919061347f565b61114e565b005b60008073ffffffffffffffffffffffffffffffffffffffff168373ffffffffffffffffffffffffffffffffffffffff161415610537576040517f08c379a000000000000000000000000000000000000000000000000000000000815260040161052e90613daa565b60405180910390fd5b60008083815260200190815260200160002060008473ffffffffffffffffffffffffffffffffffffffff1673ffffffffffffffffffffffffffffffffffffffff16815260200190815260200160002054905092915050565b60007fd9b67a26000000000000000000000000000000000000000000000000000000007bffffffffffffffffffffffffffffffffffffffffffffffffffffffff1916827bffffffffffffffffffffffffffffffffffffffffffffffffffffffff1916148061065a57507f0e89341c000000000000000000000000000000000000000000000000000000007bffffffffffffffffffffffffffffffffffffffffffffffffffffffff1916827bffffffffffffffffffffffffffffffffffffffffffffffffffffffff1916145b8061066a5750610669826111eb565b5b9050919050565b610679611255565b73ffffffffffffffffffffffffffffffffffffffff16610697610e1e565b73ffffffffffffffffffffffffffffffffffffffff16146106ed576040517f08c379a00000000000000000000000000000000000000000000000000000000081526004016106e490613eca565b60405180910390fd5b6106f68161125d565b50565b606061070482611277565b9050919050565b610713611255565b73ffffffffffffffffffffffffffffffffffffffff16610731610e1e565b73ffffffffffffffffffffffffffffffffffffffff1614610787576040517f08c379a000000000000000000000000000000000000000000000000000000000815260040161077e90613eca565b60405180910390fd5b61079182826113c0565b5050565b61079d611255565b73ffffffffffffffffffffffffffffffffffffffff166107bb610e1e565b73ffffffffffffffffffffffffffffffffffffffff1614610811576040517f08c379a000000000000000000000000000000000000000000000000000000000815260040161080890613eca565b60405180910390fd5b61081d848484846113ec565b7f9d15fe863d6d778932c2425aab5de66f2fcc03f779b90c593d26ee152fbbe87184848460405161085093929190613c01565b60405180910390a150505050565b610866611255565b73ffffffffffffffffffffffffffffffffffffffff168573ffffffffffffffffffffffffffffffffffffffff1614806108ac57506108ab856108a6611255565b610f41565b5b6108eb576040517f08c379a00000000000000000000000000000000000000000000000000000000081526004016108e290613e6a565b60405180910390fd5b6108f8858585858561160a565b5050505050565b610907611255565b73ffffffffffffffffffffffffffffffffffffffff16610925610e1e565b73ffffffffffffffffffffffffffffffffffffffff161461097b576040517f08c379a000000000000000000000000000000000000000000000000000000000815260040161097290613eca565b60405180910390fd5b61098361191e565b565b606081518351146109cb576040517f08c379a00000000000000000000000000000000000000000000000000000000081526004016109c290613f0a565b60405180910390fd5b6000835167ffffffffffffffff8111156109e8576109e7614394565b5b604051908082528060200260200182016040528015610a165781602001602082028036833780820191505090505b50905060005b8451811015610a9357610a63858281518110610a3b57610a3a614365565b5b6020026020010151858381518110610a5657610a55614365565b5b60200260200101516104c6565b828281518110610a7657610a75614365565b5b60200260200101818152505080610a8c906142be565b9050610a1c565b508091505092915050565b610aa98585856119c0565b610ab68583600184611c71565b7f25b428dfde728ccfaddad7e29e4ac23c24ed7fd1a6e3e3f91894a9a073f5dfff85836001604051610aea93929190613c46565b60405180910390a15050505050565b600080610b0583610f1e565b119050919050565b6000600360149054906101000a900460ff16905090565b610b2c611255565b73ffffffffffffffffffffffffffffffffffffffff168373ffffffffffffffffffffffffffffffffffffffff161480610b725750610b7183610b6c611255565b610f41565b5b610bb1576040517f08c379a0000000000000000000000000000000000000000000000000000000008152600401610ba890613e0a565b60405180910390fd5b610bbc8383836119c0565b505050565b610bc9611255565b73ffffffffffffffffffffffffffffffffffffffff16610be7610e1e565b73ffffffffffffffffffffffffffffffffffffffff1614610c3d576040517f08c379a0000000000000000000000000000000000000000000000000000000008152600401610c3490613eca565b60405180910390fd5b610c476000611e07565b565b610c51611255565b73ffffffffffffffffffffffffffffffffffffffff16610c6f610e1e565b73ffffffffffffffffffffffffffffffffffffffff1614610cc5576040517f08c379a0000000000000000000000000000000000000000000000000000000008152600401610cbc90613eca565b60405180910390fd5b610cd184848484611c71565b7f25b428dfde728ccfaddad7e29e4ac23c24ed7fd1a6e3e3f91894a9a073f5dfff848484604051610d0493929190613c7d565b60405180910390a150505050565b610d1a611255565b73ffffffffffffffffffffffffffffffffffffffff16610d38610e1e565b73ffffffffffffffffffffffffffffffffffffffff1614610d8e576040517f08c379a0000000000000000000000000000000000000000000000000000000008152600401610d8590613eca565b60405180910390fd5b8060068190555050565b610da0611255565b73ffffffffffffffffffffffffffffffffffffffff16610dbe610e1e565b73ffffffffffffffffffffffffffffffffffffffff1614610e14576040517f08c379a0000000000000000000000000000000000000000000000000000000008152600401610e0b90613eca565b60405180910390fd5b610e1c611ecd565b565b6000600360009054906101000a900473ffffffffffffffffffffffffffffffffffffffff16905090565b610e50611255565b73ffffffffffffffffffffffffffffffffffffffff16610e6e610e1e565b73ffffffffffffffffffffffffffffffffffffffff1614610ec4576040517f08c379a0000000000000000000000000000000000000000000000000000000008152600401610ebb90613eca565b60405180910390fd5b80600760006101000a81548173ffffffffffffffffffffffffffffffffffffffff021916908373ffffffffffffffffffffffffffffffffffffffff16021790555050565b610f1a610f13611255565b8383611f70565b5050565b600060046000838152602001908152602001600020549050919050565b60065481565b6000600760009054906101000a900473ffffffffffffffffffffffffffffffffffffffff1673ffffffffffffffffffffffffffffffffffffffff168273ffffffffffffffffffffffffffffffffffffffff161415610fa25760019050610faf565b610fac83836120dd565b90505b92915050565b610fbd611255565b73ffffffffffffffffffffffffffffffffffffffff168573ffffffffffffffffffffffffffffffffffffffff161480611003575061100285610ffd611255565b610f41565b5b611042576040517f08c379a000000000000000000000000000000000000000000000000000000000815260040161103990613e0a565b60405180910390fd5b61104f8585858585612171565b5050505050565b61105e611255565b73ffffffffffffffffffffffffffffffffffffffff1661107c610e1e565b73ffffffffffffffffffffffffffffffffffffffff16146110d2576040517f08c379a00000000000000000000000000000000000000000000000000000000081526004016110c990613eca565b60405180910390fd5b600073ffffffffffffffffffffffffffffffffffffffff168173ffffffffffffffffffffffffffffffffffffffff161415611142576040517f08c379a000000000000000000000000000000000000000000000000000000000815260040161113990613dca565b60405180910390fd5b61114b81611e07565b50565b611156611255565b73ffffffffffffffffffffffffffffffffffffffff168373ffffffffffffffffffffffffffffffffffffffff16148061119c575061119b83611196611255565b610f41565b5b6111db576040517f08c379a00000000000000000000000000000000000000000000000000000000081526004016111d290613e0a565b60405180910390fd5b6111e68383836123f3565b505050565b60007f01ffc9a7000000000000000000000000000000000000000000000000000000007bffffffffffffffffffffffffffffffffffffffffffffffffffffffff1916827bffffffffffffffffffffffffffffffffffffffffffffffffffffffff1916149050919050565b600033905090565b8060029080519060200190611273929190612cef565b5050565b606060006005600084815260200190815260200160002080546112999061425b565b80601f01602080910402602001604051908101604052809291908181526020018280546112c59061425b565b80156113125780601f106112e757610100808354040283529160200191611312565b820191906000526020600020905b8154815290600101906020018083116112f557829003601f168201915b50505050509050600061132484612610565b905060008151141561135957816040516020016113419190613b02565b604051602081830303815290604052925050506113bb565b60008251111561138e578082604051602001611376929190613ad3565b604051602081830303815290604052925050506113bb565b61139784612610565b6040516020016113a79190613b02565b604051602081830303815290604052925050505b919050565b806005600084815260200190815260200160002090805190602001906113e7929190612cef565b505050565b600073ffffffffffffffffffffffffffffffffffffffff168473ffffffffffffffffffffffffffffffffffffffff16141561145c576040517f08c379a000000000000000000000000000000000000000000000000000000000815260040161145390613f4a565b60405180910390fd5b81518351146114a0576040517f08c379a000000000000000000000000000000000000000000000000000000000815260040161149790613f2a565b60405180910390fd5b60006114aa611255565b90506114bb816000878787876126a4565b60005b8451811015611574578381815181106114da576114d9614365565b5b60200260200101516000808784815181106114f8576114f7614365565b5b6020026020010151815260200190815260200160002060008873ffffffffffffffffffffffffffffffffffffffff1673ffffffffffffffffffffffffffffffffffffffff168152602001908152602001600020600082825461155a9190614109565b92505081905550808061156c906142be565b9150506114be565b508473ffffffffffffffffffffffffffffffffffffffff16600073ffffffffffffffffffffffffffffffffffffffff168273ffffffffffffffffffffffffffffffffffffffff167f4a39dc06d4c0dbc64b70af90fd698a233a518aa5d07e595d983b8c0526c8f7fb87876040516115ec929190613cd6565b60405180910390a461160381600087878787612702565b5050505050565b815183511461164e576040517f08c379a000000000000000000000000000000000000000000000000000000000815260040161164590613f2a565b60405180910390fd5b600073ffffffffffffffffffffffffffffffffffffffff168473ffffffffffffffffffffffffffffffffffffffff1614156116be576040517f08c379a00000000000000000000000000000000000000000000000000000000081526004016116b590613e4a565b60405180910390fd5b60006116c8611255565b90506116d88187878787876126a4565b60005b84518110156118895760008582815181106116f9576116f8614365565b5b60200260200101519050600085838151811061171857611717614365565b5b60200260200101519050600080600084815260200190815260200160002060008b73ffffffffffffffffffffffffffffffffffffffff1673ffffffffffffffffffffffffffffffffffffffff168152602001908152602001600020549050818110156117b9576040517f08c379a00000000000000000000000000000000000000000000000000000000081526004016117b090613eaa565b60405180910390fd5b81810360008085815260200190815260200160002060008c73ffffffffffffffffffffffffffffffffffffffff1673ffffffffffffffffffffffffffffffffffffffff168152602001908152602001600020819055508160008085815260200190815260200160002060008b73ffffffffffffffffffffffffffffffffffffffff1673ffffffffffffffffffffffffffffffffffffffff168152602001908152602001600020600082825461186e9190614109565b9250508190555050505080611882906142be565b90506116db565b508473ffffffffffffffffffffffffffffffffffffffff168673ffffffffffffffffffffffffffffffffffffffff168273ffffffffffffffffffffffffffffffffffffffff167f4a39dc06d4c0dbc64b70af90fd698a233a518aa5d07e595d983b8c0526c8f7fb8787604051611900929190613cd6565b60405180910390a4611916818787878787612702565b505050505050565b611926610b0d565b611965576040517f08c379a000000000000000000000000000000000000000000000000000000000815260040161195c90613d8a565b60405180910390fd5b6000600360146101000a81548160ff0219169083151502179055507f5db9ee0a495bf2e6ff9c91a7834c1ba4fdd244a5e8aa4e537bd38aeae4b073aa6119a9611255565b6040516119b69190613b24565b60405180910390a1565b600073ffffffffffffffffffffffffffffffffffffffff168373ffffffffffffffffffffffffffffffffffffffff161415611a30576040517f08c379a0000000000000000000000000000000000000000000000000000000008152600401611a2790613e8a565b60405180910390fd5b8051825114611a74576040517f08c379a0000000000000000000000000000000000000000000000000000000008152600401611a6b90613f2a565b60405180910390fd5b6000611a7e611255565b9050611a9e818560008686604051806020016040528060008152506126a4565b60005b8351811015611beb576000848281518110611abf57611abe614365565b5b602002602001015190506000848381518110611ade57611add614365565b5b60200260200101519050600080600084815260200190815260200160002060008973ffffffffffffffffffffffffffffffffffffffff1673ffffffffffffffffffffffffffffffffffffffff16815260200190815260200160002054905081811015611b7f576040517f08c379a0000000000000000000000000000000000000000000000000000000008152600401611b7690613dea565b60405180910390fd5b81810360008085815260200190815260200160002060008a73ffffffffffffffffffffffffffffffffffffffff1673ffffffffffffffffffffffffffffffffffffffff168152602001908152602001600020819055505050508080611be3906142be565b915050611aa1565b50600073ffffffffffffffffffffffffffffffffffffffff168473ffffffffffffffffffffffffffffffffffffffff168273ffffffffffffffffffffffffffffffffffffffff167f4a39dc06d4c0dbc64b70af90fd698a233a518aa5d07e595d983b8c0526c8f7fb8686604051611c63929190613cd6565b60405180910390a450505050565b600073ffffffffffffffffffffffffffffffffffffffff168473ffffffffffffffffffffffffffffffffffffffff161415611ce1576040517f08c379a0000000000000000000000000000000000000000000000000000000008152600401611cd890613f4a565b60405180910390fd5b6000611ceb611255565b9050611d0c81600087611cfd886128e9565b611d06886128e9565b876126a4565b8260008086815260200190815260200160002060008773ffffffffffffffffffffffffffffffffffffffff1673ffffffffffffffffffffffffffffffffffffffff1681526020019081526020016000206000828254611d6b9190614109565b925050819055508473ffffffffffffffffffffffffffffffffffffffff16600073ffffffffffffffffffffffffffffffffffffffff168273ffffffffffffffffffffffffffffffffffffffff167fc3d58168c5ae7397731d063d5bbf3d657854427343f4c083240f7aacaa2d0f628787604051611de9929190613f85565b60405180910390a4611e0081600087878787612963565b5050505050565b6000600360009054906101000a900473ffffffffffffffffffffffffffffffffffffffff16905081600360006101000a81548173ffffffffffffffffffffffffffffffffffffffff021916908373ffffffffffffffffffffffffffffffffffffffff1602179055508173ffffffffffffffffffffffffffffffffffffffff168173ffffffffffffffffffffffffffffffffffffffff167f8be0079c531659141344cd1fd0a4f28419497f9722a3daafe3b4186f6b6457e060405160405180910390a35050565b611ed5610b0d565b15611f15576040517f08c379a0000000000000000000000000000000000000000000000000000000008152600401611f0c90613e2a565b60405180910390fd5b6001600360146101000a81548160ff0219169083151502179055507f62e78cea01bee320cd4e420270b5ea74000d11b0c9f74754ebdbfc544b05a258611f59611255565b604051611f669190613b24565b60405180910390a1565b8173ffffffffffffffffffffffffffffffffffffffff168373ffffffffffffffffffffffffffffffffffffffff161415611fdf576040517f08c379a0000000000000000000000000000000000000000000000000000000008152600401611fd690613eea565b60405180910390fd5b80600160008573ffffffffffffffffffffffffffffffffffffffff1673ffffffffffffffffffffffffffffffffffffffff16815260200190815260200160002060008473ffffffffffffffffffffffffffffffffffffffff1673ffffffffffffffffffffffffffffffffffffffff16815260200190815260200160002060006101000a81548160ff0219169083151502179055508173ffffffffffffffffffffffffffffffffffffffff168373ffffffffffffffffffffffffffffffffffffffff167f17307eab39ab6107e8899845ad3d59bd9653f200f220920489ca2b5937696c31836040516120d09190613d0d565b60405180910390a3505050565b6000600160008473ffffffffffffffffffffffffffffffffffffffff1673ffffffffffffffffffffffffffffffffffffffff16815260200190815260200160002060008373ffffffffffffffffffffffffffffffffffffffff1673ffffffffffffffffffffffffffffffffffffffff16815260200190815260200160002060009054906101000a900460ff16905092915050565b600073ffffffffffffffffffffffffffffffffffffffff168473ffffffffffffffffffffffffffffffffffffffff1614156121e1576040517f08c379a00000000000000000000000000000000000000000000000000000000081526004016121d890613e4a565b60405180910390fd5b60006121eb611255565b905061220b8187876121fc886128e9565b612205886128e9565b876126a4565b600080600086815260200190815260200160002060008873ffffffffffffffffffffffffffffffffffffffff1673ffffffffffffffffffffffffffffffffffffffff168152602001908152602001600020549050838110156122a2576040517f08c379a000000000000000000000000000000000000000000000000000000000815260040161229990613eaa565b60405180910390fd5b83810360008087815260200190815260200160002060008973ffffffffffffffffffffffffffffffffffffffff1673ffffffffffffffffffffffffffffffffffffffff168152602001908152602001600020819055508360008087815260200190815260200160002060008873ffffffffffffffffffffffffffffffffffffffff1673ffffffffffffffffffffffffffffffffffffffff16815260200190815260200160002060008282546123579190614109565b925050819055508573ffffffffffffffffffffffffffffffffffffffff168773ffffffffffffffffffffffffffffffffffffffff168373ffffffffffffffffffffffffffffffffffffffff167fc3d58168c5ae7397731d063d5bbf3d657854427343f4c083240f7aacaa2d0f6288886040516123d4929190613f85565b60405180910390a46123ea828888888888612963565b50505050505050565b600073ffffffffffffffffffffffffffffffffffffffff168373ffffffffffffffffffffffffffffffffffffffff161415612463576040517f08c379a000000000000000000000000000000000000000000000000000000000815260040161245a90613e8a565b60405180910390fd5b600061246d611255565b905061249d8185600061247f876128e9565b612488876128e9565b604051806020016040528060008152506126a4565b600080600085815260200190815260200160002060008673ffffffffffffffffffffffffffffffffffffffff1673ffffffffffffffffffffffffffffffffffffffff16815260200190815260200160002054905082811015612534576040517f08c379a000000000000000000000000000000000000000000000000000000000815260040161252b90613dea565b60405180910390fd5b82810360008086815260200190815260200160002060008773ffffffffffffffffffffffffffffffffffffffff1673ffffffffffffffffffffffffffffffffffffffff16815260200190815260200160002081905550600073ffffffffffffffffffffffffffffffffffffffff168573ffffffffffffffffffffffffffffffffffffffff168373ffffffffffffffffffffffffffffffffffffffff167fc3d58168c5ae7397731d063d5bbf3d657854427343f4c083240f7aacaa2d0f628787604051612601929190613f85565b60405180910390a45050505050565b60606002805461261f9061425b565b80601f016020809104026020016040519081016040528092919081815260200182805461264b9061425b565b80156126985780601f1061266d57610100808354040283529160200191612698565b820191906000526020600020905b81548152906001019060200180831161267b57829003601f168201915b50505050509050919050565b6126ac610b0d565b156126ec576040517f08c379a00000000000000000000000000000000000000000000000000000000081526004016126e390613e2a565b60405180910390fd5b6126fa868686868686612b4a565b505050505050565b6127218473ffffffffffffffffffffffffffffffffffffffff16612cc4565b156128e1578373ffffffffffffffffffffffffffffffffffffffff1663bc197c8187878686866040518663ffffffff1660e01b8152600401612767959493929190613b3f565b602060405180830381600087803b15801561278157600080fd5b505af19250505080156127b257506040513d601f19601f820116820180604052508101906127af91906135fa565b60015b612858576127be6143c3565b806308c379a0141561281b57506127d3614912565b806127de575061281d565b806040517f08c379a00000000000000000000000000000000000000000000000000000000081526004016128129190613d28565b60405180910390fd5b505b6040517f08c379a000000000000000000000000000000000000000000000000000000000815260040161284f90613d4a565b60405180910390fd5b63bc197c8160e01b7bffffffffffffffffffffffffffffffffffffffffffffffffffffffff1916817bffffffffffffffffffffffffffffffffffffffffffffffffffffffff1916146128df576040517f08c379a00000000000000000000000000000000000000000000000000000000081526004016128d690613d6a565b60405180910390fd5b505b505050505050565b60606000600167ffffffffffffffff81111561290857612907614394565b5b6040519080825280602002602001820160405280156129365781602001602082028036833780820191505090505b509050828160008151811061294e5761294d614365565b5b60200260200101818152505080915050919050565b6129828473ffffffffffffffffffffffffffffffffffffffff16612cc4565b15612b42578373ffffffffffffffffffffffffffffffffffffffff1663f23a6e6187878686866040518663ffffffff1660e01b81526004016129c8959493929190613ba7565b602060405180830381600087803b1580156129e257600080fd5b505af1925050508015612a1357506040513d601f19601f82011682018060405250810190612a1091906135fa565b60015b612ab957612a1f6143c3565b806308c379a01415612a7c5750612a34614912565b80612a3f5750612a7e565b806040517f08c379a0000000000000000000000000000000000000000000000000000000008152600401612a739190613d28565b60405180910390fd5b505b6040517f08c379a0000000000000000000000000000000000000000000000000000000008152600401612ab090613d4a565b60405180910390fd5b63f23a6e6160e01b7bffffffffffffffffffffffffffffffffffffffffffffffffffffffff1916817bffffffffffffffffffffffffffffffffffffffffffffffffffffffff191614612b40576040517f08c379a0000000000000000000000000000000000000000000000000000000008152600401612b3790613d6a565b60405180910390fd5b505b505050505050565b612b58868686868686612ce7565b600073ffffffffffffffffffffffffffffffffffffffff168573ffffffffffffffffffffffffffffffffffffffff161415612c0a5760005b8351811015612c0857828181518110612bac57612bab614365565b5b602002602001015160046000868481518110612bcb57612bca614365565b5b602002602001015181526020019081526020016000206000828254612bf09190614109565b9250508190555080612c01906142be565b9050612b90565b505b600073ffffffffffffffffffffffffffffffffffffffff168473ffffffffffffffffffffffffffffffffffffffff161415612cbc5760005b8351811015612cba57828181518110612c5e57612c5d614365565b5b602002602001015160046000868481518110612c7d57612c7c614365565b5b602002602001015181526020019081526020016000206000828254612ca2919061415f565b9250508190555080612cb3906142be565b9050612c42565b505b505050505050565b6000808273ffffffffffffffffffffffffffffffffffffffff163b119050919050565b505050505050565b828054612cfb9061425b565b90600052602060002090601f016020900481019282612d1d5760008555612d64565b82601f10612d3657805160ff1916838001178555612d64565b82800160010185558215612d64579182015b82811115612d63578251825591602001919060010190612d48565b5b509050612d719190612d75565b5090565b5b80821115612d8e576000816000905550600101612d76565b5090565b6000612da5612da084613fd3565b613fae565b90508083825260208201905082856020860282011115612dc857612dc76143ea565b5b60005b85811015612df85781612dde8882612ef6565b845260208401935060208301925050600181019050612dcb565b5050509392505050565b6000612e15612e1084613fff565b613fae565b90508083825260208201905082856020860282011115612e3857612e376143ea565b5b60005b85811015612e685781612e4e8882613002565b845260208401935060208301925050600181019050612e3b565b5050509392505050565b6000612e85612e808461402b565b613fae565b905082815260208101848484011115612ea157612ea06143ef565b5b612eac848285614219565b509392505050565b6000612ec7612ec28461405c565b613fae565b905082815260208101848484011115612ee357612ee26143ef565b5b612eee848285614219565b509392505050565b600081359050612f05816149a8565b92915050565b600082601f830112612f2057612f1f6143e5565b5b8135612f30848260208601612d92565b91505092915050565b600082601f830112612f4e57612f4d6143e5565b5b8135612f5e848260208601612e02565b91505092915050565b600081359050612f76816149bf565b92915050565b600081359050612f8b816149d6565b92915050565b600081519050612fa0816149d6565b92915050565b600082601f830112612fbb57612fba6143e5565b5b8135612fcb848260208601612e72565b91505092915050565b600082601f830112612fe957612fe86143e5565b5b8135612ff9848260208601612eb4565b91505092915050565b600081359050613011816149ed565b92915050565b60006020828403121561302d5761302c6143f9565b5b600061303b84828501612ef6565b91505092915050565b6000806040838503121561305b5761305a6143f9565b5b600061306985828601612ef6565b925050602061307a85828601612ef6565b9150509250929050565b600080600080600060a086880312156130a05761309f6143f9565b5b60006130ae88828901612ef6565b95505060206130bf88828901612ef6565b945050604086013567ffffffffffffffff8111156130e0576130df6143f4565b5b6130ec88828901612f39565b935050606086013567ffffffffffffffff81111561310d5761310c6143f4565b5b61311988828901612f39565b925050608086013567ffffffffffffffff81111561313a576131396143f4565b5b61314688828901612fa6565b9150509295509295909350565b600080600080600060a0868803121561316f5761316e6143f9565b5b600061317d88828901612ef6565b955050602061318e88828901612ef6565b945050604061319f88828901613002565b93505060606131b088828901613002565b925050608086013567ffffffffffffffff8111156131d1576131d06143f4565b5b6131dd88828901612fa6565b9150509295509295909350565b600080600060608486031215613203576132026143f9565b5b600061321186828701612ef6565b935050602084013567ffffffffffffffff811115613232576132316143f4565b5b61323e86828701612f39565b925050604084013567ffffffffffffffff81111561325f5761325e6143f4565b5b61326b86828701612f39565b9150509250925092565b6000806000806080858703121561328f5761328e6143f9565b5b600061329d87828801612ef6565b945050602085013567ffffffffffffffff8111156132be576132bd6143f4565b5b6132ca87828801612f39565b935050604085013567ffffffffffffffff8111156132eb576132ea6143f4565b5b6132f787828801612f39565b925050606085013567ffffffffffffffff811115613318576133176143f4565b5b61332487828801612fa6565b91505092959194509250565b600080600080600060a0868803121561334c5761334b6143f9565b5b600061335a88828901612ef6565b955050602086013567ffffffffffffffff81111561337b5761337a6143f4565b5b61338788828901612f39565b945050604086013567ffffffffffffffff8111156133a8576133a76143f4565b5b6133b488828901612f39565b93505060606133c588828901613002565b925050608086013567ffffffffffffffff8111156133e6576133e56143f4565b5b6133f288828901612fa6565b9150509295509295909350565b60008060408385031215613416576134156143f9565b5b600061342485828601612ef6565b925050602061343585828601612f67565b9150509250929050565b60008060408385031215613456576134556143f9565b5b600061346485828601612ef6565b925050602061347585828601613002565b9150509250929050565b600080600060608486031215613498576134976143f9565b5b60006134a686828701612ef6565b93505060206134b786828701613002565b92505060406134c886828701613002565b9150509250925092565b600080600080608085870312156134ec576134eb6143f9565b5b60006134fa87828801612ef6565b945050602061350b87828801613002565b935050604061351c87828801613002565b925050606085013567ffffffffffffffff81111561353d5761353c6143f4565b5b61354987828801612fa6565b91505092959194509250565b6000806040838503121561356c5761356b6143f9565b5b600083013567ffffffffffffffff81111561358a576135896143f4565b5b61359685828601612f0b565b925050602083013567ffffffffffffffff8111156135b7576135b66143f4565b5b6135c385828601612f39565b9150509250929050565b6000602082840312156135e3576135e26143f9565b5b60006135f184828501612f7c565b91505092915050565b6000602082840312156136105761360f6143f9565b5b600061361e84828501612f91565b91505092915050565b60006020828403121561363d5761363c6143f9565b5b600082013567ffffffffffffffff81111561365b5761365a6143f4565b5b61366784828501612fd4565b91505092915050565b600060208284031215613686576136856143f9565b5b600061369484828501613002565b91505092915050565b600080604083850312156136b4576136b36143f9565b5b60006136c285828601613002565b925050602083013567ffffffffffffffff8111156136e3576136e26143f4565b5b6136ef85828601612fd4565b9150509250929050565b60006137058383613ab5565b60208301905092915050565b61371a81614193565b82525050565b600061372b8261409d565b61373581856140cb565b93506137408361408d565b8060005b8381101561377157815161375888826136f9565b9750613763836140be565b925050600181019050613744565b5085935050505092915050565b613787816141a5565b82525050565b6000613798826140a8565b6137a281856140dc565b93506137b2818560208601614228565b6137bb816143fe565b840191505092915050565b6137cf81614207565b82525050565b60006137e0826140b3565b6137ea81856140ed565b93506137fa818560208601614228565b613803816143fe565b840191505092915050565b6000613819826140b3565b61382381856140fe565b9350613833818560208601614228565b80840191505092915050565b600061384c6034836140ed565b91506138578261441c565b604082019050919050565b600061386f6028836140ed565b915061387a8261446b565b604082019050919050565b60006138926014836140ed565b915061389d826144ba565b602082019050919050565b60006138b5602b836140ed565b91506138c0826144e3565b604082019050919050565b60006138d86026836140ed565b91506138e382614532565b604082019050919050565b60006138fb6024836140ed565b915061390682614581565b604082019050919050565b600061391e6029836140ed565b9150613929826145d0565b604082019050919050565b60006139416010836140ed565b915061394c8261461f565b602082019050919050565b60006139646025836140ed565b915061396f82614648565b604082019050919050565b60006139876032836140ed565b915061399282614697565b604082019050919050565b60006139aa6023836140ed565b91506139b5826146e6565b604082019050919050565b60006139cd602a836140ed565b91506139d882614735565b604082019050919050565b60006139f06020836140ed565b91506139fb82614784565b602082019050919050565b6000613a136004836140fe565b9150613a1e826147ad565b600482019050919050565b6000613a366029836140ed565b9150613a41826147d6565b604082019050919050565b6000613a596029836140ed565b9150613a6482614825565b604082019050919050565b6000613a7c6028836140ed565b9150613a8782614874565b604082019050919050565b6000613a9f6021836140ed565b9150613aaa826148c3565b604082019050919050565b613abe816141fd565b82525050565b613acd816141fd565b82525050565b6000613adf828561380e565b9150613aeb828461380e565b9150613af682613a06565b91508190509392505050565b6000613b0e828461380e565b9150613b1982613a06565b915081905092915050565b6000602082019050613b396000830184613711565b92915050565b600060a082019050613b546000830188613711565b613b616020830187613711565b8181036040830152613b738186613720565b90508181036060830152613b878185613720565b90508181036080830152613b9b818461378d565b90509695505050505050565b600060a082019050613bbc6000830188613711565b613bc96020830187613711565b613bd66040830186613ac4565b613be36060830185613ac4565b8181036080830152613bf5818461378d565b90509695505050505050565b6000606082019050613c166000830186613711565b8181036020830152613c288185613720565b90508181036040830152613c3c8184613720565b9050949350505050565b6000606082019050613c5b6000830186613711565b613c686020830185613ac4565b613c7560408301846137c6565b949350505050565b6000606082019050613c926000830186613711565b613c9f6020830185613ac4565b613cac6040830184613ac4565b949350505050565b60006020820190508181036000830152613cce8184613720565b905092915050565b60006040820190508181036000830152613cf08185613720565b90508181036020830152613d048184613720565b90509392505050565b6000602082019050613d22600083018461377e565b92915050565b60006020820190508181036000830152613d4281846137d5565b905092915050565b60006020820190508181036000830152613d638161383f565b9050919050565b60006020820190508181036000830152613d8381613862565b9050919050565b60006020820190508181036000830152613da381613885565b9050919050565b60006020820190508181036000830152613dc3816138a8565b9050919050565b60006020820190508181036000830152613de3816138cb565b9050919050565b60006020820190508181036000830152613e03816138ee565b9050919050565b60006020820190508181036000830152613e2381613911565b9050919050565b60006020820190508181036000830152613e4381613934565b9050919050565b60006020820190508181036000830152613e6381613957565b9050919050565b60006020820190508181036000830152613e838161397a565b9050919050565b60006020820190508181036000830152613ea38161399d565b9050919050565b60006020820190508181036000830152613ec3816139c0565b9050919050565b60006020820190508181036000830152613ee3816139e3565b9050919050565b60006020820190508181036000830152613f0381613a29565b9050919050565b60006020820190508181036000830152613f2381613a4c565b9050919050565b60006020820190508181036000830152613f4381613a6f565b9050919050565b60006020820190508181036000830152613f6381613a92565b9050919050565b6000602082019050613f7f6000830184613ac4565b92915050565b6000604082019050613f9a6000830185613ac4565b613fa76020830184613ac4565b9392505050565b6000613fb8613fc9565b9050613fc4828261428d565b919050565b6000604051905090565b600067ffffffffffffffff821115613fee57613fed614394565b5b602082029050602081019050919050565b600067ffffffffffffffff82111561401a57614019614394565b5b602082029050602081019050919050565b600067ffffffffffffffff82111561404657614045614394565b5b61404f826143fe565b9050602081019050919050565b600067ffffffffffffffff82111561407757614076614394565b5b614080826143fe565b9050602081019050919050565b6000819050602082019050919050565b600081519050919050565b600081519050919050565b600081519050919050565b6000602082019050919050565b600082825260208201905092915050565b600082825260208201905092915050565b600082825260208201905092915050565b600081905092915050565b6000614114826141fd565b915061411f836141fd565b9250827fffffffffffffffffffffffffffffffffffffffffffffffffffffffffffffffff0382111561415457614153614307565b5b828201905092915050565b600061416a826141fd565b9150614175836141fd565b92508282101561418857614187614307565b5b828203905092915050565b600061419e826141dd565b9050919050565b60008115159050919050565b60007fffffffff0000000000000000000000000000000000000000000000000000000082169050919050565b600073ffffffffffffffffffffffffffffffffffffffff82169050919050565b6000819050919050565b6000614212826141fd565b9050919050565b82818337600083830152505050565b60005b8381101561424657808201518184015260208101905061422b565b83811115614255576000848401525b50505050565b6000600282049050600182168061427357607f821691505b6020821081141561428757614286614336565b5b50919050565b614296826143fe565b810181811067ffffffffffffffff821117156142b5576142b4614394565b5b80604052505050565b60006142c9826141fd565b91507fffffffffffffffffffffffffffffffffffffffffffffffffffffffffffffffff8214156142fc576142fb614307565b5b600182019050919050565b7f4e487b7100000000000000000000000000000000000000000000000000000000600052601160045260246000fd5b7f4e487b7100000000000000000000000000000000000000000000000000000000600052602260045260246000fd5b7f4e487b7100000000000000000000000000000000000000000000000000000000600052603260045260246000fd5b7f4e487b7100000000000000000000000000000000000000000000000000000000600052604160045260246000fd5b600060033d11156143e25760046000803e6143df60005161440f565b90505b90565b600080fd5b600080fd5b600080fd5b600080fd5b600080fd5b6000601f19601f8301169050919050565b60008160e01c9050919050565b7f455243313135353a207472616e7366657220746f206e6f6e204552433131353560008201527f526563656976657220696d706c656d656e746572000000000000000000000000602082015250565b7f455243313135353a204552433131353552656365697665722072656a6563746560008201527f6420746f6b656e73000000000000000000000000000000000000000000000000602082015250565b7f5061757361626c653a206e6f7420706175736564000000000000000000000000600082015250565b7f455243313135353a2062616c616e636520717565727920666f7220746865207a60008201527f65726f2061646472657373000000000000000000000000000000000000000000602082015250565b7f4f776e61626c653a206e6577206f776e657220697320746865207a65726f206160008201527f6464726573730000000000000000000000000000000000000000000000000000602082015250565b7f455243313135353a206275726e20616d6f756e7420657863656564732062616c60008201527f616e636500000000000000000000000000000000000000000000000000000000602082015250565b7f455243313135353a2063616c6c6572206973206e6f74206f776e6572206e6f7260008201527f20617070726f7665640000000000000000000000000000000000000000000000602082015250565b7f5061757361626c653a2070617573656400000000000000000000000000000000600082015250565b7f455243313135353a207472616e7366657220746f20746865207a65726f20616460008201527f6472657373000000000000000000000000000000000000000000000000000000602082015250565b7f455243313135353a207472616e736665722063616c6c6572206973206e6f742060008201527f6f776e6572206e6f7220617070726f7665640000000000000000000000000000602082015250565b7f455243313135353a206275726e2066726f6d20746865207a65726f206164647260008201527f6573730000000000000000000000000000000000000000000000000000000000602082015250565b7f455243313135353a20696e73756666696369656e742062616c616e636520666f60008201527f72207472616e7366657200000000000000000000000000000000000000000000602082015250565b7f4f776e61626c653a2063616c6c6572206973206e6f7420746865206f776e6572600082015250565b7f7b69647d00000000000000000000000000000000000000000000000000000000600082015250565b7f455243313135353a2073657474696e6720617070726f76616c2073746174757360008201527f20666f722073656c660000000000000000000000000000000000000000000000602082015250565b7f455243313135353a206163636f756e747320616e6420696473206c656e67746860008201527f206d69736d617463680000000000000000000000000000000000000000000000602082015250565b7f455243313135353a2069647320616e6420616d6f756e7473206c656e6774682060008201527f6d69736d61746368000000000000000000000000000000000000000000000000602082015250565b7f455243313135353a206d696e7420746f20746865207a65726f2061646472657360008201527f7300000000000000000000000000000000000000000000000000000000000000602082015250565b600060443d1015614922576149a5565b61492a613fc9565b60043d036004823e80513d602482011167ffffffffffffffff821117156149525750506149a5565b808201805167ffffffffffffffff81111561497057505050506149a5565b80602083010160043d03850181111561498d5750505050506149a5565b61499c8260200185018661428d565b82955050505050505b90565b6149b181614193565b81146149bc57600080fd5b50565b6149c8816141a5565b81146149d357600080fd5b50565b6149df816141b1565b81146149ea57600080fd5b50565b6149f6816141fd565b8114614a0157600080fd5b5056fea2646970667358221220088d08c401f76aa7c6eb824e9fd8064e63338e484fd8f9988c5d8f80c3265e4764736f6c6343000807003368747470733a2f2f6d657461707974686f6e2e6865726f6b756170702e636f6d2f6170692f626f782f",
			"opcodes": "PUSH1 0x80 PUSH1 0x40 MSTORE PUSH3 0x32000 PUSH1 0x6 SSTORE PUSH20 0xF57B2C51DED3A29E6891ABA85459D600256CF317 PUSH1 0x7 PUSH1 0x0 PUSH2 0x100 EXP DUP2 SLOAD DUP2 PUSH20 0xFFFFFFFFFFFFFFFFFFFFFFFFFFFFFFFFFFFFFFFF MUL NOT AND SWAP1 DUP4 PUSH20 0xFFFFFFFFFFFFFFFFFFFFFFFFFFFFFFFFFFFFFFFF AND MUL OR SWAP1 SSTORE POP CALLVALUE DUP1 ISZERO PUSH3 0x6D JUMPI PUSH1 0x0 DUP1 REVERT JUMPDEST POP PUSH1 0x40 MLOAD DUP1 PUSH1 0x60 ADD PUSH1 0x40 MSTORE DUP1 PUSH1 0x29 DUP2 MSTORE PUSH1 0x20 ADD PUSH3 0x4D24 PUSH1 0x29 SWAP2 CODECOPY PUSH3 0x99 DUP2 PUSH3 0xDB PUSH1 0x20 SHL PUSH1 0x20 SHR JUMP JUMPDEST POP PUSH3 0xBA PUSH3 0xAE PUSH3 0xF7 PUSH1 0x20 SHL PUSH1 0x20 SHR JUMP JUMPDEST PUSH3 0xFF PUSH1 0x20 SHL PUSH1 0x20 SHR JUMP JUMPDEST PUSH1 0x0 PUSH1 0x3 PUSH1 0x14 PUSH2 0x100 EXP DUP2 SLOAD DUP2 PUSH1 0xFF MUL NOT AND SWAP1 DUP4 ISZERO ISZERO MUL OR SWAP1 SSTORE POP PUSH3 0x2DA JUMP JUMPDEST DUP1 PUSH1 0x2 SWAP1 DUP1 MLOAD SWAP1 PUSH1 0x20 ADD SWAP1 PUSH3 0xF3 SWAP3 SWAP2 SWAP1 PUSH3 0x1C5 JUMP JUMPDEST POP POP JUMP JUMPDEST PUSH1 0x0 CALLER SWAP1 POP SWAP1 JUMP JUMPDEST PUSH1 0x0 PUSH1 0x3 PUSH1 0x0 SWAP1 SLOAD SWAP1 PUSH2 0x100 EXP SWAP1 DIV PUSH20 0xFFFFFFFFFFFFFFFFFFFFFFFFFFFFFFFFFFFFFFFF AND SWAP1 POP DUP2 PUSH1 0x3 PUSH1 0x0 PUSH2 0x100 EXP DUP2 SLOAD DUP2 PUSH20 0xFFFFFFFFFFFFFFFFFFFFFFFFFFFFFFFFFFFFFFFF MUL NOT AND SWAP1 DUP4 PUSH20 0xFFFFFFFFFFFFFFFFFFFFFFFFFFFFFFFFFFFFFFFF AND MUL OR SWAP1 SSTORE POP DUP2 PUSH20 0xFFFFFFFFFFFFFFFFFFFFFFFFFFFFFFFFFFFFFFFF AND DUP2 PUSH20 0xFFFFFFFFFFFFFFFFFFFFFFFFFFFFFFFFFFFFFFFF AND PUSH32 0x8BE0079C531659141344CD1FD0A4F28419497F9722A3DAAFE3B4186F6B6457E0 PUSH1 0x40 MLOAD PUSH1 0x40 MLOAD DUP1 SWAP2 SUB SWAP1 LOG3 POP POP JUMP JUMPDEST DUP3 DUP1 SLOAD PUSH3 0x1D3 SWAP1 PUSH3 0x275 JUMP JUMPDEST SWAP1 PUSH1 0x0 MSTORE PUSH1 0x20 PUSH1 0x0 KECCAK256 SWAP1 PUSH1 0x1F ADD PUSH1 0x20 SWAP1 DIV DUP2 ADD SWAP3 DUP3 PUSH3 0x1F7 JUMPI PUSH1 0x0 DUP6 SSTORE PUSH3 0x243 JUMP JUMPDEST DUP3 PUSH1 0x1F LT PUSH3 0x212 JUMPI DUP1 MLOAD PUSH1 0xFF NOT AND DUP4 DUP1 ADD OR DUP6 SSTORE PUSH3 0x243 JUMP JUMPDEST DUP3 DUP1 ADD PUSH1 0x1 ADD DUP6 SSTORE DUP3 ISZERO PUSH3 0x243 JUMPI SWAP2 DUP3 ADD JUMPDEST DUP3 DUP2 GT ISZERO PUSH3 0x242 JUMPI DUP3 MLOAD DUP3 SSTORE SWAP2 PUSH1 0x20 ADD SWAP2 SWAP1 PUSH1 0x1 ADD SWAP1 PUSH3 0x225 JUMP JUMPDEST JUMPDEST POP SWAP1 POP PUSH3 0x252 SWAP2 SWAP1 PUSH3 0x256 JUMP JUMPDEST POP SWAP1 JUMP JUMPDEST JUMPDEST DUP1 DUP3 GT ISZERO PUSH3 0x271 JUMPI PUSH1 0x0 DUP2 PUSH1 0x0 SWAP1 SSTORE POP PUSH1 0x1 ADD PUSH3 0x257 JUMP JUMPDEST POP SWAP1 JUMP JUMPDEST PUSH1 0x0 PUSH1 0x2 DUP3 DIV SWAP1 POP PUSH1 0x1 DUP3 AND DUP1 PUSH3 0x28E JUMPI PUSH1 0x7F DUP3 AND SWAP2 POP JUMPDEST PUSH1 0x20 DUP3 LT DUP2 EQ ISZERO PUSH3 0x2A5 JUMPI PUSH3 0x2A4 PUSH3 0x2AB JUMP JUMPDEST JUMPDEST POP SWAP2 SWAP1 POP JUMP JUMPDEST PUSH32 0x4E487B7100000000000000000000000000000000000000000000000000000000 PUSH1 0x0 MSTORE PUSH1 0x22 PUSH1 0x4 MSTORE PUSH1 0x24 PUSH1 0x0 REVERT JUMPDEST PUSH2 0x4A3A DUP1 PUSH3 0x2EA PUSH1 0x0 CODECOPY PUSH1 0x0 RETURN INVALID PUSH1 0x80 PUSH1 0x40 MSTORE CALLVALUE DUP1 ISZERO PUSH2 0x10 JUMPI PUSH1 0x0 DUP1 REVERT JUMPDEST POP PUSH1 0x4 CALLDATASIZE LT PUSH2 0x18D JUMPI PUSH1 0x0 CALLDATALOAD PUSH1 0xE0 SHR DUP1 PUSH4 0x715018A6 GT PUSH2 0xDE JUMPI DUP1 PUSH4 0xA22CB465 GT PUSH2 0x97 JUMPI DUP1 PUSH4 0xE985E9C5 GT PUSH2 0x71 JUMPI DUP1 PUSH4 0xE985E9C5 EQ PUSH2 0x442 JUMPI DUP1 PUSH4 0xF242432A EQ PUSH2 0x472 JUMPI DUP1 PUSH4 0xF2FDE38B EQ PUSH2 0x48E JUMPI DUP1 PUSH4 0xF5298ACA EQ PUSH2 0x4AA JUMPI PUSH2 0x18D JUMP JUMPDEST DUP1 PUSH4 0xA22CB465 EQ PUSH2 0x3D8 JUMPI DUP1 PUSH4 0xBD85B039 EQ PUSH2 0x3F4 JUMPI DUP1 PUSH4 0xCCE132D1 EQ PUSH2 0x424 JUMPI PUSH2 0x18D JUMP JUMPDEST DUP1 PUSH4 0x715018A6 EQ PUSH2 0x352 JUMPI DUP1 PUSH4 0x731133E9 EQ PUSH2 0x35C JUMPI DUP1 PUSH4 0x79C9CB7B EQ PUSH2 0x378 JUMPI DUP1 PUSH4 0x8456CB59 EQ PUSH2 0x394 JUMPI DUP1 PUSH4 0x8DA5CB5B EQ PUSH2 0x39E JUMPI DUP1 PUSH4 0x97107D6D EQ PUSH2 0x3BC JUMPI PUSH2 0x18D JUMP JUMPDEST DUP1 PUSH4 0x2EB2C2D6 GT PUSH2 0x14B JUMPI DUP1 PUSH4 0x4F15787C GT PUSH2 0x125 JUMPI DUP1 PUSH4 0x4F15787C EQ PUSH2 0x2CC JUMPI DUP1 PUSH4 0x4F558E79 EQ PUSH2 0x2E8 JUMPI DUP1 PUSH4 0x5C975ABB EQ PUSH2 0x318 JUMPI DUP1 PUSH4 0x6B20C454 EQ PUSH2 0x336 JUMPI PUSH2 0x18D JUMP JUMPDEST DUP1 PUSH4 0x2EB2C2D6 EQ PUSH2 0x276 JUMPI DUP1 PUSH4 0x3F4BA83A EQ PUSH2 0x292 JUMPI DUP1 PUSH4 0x4E1273F4 EQ PUSH2 0x29C JUMPI PUSH2 0x18D JUMP JUMPDEST DUP1 PUSH3 0xFDD58E EQ PUSH2 0x192 JUMPI DUP1 PUSH4 0x1FFC9A7 EQ PUSH2 0x1C2 JUMPI DUP1 PUSH4 0x2FE5305 EQ PUSH2 0x1F2 JUMPI DUP1 PUSH4 0xE89341C EQ PUSH2 0x20E JUMPI DUP1 PUSH4 0x162094C4 EQ PUSH2 0x23E JUMPI DUP1 PUSH4 0x1F7FDFFA EQ PUSH2 0x25A JUMPI JUMPDEST PUSH1 0x0 DUP1 REVERT JUMPDEST PUSH2 0x1AC PUSH1 0x4 DUP1 CALLDATASIZE SUB DUP2 ADD SWAP1 PUSH2 0x1A7 SWAP2 SWAP1 PUSH2 0x343F JUMP JUMPDEST PUSH2 0x4C6 JUMP JUMPDEST PUSH1 0x40 MLOAD PUSH2 0x1B9 SWAP2 SWAP1 PUSH2 0x3F6A JUMP JUMPDEST PUSH1 0x40 MLOAD DUP1 SWAP2 SUB SWAP1 RETURN JUMPDEST PUSH2 0x1DC PUSH1 0x4 DUP1 CALLDATASIZE SUB DUP2 ADD SWAP1 PUSH2 0x1D7 SWAP2 SWAP1 PUSH2 0x35CD JUMP JUMPDEST PUSH2 0x58F JUMP JUMPDEST PUSH1 0x40 MLOAD PUSH2 0x1E9 SWAP2 SWAP1 PUSH2 0x3D0D JUMP JUMPDEST PUSH1 0x40 MLOAD DUP1 SWAP2 SUB SWAP1 RETURN JUMPDEST PUSH2 0x20C PUSH1 0x4 DUP1 CALLDATASIZE SUB DUP2 ADD SWAP1 PUSH2 0x207 SWAP2 SWAP1 PUSH2 0x3627 JUMP JUMPDEST PUSH2 0x671 JUMP JUMPDEST STOP JUMPDEST PUSH2 0x228 PUSH1 0x4 DUP1 CALLDATASIZE SUB DUP2 ADD SWAP1 PUSH2 0x223 SWAP2 SWAP1 PUSH2 0x3670 JUMP JUMPDEST PUSH2 0x6F9 JUMP JUMPDEST PUSH1 0x40 MLOAD PUSH2 0x235 SWAP2 SWAP1 PUSH2 0x3D28 JUMP JUMPDEST PUSH1 0x40 MLOAD DUP1 SWAP2 SUB SWAP1 RETURN JUMPDEST PUSH2 0x258 PUSH1 0x4 DUP1 CALLDATASIZE SUB DUP2 ADD SWAP1 PUSH2 0x253 SWAP2 SWAP1 PUSH2 0x369D JUMP JUMPDEST PUSH2 0x70B JUMP JUMPDEST STOP JUMPDEST PUSH2 0x274 PUSH1 0x4 DUP1 CALLDATASIZE SUB DUP2 ADD SWAP1 PUSH2 0x26F SWAP2 SWAP1 PUSH2 0x3275 JUMP JUMPDEST PUSH2 0x795 JUMP JUMPDEST STOP JUMPDEST PUSH2 0x290 PUSH1 0x4 DUP1 CALLDATASIZE SUB DUP2 ADD SWAP1 PUSH2 0x28B SWAP2 SWAP1 PUSH2 0x3084 JUMP JUMPDEST PUSH2 0x85E JUMP JUMPDEST STOP JUMPDEST PUSH2 0x29A PUSH2 0x8FF JUMP JUMPDEST STOP JUMPDEST PUSH2 0x2B6 PUSH1 0x4 DUP1 CALLDATASIZE SUB DUP2 ADD SWAP1 PUSH2 0x2B1 SWAP2 SWAP1 PUSH2 0x3555 JUMP JUMPDEST PUSH2 0x985 JUMP JUMPDEST PUSH1 0x40 MLOAD PUSH2 0x2C3 SWAP2 SWAP1 PUSH2 0x3CB4 JUMP JUMPDEST PUSH1 0x40 MLOAD DUP1 SWAP2 SUB SWAP1 RETURN JUMPDEST PUSH2 0x2E6 PUSH1 0x4 DUP1 CALLDATASIZE SUB DUP2 ADD SWAP1 PUSH2 0x2E1 SWAP2 SWAP1 PUSH2 0x3330 JUMP JUMPDEST PUSH2 0xA9E JUMP JUMPDEST STOP JUMPDEST PUSH2 0x302 PUSH1 0x4 DUP1 CALLDATASIZE SUB DUP2 ADD SWAP1 PUSH2 0x2FD SWAP2 SWAP1 PUSH2 0x3670 JUMP JUMPDEST PUSH2 0xAF9 JUMP JUMPDEST PUSH1 0x40 MLOAD PUSH2 0x30F SWAP2 SWAP1 PUSH2 0x3D0D JUMP JUMPDEST PUSH1 0x40 MLOAD DUP1 SWAP2 SUB SWAP1 RETURN JUMPDEST PUSH2 0x320 PUSH2 0xB0D JUMP JUMPDEST PUSH1 0x40 MLOAD PUSH2 0x32D SWAP2 SWAP1 PUSH2 0x3D0D JUMP JUMPDEST PUSH1 0x40 MLOAD DUP1 SWAP2 SUB SWAP1 RETURN JUMPDEST PUSH2 0x350 PUSH1 0x4 DUP1 CALLDATASIZE SUB DUP2 ADD SWAP1 PUSH2 0x34B SWAP2 SWAP1 PUSH2 0x31EA JUMP JUMPDEST PUSH2 0xB24 JUMP JUMPDEST STOP JUMPDEST PUSH2 0x35A PUSH2 0xBC1 JUMP JUMPDEST STOP JUMPDEST PUSH2 0x376 PUSH1 0x4 DUP1 CALLDATASIZE SUB DUP2 ADD SWAP1 PUSH2 0x371 SWAP2 SWAP1 PUSH2 0x34D2 JUMP JUMPDEST PUSH2 0xC49 JUMP JUMPDEST STOP JUMPDEST PUSH2 0x392 PUSH1 0x4 DUP1 CALLDATASIZE SUB DUP2 ADD SWAP1 PUSH2 0x38D SWAP2 SWAP1 PUSH2 0x3670 JUMP JUMPDEST PUSH2 0xD12 JUMP JUMPDEST STOP JUMPDEST PUSH2 0x39C PUSH2 0xD98 JUMP JUMPDEST STOP JUMPDEST PUSH2 0x3A6 PUSH2 0xE1E JUMP JUMPDEST PUSH1 0x40 MLOAD PUSH2 0x3B3 SWAP2 SWAP1 PUSH2 0x3B24 JUMP JUMPDEST PUSH1 0x40 MLOAD DUP1 SWAP2 SUB SWAP1 RETURN JUMPDEST PUSH2 0x3D6 PUSH1 0x4 DUP1 CALLDATASIZE SUB DUP2 ADD SWAP1 PUSH2 0x3D1 SWAP2 SWAP1 PUSH2 0x3017 JUMP JUMPDEST PUSH2 0xE48 JUMP JUMPDEST STOP JUMPDEST PUSH2 0x3F2 PUSH1 0x4 DUP1 CALLDATASIZE SUB DUP2 ADD SWAP1 PUSH2 0x3ED SWAP2 SWAP1 PUSH2 0x33FF JUMP JUMPDEST PUSH2 0xF08 JUMP JUMPDEST STOP JUMPDEST PUSH2 0x40E PUSH1 0x4 DUP1 CALLDATASIZE SUB DUP2 ADD SWAP1 PUSH2 0x409 SWAP2 SWAP1 PUSH2 0x3670 JUMP JUMPDEST PUSH2 0xF1E JUMP JUMPDEST PUSH1 0x40 MLOAD PUSH2 0x41B SWAP2 SWAP1 PUSH2 0x3F6A JUMP JUMPDEST PUSH1 0x40 MLOAD DUP1 SWAP2 SUB SWAP1 RETURN JUMPDEST PUSH2 0x42C PUSH2 0xF3B JUMP JUMPDEST PUSH1 0x40 MLOAD PUSH2 0x439 SWAP2 SWAP1 PUSH2 0x3F6A JUMP JUMPDEST PUSH1 0x40 MLOAD DUP1 SWAP2 SUB SWAP1 RETURN JUMPDEST PUSH2 0x45C PUSH1 0x4 DUP1 CALLDATASIZE SUB DUP2 ADD SWAP1 PUSH2 0x457 SWAP2 SWAP1 PUSH2 0x3044 JUMP JUMPDEST PUSH2 0xF41 JUMP JUMPDEST PUSH1 0x40 MLOAD PUSH2 0x469 SWAP2 SWAP1 PUSH2 0x3D0D JUMP JUMPDEST PUSH1 0x40 MLOAD DUP1 SWAP2 SUB SWAP1 RETURN JUMPDEST PUSH2 0x48C PUSH1 0x4 DUP1 CALLDATASIZE SUB DUP2 ADD SWAP1 PUSH2 0x487 SWAP2 SWAP1 PUSH2 0x3153 JUMP JUMPDEST PUSH2 0xFB5 JUMP JUMPDEST STOP JUMPDEST PUSH2 0x4A8 PUSH1 0x4 DUP1 CALLDATASIZE SUB DUP2 ADD SWAP1 PUSH2 0x4A3 SWAP2 SWAP1 PUSH2 0x3017 JUMP JUMPDEST PUSH2 0x1056 JUMP JUMPDEST STOP JUMPDEST PUSH2 0x4C4 PUSH1 0x4 DUP1 CALLDATASIZE SUB DUP2 ADD SWAP1 PUSH2 0x4BF SWAP2 SWAP1 PUSH2 0x347F JUMP JUMPDEST PUSH2 0x114E JUMP JUMPDEST STOP JUMPDEST PUSH1 0x0 DUP1 PUSH20 0xFFFFFFFFFFFFFFFFFFFFFFFFFFFFFFFFFFFFFFFF AND DUP4 PUSH20 0xFFFFFFFFFFFFFFFFFFFFFFFFFFFFFFFFFFFFFFFF AND EQ ISZERO PUSH2 0x537 JUMPI PUSH1 0x40 MLOAD PUSH32 0x8C379A000000000000000000000000000000000000000000000000000000000 DUP2 MSTORE PUSH1 0x4 ADD PUSH2 0x52E SWAP1 PUSH2 0x3DAA JUMP JUMPDEST PUSH1 0x40 MLOAD DUP1 SWAP2 SUB SWAP1 REVERT JUMPDEST PUSH1 0x0 DUP1 DUP4 DUP2 MSTORE PUSH1 0x20 ADD SWAP1 DUP2 MSTORE PUSH1 0x20 ADD PUSH1 0x0 KECCAK256 PUSH1 0x0 DUP5 PUSH20 0xFFFFFFFFFFFFFFFFFFFFFFFFFFFFFFFFFFFFFFFF AND PUSH20 0xFFFFFFFFFFFFFFFFFFFFFFFFFFFFFFFFFFFFFFFF AND DUP2 MSTORE PUSH1 0x20 ADD SWAP1 DUP2 MSTORE PUSH1 0x20 ADD PUSH1 0x0 KECCAK256 SLOAD SWAP1 POP SWAP3 SWAP2 POP POP JUMP JUMPDEST PUSH1 0x0 PUSH32 0xD9B67A2600000000000000000000000000000000000000000000000000000000 PUSH28 0xFFFFFFFFFFFFFFFFFFFFFFFFFFFFFFFFFFFFFFFFFFFFFFFFFFFFFFFF NOT AND DUP3 PUSH28 0xFFFFFFFFFFFFFFFFFFFFFFFFFFFFFFFFFFFFFFFFFFFFFFFFFFFFFFFF NOT AND EQ DUP1 PUSH2 0x65A JUMPI POP PUSH32 0xE89341C00000000000000000000000000000000000000000000000000000000 PUSH28 0xFFFFFFFFFFFFFFFFFFFFFFFFFFFFFFFFFFFFFFFFFFFFFFFFFFFFFFFF NOT AND DUP3 PUSH28 0xFFFFFFFFFFFFFFFFFFFFFFFFFFFFFFFFFFFFFFFFFFFFFFFFFFFFFFFF NOT AND EQ JUMPDEST DUP1 PUSH2 0x66A JUMPI POP PUSH2 0x669 DUP3 PUSH2 0x11EB JUMP JUMPDEST JUMPDEST SWAP1 POP SWAP2 SWAP1 POP JUMP JUMPDEST PUSH2 0x679 PUSH2 0x1255 JUMP JUMPDEST PUSH20 0xFFFFFFFFFFFFFFFFFFFFFFFFFFFFFFFFFFFFFFFF AND PUSH2 0x697 PUSH2 0xE1E JUMP JUMPDEST PUSH20 0xFFFFFFFFFFFFFFFFFFFFFFFFFFFFFFFFFFFFFFFF AND EQ PUSH2 0x6ED JUMPI PUSH1 0x40 MLOAD PUSH32 0x8C379A000000000000000000000000000000000000000000000000000000000 DUP2 MSTORE PUSH1 0x4 ADD PUSH2 0x6E4 SWAP1 PUSH2 0x3ECA JUMP JUMPDEST PUSH1 0x40 MLOAD DUP1 SWAP2 SUB SWAP1 REVERT JUMPDEST PUSH2 0x6F6 DUP2 PUSH2 0x125D JUMP JUMPDEST POP JUMP JUMPDEST PUSH1 0x60 PUSH2 0x704 DUP3 PUSH2 0x1277 JUMP JUMPDEST SWAP1 POP SWAP2 SWAP1 POP JUMP JUMPDEST PUSH2 0x713 PUSH2 0x1255 JUMP JUMPDEST PUSH20 0xFFFFFFFFFFFFFFFFFFFFFFFFFFFFFFFFFFFFFFFF AND PUSH2 0x731 PUSH2 0xE1E JUMP JUMPDEST PUSH20 0xFFFFFFFFFFFFFFFFFFFFFFFFFFFFFFFFFFFFFFFF AND EQ PUSH2 0x787 JUMPI PUSH1 0x40 MLOAD PUSH32 0x8C379A000000000000000000000000000000000000000000000000000000000 DUP2 MSTORE PUSH1 0x4 ADD PUSH2 0x77E SWAP1 PUSH2 0x3ECA JUMP JUMPDEST PUSH1 0x40 MLOAD DUP1 SWAP2 SUB SWAP1 REVERT JUMPDEST PUSH2 0x791 DUP3 DUP3 PUSH2 0x13C0 JUMP JUMPDEST POP POP JUMP JUMPDEST PUSH2 0x79D PUSH2 0x1255 JUMP JUMPDEST PUSH20 0xFFFFFFFFFFFFFFFFFFFFFFFFFFFFFFFFFFFFFFFF AND PUSH2 0x7BB PUSH2 0xE1E JUMP JUMPDEST PUSH20 0xFFFFFFFFFFFFFFFFFFFFFFFFFFFFFFFFFFFFFFFF AND EQ PUSH2 0x811 JUMPI PUSH1 0x40 MLOAD PUSH32 0x8C379A000000000000000000000000000000000000000000000000000000000 DUP2 MSTORE PUSH1 0x4 ADD PUSH2 0x808 SWAP1 PUSH2 0x3ECA JUMP JUMPDEST PUSH1 0x40 MLOAD DUP1 SWAP2 SUB SWAP1 REVERT JUMPDEST PUSH2 0x81D DUP5 DUP5 DUP5 DUP5 PUSH2 0x13EC JUMP JUMPDEST PUSH32 0x9D15FE863D6D778932C2425AAB5DE66F2FCC03F779B90C593D26EE152FBBE871 DUP5 DUP5 DUP5 PUSH1 0x40 MLOAD PUSH2 0x850 SWAP4 SWAP3 SWAP2 SWAP1 PUSH2 0x3C01 JUMP JUMPDEST PUSH1 0x40 MLOAD DUP1 SWAP2 SUB SWAP1 LOG1 POP POP POP POP JUMP JUMPDEST PUSH2 0x866 PUSH2 0x1255 JUMP JUMPDEST PUSH20 0xFFFFFFFFFFFFFFFFFFFFFFFFFFFFFFFFFFFFFFFF AND DUP6 PUSH20 0xFFFFFFFFFFFFFFFFFFFFFFFFFFFFFFFFFFFFFFFF AND EQ DUP1 PUSH2 0x8AC JUMPI POP PUSH2 0x8AB DUP6 PUSH2 0x8A6 PUSH2 0x1255 JUMP JUMPDEST PUSH2 0xF41 JUMP JUMPDEST JUMPDEST PUSH2 0x8EB JUMPI PUSH1 0x40 MLOAD PUSH32 0x8C379A000000000000000000000000000000000000000000000000000000000 DUP2 MSTORE PUSH1 0x4 ADD PUSH2 0x8E2 SWAP1 PUSH2 0x3E6A JUMP JUMPDEST PUSH1 0x40 MLOAD DUP1 SWAP2 SUB SWAP1 REVERT JUMPDEST PUSH2 0x8F8 DUP6 DUP6 DUP6 DUP6 DUP6 PUSH2 0x160A JUMP JUMPDEST POP POP POP POP POP JUMP JUMPDEST PUSH2 0x907 PUSH2 0x1255 JUMP JUMPDEST PUSH20 0xFFFFFFFFFFFFFFFFFFFFFFFFFFFFFFFFFFFFFFFF AND PUSH2 0x925 PUSH2 0xE1E JUMP JUMPDEST PUSH20 0xFFFFFFFFFFFFFFFFFFFFFFFFFFFFFFFFFFFFFFFF AND EQ PUSH2 0x97B JUMPI PUSH1 0x40 MLOAD PUSH32 0x8C379A000000000000000000000000000000000000000000000000000000000 DUP2 MSTORE PUSH1 0x4 ADD PUSH2 0x972 SWAP1 PUSH2 0x3ECA JUMP JUMPDEST PUSH1 0x40 MLOAD DUP1 SWAP2 SUB SWAP1 REVERT JUMPDEST PUSH2 0x983 PUSH2 0x191E JUMP JUMPDEST JUMP JUMPDEST PUSH1 0x60 DUP2 MLOAD DUP4 MLOAD EQ PUSH2 0x9CB JUMPI PUSH1 0x40 MLOAD PUSH32 0x8C379A000000000000000000000000000000000000000000000000000000000 DUP2 MSTORE PUSH1 0x4 ADD PUSH2 0x9C2 SWAP1 PUSH2 0x3F0A JUMP JUMPDEST PUSH1 0x40 MLOAD DUP1 SWAP2 SUB SWAP1 REVERT JUMPDEST PUSH1 0x0 DUP4 MLOAD PUSH8 0xFFFFFFFFFFFFFFFF DUP2 GT ISZERO PUSH2 0x9E8 JUMPI PUSH2 0x9E7 PUSH2 0x4394 JUMP JUMPDEST JUMPDEST PUSH1 0x40 MLOAD SWAP1 DUP1 DUP3 MSTORE DUP1 PUSH1 0x20 MUL PUSH1 0x20 ADD DUP3 ADD PUSH1 0x40 MSTORE DUP1 ISZERO PUSH2 0xA16 JUMPI DUP2 PUSH1 0x20 ADD PUSH1 0x20 DUP3 MUL DUP1 CALLDATASIZE DUP4 CALLDATACOPY DUP1 DUP3 ADD SWAP2 POP POP SWAP1 POP JUMPDEST POP SWAP1 POP PUSH1 0x0 JUMPDEST DUP5 MLOAD DUP2 LT ISZERO PUSH2 0xA93 JUMPI PUSH2 0xA63 DUP6 DUP3 DUP2 MLOAD DUP2 LT PUSH2 0xA3B JUMPI PUSH2 0xA3A PUSH2 0x4365 JUMP JUMPDEST JUMPDEST PUSH1 0x20 MUL PUSH1 0x20 ADD ADD MLOAD DUP6 DUP4 DUP2 MLOAD DUP2 LT PUSH2 0xA56 JUMPI PUSH2 0xA55 PUSH2 0x4365 JUMP JUMPDEST JUMPDEST PUSH1 0x20 MUL PUSH1 0x20 ADD ADD MLOAD PUSH2 0x4C6 JUMP JUMPDEST DUP3 DUP3 DUP2 MLOAD DUP2 LT PUSH2 0xA76 JUMPI PUSH2 0xA75 PUSH2 0x4365 JUMP JUMPDEST JUMPDEST PUSH1 0x20 MUL PUSH1 0x20 ADD ADD DUP2 DUP2 MSTORE POP POP DUP1 PUSH2 0xA8C SWAP1 PUSH2 0x42BE JUMP JUMPDEST SWAP1 POP PUSH2 0xA1C JUMP JUMPDEST POP DUP1 SWAP2 POP POP SWAP3 SWAP2 POP POP JUMP JUMPDEST PUSH2 0xAA9 DUP6 DUP6 DUP6 PUSH2 0x19C0 JUMP JUMPDEST PUSH2 0xAB6 DUP6 DUP4 PUSH1 0x1 DUP5 PUSH2 0x1C71 JUMP JUMPDEST PUSH32 0x25B428DFDE728CCFADDAD7E29E4AC23C24ED7FD1A6E3E3F91894A9A073F5DFFF DUP6 DUP4 PUSH1 0x1 PUSH1 0x40 MLOAD PUSH2 0xAEA SWAP4 SWAP3 SWAP2 SWAP1 PUSH2 0x3C46 JUMP JUMPDEST PUSH1 0x40 MLOAD DUP1 SWAP2 SUB SWAP1 LOG1 POP POP POP POP POP JUMP JUMPDEST PUSH1 0x0 DUP1 PUSH2 0xB05 DUP4 PUSH2 0xF1E JUMP JUMPDEST GT SWAP1 POP SWAP2 SWAP1 POP JUMP JUMPDEST PUSH1 0x0 PUSH1 0x3 PUSH1 0x14 SWAP1 SLOAD SWAP1 PUSH2 0x100 EXP SWAP1 DIV PUSH1 0xFF AND SWAP1 POP SWAP1 JUMP JUMPDEST PUSH2 0xB2C PUSH2 0x1255 JUMP JUMPDEST PUSH20 0xFFFFFFFFFFFFFFFFFFFFFFFFFFFFFFFFFFFFFFFF AND DUP4 PUSH20 0xFFFFFFFFFFFFFFFFFFFFFFFFFFFFFFFFFFFFFFFF AND EQ DUP1 PUSH2 0xB72 JUMPI POP PUSH2 0xB71 DUP4 PUSH2 0xB6C PUSH2 0x1255 JUMP JUMPDEST PUSH2 0xF41 JUMP JUMPDEST JUMPDEST PUSH2 0xBB1 JUMPI PUSH1 0x40 MLOAD PUSH32 0x8C379A000000000000000000000000000000000000000000000000000000000 DUP2 MSTORE PUSH1 0x4 ADD PUSH2 0xBA8 SWAP1 PUSH2 0x3E0A JUMP JUMPDEST PUSH1 0x40 MLOAD DUP1 SWAP2 SUB SWAP1 REVERT JUMPDEST PUSH2 0xBBC DUP4 DUP4 DUP4 PUSH2 0x19C0 JUMP JUMPDEST POP POP POP JUMP JUMPDEST PUSH2 0xBC9 PUSH2 0x1255 JUMP JUMPDEST PUSH20 0xFFFFFFFFFFFFFFFFFFFFFFFFFFFFFFFFFFFFFFFF AND PUSH2 0xBE7 PUSH2 0xE1E JUMP JUMPDEST PUSH20 0xFFFFFFFFFFFFFFFFFFFFFFFFFFFFFFFFFFFFFFFF AND EQ PUSH2 0xC3D JUMPI PUSH1 0x40 MLOAD PUSH32 0x8C379A000000000000000000000000000000000000000000000000000000000 DUP2 MSTORE PUSH1 0x4 ADD PUSH2 0xC34 SWAP1 PUSH2 0x3ECA JUMP JUMPDEST PUSH1 0x40 MLOAD DUP1 SWAP2 SUB SWAP1 REVERT JUMPDEST PUSH2 0xC47 PUSH1 0x0 PUSH2 0x1E07 JUMP JUMPDEST JUMP JUMPDEST PUSH2 0xC51 PUSH2 0x1255 JUMP JUMPDEST PUSH20 0xFFFFFFFFFFFFFFFFFFFFFFFFFFFFFFFFFFFFFFFF AND PUSH2 0xC6F PUSH2 0xE1E JUMP JUMPDEST PUSH20 0xFFFFFFFFFFFFFFFFFFFFFFFFFFFFFFFFFFFFFFFF AND EQ PUSH2 0xCC5 JUMPI PUSH1 0x40 MLOAD PUSH32 0x8C379A000000000000000000000000000000000000000000000000000000000 DUP2 MSTORE PUSH1 0x4 ADD PUSH2 0xCBC SWAP1 PUSH2 0x3ECA JUMP JUMPDEST PUSH1 0x40 MLOAD DUP1 SWAP2 SUB SWAP1 REVERT JUMPDEST PUSH2 0xCD1 DUP5 DUP5 DUP5 DUP5 PUSH2 0x1C71 JUMP JUMPDEST PUSH32 0x25B428DFDE728CCFADDAD7E29E4AC23C24ED7FD1A6E3E3F91894A9A073F5DFFF DUP5 DUP5 DUP5 PUSH1 0x40 MLOAD PUSH2 0xD04 SWAP4 SWAP3 SWAP2 SWAP1 PUSH2 0x3C7D JUMP JUMPDEST PUSH1 0x40 MLOAD DUP1 SWAP2 SUB SWAP1 LOG1 POP POP POP POP JUMP JUMPDEST PUSH2 0xD1A PUSH2 0x1255 JUMP JUMPDEST PUSH20 0xFFFFFFFFFFFFFFFFFFFFFFFFFFFFFFFFFFFFFFFF AND PUSH2 0xD38 PUSH2 0xE1E JUMP JUMPDEST PUSH20 0xFFFFFFFFFFFFFFFFFFFFFFFFFFFFFFFFFFFFFFFF AND EQ PUSH2 0xD8E JUMPI PUSH1 0x40 MLOAD PUSH32 0x8C379A000000000000000000000000000000000000000000000000000000000 DUP2 MSTORE PUSH1 0x4 ADD PUSH2 0xD85 SWAP1 PUSH2 0x3ECA JUMP JUMPDEST PUSH1 0x40 MLOAD DUP1 SWAP2 SUB SWAP1 REVERT JUMPDEST DUP1 PUSH1 0x6 DUP2 SWAP1 SSTORE POP POP JUMP JUMPDEST PUSH2 0xDA0 PUSH2 0x1255 JUMP JUMPDEST PUSH20 0xFFFFFFFFFFFFFFFFFFFFFFFFFFFFFFFFFFFFFFFF AND PUSH2 0xDBE PUSH2 0xE1E JUMP JUMPDEST PUSH20 0xFFFFFFFFFFFFFFFFFFFFFFFFFFFFFFFFFFFFFFFF AND EQ PUSH2 0xE14 JUMPI PUSH1 0x40 MLOAD PUSH32 0x8C379A000000000000000000000000000000000000000000000000000000000 DUP2 MSTORE PUSH1 0x4 ADD PUSH2 0xE0B SWAP1 PUSH2 0x3ECA JUMP JUMPDEST PUSH1 0x40 MLOAD DUP1 SWAP2 SUB SWAP1 REVERT JUMPDEST PUSH2 0xE1C PUSH2 0x1ECD JUMP JUMPDEST JUMP JUMPDEST PUSH1 0x0 PUSH1 0x3 PUSH1 0x0 SWAP1 SLOAD SWAP1 PUSH2 0x100 EXP SWAP1 DIV PUSH20 0xFFFFFFFFFFFFFFFFFFFFFFFFFFFFFFFFFFFFFFFF AND SWAP1 POP SWAP1 JUMP JUMPDEST PUSH2 0xE50 PUSH2 0x1255 JUMP JUMPDEST PUSH20 0xFFFFFFFFFFFFFFFFFFFFFFFFFFFFFFFFFFFFFFFF AND PUSH2 0xE6E PUSH2 0xE1E JUMP JUMPDEST PUSH20 0xFFFFFFFFFFFFFFFFFFFFFFFFFFFFFFFFFFFFFFFF AND EQ PUSH2 0xEC4 JUMPI PUSH1 0x40 MLOAD PUSH32 0x8C379A000000000000000000000000000000000000000000000000000000000 DUP2 MSTORE PUSH1 0x4 ADD PUSH2 0xEBB SWAP1 PUSH2 0x3ECA JUMP JUMPDEST PUSH1 0x40 MLOAD DUP1 SWAP2 SUB SWAP1 REVERT JUMPDEST DUP1 PUSH1 0x7 PUSH1 0x0 PUSH2 0x100 EXP DUP2 SLOAD DUP2 PUSH20 0xFFFFFFFFFFFFFFFFFFFFFFFFFFFFFFFFFFFFFFFF MUL NOT AND SWAP1 DUP4 PUSH20 0xFFFFFFFFFFFFFFFFFFFFFFFFFFFFFFFFFFFFFFFF AND MUL OR SWAP1 SSTORE POP POP JUMP JUMPDEST PUSH2 0xF1A PUSH2 0xF13 PUSH2 0x1255 JUMP JUMPDEST DUP4 DUP4 PUSH2 0x1F70 JUMP JUMPDEST POP POP JUMP JUMPDEST PUSH1 0x0 PUSH1 0x4 PUSH1 0x0 DUP4 DUP2 MSTORE PUSH1 0x20 ADD SWAP1 DUP2 MSTORE PUSH1 0x20 ADD PUSH1 0x0 KECCAK256 SLOAD SWAP1 POP SWAP2 SWAP1 POP JUMP JUMPDEST PUSH1 0x6 SLOAD DUP2 JUMP JUMPDEST PUSH1 0x0 PUSH1 0x7 PUSH1 0x0 SWAP1 SLOAD SWAP1 PUSH2 0x100 EXP SWAP1 DIV PUSH20 0xFFFFFFFFFFFFFFFFFFFFFFFFFFFFFFFFFFFFFFFF AND PUSH20 0xFFFFFFFFFFFFFFFFFFFFFFFFFFFFFFFFFFFFFFFF AND DUP3 PUSH20 0xFFFFFFFFFFFFFFFFFFFFFFFFFFFFFFFFFFFFFFFF AND EQ ISZERO PUSH2 0xFA2 JUMPI PUSH1 0x1 SWAP1 POP PUSH2 0xFAF JUMP JUMPDEST PUSH2 0xFAC DUP4 DUP4 PUSH2 0x20DD JUMP JUMPDEST SWAP1 POP JUMPDEST SWAP3 SWAP2 POP POP JUMP JUMPDEST PUSH2 0xFBD PUSH2 0x1255 JUMP JUMPDEST PUSH20 0xFFFFFFFFFFFFFFFFFFFFFFFFFFFFFFFFFFFFFFFF AND DUP6 PUSH20 0xFFFFFFFFFFFFFFFFFFFFFFFFFFFFFFFFFFFFFFFF AND EQ DUP1 PUSH2 0x1003 JUMPI POP PUSH2 0x1002 DUP6 PUSH2 0xFFD PUSH2 0x1255 JUMP JUMPDEST PUSH2 0xF41 JUMP JUMPDEST JUMPDEST PUSH2 0x1042 JUMPI PUSH1 0x40 MLOAD PUSH32 0x8C379A000000000000000000000000000000000000000000000000000000000 DUP2 MSTORE PUSH1 0x4 ADD PUSH2 0x1039 SWAP1 PUSH2 0x3E0A JUMP JUMPDEST PUSH1 0x40 MLOAD DUP1 SWAP2 SUB SWAP1 REVERT JUMPDEST PUSH2 0x104F DUP6 DUP6 DUP6 DUP6 DUP6 PUSH2 0x2171 JUMP JUMPDEST POP POP POP POP POP JUMP JUMPDEST PUSH2 0x105E PUSH2 0x1255 JUMP JUMPDEST PUSH20 0xFFFFFFFFFFFFFFFFFFFFFFFFFFFFFFFFFFFFFFFF AND PUSH2 0x107C PUSH2 0xE1E JUMP JUMPDEST PUSH20 0xFFFFFFFFFFFFFFFFFFFFFFFFFFFFFFFFFFFFFFFF AND EQ PUSH2 0x10D2 JUMPI PUSH1 0x40 MLOAD PUSH32 0x8C379A000000000000000000000000000000000000000000000000000000000 DUP2 MSTORE PUSH1 0x4 ADD PUSH2 0x10C9 SWAP1 PUSH2 0x3ECA JUMP JUMPDEST PUSH1 0x40 MLOAD DUP1 SWAP2 SUB SWAP1 REVERT JUMPDEST PUSH1 0x0 PUSH20 0xFFFFFFFFFFFFFFFFFFFFFFFFFFFFFFFFFFFFFFFF AND DUP2 PUSH20 0xFFFFFFFFFFFFFFFFFFFFFFFFFFFFFFFFFFFFFFFF AND EQ ISZERO PUSH2 0x1142 JUMPI PUSH1 0x40 MLOAD PUSH32 0x8C379A000000000000000000000000000000000000000000000000000000000 DUP2 MSTORE PUSH1 0x4 ADD PUSH2 0x1139 SWAP1 PUSH2 0x3DCA JUMP JUMPDEST PUSH1 0x40 MLOAD DUP1 SWAP2 SUB SWAP1 REVERT JUMPDEST PUSH2 0x114B DUP2 PUSH2 0x1E07 JUMP JUMPDEST POP JUMP JUMPDEST PUSH2 0x1156 PUSH2 0x1255 JUMP JUMPDEST PUSH20 0xFFFFFFFFFFFFFFFFFFFFFFFFFFFFFFFFFFFFFFFF AND DUP4 PUSH20 0xFFFFFFFFFFFFFFFFFFFFFFFFFFFFFFFFFFFFFFFF AND EQ DUP1 PUSH2 0x119C JUMPI POP PUSH2 0x119B DUP4 PUSH2 0x1196 PUSH2 0x1255 JUMP JUMPDEST PUSH2 0xF41 JUMP JUMPDEST JUMPDEST PUSH2 0x11DB JUMPI PUSH1 0x40 MLOAD PUSH32 0x8C379A000000000000000000000000000000000000000000000000000000000 DUP2 MSTORE PUSH1 0x4 ADD PUSH2 0x11D2 SWAP1 PUSH2 0x3E0A JUMP JUMPDEST PUSH1 0x40 MLOAD DUP1 SWAP2 SUB SWAP1 REVERT JUMPDEST PUSH2 0x11E6 DUP4 DUP4 DUP4 PUSH2 0x23F3 JUMP JUMPDEST POP POP POP JUMP JUMPDEST PUSH1 0x0 PUSH32 0x1FFC9A700000000000000000000000000000000000000000000000000000000 PUSH28 0xFFFFFFFFFFFFFFFFFFFFFFFFFFFFFFFFFFFFFFFFFFFFFFFFFFFFFFFF NOT AND DUP3 PUSH28 0xFFFFFFFFFFFFFFFFFFFFFFFFFFFFFFFFFFFFFFFFFFFFFFFFFFFFFFFF NOT AND EQ SWAP1 POP SWAP2 SWAP1 POP JUMP JUMPDEST PUSH1 0x0 CALLER SWAP1 POP SWAP1 JUMP JUMPDEST DUP1 PUSH1 0x2 SWAP1 DUP1 MLOAD SWAP1 PUSH1 0x20 ADD SWAP1 PUSH2 0x1273 SWAP3 SWAP2 SWAP1 PUSH2 0x2CEF JUMP JUMPDEST POP POP JUMP JUMPDEST PUSH1 0x60 PUSH1 0x0 PUSH1 0x5 PUSH1 0x0 DUP5 DUP2 MSTORE PUSH1 0x20 ADD SWAP1 DUP2 MSTORE PUSH1 0x20 ADD PUSH1 0x0 KECCAK256 DUP1 SLOAD PUSH2 0x1299 SWAP1 PUSH2 0x425B JUMP JUMPDEST DUP1 PUSH1 0x1F ADD PUSH1 0x20 DUP1 SWAP2 DIV MUL PUSH1 0x20 ADD PUSH1 0x40 MLOAD SWAP1 DUP2 ADD PUSH1 0x40 MSTORE DUP1 SWAP3 SWAP2 SWAP1 DUP2 DUP2 MSTORE PUSH1 0x20 ADD DUP3 DUP1 SLOAD PUSH2 0x12C5 SWAP1 PUSH2 0x425B JUMP JUMPDEST DUP1 ISZERO PUSH2 0x1312 JUMPI DUP1 PUSH1 0x1F LT PUSH2 0x12E7 JUMPI PUSH2 0x100 DUP1 DUP4 SLOAD DIV MUL DUP4 MSTORE SWAP2 PUSH1 0x20 ADD SWAP2 PUSH2 0x1312 JUMP JUMPDEST DUP3 ADD SWAP2 SWAP1 PUSH1 0x0 MSTORE PUSH1 0x20 PUSH1 0x0 KECCAK256 SWAP1 JUMPDEST DUP2 SLOAD DUP2 MSTORE SWAP1 PUSH1 0x1 ADD SWAP1 PUSH1 0x20 ADD DUP1 DUP4 GT PUSH2 0x12F5 JUMPI DUP3 SWAP1 SUB PUSH1 0x1F AND DUP3 ADD SWAP2 JUMPDEST POP POP POP POP POP SWAP1 POP PUSH1 0x0 PUSH2 0x1324 DUP5 PUSH2 0x2610 JUMP JUMPDEST SWAP1 POP PUSH1 0x0 DUP2 MLOAD EQ ISZERO PUSH2 0x1359 JUMPI DUP2 PUSH1 0x40 MLOAD PUSH1 0x20 ADD PUSH2 0x1341 SWAP2 SWAP1 PUSH2 0x3B02 JUMP JUMPDEST PUSH1 0x40 MLOAD PUSH1 0x20 DUP2 DUP4 SUB SUB DUP2 MSTORE SWAP1 PUSH1 0x40 MSTORE SWAP3 POP POP POP PUSH2 0x13BB JUMP JUMPDEST PUSH1 0x0 DUP3 MLOAD GT ISZERO PUSH2 0x138E JUMPI DUP1 DUP3 PUSH1 0x40 MLOAD PUSH1 0x20 ADD PUSH2 0x1376 SWAP3 SWAP2 SWAP1 PUSH2 0x3AD3 JUMP JUMPDEST PUSH1 0x40 MLOAD PUSH1 0x20 DUP2 DUP4 SUB SUB DUP2 MSTORE SWAP1 PUSH1 0x40 MSTORE SWAP3 POP POP POP PUSH2 0x13BB JUMP JUMPDEST PUSH2 0x1397 DUP5 PUSH2 0x2610 JUMP JUMPDEST PUSH1 0x40 MLOAD PUSH1 0x20 ADD PUSH2 0x13A7 SWAP2 SWAP1 PUSH2 0x3B02 JUMP JUMPDEST PUSH1 0x40 MLOAD PUSH1 0x20 DUP2 DUP4 SUB SUB DUP2 MSTORE SWAP1 PUSH1 0x40 MSTORE SWAP3 POP POP POP JUMPDEST SWAP2 SWAP1 POP JUMP JUMPDEST DUP1 PUSH1 0x5 PUSH1 0x0 DUP5 DUP2 MSTORE PUSH1 0x20 ADD SWAP1 DUP2 MSTORE PUSH1 0x20 ADD PUSH1 0x0 KECCAK256 SWAP1 DUP1 MLOAD SWAP1 PUSH1 0x20 ADD SWAP1 PUSH2 0x13E7 SWAP3 SWAP2 SWAP1 PUSH2 0x2CEF JUMP JUMPDEST POP POP POP JUMP JUMPDEST PUSH1 0x0 PUSH20 0xFFFFFFFFFFFFFFFFFFFFFFFFFFFFFFFFFFFFFFFF AND DUP5 PUSH20 0xFFFFFFFFFFFFFFFFFFFFFFFFFFFFFFFFFFFFFFFF AND EQ ISZERO PUSH2 0x145C JUMPI PUSH1 0x40 MLOAD PUSH32 0x8C379A000000000000000000000000000000000000000000000000000000000 DUP2 MSTORE PUSH1 0x4 ADD PUSH2 0x1453 SWAP1 PUSH2 0x3F4A JUMP JUMPDEST PUSH1 0x40 MLOAD DUP1 SWAP2 SUB SWAP1 REVERT JUMPDEST DUP2 MLOAD DUP4 MLOAD EQ PUSH2 0x14A0 JUMPI PUSH1 0x40 MLOAD PUSH32 0x8C379A000000000000000000000000000000000000000000000000000000000 DUP2 MSTORE PUSH1 0x4 ADD PUSH2 0x1497 SWAP1 PUSH2 0x3F2A JUMP JUMPDEST PUSH1 0x40 MLOAD DUP1 SWAP2 SUB SWAP1 REVERT JUMPDEST PUSH1 0x0 PUSH2 0x14AA PUSH2 0x1255 JUMP JUMPDEST SWAP1 POP PUSH2 0x14BB DUP2 PUSH1 0x0 DUP8 DUP8 DUP8 DUP8 PUSH2 0x26A4 JUMP JUMPDEST PUSH1 0x0 JUMPDEST DUP5 MLOAD DUP2 LT ISZERO PUSH2 0x1574 JUMPI DUP4 DUP2 DUP2 MLOAD DUP2 LT PUSH2 0x14DA JUMPI PUSH2 0x14D9 PUSH2 0x4365 JUMP JUMPDEST JUMPDEST PUSH1 0x20 MUL PUSH1 0x20 ADD ADD MLOAD PUSH1 0x0 DUP1 DUP8 DUP5 DUP2 MLOAD DUP2 LT PUSH2 0x14F8 JUMPI PUSH2 0x14F7 PUSH2 0x4365 JUMP JUMPDEST JUMPDEST PUSH1 0x20 MUL PUSH1 0x20 ADD ADD MLOAD DUP2 MSTORE PUSH1 0x20 ADD SWAP1 DUP2 MSTORE PUSH1 0x20 ADD PUSH1 0x0 KECCAK256 PUSH1 0x0 DUP9 PUSH20 0xFFFFFFFFFFFFFFFFFFFFFFFFFFFFFFFFFFFFFFFF AND PUSH20 0xFFFFFFFFFFFFFFFFFFFFFFFFFFFFFFFFFFFFFFFF AND DUP2 MSTORE PUSH1 0x20 ADD SWAP1 DUP2 MSTORE PUSH1 0x20 ADD PUSH1 0x0 KECCAK256 PUSH1 0x0 DUP3 DUP3 SLOAD PUSH2 0x155A SWAP2 SWAP1 PUSH2 0x4109 JUMP JUMPDEST SWAP3 POP POP DUP2 SWAP1 SSTORE POP DUP1 DUP1 PUSH2 0x156C SWAP1 PUSH2 0x42BE JUMP JUMPDEST SWAP2 POP POP PUSH2 0x14BE JUMP JUMPDEST POP DUP5 PUSH20 0xFFFFFFFFFFFFFFFFFFFFFFFFFFFFFFFFFFFFFFFF AND PUSH1 0x0 PUSH20 0xFFFFFFFFFFFFFFFFFFFFFFFFFFFFFFFFFFFFFFFF AND DUP3 PUSH20 0xFFFFFFFFFFFFFFFFFFFFFFFFFFFFFFFFFFFFFFFF AND PUSH32 0x4A39DC06D4C0DBC64B70AF90FD698A233A518AA5D07E595D983B8C0526C8F7FB DUP8 DUP8 PUSH1 0x40 MLOAD PUSH2 0x15EC SWAP3 SWAP2 SWAP1 PUSH2 0x3CD6 JUMP JUMPDEST PUSH1 0x40 MLOAD DUP1 SWAP2 SUB SWAP1 LOG4 PUSH2 0x1603 DUP2 PUSH1 0x0 DUP8 DUP8 DUP8 DUP8 PUSH2 0x2702 JUMP JUMPDEST POP POP POP POP POP JUMP JUMPDEST DUP2 MLOAD DUP4 MLOAD EQ PUSH2 0x164E JUMPI PUSH1 0x40 MLOAD PUSH32 0x8C379A000000000000000000000000000000000000000000000000000000000 DUP2 MSTORE PUSH1 0x4 ADD PUSH2 0x1645 SWAP1 PUSH2 0x3F2A JUMP JUMPDEST PUSH1 0x40 MLOAD DUP1 SWAP2 SUB SWAP1 REVERT JUMPDEST PUSH1 0x0 PUSH20 0xFFFFFFFFFFFFFFFFFFFFFFFFFFFFFFFFFFFFFFFF AND DUP5 PUSH20 0xFFFFFFFFFFFFFFFFFFFFFFFFFFFFFFFFFFFFFFFF AND EQ ISZERO PUSH2 0x16BE JUMPI PUSH1 0x40 MLOAD PUSH32 0x8C379A000000000000000000000000000000000000000000000000000000000 DUP2 MSTORE PUSH1 0x4 ADD PUSH2 0x16B5 SWAP1 PUSH2 0x3E4A JUMP JUMPDEST PUSH1 0x40 MLOAD DUP1 SWAP2 SUB SWAP1 REVERT JUMPDEST PUSH1 0x0 PUSH2 0x16C8 PUSH2 0x1255 JUMP JUMPDEST SWAP1 POP PUSH2 0x16D8 DUP2 DUP8 DUP8 DUP8 DUP8 DUP8 PUSH2 0x26A4 JUMP JUMPDEST PUSH1 0x0 JUMPDEST DUP5 MLOAD DUP2 LT ISZERO PUSH2 0x1889 JUMPI PUSH1 0x0 DUP6 DUP3 DUP2 MLOAD DUP2 LT PUSH2 0x16F9 JUMPI PUSH2 0x16F8 PUSH2 0x4365 JUMP JUMPDEST JUMPDEST PUSH1 0x20 MUL PUSH1 0x20 ADD ADD MLOAD SWAP1 POP PUSH1 0x0 DUP6 DUP4 DUP2 MLOAD DUP2 LT PUSH2 0x1718 JUMPI PUSH2 0x1717 PUSH2 0x4365 JUMP JUMPDEST JUMPDEST PUSH1 0x20 MUL PUSH1 0x20 ADD ADD MLOAD SWAP1 POP PUSH1 0x0 DUP1 PUSH1 0x0 DUP5 DUP2 MSTORE PUSH1 0x20 ADD SWAP1 DUP2 MSTORE PUSH1 0x20 ADD PUSH1 0x0 KECCAK256 PUSH1 0x0 DUP12 PUSH20 0xFFFFFFFFFFFFFFFFFFFFFFFFFFFFFFFFFFFFFFFF AND PUSH20 0xFFFFFFFFFFFFFFFFFFFFFFFFFFFFFFFFFFFFFFFF AND DUP2 MSTORE PUSH1 0x20 ADD SWAP1 DUP2 MSTORE PUSH1 0x20 ADD PUSH1 0x0 KECCAK256 SLOAD SWAP1 POP DUP2 DUP2 LT ISZERO PUSH2 0x17B9 JUMPI PUSH1 0x40 MLOAD PUSH32 0x8C379A000000000000000000000000000000000000000000000000000000000 DUP2 MSTORE PUSH1 0x4 ADD PUSH2 0x17B0 SWAP1 PUSH2 0x3EAA JUMP JUMPDEST PUSH1 0x40 MLOAD DUP1 SWAP2 SUB SWAP1 REVERT JUMPDEST DUP2 DUP2 SUB PUSH1 0x0 DUP1 DUP6 DUP2 MSTORE PUSH1 0x20 ADD SWAP1 DUP2 MSTORE PUSH1 0x20 ADD PUSH1 0x0 KECCAK256 PUSH1 0x0 DUP13 PUSH20 0xFFFFFFFFFFFFFFFFFFFFFFFFFFFFFFFFFFFFFFFF AND PUSH20 0xFFFFFFFFFFFFFFFFFFFFFFFFFFFFFFFFFFFFFFFF AND DUP2 MSTORE PUSH1 0x20 ADD SWAP1 DUP2 MSTORE PUSH1 0x20 ADD PUSH1 0x0 KECCAK256 DUP2 SWAP1 SSTORE POP DUP2 PUSH1 0x0 DUP1 DUP6 DUP2 MSTORE PUSH1 0x20 ADD SWAP1 DUP2 MSTORE PUSH1 0x20 ADD PUSH1 0x0 KECCAK256 PUSH1 0x0 DUP12 PUSH20 0xFFFFFFFFFFFFFFFFFFFFFFFFFFFFFFFFFFFFFFFF AND PUSH20 0xFFFFFFFFFFFFFFFFFFFFFFFFFFFFFFFFFFFFFFFF AND DUP2 MSTORE PUSH1 0x20 ADD SWAP1 DUP2 MSTORE PUSH1 0x20 ADD PUSH1 0x0 KECCAK256 PUSH1 0x0 DUP3 DUP3 SLOAD PUSH2 0x186E SWAP2 SWAP1 PUSH2 0x4109 JUMP JUMPDEST SWAP3 POP POP DUP2 SWAP1 SSTORE POP POP POP POP DUP1 PUSH2 0x1882 SWAP1 PUSH2 0x42BE JUMP JUMPDEST SWAP1 POP PUSH2 0x16DB JUMP JUMPDEST POP DUP5 PUSH20 0xFFFFFFFFFFFFFFFFFFFFFFFFFFFFFFFFFFFFFFFF AND DUP7 PUSH20 0xFFFFFFFFFFFFFFFFFFFFFFFFFFFFFFFFFFFFFFFF AND DUP3 PUSH20 0xFFFFFFFFFFFFFFFFFFFFFFFFFFFFFFFFFFFFFFFF AND PUSH32 0x4A39DC06D4C0DBC64B70AF90FD698A233A518AA5D07E595D983B8C0526C8F7FB DUP8 DUP8 PUSH1 0x40 MLOAD PUSH2 0x1900 SWAP3 SWAP2 SWAP1 PUSH2 0x3CD6 JUMP JUMPDEST PUSH1 0x40 MLOAD DUP1 SWAP2 SUB SWAP1 LOG4 PUSH2 0x1916 DUP2 DUP8 DUP8 DUP8 DUP8 DUP8 PUSH2 0x2702 JUMP JUMPDEST POP POP POP POP POP POP JUMP JUMPDEST PUSH2 0x1926 PUSH2 0xB0D JUMP JUMPDEST PUSH2 0x1965 JUMPI PUSH1 0x40 MLOAD PUSH32 0x8C379A000000000000000000000000000000000000000000000000000000000 DUP2 MSTORE PUSH1 0x4 ADD PUSH2 0x195C SWAP1 PUSH2 0x3D8A JUMP JUMPDEST PUSH1 0x40 MLOAD DUP1 SWAP2 SUB SWAP1 REVERT JUMPDEST PUSH1 0x0 PUSH1 0x3 PUSH1 0x14 PUSH2 0x100 EXP DUP2 SLOAD DUP2 PUSH1 0xFF MUL NOT AND SWAP1 DUP4 ISZERO ISZERO MUL OR SWAP1 SSTORE POP PUSH32 0x5DB9EE0A495BF2E6FF9C91A7834C1BA4FDD244A5E8AA4E537BD38AEAE4B073AA PUSH2 0x19A9 PUSH2 0x1255 JUMP JUMPDEST PUSH1 0x40 MLOAD PUSH2 0x19B6 SWAP2 SWAP1 PUSH2 0x3B24 JUMP JUMPDEST PUSH1 0x40 MLOAD DUP1 SWAP2 SUB SWAP1 LOG1 JUMP JUMPDEST PUSH1 0x0 PUSH20 0xFFFFFFFFFFFFFFFFFFFFFFFFFFFFFFFFFFFFFFFF AND DUP4 PUSH20 0xFFFFFFFFFFFFFFFFFFFFFFFFFFFFFFFFFFFFFFFF AND EQ ISZERO PUSH2 0x1A30 JUMPI PUSH1 0x40 MLOAD PUSH32 0x8C379A000000000000000000000000000000000000000000000000000000000 DUP2 MSTORE PUSH1 0x4 ADD PUSH2 0x1A27 SWAP1 PUSH2 0x3E8A JUMP JUMPDEST PUSH1 0x40 MLOAD DUP1 SWAP2 SUB SWAP1 REVERT JUMPDEST DUP1 MLOAD DUP3 MLOAD EQ PUSH2 0x1A74 JUMPI PUSH1 0x40 MLOAD PUSH32 0x8C379A000000000000000000000000000000000000000000000000000000000 DUP2 MSTORE PUSH1 0x4 ADD PUSH2 0x1A6B SWAP1 PUSH2 0x3F2A JUMP JUMPDEST PUSH1 0x40 MLOAD DUP1 SWAP2 SUB SWAP1 REVERT JUMPDEST PUSH1 0x0 PUSH2 0x1A7E PUSH2 0x1255 JUMP JUMPDEST SWAP1 POP PUSH2 0x1A9E DUP2 DUP6 PUSH1 0x0 DUP7 DUP7 PUSH1 0x40 MLOAD DUP1 PUSH1 0x20 ADD PUSH1 0x40 MSTORE DUP1 PUSH1 0x0 DUP2 MSTORE POP PUSH2 0x26A4 JUMP JUMPDEST PUSH1 0x0 JUMPDEST DUP4 MLOAD DUP2 LT ISZERO PUSH2 0x1BEB JUMPI PUSH1 0x0 DUP5 DUP3 DUP2 MLOAD DUP2 LT PUSH2 0x1ABF JUMPI PUSH2 0x1ABE PUSH2 0x4365 JUMP JUMPDEST JUMPDEST PUSH1 0x20 MUL PUSH1 0x20 ADD ADD MLOAD SWAP1 POP PUSH1 0x0 DUP5 DUP4 DUP2 MLOAD DUP2 LT PUSH2 0x1ADE JUMPI PUSH2 0x1ADD PUSH2 0x4365 JUMP JUMPDEST JUMPDEST PUSH1 0x20 MUL PUSH1 0x20 ADD ADD MLOAD SWAP1 POP PUSH1 0x0 DUP1 PUSH1 0x0 DUP5 DUP2 MSTORE PUSH1 0x20 ADD SWAP1 DUP2 MSTORE PUSH1 0x20 ADD PUSH1 0x0 KECCAK256 PUSH1 0x0 DUP10 PUSH20 0xFFFFFFFFFFFFFFFFFFFFFFFFFFFFFFFFFFFFFFFF AND PUSH20 0xFFFFFFFFFFFFFFFFFFFFFFFFFFFFFFFFFFFFFFFF AND DUP2 MSTORE PUSH1 0x20 ADD SWAP1 DUP2 MSTORE PUSH1 0x20 ADD PUSH1 0x0 KECCAK256 SLOAD SWAP1 POP DUP2 DUP2 LT ISZERO PUSH2 0x1B7F JUMPI PUSH1 0x40 MLOAD PUSH32 0x8C379A000000000000000000000000000000000000000000000000000000000 DUP2 MSTORE PUSH1 0x4 ADD PUSH2 0x1B76 SWAP1 PUSH2 0x3DEA JUMP JUMPDEST PUSH1 0x40 MLOAD DUP1 SWAP2 SUB SWAP1 REVERT JUMPDEST DUP2 DUP2 SUB PUSH1 0x0 DUP1 DUP6 DUP2 MSTORE PUSH1 0x20 ADD SWAP1 DUP2 MSTORE PUSH1 0x20 ADD PUSH1 0x0 KECCAK256 PUSH1 0x0 DUP11 PUSH20 0xFFFFFFFFFFFFFFFFFFFFFFFFFFFFFFFFFFFFFFFF AND PUSH20 0xFFFFFFFFFFFFFFFFFFFFFFFFFFFFFFFFFFFFFFFF AND DUP2 MSTORE PUSH1 0x20 ADD SWAP1 DUP2 MSTORE PUSH1 0x20 ADD PUSH1 0x0 KECCAK256 DUP2 SWAP1 SSTORE POP POP POP POP DUP1 DUP1 PUSH2 0x1BE3 SWAP1 PUSH2 0x42BE JUMP JUMPDEST SWAP2 POP POP PUSH2 0x1AA1 JUMP JUMPDEST POP PUSH1 0x0 PUSH20 0xFFFFFFFFFFFFFFFFFFFFFFFFFFFFFFFFFFFFFFFF AND DUP5 PUSH20 0xFFFFFFFFFFFFFFFFFFFFFFFFFFFFFFFFFFFFFFFF AND DUP3 PUSH20 0xFFFFFFFFFFFFFFFFFFFFFFFFFFFFFFFFFFFFFFFF AND PUSH32 0x4A39DC06D4C0DBC64B70AF90FD698A233A518AA5D07E595D983B8C0526C8F7FB DUP7 DUP7 PUSH1 0x40 MLOAD PUSH2 0x1C63 SWAP3 SWAP2 SWAP1 PUSH2 0x3CD6 JUMP JUMPDEST PUSH1 0x40 MLOAD DUP1 SWAP2 SUB SWAP1 LOG4 POP POP POP POP JUMP JUMPDEST PUSH1 0x0 PUSH20 0xFFFFFFFFFFFFFFFFFFFFFFFFFFFFFFFFFFFFFFFF AND DUP5 PUSH20 0xFFFFFFFFFFFFFFFFFFFFFFFFFFFFFFFFFFFFFFFF AND EQ ISZERO PUSH2 0x1CE1 JUMPI PUSH1 0x40 MLOAD PUSH32 0x8C379A000000000000000000000000000000000000000000000000000000000 DUP2 MSTORE PUSH1 0x4 ADD PUSH2 0x1CD8 SWAP1 PUSH2 0x3F4A JUMP JUMPDEST PUSH1 0x40 MLOAD DUP1 SWAP2 SUB SWAP1 REVERT JUMPDEST PUSH1 0x0 PUSH2 0x1CEB PUSH2 0x1255 JUMP JUMPDEST SWAP1 POP PUSH2 0x1D0C DUP2 PUSH1 0x0 DUP8 PUSH2 0x1CFD DUP9 PUSH2 0x28E9 JUMP JUMPDEST PUSH2 0x1D06 DUP9 PUSH2 0x28E9 JUMP JUMPDEST DUP8 PUSH2 0x26A4 JUMP JUMPDEST DUP3 PUSH1 0x0 DUP1 DUP7 DUP2 MSTORE PUSH1 0x20 ADD SWAP1 DUP2 MSTORE PUSH1 0x20 ADD PUSH1 0x0 KECCAK256 PUSH1 0x0 DUP8 PUSH20 0xFFFFFFFFFFFFFFFFFFFFFFFFFFFFFFFFFFFFFFFF AND PUSH20 0xFFFFFFFFFFFFFFFFFFFFFFFFFFFFFFFFFFFFFFFF AND DUP2 MSTORE PUSH1 0x20 ADD SWAP1 DUP2 MSTORE PUSH1 0x20 ADD PUSH1 0x0 KECCAK256 PUSH1 0x0 DUP3 DUP3 SLOAD PUSH2 0x1D6B SWAP2 SWAP1 PUSH2 0x4109 JUMP JUMPDEST SWAP3 POP POP DUP2 SWAP1 SSTORE POP DUP5 PUSH20 0xFFFFFFFFFFFFFFFFFFFFFFFFFFFFFFFFFFFFFFFF AND PUSH1 0x0 PUSH20 0xFFFFFFFFFFFFFFFFFFFFFFFFFFFFFFFFFFFFFFFF AND DUP3 PUSH20 0xFFFFFFFFFFFFFFFFFFFFFFFFFFFFFFFFFFFFFFFF AND PUSH32 0xC3D58168C5AE7397731D063D5BBF3D657854427343F4C083240F7AACAA2D0F62 DUP8 DUP8 PUSH1 0x40 MLOAD PUSH2 0x1DE9 SWAP3 SWAP2 SWAP1 PUSH2 0x3F85 JUMP JUMPDEST PUSH1 0x40 MLOAD DUP1 SWAP2 SUB SWAP1 LOG4 PUSH2 0x1E00 DUP2 PUSH1 0x0 DUP8 DUP8 DUP8 DUP8 PUSH2 0x2963 JUMP JUMPDEST POP POP POP POP POP JUMP JUMPDEST PUSH1 0x0 PUSH1 0x3 PUSH1 0x0 SWAP1 SLOAD SWAP1 PUSH2 0x100 EXP SWAP1 DIV PUSH20 0xFFFFFFFFFFFFFFFFFFFFFFFFFFFFFFFFFFFFFFFF AND SWAP1 POP DUP2 PUSH1 0x3 PUSH1 0x0 PUSH2 0x100 EXP DUP2 SLOAD DUP2 PUSH20 0xFFFFFFFFFFFFFFFFFFFFFFFFFFFFFFFFFFFFFFFF MUL NOT AND SWAP1 DUP4 PUSH20 0xFFFFFFFFFFFFFFFFFFFFFFFFFFFFFFFFFFFFFFFF AND MUL OR SWAP1 SSTORE POP DUP2 PUSH20 0xFFFFFFFFFFFFFFFFFFFFFFFFFFFFFFFFFFFFFFFF AND DUP2 PUSH20 0xFFFFFFFFFFFFFFFFFFFFFFFFFFFFFFFFFFFFFFFF AND PUSH32 0x8BE0079C531659141344CD1FD0A4F28419497F9722A3DAAFE3B4186F6B6457E0 PUSH1 0x40 MLOAD PUSH1 0x40 MLOAD DUP1 SWAP2 SUB SWAP1 LOG3 POP POP JUMP JUMPDEST PUSH2 0x1ED5 PUSH2 0xB0D JUMP JUMPDEST ISZERO PUSH2 0x1F15 JUMPI PUSH1 0x40 MLOAD PUSH32 0x8C379A000000000000000000000000000000000000000000000000000000000 DUP2 MSTORE PUSH1 0x4 ADD PUSH2 0x1F0C SWAP1 PUSH2 0x3E2A JUMP JUMPDEST PUSH1 0x40 MLOAD DUP1 SWAP2 SUB SWAP1 REVERT JUMPDEST PUSH1 0x1 PUSH1 0x3 PUSH1 0x14 PUSH2 0x100 EXP DUP2 SLOAD DUP2 PUSH1 0xFF MUL NOT AND SWAP1 DUP4 ISZERO ISZERO MUL OR SWAP1 SSTORE POP PUSH32 0x62E78CEA01BEE320CD4E420270B5EA74000D11B0C9F74754EBDBFC544B05A258 PUSH2 0x1F59 PUSH2 0x1255 JUMP JUMPDEST PUSH1 0x40 MLOAD PUSH2 0x1F66 SWAP2 SWAP1 PUSH2 0x3B24 JUMP JUMPDEST PUSH1 0x40 MLOAD DUP1 SWAP2 SUB SWAP1 LOG1 JUMP JUMPDEST DUP2 PUSH20 0xFFFFFFFFFFFFFFFFFFFFFFFFFFFFFFFFFFFFFFFF AND DUP4 PUSH20 0xFFFFFFFFFFFFFFFFFFFFFFFFFFFFFFFFFFFFFFFF AND EQ ISZERO PUSH2 0x1FDF JUMPI PUSH1 0x40 MLOAD PUSH32 0x8C379A000000000000000000000000000000000000000000000000000000000 DUP2 MSTORE PUSH1 0x4 ADD PUSH2 0x1FD6 SWAP1 PUSH2 0x3EEA JUMP JUMPDEST PUSH1 0x40 MLOAD DUP1 SWAP2 SUB SWAP1 REVERT JUMPDEST DUP1 PUSH1 0x1 PUSH1 0x0 DUP6 PUSH20 0xFFFFFFFFFFFFFFFFFFFFFFFFFFFFFFFFFFFFFFFF AND PUSH20 0xFFFFFFFFFFFFFFFFFFFFFFFFFFFFFFFFFFFFFFFF AND DUP2 MSTORE PUSH1 0x20 ADD SWAP1 DUP2 MSTORE PUSH1 0x20 ADD PUSH1 0x0 KECCAK256 PUSH1 0x0 DUP5 PUSH20 0xFFFFFFFFFFFFFFFFFFFFFFFFFFFFFFFFFFFFFFFF AND PUSH20 0xFFFFFFFFFFFFFFFFFFFFFFFFFFFFFFFFFFFFFFFF AND DUP2 MSTORE PUSH1 0x20 ADD SWAP1 DUP2 MSTORE PUSH1 0x20 ADD PUSH1 0x0 KECCAK256 PUSH1 0x0 PUSH2 0x100 EXP DUP2 SLOAD DUP2 PUSH1 0xFF MUL NOT AND SWAP1 DUP4 ISZERO ISZERO MUL OR SWAP1 SSTORE POP DUP2 PUSH20 0xFFFFFFFFFFFFFFFFFFFFFFFFFFFFFFFFFFFFFFFF AND DUP4 PUSH20 0xFFFFFFFFFFFFFFFFFFFFFFFFFFFFFFFFFFFFFFFF AND PUSH32 0x17307EAB39AB6107E8899845AD3D59BD9653F200F220920489CA2B5937696C31 DUP4 PUSH1 0x40 MLOAD PUSH2 0x20D0 SWAP2 SWAP1 PUSH2 0x3D0D JUMP JUMPDEST PUSH1 0x40 MLOAD DUP1 SWAP2 SUB SWAP1 LOG3 POP POP POP JUMP JUMPDEST PUSH1 0x0 PUSH1 0x1 PUSH1 0x0 DUP5 PUSH20 0xFFFFFFFFFFFFFFFFFFFFFFFFFFFFFFFFFFFFFFFF AND PUSH20 0xFFFFFFFFFFFFFFFFFFFFFFFFFFFFFFFFFFFFFFFF AND DUP2 MSTORE PUSH1 0x20 ADD SWAP1 DUP2 MSTORE PUSH1 0x20 ADD PUSH1 0x0 KECCAK256 PUSH1 0x0 DUP4 PUSH20 0xFFFFFFFFFFFFFFFFFFFFFFFFFFFFFFFFFFFFFFFF AND PUSH20 0xFFFFFFFFFFFFFFFFFFFFFFFFFFFFFFFFFFFFFFFF AND DUP2 MSTORE PUSH1 0x20 ADD SWAP1 DUP2 MSTORE PUSH1 0x20 ADD PUSH1 0x0 KECCAK256 PUSH1 0x0 SWAP1 SLOAD SWAP1 PUSH2 0x100 EXP SWAP1 DIV PUSH1 0xFF AND SWAP1 POP SWAP3 SWAP2 POP POP JUMP JUMPDEST PUSH1 0x0 PUSH20 0xFFFFFFFFFFFFFFFFFFFFFFFFFFFFFFFFFFFFFFFF AND DUP5 PUSH20 0xFFFFFFFFFFFFFFFFFFFFFFFFFFFFFFFFFFFFFFFF AND EQ ISZERO PUSH2 0x21E1 JUMPI PUSH1 0x40 MLOAD PUSH32 0x8C379A000000000000000000000000000000000000000000000000000000000 DUP2 MSTORE PUSH1 0x4 ADD PUSH2 0x21D8 SWAP1 PUSH2 0x3E4A JUMP JUMPDEST PUSH1 0x40 MLOAD DUP1 SWAP2 SUB SWAP1 REVERT JUMPDEST PUSH1 0x0 PUSH2 0x21EB PUSH2 0x1255 JUMP JUMPDEST SWAP1 POP PUSH2 0x220B DUP2 DUP8 DUP8 PUSH2 0x21FC DUP9 PUSH2 0x28E9 JUMP JUMPDEST PUSH2 0x2205 DUP9 PUSH2 0x28E9 JUMP JUMPDEST DUP8 PUSH2 0x26A4 JUMP JUMPDEST PUSH1 0x0 DUP1 PUSH1 0x0 DUP7 DUP2 MSTORE PUSH1 0x20 ADD SWAP1 DUP2 MSTORE PUSH1 0x20 ADD PUSH1 0x0 KECCAK256 PUSH1 0x0 DUP9 PUSH20 0xFFFFFFFFFFFFFFFFFFFFFFFFFFFFFFFFFFFFFFFF AND PUSH20 0xFFFFFFFFFFFFFFFFFFFFFFFFFFFFFFFFFFFFFFFF AND DUP2 MSTORE PUSH1 0x20 ADD SWAP1 DUP2 MSTORE PUSH1 0x20 ADD PUSH1 0x0 KECCAK256 SLOAD SWAP1 POP DUP4 DUP2 LT ISZERO PUSH2 0x22A2 JUMPI PUSH1 0x40 MLOAD PUSH32 0x8C379A000000000000000000000000000000000000000000000000000000000 DUP2 MSTORE PUSH1 0x4 ADD PUSH2 0x2299 SWAP1 PUSH2 0x3EAA JUMP JUMPDEST PUSH1 0x40 MLOAD DUP1 SWAP2 SUB SWAP1 REVERT JUMPDEST DUP4 DUP2 SUB PUSH1 0x0 DUP1 DUP8 DUP2 MSTORE PUSH1 0x20 ADD SWAP1 DUP2 MSTORE PUSH1 0x20 ADD PUSH1 0x0 KECCAK256 PUSH1 0x0 DUP10 PUSH20 0xFFFFFFFFFFFFFFFFFFFFFFFFFFFFFFFFFFFFFFFF AND PUSH20 0xFFFFFFFFFFFFFFFFFFFFFFFFFFFFFFFFFFFFFFFF AND DUP2 MSTORE PUSH1 0x20 ADD SWAP1 DUP2 MSTORE PUSH1 0x20 ADD PUSH1 0x0 KECCAK256 DUP2 SWAP1 SSTORE POP DUP4 PUSH1 0x0 DUP1 DUP8 DUP2 MSTORE PUSH1 0x20 ADD SWAP1 DUP2 MSTORE PUSH1 0x20 ADD PUSH1 0x0 KECCAK256 PUSH1 0x0 DUP9 PUSH20 0xFFFFFFFFFFFFFFFFFFFFFFFFFFFFFFFFFFFFFFFF AND PUSH20 0xFFFFFFFFFFFFFFFFFFFFFFFFFFFFFFFFFFFFFFFF AND DUP2 MSTORE PUSH1 0x20 ADD SWAP1 DUP2 MSTORE PUSH1 0x20 ADD PUSH1 0x0 KECCAK256 PUSH1 0x0 DUP3 DUP3 SLOAD PUSH2 0x2357 SWAP2 SWAP1 PUSH2 0x4109 JUMP JUMPDEST SWAP3 POP POP DUP2 SWAP1 SSTORE POP DUP6 PUSH20 0xFFFFFFFFFFFFFFFFFFFFFFFFFFFFFFFFFFFFFFFF AND DUP8 PUSH20 0xFFFFFFFFFFFFFFFFFFFFFFFFFFFFFFFFFFFFFFFF AND DUP4 PUSH20 0xFFFFFFFFFFFFFFFFFFFFFFFFFFFFFFFFFFFFFFFF AND PUSH32 0xC3D58168C5AE7397731D063D5BBF3D657854427343F4C083240F7AACAA2D0F62 DUP9 DUP9 PUSH1 0x40 MLOAD PUSH2 0x23D4 SWAP3 SWAP2 SWAP1 PUSH2 0x3F85 JUMP JUMPDEST PUSH1 0x40 MLOAD DUP1 SWAP2 SUB SWAP1 LOG4 PUSH2 0x23EA DUP3 DUP9 DUP9 DUP9 DUP9 DUP9 PUSH2 0x2963 JUMP JUMPDEST POP POP POP POP POP POP POP JUMP JUMPDEST PUSH1 0x0 PUSH20 0xFFFFFFFFFFFFFFFFFFFFFFFFFFFFFFFFFFFFFFFF AND DUP4 PUSH20 0xFFFFFFFFFFFFFFFFFFFFFFFFFFFFFFFFFFFFFFFF AND EQ ISZERO PUSH2 0x2463 JUMPI PUSH1 0x40 MLOAD PUSH32 0x8C379A000000000000000000000000000000000000000000000000000000000 DUP2 MSTORE PUSH1 0x4 ADD PUSH2 0x245A SWAP1 PUSH2 0x3E8A JUMP JUMPDEST PUSH1 0x40 MLOAD DUP1 SWAP2 SUB SWAP1 REVERT JUMPDEST PUSH1 0x0 PUSH2 0x246D PUSH2 0x1255 JUMP JUMPDEST SWAP1 POP PUSH2 0x249D DUP2 DUP6 PUSH1 0x0 PUSH2 0x247F DUP8 PUSH2 0x28E9 JUMP JUMPDEST PUSH2 0x2488 DUP8 PUSH2 0x28E9 JUMP JUMPDEST PUSH1 0x40 MLOAD DUP1 PUSH1 0x20 ADD PUSH1 0x40 MSTORE DUP1 PUSH1 0x0 DUP2 MSTORE POP PUSH2 0x26A4 JUMP JUMPDEST PUSH1 0x0 DUP1 PUSH1 0x0 DUP6 DUP2 MSTORE PUSH1 0x20 ADD SWAP1 DUP2 MSTORE PUSH1 0x20 ADD PUSH1 0x0 KECCAK256 PUSH1 0x0 DUP7 PUSH20 0xFFFFFFFFFFFFFFFFFFFFFFFFFFFFFFFFFFFFFFFF AND PUSH20 0xFFFFFFFFFFFFFFFFFFFFFFFFFFFFFFFFFFFFFFFF AND DUP2 MSTORE PUSH1 0x20 ADD SWAP1 DUP2 MSTORE PUSH1 0x20 ADD PUSH1 0x0 KECCAK256 SLOAD SWAP1 POP DUP3 DUP2 LT ISZERO PUSH2 0x2534 JUMPI PUSH1 0x40 MLOAD PUSH32 0x8C379A000000000000000000000000000000000000000000000000000000000 DUP2 MSTORE PUSH1 0x4 ADD PUSH2 0x252B SWAP1 PUSH2 0x3DEA JUMP JUMPDEST PUSH1 0x40 MLOAD DUP1 SWAP2 SUB SWAP1 REVERT JUMPDEST DUP3 DUP2 SUB PUSH1 0x0 DUP1 DUP7 DUP2 MSTORE PUSH1 0x20 ADD SWAP1 DUP2 MSTORE PUSH1 0x20 ADD PUSH1 0x0 KECCAK256 PUSH1 0x0 DUP8 PUSH20 0xFFFFFFFFFFFFFFFFFFFFFFFFFFFFFFFFFFFFFFFF AND PUSH20 0xFFFFFFFFFFFFFFFFFFFFFFFFFFFFFFFFFFFFFFFF AND DUP2 MSTORE PUSH1 0x20 ADD SWAP1 DUP2 MSTORE PUSH1 0x20 ADD PUSH1 0x0 KECCAK256 DUP2 SWAP1 SSTORE POP PUSH1 0x0 PUSH20 0xFFFFFFFFFFFFFFFFFFFFFFFFFFFFFFFFFFFFFFFF AND DUP6 PUSH20 0xFFFFFFFFFFFFFFFFFFFFFFFFFFFFFFFFFFFFFFFF AND DUP4 PUSH20 0xFFFFFFFFFFFFFFFFFFFFFFFFFFFFFFFFFFFFFFFF AND PUSH32 0xC3D58168C5AE7397731D063D5BBF3D657854427343F4C083240F7AACAA2D0F62 DUP8 DUP8 PUSH1 0x40 MLOAD PUSH2 0x2601 SWAP3 SWAP2 SWAP1 PUSH2 0x3F85 JUMP JUMPDEST PUSH1 0x40 MLOAD DUP1 SWAP2 SUB SWAP1 LOG4 POP POP POP POP POP JUMP JUMPDEST PUSH1 0x60 PUSH1 0x2 DUP1 SLOAD PUSH2 0x261F SWAP1 PUSH2 0x425B JUMP JUMPDEST DUP1 PUSH1 0x1F ADD PUSH1 0x20 DUP1 SWAP2 DIV MUL PUSH1 0x20 ADD PUSH1 0x40 MLOAD SWAP1 DUP2 ADD PUSH1 0x40 MSTORE DUP1 SWAP3 SWAP2 SWAP1 DUP2 DUP2 MSTORE PUSH1 0x20 ADD DUP3 DUP1 SLOAD PUSH2 0x264B SWAP1 PUSH2 0x425B JUMP JUMPDEST DUP1 ISZERO PUSH2 0x2698 JUMPI DUP1 PUSH1 0x1F LT PUSH2 0x266D JUMPI PUSH2 0x100 DUP1 DUP4 SLOAD DIV MUL DUP4 MSTORE SWAP2 PUSH1 0x20 ADD SWAP2 PUSH2 0x2698 JUMP JUMPDEST DUP3 ADD SWAP2 SWAP1 PUSH1 0x0 MSTORE PUSH1 0x20 PUSH1 0x0 KECCAK256 SWAP1 JUMPDEST DUP2 SLOAD DUP2 MSTORE SWAP1 PUSH1 0x1 ADD SWAP1 PUSH1 0x20 ADD DUP1 DUP4 GT PUSH2 0x267B JUMPI DUP3 SWAP1 SUB PUSH1 0x1F AND DUP3 ADD SWAP2 JUMPDEST POP POP POP POP POP SWAP1 POP SWAP2 SWAP1 POP JUMP JUMPDEST PUSH2 0x26AC PUSH2 0xB0D JUMP JUMPDEST ISZERO PUSH2 0x26EC JUMPI PUSH1 0x40 MLOAD PUSH32 0x8C379A000000000000000000000000000000000000000000000000000000000 DUP2 MSTORE PUSH1 0x4 ADD PUSH2 0x26E3 SWAP1 PUSH2 0x3E2A JUMP JUMPDEST PUSH1 0x40 MLOAD DUP1 SWAP2 SUB SWAP1 REVERT JUMPDEST PUSH2 0x26FA DUP7 DUP7 DUP7 DUP7 DUP7 DUP7 PUSH2 0x2B4A JUMP JUMPDEST POP POP POP POP POP POP JUMP JUMPDEST PUSH2 0x2721 DUP5 PUSH20 0xFFFFFFFFFFFFFFFFFFFFFFFFFFFFFFFFFFFFFFFF AND PUSH2 0x2CC4 JUMP JUMPDEST ISZERO PUSH2 0x28E1 JUMPI DUP4 PUSH20 0xFFFFFFFFFFFFFFFFFFFFFFFFFFFFFFFFFFFFFFFF AND PUSH4 0xBC197C81 DUP8 DUP8 DUP7 DUP7 DUP7 PUSH1 0x40 MLOAD DUP7 PUSH4 0xFFFFFFFF AND PUSH1 0xE0 SHL DUP2 MSTORE PUSH1 0x4 ADD PUSH2 0x2767 SWAP6 SWAP5 SWAP4 SWAP3 SWAP2 SWAP1 PUSH2 0x3B3F JUMP JUMPDEST PUSH1 0x20 PUSH1 0x40 MLOAD DUP1 DUP4 SUB DUP2 PUSH1 0x0 DUP8 DUP1 EXTCODESIZE ISZERO DUP1 ISZERO PUSH2 0x2781 JUMPI PUSH1 0x0 DUP1 REVERT JUMPDEST POP GAS CALL SWAP3 POP POP POP DUP1 ISZERO PUSH2 0x27B2 JUMPI POP PUSH1 0x40 MLOAD RETURNDATASIZE PUSH1 0x1F NOT PUSH1 0x1F DUP3 ADD AND DUP3 ADD DUP1 PUSH1 0x40 MSTORE POP DUP2 ADD SWAP1 PUSH2 0x27AF SWAP2 SWAP1 PUSH2 0x35FA JUMP JUMPDEST PUSH1 0x1 JUMPDEST PUSH2 0x2858 JUMPI PUSH2 0x27BE PUSH2 0x43C3 JUMP JUMPDEST DUP1 PUSH4 0x8C379A0 EQ ISZERO PUSH2 0x281B JUMPI POP PUSH2 0x27D3 PUSH2 0x4912 JUMP JUMPDEST DUP1 PUSH2 0x27DE JUMPI POP PUSH2 0x281D JUMP JUMPDEST DUP1 PUSH1 0x40 MLOAD PUSH32 0x8C379A000000000000000000000000000000000000000000000000000000000 DUP2 MSTORE PUSH1 0x4 ADD PUSH2 0x2812 SWAP2 SWAP1 PUSH2 0x3D28 JUMP JUMPDEST PUSH1 0x40 MLOAD DUP1 SWAP2 SUB SWAP1 REVERT JUMPDEST POP JUMPDEST PUSH1 0x40 MLOAD PUSH32 0x8C379A000000000000000000000000000000000000000000000000000000000 DUP2 MSTORE PUSH1 0x4 ADD PUSH2 0x284F SWAP1 PUSH2 0x3D4A JUMP JUMPDEST PUSH1 0x40 MLOAD DUP1 SWAP2 SUB SWAP1 REVERT JUMPDEST PUSH4 0xBC197C81 PUSH1 0xE0 SHL PUSH28 0xFFFFFFFFFFFFFFFFFFFFFFFFFFFFFFFFFFFFFFFFFFFFFFFFFFFFFFFF NOT AND DUP2 PUSH28 0xFFFFFFFFFFFFFFFFFFFFFFFFFFFFFFFFFFFFFFFFFFFFFFFFFFFFFFFF NOT AND EQ PUSH2 0x28DF JUMPI PUSH1 0x40 MLOAD PUSH32 0x8C379A000000000000000000000000000000000000000000000000000000000 DUP2 MSTORE PUSH1 0x4 ADD PUSH2 0x28D6 SWAP1 PUSH2 0x3D6A JUMP JUMPDEST PUSH1 0x40 MLOAD DUP1 SWAP2 SUB SWAP1 REVERT JUMPDEST POP JUMPDEST POP POP POP POP POP POP JUMP JUMPDEST PUSH1 0x60 PUSH1 0x0 PUSH1 0x1 PUSH8 0xFFFFFFFFFFFFFFFF DUP2 GT ISZERO PUSH2 0x2908 JUMPI PUSH2 0x2907 PUSH2 0x4394 JUMP JUMPDEST JUMPDEST PUSH1 0x40 MLOAD SWAP1 DUP1 DUP3 MSTORE DUP1 PUSH1 0x20 MUL PUSH1 0x20 ADD DUP3 ADD PUSH1 0x40 MSTORE DUP1 ISZERO PUSH2 0x2936 JUMPI DUP2 PUSH1 0x20 ADD PUSH1 0x20 DUP3 MUL DUP1 CALLDATASIZE DUP4 CALLDATACOPY DUP1 DUP3 ADD SWAP2 POP POP SWAP1 POP JUMPDEST POP SWAP1 POP DUP3 DUP2 PUSH1 0x0 DUP2 MLOAD DUP2 LT PUSH2 0x294E JUMPI PUSH2 0x294D PUSH2 0x4365 JUMP JUMPDEST JUMPDEST PUSH1 0x20 MUL PUSH1 0x20 ADD ADD DUP2 DUP2 MSTORE POP POP DUP1 SWAP2 POP POP SWAP2 SWAP1 POP JUMP JUMPDEST PUSH2 0x2982 DUP5 PUSH20 0xFFFFFFFFFFFFFFFFFFFFFFFFFFFFFFFFFFFFFFFF AND PUSH2 0x2CC4 JUMP JUMPDEST ISZERO PUSH2 0x2B42 JUMPI DUP4 PUSH20 0xFFFFFFFFFFFFFFFFFFFFFFFFFFFFFFFFFFFFFFFF AND PUSH4 0xF23A6E61 DUP8 DUP8 DUP7 DUP7 DUP7 PUSH1 0x40 MLOAD DUP7 PUSH4 0xFFFFFFFF AND PUSH1 0xE0 SHL DUP2 MSTORE PUSH1 0x4 ADD PUSH2 0x29C8 SWAP6 SWAP5 SWAP4 SWAP3 SWAP2 SWAP1 PUSH2 0x3BA7 JUMP JUMPDEST PUSH1 0x20 PUSH1 0x40 MLOAD DUP1 DUP4 SUB DUP2 PUSH1 0x0 DUP8 DUP1 EXTCODESIZE ISZERO DUP1 ISZERO PUSH2 0x29E2 JUMPI PUSH1 0x0 DUP1 REVERT JUMPDEST POP GAS CALL SWAP3 POP POP POP DUP1 ISZERO PUSH2 0x2A13 JUMPI POP PUSH1 0x40 MLOAD RETURNDATASIZE PUSH1 0x1F NOT PUSH1 0x1F DUP3 ADD AND DUP3 ADD DUP1 PUSH1 0x40 MSTORE POP DUP2 ADD SWAP1 PUSH2 0x2A10 SWAP2 SWAP1 PUSH2 0x35FA JUMP JUMPDEST PUSH1 0x1 JUMPDEST PUSH2 0x2AB9 JUMPI PUSH2 0x2A1F PUSH2 0x43C3 JUMP JUMPDEST DUP1 PUSH4 0x8C379A0 EQ ISZERO PUSH2 0x2A7C JUMPI POP PUSH2 0x2A34 PUSH2 0x4912 JUMP JUMPDEST DUP1 PUSH2 0x2A3F JUMPI POP PUSH2 0x2A7E JUMP JUMPDEST DUP1 PUSH1 0x40 MLOAD PUSH32 0x8C379A000000000000000000000000000000000000000000000000000000000 DUP2 MSTORE PUSH1 0x4 ADD PUSH2 0x2A73 SWAP2 SWAP1 PUSH2 0x3D28 JUMP JUMPDEST PUSH1 0x40 MLOAD DUP1 SWAP2 SUB SWAP1 REVERT JUMPDEST POP JUMPDEST PUSH1 0x40 MLOAD PUSH32 0x8C379A000000000000000000000000000000000000000000000000000000000 DUP2 MSTORE PUSH1 0x4 ADD PUSH2 0x2AB0 SWAP1 PUSH2 0x3D4A JUMP JUMPDEST PUSH1 0x40 MLOAD DUP1 SWAP2 SUB SWAP1 REVERT JUMPDEST PUSH4 0xF23A6E61 PUSH1 0xE0 SHL PUSH28 0xFFFFFFFFFFFFFFFFFFFFFFFFFFFFFFFFFFFFFFFFFFFFFFFFFFFFFFFF NOT AND DUP2 PUSH28 0xFFFFFFFFFFFFFFFFFFFFFFFFFFFFFFFFFFFFFFFFFFFFFFFFFFFFFFFF NOT AND EQ PUSH2 0x2B40 JUMPI PUSH1 0x40 MLOAD PUSH32 0x8C379A000000000000000000000000000000000000000000000000000000000 DUP2 MSTORE PUSH1 0x4 ADD PUSH2 0x2B37 SWAP1 PUSH2 0x3D6A JUMP JUMPDEST PUSH1 0x40 MLOAD DUP1 SWAP2 SUB SWAP1 REVERT JUMPDEST POP JUMPDEST POP POP POP POP POP POP JUMP JUMPDEST PUSH2 0x2B58 DUP7 DUP7 DUP7 DUP7 DUP7 DUP7 PUSH2 0x2CE7 JUMP JUMPDEST PUSH1 0x0 PUSH20 0xFFFFFFFFFFFFFFFFFFFFFFFFFFFFFFFFFFFFFFFF AND DUP6 PUSH20 0xFFFFFFFFFFFFFFFFFFFFFFFFFFFFFFFFFFFFFFFF AND EQ ISZERO PUSH2 0x2C0A JUMPI PUSH1 0x0 JUMPDEST DUP4 MLOAD DUP2 LT ISZERO PUSH2 0x2C08 JUMPI DUP3 DUP2 DUP2 MLOAD DUP2 LT PUSH2 0x2BAC JUMPI PUSH2 0x2BAB PUSH2 0x4365 JUMP JUMPDEST JUMPDEST PUSH1 0x20 MUL PUSH1 0x20 ADD ADD MLOAD PUSH1 0x4 PUSH1 0x0 DUP7 DUP5 DUP2 MLOAD DUP2 LT PUSH2 0x2BCB JUMPI PUSH2 0x2BCA PUSH2 0x4365 JUMP JUMPDEST JUMPDEST PUSH1 0x20 MUL PUSH1 0x20 ADD ADD MLOAD DUP2 MSTORE PUSH1 0x20 ADD SWAP1 DUP2 MSTORE PUSH1 0x20 ADD PUSH1 0x0 KECCAK256 PUSH1 0x0 DUP3 DUP3 SLOAD PUSH2 0x2BF0 SWAP2 SWAP1 PUSH2 0x4109 JUMP JUMPDEST SWAP3 POP POP DUP2 SWAP1 SSTORE POP DUP1 PUSH2 0x2C01 SWAP1 PUSH2 0x42BE JUMP JUMPDEST SWAP1 POP PUSH2 0x2B90 JUMP JUMPDEST POP JUMPDEST PUSH1 0x0 PUSH20 0xFFFFFFFFFFFFFFFFFFFFFFFFFFFFFFFFFFFFFFFF AND DUP5 PUSH20 0xFFFFFFFFFFFFFFFFFFFFFFFFFFFFFFFFFFFFFFFF AND EQ ISZERO PUSH2 0x2CBC JUMPI PUSH1 0x0 JUMPDEST DUP4 MLOAD DUP2 LT ISZERO PUSH2 0x2CBA JUMPI DUP3 DUP2 DUP2 MLOAD DUP2 LT PUSH2 0x2C5E JUMPI PUSH2 0x2C5D PUSH2 0x4365 JUMP JUMPDEST JUMPDEST PUSH1 0x20 MUL PUSH1 0x20 ADD ADD MLOAD PUSH1 0x4 PUSH1 0x0 DUP7 DUP5 DUP2 MLOAD DUP2 LT PUSH2 0x2C7D JUMPI PUSH2 0x2C7C PUSH2 0x4365 JUMP JUMPDEST JUMPDEST PUSH1 0x20 MUL PUSH1 0x20 ADD ADD MLOAD DUP2 MSTORE PUSH1 0x20 ADD SWAP1 DUP2 MSTORE PUSH1 0x20 ADD PUSH1 0x0 KECCAK256 PUSH1 0x0 DUP3 DUP3 SLOAD PUSH2 0x2CA2 SWAP2 SWAP1 PUSH2 0x415F JUMP JUMPDEST SWAP3 POP POP DUP2 SWAP1 SSTORE POP DUP1 PUSH2 0x2CB3 SWAP1 PUSH2 0x42BE JUMP JUMPDEST SWAP1 POP PUSH2 0x2C42 JUMP JUMPDEST POP JUMPDEST POP POP POP POP POP POP JUMP JUMPDEST PUSH1 0x0 DUP1 DUP3 PUSH20 0xFFFFFFFFFFFFFFFFFFFFFFFFFFFFFFFFFFFFFFFF AND EXTCODESIZE GT SWAP1 POP SWAP2 SWAP1 POP JUMP JUMPDEST POP POP POP POP POP POP JUMP JUMPDEST DUP3 DUP1 SLOAD PUSH2 0x2CFB SWAP1 PUSH2 0x425B JUMP JUMPDEST SWAP1 PUSH1 0x0 MSTORE PUSH1 0x20 PUSH1 0x0 KECCAK256 SWAP1 PUSH1 0x1F ADD PUSH1 0x20 SWAP1 DIV DUP2 ADD SWAP3 DUP3 PUSH2 0x2D1D JUMPI PUSH1 0x0 DUP6 SSTORE PUSH2 0x2D64 JUMP JUMPDEST DUP3 PUSH1 0x1F LT PUSH2 0x2D36 JUMPI DUP1 MLOAD PUSH1 0xFF NOT AND DUP4 DUP1 ADD OR DUP6 SSTORE PUSH2 0x2D64 JUMP JUMPDEST DUP3 DUP1 ADD PUSH1 0x1 ADD DUP6 SSTORE DUP3 ISZERO PUSH2 0x2D64 JUMPI SWAP2 DUP3 ADD JUMPDEST DUP3 DUP2 GT ISZERO PUSH2 0x2D63 JUMPI DUP3 MLOAD DUP3 SSTORE SWAP2 PUSH1 0x20 ADD SWAP2 SWAP1 PUSH1 0x1 ADD SWAP1 PUSH2 0x2D48 JUMP JUMPDEST JUMPDEST POP SWAP1 POP PUSH2 0x2D71 SWAP2 SWAP1 PUSH2 0x2D75 JUMP JUMPDEST POP SWAP1 JUMP JUMPDEST JUMPDEST DUP1 DUP3 GT ISZERO PUSH2 0x2D8E JUMPI PUSH1 0x0 DUP2 PUSH1 0x0 SWAP1 SSTORE POP PUSH1 0x1 ADD PUSH2 0x2D76 JUMP JUMPDEST POP SWAP1 JUMP JUMPDEST PUSH1 0x0 PUSH2 0x2DA5 PUSH2 0x2DA0 DUP5 PUSH2 0x3FD3 JUMP JUMPDEST PUSH2 0x3FAE JUMP JUMPDEST SWAP1 POP DUP1 DUP4 DUP3 MSTORE PUSH1 0x20 DUP3 ADD SWAP1 POP DUP3 DUP6 PUSH1 0x20 DUP7 MUL DUP3 ADD GT ISZERO PUSH2 0x2DC8 JUMPI PUSH2 0x2DC7 PUSH2 0x43EA JUMP JUMPDEST JUMPDEST PUSH1 0x0 JUMPDEST DUP6 DUP2 LT ISZERO PUSH2 0x2DF8 JUMPI DUP2 PUSH2 0x2DDE DUP9 DUP3 PUSH2 0x2EF6 JUMP JUMPDEST DUP5 MSTORE PUSH1 0x20 DUP5 ADD SWAP4 POP PUSH1 0x20 DUP4 ADD SWAP3 POP POP PUSH1 0x1 DUP2 ADD SWAP1 POP PUSH2 0x2DCB JUMP JUMPDEST POP POP POP SWAP4 SWAP3 POP POP POP JUMP JUMPDEST PUSH1 0x0 PUSH2 0x2E15 PUSH2 0x2E10 DUP5 PUSH2 0x3FFF JUMP JUMPDEST PUSH2 0x3FAE JUMP JUMPDEST SWAP1 POP DUP1 DUP4 DUP3 MSTORE PUSH1 0x20 DUP3 ADD SWAP1 POP DUP3 DUP6 PUSH1 0x20 DUP7 MUL DUP3 ADD GT ISZERO PUSH2 0x2E38 JUMPI PUSH2 0x2E37 PUSH2 0x43EA JUMP JUMPDEST JUMPDEST PUSH1 0x0 JUMPDEST DUP6 DUP2 LT ISZERO PUSH2 0x2E68 JUMPI DUP2 PUSH2 0x2E4E DUP9 DUP3 PUSH2 0x3002 JUMP JUMPDEST DUP5 MSTORE PUSH1 0x20 DUP5 ADD SWAP4 POP PUSH1 0x20 DUP4 ADD SWAP3 POP POP PUSH1 0x1 DUP2 ADD SWAP1 POP PUSH2 0x2E3B JUMP JUMPDEST POP POP POP SWAP4 SWAP3 POP POP POP JUMP JUMPDEST PUSH1 0x0 PUSH2 0x2E85 PUSH2 0x2E80 DUP5 PUSH2 0x402B JUMP JUMPDEST PUSH2 0x3FAE JUMP JUMPDEST SWAP1 POP DUP3 DUP2 MSTORE PUSH1 0x20 DUP2 ADD DUP5 DUP5 DUP5 ADD GT ISZERO PUSH2 0x2EA1 JUMPI PUSH2 0x2EA0 PUSH2 0x43EF JUMP JUMPDEST JUMPDEST PUSH2 0x2EAC DUP5 DUP3 DUP6 PUSH2 0x4219 JUMP JUMPDEST POP SWAP4 SWAP3 POP POP POP JUMP JUMPDEST PUSH1 0x0 PUSH2 0x2EC7 PUSH2 0x2EC2 DUP5 PUSH2 0x405C JUMP JUMPDEST PUSH2 0x3FAE JUMP JUMPDEST SWAP1 POP DUP3 DUP2 MSTORE PUSH1 0x20 DUP2 ADD DUP5 DUP5 DUP5 ADD GT ISZERO PUSH2 0x2EE3 JUMPI PUSH2 0x2EE2 PUSH2 0x43EF JUMP JUMPDEST JUMPDEST PUSH2 0x2EEE DUP5 DUP3 DUP6 PUSH2 0x4219 JUMP JUMPDEST POP SWAP4 SWAP3 POP POP POP JUMP JUMPDEST PUSH1 0x0 DUP2 CALLDATALOAD SWAP1 POP PUSH2 0x2F05 DUP2 PUSH2 0x49A8 JUMP JUMPDEST SWAP3 SWAP2 POP POP JUMP JUMPDEST PUSH1 0x0 DUP3 PUSH1 0x1F DUP4 ADD SLT PUSH2 0x2F20 JUMPI PUSH2 0x2F1F PUSH2 0x43E5 JUMP JUMPDEST JUMPDEST DUP2 CALLDATALOAD PUSH2 0x2F30 DUP5 DUP3 PUSH1 0x20 DUP7 ADD PUSH2 0x2D92 JUMP JUMPDEST SWAP2 POP POP SWAP3 SWAP2 POP POP JUMP JUMPDEST PUSH1 0x0 DUP3 PUSH1 0x1F DUP4 ADD SLT PUSH2 0x2F4E JUMPI PUSH2 0x2F4D PUSH2 0x43E5 JUMP JUMPDEST JUMPDEST DUP2 CALLDATALOAD PUSH2 0x2F5E DUP5 DUP3 PUSH1 0x20 DUP7 ADD PUSH2 0x2E02 JUMP JUMPDEST SWAP2 POP POP SWAP3 SWAP2 POP POP JUMP JUMPDEST PUSH1 0x0 DUP2 CALLDATALOAD SWAP1 POP PUSH2 0x2F76 DUP2 PUSH2 0x49BF JUMP JUMPDEST SWAP3 SWAP2 POP POP JUMP JUMPDEST PUSH1 0x0 DUP2 CALLDATALOAD SWAP1 POP PUSH2 0x2F8B DUP2 PUSH2 0x49D6 JUMP JUMPDEST SWAP3 SWAP2 POP POP JUMP JUMPDEST PUSH1 0x0 DUP2 MLOAD SWAP1 POP PUSH2 0x2FA0 DUP2 PUSH2 0x49D6 JUMP JUMPDEST SWAP3 SWAP2 POP POP JUMP JUMPDEST PUSH1 0x0 DUP3 PUSH1 0x1F DUP4 ADD SLT PUSH2 0x2FBB JUMPI PUSH2 0x2FBA PUSH2 0x43E5 JUMP JUMPDEST JUMPDEST DUP2 CALLDATALOAD PUSH2 0x2FCB DUP5 DUP3 PUSH1 0x20 DUP7 ADD PUSH2 0x2E72 JUMP JUMPDEST SWAP2 POP POP SWAP3 SWAP2 POP POP JUMP JUMPDEST PUSH1 0x0 DUP3 PUSH1 0x1F DUP4 ADD SLT PUSH2 0x2FE9 JUMPI PUSH2 0x2FE8 PUSH2 0x43E5 JUMP JUMPDEST JUMPDEST DUP2 CALLDATALOAD PUSH2 0x2FF9 DUP5 DUP3 PUSH1 0x20 DUP7 ADD PUSH2 0x2EB4 JUMP JUMPDEST SWAP2 POP POP SWAP3 SWAP2 POP POP JUMP JUMPDEST PUSH1 0x0 DUP2 CALLDATALOAD SWAP1 POP PUSH2 0x3011 DUP2 PUSH2 0x49ED JUMP JUMPDEST SWAP3 SWAP2 POP POP JUMP JUMPDEST PUSH1 0x0 PUSH1 0x20 DUP3 DUP5 SUB SLT ISZERO PUSH2 0x302D JUMPI PUSH2 0x302C PUSH2 0x43F9 JUMP JUMPDEST JUMPDEST PUSH1 0x0 PUSH2 0x303B DUP5 DUP3 DUP6 ADD PUSH2 0x2EF6 JUMP JUMPDEST SWAP2 POP POP SWAP3 SWAP2 POP POP JUMP JUMPDEST PUSH1 0x0 DUP1 PUSH1 0x40 DUP4 DUP6 SUB SLT ISZERO PUSH2 0x305B JUMPI PUSH2 0x305A PUSH2 0x43F9 JUMP JUMPDEST JUMPDEST PUSH1 0x0 PUSH2 0x3069 DUP6 DUP3 DUP7 ADD PUSH2 0x2EF6 JUMP JUMPDEST SWAP3 POP POP PUSH1 0x20 PUSH2 0x307A DUP6 DUP3 DUP7 ADD PUSH2 0x2EF6 JUMP JUMPDEST SWAP2 POP POP SWAP3 POP SWAP3 SWAP1 POP JUMP JUMPDEST PUSH1 0x0 DUP1 PUSH1 0x0 DUP1 PUSH1 0x0 PUSH1 0xA0 DUP7 DUP9 SUB SLT ISZERO PUSH2 0x30A0 JUMPI PUSH2 0x309F PUSH2 0x43F9 JUMP JUMPDEST JUMPDEST PUSH1 0x0 PUSH2 0x30AE DUP9 DUP3 DUP10 ADD PUSH2 0x2EF6 JUMP JUMPDEST SWAP6 POP POP PUSH1 0x20 PUSH2 0x30BF DUP9 DUP3 DUP10 ADD PUSH2 0x2EF6 JUMP JUMPDEST SWAP5 POP POP PUSH1 0x40 DUP7 ADD CALLDATALOAD PUSH8 0xFFFFFFFFFFFFFFFF DUP2 GT ISZERO PUSH2 0x30E0 JUMPI PUSH2 0x30DF PUSH2 0x43F4 JUMP JUMPDEST JUMPDEST PUSH2 0x30EC DUP9 DUP3 DUP10 ADD PUSH2 0x2F39 JUMP JUMPDEST SWAP4 POP POP PUSH1 0x60 DUP7 ADD CALLDATALOAD PUSH8 0xFFFFFFFFFFFFFFFF DUP2 GT ISZERO PUSH2 0x310D JUMPI PUSH2 0x310C PUSH2 0x43F4 JUMP JUMPDEST JUMPDEST PUSH2 0x3119 DUP9 DUP3 DUP10 ADD PUSH2 0x2F39 JUMP JUMPDEST SWAP3 POP POP PUSH1 0x80 DUP7 ADD CALLDATALOAD PUSH8 0xFFFFFFFFFFFFFFFF DUP2 GT ISZERO PUSH2 0x313A JUMPI PUSH2 0x3139 PUSH2 0x43F4 JUMP JUMPDEST JUMPDEST PUSH2 0x3146 DUP9 DUP3 DUP10 ADD PUSH2 0x2FA6 JUMP JUMPDEST SWAP2 POP POP SWAP3 SWAP6 POP SWAP3 SWAP6 SWAP1 SWAP4 POP JUMP JUMPDEST PUSH1 0x0 DUP1 PUSH1 0x0 DUP1 PUSH1 0x0 PUSH1 0xA0 DUP7 DUP9 SUB SLT ISZERO PUSH2 0x316F JUMPI PUSH2 0x316E PUSH2 0x43F9 JUMP JUMPDEST JUMPDEST PUSH1 0x0 PUSH2 0x317D DUP9 DUP3 DUP10 ADD PUSH2 0x2EF6 JUMP JUMPDEST SWAP6 POP POP PUSH1 0x20 PUSH2 0x318E DUP9 DUP3 DUP10 ADD PUSH2 0x2EF6 JUMP JUMPDEST SWAP5 POP POP PUSH1 0x40 PUSH2 0x319F DUP9 DUP3 DUP10 ADD PUSH2 0x3002 JUMP JUMPDEST SWAP4 POP POP PUSH1 0x60 PUSH2 0x31B0 DUP9 DUP3 DUP10 ADD PUSH2 0x3002 JUMP JUMPDEST SWAP3 POP POP PUSH1 0x80 DUP7 ADD CALLDATALOAD PUSH8 0xFFFFFFFFFFFFFFFF DUP2 GT ISZERO PUSH2 0x31D1 JUMPI PUSH2 0x31D0 PUSH2 0x43F4 JUMP JUMPDEST JUMPDEST PUSH2 0x31DD DUP9 DUP3 DUP10 ADD PUSH2 0x2FA6 JUMP JUMPDEST SWAP2 POP POP SWAP3 SWAP6 POP SWAP3 SWAP6 SWAP1 SWAP4 POP JUMP JUMPDEST PUSH1 0x0 DUP1 PUSH1 0x0 PUSH1 0x60 DUP5 DUP7 SUB SLT ISZERO PUSH2 0x3203 JUMPI PUSH2 0x3202 PUSH2 0x43F9 JUMP JUMPDEST JUMPDEST PUSH1 0x0 PUSH2 0x3211 DUP7 DUP3 DUP8 ADD PUSH2 0x2EF6 JUMP JUMPDEST SWAP4 POP POP PUSH1 0x20 DUP5 ADD CALLDATALOAD PUSH8 0xFFFFFFFFFFFFFFFF DUP2 GT ISZERO PUSH2 0x3232 JUMPI PUSH2 0x3231 PUSH2 0x43F4 JUMP JUMPDEST JUMPDEST PUSH2 0x323E DUP7 DUP3 DUP8 ADD PUSH2 0x2F39 JUMP JUMPDEST SWAP3 POP POP PUSH1 0x40 DUP5 ADD CALLDATALOAD PUSH8 0xFFFFFFFFFFFFFFFF DUP2 GT ISZERO PUSH2 0x325F JUMPI PUSH2 0x325E PUSH2 0x43F4 JUMP JUMPDEST JUMPDEST PUSH2 0x326B DUP7 DUP3 DUP8 ADD PUSH2 0x2F39 JUMP JUMPDEST SWAP2 POP POP SWAP3 POP SWAP3 POP SWAP3 JUMP JUMPDEST PUSH1 0x0 DUP1 PUSH1 0x0 DUP1 PUSH1 0x80 DUP6 DUP8 SUB SLT ISZERO PUSH2 0x328F JUMPI PUSH2 0x328E PUSH2 0x43F9 JUMP JUMPDEST JUMPDEST PUSH1 0x0 PUSH2 0x329D DUP8 DUP3 DUP9 ADD PUSH2 0x2EF6 JUMP JUMPDEST SWAP5 POP POP PUSH1 0x20 DUP6 ADD CALLDATALOAD PUSH8 0xFFFFFFFFFFFFFFFF DUP2 GT ISZERO PUSH2 0x32BE JUMPI PUSH2 0x32BD PUSH2 0x43F4 JUMP JUMPDEST JUMPDEST PUSH2 0x32CA DUP8 DUP3 DUP9 ADD PUSH2 0x2F39 JUMP JUMPDEST SWAP4 POP POP PUSH1 0x40 DUP6 ADD CALLDATALOAD PUSH8 0xFFFFFFFFFFFFFFFF DUP2 GT ISZERO PUSH2 0x32EB JUMPI PUSH2 0x32EA PUSH2 0x43F4 JUMP JUMPDEST JUMPDEST PUSH2 0x32F7 DUP8 DUP3 DUP9 ADD PUSH2 0x2F39 JUMP JUMPDEST SWAP3 POP POP PUSH1 0x60 DUP6 ADD CALLDATALOAD PUSH8 0xFFFFFFFFFFFFFFFF DUP2 GT ISZERO PUSH2 0x3318 JUMPI PUSH2 0x3317 PUSH2 0x43F4 JUMP JUMPDEST JUMPDEST PUSH2 0x3324 DUP8 DUP3 DUP9 ADD PUSH2 0x2FA6 JUMP JUMPDEST SWAP2 POP POP SWAP3 SWAP6 SWAP2 SWAP5 POP SWAP3 POP JUMP JUMPDEST PUSH1 0x0 DUP1 PUSH1 0x0 DUP1 PUSH1 0x0 PUSH1 0xA0 DUP7 DUP9 SUB SLT ISZERO PUSH2 0x334C JUMPI PUSH2 0x334B PUSH2 0x43F9 JUMP JUMPDEST JUMPDEST PUSH1 0x0 PUSH2 0x335A DUP9 DUP3 DUP10 ADD PUSH2 0x2EF6 JUMP JUMPDEST SWAP6 POP POP PUSH1 0x20 DUP7 ADD CALLDATALOAD PUSH8 0xFFFFFFFFFFFFFFFF DUP2 GT ISZERO PUSH2 0x337B JUMPI PUSH2 0x337A PUSH2 0x43F4 JUMP JUMPDEST JUMPDEST PUSH2 0x3387 DUP9 DUP3 DUP10 ADD PUSH2 0x2F39 JUMP JUMPDEST SWAP5 POP POP PUSH1 0x40 DUP7 ADD CALLDATALOAD PUSH8 0xFFFFFFFFFFFFFFFF DUP2 GT ISZERO PUSH2 0x33A8 JUMPI PUSH2 0x33A7 PUSH2 0x43F4 JUMP JUMPDEST JUMPDEST PUSH2 0x33B4 DUP9 DUP3 DUP10 ADD PUSH2 0x2F39 JUMP JUMPDEST SWAP4 POP POP PUSH1 0x60 PUSH2 0x33C5 DUP9 DUP3 DUP10 ADD PUSH2 0x3002 JUMP JUMPDEST SWAP3 POP POP PUSH1 0x80 DUP7 ADD CALLDATALOAD PUSH8 0xFFFFFFFFFFFFFFFF DUP2 GT ISZERO PUSH2 0x33E6 JUMPI PUSH2 0x33E5 PUSH2 0x43F4 JUMP JUMPDEST JUMPDEST PUSH2 0x33F2 DUP9 DUP3 DUP10 ADD PUSH2 0x2FA6 JUMP JUMPDEST SWAP2 POP POP SWAP3 SWAP6 POP SWAP3 SWAP6 SWAP1 SWAP4 POP JUMP JUMPDEST PUSH1 0x0 DUP1 PUSH1 0x40 DUP4 DUP6 SUB SLT ISZERO PUSH2 0x3416 JUMPI PUSH2 0x3415 PUSH2 0x43F9 JUMP JUMPDEST JUMPDEST PUSH1 0x0 PUSH2 0x3424 DUP6 DUP3 DUP7 ADD PUSH2 0x2EF6 JUMP JUMPDEST SWAP3 POP POP PUSH1 0x20 PUSH2 0x3435 DUP6 DUP3 DUP7 ADD PUSH2 0x2F67 JUMP JUMPDEST SWAP2 POP POP SWAP3 POP SWAP3 SWAP1 POP JUMP JUMPDEST PUSH1 0x0 DUP1 PUSH1 0x40 DUP4 DUP6 SUB SLT ISZERO PUSH2 0x3456 JUMPI PUSH2 0x3455 PUSH2 0x43F9 JUMP JUMPDEST JUMPDEST PUSH1 0x0 PUSH2 0x3464 DUP6 DUP3 DUP7 ADD PUSH2 0x2EF6 JUMP JUMPDEST SWAP3 POP POP PUSH1 0x20 PUSH2 0x3475 DUP6 DUP3 DUP7 ADD PUSH2 0x3002 JUMP JUMPDEST SWAP2 POP POP SWAP3 POP SWAP3 SWAP1 POP JUMP JUMPDEST PUSH1 0x0 DUP1 PUSH1 0x0 PUSH1 0x60 DUP5 DUP7 SUB SLT ISZERO PUSH2 0x3498 JUMPI PUSH2 0x3497 PUSH2 0x43F9 JUMP JUMPDEST JUMPDEST PUSH1 0x0 PUSH2 0x34A6 DUP7 DUP3 DUP8 ADD PUSH2 0x2EF6 JUMP JUMPDEST SWAP4 POP POP PUSH1 0x20 PUSH2 0x34B7 DUP7 DUP3 DUP8 ADD PUSH2 0x3002 JUMP JUMPDEST SWAP3 POP POP PUSH1 0x40 PUSH2 0x34C8 DUP7 DUP3 DUP8 ADD PUSH2 0x3002 JUMP JUMPDEST SWAP2 POP POP SWAP3 POP SWAP3 POP SWAP3 JUMP JUMPDEST PUSH1 0x0 DUP1 PUSH1 0x0 DUP1 PUSH1 0x80 DUP6 DUP8 SUB SLT ISZERO PUSH2 0x34EC JUMPI PUSH2 0x34EB PUSH2 0x43F9 JUMP JUMPDEST JUMPDEST PUSH1 0x0 PUSH2 0x34FA DUP8 DUP3 DUP9 ADD PUSH2 0x2EF6 JUMP JUMPDEST SWAP5 POP POP PUSH1 0x20 PUSH2 0x350B DUP8 DUP3 DUP9 ADD PUSH2 0x3002 JUMP JUMPDEST SWAP4 POP POP PUSH1 0x40 PUSH2 0x351C DUP8 DUP3 DUP9 ADD PUSH2 0x3002 JUMP JUMPDEST SWAP3 POP POP PUSH1 0x60 DUP6 ADD CALLDATALOAD PUSH8 0xFFFFFFFFFFFFFFFF DUP2 GT ISZERO PUSH2 0x353D JUMPI PUSH2 0x353C PUSH2 0x43F4 JUMP JUMPDEST JUMPDEST PUSH2 0x3549 DUP8 DUP3 DUP9 ADD PUSH2 0x2FA6 JUMP JUMPDEST SWAP2 POP POP SWAP3 SWAP6 SWAP2 SWAP5 POP SWAP3 POP JUMP JUMPDEST PUSH1 0x0 DUP1 PUSH1 0x40 DUP4 DUP6 SUB SLT ISZERO PUSH2 0x356C JUMPI PUSH2 0x356B PUSH2 0x43F9 JUMP JUMPDEST JUMPDEST PUSH1 0x0 DUP4 ADD CALLDATALOAD PUSH8 0xFFFFFFFFFFFFFFFF DUP2 GT ISZERO PUSH2 0x358A JUMPI PUSH2 0x3589 PUSH2 0x43F4 JUMP JUMPDEST JUMPDEST PUSH2 0x3596 DUP6 DUP3 DUP7 ADD PUSH2 0x2F0B JUMP JUMPDEST SWAP3 POP POP PUSH1 0x20 DUP4 ADD CALLDATALOAD PUSH8 0xFFFFFFFFFFFFFFFF DUP2 GT ISZERO PUSH2 0x35B7 JUMPI PUSH2 0x35B6 PUSH2 0x43F4 JUMP JUMPDEST JUMPDEST PUSH2 0x35C3 DUP6 DUP3 DUP7 ADD PUSH2 0x2F39 JUMP JUMPDEST SWAP2 POP POP SWAP3 POP SWAP3 SWAP1 POP JUMP JUMPDEST PUSH1 0x0 PUSH1 0x20 DUP3 DUP5 SUB SLT ISZERO PUSH2 0x35E3 JUMPI PUSH2 0x35E2 PUSH2 0x43F9 JUMP JUMPDEST JUMPDEST PUSH1 0x0 PUSH2 0x35F1 DUP5 DUP3 DUP6 ADD PUSH2 0x2F7C JUMP JUMPDEST SWAP2 POP POP SWAP3 SWAP2 POP POP JUMP JUMPDEST PUSH1 0x0 PUSH1 0x20 DUP3 DUP5 SUB SLT ISZERO PUSH2 0x3610 JUMPI PUSH2 0x360F PUSH2 0x43F9 JUMP JUMPDEST JUMPDEST PUSH1 0x0 PUSH2 0x361E DUP5 DUP3 DUP6 ADD PUSH2 0x2F91 JUMP JUMPDEST SWAP2 POP POP SWAP3 SWAP2 POP POP JUMP JUMPDEST PUSH1 0x0 PUSH1 0x20 DUP3 DUP5 SUB SLT ISZERO PUSH2 0x363D JUMPI PUSH2 0x363C PUSH2 0x43F9 JUMP JUMPDEST JUMPDEST PUSH1 0x0 DUP3 ADD CALLDATALOAD PUSH8 0xFFFFFFFFFFFFFFFF DUP2 GT ISZERO PUSH2 0x365B JUMPI PUSH2 0x365A PUSH2 0x43F4 JUMP JUMPDEST JUMPDEST PUSH2 0x3667 DUP5 DUP3 DUP6 ADD PUSH2 0x2FD4 JUMP JUMPDEST SWAP2 POP POP SWAP3 SWAP2 POP POP JUMP JUMPDEST PUSH1 0x0 PUSH1 0x20 DUP3 DUP5 SUB SLT ISZERO PUSH2 0x3686 JUMPI PUSH2 0x3685 PUSH2 0x43F9 JUMP JUMPDEST JUMPDEST PUSH1 0x0 PUSH2 0x3694 DUP5 DUP3 DUP6 ADD PUSH2 0x3002 JUMP JUMPDEST SWAP2 POP POP SWAP3 SWAP2 POP POP JUMP JUMPDEST PUSH1 0x0 DUP1 PUSH1 0x40 DUP4 DUP6 SUB SLT ISZERO PUSH2 0x36B4 JUMPI PUSH2 0x36B3 PUSH2 0x43F9 JUMP JUMPDEST JUMPDEST PUSH1 0x0 PUSH2 0x36C2 DUP6 DUP3 DUP7 ADD PUSH2 0x3002 JUMP JUMPDEST SWAP3 POP POP PUSH1 0x20 DUP4 ADD CALLDATALOAD PUSH8 0xFFFFFFFFFFFFFFFF DUP2 GT ISZERO PUSH2 0x36E3 JUMPI PUSH2 0x36E2 PUSH2 0x43F4 JUMP JUMPDEST JUMPDEST PUSH2 0x36EF DUP6 DUP3 DUP7 ADD PUSH2 0x2FD4 JUMP JUMPDEST SWAP2 POP POP SWAP3 POP SWAP3 SWAP1 POP JUMP JUMPDEST PUSH1 0x0 PUSH2 0x3705 DUP4 DUP4 PUSH2 0x3AB5 JUMP JUMPDEST PUSH1 0x20 DUP4 ADD SWAP1 POP SWAP3 SWAP2 POP POP JUMP JUMPDEST PUSH2 0x371A DUP2 PUSH2 0x4193 JUMP JUMPDEST DUP3 MSTORE POP POP JUMP JUMPDEST PUSH1 0x0 PUSH2 0x372B DUP3 PUSH2 0x409D JUMP JUMPDEST PUSH2 0x3735 DUP2 DUP6 PUSH2 0x40CB JUMP JUMPDEST SWAP4 POP PUSH2 0x3740 DUP4 PUSH2 0x408D JUMP JUMPDEST DUP1 PUSH1 0x0 JUMPDEST DUP4 DUP2 LT ISZERO PUSH2 0x3771 JUMPI DUP2 MLOAD PUSH2 0x3758 DUP9 DUP3 PUSH2 0x36F9 JUMP JUMPDEST SWAP8 POP PUSH2 0x3763 DUP4 PUSH2 0x40BE JUMP JUMPDEST SWAP3 POP POP PUSH1 0x1 DUP2 ADD SWAP1 POP PUSH2 0x3744 JUMP JUMPDEST POP DUP6 SWAP4 POP POP POP POP SWAP3 SWAP2 POP POP JUMP JUMPDEST PUSH2 0x3787 DUP2 PUSH2 0x41A5 JUMP JUMPDEST DUP3 MSTORE POP POP JUMP JUMPDEST PUSH1 0x0 PUSH2 0x3798 DUP3 PUSH2 0x40A8 JUMP JUMPDEST PUSH2 0x37A2 DUP2 DUP6 PUSH2 0x40DC JUMP JUMPDEST SWAP4 POP PUSH2 0x37B2 DUP2 DUP6 PUSH1 0x20 DUP7 ADD PUSH2 0x4228 JUMP JUMPDEST PUSH2 0x37BB DUP2 PUSH2 0x43FE JUMP JUMPDEST DUP5 ADD SWAP2 POP POP SWAP3 SWAP2 POP POP JUMP JUMPDEST PUSH2 0x37CF DUP2 PUSH2 0x4207 JUMP JUMPDEST DUP3 MSTORE POP POP JUMP JUMPDEST PUSH1 0x0 PUSH2 0x37E0 DUP3 PUSH2 0x40B3 JUMP JUMPDEST PUSH2 0x37EA DUP2 DUP6 PUSH2 0x40ED JUMP JUMPDEST SWAP4 POP PUSH2 0x37FA DUP2 DUP6 PUSH1 0x20 DUP7 ADD PUSH2 0x4228 JUMP JUMPDEST PUSH2 0x3803 DUP2 PUSH2 0x43FE JUMP JUMPDEST DUP5 ADD SWAP2 POP POP SWAP3 SWAP2 POP POP JUMP JUMPDEST PUSH1 0x0 PUSH2 0x3819 DUP3 PUSH2 0x40B3 JUMP JUMPDEST PUSH2 0x3823 DUP2 DUP6 PUSH2 0x40FE JUMP JUMPDEST SWAP4 POP PUSH2 0x3833 DUP2 DUP6 PUSH1 0x20 DUP7 ADD PUSH2 0x4228 JUMP JUMPDEST DUP1 DUP5 ADD SWAP2 POP POP SWAP3 SWAP2 POP POP JUMP JUMPDEST PUSH1 0x0 PUSH2 0x384C PUSH1 0x34 DUP4 PUSH2 0x40ED JUMP JUMPDEST SWAP2 POP PUSH2 0x3857 DUP3 PUSH2 0x441C JUMP JUMPDEST PUSH1 0x40 DUP3 ADD SWAP1 POP SWAP2 SWAP1 POP JUMP JUMPDEST PUSH1 0x0 PUSH2 0x386F PUSH1 0x28 DUP4 PUSH2 0x40ED JUMP JUMPDEST SWAP2 POP PUSH2 0x387A DUP3 PUSH2 0x446B JUMP JUMPDEST PUSH1 0x40 DUP3 ADD SWAP1 POP SWAP2 SWAP1 POP JUMP JUMPDEST PUSH1 0x0 PUSH2 0x3892 PUSH1 0x14 DUP4 PUSH2 0x40ED JUMP JUMPDEST SWAP2 POP PUSH2 0x389D DUP3 PUSH2 0x44BA JUMP JUMPDEST PUSH1 0x20 DUP3 ADD SWAP1 POP SWAP2 SWAP1 POP JUMP JUMPDEST PUSH1 0x0 PUSH2 0x38B5 PUSH1 0x2B DUP4 PUSH2 0x40ED JUMP JUMPDEST SWAP2 POP PUSH2 0x38C0 DUP3 PUSH2 0x44E3 JUMP JUMPDEST PUSH1 0x40 DUP3 ADD SWAP1 POP SWAP2 SWAP1 POP JUMP JUMPDEST PUSH1 0x0 PUSH2 0x38D8 PUSH1 0x26 DUP4 PUSH2 0x40ED JUMP JUMPDEST SWAP2 POP PUSH2 0x38E3 DUP3 PUSH2 0x4532 JUMP JUMPDEST PUSH1 0x40 DUP3 ADD SWAP1 POP SWAP2 SWAP1 POP JUMP JUMPDEST PUSH1 0x0 PUSH2 0x38FB PUSH1 0x24 DUP4 PUSH2 0x40ED JUMP JUMPDEST SWAP2 POP PUSH2 0x3906 DUP3 PUSH2 0x4581 JUMP JUMPDEST PUSH1 0x40 DUP3 ADD SWAP1 POP SWAP2 SWAP1 POP JUMP JUMPDEST PUSH1 0x0 PUSH2 0x391E PUSH1 0x29 DUP4 PUSH2 0x40ED JUMP JUMPDEST SWAP2 POP PUSH2 0x3929 DUP3 PUSH2 0x45D0 JUMP JUMPDEST PUSH1 0x40 DUP3 ADD SWAP1 POP SWAP2 SWAP1 POP JUMP JUMPDEST PUSH1 0x0 PUSH2 0x3941 PUSH1 0x10 DUP4 PUSH2 0x40ED JUMP JUMPDEST SWAP2 POP PUSH2 0x394C DUP3 PUSH2 0x461F JUMP JUMPDEST PUSH1 0x20 DUP3 ADD SWAP1 POP SWAP2 SWAP1 POP JUMP JUMPDEST PUSH1 0x0 PUSH2 0x3964 PUSH1 0x25 DUP4 PUSH2 0x40ED JUMP JUMPDEST SWAP2 POP PUSH2 0x396F DUP3 PUSH2 0x4648 JUMP JUMPDEST PUSH1 0x40 DUP3 ADD SWAP1 POP SWAP2 SWAP1 POP JUMP JUMPDEST PUSH1 0x0 PUSH2 0x3987 PUSH1 0x32 DUP4 PUSH2 0x40ED JUMP JUMPDEST SWAP2 POP PUSH2 0x3992 DUP3 PUSH2 0x4697 JUMP JUMPDEST PUSH1 0x40 DUP3 ADD SWAP1 POP SWAP2 SWAP1 POP JUMP JUMPDEST PUSH1 0x0 PUSH2 0x39AA PUSH1 0x23 DUP4 PUSH2 0x40ED JUMP JUMPDEST SWAP2 POP PUSH2 0x39B5 DUP3 PUSH2 0x46E6 JUMP JUMPDEST PUSH1 0x40 DUP3 ADD SWAP1 POP SWAP2 SWAP1 POP JUMP JUMPDEST PUSH1 0x0 PUSH2 0x39CD PUSH1 0x2A DUP4 PUSH2 0x40ED JUMP JUMPDEST SWAP2 POP PUSH2 0x39D8 DUP3 PUSH2 0x4735 JUMP JUMPDEST PUSH1 0x40 DUP3 ADD SWAP1 POP SWAP2 SWAP1 POP JUMP JUMPDEST PUSH1 0x0 PUSH2 0x39F0 PUSH1 0x20 DUP4 PUSH2 0x40ED JUMP JUMPDEST SWAP2 POP PUSH2 0x39FB DUP3 PUSH2 0x4784 JUMP JUMPDEST PUSH1 0x20 DUP3 ADD SWAP1 POP SWAP2 SWAP1 POP JUMP JUMPDEST PUSH1 0x0 PUSH2 0x3A13 PUSH1 0x4 DUP4 PUSH2 0x40FE JUMP JUMPDEST SWAP2 POP PUSH2 0x3A1E DUP3 PUSH2 0x47AD JUMP JUMPDEST PUSH1 0x4 DUP3 ADD SWAP1 POP SWAP2 SWAP1 POP JUMP JUMPDEST PUSH1 0x0 PUSH2 0x3A36 PUSH1 0x29 DUP4 PUSH2 0x40ED JUMP JUMPDEST SWAP2 POP PUSH2 0x3A41 DUP3 PUSH2 0x47D6 JUMP JUMPDEST PUSH1 0x40 DUP3 ADD SWAP1 POP SWAP2 SWAP1 POP JUMP JUMPDEST PUSH1 0x0 PUSH2 0x3A59 PUSH1 0x29 DUP4 PUSH2 0x40ED JUMP JUMPDEST SWAP2 POP PUSH2 0x3A64 DUP3 PUSH2 0x4825 JUMP JUMPDEST PUSH1 0x40 DUP3 ADD SWAP1 POP SWAP2 SWAP1 POP JUMP JUMPDEST PUSH1 0x0 PUSH2 0x3A7C PUSH1 0x28 DUP4 PUSH2 0x40ED JUMP JUMPDEST SWAP2 POP PUSH2 0x3A87 DUP3 PUSH2 0x4874 JUMP JUMPDEST PUSH1 0x40 DUP3 ADD SWAP1 POP SWAP2 SWAP1 POP JUMP JUMPDEST PUSH1 0x0 PUSH2 0x3A9F PUSH1 0x21 DUP4 PUSH2 0x40ED JUMP JUMPDEST SWAP2 POP PUSH2 0x3AAA DUP3 PUSH2 0x48C3 JUMP JUMPDEST PUSH1 0x40 DUP3 ADD SWAP1 POP SWAP2 SWAP1 POP JUMP JUMPDEST PUSH2 0x3ABE DUP2 PUSH2 0x41FD JUMP JUMPDEST DUP3 MSTORE POP POP JUMP JUMPDEST PUSH2 0x3ACD DUP2 PUSH2 0x41FD JUMP JUMPDEST DUP3 MSTORE POP POP JUMP JUMPDEST PUSH1 0x0 PUSH2 0x3ADF DUP3 DUP6 PUSH2 0x380E JUMP JUMPDEST SWAP2 POP PUSH2 0x3AEB DUP3 DUP5 PUSH2 0x380E JUMP JUMPDEST SWAP2 POP PUSH2 0x3AF6 DUP3 PUSH2 0x3A06 JUMP JUMPDEST SWAP2 POP DUP2 SWAP1 POP SWAP4 SWAP3 POP POP POP JUMP JUMPDEST PUSH1 0x0 PUSH2 0x3B0E DUP3 DUP5 PUSH2 0x380E JUMP JUMPDEST SWAP2 POP PUSH2 0x3B19 DUP3 PUSH2 0x3A06 JUMP JUMPDEST SWAP2 POP DUP2 SWAP1 POP SWAP3 SWAP2 POP POP JUMP JUMPDEST PUSH1 0x0 PUSH1 0x20 DUP3 ADD SWAP1 POP PUSH2 0x3B39 PUSH1 0x0 DUP4 ADD DUP5 PUSH2 0x3711 JUMP JUMPDEST SWAP3 SWAP2 POP POP JUMP JUMPDEST PUSH1 0x0 PUSH1 0xA0 DUP3 ADD SWAP1 POP PUSH2 0x3B54 PUSH1 0x0 DUP4 ADD DUP9 PUSH2 0x3711 JUMP JUMPDEST PUSH2 0x3B61 PUSH1 0x20 DUP4 ADD DUP8 PUSH2 0x3711 JUMP JUMPDEST DUP2 DUP2 SUB PUSH1 0x40 DUP4 ADD MSTORE PUSH2 0x3B73 DUP2 DUP7 PUSH2 0x3720 JUMP JUMPDEST SWAP1 POP DUP2 DUP2 SUB PUSH1 0x60 DUP4 ADD MSTORE PUSH2 0x3B87 DUP2 DUP6 PUSH2 0x3720 JUMP JUMPDEST SWAP1 POP DUP2 DUP2 SUB PUSH1 0x80 DUP4 ADD MSTORE PUSH2 0x3B9B DUP2 DUP5 PUSH2 0x378D JUMP JUMPDEST SWAP1 POP SWAP7 SWAP6 POP POP POP POP POP POP JUMP JUMPDEST PUSH1 0x0 PUSH1 0xA0 DUP3 ADD SWAP1 POP PUSH2 0x3BBC PUSH1 0x0 DUP4 ADD DUP9 PUSH2 0x3711 JUMP JUMPDEST PUSH2 0x3BC9 PUSH1 0x20 DUP4 ADD DUP8 PUSH2 0x3711 JUMP JUMPDEST PUSH2 0x3BD6 PUSH1 0x40 DUP4 ADD DUP7 PUSH2 0x3AC4 JUMP JUMPDEST PUSH2 0x3BE3 PUSH1 0x60 DUP4 ADD DUP6 PUSH2 0x3AC4 JUMP JUMPDEST DUP2 DUP2 SUB PUSH1 0x80 DUP4 ADD MSTORE PUSH2 0x3BF5 DUP2 DUP5 PUSH2 0x378D JUMP JUMPDEST SWAP1 POP SWAP7 SWAP6 POP POP POP POP POP POP JUMP JUMPDEST PUSH1 0x0 PUSH1 0x60 DUP3 ADD SWAP1 POP PUSH2 0x3C16 PUSH1 0x0 DUP4 ADD DUP7 PUSH2 0x3711 JUMP JUMPDEST DUP2 DUP2 SUB PUSH1 0x20 DUP4 ADD MSTORE PUSH2 0x3C28 DUP2 DUP6 PUSH2 0x3720 JUMP JUMPDEST SWAP1 POP DUP2 DUP2 SUB PUSH1 0x40 DUP4 ADD MSTORE PUSH2 0x3C3C DUP2 DUP5 PUSH2 0x3720 JUMP JUMPDEST SWAP1 POP SWAP5 SWAP4 POP POP POP POP JUMP JUMPDEST PUSH1 0x0 PUSH1 0x60 DUP3 ADD SWAP1 POP PUSH2 0x3C5B PUSH1 0x0 DUP4 ADD DUP7 PUSH2 0x3711 JUMP JUMPDEST PUSH2 0x3C68 PUSH1 0x20 DUP4 ADD DUP6 PUSH2 0x3AC4 JUMP JUMPDEST PUSH2 0x3C75 PUSH1 0x40 DUP4 ADD DUP5 PUSH2 0x37C6 JUMP JUMPDEST SWAP5 SWAP4 POP POP POP POP JUMP JUMPDEST PUSH1 0x0 PUSH1 0x60 DUP3 ADD SWAP1 POP PUSH2 0x3C92 PUSH1 0x0 DUP4 ADD DUP7 PUSH2 0x3711 JUMP JUMPDEST PUSH2 0x3C9F PUSH1 0x20 DUP4 ADD DUP6 PUSH2 0x3AC4 JUMP JUMPDEST PUSH2 0x3CAC PUSH1 0x40 DUP4 ADD DUP5 PUSH2 0x3AC4 JUMP JUMPDEST SWAP5 SWAP4 POP POP POP POP JUMP JUMPDEST PUSH1 0x0 PUSH1 0x20 DUP3 ADD SWAP1 POP DUP2 DUP2 SUB PUSH1 0x0 DUP4 ADD MSTORE PUSH2 0x3CCE DUP2 DUP5 PUSH2 0x3720 JUMP JUMPDEST SWAP1 POP SWAP3 SWAP2 POP POP JUMP JUMPDEST PUSH1 0x0 PUSH1 0x40 DUP3 ADD SWAP1 POP DUP2 DUP2 SUB PUSH1 0x0 DUP4 ADD MSTORE PUSH2 0x3CF0 DUP2 DUP6 PUSH2 0x3720 JUMP JUMPDEST SWAP1 POP DUP2 DUP2 SUB PUSH1 0x20 DUP4 ADD MSTORE PUSH2 0x3D04 DUP2 DUP5 PUSH2 0x3720 JUMP JUMPDEST SWAP1 POP SWAP4 SWAP3 POP POP POP JUMP JUMPDEST PUSH1 0x0 PUSH1 0x20 DUP3 ADD SWAP1 POP PUSH2 0x3D22 PUSH1 0x0 DUP4 ADD DUP5 PUSH2 0x377E JUMP JUMPDEST SWAP3 SWAP2 POP POP JUMP JUMPDEST PUSH1 0x0 PUSH1 0x20 DUP3 ADD SWAP1 POP DUP2 DUP2 SUB PUSH1 0x0 DUP4 ADD MSTORE PUSH2 0x3D42 DUP2 DUP5 PUSH2 0x37D5 JUMP JUMPDEST SWAP1 POP SWAP3 SWAP2 POP POP JUMP JUMPDEST PUSH1 0x0 PUSH1 0x20 DUP3 ADD SWAP1 POP DUP2 DUP2 SUB PUSH1 0x0 DUP4 ADD MSTORE PUSH2 0x3D63 DUP2 PUSH2 0x383F JUMP JUMPDEST SWAP1 POP SWAP2 SWAP1 POP JUMP JUMPDEST PUSH1 0x0 PUSH1 0x20 DUP3 ADD SWAP1 POP DUP2 DUP2 SUB PUSH1 0x0 DUP4 ADD MSTORE PUSH2 0x3D83 DUP2 PUSH2 0x3862 JUMP JUMPDEST SWAP1 POP SWAP2 SWAP1 POP JUMP JUMPDEST PUSH1 0x0 PUSH1 0x20 DUP3 ADD SWAP1 POP DUP2 DUP2 SUB PUSH1 0x0 DUP4 ADD MSTORE PUSH2 0x3DA3 DUP2 PUSH2 0x3885 JUMP JUMPDEST SWAP1 POP SWAP2 SWAP1 POP JUMP JUMPDEST PUSH1 0x0 PUSH1 0x20 DUP3 ADD SWAP1 POP DUP2 DUP2 SUB PUSH1 0x0 DUP4 ADD MSTORE PUSH2 0x3DC3 DUP2 PUSH2 0x38A8 JUMP JUMPDEST SWAP1 POP SWAP2 SWAP1 POP JUMP JUMPDEST PUSH1 0x0 PUSH1 0x20 DUP3 ADD SWAP1 POP DUP2 DUP2 SUB PUSH1 0x0 DUP4 ADD MSTORE PUSH2 0x3DE3 DUP2 PUSH2 0x38CB JUMP JUMPDEST SWAP1 POP SWAP2 SWAP1 POP JUMP JUMPDEST PUSH1 0x0 PUSH1 0x20 DUP3 ADD SWAP1 POP DUP2 DUP2 SUB PUSH1 0x0 DUP4 ADD MSTORE PUSH2 0x3E03 DUP2 PUSH2 0x38EE JUMP JUMPDEST SWAP1 POP SWAP2 SWAP1 POP JUMP JUMPDEST PUSH1 0x0 PUSH1 0x20 DUP3 ADD SWAP1 POP DUP2 DUP2 SUB PUSH1 0x0 DUP4 ADD MSTORE PUSH2 0x3E23 DUP2 PUSH2 0x3911 JUMP JUMPDEST SWAP1 POP SWAP2 SWAP1 POP JUMP JUMPDEST PUSH1 0x0 PUSH1 0x20 DUP3 ADD SWAP1 POP DUP2 DUP2 SUB PUSH1 0x0 DUP4 ADD MSTORE PUSH2 0x3E43 DUP2 PUSH2 0x3934 JUMP JUMPDEST SWAP1 POP SWAP2 SWAP1 POP JUMP JUMPDEST PUSH1 0x0 PUSH1 0x20 DUP3 ADD SWAP1 POP DUP2 DUP2 SUB PUSH1 0x0 DUP4 ADD MSTORE PUSH2 0x3E63 DUP2 PUSH2 0x3957 JUMP JUMPDEST SWAP1 POP SWAP2 SWAP1 POP JUMP JUMPDEST PUSH1 0x0 PUSH1 0x20 DUP3 ADD SWAP1 POP DUP2 DUP2 SUB PUSH1 0x0 DUP4 ADD MSTORE PUSH2 0x3E83 DUP2 PUSH2 0x397A JUMP JUMPDEST SWAP1 POP SWAP2 SWAP1 POP JUMP JUMPDEST PUSH1 0x0 PUSH1 0x20 DUP3 ADD SWAP1 POP DUP2 DUP2 SUB PUSH1 0x0 DUP4 ADD MSTORE PUSH2 0x3EA3 DUP2 PUSH2 0x399D JUMP JUMPDEST SWAP1 POP SWAP2 SWAP1 POP JUMP JUMPDEST PUSH1 0x0 PUSH1 0x20 DUP3 ADD SWAP1 POP DUP2 DUP2 SUB PUSH1 0x0 DUP4 ADD MSTORE PUSH2 0x3EC3 DUP2 PUSH2 0x39C0 JUMP JUMPDEST SWAP1 POP SWAP2 SWAP1 POP JUMP JUMPDEST PUSH1 0x0 PUSH1 0x20 DUP3 ADD SWAP1 POP DUP2 DUP2 SUB PUSH1 0x0 DUP4 ADD MSTORE PUSH2 0x3EE3 DUP2 PUSH2 0x39E3 JUMP JUMPDEST SWAP1 POP SWAP2 SWAP1 POP JUMP JUMPDEST PUSH1 0x0 PUSH1 0x20 DUP3 ADD SWAP1 POP DUP2 DUP2 SUB PUSH1 0x0 DUP4 ADD MSTORE PUSH2 0x3F03 DUP2 PUSH2 0x3A29 JUMP JUMPDEST SWAP1 POP SWAP2 SWAP1 POP JUMP JUMPDEST PUSH1 0x0 PUSH1 0x20 DUP3 ADD SWAP1 POP DUP2 DUP2 SUB PUSH1 0x0 DUP4 ADD MSTORE PUSH2 0x3F23 DUP2 PUSH2 0x3A4C JUMP JUMPDEST SWAP1 POP SWAP2 SWAP1 POP JUMP JUMPDEST PUSH1 0x0 PUSH1 0x20 DUP3 ADD SWAP1 POP DUP2 DUP2 SUB PUSH1 0x0 DUP4 ADD MSTORE PUSH2 0x3F43 DUP2 PUSH2 0x3A6F JUMP JUMPDEST SWAP1 POP SWAP2 SWAP1 POP JUMP JUMPDEST PUSH1 0x0 PUSH1 0x20 DUP3 ADD SWAP1 POP DUP2 DUP2 SUB PUSH1 0x0 DUP4 ADD MSTORE PUSH2 0x3F63 DUP2 PUSH2 0x3A92 JUMP JUMPDEST SWAP1 POP SWAP2 SWAP1 POP JUMP JUMPDEST PUSH1 0x0 PUSH1 0x20 DUP3 ADD SWAP1 POP PUSH2 0x3F7F PUSH1 0x0 DUP4 ADD DUP5 PUSH2 0x3AC4 JUMP JUMPDEST SWAP3 SWAP2 POP POP JUMP JUMPDEST PUSH1 0x0 PUSH1 0x40 DUP3 ADD SWAP1 POP PUSH2 0x3F9A PUSH1 0x0 DUP4 ADD DUP6 PUSH2 0x3AC4 JUMP JUMPDEST PUSH2 0x3FA7 PUSH1 0x20 DUP4 ADD DUP5 PUSH2 0x3AC4 JUMP JUMPDEST SWAP4 SWAP3 POP POP POP JUMP JUMPDEST PUSH1 0x0 PUSH2 0x3FB8 PUSH2 0x3FC9 JUMP JUMPDEST SWAP1 POP PUSH2 0x3FC4 DUP3 DUP3 PUSH2 0x428D JUMP JUMPDEST SWAP2 SWAP1 POP JUMP JUMPDEST PUSH1 0x0 PUSH1 0x40 MLOAD SWAP1 POP SWAP1 JUMP JUMPDEST PUSH1 0x0 PUSH8 0xFFFFFFFFFFFFFFFF DUP3 GT ISZERO PUSH2 0x3FEE JUMPI PUSH2 0x3FED PUSH2 0x4394 JUMP JUMPDEST JUMPDEST PUSH1 0x20 DUP3 MUL SWAP1 POP PUSH1 0x20 DUP2 ADD SWAP1 POP SWAP2 SWAP1 POP JUMP JUMPDEST PUSH1 0x0 PUSH8 0xFFFFFFFFFFFFFFFF DUP3 GT ISZERO PUSH2 0x401A JUMPI PUSH2 0x4019 PUSH2 0x4394 JUMP JUMPDEST JUMPDEST PUSH1 0x20 DUP3 MUL SWAP1 POP PUSH1 0x20 DUP2 ADD SWAP1 POP SWAP2 SWAP1 POP JUMP JUMPDEST PUSH1 0x0 PUSH8 0xFFFFFFFFFFFFFFFF DUP3 GT ISZERO PUSH2 0x4046 JUMPI PUSH2 0x4045 PUSH2 0x4394 JUMP JUMPDEST JUMPDEST PUSH2 0x404F DUP3 PUSH2 0x43FE JUMP JUMPDEST SWAP1 POP PUSH1 0x20 DUP2 ADD SWAP1 POP SWAP2 SWAP1 POP JUMP JUMPDEST PUSH1 0x0 PUSH8 0xFFFFFFFFFFFFFFFF DUP3 GT ISZERO PUSH2 0x4077 JUMPI PUSH2 0x4076 PUSH2 0x4394 JUMP JUMPDEST JUMPDEST PUSH2 0x4080 DUP3 PUSH2 0x43FE JUMP JUMPDEST SWAP1 POP PUSH1 0x20 DUP2 ADD SWAP1 POP SWAP2 SWAP1 POP JUMP JUMPDEST PUSH1 0x0 DUP2 SWAP1 POP PUSH1 0x20 DUP3 ADD SWAP1 POP SWAP2 SWAP1 POP JUMP JUMPDEST PUSH1 0x0 DUP2 MLOAD SWAP1 POP SWAP2 SWAP1 POP JUMP JUMPDEST PUSH1 0x0 DUP2 MLOAD SWAP1 POP SWAP2 SWAP1 POP JUMP JUMPDEST PUSH1 0x0 DUP2 MLOAD SWAP1 POP SWAP2 SWAP1 POP JUMP JUMPDEST PUSH1 0x0 PUSH1 0x20 DUP3 ADD SWAP1 POP SWAP2 SWAP1 POP JUMP JUMPDEST PUSH1 0x0 DUP3 DUP3 MSTORE PUSH1 0x20 DUP3 ADD SWAP1 POP SWAP3 SWAP2 POP POP JUMP JUMPDEST PUSH1 0x0 DUP3 DUP3 MSTORE PUSH1 0x20 DUP3 ADD SWAP1 POP SWAP3 SWAP2 POP POP JUMP JUMPDEST PUSH1 0x0 DUP3 DUP3 MSTORE PUSH1 0x20 DUP3 ADD SWAP1 POP SWAP3 SWAP2 POP POP JUMP JUMPDEST PUSH1 0x0 DUP2 SWAP1 POP SWAP3 SWAP2 POP POP JUMP JUMPDEST PUSH1 0x0 PUSH2 0x4114 DUP3 PUSH2 0x41FD JUMP JUMPDEST SWAP2 POP PUSH2 0x411F DUP4 PUSH2 0x41FD JUMP JUMPDEST SWAP3 POP DUP3 PUSH32 0xFFFFFFFFFFFFFFFFFFFFFFFFFFFFFFFFFFFFFFFFFFFFFFFFFFFFFFFFFFFFFFFF SUB DUP3 GT ISZERO PUSH2 0x4154 JUMPI PUSH2 0x4153 PUSH2 0x4307 JUMP JUMPDEST JUMPDEST DUP3 DUP3 ADD SWAP1 POP SWAP3 SWAP2 POP POP JUMP JUMPDEST PUSH1 0x0 PUSH2 0x416A DUP3 PUSH2 0x41FD JUMP JUMPDEST SWAP2 POP PUSH2 0x4175 DUP4 PUSH2 0x41FD JUMP JUMPDEST SWAP3 POP DUP3 DUP3 LT ISZERO PUSH2 0x4188 JUMPI PUSH2 0x4187 PUSH2 0x4307 JUMP JUMPDEST JUMPDEST DUP3 DUP3 SUB SWAP1 POP SWAP3 SWAP2 POP POP JUMP JUMPDEST PUSH1 0x0 PUSH2 0x419E DUP3 PUSH2 0x41DD JUMP JUMPDEST SWAP1 POP SWAP2 SWAP1 POP JUMP JUMPDEST PUSH1 0x0 DUP2 ISZERO ISZERO SWAP1 POP SWAP2 SWAP1 POP JUMP JUMPDEST PUSH1 0x0 PUSH32 0xFFFFFFFF00000000000000000000000000000000000000000000000000000000 DUP3 AND SWAP1 POP SWAP2 SWAP1 POP JUMP JUMPDEST PUSH1 0x0 PUSH20 0xFFFFFFFFFFFFFFFFFFFFFFFFFFFFFFFFFFFFFFFF DUP3 AND SWAP1 POP SWAP2 SWAP1 POP JUMP JUMPDEST PUSH1 0x0 DUP2 SWAP1 POP SWAP2 SWAP1 POP JUMP JUMPDEST PUSH1 0x0 PUSH2 0x4212 DUP3 PUSH2 0x41FD JUMP JUMPDEST SWAP1 POP SWAP2 SWAP1 POP JUMP JUMPDEST DUP3 DUP2 DUP4 CALLDATACOPY PUSH1 0x0 DUP4 DUP4 ADD MSTORE POP POP POP JUMP JUMPDEST PUSH1 0x0 JUMPDEST DUP4 DUP2 LT ISZERO PUSH2 0x4246 JUMPI DUP1 DUP3 ADD MLOAD DUP2 DUP5 ADD MSTORE PUSH1 0x20 DUP2 ADD SWAP1 POP PUSH2 0x422B JUMP JUMPDEST DUP4 DUP2 GT ISZERO PUSH2 0x4255 JUMPI PUSH1 0x0 DUP5 DUP5 ADD MSTORE JUMPDEST POP POP POP POP JUMP JUMPDEST PUSH1 0x0 PUSH1 0x2 DUP3 DIV SWAP1 POP PUSH1 0x1 DUP3 AND DUP1 PUSH2 0x4273 JUMPI PUSH1 0x7F DUP3 AND SWAP2 POP JUMPDEST PUSH1 0x20 DUP3 LT DUP2 EQ ISZERO PUSH2 0x4287 JUMPI PUSH2 0x4286 PUSH2 0x4336 JUMP JUMPDEST JUMPDEST POP SWAP2 SWAP1 POP JUMP JUMPDEST PUSH2 0x4296 DUP3 PUSH2 0x43FE JUMP JUMPDEST DUP2 ADD DUP2 DUP2 LT PUSH8 0xFFFFFFFFFFFFFFFF DUP3 GT OR ISZERO PUSH2 0x42B5 JUMPI PUSH2 0x42B4 PUSH2 0x4394 JUMP JUMPDEST JUMPDEST DUP1 PUSH1 0x40 MSTORE POP POP POP JUMP JUMPDEST PUSH1 0x0 PUSH2 0x42C9 DUP3 PUSH2 0x41FD JUMP JUMPDEST SWAP2 POP PUSH32 0xFFFFFFFFFFFFFFFFFFFFFFFFFFFFFFFFFFFFFFFFFFFFFFFFFFFFFFFFFFFFFFFF DUP3 EQ ISZERO PUSH2 0x42FC JUMPI PUSH2 0x42FB PUSH2 0x4307 JUMP JUMPDEST JUMPDEST PUSH1 0x1 DUP3 ADD SWAP1 POP SWAP2 SWAP1 POP JUMP JUMPDEST PUSH32 0x4E487B7100000000000000000000000000000000000000000000000000000000 PUSH1 0x0 MSTORE PUSH1 0x11 PUSH1 0x4 MSTORE PUSH1 0x24 PUSH1 0x0 REVERT JUMPDEST PUSH32 0x4E487B7100000000000000000000000000000000000000000000000000000000 PUSH1 0x0 MSTORE PUSH1 0x22 PUSH1 0x4 MSTORE PUSH1 0x24 PUSH1 0x0 REVERT JUMPDEST PUSH32 0x4E487B7100000000000000000000000000000000000000000000000000000000 PUSH1 0x0 MSTORE PUSH1 0x32 PUSH1 0x4 MSTORE PUSH1 0x24 PUSH1 0x0 REVERT JUMPDEST PUSH32 0x4E487B7100000000000000000000000000000000000000000000000000000000 PUSH1 0x0 MSTORE PUSH1 0x41 PUSH1 0x4 MSTORE PUSH1 0x24 PUSH1 0x0 REVERT JUMPDEST PUSH1 0x0 PUSH1 0x3 RETURNDATASIZE GT ISZERO PUSH2 0x43E2 JUMPI PUSH1 0x4 PUSH1 0x0 DUP1 RETURNDATACOPY PUSH2 0x43DF PUSH1 0x0 MLOAD PUSH2 0x440F JUMP JUMPDEST SWAP1 POP JUMPDEST SWAP1 JUMP JUMPDEST PUSH1 0x0 DUP1 REVERT JUMPDEST PUSH1 0x0 DUP1 REVERT JUMPDEST PUSH1 0x0 DUP1 REVERT JUMPDEST PUSH1 0x0 DUP1 REVERT JUMPDEST PUSH1 0x0 DUP1 REVERT JUMPDEST PUSH1 0x0 PUSH1 0x1F NOT PUSH1 0x1F DUP4 ADD AND SWAP1 POP SWAP2 SWAP1 POP JUMP JUMPDEST PUSH1 0x0 DUP2 PUSH1 0xE0 SHR SWAP1 POP SWAP2 SWAP1 POP JUMP JUMPDEST PUSH32 0x455243313135353A207472616E7366657220746F206E6F6E2045524331313535 PUSH1 0x0 DUP3 ADD MSTORE PUSH32 0x526563656976657220696D706C656D656E746572000000000000000000000000 PUSH1 0x20 DUP3 ADD MSTORE POP JUMP JUMPDEST PUSH32 0x455243313135353A204552433131353552656365697665722072656A65637465 PUSH1 0x0 DUP3 ADD MSTORE PUSH32 0x6420746F6B656E73000000000000000000000000000000000000000000000000 PUSH1 0x20 DUP3 ADD MSTORE POP JUMP JUMPDEST PUSH32 0x5061757361626C653A206E6F7420706175736564000000000000000000000000 PUSH1 0x0 DUP3 ADD MSTORE POP JUMP JUMPDEST PUSH32 0x455243313135353A2062616C616E636520717565727920666F7220746865207A PUSH1 0x0 DUP3 ADD MSTORE PUSH32 0x65726F2061646472657373000000000000000000000000000000000000000000 PUSH1 0x20 DUP3 ADD MSTORE POP JUMP JUMPDEST PUSH32 0x4F776E61626C653A206E6577206F776E657220697320746865207A65726F2061 PUSH1 0x0 DUP3 ADD MSTORE PUSH32 0x6464726573730000000000000000000000000000000000000000000000000000 PUSH1 0x20 DUP3 ADD MSTORE POP JUMP JUMPDEST PUSH32 0x455243313135353A206275726E20616D6F756E7420657863656564732062616C PUSH1 0x0 DUP3 ADD MSTORE PUSH32 0x616E636500000000000000000000000000000000000000000000000000000000 PUSH1 0x20 DUP3 ADD MSTORE POP JUMP JUMPDEST PUSH32 0x455243313135353A2063616C6C6572206973206E6F74206F776E6572206E6F72 PUSH1 0x0 DUP3 ADD MSTORE PUSH32 0x20617070726F7665640000000000000000000000000000000000000000000000 PUSH1 0x20 DUP3 ADD MSTORE POP JUMP JUMPDEST PUSH32 0x5061757361626C653A2070617573656400000000000000000000000000000000 PUSH1 0x0 DUP3 ADD MSTORE POP JUMP JUMPDEST PUSH32 0x455243313135353A207472616E7366657220746F20746865207A65726F206164 PUSH1 0x0 DUP3 ADD MSTORE PUSH32 0x6472657373000000000000000000000000000000000000000000000000000000 PUSH1 0x20 DUP3 ADD MSTORE POP JUMP JUMPDEST PUSH32 0x455243313135353A207472616E736665722063616C6C6572206973206E6F7420 PUSH1 0x0 DUP3 ADD MSTORE PUSH32 0x6F776E6572206E6F7220617070726F7665640000000000000000000000000000 PUSH1 0x20 DUP3 ADD MSTORE POP JUMP JUMPDEST PUSH32 0x455243313135353A206275726E2066726F6D20746865207A65726F2061646472 PUSH1 0x0 DUP3 ADD MSTORE PUSH32 0x6573730000000000000000000000000000000000000000000000000000000000 PUSH1 0x20 DUP3 ADD MSTORE POP JUMP JUMPDEST PUSH32 0x455243313135353A20696E73756666696369656E742062616C616E636520666F PUSH1 0x0 DUP3 ADD MSTORE PUSH32 0x72207472616E7366657200000000000000000000000000000000000000000000 PUSH1 0x20 DUP3 ADD MSTORE POP JUMP JUMPDEST PUSH32 0x4F776E61626C653A2063616C6C6572206973206E6F7420746865206F776E6572 PUSH1 0x0 DUP3 ADD MSTORE POP JUMP JUMPDEST PUSH32 0x7B69647D00000000000000000000000000000000000000000000000000000000 PUSH1 0x0 DUP3 ADD MSTORE POP JUMP JUMPDEST PUSH32 0x455243313135353A2073657474696E6720617070726F76616C20737461747573 PUSH1 0x0 DUP3 ADD MSTORE PUSH32 0x20666F722073656C660000000000000000000000000000000000000000000000 PUSH1 0x20 DUP3 ADD MSTORE POP JUMP JUMPDEST PUSH32 0x455243313135353A206163636F756E747320616E6420696473206C656E677468 PUSH1 0x0 DUP3 ADD MSTORE PUSH32 0x206D69736D617463680000000000000000000000000000000000000000000000 PUSH1 0x20 DUP3 ADD MSTORE POP JUMP JUMPDEST PUSH32 0x455243313135353A2069647320616E6420616D6F756E7473206C656E67746820 PUSH1 0x0 DUP3 ADD MSTORE PUSH32 0x6D69736D61746368000000000000000000000000000000000000000000000000 PUSH1 0x20 DUP3 ADD MSTORE POP JUMP JUMPDEST PUSH32 0x455243313135353A206D696E7420746F20746865207A65726F20616464726573 PUSH1 0x0 DUP3 ADD MSTORE PUSH32 0x7300000000000000000000000000000000000000000000000000000000000000 PUSH1 0x20 DUP3 ADD MSTORE POP JUMP JUMPDEST PUSH1 0x0 PUSH1 0x44 RETURNDATASIZE LT ISZERO PUSH2 0x4922 JUMPI PUSH2 0x49A5 JUMP JUMPDEST PUSH2 0x492A PUSH2 0x3FC9 JUMP JUMPDEST PUSH1 0x4 RETURNDATASIZE SUB PUSH1 0x4 DUP3 RETURNDATACOPY DUP1 MLOAD RETURNDATASIZE PUSH1 0x24 DUP3 ADD GT PUSH8 0xFFFFFFFFFFFFFFFF DUP3 GT OR ISZERO PUSH2 0x4952 JUMPI POP POP PUSH2 0x49A5 JUMP JUMPDEST DUP1 DUP3 ADD DUP1 MLOAD PUSH8 0xFFFFFFFFFFFFFFFF DUP2 GT ISZERO PUSH2 0x4970 JUMPI POP POP POP POP PUSH2 0x49A5 JUMP JUMPDEST DUP1 PUSH1 0x20 DUP4 ADD ADD PUSH1 0x4 RETURNDATASIZE SUB DUP6 ADD DUP2 GT ISZERO PUSH2 0x498D JUMPI POP POP POP POP POP PUSH2 0x49A5 JUMP JUMPDEST PUSH2 0x499C DUP3 PUSH1 0x20 ADD DUP6 ADD DUP7 PUSH2 0x428D JUMP JUMPDEST DUP3 SWAP6 POP POP POP POP POP POP JUMPDEST SWAP1 JUMP JUMPDEST PUSH2 0x49B1 DUP2 PUSH2 0x4193 JUMP JUMPDEST DUP2 EQ PUSH2 0x49BC JUMPI PUSH1 0x0 DUP1 REVERT JUMPDEST POP JUMP JUMPDEST PUSH2 0x49C8 DUP2 PUSH2 0x41A5 JUMP JUMPDEST DUP2 EQ PUSH2 0x49D3 JUMPI PUSH1 0x0 DUP1 REVERT JUMPDEST POP JUMP JUMPDEST PUSH2 0x49DF DUP2 PUSH2 0x41B1 JUMP JUMPDEST DUP2 EQ PUSH2 0x49EA JUMPI PUSH1 0x0 DUP1 REVERT JUMPDEST POP JUMP JUMPDEST PUSH2 0x49F6 DUP2 PUSH2 0x41FD JUMP JUMPDEST DUP2 EQ PUSH2 0x4A01 JUMPI PUSH1 0x0 DUP1 REVERT JUMPDEST POP JUMP INVALID LOG2 PUSH5 0x6970667358 0x22 SLT KECCAK256 ADDMOD DUP14 ADDMOD 0xC4 ADD 0xF7 PUSH11 0xA7C6EB824E9FD8064E6333 DUP15 BASEFEE 0x4F 0xD8 0xF9 SWAP9 DUP13 0x5D DUP16 DUP1 0xC3 0x26 0x5E SELFBALANCE PUSH5 0x736F6C6343 STOP ADDMOD SMOD STOP CALLER PUSH9 0x747470733A2F2F6D65 PUSH21 0x61707974686F6E2E6865726F6B756170702E636F6D 0x2F PUSH2 0x7069 0x2F PUSH3 0x6F782F "
		},
		"gasEstimates": {
			"creation": {
				"codeDepositCost": "3800400",
				"executionCost": "infinite",
				"totalCost": "infinite"
			},
			"external": {
				"MAX_MINTS()": "2518",
				"balanceOf(address,uint256)": "infinite",
				"balanceOfBatch(address[],uint256[])": "infinite",
				"burn(address,uint256,uint256)": "infinite",
				"burnBatch(address,uint256[],uint256[])": "infinite",
				"exists(uint256)": "2902",
				"forge(address,uint256[],uint256[],uint256,bytes)": "infinite",
				"isApprovedForAll(address,address)": "infinite",
				"mint(address,uint256,uint256,bytes)": "infinite",
				"mintBatch(address,uint256[],uint256[],bytes)": "infinite",
				"owner()": "2633",
				"pause()": "infinite",
				"paused()": "2618",
				"renounceOwnership()": "30397",
				"safeBatchTransferFrom(address,address,uint256[],uint256[],bytes)": "infinite",
				"safeTransferFrom(address,address,uint256,uint256,bytes)": "infinite",
				"setApprovalForAll(address,bool)": "infinite",
				"setMaxMints(uint256)": "24827",
				"setProxy(address)": "27095",
				"setTokenURI(uint256,string)": "infinite",
				"setURI(string)": "infinite",
				"supportsInterface(bytes4)": "819",
				"totalSupply(uint256)": "infinite",
				"transferOwnership(address)": "30811",
				"unpause()": "infinite",
				"uri(uint256)": "infinite"
			},
			"internal": {
				"_beforeTokenTransfer(address,address,address,uint256[] memory,uint256[] memory,bytes memory)": "infinite"
			}
		},
		"methodIdentifiers": {
			"MAX_MINTS()": "cce132d1",
			"balanceOf(address,uint256)": "00fdd58e",
			"balanceOfBatch(address[],uint256[])": "4e1273f4",
			"burn(address,uint256,uint256)": "f5298aca",
			"burnBatch(address,uint256[],uint256[])": "6b20c454",
			"exists(uint256)": "4f558e79",
			"forge(address,uint256[],uint256[],uint256,bytes)": "4f15787c",
			"isApprovedForAll(address,address)": "e985e9c5",
			"mint(address,uint256,uint256,bytes)": "731133e9",
			"mintBatch(address,uint256[],uint256[],bytes)": "1f7fdffa",
			"owner()": "8da5cb5b",
			"pause()": "8456cb59",
			"paused()": "5c975abb",
			"renounceOwnership()": "715018a6",
			"safeBatchTransferFrom(address,address,uint256[],uint256[],bytes)": "2eb2c2d6",
			"safeTransferFrom(address,address,uint256,uint256,bytes)": "f242432a",
			"setApprovalForAll(address,bool)": "a22cb465",
			"setMaxMints(uint256)": "79c9cb7b",
			"setProxy(address)": "97107d6d",
			"setTokenURI(uint256,string)": "162094c4",
			"setURI(string)": "02fe5305",
			"supportsInterface(bytes4)": "01ffc9a7",
			"totalSupply(uint256)": "bd85b039",
			"transferOwnership(address)": "f2fde38b",
			"unpause()": "3f4ba83a",
			"uri(uint256)": "0e89341c"
		}
	},
	"abi": [
		{
			"inputs": [],
			"stateMutability": "nonpayable",
			"type": "constructor"
		},
		{
			"anonymous": false,
			"inputs": [
				{
					"indexed": true,
					"internalType": "address",
					"name": "account",
					"type": "address"
				},
				{
					"indexed": true,
					"internalType": "address",
					"name": "operator",
					"type": "address"
				},
				{
					"indexed": false,
					"internalType": "bool",
					"name": "approved",
					"type": "bool"
				}
			],
			"name": "ApprovalForAll",
			"type": "event"
		},
		{
			"anonymous": false,
			"inputs": [
				{
					"indexed": false,
					"internalType": "address",
					"name": "to",
					"type": "address"
				},
				{
					"indexed": false,
					"internalType": "uint256",
					"name": "tokenId",
					"type": "uint256"
				},
				{
					"indexed": false,
					"internalType": "uint256",
					"name": "amount",
					"type": "uint256"
				}
			],
			"name": "Minted",
			"type": "event"
		},
		{
			"anonymous": false,
			"inputs": [
				{
					"indexed": false,
					"internalType": "address",
					"name": "to",
					"type": "address"
				},
				{
					"indexed": false,
					"internalType": "uint256[]",
					"name": "ids",
					"type": "uint256[]"
				},
				{
					"indexed": false,
					"internalType": "uint256[]",
					"name": "amounts",
					"type": "uint256[]"
				}
			],
			"name": "MintedBatch",
			"type": "event"
		},
		{
			"anonymous": false,
			"inputs": [
				{
					"indexed": true,
					"internalType": "address",
					"name": "previousOwner",
					"type": "address"
				},
				{
					"indexed": true,
					"internalType": "address",
					"name": "newOwner",
					"type": "address"
				}
			],
			"name": "OwnershipTransferred",
			"type": "event"
		},
		{
			"anonymous": false,
			"inputs": [
				{
					"indexed": false,
					"internalType": "address",
					"name": "account",
					"type": "address"
				}
			],
			"name": "Paused",
			"type": "event"
		},
		{
			"anonymous": false,
			"inputs": [
				{
					"indexed": true,
					"internalType": "address",
					"name": "operator",
					"type": "address"
				},
				{
					"indexed": true,
					"internalType": "address",
					"name": "from",
					"type": "address"
				},
				{
					"indexed": true,
					"internalType": "address",
					"name": "to",
					"type": "address"
				},
				{
					"indexed": false,
					"internalType": "uint256[]",
					"name": "ids",
					"type": "uint256[]"
				},
				{
					"indexed": false,
					"internalType": "uint256[]",
					"name": "values",
					"type": "uint256[]"
				}
			],
			"name": "TransferBatch",
			"type": "event"
		},
		{
			"anonymous": false,
			"inputs": [
				{
					"indexed": true,
					"internalType": "address",
					"name": "operator",
					"type": "address"
				},
				{
					"indexed": true,
					"internalType": "address",
					"name": "from",
					"type": "address"
				},
				{
					"indexed": true,
					"internalType": "address",
					"name": "to",
					"type": "address"
				},
				{
					"indexed": false,
					"internalType": "uint256",
					"name": "id",
					"type": "uint256"
				},
				{
					"indexed": false,
					"internalType": "uint256",
					"name": "value",
					"type": "uint256"
				}
			],
			"name": "TransferSingle",
			"type": "event"
		},
		{
			"anonymous": false,
			"inputs": [
				{
					"indexed": false,
					"internalType": "string",
					"name": "value",
					"type": "string"
				},
				{
					"indexed": true,
					"internalType": "uint256",
					"name": "id",
					"type": "uint256"
				}
			],
			"name": "URI",
			"type": "event"
		},
		{
			"anonymous": false,
			"inputs": [
				{
					"indexed": false,
					"internalType": "address",
					"name": "account",
					"type": "address"
				}
			],
			"name": "Unpaused",
			"type": "event"
		},
		{
			"inputs": [],
			"name": "MAX_MINTS",
			"outputs": [
				{
					"internalType": "uint256",
					"name": "",
					"type": "uint256"
				}
			],
			"stateMutability": "view",
			"type": "function"
		},
		{
			"inputs": [
				{
					"internalType": "address",
					"name": "account",
					"type": "address"
				},
				{
					"internalType": "uint256",
					"name": "id",
					"type": "uint256"
				}
			],
			"name": "balanceOf",
			"outputs": [
				{
					"internalType": "uint256",
					"name": "",
					"type": "uint256"
				}
			],
			"stateMutability": "view",
			"type": "function"
		},
		{
			"inputs": [
				{
					"internalType": "address[]",
					"name": "accounts",
					"type": "address[]"
				},
				{
					"internalType": "uint256[]",
					"name": "ids",
					"type": "uint256[]"
				}
			],
			"name": "balanceOfBatch",
			"outputs": [
				{
					"internalType": "uint256[]",
					"name": "",
					"type": "uint256[]"
				}
			],
			"stateMutability": "view",
			"type": "function"
		},
		{
			"inputs": [
				{
					"internalType": "address",
					"name": "account",
					"type": "address"
				},
				{
					"internalType": "uint256",
					"name": "id",
					"type": "uint256"
				},
				{
					"internalType": "uint256",
					"name": "value",
					"type": "uint256"
				}
			],
			"name": "burn",
			"outputs": [],
			"stateMutability": "nonpayable",
			"type": "function"
		},
		{
			"inputs": [
				{
					"internalType": "address",
					"name": "account",
					"type": "address"
				},
				{
					"internalType": "uint256[]",
					"name": "ids",
					"type": "uint256[]"
				},
				{
					"internalType": "uint256[]",
					"name": "values",
					"type": "uint256[]"
				}
			],
			"name": "burnBatch",
			"outputs": [],
			"stateMutability": "nonpayable",
			"type": "function"
		},
		{
			"inputs": [
				{
					"internalType": "uint256",
					"name": "id",
					"type": "uint256"
				}
			],
			"name": "exists",
			"outputs": [
				{
					"internalType": "bool",
					"name": "",
					"type": "bool"
				}
			],
			"stateMutability": "view",
			"type": "function"
		},
		{
			"inputs": [
				{
					"internalType": "address",
					"name": "account",
					"type": "address"
				},
				{
					"internalType": "uint256[]",
					"name": "ids",
					"type": "uint256[]"
				},
				{
					"internalType": "uint256[]",
					"name": "amounts",
					"type": "uint256[]"
				},
				{
					"internalType": "uint256",
					"name": "id",
					"type": "uint256"
				},
				{
					"internalType": "bytes",
					"name": "data",
					"type": "bytes"
				}
			],
			"name": "forge",
			"outputs": [],
			"stateMutability": "nonpayable",
			"type": "function"
		},
		{
			"inputs": [
				{
					"internalType": "address",
					"name": "_owner",
					"type": "address"
				},
				{
					"internalType": "address",
					"name": "_operator",
					"type": "address"
				}
			],
			"name": "isApprovedForAll",
			"outputs": [
				{
					"internalType": "bool",
					"name": "isOperator",
					"type": "bool"
				}
			],
			"stateMutability": "view",
			"type": "function"
		},
		{
			"inputs": [
				{
					"internalType": "address",
					"name": "account",
					"type": "address"
				},
				{
					"internalType": "uint256",
					"name": "id",
					"type": "uint256"
				},
				{
					"internalType": "uint256",
					"name": "amount",
					"type": "uint256"
				},
				{
					"internalType": "bytes",
					"name": "data",
					"type": "bytes"
				}
			],
			"name": "mint",
			"outputs": [],
			"stateMutability": "nonpayable",
			"type": "function"
		},
		{
			"inputs": [
				{
					"internalType": "address",
					"name": "to",
					"type": "address"
				},
				{
					"internalType": "uint256[]",
					"name": "ids",
					"type": "uint256[]"
				},
				{
					"internalType": "uint256[]",
					"name": "amounts",
					"type": "uint256[]"
				},
				{
					"internalType": "bytes",
					"name": "data",
					"type": "bytes"
				}
			],
			"name": "mintBatch",
			"outputs": [],
			"stateMutability": "nonpayable",
			"type": "function"
		},
		{
			"inputs": [],
			"name": "owner",
			"outputs": [
				{
					"internalType": "address",
					"name": "",
					"type": "address"
				}
			],
			"stateMutability": "view",
			"type": "function"
		},
		{
			"inputs": [],
			"name": "pause",
			"outputs": [],
			"stateMutability": "nonpayable",
			"type": "function"
		},
		{
			"inputs": [],
			"name": "paused",
			"outputs": [
				{
					"internalType": "bool",
					"name": "",
					"type": "bool"
				}
			],
			"stateMutability": "view",
			"type": "function"
		},
		{
			"inputs": [],
			"name": "renounceOwnership",
			"outputs": [],
			"stateMutability": "nonpayable",
			"type": "function"
		},
		{
			"inputs": [
				{
					"internalType": "address",
					"name": "from",
					"type": "address"
				},
				{
					"internalType": "address",
					"name": "to",
					"type": "address"
				},
				{
					"internalType": "uint256[]",
					"name": "ids",
					"type": "uint256[]"
				},
				{
					"internalType": "uint256[]",
					"name": "amounts",
					"type": "uint256[]"
				},
				{
					"internalType": "bytes",
					"name": "data",
					"type": "bytes"
				}
			],
			"name": "safeBatchTransferFrom",
			"outputs": [],
			"stateMutability": "nonpayable",
			"type": "function"
		},
		{
			"inputs": [
				{
					"internalType": "address",
					"name": "from",
					"type": "address"
				},
				{
					"internalType": "address",
					"name": "to",
					"type": "address"
				},
				{
					"internalType": "uint256",
					"name": "id",
					"type": "uint256"
				},
				{
					"internalType": "uint256",
					"name": "amount",
					"type": "uint256"
				},
				{
					"internalType": "bytes",
					"name": "data",
					"type": "bytes"
				}
			],
			"name": "safeTransferFrom",
			"outputs": [],
			"stateMutability": "nonpayable",
			"type": "function"
		},
		{
			"inputs": [
				{
					"internalType": "address",
					"name": "operator",
					"type": "address"
				},
				{
					"internalType": "bool",
					"name": "approved",
					"type": "bool"
				}
			],
			"name": "setApprovalForAll",
			"outputs": [],
			"stateMutability": "nonpayable",
			"type": "function"
		},
		{
			"inputs": [
				{
					"internalType": "uint256",
					"name": "max_mints",
					"type": "uint256"
				}
			],
			"name": "setMaxMints",
			"outputs": [],
			"stateMutability": "nonpayable",
			"type": "function"
		},
		{
			"inputs": [
				{
					"internalType": "address",
					"name": "_proxyAddress",
					"type": "address"
				}
			],
			"name": "setProxy",
			"outputs": [],
			"stateMutability": "nonpayable",
			"type": "function"
		},
		{
			"inputs": [
				{
					"internalType": "uint256",
					"name": "tokenId",
					"type": "uint256"
				},
				{
					"internalType": "string",
					"name": "_tokenURI",
					"type": "string"
				}
			],
			"name": "setTokenURI",
			"outputs": [],
			"stateMutability": "nonpayable",
			"type": "function"
		},
		{
			"inputs": [
				{
					"internalType": "string",
					"name": "newuri",
					"type": "string"
				}
			],
			"name": "setURI",
			"outputs": [],
			"stateMutability": "nonpayable",
			"type": "function"
		},
		{
			"inputs": [
				{
					"internalType": "bytes4",
					"name": "interfaceId",
					"type": "bytes4"
				}
			],
			"name": "supportsInterface",
			"outputs": [
				{
					"internalType": "bool",
					"name": "",
					"type": "bool"
				}
			],
			"stateMutability": "view",
			"type": "function"
		},
		{
			"inputs": [
				{
					"internalType": "uint256",
					"name": "id",
					"type": "uint256"
				}
			],
			"name": "totalSupply",
			"outputs": [
				{
					"internalType": "uint256",
					"name": "",
					"type": "uint256"
				}
			],
			"stateMutability": "view",
			"type": "function"
		},
		{
			"inputs": [
				{
					"internalType": "address",
					"name": "newOwner",
					"type": "address"
				}
			],
			"name": "transferOwnership",
			"outputs": [],
			"stateMutability": "nonpayable",
			"type": "function"
		},
		{
			"inputs": [],
			"name": "unpause",
			"outputs": [],
			"stateMutability": "nonpayable",
			"type": "function"
		},
		{
			"inputs": [
				{
					"internalType": "uint256",
					"name": "tokenId",
					"type": "uint256"
				}
			],
			"name": "uri",
			"outputs": [
				{
					"internalType": "string",
					"name": "",
					"type": "string"
				}
			],
			"stateMutability": "view",
			"type": "function"
		}
	]
}