{
	"data": {
		"bytecode": {
			"linkReferences": {},
			"object": "60806040526040518060600160405280602b815260200162005db7602b91396006908051906020019062000035929190620001f7565b506203200060075573f57b2c51ded3a29e6891aba85459d600256cf317600860006101000a81548173ffffffffffffffffffffffffffffffffffffffff021916908373ffffffffffffffffffffffffffffffffffffffff1602179055503480156200009f57600080fd5b5060405180606001604052806029815260200162005de260299139620000cb816200010d60201b60201c565b50620000ec620000e06200012960201b60201c565b6200013160201b60201c565b6000600360146101000a81548160ff0219169083151502179055506200030c565b806002908051906020019062000125929190620001f7565b5050565b600033905090565b6000600360009054906101000a900473ffffffffffffffffffffffffffffffffffffffff16905081600360006101000a81548173ffffffffffffffffffffffffffffffffffffffff021916908373ffffffffffffffffffffffffffffffffffffffff1602179055508173ffffffffffffffffffffffffffffffffffffffff168173ffffffffffffffffffffffffffffffffffffffff167f8be0079c531659141344cd1fd0a4f28419497f9722a3daafe3b4186f6b6457e060405160405180910390a35050565b8280546200020590620002a7565b90600052602060002090601f01602090048101928262000229576000855562000275565b82601f106200024457805160ff191683800117855562000275565b8280016001018555821562000275579182015b828111156200027457825182559160200191906001019062000257565b5b50905062000284919062000288565b5090565b5b80821115620002a357600081600090555060010162000289565b5090565b60006002820490506001821680620002c057607f821691505b60208210811415620002d757620002d6620002dd565b5b50919050565b7f4e487b7100000000000000000000000000000000000000000000000000000000600052602260045260246000fd5b615a9b806200031c6000396000f3fe608060405234801561001057600080fd5b50600436106101d95760003560e01c8063731133e911610104578063ab326598116100a2578063e985e9c511610071578063e985e9c514610500578063f242432a14610530578063f2fde38b1461054c578063f5298aca14610568576101d9565b8063ab32659814610478578063bd85b03914610494578063cce132d1146104c4578063e8a3d485146104e2576101d9565b80638456cb59116100de5780638456cb59146104185780638da5cb5b1461042257806397107d6d14610440578063a22cb4651461045c576101d9565b8063731133e9146103c457806374cded02146103e057806379c9cb7b146103fc576101d9565b806330e995a61161017c5780635a7256c71161014b5780635a7256c7146103645780635c975abb146103805780636b20c4541461039e578063715018a6146103ba576101d9565b806330e995a6146102de5780633f4ba83a146102fa5780634e1273f4146103045780634f558e7914610334576101d9565b80630e89341c116101b85780630e89341c1461025a578063162094c41461028a5780631f7fdffa146102a65780632eb2c2d6146102c2576101d9565b8062fdd58e146101de57806301ffc9a71461020e57806302fe53051461023e575b600080fd5b6101f860048036038101906101f39190613cdf565b610584565b6040516102059190614b59565b60405180910390f35b61022860048036038101906102239190613edc565b61064d565b60405161023591906147dc565b60405180910390f35b61025860048036038101906102539190613f36565b61072f565b005b610274600480360381019061026f9190613fdb565b6107b7565b60405161028191906147f7565b60405180910390f35b6102a4600480360381019061029f9190614008565b6107c9565b005b6102c060048036038101906102bb9190613b59565b610853565b005b6102dc60048036038101906102d79190613968565b6109f7565b005b6102f860048036038101906102f39190613f36565b610a98565b005b610302610b2e565b005b61031e60048036038101906103199190613e64565b610bb4565b60405161032b9190614783565b60405180910390f35b61034e60048036038101906103499190613fdb565b610ccd565b60405161035b91906147dc565b60405180910390f35b61037e60048036038101906103799190613f7f565b610ce1565b005b610388610d99565b60405161039591906147dc565b60405180910390f35b6103b860048036038101906103b39190613ace565b610db0565b005b6103c2610e4d565b005b6103de60048036038101906103d99190613de1565b610ed5565b005b6103fa60048036038101906103f59190613d1f565b611025565b005b61041660048036038101906104119190613fdb565b6112b2565b005b610420611338565b005b61042a6113be565b60405161043791906145ca565b60405180910390f35b61045a600480360381019061045591906138fb565b6113e8565b005b61047660048036038101906104719190613c9f565b6114a8565b005b610492600480360381019061048d9190613c14565b6114be565b005b6104ae60048036038101906104a99190613fdb565b611770565b6040516104bb9190614b59565b60405180910390f35b6104cc61178d565b6040516104d99190614b59565b60405180910390f35b6104ea611793565b6040516104f791906147f7565b60405180910390f35b61051a60048036038101906105159190613928565b611825565b60405161052791906147dc565b60405180910390f35b61054a60048036038101906105459190613a37565b611899565b005b610566600480360381019061056191906138fb565b61193a565b005b610582600480360381019061057d9190613d8e565b611a32565b005b60008073ffffffffffffffffffffffffffffffffffffffff168373ffffffffffffffffffffffffffffffffffffffff1614156105f5576040517f08c379a00000000000000000000000000000000000000000000000000000000081526004016105ec90614899565b60405180910390fd5b60008083815260200190815260200160002060008473ffffffffffffffffffffffffffffffffffffffff1673ffffffffffffffffffffffffffffffffffffffff16815260200190815260200160002054905092915050565b60007fd9b67a26000000000000000000000000000000000000000000000000000000007bffffffffffffffffffffffffffffffffffffffffffffffffffffffff1916827bffffffffffffffffffffffffffffffffffffffffffffffffffffffff1916148061071857507f0e89341c000000000000000000000000000000000000000000000000000000007bffffffffffffffffffffffffffffffffffffffffffffffffffffffff1916827bffffffffffffffffffffffffffffffffffffffffffffffffffffffff1916145b80610728575061072782611acf565b5b9050919050565b610737611b39565b73ffffffffffffffffffffffffffffffffffffffff166107556113be565b73ffffffffffffffffffffffffffffffffffffffff16146107ab576040517f08c379a00000000000000000000000000000000000000000000000000000000081526004016107a290614a59565b60405180910390fd5b6107b481611b41565b50565b60606107c282611b5b565b9050919050565b6107d1611b39565b73ffffffffffffffffffffffffffffffffffffffff166107ef6113be565b73ffffffffffffffffffffffffffffffffffffffff1614610845576040517f08c379a000000000000000000000000000000000000000000000000000000000815260040161083c90614a59565b60405180910390fd5b61084f8282611ca4565b5050565b61085b611b39565b73ffffffffffffffffffffffffffffffffffffffff166108796113be565b73ffffffffffffffffffffffffffffffffffffffff16146108cf576040517f08c379a00000000000000000000000000000000000000000000000000000000081526004016108c690614a59565b60405180910390fd5b60005b83518110156109a95760008482815181106108f0576108ef6151b0565b5b602002602001015111610938576040517f08c379a000000000000000000000000000000000000000000000000000000000815260040161092f90614ab9565b60405180910390fd5b61271084828151811061094e5761094d6151b0565b5b602002602001015110610996576040517f08c379a000000000000000000000000000000000000000000000000000000000815260040161098d90614a39565b60405180910390fd5b80806109a1906150a9565b9150506108d2565b506109b684848484611cd0565b7f9d15fe863d6d778932c2425aab5de66f2fcc03f779b90c593d26ee152fbbe8718484846040516109e9939291906146a7565b60405180910390a150505050565b6109ff611b39565b73ffffffffffffffffffffffffffffffffffffffff168573ffffffffffffffffffffffffffffffffffffffff161480610a455750610a4485610a3f611b39565b611825565b5b610a84576040517f08c379a0000000000000000000000000000000000000000000000000000000008152600401610a7b906149d9565b60405180910390fd5b610a918585858585611eee565b5050505050565b610aa0611b39565b73ffffffffffffffffffffffffffffffffffffffff16610abe6113be565b73ffffffffffffffffffffffffffffffffffffffff1614610b14576040517f08c379a0000000000000000000000000000000000000000000000000000000008152600401610b0b90614a59565b60405180910390fd5b8060069080519060200190610b2a9291906135d3565b5050565b610b36611b39565b73ffffffffffffffffffffffffffffffffffffffff16610b546113be565b73ffffffffffffffffffffffffffffffffffffffff1614610baa576040517f08c379a0000000000000000000000000000000000000000000000000000000008152600401610ba190614a59565b60405180910390fd5b610bb2612202565b565b60608151835114610bfa576040517f08c379a0000000000000000000000000000000000000000000000000000000008152600401610bf190614af9565b60405180910390fd5b6000835167ffffffffffffffff811115610c1757610c166151df565b5b604051908082528060200260200182016040528015610c455781602001602082028036833780820191505090505b50905060005b8451811015610cc257610c92858281518110610c6a57610c696151b0565b5b6020026020010151858381518110610c8557610c846151b0565b5b6020026020010151610584565b828281518110610ca557610ca46151b0565b5b60200260200101818152505080610cbb906150a9565b9050610c4b565b508091505092915050565b600080610cd983611770565b119050919050565b610ce9611b39565b73ffffffffffffffffffffffffffffffffffffffff16610d076113be565b73ffffffffffffffffffffffffffffffffffffffff1614610d5d576040517f08c379a0000000000000000000000000000000000000000000000000000000008152600401610d5490614a59565b60405180910390fd5b807fa109ba539900bf1b633f956d63c96fc89b814c7287f7aa50a9216d0b5565720783604051610d8d91906147f7565b60405180910390a25050565b6000600360149054906101000a900460ff16905090565b610db8611b39565b73ffffffffffffffffffffffffffffffffffffffff168373ffffffffffffffffffffffffffffffffffffffff161480610dfe5750610dfd83610df8611b39565b611825565b5b610e3d576040517f08c379a0000000000000000000000000000000000000000000000000000000008152600401610e3490614939565b60405180910390fd5b610e488383836122a4565b505050565b610e55611b39565b73ffffffffffffffffffffffffffffffffffffffff16610e736113be565b73ffffffffffffffffffffffffffffffffffffffff1614610ec9576040517f08c379a0000000000000000000000000000000000000000000000000000000008152600401610ec090614a59565b60405180910390fd5b610ed36000612555565b565b610edd611b39565b73ffffffffffffffffffffffffffffffffffffffff16610efb6113be565b73ffffffffffffffffffffffffffffffffffffffff1614610f51576040517f08c379a0000000000000000000000000000000000000000000000000000000008152600401610f4890614a59565b60405180910390fd5b60008311610f94576040517f08c379a0000000000000000000000000000000000000000000000000000000008152600401610f8b90614ab9565b60405180910390fd5b6127108310610fd8576040517f08c379a0000000000000000000000000000000000000000000000000000000008152600401610fcf90614a39565b60405180910390fd5b610fe48484848461261b565b7f25b428dfde728ccfaddad7e29e4ac23c24ed7fd1a6e3e3f91894a9a073f5dfff8484846040516110179392919061474c565b60405180910390a150505050565b6127108211611069576040517f08c379a000000000000000000000000000000000000000000000000000000000815260040161106090614999565b60405180910390fd5b60008290506000808490505b600081146110a0576127108161108b9190614d4e565b90508180611098906150a9565b925050611075565b600b82106110e3576040517f08c379a00000000000000000000000000000000000000000000000000000000081526004016110da90614919565b60405180910390fd5b6110ef868660016127b1565b60008267ffffffffffffffff81111561110b5761110a6151df565b5b6040519080825280602002602001820160405280156111395781602001602082028036833780820191505090505b50905060008367ffffffffffffffff811115611158576111576151df565b5b6040519080825280602002602001820160405280156111865781602001602082028036833780820191505090505b50905060005b8481101561126257612710886111a291906150f2565b8382815181106111b5576111b46151b0565b5b60200260200101818152505060008382815181106111d6576111d56151b0565b5b60200260200101511161121e576040517f08c379a0000000000000000000000000000000000000000000000000000000008152600401611215906148d9565b60405180910390fd5b6001828281518110611233576112326151b0565b5b6020026020010181815250506127108861124d9190614d4e565b9750808061125a906150a9565b91505061118c565b5061126f88838389611cd0565b7fe1665329182bc1dab50c9b04ea6bd37107b73ed7c585951d808b02cd9b65962788866040516112a09291906146ec565b60405180910390a15050505050505050565b6112ba611b39565b73ffffffffffffffffffffffffffffffffffffffff166112d86113be565b73ffffffffffffffffffffffffffffffffffffffff161461132e576040517f08c379a000000000000000000000000000000000000000000000000000000000815260040161132590614a59565b60405180910390fd5b8060078190555050565b611340611b39565b73ffffffffffffffffffffffffffffffffffffffff1661135e6113be565b73ffffffffffffffffffffffffffffffffffffffff16146113b4576040517f08c379a00000000000000000000000000000000000000000000000000000000081526004016113ab90614a59565b60405180910390fd5b6113bc6129ce565b565b6000600360009054906101000a900473ffffffffffffffffffffffffffffffffffffffff16905090565b6113f0611b39565b73ffffffffffffffffffffffffffffffffffffffff1661140e6113be565b73ffffffffffffffffffffffffffffffffffffffff1614611464576040517f08c379a000000000000000000000000000000000000000000000000000000000815260040161145b90614a59565b60405180910390fd5b80600860006101000a81548173ffffffffffffffffffffffffffffffffffffffff021916908373ffffffffffffffffffffffffffffffffffffffff16021790555050565b6114ba6114b3611b39565b8383612a71565b5050565b6001825111611502576040517f08c379a00000000000000000000000000000000000000000000000000000000081526004016114f990614959565b60405180910390fd5b600b825110611546576040517f08c379a000000000000000000000000000000000000000000000000000000000815260040161153d90614a99565b60405180910390fd5b600080835167ffffffffffffffff811115611564576115636151df565b5b6040519080825280602002602001820160405280156115925781602001602082028036833780820191505090505b50905060005b84518110156116d0576127108582815181106115b7576115b66151b0565b5b6020026020010151106115ff576040517f08c379a00000000000000000000000000000000000000000000000000000000081526004016115f690614a79565b60405180910390fd5b6000858281518110611614576116136151b0565b5b60200260200101511161165c576040517f08c379a0000000000000000000000000000000000000000000000000000000008152600401611653906148d9565b60405180910390fd5b8061271061166a9190614dd2565b85828151811061167d5761167c6151b0565b5b602002602001015161168f9190614ef0565b8361169a9190614cf8565b925060018282815181106116b1576116b06151b0565b5b60200260200101818152505080806116c8906150a9565b915050611598565b506127108211611715576040517f08c379a000000000000000000000000000000000000000000000000000000000815260040161170c90614879565b60405180910390fd5b6117208585836122a4565b61172d858360018661261b565b7f25b428dfde728ccfaddad7e29e4ac23c24ed7fd1a6e3e3f91894a9a073f5dfff8583600160405161176193929190614715565b60405180910390a15050505050565b600060046000838152602001908152602001600020549050919050565b60075481565b6060600680546117a290615046565b80601f01602080910402602001604051908101604052809291908181526020018280546117ce90615046565b801561181b5780601f106117f05761010080835404028352916020019161181b565b820191906000526020600020905b8154815290600101906020018083116117fe57829003601f168201915b5050505050905090565b6000600860009054906101000a900473ffffffffffffffffffffffffffffffffffffffff1673ffffffffffffffffffffffffffffffffffffffff168273ffffffffffffffffffffffffffffffffffffffff1614156118865760019050611893565b6118908383612bde565b90505b92915050565b6118a1611b39565b73ffffffffffffffffffffffffffffffffffffffff168573ffffffffffffffffffffffffffffffffffffffff1614806118e757506118e6856118e1611b39565b611825565b5b611926576040517f08c379a000000000000000000000000000000000000000000000000000000000815260040161191d90614939565b60405180910390fd5b6119338585858585612c72565b5050505050565b611942611b39565b73ffffffffffffffffffffffffffffffffffffffff166119606113be565b73ffffffffffffffffffffffffffffffffffffffff16146119b6576040517f08c379a00000000000000000000000000000000000000000000000000000000081526004016119ad90614a59565b60405180910390fd5b600073ffffffffffffffffffffffffffffffffffffffff168173ffffffffffffffffffffffffffffffffffffffff161415611a26576040517f08c379a0000000000000000000000000000000000000000000000000000000008152600401611a1d906148b9565b60405180910390fd5b611a2f81612555565b50565b611a3a611b39565b73ffffffffffffffffffffffffffffffffffffffff168373ffffffffffffffffffffffffffffffffffffffff161480611a805750611a7f83611a7a611b39565b611825565b5b611abf576040517f08c379a0000000000000000000000000000000000000000000000000000000008152600401611ab690614939565b60405180910390fd5b611aca8383836127b1565b505050565b60007f01ffc9a7000000000000000000000000000000000000000000000000000000007bffffffffffffffffffffffffffffffffffffffffffffffffffffffff1916827bffffffffffffffffffffffffffffffffffffffffffffffffffffffff1916149050919050565b600033905090565b8060029080519060200190611b579291906135d3565b5050565b60606000600560008481526020019081526020016000208054611b7d90615046565b80601f0160208091040260200160405190810160405280929190818152602001828054611ba990615046565b8015611bf65780601f10611bcb57610100808354040283529160200191611bf6565b820191906000526020600020905b815481529060010190602001808311611bd957829003601f168201915b505050505090506000611c0884612ef4565b9050600081511415611c3d5781604051602001611c2591906145a8565b60405160208183030381529060405292505050611c9f565b600082511115611c72578082604051602001611c5a929190614579565b60405160208183030381529060405292505050611c9f565b611c7b84612ef4565b604051602001611c8b91906145a8565b604051602081830303815290604052925050505b919050565b80600560008481526020019081526020016000209080519060200190611ccb9291906135d3565b505050565b600073ffffffffffffffffffffffffffffffffffffffff168473ffffffffffffffffffffffffffffffffffffffff161415611d40576040517f08c379a0000000000000000000000000000000000000000000000000000000008152600401611d3790614b39565b60405180910390fd5b8151835114611d84576040517f08c379a0000000000000000000000000000000000000000000000000000000008152600401611d7b90614b19565b60405180910390fd5b6000611d8e611b39565b9050611d9f81600087878787612f88565b60005b8451811015611e5857838181518110611dbe57611dbd6151b0565b5b6020026020010151600080878481518110611ddc57611ddb6151b0565b5b6020026020010151815260200190815260200160002060008873ffffffffffffffffffffffffffffffffffffffff1673ffffffffffffffffffffffffffffffffffffffff1681526020019081526020016000206000828254611e3e9190614cf8565b925050819055508080611e50906150a9565b915050611da2565b508473ffffffffffffffffffffffffffffffffffffffff16600073ffffffffffffffffffffffffffffffffffffffff168273ffffffffffffffffffffffffffffffffffffffff167f4a39dc06d4c0dbc64b70af90fd698a233a518aa5d07e595d983b8c0526c8f7fb8787604051611ed09291906147a5565b60405180910390a4611ee781600087878787612fe6565b5050505050565b8151835114611f32576040517f08c379a0000000000000000000000000000000000000000000000000000000008152600401611f2990614b19565b60405180910390fd5b600073ffffffffffffffffffffffffffffffffffffffff168473ffffffffffffffffffffffffffffffffffffffff161415611fa2576040517f08c379a0000000000000000000000000000000000000000000000000000000008152600401611f99906149b9565b60405180910390fd5b6000611fac611b39565b9050611fbc818787878787612f88565b60005b845181101561216d576000858281518110611fdd57611fdc6151b0565b5b602002602001015190506000858381518110611ffc57611ffb6151b0565b5b60200260200101519050600080600084815260200190815260200160002060008b73ffffffffffffffffffffffffffffffffffffffff1673ffffffffffffffffffffffffffffffffffffffff1681526020019081526020016000205490508181101561209d576040517f08c379a000000000000000000000000000000000000000000000000000000000815260040161209490614a19565b60405180910390fd5b81810360008085815260200190815260200160002060008c73ffffffffffffffffffffffffffffffffffffffff1673ffffffffffffffffffffffffffffffffffffffff168152602001908152602001600020819055508160008085815260200190815260200160002060008b73ffffffffffffffffffffffffffffffffffffffff1673ffffffffffffffffffffffffffffffffffffffff16815260200190815260200160002060008282546121529190614cf8565b9250508190555050505080612166906150a9565b9050611fbf565b508473ffffffffffffffffffffffffffffffffffffffff168673ffffffffffffffffffffffffffffffffffffffff168273ffffffffffffffffffffffffffffffffffffffff167f4a39dc06d4c0dbc64b70af90fd698a233a518aa5d07e595d983b8c0526c8f7fb87876040516121e49291906147a5565b60405180910390a46121fa818787878787612fe6565b505050505050565b61220a610d99565b612249576040517f08c379a000000000000000000000000000000000000000000000000000000000815260040161224090614859565b60405180910390fd5b6000600360146101000a81548160ff0219169083151502179055507f5db9ee0a495bf2e6ff9c91a7834c1ba4fdd244a5e8aa4e537bd38aeae4b073aa61228d611b39565b60405161229a91906145ca565b60405180910390a1565b600073ffffffffffffffffffffffffffffffffffffffff168373ffffffffffffffffffffffffffffffffffffffff161415612314576040517f08c379a000000000000000000000000000000000000000000000000000000000815260040161230b906149f9565b60405180910390fd5b8051825114612358576040517f08c379a000000000000000000000000000000000000000000000000000000000815260040161234f90614b19565b60405180910390fd5b6000612362611b39565b905061238281856000868660405180602001604052806000815250612f88565b60005b83518110156124cf5760008482815181106123a3576123a26151b0565b5b6020026020010151905060008483815181106123c2576123c16151b0565b5b60200260200101519050600080600084815260200190815260200160002060008973ffffffffffffffffffffffffffffffffffffffff1673ffffffffffffffffffffffffffffffffffffffff16815260200190815260200160002054905081811015612463576040517f08c379a000000000000000000000000000000000000000000000000000000000815260040161245a906148f9565b60405180910390fd5b81810360008085815260200190815260200160002060008a73ffffffffffffffffffffffffffffffffffffffff1673ffffffffffffffffffffffffffffffffffffffff1681526020019081526020016000208190555050505080806124c7906150a9565b915050612385565b50600073ffffffffffffffffffffffffffffffffffffffff168473ffffffffffffffffffffffffffffffffffffffff168273ffffffffffffffffffffffffffffffffffffffff167f4a39dc06d4c0dbc64b70af90fd698a233a518aa5d07e595d983b8c0526c8f7fb86866040516125479291906147a5565b60405180910390a450505050565b6000600360009054906101000a900473ffffffffffffffffffffffffffffffffffffffff16905081600360006101000a81548173ffffffffffffffffffffffffffffffffffffffff021916908373ffffffffffffffffffffffffffffffffffffffff1602179055508173ffffffffffffffffffffffffffffffffffffffff168173ffffffffffffffffffffffffffffffffffffffff167f8be0079c531659141344cd1fd0a4f28419497f9722a3daafe3b4186f6b6457e060405160405180910390a35050565b600073ffffffffffffffffffffffffffffffffffffffff168473ffffffffffffffffffffffffffffffffffffffff16141561268b576040517f08c379a000000000000000000000000000000000000000000000000000000000815260040161268290614b39565b60405180910390fd5b6000612695611b39565b90506126b6816000876126a7886131cd565b6126b0886131cd565b87612f88565b8260008086815260200190815260200160002060008773ffffffffffffffffffffffffffffffffffffffff1673ffffffffffffffffffffffffffffffffffffffff16815260200190815260200160002060008282546127159190614cf8565b925050819055508473ffffffffffffffffffffffffffffffffffffffff16600073ffffffffffffffffffffffffffffffffffffffff168273ffffffffffffffffffffffffffffffffffffffff167fc3d58168c5ae7397731d063d5bbf3d657854427343f4c083240f7aacaa2d0f628787604051612793929190614b74565b60405180910390a46127aa81600087878787613247565b5050505050565b600073ffffffffffffffffffffffffffffffffffffffff168373ffffffffffffffffffffffffffffffffffffffff161415612821576040517f08c379a0000000000000000000000000000000000000000000000000000000008152600401612818906149f9565b60405180910390fd5b600061282b611b39565b905061285b8185600061283d876131cd565b612846876131cd565b60405180602001604052806000815250612f88565b600080600085815260200190815260200160002060008673ffffffffffffffffffffffffffffffffffffffff1673ffffffffffffffffffffffffffffffffffffffff168152602001908152602001600020549050828110156128f2576040517f08c379a00000000000000000000000000000000000000000000000000000000081526004016128e9906148f9565b60405180910390fd5b82810360008086815260200190815260200160002060008773ffffffffffffffffffffffffffffffffffffffff1673ffffffffffffffffffffffffffffffffffffffff16815260200190815260200160002081905550600073ffffffffffffffffffffffffffffffffffffffff168573ffffffffffffffffffffffffffffffffffffffff168373ffffffffffffffffffffffffffffffffffffffff167fc3d58168c5ae7397731d063d5bbf3d657854427343f4c083240f7aacaa2d0f6287876040516129bf929190614b74565b60405180910390a45050505050565b6129d6610d99565b15612a16576040517f08c379a0000000000000000000000000000000000000000000000000000000008152600401612a0d90614979565b60405180910390fd5b6001600360146101000a81548160ff0219169083151502179055507f62e78cea01bee320cd4e420270b5ea74000d11b0c9f74754ebdbfc544b05a258612a5a611b39565b604051612a6791906145ca565b60405180910390a1565b8173ffffffffffffffffffffffffffffffffffffffff168373ffffffffffffffffffffffffffffffffffffffff161415612ae0576040517f08c379a0000000000000000000000000000000000000000000000000000000008152600401612ad790614ad9565b60405180910390fd5b80600160008573ffffffffffffffffffffffffffffffffffffffff1673ffffffffffffffffffffffffffffffffffffffff16815260200190815260200160002060008473ffffffffffffffffffffffffffffffffffffffff1673ffffffffffffffffffffffffffffffffffffffff16815260200190815260200160002060006101000a81548160ff0219169083151502179055508173ffffffffffffffffffffffffffffffffffffffff168373ffffffffffffffffffffffffffffffffffffffff167f17307eab39ab6107e8899845ad3d59bd9653f200f220920489ca2b5937696c3183604051612bd191906147dc565b60405180910390a3505050565b6000600160008473ffffffffffffffffffffffffffffffffffffffff1673ffffffffffffffffffffffffffffffffffffffff16815260200190815260200160002060008373ffffffffffffffffffffffffffffffffffffffff1673ffffffffffffffffffffffffffffffffffffffff16815260200190815260200160002060009054906101000a900460ff16905092915050565b600073ffffffffffffffffffffffffffffffffffffffff168473ffffffffffffffffffffffffffffffffffffffff161415612ce2576040517f08c379a0000000000000000000000000000000000000000000000000000000008152600401612cd9906149b9565b60405180910390fd5b6000612cec611b39565b9050612d0c818787612cfd886131cd565b612d06886131cd565b87612f88565b600080600086815260200190815260200160002060008873ffffffffffffffffffffffffffffffffffffffff1673ffffffffffffffffffffffffffffffffffffffff16815260200190815260200160002054905083811015612da3576040517f08c379a0000000000000000000000000000000000000000000000000000000008152600401612d9a90614a19565b60405180910390fd5b83810360008087815260200190815260200160002060008973ffffffffffffffffffffffffffffffffffffffff1673ffffffffffffffffffffffffffffffffffffffff168152602001908152602001600020819055508360008087815260200190815260200160002060008873ffffffffffffffffffffffffffffffffffffffff1673ffffffffffffffffffffffffffffffffffffffff1681526020019081526020016000206000828254612e589190614cf8565b925050819055508573ffffffffffffffffffffffffffffffffffffffff168773ffffffffffffffffffffffffffffffffffffffff168373ffffffffffffffffffffffffffffffffffffffff167fc3d58168c5ae7397731d063d5bbf3d657854427343f4c083240f7aacaa2d0f628888604051612ed5929190614b74565b60405180910390a4612eeb828888888888613247565b50505050505050565b606060028054612f0390615046565b80601f0160208091040260200160405190810160405280929190818152602001828054612f2f90615046565b8015612f7c5780601f10612f5157610100808354040283529160200191612f7c565b820191906000526020600020905b815481529060010190602001808311612f5f57829003601f168201915b50505050509050919050565b612f90610d99565b15612fd0576040517f08c379a0000000000000000000000000000000000000000000000000000000008152600401612fc790614979565b60405180910390fd5b612fde86868686868661342e565b505050505050565b6130058473ffffffffffffffffffffffffffffffffffffffff166135a8565b156131c5578373ffffffffffffffffffffffffffffffffffffffff1663bc197c8187878686866040518663ffffffff1660e01b815260040161304b9594939291906145e5565b602060405180830381600087803b15801561306557600080fd5b505af192505050801561309657506040513d601f19601f820116820180604052508101906130939190613f09565b60015b61313c576130a261520e565b806308c379a014156130ff57506130b7615973565b806130c25750613101565b806040517f08c379a00000000000000000000000000000000000000000000000000000000081526004016130f691906147f7565b60405180910390fd5b505b6040517f08c379a000000000000000000000000000000000000000000000000000000000815260040161313390614819565b60405180910390fd5b63bc197c8160e01b7bffffffffffffffffffffffffffffffffffffffffffffffffffffffff1916817bffffffffffffffffffffffffffffffffffffffffffffffffffffffff1916146131c3576040517f08c379a00000000000000000000000000000000000000000000000000000000081526004016131ba90614839565b60405180910390fd5b505b505050505050565b60606000600167ffffffffffffffff8111156131ec576131eb6151df565b5b60405190808252806020026020018201604052801561321a5781602001602082028036833780820191505090505b5090508281600081518110613232576132316151b0565b5b60200260200101818152505080915050919050565b6132668473ffffffffffffffffffffffffffffffffffffffff166135a8565b15613426578373ffffffffffffffffffffffffffffffffffffffff1663f23a6e6187878686866040518663ffffffff1660e01b81526004016132ac95949392919061464d565b602060405180830381600087803b1580156132c657600080fd5b505af19250505080156132f757506040513d601f19601f820116820180604052508101906132f49190613f09565b60015b61339d5761330361520e565b806308c379a014156133605750613318615973565b806133235750613362565b806040517f08c379a000000000000000000000000000000000000000000000000000000000815260040161335791906147f7565b60405180910390fd5b505b6040517f08c379a000000000000000000000000000000000000000000000000000000000815260040161339490614819565b60405180910390fd5b63f23a6e6160e01b7bffffffffffffffffffffffffffffffffffffffffffffffffffffffff1916817bffffffffffffffffffffffffffffffffffffffffffffffffffffffff191614613424576040517f08c379a000000000000000000000000000000000000000000000000000000000815260040161341b90614839565b60405180910390fd5b505b505050505050565b61343c8686868686866135cb565b600073ffffffffffffffffffffffffffffffffffffffff168573ffffffffffffffffffffffffffffffffffffffff1614156134ee5760005b83518110156134ec578281815181106134905761348f6151b0565b5b6020026020010151600460008684815181106134af576134ae6151b0565b5b6020026020010151815260200190815260200160002060008282546134d49190614cf8565b92505081905550806134e5906150a9565b9050613474565b505b600073ffffffffffffffffffffffffffffffffffffffff168473ffffffffffffffffffffffffffffffffffffffff1614156135a05760005b835181101561359e57828181518110613542576135416151b0565b5b602002602001015160046000868481518110613561576135606151b0565b5b6020026020010151815260200190815260200160002060008282546135869190614f4a565b9250508190555080613597906150a9565b9050613526565b505b505050505050565b6000808273ffffffffffffffffffffffffffffffffffffffff163b119050919050565b505050505050565b8280546135df90615046565b90600052602060002090601f0160209004810192826136015760008555613648565b82601f1061361a57805160ff1916838001178555613648565b82800160010185558215613648579182015b8281111561364757825182559160200191906001019061362c565b5b5090506136559190613659565b5090565b5b8082111561367257600081600090555060010161365a565b5090565b600061368961368484614bc2565b614b9d565b905080838252602082019050828560208602820111156136ac576136ab615235565b5b60005b858110156136dc57816136c288826137da565b8452602084019350602083019250506001810190506136af565b5050509392505050565b60006136f96136f484614bee565b614b9d565b9050808382526020820190508285602086028201111561371c5761371b615235565b5b60005b8581101561374c578161373288826138e6565b84526020840193506020830192505060018101905061371f565b5050509392505050565b600061376961376484614c1a565b614b9d565b9050828152602081018484840111156137855761378461523a565b5b613790848285615004565b509392505050565b60006137ab6137a684614c4b565b614b9d565b9050828152602081018484840111156137c7576137c661523a565b5b6137d2848285615004565b509392505050565b6000813590506137e981615a09565b92915050565b600082601f83011261380457613803615230565b5b8135613814848260208601613676565b91505092915050565b600082601f83011261383257613831615230565b5b81356138428482602086016136e6565b91505092915050565b60008135905061385a81615a20565b92915050565b60008135905061386f81615a37565b92915050565b60008151905061388481615a37565b92915050565b600082601f83011261389f5761389e615230565b5b81356138af848260208601613756565b91505092915050565b600082601f8301126138cd576138cc615230565b5b81356138dd848260208601613798565b91505092915050565b6000813590506138f581615a4e565b92915050565b60006020828403121561391157613910615244565b5b600061391f848285016137da565b91505092915050565b6000806040838503121561393f5761393e615244565b5b600061394d858286016137da565b925050602061395e858286016137da565b9150509250929050565b600080600080600060a0868803121561398457613983615244565b5b6000613992888289016137da565b95505060206139a3888289016137da565b945050604086013567ffffffffffffffff8111156139c4576139c361523f565b5b6139d08882890161381d565b935050606086013567ffffffffffffffff8111156139f1576139f061523f565b5b6139fd8882890161381d565b925050608086013567ffffffffffffffff811115613a1e57613a1d61523f565b5b613a2a8882890161388a565b9150509295509295909350565b600080600080600060a08688031215613a5357613a52615244565b5b6000613a61888289016137da565b9550506020613a72888289016137da565b9450506040613a83888289016138e6565b9350506060613a94888289016138e6565b925050608086013567ffffffffffffffff811115613ab557613ab461523f565b5b613ac18882890161388a565b9150509295509295909350565b600080600060608486031215613ae757613ae6615244565b5b6000613af5868287016137da565b935050602084013567ffffffffffffffff811115613b1657613b1561523f565b5b613b228682870161381d565b925050604084013567ffffffffffffffff811115613b4357613b4261523f565b5b613b4f8682870161381d565b9150509250925092565b60008060008060808587031215613b7357613b72615244565b5b6000613b81878288016137da565b945050602085013567ffffffffffffffff811115613ba257613ba161523f565b5b613bae8782880161381d565b935050604085013567ffffffffffffffff811115613bcf57613bce61523f565b5b613bdb8782880161381d565b925050606085013567ffffffffffffffff811115613bfc57613bfb61523f565b5b613c088782880161388a565b91505092959194509250565b600080600060608486031215613c2d57613c2c615244565b5b6000613c3b868287016137da565b935050602084013567ffffffffffffffff811115613c5c57613c5b61523f565b5b613c688682870161381d565b925050604084013567ffffffffffffffff811115613c8957613c8861523f565b5b613c958682870161388a565b9150509250925092565b60008060408385031215613cb657613cb5615244565b5b6000613cc4858286016137da565b9250506020613cd58582860161384b565b9150509250929050565b60008060408385031215613cf657613cf5615244565b5b6000613d04858286016137da565b9250506020613d15858286016138e6565b9150509250929050565b600080600060608486031215613d3857613d37615244565b5b6000613d46868287016137da565b9350506020613d57868287016138e6565b925050604084013567ffffffffffffffff811115613d7857613d7761523f565b5b613d848682870161388a565b9150509250925092565b600080600060608486031215613da757613da6615244565b5b6000613db5868287016137da565b9350506020613dc6868287016138e6565b9250506040613dd7868287016138e6565b9150509250925092565b60008060008060808587031215613dfb57613dfa615244565b5b6000613e09878288016137da565b9450506020613e1a878288016138e6565b9350506040613e2b878288016138e6565b925050606085013567ffffffffffffffff811115613e4c57613e4b61523f565b5b613e588782880161388a565b91505092959194509250565b60008060408385031215613e7b57613e7a615244565b5b600083013567ffffffffffffffff811115613e9957613e9861523f565b5b613ea5858286016137ef565b925050602083013567ffffffffffffffff811115613ec657613ec561523f565b5b613ed28582860161381d565b9150509250929050565b600060208284031215613ef257613ef1615244565b5b6000613f0084828501613860565b91505092915050565b600060208284031215613f1f57613f1e615244565b5b6000613f2d84828501613875565b91505092915050565b600060208284031215613f4c57613f4b615244565b5b600082013567ffffffffffffffff811115613f6a57613f6961523f565b5b613f76848285016138b8565b91505092915050565b60008060408385031215613f9657613f95615244565b5b600083013567ffffffffffffffff811115613fb457613fb361523f565b5b613fc0858286016138b8565b9250506020613fd1858286016138e6565b9150509250929050565b600060208284031215613ff157613ff0615244565b5b6000613fff848285016138e6565b91505092915050565b6000806040838503121561401f5761401e615244565b5b600061402d858286016138e6565b925050602083013567ffffffffffffffff81111561404e5761404d61523f565b5b61405a858286016138b8565b9150509250929050565b6000614070838361455b565b60208301905092915050565b61408581614f7e565b82525050565b600061409682614c8c565b6140a08185614cba565b93506140ab83614c7c565b8060005b838110156140dc5781516140c38882614064565b97506140ce83614cad565b9250506001810190506140af565b5085935050505092915050565b6140f281614f90565b82525050565b600061410382614c97565b61410d8185614ccb565b935061411d818560208601615013565b61412681615249565b840191505092915050565b61413a81614ff2565b82525050565b600061414b82614ca2565b6141558185614cdc565b9350614165818560208601615013565b61416e81615249565b840191505092915050565b600061418482614ca2565b61418e8185614ced565b935061419e818560208601615013565b80840191505092915050565b60006141b7603483614cdc565b91506141c282615274565b604082019050919050565b60006141da602883614cdc565b91506141e5826152c3565b604082019050919050565b60006141fd601483614cdc565b915061420882615312565b602082019050919050565b6000614220602483614cdc565b915061422b8261533b565b604082019050919050565b6000614243602b83614cdc565b915061424e8261538a565b604082019050919050565b6000614266602683614cdc565b9150614271826153d9565b604082019050919050565b6000614289601c83614cdc565b915061429482615428565b602082019050919050565b60006142ac602483614cdc565b91506142b782615451565b604082019050919050565b60006142cf602a83614cdc565b91506142da826154a0565b604082019050919050565b60006142f2602983614cdc565b91506142fd826154ef565b604082019050919050565b6000614315601b83614cdc565b91506143208261553e565b602082019050919050565b6000614338601083614cdc565b915061434382615567565b602082019050919050565b600061435b601a83614cdc565b915061436682615590565b602082019050919050565b600061437e602583614cdc565b9150614389826155b9565b604082019050919050565b60006143a1603283614cdc565b91506143ac82615608565b604082019050919050565b60006143c4602383614cdc565b91506143cf82615657565b604082019050919050565b60006143e7602a83614cdc565b91506143f2826156a6565b604082019050919050565b600061440a601d83614cdc565b9150614415826156f5565b602082019050919050565b600061442d602083614cdc565b91506144388261571e565b602082019050919050565b6000614450602f83614cdc565b915061445b82615747565b604082019050919050565b6000614473600483614ced565b915061447e82615796565b600482019050919050565b6000614496602283614cdc565b91506144a1826157bf565b604082019050919050565b60006144b9600e83614cdc565b91506144c48261580e565b602082019050919050565b60006144dc602983614cdc565b91506144e782615837565b604082019050919050565b60006144ff602983614cdc565b915061450a82615886565b604082019050919050565b6000614522602883614cdc565b915061452d826158d5565b604082019050919050565b6000614545602183614cdc565b915061455082615924565b604082019050919050565b61456481614fe8565b82525050565b61457381614fe8565b82525050565b60006145858285614179565b91506145918284614179565b915061459c82614466565b91508190509392505050565b60006145b48284614179565b91506145bf82614466565b915081905092915050565b60006020820190506145df600083018461407c565b92915050565b600060a0820190506145fa600083018861407c565b614607602083018761407c565b8181036040830152614619818661408b565b9050818103606083015261462d818561408b565b9050818103608083015261464181846140f8565b90509695505050505050565b600060a082019050614662600083018861407c565b61466f602083018761407c565b61467c604083018661456a565b614689606083018561456a565b818103608083015261469b81846140f8565b90509695505050505050565b60006060820190506146bc600083018661407c565b81810360208301526146ce818561408b565b905081810360408301526146e2818461408b565b9050949350505050565b6000604082019050614701600083018561407c565b61470e602083018461456a565b9392505050565b600060608201905061472a600083018661407c565b614737602083018561456a565b6147446040830184614131565b949350505050565b6000606082019050614761600083018661407c565b61476e602083018561456a565b61477b604083018461456a565b949350505050565b6000602082019050818103600083015261479d818461408b565b905092915050565b600060408201905081810360008301526147bf818561408b565b905081810360208301526147d3818461408b565b90509392505050565b60006020820190506147f160008301846140e9565b92915050565b600060208201905081810360008301526148118184614140565b905092915050565b60006020820190508181036000830152614832816141aa565b9050919050565b60006020820190508181036000830152614852816141cd565b9050919050565b60006020820190508181036000830152614872816141f0565b9050919050565b6000602082019050818103600083015261489281614213565b9050919050565b600060208201905081810360008301526148b281614236565b9050919050565b600060208201905081810360008301526148d281614259565b9050919050565b600060208201905081810360008301526148f28161427c565b9050919050565b600060208201905081810360008301526149128161429f565b9050919050565b60006020820190508181036000830152614932816142c2565b9050919050565b60006020820190508181036000830152614952816142e5565b9050919050565b6000602082019050818103600083015261497281614308565b9050919050565b600060208201905081810360008301526149928161432b565b9050919050565b600060208201905081810360008301526149b28161434e565b9050919050565b600060208201905081810360008301526149d281614371565b9050919050565b600060208201905081810360008301526149f281614394565b9050919050565b60006020820190508181036000830152614a12816143b7565b9050919050565b60006020820190508181036000830152614a32816143da565b9050919050565b60006020820190508181036000830152614a52816143fd565b9050919050565b60006020820190508181036000830152614a7281614420565b9050919050565b60006020820190508181036000830152614a9281614443565b9050919050565b60006020820190508181036000830152614ab281614489565b9050919050565b60006020820190508181036000830152614ad2816144ac565b9050919050565b60006020820190508181036000830152614af2816144cf565b9050919050565b60006020820190508181036000830152614b12816144f2565b9050919050565b60006020820190508181036000830152614b3281614515565b9050919050565b60006020820190508181036000830152614b5281614538565b9050919050565b6000602082019050614b6e600083018461456a565b92915050565b6000604082019050614b89600083018561456a565b614b96602083018461456a565b9392505050565b6000614ba7614bb8565b9050614bb38282615078565b919050565b6000604051905090565b600067ffffffffffffffff821115614bdd57614bdc6151df565b5b602082029050602081019050919050565b600067ffffffffffffffff821115614c0957614c086151df565b5b602082029050602081019050919050565b600067ffffffffffffffff821115614c3557614c346151df565b5b614c3e82615249565b9050602081019050919050565b600067ffffffffffffffff821115614c6657614c656151df565b5b614c6f82615249565b9050602081019050919050565b6000819050602082019050919050565b600081519050919050565b600081519050919050565b600081519050919050565b6000602082019050919050565b600082825260208201905092915050565b600082825260208201905092915050565b600082825260208201905092915050565b600081905092915050565b6000614d0382614fe8565b9150614d0e83614fe8565b9250827fffffffffffffffffffffffffffffffffffffffffffffffffffffffffffffffff03821115614d4357614d42615123565b5b828201905092915050565b6000614d5982614fe8565b9150614d6483614fe8565b925082614d7457614d73615152565b5b828204905092915050565b6000808291508390505b6001851115614dc957808604811115614da557614da4615123565b5b6001851615614db45780820291505b8081029050614dc28561525a565b9450614d89565b94509492505050565b6000614ddd82614fe8565b9150614de883614fe8565b9250614e157fffffffffffffffffffffffffffffffffffffffffffffffffffffffffffffffff8484614e1d565b905092915050565b600082614e2d5760019050614ee9565b81614e3b5760009050614ee9565b8160018114614e515760028114614e5b57614e8a565b6001915050614ee9565b60ff841115614e6d57614e6c615123565b5b8360020a915084821115614e8457614e83615123565b5b50614ee9565b5060208310610133831016604e8410600b8410161715614ebf5782820a905083811115614eba57614eb9615123565b5b614ee9565b614ecc8484846001614d7f565b92509050818404811115614ee357614ee2615123565b5b81810290505b9392505050565b6000614efb82614fe8565b9150614f0683614fe8565b9250817fffffffffffffffffffffffffffffffffffffffffffffffffffffffffffffffff0483118215151615614f3f57614f3e615123565b5b828202905092915050565b6000614f5582614fe8565b9150614f6083614fe8565b925082821015614f7357614f72615123565b5b828203905092915050565b6000614f8982614fc8565b9050919050565b60008115159050919050565b60007fffffffff0000000000000000000000000000000000000000000000000000000082169050919050565b600073ffffffffffffffffffffffffffffffffffffffff82169050919050565b6000819050919050565b6000614ffd82614fe8565b9050919050565b82818337600083830152505050565b60005b83811015615031578082015181840152602081019050615016565b83811115615040576000848401525b50505050565b6000600282049050600182168061505e57607f821691505b6020821081141561507257615071615181565b5b50919050565b61508182615249565b810181811067ffffffffffffffff821117156150a05761509f6151df565b5b80604052505050565b60006150b482614fe8565b91507fffffffffffffffffffffffffffffffffffffffffffffffffffffffffffffffff8214156150e7576150e6615123565b5b600182019050919050565b60006150fd82614fe8565b915061510883614fe8565b92508261511857615117615152565b5b828206905092915050565b7f4e487b7100000000000000000000000000000000000000000000000000000000600052601160045260246000fd5b7f4e487b7100000000000000000000000000000000000000000000000000000000600052601260045260246000fd5b7f4e487b7100000000000000000000000000000000000000000000000000000000600052602260045260246000fd5b7f4e487b7100000000000000000000000000000000000000000000000000000000600052603260045260246000fd5b7f4e487b7100000000000000000000000000000000000000000000000000000000600052604160045260246000fd5b600060033d111561522d5760046000803e61522a600051615267565b90505b90565b600080fd5b600080fd5b600080fd5b600080fd5b600080fd5b6000601f19601f8301169050919050565b60008160011c9050919050565b60008160e01c9050919050565b7f455243313135353a207472616e7366657220746f206e6f6e204552433131353560008201527f526563656976657220696d706c656d656e746572000000000000000000000000602082015250565b7f455243313135353a204552433131353552656365697665722072656a6563746560008201527f6420746f6b656e73000000000000000000000000000000000000000000000000602082015250565b7f5061757361626c653a206e6f7420706175736564000000000000000000000000600082015250565b7f4d65726765642069642063616e6e6f7420626520626173696320656c656d656e60008201527f7420696400000000000000000000000000000000000000000000000000000000602082015250565b7f455243313135353a2062616c616e636520717565727920666f7220746865207a60008201527f65726f2061646472657373000000000000000000000000000000000000000000602082015250565b7f4f776e61626c653a206e6577206f776e657220697320746865207a65726f206160008201527f6464726573730000000000000000000000000000000000000000000000000000602082015250565b7f426173696320656c656d656e742069642063616e6e6f74206265203000000000600082015250565b7f455243313135353a206275726e20616d6f756e7420657863656564732062616c60008201527f616e636500000000000000000000000000000000000000000000000000000000602082015250565b7f43616e6e6f742062652073706c697420696e746f206d6f7265207468616e203160008201527f3020656c656d656e747300000000000000000000000000000000000000000000602082015250565b7f455243313135353a2063616c6c6572206973206e6f74206f776e6572206e6f7260008201527f20617070726f7665640000000000000000000000000000000000000000000000602082015250565b7f43616e6e6f74206d657267652073696e676c6520656c656d656e740000000000600082015250565b7f5061757361626c653a2070617573656400000000000000000000000000000000600082015250565b7f43616e6e6f742073706c697420626173696320656c656d656e74000000000000600082015250565b7f455243313135353a207472616e7366657220746f20746865207a65726f20616460008201527f6472657373000000000000000000000000000000000000000000000000000000602082015250565b7f455243313135353a207472616e736665722063616c6c6572206973206e6f742060008201527f6f776e6572206e6f7220617070726f7665640000000000000000000000000000602082015250565b7f455243313135353a206275726e2066726f6d20746865207a65726f206164647260008201527f6573730000000000000000000000000000000000000000000000000000000000602082015250565b7f455243313135353a20696e73756666696369656e742062616c616e636520666f60008201527f72207472616e7366657200000000000000000000000000000000000000000000602082015250565b7f4964206d75737420626520736d616c6c6572207468616e203130303030000000600082015250565b7f4f776e61626c653a2063616c6c6572206973206e6f7420746865206f776e6572600082015250565b7f43616e6e6f74206d65726765207769746820656c656d656e747320746861742060008201527f686164206265656e206d65726765640000000000000000000000000000000000602082015250565b7f7b69647d00000000000000000000000000000000000000000000000000000000600082015250565b7f43616e6e6f74206d65726765206d6f7265207468616e20313020656c656d656e60008201527f7473000000000000000000000000000000000000000000000000000000000000602082015250565b7f49642063616e6e6f742062652030000000000000000000000000000000000000600082015250565b7f455243313135353a2073657474696e6720617070726f76616c2073746174757360008201527f20666f722073656c660000000000000000000000000000000000000000000000602082015250565b7f455243313135353a206163636f756e747320616e6420696473206c656e67746860008201527f206d69736d617463680000000000000000000000000000000000000000000000602082015250565b7f455243313135353a2069647320616e6420616d6f756e7473206c656e6774682060008201527f6d69736d61746368000000000000000000000000000000000000000000000000602082015250565b7f455243313135353a206d696e7420746f20746865207a65726f2061646472657360008201527f7300000000000000000000000000000000000000000000000000000000000000602082015250565b600060443d101561598357615a06565b61598b614bb8565b60043d036004823e80513d602482011167ffffffffffffffff821117156159b3575050615a06565b808201805167ffffffffffffffff8111156159d15750505050615a06565b80602083010160043d0385018111156159ee575050505050615a06565b6159fd82602001850186615078565b82955050505050505b90565b615a1281614f7e565b8114615a1d57600080fd5b50565b615a2981614f90565b8114615a3457600080fd5b50565b615a4081614f9c565b8114615a4b57600080fd5b50565b615a5781614fe8565b8114615a6257600080fd5b5056fea2646970667358221220386b447d1fb1647a71f72cc459dfbfd19ee1552b1e11491163603619d23d00a764736f6c6343000807003368747470733a2f2f6d657461707974686f6e2e6865726f6b756170702e636f6d2f6170692f73746f72652f68747470733a2f2f6d657461707974686f6e2e6865726f6b756170702e636f6d2f6170692f626f782f",
			"opcodes": "PUSH1 0x80 PUSH1 0x40 MSTORE PUSH1 0x40 MLOAD DUP1 PUSH1 0x60 ADD PUSH1 0x40 MSTORE DUP1 PUSH1 0x2B DUP2 MSTORE PUSH1 0x20 ADD PUSH3 0x5DB7 PUSH1 0x2B SWAP2 CODECOPY PUSH1 0x6 SWAP1 DUP1 MLOAD SWAP1 PUSH1 0x20 ADD SWAP1 PUSH3 0x35 SWAP3 SWAP2 SWAP1 PUSH3 0x1F7 JUMP JUMPDEST POP PUSH3 0x32000 PUSH1 0x7 SSTORE PUSH20 0xF57B2C51DED3A29E6891ABA85459D600256CF317 PUSH1 0x8 PUSH1 0x0 PUSH2 0x100 EXP DUP2 SLOAD DUP2 PUSH20 0xFFFFFFFFFFFFFFFFFFFFFFFFFFFFFFFFFFFFFFFF MUL NOT AND SWAP1 DUP4 PUSH20 0xFFFFFFFFFFFFFFFFFFFFFFFFFFFFFFFFFFFFFFFF AND MUL OR SWAP1 SSTORE POP CALLVALUE DUP1 ISZERO PUSH3 0x9F JUMPI PUSH1 0x0 DUP1 REVERT JUMPDEST POP PUSH1 0x40 MLOAD DUP1 PUSH1 0x60 ADD PUSH1 0x40 MSTORE DUP1 PUSH1 0x29 DUP2 MSTORE PUSH1 0x20 ADD PUSH3 0x5DE2 PUSH1 0x29 SWAP2 CODECOPY PUSH3 0xCB DUP2 PUSH3 0x10D PUSH1 0x20 SHL PUSH1 0x20 SHR JUMP JUMPDEST POP PUSH3 0xEC PUSH3 0xE0 PUSH3 0x129 PUSH1 0x20 SHL PUSH1 0x20 SHR JUMP JUMPDEST PUSH3 0x131 PUSH1 0x20 SHL PUSH1 0x20 SHR JUMP JUMPDEST PUSH1 0x0 PUSH1 0x3 PUSH1 0x14 PUSH2 0x100 EXP DUP2 SLOAD DUP2 PUSH1 0xFF MUL NOT AND SWAP1 DUP4 ISZERO ISZERO MUL OR SWAP1 SSTORE POP PUSH3 0x30C JUMP JUMPDEST DUP1 PUSH1 0x2 SWAP1 DUP1 MLOAD SWAP1 PUSH1 0x20 ADD SWAP1 PUSH3 0x125 SWAP3 SWAP2 SWAP1 PUSH3 0x1F7 JUMP JUMPDEST POP POP JUMP JUMPDEST PUSH1 0x0 CALLER SWAP1 POP SWAP1 JUMP JUMPDEST PUSH1 0x0 PUSH1 0x3 PUSH1 0x0 SWAP1 SLOAD SWAP1 PUSH2 0x100 EXP SWAP1 DIV PUSH20 0xFFFFFFFFFFFFFFFFFFFFFFFFFFFFFFFFFFFFFFFF AND SWAP1 POP DUP2 PUSH1 0x3 PUSH1 0x0 PUSH2 0x100 EXP DUP2 SLOAD DUP2 PUSH20 0xFFFFFFFFFFFFFFFFFFFFFFFFFFFFFFFFFFFFFFFF MUL NOT AND SWAP1 DUP4 PUSH20 0xFFFFFFFFFFFFFFFFFFFFFFFFFFFFFFFFFFFFFFFF AND MUL OR SWAP1 SSTORE POP DUP2 PUSH20 0xFFFFFFFFFFFFFFFFFFFFFFFFFFFFFFFFFFFFFFFF AND DUP2 PUSH20 0xFFFFFFFFFFFFFFFFFFFFFFFFFFFFFFFFFFFFFFFF AND PUSH32 0x8BE0079C531659141344CD1FD0A4F28419497F9722A3DAAFE3B4186F6B6457E0 PUSH1 0x40 MLOAD PUSH1 0x40 MLOAD DUP1 SWAP2 SUB SWAP1 LOG3 POP POP JUMP JUMPDEST DUP3 DUP1 SLOAD PUSH3 0x205 SWAP1 PUSH3 0x2A7 JUMP JUMPDEST SWAP1 PUSH1 0x0 MSTORE PUSH1 0x20 PUSH1 0x0 KECCAK256 SWAP1 PUSH1 0x1F ADD PUSH1 0x20 SWAP1 DIV DUP2 ADD SWAP3 DUP3 PUSH3 0x229 JUMPI PUSH1 0x0 DUP6 SSTORE PUSH3 0x275 JUMP JUMPDEST DUP3 PUSH1 0x1F LT PUSH3 0x244 JUMPI DUP1 MLOAD PUSH1 0xFF NOT AND DUP4 DUP1 ADD OR DUP6 SSTORE PUSH3 0x275 JUMP JUMPDEST DUP3 DUP1 ADD PUSH1 0x1 ADD DUP6 SSTORE DUP3 ISZERO PUSH3 0x275 JUMPI SWAP2 DUP3 ADD JUMPDEST DUP3 DUP2 GT ISZERO PUSH3 0x274 JUMPI DUP3 MLOAD DUP3 SSTORE SWAP2 PUSH1 0x20 ADD SWAP2 SWAP1 PUSH1 0x1 ADD SWAP1 PUSH3 0x257 JUMP JUMPDEST JUMPDEST POP SWAP1 POP PUSH3 0x284 SWAP2 SWAP1 PUSH3 0x288 JUMP JUMPDEST POP SWAP1 JUMP JUMPDEST JUMPDEST DUP1 DUP3 GT ISZERO PUSH3 0x2A3 JUMPI PUSH1 0x0 DUP2 PUSH1 0x0 SWAP1 SSTORE POP PUSH1 0x1 ADD PUSH3 0x289 JUMP JUMPDEST POP SWAP1 JUMP JUMPDEST PUSH1 0x0 PUSH1 0x2 DUP3 DIV SWAP1 POP PUSH1 0x1 DUP3 AND DUP1 PUSH3 0x2C0 JUMPI PUSH1 0x7F DUP3 AND SWAP2 POP JUMPDEST PUSH1 0x20 DUP3 LT DUP2 EQ ISZERO PUSH3 0x2D7 JUMPI PUSH3 0x2D6 PUSH3 0x2DD JUMP JUMPDEST JUMPDEST POP SWAP2 SWAP1 POP JUMP JUMPDEST PUSH32 0x4E487B7100000000000000000000000000000000000000000000000000000000 PUSH1 0x0 MSTORE PUSH1 0x22 PUSH1 0x4 MSTORE PUSH1 0x24 PUSH1 0x0 REVERT JUMPDEST PUSH2 0x5A9B DUP1 PUSH3 0x31C PUSH1 0x0 CODECOPY PUSH1 0x0 RETURN INVALID PUSH1 0x80 PUSH1 0x40 MSTORE CALLVALUE DUP1 ISZERO PUSH2 0x10 JUMPI PUSH1 0x0 DUP1 REVERT JUMPDEST POP PUSH1 0x4 CALLDATASIZE LT PUSH2 0x1D9 JUMPI PUSH1 0x0 CALLDATALOAD PUSH1 0xE0 SHR DUP1 PUSH4 0x731133E9 GT PUSH2 0x104 JUMPI DUP1 PUSH4 0xAB326598 GT PUSH2 0xA2 JUMPI DUP1 PUSH4 0xE985E9C5 GT PUSH2 0x71 JUMPI DUP1 PUSH4 0xE985E9C5 EQ PUSH2 0x500 JUMPI DUP1 PUSH4 0xF242432A EQ PUSH2 0x530 JUMPI DUP1 PUSH4 0xF2FDE38B EQ PUSH2 0x54C JUMPI DUP1 PUSH4 0xF5298ACA EQ PUSH2 0x568 JUMPI PUSH2 0x1D9 JUMP JUMPDEST DUP1 PUSH4 0xAB326598 EQ PUSH2 0x478 JUMPI DUP1 PUSH4 0xBD85B039 EQ PUSH2 0x494 JUMPI DUP1 PUSH4 0xCCE132D1 EQ PUSH2 0x4C4 JUMPI DUP1 PUSH4 0xE8A3D485 EQ PUSH2 0x4E2 JUMPI PUSH2 0x1D9 JUMP JUMPDEST DUP1 PUSH4 0x8456CB59 GT PUSH2 0xDE JUMPI DUP1 PUSH4 0x8456CB59 EQ PUSH2 0x418 JUMPI DUP1 PUSH4 0x8DA5CB5B EQ PUSH2 0x422 JUMPI DUP1 PUSH4 0x97107D6D EQ PUSH2 0x440 JUMPI DUP1 PUSH4 0xA22CB465 EQ PUSH2 0x45C JUMPI PUSH2 0x1D9 JUMP JUMPDEST DUP1 PUSH4 0x731133E9 EQ PUSH2 0x3C4 JUMPI DUP1 PUSH4 0x74CDED02 EQ PUSH2 0x3E0 JUMPI DUP1 PUSH4 0x79C9CB7B EQ PUSH2 0x3FC JUMPI PUSH2 0x1D9 JUMP JUMPDEST DUP1 PUSH4 0x30E995A6 GT PUSH2 0x17C JUMPI DUP1 PUSH4 0x5A7256C7 GT PUSH2 0x14B JUMPI DUP1 PUSH4 0x5A7256C7 EQ PUSH2 0x364 JUMPI DUP1 PUSH4 0x5C975ABB EQ PUSH2 0x380 JUMPI DUP1 PUSH4 0x6B20C454 EQ PUSH2 0x39E JUMPI DUP1 PUSH4 0x715018A6 EQ PUSH2 0x3BA JUMPI PUSH2 0x1D9 JUMP JUMPDEST DUP1 PUSH4 0x30E995A6 EQ PUSH2 0x2DE JUMPI DUP1 PUSH4 0x3F4BA83A EQ PUSH2 0x2FA JUMPI DUP1 PUSH4 0x4E1273F4 EQ PUSH2 0x304 JUMPI DUP1 PUSH4 0x4F558E79 EQ PUSH2 0x334 JUMPI PUSH2 0x1D9 JUMP JUMPDEST DUP1 PUSH4 0xE89341C GT PUSH2 0x1B8 JUMPI DUP1 PUSH4 0xE89341C EQ PUSH2 0x25A JUMPI DUP1 PUSH4 0x162094C4 EQ PUSH2 0x28A JUMPI DUP1 PUSH4 0x1F7FDFFA EQ PUSH2 0x2A6 JUMPI DUP1 PUSH4 0x2EB2C2D6 EQ PUSH2 0x2C2 JUMPI PUSH2 0x1D9 JUMP JUMPDEST DUP1 PUSH3 0xFDD58E EQ PUSH2 0x1DE JUMPI DUP1 PUSH4 0x1FFC9A7 EQ PUSH2 0x20E JUMPI DUP1 PUSH4 0x2FE5305 EQ PUSH2 0x23E JUMPI JUMPDEST PUSH1 0x0 DUP1 REVERT JUMPDEST PUSH2 0x1F8 PUSH1 0x4 DUP1 CALLDATASIZE SUB DUP2 ADD SWAP1 PUSH2 0x1F3 SWAP2 SWAP1 PUSH2 0x3CDF JUMP JUMPDEST PUSH2 0x584 JUMP JUMPDEST PUSH1 0x40 MLOAD PUSH2 0x205 SWAP2 SWAP1 PUSH2 0x4B59 JUMP JUMPDEST PUSH1 0x40 MLOAD DUP1 SWAP2 SUB SWAP1 RETURN JUMPDEST PUSH2 0x228 PUSH1 0x4 DUP1 CALLDATASIZE SUB DUP2 ADD SWAP1 PUSH2 0x223 SWAP2 SWAP1 PUSH2 0x3EDC JUMP JUMPDEST PUSH2 0x64D JUMP JUMPDEST PUSH1 0x40 MLOAD PUSH2 0x235 SWAP2 SWAP1 PUSH2 0x47DC JUMP JUMPDEST PUSH1 0x40 MLOAD DUP1 SWAP2 SUB SWAP1 RETURN JUMPDEST PUSH2 0x258 PUSH1 0x4 DUP1 CALLDATASIZE SUB DUP2 ADD SWAP1 PUSH2 0x253 SWAP2 SWAP1 PUSH2 0x3F36 JUMP JUMPDEST PUSH2 0x72F JUMP JUMPDEST STOP JUMPDEST PUSH2 0x274 PUSH1 0x4 DUP1 CALLDATASIZE SUB DUP2 ADD SWAP1 PUSH2 0x26F SWAP2 SWAP1 PUSH2 0x3FDB JUMP JUMPDEST PUSH2 0x7B7 JUMP JUMPDEST PUSH1 0x40 MLOAD PUSH2 0x281 SWAP2 SWAP1 PUSH2 0x47F7 JUMP JUMPDEST PUSH1 0x40 MLOAD DUP1 SWAP2 SUB SWAP1 RETURN JUMPDEST PUSH2 0x2A4 PUSH1 0x4 DUP1 CALLDATASIZE SUB DUP2 ADD SWAP1 PUSH2 0x29F SWAP2 SWAP1 PUSH2 0x4008 JUMP JUMPDEST PUSH2 0x7C9 JUMP JUMPDEST STOP JUMPDEST PUSH2 0x2C0 PUSH1 0x4 DUP1 CALLDATASIZE SUB DUP2 ADD SWAP1 PUSH2 0x2BB SWAP2 SWAP1 PUSH2 0x3B59 JUMP JUMPDEST PUSH2 0x853 JUMP JUMPDEST STOP JUMPDEST PUSH2 0x2DC PUSH1 0x4 DUP1 CALLDATASIZE SUB DUP2 ADD SWAP1 PUSH2 0x2D7 SWAP2 SWAP1 PUSH2 0x3968 JUMP JUMPDEST PUSH2 0x9F7 JUMP JUMPDEST STOP JUMPDEST PUSH2 0x2F8 PUSH1 0x4 DUP1 CALLDATASIZE SUB DUP2 ADD SWAP1 PUSH2 0x2F3 SWAP2 SWAP1 PUSH2 0x3F36 JUMP JUMPDEST PUSH2 0xA98 JUMP JUMPDEST STOP JUMPDEST PUSH2 0x302 PUSH2 0xB2E JUMP JUMPDEST STOP JUMPDEST PUSH2 0x31E PUSH1 0x4 DUP1 CALLDATASIZE SUB DUP2 ADD SWAP1 PUSH2 0x319 SWAP2 SWAP1 PUSH2 0x3E64 JUMP JUMPDEST PUSH2 0xBB4 JUMP JUMPDEST PUSH1 0x40 MLOAD PUSH2 0x32B SWAP2 SWAP1 PUSH2 0x4783 JUMP JUMPDEST PUSH1 0x40 MLOAD DUP1 SWAP2 SUB SWAP1 RETURN JUMPDEST PUSH2 0x34E PUSH1 0x4 DUP1 CALLDATASIZE SUB DUP2 ADD SWAP1 PUSH2 0x349 SWAP2 SWAP1 PUSH2 0x3FDB JUMP JUMPDEST PUSH2 0xCCD JUMP JUMPDEST PUSH1 0x40 MLOAD PUSH2 0x35B SWAP2 SWAP1 PUSH2 0x47DC JUMP JUMPDEST PUSH1 0x40 MLOAD DUP1 SWAP2 SUB SWAP1 RETURN JUMPDEST PUSH2 0x37E PUSH1 0x4 DUP1 CALLDATASIZE SUB DUP2 ADD SWAP1 PUSH2 0x379 SWAP2 SWAP1 PUSH2 0x3F7F JUMP JUMPDEST PUSH2 0xCE1 JUMP JUMPDEST STOP JUMPDEST PUSH2 0x388 PUSH2 0xD99 JUMP JUMPDEST PUSH1 0x40 MLOAD PUSH2 0x395 SWAP2 SWAP1 PUSH2 0x47DC JUMP JUMPDEST PUSH1 0x40 MLOAD DUP1 SWAP2 SUB SWAP1 RETURN JUMPDEST PUSH2 0x3B8 PUSH1 0x4 DUP1 CALLDATASIZE SUB DUP2 ADD SWAP1 PUSH2 0x3B3 SWAP2 SWAP1 PUSH2 0x3ACE JUMP JUMPDEST PUSH2 0xDB0 JUMP JUMPDEST STOP JUMPDEST PUSH2 0x3C2 PUSH2 0xE4D JUMP JUMPDEST STOP JUMPDEST PUSH2 0x3DE PUSH1 0x4 DUP1 CALLDATASIZE SUB DUP2 ADD SWAP1 PUSH2 0x3D9 SWAP2 SWAP1 PUSH2 0x3DE1 JUMP JUMPDEST PUSH2 0xED5 JUMP JUMPDEST STOP JUMPDEST PUSH2 0x3FA PUSH1 0x4 DUP1 CALLDATASIZE SUB DUP2 ADD SWAP1 PUSH2 0x3F5 SWAP2 SWAP1 PUSH2 0x3D1F JUMP JUMPDEST PUSH2 0x1025 JUMP JUMPDEST STOP JUMPDEST PUSH2 0x416 PUSH1 0x4 DUP1 CALLDATASIZE SUB DUP2 ADD SWAP1 PUSH2 0x411 SWAP2 SWAP1 PUSH2 0x3FDB JUMP JUMPDEST PUSH2 0x12B2 JUMP JUMPDEST STOP JUMPDEST PUSH2 0x420 PUSH2 0x1338 JUMP JUMPDEST STOP JUMPDEST PUSH2 0x42A PUSH2 0x13BE JUMP JUMPDEST PUSH1 0x40 MLOAD PUSH2 0x437 SWAP2 SWAP1 PUSH2 0x45CA JUMP JUMPDEST PUSH1 0x40 MLOAD DUP1 SWAP2 SUB SWAP1 RETURN JUMPDEST PUSH2 0x45A PUSH1 0x4 DUP1 CALLDATASIZE SUB DUP2 ADD SWAP1 PUSH2 0x455 SWAP2 SWAP1 PUSH2 0x38FB JUMP JUMPDEST PUSH2 0x13E8 JUMP JUMPDEST STOP JUMPDEST PUSH2 0x476 PUSH1 0x4 DUP1 CALLDATASIZE SUB DUP2 ADD SWAP1 PUSH2 0x471 SWAP2 SWAP1 PUSH2 0x3C9F JUMP JUMPDEST PUSH2 0x14A8 JUMP JUMPDEST STOP JUMPDEST PUSH2 0x492 PUSH1 0x4 DUP1 CALLDATASIZE SUB DUP2 ADD SWAP1 PUSH2 0x48D SWAP2 SWAP1 PUSH2 0x3C14 JUMP JUMPDEST PUSH2 0x14BE JUMP JUMPDEST STOP JUMPDEST PUSH2 0x4AE PUSH1 0x4 DUP1 CALLDATASIZE SUB DUP2 ADD SWAP1 PUSH2 0x4A9 SWAP2 SWAP1 PUSH2 0x3FDB JUMP JUMPDEST PUSH2 0x1770 JUMP JUMPDEST PUSH1 0x40 MLOAD PUSH2 0x4BB SWAP2 SWAP1 PUSH2 0x4B59 JUMP JUMPDEST PUSH1 0x40 MLOAD DUP1 SWAP2 SUB SWAP1 RETURN JUMPDEST PUSH2 0x4CC PUSH2 0x178D JUMP JUMPDEST PUSH1 0x40 MLOAD PUSH2 0x4D9 SWAP2 SWAP1 PUSH2 0x4B59 JUMP JUMPDEST PUSH1 0x40 MLOAD DUP1 SWAP2 SUB SWAP1 RETURN JUMPDEST PUSH2 0x4EA PUSH2 0x1793 JUMP JUMPDEST PUSH1 0x40 MLOAD PUSH2 0x4F7 SWAP2 SWAP1 PUSH2 0x47F7 JUMP JUMPDEST PUSH1 0x40 MLOAD DUP1 SWAP2 SUB SWAP1 RETURN JUMPDEST PUSH2 0x51A PUSH1 0x4 DUP1 CALLDATASIZE SUB DUP2 ADD SWAP1 PUSH2 0x515 SWAP2 SWAP1 PUSH2 0x3928 JUMP JUMPDEST PUSH2 0x1825 JUMP JUMPDEST PUSH1 0x40 MLOAD PUSH2 0x527 SWAP2 SWAP1 PUSH2 0x47DC JUMP JUMPDEST PUSH1 0x40 MLOAD DUP1 SWAP2 SUB SWAP1 RETURN JUMPDEST PUSH2 0x54A PUSH1 0x4 DUP1 CALLDATASIZE SUB DUP2 ADD SWAP1 PUSH2 0x545 SWAP2 SWAP1 PUSH2 0x3A37 JUMP JUMPDEST PUSH2 0x1899 JUMP JUMPDEST STOP JUMPDEST PUSH2 0x566 PUSH1 0x4 DUP1 CALLDATASIZE SUB DUP2 ADD SWAP1 PUSH2 0x561 SWAP2 SWAP1 PUSH2 0x38FB JUMP JUMPDEST PUSH2 0x193A JUMP JUMPDEST STOP JUMPDEST PUSH2 0x582 PUSH1 0x4 DUP1 CALLDATASIZE SUB DUP2 ADD SWAP1 PUSH2 0x57D SWAP2 SWAP1 PUSH2 0x3D8E JUMP JUMPDEST PUSH2 0x1A32 JUMP JUMPDEST STOP JUMPDEST PUSH1 0x0 DUP1 PUSH20 0xFFFFFFFFFFFFFFFFFFFFFFFFFFFFFFFFFFFFFFFF AND DUP4 PUSH20 0xFFFFFFFFFFFFFFFFFFFFFFFFFFFFFFFFFFFFFFFF AND EQ ISZERO PUSH2 0x5F5 JUMPI PUSH1 0x40 MLOAD PUSH32 0x8C379A000000000000000000000000000000000000000000000000000000000 DUP2 MSTORE PUSH1 0x4 ADD PUSH2 0x5EC SWAP1 PUSH2 0x4899 JUMP JUMPDEST PUSH1 0x40 MLOAD DUP1 SWAP2 SUB SWAP1 REVERT JUMPDEST PUSH1 0x0 DUP1 DUP4 DUP2 MSTORE PUSH1 0x20 ADD SWAP1 DUP2 MSTORE PUSH1 0x20 ADD PUSH1 0x0 KECCAK256 PUSH1 0x0 DUP5 PUSH20 0xFFFFFFFFFFFFFFFFFFFFFFFFFFFFFFFFFFFFFFFF AND PUSH20 0xFFFFFFFFFFFFFFFFFFFFFFFFFFFFFFFFFFFFFFFF AND DUP2 MSTORE PUSH1 0x20 ADD SWAP1 DUP2 MSTORE PUSH1 0x20 ADD PUSH1 0x0 KECCAK256 SLOAD SWAP1 POP SWAP3 SWAP2 POP POP JUMP JUMPDEST PUSH1 0x0 PUSH32 0xD9B67A2600000000000000000000000000000000000000000000000000000000 PUSH28 0xFFFFFFFFFFFFFFFFFFFFFFFFFFFFFFFFFFFFFFFFFFFFFFFFFFFFFFFF NOT AND DUP3 PUSH28 0xFFFFFFFFFFFFFFFFFFFFFFFFFFFFFFFFFFFFFFFFFFFFFFFFFFFFFFFF NOT AND EQ DUP1 PUSH2 0x718 JUMPI POP PUSH32 0xE89341C00000000000000000000000000000000000000000000000000000000 PUSH28 0xFFFFFFFFFFFFFFFFFFFFFFFFFFFFFFFFFFFFFFFFFFFFFFFFFFFFFFFF NOT AND DUP3 PUSH28 0xFFFFFFFFFFFFFFFFFFFFFFFFFFFFFFFFFFFFFFFFFFFFFFFFFFFFFFFF NOT AND EQ JUMPDEST DUP1 PUSH2 0x728 JUMPI POP PUSH2 0x727 DUP3 PUSH2 0x1ACF JUMP JUMPDEST JUMPDEST SWAP1 POP SWAP2 SWAP1 POP JUMP JUMPDEST PUSH2 0x737 PUSH2 0x1B39 JUMP JUMPDEST PUSH20 0xFFFFFFFFFFFFFFFFFFFFFFFFFFFFFFFFFFFFFFFF AND PUSH2 0x755 PUSH2 0x13BE JUMP JUMPDEST PUSH20 0xFFFFFFFFFFFFFFFFFFFFFFFFFFFFFFFFFFFFFFFF AND EQ PUSH2 0x7AB JUMPI PUSH1 0x40 MLOAD PUSH32 0x8C379A000000000000000000000000000000000000000000000000000000000 DUP2 MSTORE PUSH1 0x4 ADD PUSH2 0x7A2 SWAP1 PUSH2 0x4A59 JUMP JUMPDEST PUSH1 0x40 MLOAD DUP1 SWAP2 SUB SWAP1 REVERT JUMPDEST PUSH2 0x7B4 DUP2 PUSH2 0x1B41 JUMP JUMPDEST POP JUMP JUMPDEST PUSH1 0x60 PUSH2 0x7C2 DUP3 PUSH2 0x1B5B JUMP JUMPDEST SWAP1 POP SWAP2 SWAP1 POP JUMP JUMPDEST PUSH2 0x7D1 PUSH2 0x1B39 JUMP JUMPDEST PUSH20 0xFFFFFFFFFFFFFFFFFFFFFFFFFFFFFFFFFFFFFFFF AND PUSH2 0x7EF PUSH2 0x13BE JUMP JUMPDEST PUSH20 0xFFFFFFFFFFFFFFFFFFFFFFFFFFFFFFFFFFFFFFFF AND EQ PUSH2 0x845 JUMPI PUSH1 0x40 MLOAD PUSH32 0x8C379A000000000000000000000000000000000000000000000000000000000 DUP2 MSTORE PUSH1 0x4 ADD PUSH2 0x83C SWAP1 PUSH2 0x4A59 JUMP JUMPDEST PUSH1 0x40 MLOAD DUP1 SWAP2 SUB SWAP1 REVERT JUMPDEST PUSH2 0x84F DUP3 DUP3 PUSH2 0x1CA4 JUMP JUMPDEST POP POP JUMP JUMPDEST PUSH2 0x85B PUSH2 0x1B39 JUMP JUMPDEST PUSH20 0xFFFFFFFFFFFFFFFFFFFFFFFFFFFFFFFFFFFFFFFF AND PUSH2 0x879 PUSH2 0x13BE JUMP JUMPDEST PUSH20 0xFFFFFFFFFFFFFFFFFFFFFFFFFFFFFFFFFFFFFFFF AND EQ PUSH2 0x8CF JUMPI PUSH1 0x40 MLOAD PUSH32 0x8C379A000000000000000000000000000000000000000000000000000000000 DUP2 MSTORE PUSH1 0x4 ADD PUSH2 0x8C6 SWAP1 PUSH2 0x4A59 JUMP JUMPDEST PUSH1 0x40 MLOAD DUP1 SWAP2 SUB SWAP1 REVERT JUMPDEST PUSH1 0x0 JUMPDEST DUP4 MLOAD DUP2 LT ISZERO PUSH2 0x9A9 JUMPI PUSH1 0x0 DUP5 DUP3 DUP2 MLOAD DUP2 LT PUSH2 0x8F0 JUMPI PUSH2 0x8EF PUSH2 0x51B0 JUMP JUMPDEST JUMPDEST PUSH1 0x20 MUL PUSH1 0x20 ADD ADD MLOAD GT PUSH2 0x938 JUMPI PUSH1 0x40 MLOAD PUSH32 0x8C379A000000000000000000000000000000000000000000000000000000000 DUP2 MSTORE PUSH1 0x4 ADD PUSH2 0x92F SWAP1 PUSH2 0x4AB9 JUMP JUMPDEST PUSH1 0x40 MLOAD DUP1 SWAP2 SUB SWAP1 REVERT JUMPDEST PUSH2 0x2710 DUP5 DUP3 DUP2 MLOAD DUP2 LT PUSH2 0x94E JUMPI PUSH2 0x94D PUSH2 0x51B0 JUMP JUMPDEST JUMPDEST PUSH1 0x20 MUL PUSH1 0x20 ADD ADD MLOAD LT PUSH2 0x996 JUMPI PUSH1 0x40 MLOAD PUSH32 0x8C379A000000000000000000000000000000000000000000000000000000000 DUP2 MSTORE PUSH1 0x4 ADD PUSH2 0x98D SWAP1 PUSH2 0x4A39 JUMP JUMPDEST PUSH1 0x40 MLOAD DUP1 SWAP2 SUB SWAP1 REVERT JUMPDEST DUP1 DUP1 PUSH2 0x9A1 SWAP1 PUSH2 0x50A9 JUMP JUMPDEST SWAP2 POP POP PUSH2 0x8D2 JUMP JUMPDEST POP PUSH2 0x9B6 DUP5 DUP5 DUP5 DUP5 PUSH2 0x1CD0 JUMP JUMPDEST PUSH32 0x9D15FE863D6D778932C2425AAB5DE66F2FCC03F779B90C593D26EE152FBBE871 DUP5 DUP5 DUP5 PUSH1 0x40 MLOAD PUSH2 0x9E9 SWAP4 SWAP3 SWAP2 SWAP1 PUSH2 0x46A7 JUMP JUMPDEST PUSH1 0x40 MLOAD DUP1 SWAP2 SUB SWAP1 LOG1 POP POP POP POP JUMP JUMPDEST PUSH2 0x9FF PUSH2 0x1B39 JUMP JUMPDEST PUSH20 0xFFFFFFFFFFFFFFFFFFFFFFFFFFFFFFFFFFFFFFFF AND DUP6 PUSH20 0xFFFFFFFFFFFFFFFFFFFFFFFFFFFFFFFFFFFFFFFF AND EQ DUP1 PUSH2 0xA45 JUMPI POP PUSH2 0xA44 DUP6 PUSH2 0xA3F PUSH2 0x1B39 JUMP JUMPDEST PUSH2 0x1825 JUMP JUMPDEST JUMPDEST PUSH2 0xA84 JUMPI PUSH1 0x40 MLOAD PUSH32 0x8C379A000000000000000000000000000000000000000000000000000000000 DUP2 MSTORE PUSH1 0x4 ADD PUSH2 0xA7B SWAP1 PUSH2 0x49D9 JUMP JUMPDEST PUSH1 0x40 MLOAD DUP1 SWAP2 SUB SWAP1 REVERT JUMPDEST PUSH2 0xA91 DUP6 DUP6 DUP6 DUP6 DUP6 PUSH2 0x1EEE JUMP JUMPDEST POP POP POP POP POP JUMP JUMPDEST PUSH2 0xAA0 PUSH2 0x1B39 JUMP JUMPDEST PUSH20 0xFFFFFFFFFFFFFFFFFFFFFFFFFFFFFFFFFFFFFFFF AND PUSH2 0xABE PUSH2 0x13BE JUMP JUMPDEST PUSH20 0xFFFFFFFFFFFFFFFFFFFFFFFFFFFFFFFFFFFFFFFF AND EQ PUSH2 0xB14 JUMPI PUSH1 0x40 MLOAD PUSH32 0x8C379A000000000000000000000000000000000000000000000000000000000 DUP2 MSTORE PUSH1 0x4 ADD PUSH2 0xB0B SWAP1 PUSH2 0x4A59 JUMP JUMPDEST PUSH1 0x40 MLOAD DUP1 SWAP2 SUB SWAP1 REVERT JUMPDEST DUP1 PUSH1 0x6 SWAP1 DUP1 MLOAD SWAP1 PUSH1 0x20 ADD SWAP1 PUSH2 0xB2A SWAP3 SWAP2 SWAP1 PUSH2 0x35D3 JUMP JUMPDEST POP POP JUMP JUMPDEST PUSH2 0xB36 PUSH2 0x1B39 JUMP JUMPDEST PUSH20 0xFFFFFFFFFFFFFFFFFFFFFFFFFFFFFFFFFFFFFFFF AND PUSH2 0xB54 PUSH2 0x13BE JUMP JUMPDEST PUSH20 0xFFFFFFFFFFFFFFFFFFFFFFFFFFFFFFFFFFFFFFFF AND EQ PUSH2 0xBAA JUMPI PUSH1 0x40 MLOAD PUSH32 0x8C379A000000000000000000000000000000000000000000000000000000000 DUP2 MSTORE PUSH1 0x4 ADD PUSH2 0xBA1 SWAP1 PUSH2 0x4A59 JUMP JUMPDEST PUSH1 0x40 MLOAD DUP1 SWAP2 SUB SWAP1 REVERT JUMPDEST PUSH2 0xBB2 PUSH2 0x2202 JUMP JUMPDEST JUMP JUMPDEST PUSH1 0x60 DUP2 MLOAD DUP4 MLOAD EQ PUSH2 0xBFA JUMPI PUSH1 0x40 MLOAD PUSH32 0x8C379A000000000000000000000000000000000000000000000000000000000 DUP2 MSTORE PUSH1 0x4 ADD PUSH2 0xBF1 SWAP1 PUSH2 0x4AF9 JUMP JUMPDEST PUSH1 0x40 MLOAD DUP1 SWAP2 SUB SWAP1 REVERT JUMPDEST PUSH1 0x0 DUP4 MLOAD PUSH8 0xFFFFFFFFFFFFFFFF DUP2 GT ISZERO PUSH2 0xC17 JUMPI PUSH2 0xC16 PUSH2 0x51DF JUMP JUMPDEST JUMPDEST PUSH1 0x40 MLOAD SWAP1 DUP1 DUP3 MSTORE DUP1 PUSH1 0x20 MUL PUSH1 0x20 ADD DUP3 ADD PUSH1 0x40 MSTORE DUP1 ISZERO PUSH2 0xC45 JUMPI DUP2 PUSH1 0x20 ADD PUSH1 0x20 DUP3 MUL DUP1 CALLDATASIZE DUP4 CALLDATACOPY DUP1 DUP3 ADD SWAP2 POP POP SWAP1 POP JUMPDEST POP SWAP1 POP PUSH1 0x0 JUMPDEST DUP5 MLOAD DUP2 LT ISZERO PUSH2 0xCC2 JUMPI PUSH2 0xC92 DUP6 DUP3 DUP2 MLOAD DUP2 LT PUSH2 0xC6A JUMPI PUSH2 0xC69 PUSH2 0x51B0 JUMP JUMPDEST JUMPDEST PUSH1 0x20 MUL PUSH1 0x20 ADD ADD MLOAD DUP6 DUP4 DUP2 MLOAD DUP2 LT PUSH2 0xC85 JUMPI PUSH2 0xC84 PUSH2 0x51B0 JUMP JUMPDEST JUMPDEST PUSH1 0x20 MUL PUSH1 0x20 ADD ADD MLOAD PUSH2 0x584 JUMP JUMPDEST DUP3 DUP3 DUP2 MLOAD DUP2 LT PUSH2 0xCA5 JUMPI PUSH2 0xCA4 PUSH2 0x51B0 JUMP JUMPDEST JUMPDEST PUSH1 0x20 MUL PUSH1 0x20 ADD ADD DUP2 DUP2 MSTORE POP POP DUP1 PUSH2 0xCBB SWAP1 PUSH2 0x50A9 JUMP JUMPDEST SWAP1 POP PUSH2 0xC4B JUMP JUMPDEST POP DUP1 SWAP2 POP POP SWAP3 SWAP2 POP POP JUMP JUMPDEST PUSH1 0x0 DUP1 PUSH2 0xCD9 DUP4 PUSH2 0x1770 JUMP JUMPDEST GT SWAP1 POP SWAP2 SWAP1 POP JUMP JUMPDEST PUSH2 0xCE9 PUSH2 0x1B39 JUMP JUMPDEST PUSH20 0xFFFFFFFFFFFFFFFFFFFFFFFFFFFFFFFFFFFFFFFF AND PUSH2 0xD07 PUSH2 0x13BE JUMP JUMPDEST PUSH20 0xFFFFFFFFFFFFFFFFFFFFFFFFFFFFFFFFFFFFFFFF AND EQ PUSH2 0xD5D JUMPI PUSH1 0x40 MLOAD PUSH32 0x8C379A000000000000000000000000000000000000000000000000000000000 DUP2 MSTORE PUSH1 0x4 ADD PUSH2 0xD54 SWAP1 PUSH2 0x4A59 JUMP JUMPDEST PUSH1 0x40 MLOAD DUP1 SWAP2 SUB SWAP1 REVERT JUMPDEST DUP1 PUSH32 0xA109BA539900BF1B633F956D63C96FC89B814C7287F7AA50A9216D0B55657207 DUP4 PUSH1 0x40 MLOAD PUSH2 0xD8D SWAP2 SWAP1 PUSH2 0x47F7 JUMP JUMPDEST PUSH1 0x40 MLOAD DUP1 SWAP2 SUB SWAP1 LOG2 POP POP JUMP JUMPDEST PUSH1 0x0 PUSH1 0x3 PUSH1 0x14 SWAP1 SLOAD SWAP1 PUSH2 0x100 EXP SWAP1 DIV PUSH1 0xFF AND SWAP1 POP SWAP1 JUMP JUMPDEST PUSH2 0xDB8 PUSH2 0x1B39 JUMP JUMPDEST PUSH20 0xFFFFFFFFFFFFFFFFFFFFFFFFFFFFFFFFFFFFFFFF AND DUP4 PUSH20 0xFFFFFFFFFFFFFFFFFFFFFFFFFFFFFFFFFFFFFFFF AND EQ DUP1 PUSH2 0xDFE JUMPI POP PUSH2 0xDFD DUP4 PUSH2 0xDF8 PUSH2 0x1B39 JUMP JUMPDEST PUSH2 0x1825 JUMP JUMPDEST JUMPDEST PUSH2 0xE3D JUMPI PUSH1 0x40 MLOAD PUSH32 0x8C379A000000000000000000000000000000000000000000000000000000000 DUP2 MSTORE PUSH1 0x4 ADD PUSH2 0xE34 SWAP1 PUSH2 0x4939 JUMP JUMPDEST PUSH1 0x40 MLOAD DUP1 SWAP2 SUB SWAP1 REVERT JUMPDEST PUSH2 0xE48 DUP4 DUP4 DUP4 PUSH2 0x22A4 JUMP JUMPDEST POP POP POP JUMP JUMPDEST PUSH2 0xE55 PUSH2 0x1B39 JUMP JUMPDEST PUSH20 0xFFFFFFFFFFFFFFFFFFFFFFFFFFFFFFFFFFFFFFFF AND PUSH2 0xE73 PUSH2 0x13BE JUMP JUMPDEST PUSH20 0xFFFFFFFFFFFFFFFFFFFFFFFFFFFFFFFFFFFFFFFF AND EQ PUSH2 0xEC9 JUMPI PUSH1 0x40 MLOAD PUSH32 0x8C379A000000000000000000000000000000000000000000000000000000000 DUP2 MSTORE PUSH1 0x4 ADD PUSH2 0xEC0 SWAP1 PUSH2 0x4A59 JUMP JUMPDEST PUSH1 0x40 MLOAD DUP1 SWAP2 SUB SWAP1 REVERT JUMPDEST PUSH2 0xED3 PUSH1 0x0 PUSH2 0x2555 JUMP JUMPDEST JUMP JUMPDEST PUSH2 0xEDD PUSH2 0x1B39 JUMP JUMPDEST PUSH20 0xFFFFFFFFFFFFFFFFFFFFFFFFFFFFFFFFFFFFFFFF AND PUSH2 0xEFB PUSH2 0x13BE JUMP JUMPDEST PUSH20 0xFFFFFFFFFFFFFFFFFFFFFFFFFFFFFFFFFFFFFFFF AND EQ PUSH2 0xF51 JUMPI PUSH1 0x40 MLOAD PUSH32 0x8C379A000000000000000000000000000000000000000000000000000000000 DUP2 MSTORE PUSH1 0x4 ADD PUSH2 0xF48 SWAP1 PUSH2 0x4A59 JUMP JUMPDEST PUSH1 0x40 MLOAD DUP1 SWAP2 SUB SWAP1 REVERT JUMPDEST PUSH1 0x0 DUP4 GT PUSH2 0xF94 JUMPI PUSH1 0x40 MLOAD PUSH32 0x8C379A000000000000000000000000000000000000000000000000000000000 DUP2 MSTORE PUSH1 0x4 ADD PUSH2 0xF8B SWAP1 PUSH2 0x4AB9 JUMP JUMPDEST PUSH1 0x40 MLOAD DUP1 SWAP2 SUB SWAP1 REVERT JUMPDEST PUSH2 0x2710 DUP4 LT PUSH2 0xFD8 JUMPI PUSH1 0x40 MLOAD PUSH32 0x8C379A000000000000000000000000000000000000000000000000000000000 DUP2 MSTORE PUSH1 0x4 ADD PUSH2 0xFCF SWAP1 PUSH2 0x4A39 JUMP JUMPDEST PUSH1 0x40 MLOAD DUP1 SWAP2 SUB SWAP1 REVERT JUMPDEST PUSH2 0xFE4 DUP5 DUP5 DUP5 DUP5 PUSH2 0x261B JUMP JUMPDEST PUSH32 0x25B428DFDE728CCFADDAD7E29E4AC23C24ED7FD1A6E3E3F91894A9A073F5DFFF DUP5 DUP5 DUP5 PUSH1 0x40 MLOAD PUSH2 0x1017 SWAP4 SWAP3 SWAP2 SWAP1 PUSH2 0x474C JUMP JUMPDEST PUSH1 0x40 MLOAD DUP1 SWAP2 SUB SWAP1 LOG1 POP POP POP POP JUMP JUMPDEST PUSH2 0x2710 DUP3 GT PUSH2 0x1069 JUMPI PUSH1 0x40 MLOAD PUSH32 0x8C379A000000000000000000000000000000000000000000000000000000000 DUP2 MSTORE PUSH1 0x4 ADD PUSH2 0x1060 SWAP1 PUSH2 0x4999 JUMP JUMPDEST PUSH1 0x40 MLOAD DUP1 SWAP2 SUB SWAP1 REVERT JUMPDEST PUSH1 0x0 DUP3 SWAP1 POP PUSH1 0x0 DUP1 DUP5 SWAP1 POP JUMPDEST PUSH1 0x0 DUP2 EQ PUSH2 0x10A0 JUMPI PUSH2 0x2710 DUP2 PUSH2 0x108B SWAP2 SWAP1 PUSH2 0x4D4E JUMP JUMPDEST SWAP1 POP DUP2 DUP1 PUSH2 0x1098 SWAP1 PUSH2 0x50A9 JUMP JUMPDEST SWAP3 POP POP PUSH2 0x1075 JUMP JUMPDEST PUSH1 0xB DUP3 LT PUSH2 0x10E3 JUMPI PUSH1 0x40 MLOAD PUSH32 0x8C379A000000000000000000000000000000000000000000000000000000000 DUP2 MSTORE PUSH1 0x4 ADD PUSH2 0x10DA SWAP1 PUSH2 0x4919 JUMP JUMPDEST PUSH1 0x40 MLOAD DUP1 SWAP2 SUB SWAP1 REVERT JUMPDEST PUSH2 0x10EF DUP7 DUP7 PUSH1 0x1 PUSH2 0x27B1 JUMP JUMPDEST PUSH1 0x0 DUP3 PUSH8 0xFFFFFFFFFFFFFFFF DUP2 GT ISZERO PUSH2 0x110B JUMPI PUSH2 0x110A PUSH2 0x51DF JUMP JUMPDEST JUMPDEST PUSH1 0x40 MLOAD SWAP1 DUP1 DUP3 MSTORE DUP1 PUSH1 0x20 MUL PUSH1 0x20 ADD DUP3 ADD PUSH1 0x40 MSTORE DUP1 ISZERO PUSH2 0x1139 JUMPI DUP2 PUSH1 0x20 ADD PUSH1 0x20 DUP3 MUL DUP1 CALLDATASIZE DUP4 CALLDATACOPY DUP1 DUP3 ADD SWAP2 POP POP SWAP1 POP JUMPDEST POP SWAP1 POP PUSH1 0x0 DUP4 PUSH8 0xFFFFFFFFFFFFFFFF DUP2 GT ISZERO PUSH2 0x1158 JUMPI PUSH2 0x1157 PUSH2 0x51DF JUMP JUMPDEST JUMPDEST PUSH1 0x40 MLOAD SWAP1 DUP1 DUP3 MSTORE DUP1 PUSH1 0x20 MUL PUSH1 0x20 ADD DUP3 ADD PUSH1 0x40 MSTORE DUP1 ISZERO PUSH2 0x1186 JUMPI DUP2 PUSH1 0x20 ADD PUSH1 0x20 DUP3 MUL DUP1 CALLDATASIZE DUP4 CALLDATACOPY DUP1 DUP3 ADD SWAP2 POP POP SWAP1 POP JUMPDEST POP SWAP1 POP PUSH1 0x0 JUMPDEST DUP5 DUP2 LT ISZERO PUSH2 0x1262 JUMPI PUSH2 0x2710 DUP9 PUSH2 0x11A2 SWAP2 SWAP1 PUSH2 0x50F2 JUMP JUMPDEST DUP4 DUP3 DUP2 MLOAD DUP2 LT PUSH2 0x11B5 JUMPI PUSH2 0x11B4 PUSH2 0x51B0 JUMP JUMPDEST JUMPDEST PUSH1 0x20 MUL PUSH1 0x20 ADD ADD DUP2 DUP2 MSTORE POP POP PUSH1 0x0 DUP4 DUP3 DUP2 MLOAD DUP2 LT PUSH2 0x11D6 JUMPI PUSH2 0x11D5 PUSH2 0x51B0 JUMP JUMPDEST JUMPDEST PUSH1 0x20 MUL PUSH1 0x20 ADD ADD MLOAD GT PUSH2 0x121E JUMPI PUSH1 0x40 MLOAD PUSH32 0x8C379A000000000000000000000000000000000000000000000000000000000 DUP2 MSTORE PUSH1 0x4 ADD PUSH2 0x1215 SWAP1 PUSH2 0x48D9 JUMP JUMPDEST PUSH1 0x40 MLOAD DUP1 SWAP2 SUB SWAP1 REVERT JUMPDEST PUSH1 0x1 DUP3 DUP3 DUP2 MLOAD DUP2 LT PUSH2 0x1233 JUMPI PUSH2 0x1232 PUSH2 0x51B0 JUMP JUMPDEST JUMPDEST PUSH1 0x20 MUL PUSH1 0x20 ADD ADD DUP2 DUP2 MSTORE POP POP PUSH2 0x2710 DUP9 PUSH2 0x124D SWAP2 SWAP1 PUSH2 0x4D4E JUMP JUMPDEST SWAP8 POP DUP1 DUP1 PUSH2 0x125A SWAP1 PUSH2 0x50A9 JUMP JUMPDEST SWAP2 POP POP PUSH2 0x118C JUMP JUMPDEST POP PUSH2 0x126F DUP9 DUP4 DUP4 DUP10 PUSH2 0x1CD0 JUMP JUMPDEST PUSH32 0xE1665329182BC1DAB50C9B04EA6BD37107B73ED7C585951D808B02CD9B659627 DUP9 DUP7 PUSH1 0x40 MLOAD PUSH2 0x12A0 SWAP3 SWAP2 SWAP1 PUSH2 0x46EC JUMP JUMPDEST PUSH1 0x40 MLOAD DUP1 SWAP2 SUB SWAP1 LOG1 POP POP POP POP POP POP POP POP JUMP JUMPDEST PUSH2 0x12BA PUSH2 0x1B39 JUMP JUMPDEST PUSH20 0xFFFFFFFFFFFFFFFFFFFFFFFFFFFFFFFFFFFFFFFF AND PUSH2 0x12D8 PUSH2 0x13BE JUMP JUMPDEST PUSH20 0xFFFFFFFFFFFFFFFFFFFFFFFFFFFFFFFFFFFFFFFF AND EQ PUSH2 0x132E JUMPI PUSH1 0x40 MLOAD PUSH32 0x8C379A000000000000000000000000000000000000000000000000000000000 DUP2 MSTORE PUSH1 0x4 ADD PUSH2 0x1325 SWAP1 PUSH2 0x4A59 JUMP JUMPDEST PUSH1 0x40 MLOAD DUP1 SWAP2 SUB SWAP1 REVERT JUMPDEST DUP1 PUSH1 0x7 DUP2 SWAP1 SSTORE POP POP JUMP JUMPDEST PUSH2 0x1340 PUSH2 0x1B39 JUMP JUMPDEST PUSH20 0xFFFFFFFFFFFFFFFFFFFFFFFFFFFFFFFFFFFFFFFF AND PUSH2 0x135E PUSH2 0x13BE JUMP JUMPDEST PUSH20 0xFFFFFFFFFFFFFFFFFFFFFFFFFFFFFFFFFFFFFFFF AND EQ PUSH2 0x13B4 JUMPI PUSH1 0x40 MLOAD PUSH32 0x8C379A000000000000000000000000000000000000000000000000000000000 DUP2 MSTORE PUSH1 0x4 ADD PUSH2 0x13AB SWAP1 PUSH2 0x4A59 JUMP JUMPDEST PUSH1 0x40 MLOAD DUP1 SWAP2 SUB SWAP1 REVERT JUMPDEST PUSH2 0x13BC PUSH2 0x29CE JUMP JUMPDEST JUMP JUMPDEST PUSH1 0x0 PUSH1 0x3 PUSH1 0x0 SWAP1 SLOAD SWAP1 PUSH2 0x100 EXP SWAP1 DIV PUSH20 0xFFFFFFFFFFFFFFFFFFFFFFFFFFFFFFFFFFFFFFFF AND SWAP1 POP SWAP1 JUMP JUMPDEST PUSH2 0x13F0 PUSH2 0x1B39 JUMP JUMPDEST PUSH20 0xFFFFFFFFFFFFFFFFFFFFFFFFFFFFFFFFFFFFFFFF AND PUSH2 0x140E PUSH2 0x13BE JUMP JUMPDEST PUSH20 0xFFFFFFFFFFFFFFFFFFFFFFFFFFFFFFFFFFFFFFFF AND EQ PUSH2 0x1464 JUMPI PUSH1 0x40 MLOAD PUSH32 0x8C379A000000000000000000000000000000000000000000000000000000000 DUP2 MSTORE PUSH1 0x4 ADD PUSH2 0x145B SWAP1 PUSH2 0x4A59 JUMP JUMPDEST PUSH1 0x40 MLOAD DUP1 SWAP2 SUB SWAP1 REVERT JUMPDEST DUP1 PUSH1 0x8 PUSH1 0x0 PUSH2 0x100 EXP DUP2 SLOAD DUP2 PUSH20 0xFFFFFFFFFFFFFFFFFFFFFFFFFFFFFFFFFFFFFFFF MUL NOT AND SWAP1 DUP4 PUSH20 0xFFFFFFFFFFFFFFFFFFFFFFFFFFFFFFFFFFFFFFFF AND MUL OR SWAP1 SSTORE POP POP JUMP JUMPDEST PUSH2 0x14BA PUSH2 0x14B3 PUSH2 0x1B39 JUMP JUMPDEST DUP4 DUP4 PUSH2 0x2A71 JUMP JUMPDEST POP POP JUMP JUMPDEST PUSH1 0x1 DUP3 MLOAD GT PUSH2 0x1502 JUMPI PUSH1 0x40 MLOAD PUSH32 0x8C379A000000000000000000000000000000000000000000000000000000000 DUP2 MSTORE PUSH1 0x4 ADD PUSH2 0x14F9 SWAP1 PUSH2 0x4959 JUMP JUMPDEST PUSH1 0x40 MLOAD DUP1 SWAP2 SUB SWAP1 REVERT JUMPDEST PUSH1 0xB DUP3 MLOAD LT PUSH2 0x1546 JUMPI PUSH1 0x40 MLOAD PUSH32 0x8C379A000000000000000000000000000000000000000000000000000000000 DUP2 MSTORE PUSH1 0x4 ADD PUSH2 0x153D SWAP1 PUSH2 0x4A99 JUMP JUMPDEST PUSH1 0x40 MLOAD DUP1 SWAP2 SUB SWAP1 REVERT JUMPDEST PUSH1 0x0 DUP1 DUP4 MLOAD PUSH8 0xFFFFFFFFFFFFFFFF DUP2 GT ISZERO PUSH2 0x1564 JUMPI PUSH2 0x1563 PUSH2 0x51DF JUMP JUMPDEST JUMPDEST PUSH1 0x40 MLOAD SWAP1 DUP1 DUP3 MSTORE DUP1 PUSH1 0x20 MUL PUSH1 0x20 ADD DUP3 ADD PUSH1 0x40 MSTORE DUP1 ISZERO PUSH2 0x1592 JUMPI DUP2 PUSH1 0x20 ADD PUSH1 0x20 DUP3 MUL DUP1 CALLDATASIZE DUP4 CALLDATACOPY DUP1 DUP3 ADD SWAP2 POP POP SWAP1 POP JUMPDEST POP SWAP1 POP PUSH1 0x0 JUMPDEST DUP5 MLOAD DUP2 LT ISZERO PUSH2 0x16D0 JUMPI PUSH2 0x2710 DUP6 DUP3 DUP2 MLOAD DUP2 LT PUSH2 0x15B7 JUMPI PUSH2 0x15B6 PUSH2 0x51B0 JUMP JUMPDEST JUMPDEST PUSH1 0x20 MUL PUSH1 0x20 ADD ADD MLOAD LT PUSH2 0x15FF JUMPI PUSH1 0x40 MLOAD PUSH32 0x8C379A000000000000000000000000000000000000000000000000000000000 DUP2 MSTORE PUSH1 0x4 ADD PUSH2 0x15F6 SWAP1 PUSH2 0x4A79 JUMP JUMPDEST PUSH1 0x40 MLOAD DUP1 SWAP2 SUB SWAP1 REVERT JUMPDEST PUSH1 0x0 DUP6 DUP3 DUP2 MLOAD DUP2 LT PUSH2 0x1614 JUMPI PUSH2 0x1613 PUSH2 0x51B0 JUMP JUMPDEST JUMPDEST PUSH1 0x20 MUL PUSH1 0x20 ADD ADD MLOAD GT PUSH2 0x165C JUMPI PUSH1 0x40 MLOAD PUSH32 0x8C379A000000000000000000000000000000000000000000000000000000000 DUP2 MSTORE PUSH1 0x4 ADD PUSH2 0x1653 SWAP1 PUSH2 0x48D9 JUMP JUMPDEST PUSH1 0x40 MLOAD DUP1 SWAP2 SUB SWAP1 REVERT JUMPDEST DUP1 PUSH2 0x2710 PUSH2 0x166A SWAP2 SWAP1 PUSH2 0x4DD2 JUMP JUMPDEST DUP6 DUP3 DUP2 MLOAD DUP2 LT PUSH2 0x167D JUMPI PUSH2 0x167C PUSH2 0x51B0 JUMP JUMPDEST JUMPDEST PUSH1 0x20 MUL PUSH1 0x20 ADD ADD MLOAD PUSH2 0x168F SWAP2 SWAP1 PUSH2 0x4EF0 JUMP JUMPDEST DUP4 PUSH2 0x169A SWAP2 SWAP1 PUSH2 0x4CF8 JUMP JUMPDEST SWAP3 POP PUSH1 0x1 DUP3 DUP3 DUP2 MLOAD DUP2 LT PUSH2 0x16B1 JUMPI PUSH2 0x16B0 PUSH2 0x51B0 JUMP JUMPDEST JUMPDEST PUSH1 0x20 MUL PUSH1 0x20 ADD ADD DUP2 DUP2 MSTORE POP POP DUP1 DUP1 PUSH2 0x16C8 SWAP1 PUSH2 0x50A9 JUMP JUMPDEST SWAP2 POP POP PUSH2 0x1598 JUMP JUMPDEST POP PUSH2 0x2710 DUP3 GT PUSH2 0x1715 JUMPI PUSH1 0x40 MLOAD PUSH32 0x8C379A000000000000000000000000000000000000000000000000000000000 DUP2 MSTORE PUSH1 0x4 ADD PUSH2 0x170C SWAP1 PUSH2 0x4879 JUMP JUMPDEST PUSH1 0x40 MLOAD DUP1 SWAP2 SUB SWAP1 REVERT JUMPDEST PUSH2 0x1720 DUP6 DUP6 DUP4 PUSH2 0x22A4 JUMP JUMPDEST PUSH2 0x172D DUP6 DUP4 PUSH1 0x1 DUP7 PUSH2 0x261B JUMP JUMPDEST PUSH32 0x25B428DFDE728CCFADDAD7E29E4AC23C24ED7FD1A6E3E3F91894A9A073F5DFFF DUP6 DUP4 PUSH1 0x1 PUSH1 0x40 MLOAD PUSH2 0x1761 SWAP4 SWAP3 SWAP2 SWAP1 PUSH2 0x4715 JUMP JUMPDEST PUSH1 0x40 MLOAD DUP1 SWAP2 SUB SWAP1 LOG1 POP POP POP POP POP JUMP JUMPDEST PUSH1 0x0 PUSH1 0x4 PUSH1 0x0 DUP4 DUP2 MSTORE PUSH1 0x20 ADD SWAP1 DUP2 MSTORE PUSH1 0x20 ADD PUSH1 0x0 KECCAK256 SLOAD SWAP1 POP SWAP2 SWAP1 POP JUMP JUMPDEST PUSH1 0x7 SLOAD DUP2 JUMP JUMPDEST PUSH1 0x60 PUSH1 0x6 DUP1 SLOAD PUSH2 0x17A2 SWAP1 PUSH2 0x5046 JUMP JUMPDEST DUP1 PUSH1 0x1F ADD PUSH1 0x20 DUP1 SWAP2 DIV MUL PUSH1 0x20 ADD PUSH1 0x40 MLOAD SWAP1 DUP2 ADD PUSH1 0x40 MSTORE DUP1 SWAP3 SWAP2 SWAP1 DUP2 DUP2 MSTORE PUSH1 0x20 ADD DUP3 DUP1 SLOAD PUSH2 0x17CE SWAP1 PUSH2 0x5046 JUMP JUMPDEST DUP1 ISZERO PUSH2 0x181B JUMPI DUP1 PUSH1 0x1F LT PUSH2 0x17F0 JUMPI PUSH2 0x100 DUP1 DUP4 SLOAD DIV MUL DUP4 MSTORE SWAP2 PUSH1 0x20 ADD SWAP2 PUSH2 0x181B JUMP JUMPDEST DUP3 ADD SWAP2 SWAP1 PUSH1 0x0 MSTORE PUSH1 0x20 PUSH1 0x0 KECCAK256 SWAP1 JUMPDEST DUP2 SLOAD DUP2 MSTORE SWAP1 PUSH1 0x1 ADD SWAP1 PUSH1 0x20 ADD DUP1 DUP4 GT PUSH2 0x17FE JUMPI DUP3 SWAP1 SUB PUSH1 0x1F AND DUP3 ADD SWAP2 JUMPDEST POP POP POP POP POP SWAP1 POP SWAP1 JUMP JUMPDEST PUSH1 0x0 PUSH1 0x8 PUSH1 0x0 SWAP1 SLOAD SWAP1 PUSH2 0x100 EXP SWAP1 DIV PUSH20 0xFFFFFFFFFFFFFFFFFFFFFFFFFFFFFFFFFFFFFFFF AND PUSH20 0xFFFFFFFFFFFFFFFFFFFFFFFFFFFFFFFFFFFFFFFF AND DUP3 PUSH20 0xFFFFFFFFFFFFFFFFFFFFFFFFFFFFFFFFFFFFFFFF AND EQ ISZERO PUSH2 0x1886 JUMPI PUSH1 0x1 SWAP1 POP PUSH2 0x1893 JUMP JUMPDEST PUSH2 0x1890 DUP4 DUP4 PUSH2 0x2BDE JUMP JUMPDEST SWAP1 POP JUMPDEST SWAP3 SWAP2 POP POP JUMP JUMPDEST PUSH2 0x18A1 PUSH2 0x1B39 JUMP JUMPDEST PUSH20 0xFFFFFFFFFFFFFFFFFFFFFFFFFFFFFFFFFFFFFFFF AND DUP6 PUSH20 0xFFFFFFFFFFFFFFFFFFFFFFFFFFFFFFFFFFFFFFFF AND EQ DUP1 PUSH2 0x18E7 JUMPI POP PUSH2 0x18E6 DUP6 PUSH2 0x18E1 PUSH2 0x1B39 JUMP JUMPDEST PUSH2 0x1825 JUMP JUMPDEST JUMPDEST PUSH2 0x1926 JUMPI PUSH1 0x40 MLOAD PUSH32 0x8C379A000000000000000000000000000000000000000000000000000000000 DUP2 MSTORE PUSH1 0x4 ADD PUSH2 0x191D SWAP1 PUSH2 0x4939 JUMP JUMPDEST PUSH1 0x40 MLOAD DUP1 SWAP2 SUB SWAP1 REVERT JUMPDEST PUSH2 0x1933 DUP6 DUP6 DUP6 DUP6 DUP6 PUSH2 0x2C72 JUMP JUMPDEST POP POP POP POP POP JUMP JUMPDEST PUSH2 0x1942 PUSH2 0x1B39 JUMP JUMPDEST PUSH20 0xFFFFFFFFFFFFFFFFFFFFFFFFFFFFFFFFFFFFFFFF AND PUSH2 0x1960 PUSH2 0x13BE JUMP JUMPDEST PUSH20 0xFFFFFFFFFFFFFFFFFFFFFFFFFFFFFFFFFFFFFFFF AND EQ PUSH2 0x19B6 JUMPI PUSH1 0x40 MLOAD PUSH32 0x8C379A000000000000000000000000000000000000000000000000000000000 DUP2 MSTORE PUSH1 0x4 ADD PUSH2 0x19AD SWAP1 PUSH2 0x4A59 JUMP JUMPDEST PUSH1 0x40 MLOAD DUP1 SWAP2 SUB SWAP1 REVERT JUMPDEST PUSH1 0x0 PUSH20 0xFFFFFFFFFFFFFFFFFFFFFFFFFFFFFFFFFFFFFFFF AND DUP2 PUSH20 0xFFFFFFFFFFFFFFFFFFFFFFFFFFFFFFFFFFFFFFFF AND EQ ISZERO PUSH2 0x1A26 JUMPI PUSH1 0x40 MLOAD PUSH32 0x8C379A000000000000000000000000000000000000000000000000000000000 DUP2 MSTORE PUSH1 0x4 ADD PUSH2 0x1A1D SWAP1 PUSH2 0x48B9 JUMP JUMPDEST PUSH1 0x40 MLOAD DUP1 SWAP2 SUB SWAP1 REVERT JUMPDEST PUSH2 0x1A2F DUP2 PUSH2 0x2555 JUMP JUMPDEST POP JUMP JUMPDEST PUSH2 0x1A3A PUSH2 0x1B39 JUMP JUMPDEST PUSH20 0xFFFFFFFFFFFFFFFFFFFFFFFFFFFFFFFFFFFFFFFF AND DUP4 PUSH20 0xFFFFFFFFFFFFFFFFFFFFFFFFFFFFFFFFFFFFFFFF AND EQ DUP1 PUSH2 0x1A80 JUMPI POP PUSH2 0x1A7F DUP4 PUSH2 0x1A7A PUSH2 0x1B39 JUMP JUMPDEST PUSH2 0x1825 JUMP JUMPDEST JUMPDEST PUSH2 0x1ABF JUMPI PUSH1 0x40 MLOAD PUSH32 0x8C379A000000000000000000000000000000000000000000000000000000000 DUP2 MSTORE PUSH1 0x4 ADD PUSH2 0x1AB6 SWAP1 PUSH2 0x4939 JUMP JUMPDEST PUSH1 0x40 MLOAD DUP1 SWAP2 SUB SWAP1 REVERT JUMPDEST PUSH2 0x1ACA DUP4 DUP4 DUP4 PUSH2 0x27B1 JUMP JUMPDEST POP POP POP JUMP JUMPDEST PUSH1 0x0 PUSH32 0x1FFC9A700000000000000000000000000000000000000000000000000000000 PUSH28 0xFFFFFFFFFFFFFFFFFFFFFFFFFFFFFFFFFFFFFFFFFFFFFFFFFFFFFFFF NOT AND DUP3 PUSH28 0xFFFFFFFFFFFFFFFFFFFFFFFFFFFFFFFFFFFFFFFFFFFFFFFFFFFFFFFF NOT AND EQ SWAP1 POP SWAP2 SWAP1 POP JUMP JUMPDEST PUSH1 0x0 CALLER SWAP1 POP SWAP1 JUMP JUMPDEST DUP1 PUSH1 0x2 SWAP1 DUP1 MLOAD SWAP1 PUSH1 0x20 ADD SWAP1 PUSH2 0x1B57 SWAP3 SWAP2 SWAP1 PUSH2 0x35D3 JUMP JUMPDEST POP POP JUMP JUMPDEST PUSH1 0x60 PUSH1 0x0 PUSH1 0x5 PUSH1 0x0 DUP5 DUP2 MSTORE PUSH1 0x20 ADD SWAP1 DUP2 MSTORE PUSH1 0x20 ADD PUSH1 0x0 KECCAK256 DUP1 SLOAD PUSH2 0x1B7D SWAP1 PUSH2 0x5046 JUMP JUMPDEST DUP1 PUSH1 0x1F ADD PUSH1 0x20 DUP1 SWAP2 DIV MUL PUSH1 0x20 ADD PUSH1 0x40 MLOAD SWAP1 DUP2 ADD PUSH1 0x40 MSTORE DUP1 SWAP3 SWAP2 SWAP1 DUP2 DUP2 MSTORE PUSH1 0x20 ADD DUP3 DUP1 SLOAD PUSH2 0x1BA9 SWAP1 PUSH2 0x5046 JUMP JUMPDEST DUP1 ISZERO PUSH2 0x1BF6 JUMPI DUP1 PUSH1 0x1F LT PUSH2 0x1BCB JUMPI PUSH2 0x100 DUP1 DUP4 SLOAD DIV MUL DUP4 MSTORE SWAP2 PUSH1 0x20 ADD SWAP2 PUSH2 0x1BF6 JUMP JUMPDEST DUP3 ADD SWAP2 SWAP1 PUSH1 0x0 MSTORE PUSH1 0x20 PUSH1 0x0 KECCAK256 SWAP1 JUMPDEST DUP2 SLOAD DUP2 MSTORE SWAP1 PUSH1 0x1 ADD SWAP1 PUSH1 0x20 ADD DUP1 DUP4 GT PUSH2 0x1BD9 JUMPI DUP3 SWAP1 SUB PUSH1 0x1F AND DUP3 ADD SWAP2 JUMPDEST POP POP POP POP POP SWAP1 POP PUSH1 0x0 PUSH2 0x1C08 DUP5 PUSH2 0x2EF4 JUMP JUMPDEST SWAP1 POP PUSH1 0x0 DUP2 MLOAD EQ ISZERO PUSH2 0x1C3D JUMPI DUP2 PUSH1 0x40 MLOAD PUSH1 0x20 ADD PUSH2 0x1C25 SWAP2 SWAP1 PUSH2 0x45A8 JUMP JUMPDEST PUSH1 0x40 MLOAD PUSH1 0x20 DUP2 DUP4 SUB SUB DUP2 MSTORE SWAP1 PUSH1 0x40 MSTORE SWAP3 POP POP POP PUSH2 0x1C9F JUMP JUMPDEST PUSH1 0x0 DUP3 MLOAD GT ISZERO PUSH2 0x1C72 JUMPI DUP1 DUP3 PUSH1 0x40 MLOAD PUSH1 0x20 ADD PUSH2 0x1C5A SWAP3 SWAP2 SWAP1 PUSH2 0x4579 JUMP JUMPDEST PUSH1 0x40 MLOAD PUSH1 0x20 DUP2 DUP4 SUB SUB DUP2 MSTORE SWAP1 PUSH1 0x40 MSTORE SWAP3 POP POP POP PUSH2 0x1C9F JUMP JUMPDEST PUSH2 0x1C7B DUP5 PUSH2 0x2EF4 JUMP JUMPDEST PUSH1 0x40 MLOAD PUSH1 0x20 ADD PUSH2 0x1C8B SWAP2 SWAP1 PUSH2 0x45A8 JUMP JUMPDEST PUSH1 0x40 MLOAD PUSH1 0x20 DUP2 DUP4 SUB SUB DUP2 MSTORE SWAP1 PUSH1 0x40 MSTORE SWAP3 POP POP POP JUMPDEST SWAP2 SWAP1 POP JUMP JUMPDEST DUP1 PUSH1 0x5 PUSH1 0x0 DUP5 DUP2 MSTORE PUSH1 0x20 ADD SWAP1 DUP2 MSTORE PUSH1 0x20 ADD PUSH1 0x0 KECCAK256 SWAP1 DUP1 MLOAD SWAP1 PUSH1 0x20 ADD SWAP1 PUSH2 0x1CCB SWAP3 SWAP2 SWAP1 PUSH2 0x35D3 JUMP JUMPDEST POP POP POP JUMP JUMPDEST PUSH1 0x0 PUSH20 0xFFFFFFFFFFFFFFFFFFFFFFFFFFFFFFFFFFFFFFFF AND DUP5 PUSH20 0xFFFFFFFFFFFFFFFFFFFFFFFFFFFFFFFFFFFFFFFF AND EQ ISZERO PUSH2 0x1D40 JUMPI PUSH1 0x40 MLOAD PUSH32 0x8C379A000000000000000000000000000000000000000000000000000000000 DUP2 MSTORE PUSH1 0x4 ADD PUSH2 0x1D37 SWAP1 PUSH2 0x4B39 JUMP JUMPDEST PUSH1 0x40 MLOAD DUP1 SWAP2 SUB SWAP1 REVERT JUMPDEST DUP2 MLOAD DUP4 MLOAD EQ PUSH2 0x1D84 JUMPI PUSH1 0x40 MLOAD PUSH32 0x8C379A000000000000000000000000000000000000000000000000000000000 DUP2 MSTORE PUSH1 0x4 ADD PUSH2 0x1D7B SWAP1 PUSH2 0x4B19 JUMP JUMPDEST PUSH1 0x40 MLOAD DUP1 SWAP2 SUB SWAP1 REVERT JUMPDEST PUSH1 0x0 PUSH2 0x1D8E PUSH2 0x1B39 JUMP JUMPDEST SWAP1 POP PUSH2 0x1D9F DUP2 PUSH1 0x0 DUP8 DUP8 DUP8 DUP8 PUSH2 0x2F88 JUMP JUMPDEST PUSH1 0x0 JUMPDEST DUP5 MLOAD DUP2 LT ISZERO PUSH2 0x1E58 JUMPI DUP4 DUP2 DUP2 MLOAD DUP2 LT PUSH2 0x1DBE JUMPI PUSH2 0x1DBD PUSH2 0x51B0 JUMP JUMPDEST JUMPDEST PUSH1 0x20 MUL PUSH1 0x20 ADD ADD MLOAD PUSH1 0x0 DUP1 DUP8 DUP5 DUP2 MLOAD DUP2 LT PUSH2 0x1DDC JUMPI PUSH2 0x1DDB PUSH2 0x51B0 JUMP JUMPDEST JUMPDEST PUSH1 0x20 MUL PUSH1 0x20 ADD ADD MLOAD DUP2 MSTORE PUSH1 0x20 ADD SWAP1 DUP2 MSTORE PUSH1 0x20 ADD PUSH1 0x0 KECCAK256 PUSH1 0x0 DUP9 PUSH20 0xFFFFFFFFFFFFFFFFFFFFFFFFFFFFFFFFFFFFFFFF AND PUSH20 0xFFFFFFFFFFFFFFFFFFFFFFFFFFFFFFFFFFFFFFFF AND DUP2 MSTORE PUSH1 0x20 ADD SWAP1 DUP2 MSTORE PUSH1 0x20 ADD PUSH1 0x0 KECCAK256 PUSH1 0x0 DUP3 DUP3 SLOAD PUSH2 0x1E3E SWAP2 SWAP1 PUSH2 0x4CF8 JUMP JUMPDEST SWAP3 POP POP DUP2 SWAP1 SSTORE POP DUP1 DUP1 PUSH2 0x1E50 SWAP1 PUSH2 0x50A9 JUMP JUMPDEST SWAP2 POP POP PUSH2 0x1DA2 JUMP JUMPDEST POP DUP5 PUSH20 0xFFFFFFFFFFFFFFFFFFFFFFFFFFFFFFFFFFFFFFFF AND PUSH1 0x0 PUSH20 0xFFFFFFFFFFFFFFFFFFFFFFFFFFFFFFFFFFFFFFFF AND DUP3 PUSH20 0xFFFFFFFFFFFFFFFFFFFFFFFFFFFFFFFFFFFFFFFF AND PUSH32 0x4A39DC06D4C0DBC64B70AF90FD698A233A518AA5D07E595D983B8C0526C8F7FB DUP8 DUP8 PUSH1 0x40 MLOAD PUSH2 0x1ED0 SWAP3 SWAP2 SWAP1 PUSH2 0x47A5 JUMP JUMPDEST PUSH1 0x40 MLOAD DUP1 SWAP2 SUB SWAP1 LOG4 PUSH2 0x1EE7 DUP2 PUSH1 0x0 DUP8 DUP8 DUP8 DUP8 PUSH2 0x2FE6 JUMP JUMPDEST POP POP POP POP POP JUMP JUMPDEST DUP2 MLOAD DUP4 MLOAD EQ PUSH2 0x1F32 JUMPI PUSH1 0x40 MLOAD PUSH32 0x8C379A000000000000000000000000000000000000000000000000000000000 DUP2 MSTORE PUSH1 0x4 ADD PUSH2 0x1F29 SWAP1 PUSH2 0x4B19 JUMP JUMPDEST PUSH1 0x40 MLOAD DUP1 SWAP2 SUB SWAP1 REVERT JUMPDEST PUSH1 0x0 PUSH20 0xFFFFFFFFFFFFFFFFFFFFFFFFFFFFFFFFFFFFFFFF AND DUP5 PUSH20 0xFFFFFFFFFFFFFFFFFFFFFFFFFFFFFFFFFFFFFFFF AND EQ ISZERO PUSH2 0x1FA2 JUMPI PUSH1 0x40 MLOAD PUSH32 0x8C379A000000000000000000000000000000000000000000000000000000000 DUP2 MSTORE PUSH1 0x4 ADD PUSH2 0x1F99 SWAP1 PUSH2 0x49B9 JUMP JUMPDEST PUSH1 0x40 MLOAD DUP1 SWAP2 SUB SWAP1 REVERT JUMPDEST PUSH1 0x0 PUSH2 0x1FAC PUSH2 0x1B39 JUMP JUMPDEST SWAP1 POP PUSH2 0x1FBC DUP2 DUP8 DUP8 DUP8 DUP8 DUP8 PUSH2 0x2F88 JUMP JUMPDEST PUSH1 0x0 JUMPDEST DUP5 MLOAD DUP2 LT ISZERO PUSH2 0x216D JUMPI PUSH1 0x0 DUP6 DUP3 DUP2 MLOAD DUP2 LT PUSH2 0x1FDD JUMPI PUSH2 0x1FDC PUSH2 0x51B0 JUMP JUMPDEST JUMPDEST PUSH1 0x20 MUL PUSH1 0x20 ADD ADD MLOAD SWAP1 POP PUSH1 0x0 DUP6 DUP4 DUP2 MLOAD DUP2 LT PUSH2 0x1FFC JUMPI PUSH2 0x1FFB PUSH2 0x51B0 JUMP JUMPDEST JUMPDEST PUSH1 0x20 MUL PUSH1 0x20 ADD ADD MLOAD SWAP1 POP PUSH1 0x0 DUP1 PUSH1 0x0 DUP5 DUP2 MSTORE PUSH1 0x20 ADD SWAP1 DUP2 MSTORE PUSH1 0x20 ADD PUSH1 0x0 KECCAK256 PUSH1 0x0 DUP12 PUSH20 0xFFFFFFFFFFFFFFFFFFFFFFFFFFFFFFFFFFFFFFFF AND PUSH20 0xFFFFFFFFFFFFFFFFFFFFFFFFFFFFFFFFFFFFFFFF AND DUP2 MSTORE PUSH1 0x20 ADD SWAP1 DUP2 MSTORE PUSH1 0x20 ADD PUSH1 0x0 KECCAK256 SLOAD SWAP1 POP DUP2 DUP2 LT ISZERO PUSH2 0x209D JUMPI PUSH1 0x40 MLOAD PUSH32 0x8C379A000000000000000000000000000000000000000000000000000000000 DUP2 MSTORE PUSH1 0x4 ADD PUSH2 0x2094 SWAP1 PUSH2 0x4A19 JUMP JUMPDEST PUSH1 0x40 MLOAD DUP1 SWAP2 SUB SWAP1 REVERT JUMPDEST DUP2 DUP2 SUB PUSH1 0x0 DUP1 DUP6 DUP2 MSTORE PUSH1 0x20 ADD SWAP1 DUP2 MSTORE PUSH1 0x20 ADD PUSH1 0x0 KECCAK256 PUSH1 0x0 DUP13 PUSH20 0xFFFFFFFFFFFFFFFFFFFFFFFFFFFFFFFFFFFFFFFF AND PUSH20 0xFFFFFFFFFFFFFFFFFFFFFFFFFFFFFFFFFFFFFFFF AND DUP2 MSTORE PUSH1 0x20 ADD SWAP1 DUP2 MSTORE PUSH1 0x20 ADD PUSH1 0x0 KECCAK256 DUP2 SWAP1 SSTORE POP DUP2 PUSH1 0x0 DUP1 DUP6 DUP2 MSTORE PUSH1 0x20 ADD SWAP1 DUP2 MSTORE PUSH1 0x20 ADD PUSH1 0x0 KECCAK256 PUSH1 0x0 DUP12 PUSH20 0xFFFFFFFFFFFFFFFFFFFFFFFFFFFFFFFFFFFFFFFF AND PUSH20 0xFFFFFFFFFFFFFFFFFFFFFFFFFFFFFFFFFFFFFFFF AND DUP2 MSTORE PUSH1 0x20 ADD SWAP1 DUP2 MSTORE PUSH1 0x20 ADD PUSH1 0x0 KECCAK256 PUSH1 0x0 DUP3 DUP3 SLOAD PUSH2 0x2152 SWAP2 SWAP1 PUSH2 0x4CF8 JUMP JUMPDEST SWAP3 POP POP DUP2 SWAP1 SSTORE POP POP POP POP DUP1 PUSH2 0x2166 SWAP1 PUSH2 0x50A9 JUMP JUMPDEST SWAP1 POP PUSH2 0x1FBF JUMP JUMPDEST POP DUP5 PUSH20 0xFFFFFFFFFFFFFFFFFFFFFFFFFFFFFFFFFFFFFFFF AND DUP7 PUSH20 0xFFFFFFFFFFFFFFFFFFFFFFFFFFFFFFFFFFFFFFFF AND DUP3 PUSH20 0xFFFFFFFFFFFFFFFFFFFFFFFFFFFFFFFFFFFFFFFF AND PUSH32 0x4A39DC06D4C0DBC64B70AF90FD698A233A518AA5D07E595D983B8C0526C8F7FB DUP8 DUP8 PUSH1 0x40 MLOAD PUSH2 0x21E4 SWAP3 SWAP2 SWAP1 PUSH2 0x47A5 JUMP JUMPDEST PUSH1 0x40 MLOAD DUP1 SWAP2 SUB SWAP1 LOG4 PUSH2 0x21FA DUP2 DUP8 DUP8 DUP8 DUP8 DUP8 PUSH2 0x2FE6 JUMP JUMPDEST POP POP POP POP POP POP JUMP JUMPDEST PUSH2 0x220A PUSH2 0xD99 JUMP JUMPDEST PUSH2 0x2249 JUMPI PUSH1 0x40 MLOAD PUSH32 0x8C379A000000000000000000000000000000000000000000000000000000000 DUP2 MSTORE PUSH1 0x4 ADD PUSH2 0x2240 SWAP1 PUSH2 0x4859 JUMP JUMPDEST PUSH1 0x40 MLOAD DUP1 SWAP2 SUB SWAP1 REVERT JUMPDEST PUSH1 0x0 PUSH1 0x3 PUSH1 0x14 PUSH2 0x100 EXP DUP2 SLOAD DUP2 PUSH1 0xFF MUL NOT AND SWAP1 DUP4 ISZERO ISZERO MUL OR SWAP1 SSTORE POP PUSH32 0x5DB9EE0A495BF2E6FF9C91A7834C1BA4FDD244A5E8AA4E537BD38AEAE4B073AA PUSH2 0x228D PUSH2 0x1B39 JUMP JUMPDEST PUSH1 0x40 MLOAD PUSH2 0x229A SWAP2 SWAP1 PUSH2 0x45CA JUMP JUMPDEST PUSH1 0x40 MLOAD DUP1 SWAP2 SUB SWAP1 LOG1 JUMP JUMPDEST PUSH1 0x0 PUSH20 0xFFFFFFFFFFFFFFFFFFFFFFFFFFFFFFFFFFFFFFFF AND DUP4 PUSH20 0xFFFFFFFFFFFFFFFFFFFFFFFFFFFFFFFFFFFFFFFF AND EQ ISZERO PUSH2 0x2314 JUMPI PUSH1 0x40 MLOAD PUSH32 0x8C379A000000000000000000000000000000000000000000000000000000000 DUP2 MSTORE PUSH1 0x4 ADD PUSH2 0x230B SWAP1 PUSH2 0x49F9 JUMP JUMPDEST PUSH1 0x40 MLOAD DUP1 SWAP2 SUB SWAP1 REVERT JUMPDEST DUP1 MLOAD DUP3 MLOAD EQ PUSH2 0x2358 JUMPI PUSH1 0x40 MLOAD PUSH32 0x8C379A000000000000000000000000000000000000000000000000000000000 DUP2 MSTORE PUSH1 0x4 ADD PUSH2 0x234F SWAP1 PUSH2 0x4B19 JUMP JUMPDEST PUSH1 0x40 MLOAD DUP1 SWAP2 SUB SWAP1 REVERT JUMPDEST PUSH1 0x0 PUSH2 0x2362 PUSH2 0x1B39 JUMP JUMPDEST SWAP1 POP PUSH2 0x2382 DUP2 DUP6 PUSH1 0x0 DUP7 DUP7 PUSH1 0x40 MLOAD DUP1 PUSH1 0x20 ADD PUSH1 0x40 MSTORE DUP1 PUSH1 0x0 DUP2 MSTORE POP PUSH2 0x2F88 JUMP JUMPDEST PUSH1 0x0 JUMPDEST DUP4 MLOAD DUP2 LT ISZERO PUSH2 0x24CF JUMPI PUSH1 0x0 DUP5 DUP3 DUP2 MLOAD DUP2 LT PUSH2 0x23A3 JUMPI PUSH2 0x23A2 PUSH2 0x51B0 JUMP JUMPDEST JUMPDEST PUSH1 0x20 MUL PUSH1 0x20 ADD ADD MLOAD SWAP1 POP PUSH1 0x0 DUP5 DUP4 DUP2 MLOAD DUP2 LT PUSH2 0x23C2 JUMPI PUSH2 0x23C1 PUSH2 0x51B0 JUMP JUMPDEST JUMPDEST PUSH1 0x20 MUL PUSH1 0x20 ADD ADD MLOAD SWAP1 POP PUSH1 0x0 DUP1 PUSH1 0x0 DUP5 DUP2 MSTORE PUSH1 0x20 ADD SWAP1 DUP2 MSTORE PUSH1 0x20 ADD PUSH1 0x0 KECCAK256 PUSH1 0x0 DUP10 PUSH20 0xFFFFFFFFFFFFFFFFFFFFFFFFFFFFFFFFFFFFFFFF AND PUSH20 0xFFFFFFFFFFFFFFFFFFFFFFFFFFFFFFFFFFFFFFFF AND DUP2 MSTORE PUSH1 0x20 ADD SWAP1 DUP2 MSTORE PUSH1 0x20 ADD PUSH1 0x0 KECCAK256 SLOAD SWAP1 POP DUP2 DUP2 LT ISZERO PUSH2 0x2463 JUMPI PUSH1 0x40 MLOAD PUSH32 0x8C379A000000000000000000000000000000000000000000000000000000000 DUP2 MSTORE PUSH1 0x4 ADD PUSH2 0x245A SWAP1 PUSH2 0x48F9 JUMP JUMPDEST PUSH1 0x40 MLOAD DUP1 SWAP2 SUB SWAP1 REVERT JUMPDEST DUP2 DUP2 SUB PUSH1 0x0 DUP1 DUP6 DUP2 MSTORE PUSH1 0x20 ADD SWAP1 DUP2 MSTORE PUSH1 0x20 ADD PUSH1 0x0 KECCAK256 PUSH1 0x0 DUP11 PUSH20 0xFFFFFFFFFFFFFFFFFFFFFFFFFFFFFFFFFFFFFFFF AND PUSH20 0xFFFFFFFFFFFFFFFFFFFFFFFFFFFFFFFFFFFFFFFF AND DUP2 MSTORE PUSH1 0x20 ADD SWAP1 DUP2 MSTORE PUSH1 0x20 ADD PUSH1 0x0 KECCAK256 DUP2 SWAP1 SSTORE POP POP POP POP DUP1 DUP1 PUSH2 0x24C7 SWAP1 PUSH2 0x50A9 JUMP JUMPDEST SWAP2 POP POP PUSH2 0x2385 JUMP JUMPDEST POP PUSH1 0x0 PUSH20 0xFFFFFFFFFFFFFFFFFFFFFFFFFFFFFFFFFFFFFFFF AND DUP5 PUSH20 0xFFFFFFFFFFFFFFFFFFFFFFFFFFFFFFFFFFFFFFFF AND DUP3 PUSH20 0xFFFFFFFFFFFFFFFFFFFFFFFFFFFFFFFFFFFFFFFF AND PUSH32 0x4A39DC06D4C0DBC64B70AF90FD698A233A518AA5D07E595D983B8C0526C8F7FB DUP7 DUP7 PUSH1 0x40 MLOAD PUSH2 0x2547 SWAP3 SWAP2 SWAP1 PUSH2 0x47A5 JUMP JUMPDEST PUSH1 0x40 MLOAD DUP1 SWAP2 SUB SWAP1 LOG4 POP POP POP POP JUMP JUMPDEST PUSH1 0x0 PUSH1 0x3 PUSH1 0x0 SWAP1 SLOAD SWAP1 PUSH2 0x100 EXP SWAP1 DIV PUSH20 0xFFFFFFFFFFFFFFFFFFFFFFFFFFFFFFFFFFFFFFFF AND SWAP1 POP DUP2 PUSH1 0x3 PUSH1 0x0 PUSH2 0x100 EXP DUP2 SLOAD DUP2 PUSH20 0xFFFFFFFFFFFFFFFFFFFFFFFFFFFFFFFFFFFFFFFF MUL NOT AND SWAP1 DUP4 PUSH20 0xFFFFFFFFFFFFFFFFFFFFFFFFFFFFFFFFFFFFFFFF AND MUL OR SWAP1 SSTORE POP DUP2 PUSH20 0xFFFFFFFFFFFFFFFFFFFFFFFFFFFFFFFFFFFFFFFF AND DUP2 PUSH20 0xFFFFFFFFFFFFFFFFFFFFFFFFFFFFFFFFFFFFFFFF AND PUSH32 0x8BE0079C531659141344CD1FD0A4F28419497F9722A3DAAFE3B4186F6B6457E0 PUSH1 0x40 MLOAD PUSH1 0x40 MLOAD DUP1 SWAP2 SUB SWAP1 LOG3 POP POP JUMP JUMPDEST PUSH1 0x0 PUSH20 0xFFFFFFFFFFFFFFFFFFFFFFFFFFFFFFFFFFFFFFFF AND DUP5 PUSH20 0xFFFFFFFFFFFFFFFFFFFFFFFFFFFFFFFFFFFFFFFF AND EQ ISZERO PUSH2 0x268B JUMPI PUSH1 0x40 MLOAD PUSH32 0x8C379A000000000000000000000000000000000000000000000000000000000 DUP2 MSTORE PUSH1 0x4 ADD PUSH2 0x2682 SWAP1 PUSH2 0x4B39 JUMP JUMPDEST PUSH1 0x40 MLOAD DUP1 SWAP2 SUB SWAP1 REVERT JUMPDEST PUSH1 0x0 PUSH2 0x2695 PUSH2 0x1B39 JUMP JUMPDEST SWAP1 POP PUSH2 0x26B6 DUP2 PUSH1 0x0 DUP8 PUSH2 0x26A7 DUP9 PUSH2 0x31CD JUMP JUMPDEST PUSH2 0x26B0 DUP9 PUSH2 0x31CD JUMP JUMPDEST DUP8 PUSH2 0x2F88 JUMP JUMPDEST DUP3 PUSH1 0x0 DUP1 DUP7 DUP2 MSTORE PUSH1 0x20 ADD SWAP1 DUP2 MSTORE PUSH1 0x20 ADD PUSH1 0x0 KECCAK256 PUSH1 0x0 DUP8 PUSH20 0xFFFFFFFFFFFFFFFFFFFFFFFFFFFFFFFFFFFFFFFF AND PUSH20 0xFFFFFFFFFFFFFFFFFFFFFFFFFFFFFFFFFFFFFFFF AND DUP2 MSTORE PUSH1 0x20 ADD SWAP1 DUP2 MSTORE PUSH1 0x20 ADD PUSH1 0x0 KECCAK256 PUSH1 0x0 DUP3 DUP3 SLOAD PUSH2 0x2715 SWAP2 SWAP1 PUSH2 0x4CF8 JUMP JUMPDEST SWAP3 POP POP DUP2 SWAP1 SSTORE POP DUP5 PUSH20 0xFFFFFFFFFFFFFFFFFFFFFFFFFFFFFFFFFFFFFFFF AND PUSH1 0x0 PUSH20 0xFFFFFFFFFFFFFFFFFFFFFFFFFFFFFFFFFFFFFFFF AND DUP3 PUSH20 0xFFFFFFFFFFFFFFFFFFFFFFFFFFFFFFFFFFFFFFFF AND PUSH32 0xC3D58168C5AE7397731D063D5BBF3D657854427343F4C083240F7AACAA2D0F62 DUP8 DUP8 PUSH1 0x40 MLOAD PUSH2 0x2793 SWAP3 SWAP2 SWAP1 PUSH2 0x4B74 JUMP JUMPDEST PUSH1 0x40 MLOAD DUP1 SWAP2 SUB SWAP1 LOG4 PUSH2 0x27AA DUP2 PUSH1 0x0 DUP8 DUP8 DUP8 DUP8 PUSH2 0x3247 JUMP JUMPDEST POP POP POP POP POP JUMP JUMPDEST PUSH1 0x0 PUSH20 0xFFFFFFFFFFFFFFFFFFFFFFFFFFFFFFFFFFFFFFFF AND DUP4 PUSH20 0xFFFFFFFFFFFFFFFFFFFFFFFFFFFFFFFFFFFFFFFF AND EQ ISZERO PUSH2 0x2821 JUMPI PUSH1 0x40 MLOAD PUSH32 0x8C379A000000000000000000000000000000000000000000000000000000000 DUP2 MSTORE PUSH1 0x4 ADD PUSH2 0x2818 SWAP1 PUSH2 0x49F9 JUMP JUMPDEST PUSH1 0x40 MLOAD DUP1 SWAP2 SUB SWAP1 REVERT JUMPDEST PUSH1 0x0 PUSH2 0x282B PUSH2 0x1B39 JUMP JUMPDEST SWAP1 POP PUSH2 0x285B DUP2 DUP6 PUSH1 0x0 PUSH2 0x283D DUP8 PUSH2 0x31CD JUMP JUMPDEST PUSH2 0x2846 DUP8 PUSH2 0x31CD JUMP JUMPDEST PUSH1 0x40 MLOAD DUP1 PUSH1 0x20 ADD PUSH1 0x40 MSTORE DUP1 PUSH1 0x0 DUP2 MSTORE POP PUSH2 0x2F88 JUMP JUMPDEST PUSH1 0x0 DUP1 PUSH1 0x0 DUP6 DUP2 MSTORE PUSH1 0x20 ADD SWAP1 DUP2 MSTORE PUSH1 0x20 ADD PUSH1 0x0 KECCAK256 PUSH1 0x0 DUP7 PUSH20 0xFFFFFFFFFFFFFFFFFFFFFFFFFFFFFFFFFFFFFFFF AND PUSH20 0xFFFFFFFFFFFFFFFFFFFFFFFFFFFFFFFFFFFFFFFF AND DUP2 MSTORE PUSH1 0x20 ADD SWAP1 DUP2 MSTORE PUSH1 0x20 ADD PUSH1 0x0 KECCAK256 SLOAD SWAP1 POP DUP3 DUP2 LT ISZERO PUSH2 0x28F2 JUMPI PUSH1 0x40 MLOAD PUSH32 0x8C379A000000000000000000000000000000000000000000000000000000000 DUP2 MSTORE PUSH1 0x4 ADD PUSH2 0x28E9 SWAP1 PUSH2 0x48F9 JUMP JUMPDEST PUSH1 0x40 MLOAD DUP1 SWAP2 SUB SWAP1 REVERT JUMPDEST DUP3 DUP2 SUB PUSH1 0x0 DUP1 DUP7 DUP2 MSTORE PUSH1 0x20 ADD SWAP1 DUP2 MSTORE PUSH1 0x20 ADD PUSH1 0x0 KECCAK256 PUSH1 0x0 DUP8 PUSH20 0xFFFFFFFFFFFFFFFFFFFFFFFFFFFFFFFFFFFFFFFF AND PUSH20 0xFFFFFFFFFFFFFFFFFFFFFFFFFFFFFFFFFFFFFFFF AND DUP2 MSTORE PUSH1 0x20 ADD SWAP1 DUP2 MSTORE PUSH1 0x20 ADD PUSH1 0x0 KECCAK256 DUP2 SWAP1 SSTORE POP PUSH1 0x0 PUSH20 0xFFFFFFFFFFFFFFFFFFFFFFFFFFFFFFFFFFFFFFFF AND DUP6 PUSH20 0xFFFFFFFFFFFFFFFFFFFFFFFFFFFFFFFFFFFFFFFF AND DUP4 PUSH20 0xFFFFFFFFFFFFFFFFFFFFFFFFFFFFFFFFFFFFFFFF AND PUSH32 0xC3D58168C5AE7397731D063D5BBF3D657854427343F4C083240F7AACAA2D0F62 DUP8 DUP8 PUSH1 0x40 MLOAD PUSH2 0x29BF SWAP3 SWAP2 SWAP1 PUSH2 0x4B74 JUMP JUMPDEST PUSH1 0x40 MLOAD DUP1 SWAP2 SUB SWAP1 LOG4 POP POP POP POP POP JUMP JUMPDEST PUSH2 0x29D6 PUSH2 0xD99 JUMP JUMPDEST ISZERO PUSH2 0x2A16 JUMPI PUSH1 0x40 MLOAD PUSH32 0x8C379A000000000000000000000000000000000000000000000000000000000 DUP2 MSTORE PUSH1 0x4 ADD PUSH2 0x2A0D SWAP1 PUSH2 0x4979 JUMP JUMPDEST PUSH1 0x40 MLOAD DUP1 SWAP2 SUB SWAP1 REVERT JUMPDEST PUSH1 0x1 PUSH1 0x3 PUSH1 0x14 PUSH2 0x100 EXP DUP2 SLOAD DUP2 PUSH1 0xFF MUL NOT AND SWAP1 DUP4 ISZERO ISZERO MUL OR SWAP1 SSTORE POP PUSH32 0x62E78CEA01BEE320CD4E420270B5EA74000D11B0C9F74754EBDBFC544B05A258 PUSH2 0x2A5A PUSH2 0x1B39 JUMP JUMPDEST PUSH1 0x40 MLOAD PUSH2 0x2A67 SWAP2 SWAP1 PUSH2 0x45CA JUMP JUMPDEST PUSH1 0x40 MLOAD DUP1 SWAP2 SUB SWAP1 LOG1 JUMP JUMPDEST DUP2 PUSH20 0xFFFFFFFFFFFFFFFFFFFFFFFFFFFFFFFFFFFFFFFF AND DUP4 PUSH20 0xFFFFFFFFFFFFFFFFFFFFFFFFFFFFFFFFFFFFFFFF AND EQ ISZERO PUSH2 0x2AE0 JUMPI PUSH1 0x40 MLOAD PUSH32 0x8C379A000000000000000000000000000000000000000000000000000000000 DUP2 MSTORE PUSH1 0x4 ADD PUSH2 0x2AD7 SWAP1 PUSH2 0x4AD9 JUMP JUMPDEST PUSH1 0x40 MLOAD DUP1 SWAP2 SUB SWAP1 REVERT JUMPDEST DUP1 PUSH1 0x1 PUSH1 0x0 DUP6 PUSH20 0xFFFFFFFFFFFFFFFFFFFFFFFFFFFFFFFFFFFFFFFF AND PUSH20 0xFFFFFFFFFFFFFFFFFFFFFFFFFFFFFFFFFFFFFFFF AND DUP2 MSTORE PUSH1 0x20 ADD SWAP1 DUP2 MSTORE PUSH1 0x20 ADD PUSH1 0x0 KECCAK256 PUSH1 0x0 DUP5 PUSH20 0xFFFFFFFFFFFFFFFFFFFFFFFFFFFFFFFFFFFFFFFF AND PUSH20 0xFFFFFFFFFFFFFFFFFFFFFFFFFFFFFFFFFFFFFFFF AND DUP2 MSTORE PUSH1 0x20 ADD SWAP1 DUP2 MSTORE PUSH1 0x20 ADD PUSH1 0x0 KECCAK256 PUSH1 0x0 PUSH2 0x100 EXP DUP2 SLOAD DUP2 PUSH1 0xFF MUL NOT AND SWAP1 DUP4 ISZERO ISZERO MUL OR SWAP1 SSTORE POP DUP2 PUSH20 0xFFFFFFFFFFFFFFFFFFFFFFFFFFFFFFFFFFFFFFFF AND DUP4 PUSH20 0xFFFFFFFFFFFFFFFFFFFFFFFFFFFFFFFFFFFFFFFF AND PUSH32 0x17307EAB39AB6107E8899845AD3D59BD9653F200F220920489CA2B5937696C31 DUP4 PUSH1 0x40 MLOAD PUSH2 0x2BD1 SWAP2 SWAP1 PUSH2 0x47DC JUMP JUMPDEST PUSH1 0x40 MLOAD DUP1 SWAP2 SUB SWAP1 LOG3 POP POP POP JUMP JUMPDEST PUSH1 0x0 PUSH1 0x1 PUSH1 0x0 DUP5 PUSH20 0xFFFFFFFFFFFFFFFFFFFFFFFFFFFFFFFFFFFFFFFF AND PUSH20 0xFFFFFFFFFFFFFFFFFFFFFFFFFFFFFFFFFFFFFFFF AND DUP2 MSTORE PUSH1 0x20 ADD SWAP1 DUP2 MSTORE PUSH1 0x20 ADD PUSH1 0x0 KECCAK256 PUSH1 0x0 DUP4 PUSH20 0xFFFFFFFFFFFFFFFFFFFFFFFFFFFFFFFFFFFFFFFF AND PUSH20 0xFFFFFFFFFFFFFFFFFFFFFFFFFFFFFFFFFFFFFFFF AND DUP2 MSTORE PUSH1 0x20 ADD SWAP1 DUP2 MSTORE PUSH1 0x20 ADD PUSH1 0x0 KECCAK256 PUSH1 0x0 SWAP1 SLOAD SWAP1 PUSH2 0x100 EXP SWAP1 DIV PUSH1 0xFF AND SWAP1 POP SWAP3 SWAP2 POP POP JUMP JUMPDEST PUSH1 0x0 PUSH20 0xFFFFFFFFFFFFFFFFFFFFFFFFFFFFFFFFFFFFFFFF AND DUP5 PUSH20 0xFFFFFFFFFFFFFFFFFFFFFFFFFFFFFFFFFFFFFFFF AND EQ ISZERO PUSH2 0x2CE2 JUMPI PUSH1 0x40 MLOAD PUSH32 0x8C379A000000000000000000000000000000000000000000000000000000000 DUP2 MSTORE PUSH1 0x4 ADD PUSH2 0x2CD9 SWAP1 PUSH2 0x49B9 JUMP JUMPDEST PUSH1 0x40 MLOAD DUP1 SWAP2 SUB SWAP1 REVERT JUMPDEST PUSH1 0x0 PUSH2 0x2CEC PUSH2 0x1B39 JUMP JUMPDEST SWAP1 POP PUSH2 0x2D0C DUP2 DUP8 DUP8 PUSH2 0x2CFD DUP9 PUSH2 0x31CD JUMP JUMPDEST PUSH2 0x2D06 DUP9 PUSH2 0x31CD JUMP JUMPDEST DUP8 PUSH2 0x2F88 JUMP JUMPDEST PUSH1 0x0 DUP1 PUSH1 0x0 DUP7 DUP2 MSTORE PUSH1 0x20 ADD SWAP1 DUP2 MSTORE PUSH1 0x20 ADD PUSH1 0x0 KECCAK256 PUSH1 0x0 DUP9 PUSH20 0xFFFFFFFFFFFFFFFFFFFFFFFFFFFFFFFFFFFFFFFF AND PUSH20 0xFFFFFFFFFFFFFFFFFFFFFFFFFFFFFFFFFFFFFFFF AND DUP2 MSTORE PUSH1 0x20 ADD SWAP1 DUP2 MSTORE PUSH1 0x20 ADD PUSH1 0x0 KECCAK256 SLOAD SWAP1 POP DUP4 DUP2 LT ISZERO PUSH2 0x2DA3 JUMPI PUSH1 0x40 MLOAD PUSH32 0x8C379A000000000000000000000000000000000000000000000000000000000 DUP2 MSTORE PUSH1 0x4 ADD PUSH2 0x2D9A SWAP1 PUSH2 0x4A19 JUMP JUMPDEST PUSH1 0x40 MLOAD DUP1 SWAP2 SUB SWAP1 REVERT JUMPDEST DUP4 DUP2 SUB PUSH1 0x0 DUP1 DUP8 DUP2 MSTORE PUSH1 0x20 ADD SWAP1 DUP2 MSTORE PUSH1 0x20 ADD PUSH1 0x0 KECCAK256 PUSH1 0x0 DUP10 PUSH20 0xFFFFFFFFFFFFFFFFFFFFFFFFFFFFFFFFFFFFFFFF AND PUSH20 0xFFFFFFFFFFFFFFFFFFFFFFFFFFFFFFFFFFFFFFFF AND DUP2 MSTORE PUSH1 0x20 ADD SWAP1 DUP2 MSTORE PUSH1 0x20 ADD PUSH1 0x0 KECCAK256 DUP2 SWAP1 SSTORE POP DUP4 PUSH1 0x0 DUP1 DUP8 DUP2 MSTORE PUSH1 0x20 ADD SWAP1 DUP2 MSTORE PUSH1 0x20 ADD PUSH1 0x0 KECCAK256 PUSH1 0x0 DUP9 PUSH20 0xFFFFFFFFFFFFFFFFFFFFFFFFFFFFFFFFFFFFFFFF AND PUSH20 0xFFFFFFFFFFFFFFFFFFFFFFFFFFFFFFFFFFFFFFFF AND DUP2 MSTORE PUSH1 0x20 ADD SWAP1 DUP2 MSTORE PUSH1 0x20 ADD PUSH1 0x0 KECCAK256 PUSH1 0x0 DUP3 DUP3 SLOAD PUSH2 0x2E58 SWAP2 SWAP1 PUSH2 0x4CF8 JUMP JUMPDEST SWAP3 POP POP DUP2 SWAP1 SSTORE POP DUP6 PUSH20 0xFFFFFFFFFFFFFFFFFFFFFFFFFFFFFFFFFFFFFFFF AND DUP8 PUSH20 0xFFFFFFFFFFFFFFFFFFFFFFFFFFFFFFFFFFFFFFFF AND DUP4 PUSH20 0xFFFFFFFFFFFFFFFFFFFFFFFFFFFFFFFFFFFFFFFF AND PUSH32 0xC3D58168C5AE7397731D063D5BBF3D657854427343F4C083240F7AACAA2D0F62 DUP9 DUP9 PUSH1 0x40 MLOAD PUSH2 0x2ED5 SWAP3 SWAP2 SWAP1 PUSH2 0x4B74 JUMP JUMPDEST PUSH1 0x40 MLOAD DUP1 SWAP2 SUB SWAP1 LOG4 PUSH2 0x2EEB DUP3 DUP9 DUP9 DUP9 DUP9 DUP9 PUSH2 0x3247 JUMP JUMPDEST POP POP POP POP POP POP POP JUMP JUMPDEST PUSH1 0x60 PUSH1 0x2 DUP1 SLOAD PUSH2 0x2F03 SWAP1 PUSH2 0x5046 JUMP JUMPDEST DUP1 PUSH1 0x1F ADD PUSH1 0x20 DUP1 SWAP2 DIV MUL PUSH1 0x20 ADD PUSH1 0x40 MLOAD SWAP1 DUP2 ADD PUSH1 0x40 MSTORE DUP1 SWAP3 SWAP2 SWAP1 DUP2 DUP2 MSTORE PUSH1 0x20 ADD DUP3 DUP1 SLOAD PUSH2 0x2F2F SWAP1 PUSH2 0x5046 JUMP JUMPDEST DUP1 ISZERO PUSH2 0x2F7C JUMPI DUP1 PUSH1 0x1F LT PUSH2 0x2F51 JUMPI PUSH2 0x100 DUP1 DUP4 SLOAD DIV MUL DUP4 MSTORE SWAP2 PUSH1 0x20 ADD SWAP2 PUSH2 0x2F7C JUMP JUMPDEST DUP3 ADD SWAP2 SWAP1 PUSH1 0x0 MSTORE PUSH1 0x20 PUSH1 0x0 KECCAK256 SWAP1 JUMPDEST DUP2 SLOAD DUP2 MSTORE SWAP1 PUSH1 0x1 ADD SWAP1 PUSH1 0x20 ADD DUP1 DUP4 GT PUSH2 0x2F5F JUMPI DUP3 SWAP1 SUB PUSH1 0x1F AND DUP3 ADD SWAP2 JUMPDEST POP POP POP POP POP SWAP1 POP SWAP2 SWAP1 POP JUMP JUMPDEST PUSH2 0x2F90 PUSH2 0xD99 JUMP JUMPDEST ISZERO PUSH2 0x2FD0 JUMPI PUSH1 0x40 MLOAD PUSH32 0x8C379A000000000000000000000000000000000000000000000000000000000 DUP2 MSTORE PUSH1 0x4 ADD PUSH2 0x2FC7 SWAP1 PUSH2 0x4979 JUMP JUMPDEST PUSH1 0x40 MLOAD DUP1 SWAP2 SUB SWAP1 REVERT JUMPDEST PUSH2 0x2FDE DUP7 DUP7 DUP7 DUP7 DUP7 DUP7 PUSH2 0x342E JUMP JUMPDEST POP POP POP POP POP POP JUMP JUMPDEST PUSH2 0x3005 DUP5 PUSH20 0xFFFFFFFFFFFFFFFFFFFFFFFFFFFFFFFFFFFFFFFF AND PUSH2 0x35A8 JUMP JUMPDEST ISZERO PUSH2 0x31C5 JUMPI DUP4 PUSH20 0xFFFFFFFFFFFFFFFFFFFFFFFFFFFFFFFFFFFFFFFF AND PUSH4 0xBC197C81 DUP8 DUP8 DUP7 DUP7 DUP7 PUSH1 0x40 MLOAD DUP7 PUSH4 0xFFFFFFFF AND PUSH1 0xE0 SHL DUP2 MSTORE PUSH1 0x4 ADD PUSH2 0x304B SWAP6 SWAP5 SWAP4 SWAP3 SWAP2 SWAP1 PUSH2 0x45E5 JUMP JUMPDEST PUSH1 0x20 PUSH1 0x40 MLOAD DUP1 DUP4 SUB DUP2 PUSH1 0x0 DUP8 DUP1 EXTCODESIZE ISZERO DUP1 ISZERO PUSH2 0x3065 JUMPI PUSH1 0x0 DUP1 REVERT JUMPDEST POP GAS CALL SWAP3 POP POP POP DUP1 ISZERO PUSH2 0x3096 JUMPI POP PUSH1 0x40 MLOAD RETURNDATASIZE PUSH1 0x1F NOT PUSH1 0x1F DUP3 ADD AND DUP3 ADD DUP1 PUSH1 0x40 MSTORE POP DUP2 ADD SWAP1 PUSH2 0x3093 SWAP2 SWAP1 PUSH2 0x3F09 JUMP JUMPDEST PUSH1 0x1 JUMPDEST PUSH2 0x313C JUMPI PUSH2 0x30A2 PUSH2 0x520E JUMP JUMPDEST DUP1 PUSH4 0x8C379A0 EQ ISZERO PUSH2 0x30FF JUMPI POP PUSH2 0x30B7 PUSH2 0x5973 JUMP JUMPDEST DUP1 PUSH2 0x30C2 JUMPI POP PUSH2 0x3101 JUMP JUMPDEST DUP1 PUSH1 0x40 MLOAD PUSH32 0x8C379A000000000000000000000000000000000000000000000000000000000 DUP2 MSTORE PUSH1 0x4 ADD PUSH2 0x30F6 SWAP2 SWAP1 PUSH2 0x47F7 JUMP JUMPDEST PUSH1 0x40 MLOAD DUP1 SWAP2 SUB SWAP1 REVERT JUMPDEST POP JUMPDEST PUSH1 0x40 MLOAD PUSH32 0x8C379A000000000000000000000000000000000000000000000000000000000 DUP2 MSTORE PUSH1 0x4 ADD PUSH2 0x3133 SWAP1 PUSH2 0x4819 JUMP JUMPDEST PUSH1 0x40 MLOAD DUP1 SWAP2 SUB SWAP1 REVERT JUMPDEST PUSH4 0xBC197C81 PUSH1 0xE0 SHL PUSH28 0xFFFFFFFFFFFFFFFFFFFFFFFFFFFFFFFFFFFFFFFFFFFFFFFFFFFFFFFF NOT AND DUP2 PUSH28 0xFFFFFFFFFFFFFFFFFFFFFFFFFFFFFFFFFFFFFFFFFFFFFFFFFFFFFFFF NOT AND EQ PUSH2 0x31C3 JUMPI PUSH1 0x40 MLOAD PUSH32 0x8C379A000000000000000000000000000000000000000000000000000000000 DUP2 MSTORE PUSH1 0x4 ADD PUSH2 0x31BA SWAP1 PUSH2 0x4839 JUMP JUMPDEST PUSH1 0x40 MLOAD DUP1 SWAP2 SUB SWAP1 REVERT JUMPDEST POP JUMPDEST POP POP POP POP POP POP JUMP JUMPDEST PUSH1 0x60 PUSH1 0x0 PUSH1 0x1 PUSH8 0xFFFFFFFFFFFFFFFF DUP2 GT ISZERO PUSH2 0x31EC JUMPI PUSH2 0x31EB PUSH2 0x51DF JUMP JUMPDEST JUMPDEST PUSH1 0x40 MLOAD SWAP1 DUP1 DUP3 MSTORE DUP1 PUSH1 0x20 MUL PUSH1 0x20 ADD DUP3 ADD PUSH1 0x40 MSTORE DUP1 ISZERO PUSH2 0x321A JUMPI DUP2 PUSH1 0x20 ADD PUSH1 0x20 DUP3 MUL DUP1 CALLDATASIZE DUP4 CALLDATACOPY DUP1 DUP3 ADD SWAP2 POP POP SWAP1 POP JUMPDEST POP SWAP1 POP DUP3 DUP2 PUSH1 0x0 DUP2 MLOAD DUP2 LT PUSH2 0x3232 JUMPI PUSH2 0x3231 PUSH2 0x51B0 JUMP JUMPDEST JUMPDEST PUSH1 0x20 MUL PUSH1 0x20 ADD ADD DUP2 DUP2 MSTORE POP POP DUP1 SWAP2 POP POP SWAP2 SWAP1 POP JUMP JUMPDEST PUSH2 0x3266 DUP5 PUSH20 0xFFFFFFFFFFFFFFFFFFFFFFFFFFFFFFFFFFFFFFFF AND PUSH2 0x35A8 JUMP JUMPDEST ISZERO PUSH2 0x3426 JUMPI DUP4 PUSH20 0xFFFFFFFFFFFFFFFFFFFFFFFFFFFFFFFFFFFFFFFF AND PUSH4 0xF23A6E61 DUP8 DUP8 DUP7 DUP7 DUP7 PUSH1 0x40 MLOAD DUP7 PUSH4 0xFFFFFFFF AND PUSH1 0xE0 SHL DUP2 MSTORE PUSH1 0x4 ADD PUSH2 0x32AC SWAP6 SWAP5 SWAP4 SWAP3 SWAP2 SWAP1 PUSH2 0x464D JUMP JUMPDEST PUSH1 0x20 PUSH1 0x40 MLOAD DUP1 DUP4 SUB DUP2 PUSH1 0x0 DUP8 DUP1 EXTCODESIZE ISZERO DUP1 ISZERO PUSH2 0x32C6 JUMPI PUSH1 0x0 DUP1 REVERT JUMPDEST POP GAS CALL SWAP3 POP POP POP DUP1 ISZERO PUSH2 0x32F7 JUMPI POP PUSH1 0x40 MLOAD RETURNDATASIZE PUSH1 0x1F NOT PUSH1 0x1F DUP3 ADD AND DUP3 ADD DUP1 PUSH1 0x40 MSTORE POP DUP2 ADD SWAP1 PUSH2 0x32F4 SWAP2 SWAP1 PUSH2 0x3F09 JUMP JUMPDEST PUSH1 0x1 JUMPDEST PUSH2 0x339D JUMPI PUSH2 0x3303 PUSH2 0x520E JUMP JUMPDEST DUP1 PUSH4 0x8C379A0 EQ ISZERO PUSH2 0x3360 JUMPI POP PUSH2 0x3318 PUSH2 0x5973 JUMP JUMPDEST DUP1 PUSH2 0x3323 JUMPI POP PUSH2 0x3362 JUMP JUMPDEST DUP1 PUSH1 0x40 MLOAD PUSH32 0x8C379A000000000000000000000000000000000000000000000000000000000 DUP2 MSTORE PUSH1 0x4 ADD PUSH2 0x3357 SWAP2 SWAP1 PUSH2 0x47F7 JUMP JUMPDEST PUSH1 0x40 MLOAD DUP1 SWAP2 SUB SWAP1 REVERT JUMPDEST POP JUMPDEST PUSH1 0x40 MLOAD PUSH32 0x8C379A000000000000000000000000000000000000000000000000000000000 DUP2 MSTORE PUSH1 0x4 ADD PUSH2 0x3394 SWAP1 PUSH2 0x4819 JUMP JUMPDEST PUSH1 0x40 MLOAD DUP1 SWAP2 SUB SWAP1 REVERT JUMPDEST PUSH4 0xF23A6E61 PUSH1 0xE0 SHL PUSH28 0xFFFFFFFFFFFFFFFFFFFFFFFFFFFFFFFFFFFFFFFFFFFFFFFFFFFFFFFF NOT AND DUP2 PUSH28 0xFFFFFFFFFFFFFFFFFFFFFFFFFFFFFFFFFFFFFFFFFFFFFFFFFFFFFFFF NOT AND EQ PUSH2 0x3424 JUMPI PUSH1 0x40 MLOAD PUSH32 0x8C379A000000000000000000000000000000000000000000000000000000000 DUP2 MSTORE PUSH1 0x4 ADD PUSH2 0x341B SWAP1 PUSH2 0x4839 JUMP JUMPDEST PUSH1 0x40 MLOAD DUP1 SWAP2 SUB SWAP1 REVERT JUMPDEST POP JUMPDEST POP POP POP POP POP POP JUMP JUMPDEST PUSH2 0x343C DUP7 DUP7 DUP7 DUP7 DUP7 DUP7 PUSH2 0x35CB JUMP JUMPDEST PUSH1 0x0 PUSH20 0xFFFFFFFFFFFFFFFFFFFFFFFFFFFFFFFFFFFFFFFF AND DUP6 PUSH20 0xFFFFFFFFFFFFFFFFFFFFFFFFFFFFFFFFFFFFFFFF AND EQ ISZERO PUSH2 0x34EE JUMPI PUSH1 0x0 JUMPDEST DUP4 MLOAD DUP2 LT ISZERO PUSH2 0x34EC JUMPI DUP3 DUP2 DUP2 MLOAD DUP2 LT PUSH2 0x3490 JUMPI PUSH2 0x348F PUSH2 0x51B0 JUMP JUMPDEST JUMPDEST PUSH1 0x20 MUL PUSH1 0x20 ADD ADD MLOAD PUSH1 0x4 PUSH1 0x0 DUP7 DUP5 DUP2 MLOAD DUP2 LT PUSH2 0x34AF JUMPI PUSH2 0x34AE PUSH2 0x51B0 JUMP JUMPDEST JUMPDEST PUSH1 0x20 MUL PUSH1 0x20 ADD ADD MLOAD DUP2 MSTORE PUSH1 0x20 ADD SWAP1 DUP2 MSTORE PUSH1 0x20 ADD PUSH1 0x0 KECCAK256 PUSH1 0x0 DUP3 DUP3 SLOAD PUSH2 0x34D4 SWAP2 SWAP1 PUSH2 0x4CF8 JUMP JUMPDEST SWAP3 POP POP DUP2 SWAP1 SSTORE POP DUP1 PUSH2 0x34E5 SWAP1 PUSH2 0x50A9 JUMP JUMPDEST SWAP1 POP PUSH2 0x3474 JUMP JUMPDEST POP JUMPDEST PUSH1 0x0 PUSH20 0xFFFFFFFFFFFFFFFFFFFFFFFFFFFFFFFFFFFFFFFF AND DUP5 PUSH20 0xFFFFFFFFFFFFFFFFFFFFFFFFFFFFFFFFFFFFFFFF AND EQ ISZERO PUSH2 0x35A0 JUMPI PUSH1 0x0 JUMPDEST DUP4 MLOAD DUP2 LT ISZERO PUSH2 0x359E JUMPI DUP3 DUP2 DUP2 MLOAD DUP2 LT PUSH2 0x3542 JUMPI PUSH2 0x3541 PUSH2 0x51B0 JUMP JUMPDEST JUMPDEST PUSH1 0x20 MUL PUSH1 0x20 ADD ADD MLOAD PUSH1 0x4 PUSH1 0x0 DUP7 DUP5 DUP2 MLOAD DUP2 LT PUSH2 0x3561 JUMPI PUSH2 0x3560 PUSH2 0x51B0 JUMP JUMPDEST JUMPDEST PUSH1 0x20 MUL PUSH1 0x20 ADD ADD MLOAD DUP2 MSTORE PUSH1 0x20 ADD SWAP1 DUP2 MSTORE PUSH1 0x20 ADD PUSH1 0x0 KECCAK256 PUSH1 0x0 DUP3 DUP3 SLOAD PUSH2 0x3586 SWAP2 SWAP1 PUSH2 0x4F4A JUMP JUMPDEST SWAP3 POP POP DUP2 SWAP1 SSTORE POP DUP1 PUSH2 0x3597 SWAP1 PUSH2 0x50A9 JUMP JUMPDEST SWAP1 POP PUSH2 0x3526 JUMP JUMPDEST POP JUMPDEST POP POP POP POP POP POP JUMP JUMPDEST PUSH1 0x0 DUP1 DUP3 PUSH20 0xFFFFFFFFFFFFFFFFFFFFFFFFFFFFFFFFFFFFFFFF AND EXTCODESIZE GT SWAP1 POP SWAP2 SWAP1 POP JUMP JUMPDEST POP POP POP POP POP POP JUMP JUMPDEST DUP3 DUP1 SLOAD PUSH2 0x35DF SWAP1 PUSH2 0x5046 JUMP JUMPDEST SWAP1 PUSH1 0x0 MSTORE PUSH1 0x20 PUSH1 0x0 KECCAK256 SWAP1 PUSH1 0x1F ADD PUSH1 0x20 SWAP1 DIV DUP2 ADD SWAP3 DUP3 PUSH2 0x3601 JUMPI PUSH1 0x0 DUP6 SSTORE PUSH2 0x3648 JUMP JUMPDEST DUP3 PUSH1 0x1F LT PUSH2 0x361A JUMPI DUP1 MLOAD PUSH1 0xFF NOT AND DUP4 DUP1 ADD OR DUP6 SSTORE PUSH2 0x3648 JUMP JUMPDEST DUP3 DUP1 ADD PUSH1 0x1 ADD DUP6 SSTORE DUP3 ISZERO PUSH2 0x3648 JUMPI SWAP2 DUP3 ADD JUMPDEST DUP3 DUP2 GT ISZERO PUSH2 0x3647 JUMPI DUP3 MLOAD DUP3 SSTORE SWAP2 PUSH1 0x20 ADD SWAP2 SWAP1 PUSH1 0x1 ADD SWAP1 PUSH2 0x362C JUMP JUMPDEST JUMPDEST POP SWAP1 POP PUSH2 0x3655 SWAP2 SWAP1 PUSH2 0x3659 JUMP JUMPDEST POP SWAP1 JUMP JUMPDEST JUMPDEST DUP1 DUP3 GT ISZERO PUSH2 0x3672 JUMPI PUSH1 0x0 DUP2 PUSH1 0x0 SWAP1 SSTORE POP PUSH1 0x1 ADD PUSH2 0x365A JUMP JUMPDEST POP SWAP1 JUMP JUMPDEST PUSH1 0x0 PUSH2 0x3689 PUSH2 0x3684 DUP5 PUSH2 0x4BC2 JUMP JUMPDEST PUSH2 0x4B9D JUMP JUMPDEST SWAP1 POP DUP1 DUP4 DUP3 MSTORE PUSH1 0x20 DUP3 ADD SWAP1 POP DUP3 DUP6 PUSH1 0x20 DUP7 MUL DUP3 ADD GT ISZERO PUSH2 0x36AC JUMPI PUSH2 0x36AB PUSH2 0x5235 JUMP JUMPDEST JUMPDEST PUSH1 0x0 JUMPDEST DUP6 DUP2 LT ISZERO PUSH2 0x36DC JUMPI DUP2 PUSH2 0x36C2 DUP9 DUP3 PUSH2 0x37DA JUMP JUMPDEST DUP5 MSTORE PUSH1 0x20 DUP5 ADD SWAP4 POP PUSH1 0x20 DUP4 ADD SWAP3 POP POP PUSH1 0x1 DUP2 ADD SWAP1 POP PUSH2 0x36AF JUMP JUMPDEST POP POP POP SWAP4 SWAP3 POP POP POP JUMP JUMPDEST PUSH1 0x0 PUSH2 0x36F9 PUSH2 0x36F4 DUP5 PUSH2 0x4BEE JUMP JUMPDEST PUSH2 0x4B9D JUMP JUMPDEST SWAP1 POP DUP1 DUP4 DUP3 MSTORE PUSH1 0x20 DUP3 ADD SWAP1 POP DUP3 DUP6 PUSH1 0x20 DUP7 MUL DUP3 ADD GT ISZERO PUSH2 0x371C JUMPI PUSH2 0x371B PUSH2 0x5235 JUMP JUMPDEST JUMPDEST PUSH1 0x0 JUMPDEST DUP6 DUP2 LT ISZERO PUSH2 0x374C JUMPI DUP2 PUSH2 0x3732 DUP9 DUP3 PUSH2 0x38E6 JUMP JUMPDEST DUP5 MSTORE PUSH1 0x20 DUP5 ADD SWAP4 POP PUSH1 0x20 DUP4 ADD SWAP3 POP POP PUSH1 0x1 DUP2 ADD SWAP1 POP PUSH2 0x371F JUMP JUMPDEST POP POP POP SWAP4 SWAP3 POP POP POP JUMP JUMPDEST PUSH1 0x0 PUSH2 0x3769 PUSH2 0x3764 DUP5 PUSH2 0x4C1A JUMP JUMPDEST PUSH2 0x4B9D JUMP JUMPDEST SWAP1 POP DUP3 DUP2 MSTORE PUSH1 0x20 DUP2 ADD DUP5 DUP5 DUP5 ADD GT ISZERO PUSH2 0x3785 JUMPI PUSH2 0x3784 PUSH2 0x523A JUMP JUMPDEST JUMPDEST PUSH2 0x3790 DUP5 DUP3 DUP6 PUSH2 0x5004 JUMP JUMPDEST POP SWAP4 SWAP3 POP POP POP JUMP JUMPDEST PUSH1 0x0 PUSH2 0x37AB PUSH2 0x37A6 DUP5 PUSH2 0x4C4B JUMP JUMPDEST PUSH2 0x4B9D JUMP JUMPDEST SWAP1 POP DUP3 DUP2 MSTORE PUSH1 0x20 DUP2 ADD DUP5 DUP5 DUP5 ADD GT ISZERO PUSH2 0x37C7 JUMPI PUSH2 0x37C6 PUSH2 0x523A JUMP JUMPDEST JUMPDEST PUSH2 0x37D2 DUP5 DUP3 DUP6 PUSH2 0x5004 JUMP JUMPDEST POP SWAP4 SWAP3 POP POP POP JUMP JUMPDEST PUSH1 0x0 DUP2 CALLDATALOAD SWAP1 POP PUSH2 0x37E9 DUP2 PUSH2 0x5A09 JUMP JUMPDEST SWAP3 SWAP2 POP POP JUMP JUMPDEST PUSH1 0x0 DUP3 PUSH1 0x1F DUP4 ADD SLT PUSH2 0x3804 JUMPI PUSH2 0x3803 PUSH2 0x5230 JUMP JUMPDEST JUMPDEST DUP2 CALLDATALOAD PUSH2 0x3814 DUP5 DUP3 PUSH1 0x20 DUP7 ADD PUSH2 0x3676 JUMP JUMPDEST SWAP2 POP POP SWAP3 SWAP2 POP POP JUMP JUMPDEST PUSH1 0x0 DUP3 PUSH1 0x1F DUP4 ADD SLT PUSH2 0x3832 JUMPI PUSH2 0x3831 PUSH2 0x5230 JUMP JUMPDEST JUMPDEST DUP2 CALLDATALOAD PUSH2 0x3842 DUP5 DUP3 PUSH1 0x20 DUP7 ADD PUSH2 0x36E6 JUMP JUMPDEST SWAP2 POP POP SWAP3 SWAP2 POP POP JUMP JUMPDEST PUSH1 0x0 DUP2 CALLDATALOAD SWAP1 POP PUSH2 0x385A DUP2 PUSH2 0x5A20 JUMP JUMPDEST SWAP3 SWAP2 POP POP JUMP JUMPDEST PUSH1 0x0 DUP2 CALLDATALOAD SWAP1 POP PUSH2 0x386F DUP2 PUSH2 0x5A37 JUMP JUMPDEST SWAP3 SWAP2 POP POP JUMP JUMPDEST PUSH1 0x0 DUP2 MLOAD SWAP1 POP PUSH2 0x3884 DUP2 PUSH2 0x5A37 JUMP JUMPDEST SWAP3 SWAP2 POP POP JUMP JUMPDEST PUSH1 0x0 DUP3 PUSH1 0x1F DUP4 ADD SLT PUSH2 0x389F JUMPI PUSH2 0x389E PUSH2 0x5230 JUMP JUMPDEST JUMPDEST DUP2 CALLDATALOAD PUSH2 0x38AF DUP5 DUP3 PUSH1 0x20 DUP7 ADD PUSH2 0x3756 JUMP JUMPDEST SWAP2 POP POP SWAP3 SWAP2 POP POP JUMP JUMPDEST PUSH1 0x0 DUP3 PUSH1 0x1F DUP4 ADD SLT PUSH2 0x38CD JUMPI PUSH2 0x38CC PUSH2 0x5230 JUMP JUMPDEST JUMPDEST DUP2 CALLDATALOAD PUSH2 0x38DD DUP5 DUP3 PUSH1 0x20 DUP7 ADD PUSH2 0x3798 JUMP JUMPDEST SWAP2 POP POP SWAP3 SWAP2 POP POP JUMP JUMPDEST PUSH1 0x0 DUP2 CALLDATALOAD SWAP1 POP PUSH2 0x38F5 DUP2 PUSH2 0x5A4E JUMP JUMPDEST SWAP3 SWAP2 POP POP JUMP JUMPDEST PUSH1 0x0 PUSH1 0x20 DUP3 DUP5 SUB SLT ISZERO PUSH2 0x3911 JUMPI PUSH2 0x3910 PUSH2 0x5244 JUMP JUMPDEST JUMPDEST PUSH1 0x0 PUSH2 0x391F DUP5 DUP3 DUP6 ADD PUSH2 0x37DA JUMP JUMPDEST SWAP2 POP POP SWAP3 SWAP2 POP POP JUMP JUMPDEST PUSH1 0x0 DUP1 PUSH1 0x40 DUP4 DUP6 SUB SLT ISZERO PUSH2 0x393F JUMPI PUSH2 0x393E PUSH2 0x5244 JUMP JUMPDEST JUMPDEST PUSH1 0x0 PUSH2 0x394D DUP6 DUP3 DUP7 ADD PUSH2 0x37DA JUMP JUMPDEST SWAP3 POP POP PUSH1 0x20 PUSH2 0x395E DUP6 DUP3 DUP7 ADD PUSH2 0x37DA JUMP JUMPDEST SWAP2 POP POP SWAP3 POP SWAP3 SWAP1 POP JUMP JUMPDEST PUSH1 0x0 DUP1 PUSH1 0x0 DUP1 PUSH1 0x0 PUSH1 0xA0 DUP7 DUP9 SUB SLT ISZERO PUSH2 0x3984 JUMPI PUSH2 0x3983 PUSH2 0x5244 JUMP JUMPDEST JUMPDEST PUSH1 0x0 PUSH2 0x3992 DUP9 DUP3 DUP10 ADD PUSH2 0x37DA JUMP JUMPDEST SWAP6 POP POP PUSH1 0x20 PUSH2 0x39A3 DUP9 DUP3 DUP10 ADD PUSH2 0x37DA JUMP JUMPDEST SWAP5 POP POP PUSH1 0x40 DUP7 ADD CALLDATALOAD PUSH8 0xFFFFFFFFFFFFFFFF DUP2 GT ISZERO PUSH2 0x39C4 JUMPI PUSH2 0x39C3 PUSH2 0x523F JUMP JUMPDEST JUMPDEST PUSH2 0x39D0 DUP9 DUP3 DUP10 ADD PUSH2 0x381D JUMP JUMPDEST SWAP4 POP POP PUSH1 0x60 DUP7 ADD CALLDATALOAD PUSH8 0xFFFFFFFFFFFFFFFF DUP2 GT ISZERO PUSH2 0x39F1 JUMPI PUSH2 0x39F0 PUSH2 0x523F JUMP JUMPDEST JUMPDEST PUSH2 0x39FD DUP9 DUP3 DUP10 ADD PUSH2 0x381D JUMP JUMPDEST SWAP3 POP POP PUSH1 0x80 DUP7 ADD CALLDATALOAD PUSH8 0xFFFFFFFFFFFFFFFF DUP2 GT ISZERO PUSH2 0x3A1E JUMPI PUSH2 0x3A1D PUSH2 0x523F JUMP JUMPDEST JUMPDEST PUSH2 0x3A2A DUP9 DUP3 DUP10 ADD PUSH2 0x388A JUMP JUMPDEST SWAP2 POP POP SWAP3 SWAP6 POP SWAP3 SWAP6 SWAP1 SWAP4 POP JUMP JUMPDEST PUSH1 0x0 DUP1 PUSH1 0x0 DUP1 PUSH1 0x0 PUSH1 0xA0 DUP7 DUP9 SUB SLT ISZERO PUSH2 0x3A53 JUMPI PUSH2 0x3A52 PUSH2 0x5244 JUMP JUMPDEST JUMPDEST PUSH1 0x0 PUSH2 0x3A61 DUP9 DUP3 DUP10 ADD PUSH2 0x37DA JUMP JUMPDEST SWAP6 POP POP PUSH1 0x20 PUSH2 0x3A72 DUP9 DUP3 DUP10 ADD PUSH2 0x37DA JUMP JUMPDEST SWAP5 POP POP PUSH1 0x40 PUSH2 0x3A83 DUP9 DUP3 DUP10 ADD PUSH2 0x38E6 JUMP JUMPDEST SWAP4 POP POP PUSH1 0x60 PUSH2 0x3A94 DUP9 DUP3 DUP10 ADD PUSH2 0x38E6 JUMP JUMPDEST SWAP3 POP POP PUSH1 0x80 DUP7 ADD CALLDATALOAD PUSH8 0xFFFFFFFFFFFFFFFF DUP2 GT ISZERO PUSH2 0x3AB5 JUMPI PUSH2 0x3AB4 PUSH2 0x523F JUMP JUMPDEST JUMPDEST PUSH2 0x3AC1 DUP9 DUP3 DUP10 ADD PUSH2 0x388A JUMP JUMPDEST SWAP2 POP POP SWAP3 SWAP6 POP SWAP3 SWAP6 SWAP1 SWAP4 POP JUMP JUMPDEST PUSH1 0x0 DUP1 PUSH1 0x0 PUSH1 0x60 DUP5 DUP7 SUB SLT ISZERO PUSH2 0x3AE7 JUMPI PUSH2 0x3AE6 PUSH2 0x5244 JUMP JUMPDEST JUMPDEST PUSH1 0x0 PUSH2 0x3AF5 DUP7 DUP3 DUP8 ADD PUSH2 0x37DA JUMP JUMPDEST SWAP4 POP POP PUSH1 0x20 DUP5 ADD CALLDATALOAD PUSH8 0xFFFFFFFFFFFFFFFF DUP2 GT ISZERO PUSH2 0x3B16 JUMPI PUSH2 0x3B15 PUSH2 0x523F JUMP JUMPDEST JUMPDEST PUSH2 0x3B22 DUP7 DUP3 DUP8 ADD PUSH2 0x381D JUMP JUMPDEST SWAP3 POP POP PUSH1 0x40 DUP5 ADD CALLDATALOAD PUSH8 0xFFFFFFFFFFFFFFFF DUP2 GT ISZERO PUSH2 0x3B43 JUMPI PUSH2 0x3B42 PUSH2 0x523F JUMP JUMPDEST JUMPDEST PUSH2 0x3B4F DUP7 DUP3 DUP8 ADD PUSH2 0x381D JUMP JUMPDEST SWAP2 POP POP SWAP3 POP SWAP3 POP SWAP3 JUMP JUMPDEST PUSH1 0x0 DUP1 PUSH1 0x0 DUP1 PUSH1 0x80 DUP6 DUP8 SUB SLT ISZERO PUSH2 0x3B73 JUMPI PUSH2 0x3B72 PUSH2 0x5244 JUMP JUMPDEST JUMPDEST PUSH1 0x0 PUSH2 0x3B81 DUP8 DUP3 DUP9 ADD PUSH2 0x37DA JUMP JUMPDEST SWAP5 POP POP PUSH1 0x20 DUP6 ADD CALLDATALOAD PUSH8 0xFFFFFFFFFFFFFFFF DUP2 GT ISZERO PUSH2 0x3BA2 JUMPI PUSH2 0x3BA1 PUSH2 0x523F JUMP JUMPDEST JUMPDEST PUSH2 0x3BAE DUP8 DUP3 DUP9 ADD PUSH2 0x381D JUMP JUMPDEST SWAP4 POP POP PUSH1 0x40 DUP6 ADD CALLDATALOAD PUSH8 0xFFFFFFFFFFFFFFFF DUP2 GT ISZERO PUSH2 0x3BCF JUMPI PUSH2 0x3BCE PUSH2 0x523F JUMP JUMPDEST JUMPDEST PUSH2 0x3BDB DUP8 DUP3 DUP9 ADD PUSH2 0x381D JUMP JUMPDEST SWAP3 POP POP PUSH1 0x60 DUP6 ADD CALLDATALOAD PUSH8 0xFFFFFFFFFFFFFFFF DUP2 GT ISZERO PUSH2 0x3BFC JUMPI PUSH2 0x3BFB PUSH2 0x523F JUMP JUMPDEST JUMPDEST PUSH2 0x3C08 DUP8 DUP3 DUP9 ADD PUSH2 0x388A JUMP JUMPDEST SWAP2 POP POP SWAP3 SWAP6 SWAP2 SWAP5 POP SWAP3 POP JUMP JUMPDEST PUSH1 0x0 DUP1 PUSH1 0x0 PUSH1 0x60 DUP5 DUP7 SUB SLT ISZERO PUSH2 0x3C2D JUMPI PUSH2 0x3C2C PUSH2 0x5244 JUMP JUMPDEST JUMPDEST PUSH1 0x0 PUSH2 0x3C3B DUP7 DUP3 DUP8 ADD PUSH2 0x37DA JUMP JUMPDEST SWAP4 POP POP PUSH1 0x20 DUP5 ADD CALLDATALOAD PUSH8 0xFFFFFFFFFFFFFFFF DUP2 GT ISZERO PUSH2 0x3C5C JUMPI PUSH2 0x3C5B PUSH2 0x523F JUMP JUMPDEST JUMPDEST PUSH2 0x3C68 DUP7 DUP3 DUP8 ADD PUSH2 0x381D JUMP JUMPDEST SWAP3 POP POP PUSH1 0x40 DUP5 ADD CALLDATALOAD PUSH8 0xFFFFFFFFFFFFFFFF DUP2 GT ISZERO PUSH2 0x3C89 JUMPI PUSH2 0x3C88 PUSH2 0x523F JUMP JUMPDEST JUMPDEST PUSH2 0x3C95 DUP7 DUP3 DUP8 ADD PUSH2 0x388A JUMP JUMPDEST SWAP2 POP POP SWAP3 POP SWAP3 POP SWAP3 JUMP JUMPDEST PUSH1 0x0 DUP1 PUSH1 0x40 DUP4 DUP6 SUB SLT ISZERO PUSH2 0x3CB6 JUMPI PUSH2 0x3CB5 PUSH2 0x5244 JUMP JUMPDEST JUMPDEST PUSH1 0x0 PUSH2 0x3CC4 DUP6 DUP3 DUP7 ADD PUSH2 0x37DA JUMP JUMPDEST SWAP3 POP POP PUSH1 0x20 PUSH2 0x3CD5 DUP6 DUP3 DUP7 ADD PUSH2 0x384B JUMP JUMPDEST SWAP2 POP POP SWAP3 POP SWAP3 SWAP1 POP JUMP JUMPDEST PUSH1 0x0 DUP1 PUSH1 0x40 DUP4 DUP6 SUB SLT ISZERO PUSH2 0x3CF6 JUMPI PUSH2 0x3CF5 PUSH2 0x5244 JUMP JUMPDEST JUMPDEST PUSH1 0x0 PUSH2 0x3D04 DUP6 DUP3 DUP7 ADD PUSH2 0x37DA JUMP JUMPDEST SWAP3 POP POP PUSH1 0x20 PUSH2 0x3D15 DUP6 DUP3 DUP7 ADD PUSH2 0x38E6 JUMP JUMPDEST SWAP2 POP POP SWAP3 POP SWAP3 SWAP1 POP JUMP JUMPDEST PUSH1 0x0 DUP1 PUSH1 0x0 PUSH1 0x60 DUP5 DUP7 SUB SLT ISZERO PUSH2 0x3D38 JUMPI PUSH2 0x3D37 PUSH2 0x5244 JUMP JUMPDEST JUMPDEST PUSH1 0x0 PUSH2 0x3D46 DUP7 DUP3 DUP8 ADD PUSH2 0x37DA JUMP JUMPDEST SWAP4 POP POP PUSH1 0x20 PUSH2 0x3D57 DUP7 DUP3 DUP8 ADD PUSH2 0x38E6 JUMP JUMPDEST SWAP3 POP POP PUSH1 0x40 DUP5 ADD CALLDATALOAD PUSH8 0xFFFFFFFFFFFFFFFF DUP2 GT ISZERO PUSH2 0x3D78 JUMPI PUSH2 0x3D77 PUSH2 0x523F JUMP JUMPDEST JUMPDEST PUSH2 0x3D84 DUP7 DUP3 DUP8 ADD PUSH2 0x388A JUMP JUMPDEST SWAP2 POP POP SWAP3 POP SWAP3 POP SWAP3 JUMP JUMPDEST PUSH1 0x0 DUP1 PUSH1 0x0 PUSH1 0x60 DUP5 DUP7 SUB SLT ISZERO PUSH2 0x3DA7 JUMPI PUSH2 0x3DA6 PUSH2 0x5244 JUMP JUMPDEST JUMPDEST PUSH1 0x0 PUSH2 0x3DB5 DUP7 DUP3 DUP8 ADD PUSH2 0x37DA JUMP JUMPDEST SWAP4 POP POP PUSH1 0x20 PUSH2 0x3DC6 DUP7 DUP3 DUP8 ADD PUSH2 0x38E6 JUMP JUMPDEST SWAP3 POP POP PUSH1 0x40 PUSH2 0x3DD7 DUP7 DUP3 DUP8 ADD PUSH2 0x38E6 JUMP JUMPDEST SWAP2 POP POP SWAP3 POP SWAP3 POP SWAP3 JUMP JUMPDEST PUSH1 0x0 DUP1 PUSH1 0x0 DUP1 PUSH1 0x80 DUP6 DUP8 SUB SLT ISZERO PUSH2 0x3DFB JUMPI PUSH2 0x3DFA PUSH2 0x5244 JUMP JUMPDEST JUMPDEST PUSH1 0x0 PUSH2 0x3E09 DUP8 DUP3 DUP9 ADD PUSH2 0x37DA JUMP JUMPDEST SWAP5 POP POP PUSH1 0x20 PUSH2 0x3E1A DUP8 DUP3 DUP9 ADD PUSH2 0x38E6 JUMP JUMPDEST SWAP4 POP POP PUSH1 0x40 PUSH2 0x3E2B DUP8 DUP3 DUP9 ADD PUSH2 0x38E6 JUMP JUMPDEST SWAP3 POP POP PUSH1 0x60 DUP6 ADD CALLDATALOAD PUSH8 0xFFFFFFFFFFFFFFFF DUP2 GT ISZERO PUSH2 0x3E4C JUMPI PUSH2 0x3E4B PUSH2 0x523F JUMP JUMPDEST JUMPDEST PUSH2 0x3E58 DUP8 DUP3 DUP9 ADD PUSH2 0x388A JUMP JUMPDEST SWAP2 POP POP SWAP3 SWAP6 SWAP2 SWAP5 POP SWAP3 POP JUMP JUMPDEST PUSH1 0x0 DUP1 PUSH1 0x40 DUP4 DUP6 SUB SLT ISZERO PUSH2 0x3E7B JUMPI PUSH2 0x3E7A PUSH2 0x5244 JUMP JUMPDEST JUMPDEST PUSH1 0x0 DUP4 ADD CALLDATALOAD PUSH8 0xFFFFFFFFFFFFFFFF DUP2 GT ISZERO PUSH2 0x3E99 JUMPI PUSH2 0x3E98 PUSH2 0x523F JUMP JUMPDEST JUMPDEST PUSH2 0x3EA5 DUP6 DUP3 DUP7 ADD PUSH2 0x37EF JUMP JUMPDEST SWAP3 POP POP PUSH1 0x20 DUP4 ADD CALLDATALOAD PUSH8 0xFFFFFFFFFFFFFFFF DUP2 GT ISZERO PUSH2 0x3EC6 JUMPI PUSH2 0x3EC5 PUSH2 0x523F JUMP JUMPDEST JUMPDEST PUSH2 0x3ED2 DUP6 DUP3 DUP7 ADD PUSH2 0x381D JUMP JUMPDEST SWAP2 POP POP SWAP3 POP SWAP3 SWAP1 POP JUMP JUMPDEST PUSH1 0x0 PUSH1 0x20 DUP3 DUP5 SUB SLT ISZERO PUSH2 0x3EF2 JUMPI PUSH2 0x3EF1 PUSH2 0x5244 JUMP JUMPDEST JUMPDEST PUSH1 0x0 PUSH2 0x3F00 DUP5 DUP3 DUP6 ADD PUSH2 0x3860 JUMP JUMPDEST SWAP2 POP POP SWAP3 SWAP2 POP POP JUMP JUMPDEST PUSH1 0x0 PUSH1 0x20 DUP3 DUP5 SUB SLT ISZERO PUSH2 0x3F1F JUMPI PUSH2 0x3F1E PUSH2 0x5244 JUMP JUMPDEST JUMPDEST PUSH1 0x0 PUSH2 0x3F2D DUP5 DUP3 DUP6 ADD PUSH2 0x3875 JUMP JUMPDEST SWAP2 POP POP SWAP3 SWAP2 POP POP JUMP JUMPDEST PUSH1 0x0 PUSH1 0x20 DUP3 DUP5 SUB SLT ISZERO PUSH2 0x3F4C JUMPI PUSH2 0x3F4B PUSH2 0x5244 JUMP JUMPDEST JUMPDEST PUSH1 0x0 DUP3 ADD CALLDATALOAD PUSH8 0xFFFFFFFFFFFFFFFF DUP2 GT ISZERO PUSH2 0x3F6A JUMPI PUSH2 0x3F69 PUSH2 0x523F JUMP JUMPDEST JUMPDEST PUSH2 0x3F76 DUP5 DUP3 DUP6 ADD PUSH2 0x38B8 JUMP JUMPDEST SWAP2 POP POP SWAP3 SWAP2 POP POP JUMP JUMPDEST PUSH1 0x0 DUP1 PUSH1 0x40 DUP4 DUP6 SUB SLT ISZERO PUSH2 0x3F96 JUMPI PUSH2 0x3F95 PUSH2 0x5244 JUMP JUMPDEST JUMPDEST PUSH1 0x0 DUP4 ADD CALLDATALOAD PUSH8 0xFFFFFFFFFFFFFFFF DUP2 GT ISZERO PUSH2 0x3FB4 JUMPI PUSH2 0x3FB3 PUSH2 0x523F JUMP JUMPDEST JUMPDEST PUSH2 0x3FC0 DUP6 DUP3 DUP7 ADD PUSH2 0x38B8 JUMP JUMPDEST SWAP3 POP POP PUSH1 0x20 PUSH2 0x3FD1 DUP6 DUP3 DUP7 ADD PUSH2 0x38E6 JUMP JUMPDEST SWAP2 POP POP SWAP3 POP SWAP3 SWAP1 POP JUMP JUMPDEST PUSH1 0x0 PUSH1 0x20 DUP3 DUP5 SUB SLT ISZERO PUSH2 0x3FF1 JUMPI PUSH2 0x3FF0 PUSH2 0x5244 JUMP JUMPDEST JUMPDEST PUSH1 0x0 PUSH2 0x3FFF DUP5 DUP3 DUP6 ADD PUSH2 0x38E6 JUMP JUMPDEST SWAP2 POP POP SWAP3 SWAP2 POP POP JUMP JUMPDEST PUSH1 0x0 DUP1 PUSH1 0x40 DUP4 DUP6 SUB SLT ISZERO PUSH2 0x401F JUMPI PUSH2 0x401E PUSH2 0x5244 JUMP JUMPDEST JUMPDEST PUSH1 0x0 PUSH2 0x402D DUP6 DUP3 DUP7 ADD PUSH2 0x38E6 JUMP JUMPDEST SWAP3 POP POP PUSH1 0x20 DUP4 ADD CALLDATALOAD PUSH8 0xFFFFFFFFFFFFFFFF DUP2 GT ISZERO PUSH2 0x404E JUMPI PUSH2 0x404D PUSH2 0x523F JUMP JUMPDEST JUMPDEST PUSH2 0x405A DUP6 DUP3 DUP7 ADD PUSH2 0x38B8 JUMP JUMPDEST SWAP2 POP POP SWAP3 POP SWAP3 SWAP1 POP JUMP JUMPDEST PUSH1 0x0 PUSH2 0x4070 DUP4 DUP4 PUSH2 0x455B JUMP JUMPDEST PUSH1 0x20 DUP4 ADD SWAP1 POP SWAP3 SWAP2 POP POP JUMP JUMPDEST PUSH2 0x4085 DUP2 PUSH2 0x4F7E JUMP JUMPDEST DUP3 MSTORE POP POP JUMP JUMPDEST PUSH1 0x0 PUSH2 0x4096 DUP3 PUSH2 0x4C8C JUMP JUMPDEST PUSH2 0x40A0 DUP2 DUP6 PUSH2 0x4CBA JUMP JUMPDEST SWAP4 POP PUSH2 0x40AB DUP4 PUSH2 0x4C7C JUMP JUMPDEST DUP1 PUSH1 0x0 JUMPDEST DUP4 DUP2 LT ISZERO PUSH2 0x40DC JUMPI DUP2 MLOAD PUSH2 0x40C3 DUP9 DUP3 PUSH2 0x4064 JUMP JUMPDEST SWAP8 POP PUSH2 0x40CE DUP4 PUSH2 0x4CAD JUMP JUMPDEST SWAP3 POP POP PUSH1 0x1 DUP2 ADD SWAP1 POP PUSH2 0x40AF JUMP JUMPDEST POP DUP6 SWAP4 POP POP POP POP SWAP3 SWAP2 POP POP JUMP JUMPDEST PUSH2 0x40F2 DUP2 PUSH2 0x4F90 JUMP JUMPDEST DUP3 MSTORE POP POP JUMP JUMPDEST PUSH1 0x0 PUSH2 0x4103 DUP3 PUSH2 0x4C97 JUMP JUMPDEST PUSH2 0x410D DUP2 DUP6 PUSH2 0x4CCB JUMP JUMPDEST SWAP4 POP PUSH2 0x411D DUP2 DUP6 PUSH1 0x20 DUP7 ADD PUSH2 0x5013 JUMP JUMPDEST PUSH2 0x4126 DUP2 PUSH2 0x5249 JUMP JUMPDEST DUP5 ADD SWAP2 POP POP SWAP3 SWAP2 POP POP JUMP JUMPDEST PUSH2 0x413A DUP2 PUSH2 0x4FF2 JUMP JUMPDEST DUP3 MSTORE POP POP JUMP JUMPDEST PUSH1 0x0 PUSH2 0x414B DUP3 PUSH2 0x4CA2 JUMP JUMPDEST PUSH2 0x4155 DUP2 DUP6 PUSH2 0x4CDC JUMP JUMPDEST SWAP4 POP PUSH2 0x4165 DUP2 DUP6 PUSH1 0x20 DUP7 ADD PUSH2 0x5013 JUMP JUMPDEST PUSH2 0x416E DUP2 PUSH2 0x5249 JUMP JUMPDEST DUP5 ADD SWAP2 POP POP SWAP3 SWAP2 POP POP JUMP JUMPDEST PUSH1 0x0 PUSH2 0x4184 DUP3 PUSH2 0x4CA2 JUMP JUMPDEST PUSH2 0x418E DUP2 DUP6 PUSH2 0x4CED JUMP JUMPDEST SWAP4 POP PUSH2 0x419E DUP2 DUP6 PUSH1 0x20 DUP7 ADD PUSH2 0x5013 JUMP JUMPDEST DUP1 DUP5 ADD SWAP2 POP POP SWAP3 SWAP2 POP POP JUMP JUMPDEST PUSH1 0x0 PUSH2 0x41B7 PUSH1 0x34 DUP4 PUSH2 0x4CDC JUMP JUMPDEST SWAP2 POP PUSH2 0x41C2 DUP3 PUSH2 0x5274 JUMP JUMPDEST PUSH1 0x40 DUP3 ADD SWAP1 POP SWAP2 SWAP1 POP JUMP JUMPDEST PUSH1 0x0 PUSH2 0x41DA PUSH1 0x28 DUP4 PUSH2 0x4CDC JUMP JUMPDEST SWAP2 POP PUSH2 0x41E5 DUP3 PUSH2 0x52C3 JUMP JUMPDEST PUSH1 0x40 DUP3 ADD SWAP1 POP SWAP2 SWAP1 POP JUMP JUMPDEST PUSH1 0x0 PUSH2 0x41FD PUSH1 0x14 DUP4 PUSH2 0x4CDC JUMP JUMPDEST SWAP2 POP PUSH2 0x4208 DUP3 PUSH2 0x5312 JUMP JUMPDEST PUSH1 0x20 DUP3 ADD SWAP1 POP SWAP2 SWAP1 POP JUMP JUMPDEST PUSH1 0x0 PUSH2 0x4220 PUSH1 0x24 DUP4 PUSH2 0x4CDC JUMP JUMPDEST SWAP2 POP PUSH2 0x422B DUP3 PUSH2 0x533B JUMP JUMPDEST PUSH1 0x40 DUP3 ADD SWAP1 POP SWAP2 SWAP1 POP JUMP JUMPDEST PUSH1 0x0 PUSH2 0x4243 PUSH1 0x2B DUP4 PUSH2 0x4CDC JUMP JUMPDEST SWAP2 POP PUSH2 0x424E DUP3 PUSH2 0x538A JUMP JUMPDEST PUSH1 0x40 DUP3 ADD SWAP1 POP SWAP2 SWAP1 POP JUMP JUMPDEST PUSH1 0x0 PUSH2 0x4266 PUSH1 0x26 DUP4 PUSH2 0x4CDC JUMP JUMPDEST SWAP2 POP PUSH2 0x4271 DUP3 PUSH2 0x53D9 JUMP JUMPDEST PUSH1 0x40 DUP3 ADD SWAP1 POP SWAP2 SWAP1 POP JUMP JUMPDEST PUSH1 0x0 PUSH2 0x4289 PUSH1 0x1C DUP4 PUSH2 0x4CDC JUMP JUMPDEST SWAP2 POP PUSH2 0x4294 DUP3 PUSH2 0x5428 JUMP JUMPDEST PUSH1 0x20 DUP3 ADD SWAP1 POP SWAP2 SWAP1 POP JUMP JUMPDEST PUSH1 0x0 PUSH2 0x42AC PUSH1 0x24 DUP4 PUSH2 0x4CDC JUMP JUMPDEST SWAP2 POP PUSH2 0x42B7 DUP3 PUSH2 0x5451 JUMP JUMPDEST PUSH1 0x40 DUP3 ADD SWAP1 POP SWAP2 SWAP1 POP JUMP JUMPDEST PUSH1 0x0 PUSH2 0x42CF PUSH1 0x2A DUP4 PUSH2 0x4CDC JUMP JUMPDEST SWAP2 POP PUSH2 0x42DA DUP3 PUSH2 0x54A0 JUMP JUMPDEST PUSH1 0x40 DUP3 ADD SWAP1 POP SWAP2 SWAP1 POP JUMP JUMPDEST PUSH1 0x0 PUSH2 0x42F2 PUSH1 0x29 DUP4 PUSH2 0x4CDC JUMP JUMPDEST SWAP2 POP PUSH2 0x42FD DUP3 PUSH2 0x54EF JUMP JUMPDEST PUSH1 0x40 DUP3 ADD SWAP1 POP SWAP2 SWAP1 POP JUMP JUMPDEST PUSH1 0x0 PUSH2 0x4315 PUSH1 0x1B DUP4 PUSH2 0x4CDC JUMP JUMPDEST SWAP2 POP PUSH2 0x4320 DUP3 PUSH2 0x553E JUMP JUMPDEST PUSH1 0x20 DUP3 ADD SWAP1 POP SWAP2 SWAP1 POP JUMP JUMPDEST PUSH1 0x0 PUSH2 0x4338 PUSH1 0x10 DUP4 PUSH2 0x4CDC JUMP JUMPDEST SWAP2 POP PUSH2 0x4343 DUP3 PUSH2 0x5567 JUMP JUMPDEST PUSH1 0x20 DUP3 ADD SWAP1 POP SWAP2 SWAP1 POP JUMP JUMPDEST PUSH1 0x0 PUSH2 0x435B PUSH1 0x1A DUP4 PUSH2 0x4CDC JUMP JUMPDEST SWAP2 POP PUSH2 0x4366 DUP3 PUSH2 0x5590 JUMP JUMPDEST PUSH1 0x20 DUP3 ADD SWAP1 POP SWAP2 SWAP1 POP JUMP JUMPDEST PUSH1 0x0 PUSH2 0x437E PUSH1 0x25 DUP4 PUSH2 0x4CDC JUMP JUMPDEST SWAP2 POP PUSH2 0x4389 DUP3 PUSH2 0x55B9 JUMP JUMPDEST PUSH1 0x40 DUP3 ADD SWAP1 POP SWAP2 SWAP1 POP JUMP JUMPDEST PUSH1 0x0 PUSH2 0x43A1 PUSH1 0x32 DUP4 PUSH2 0x4CDC JUMP JUMPDEST SWAP2 POP PUSH2 0x43AC DUP3 PUSH2 0x5608 JUMP JUMPDEST PUSH1 0x40 DUP3 ADD SWAP1 POP SWAP2 SWAP1 POP JUMP JUMPDEST PUSH1 0x0 PUSH2 0x43C4 PUSH1 0x23 DUP4 PUSH2 0x4CDC JUMP JUMPDEST SWAP2 POP PUSH2 0x43CF DUP3 PUSH2 0x5657 JUMP JUMPDEST PUSH1 0x40 DUP3 ADD SWAP1 POP SWAP2 SWAP1 POP JUMP JUMPDEST PUSH1 0x0 PUSH2 0x43E7 PUSH1 0x2A DUP4 PUSH2 0x4CDC JUMP JUMPDEST SWAP2 POP PUSH2 0x43F2 DUP3 PUSH2 0x56A6 JUMP JUMPDEST PUSH1 0x40 DUP3 ADD SWAP1 POP SWAP2 SWAP1 POP JUMP JUMPDEST PUSH1 0x0 PUSH2 0x440A PUSH1 0x1D DUP4 PUSH2 0x4CDC JUMP JUMPDEST SWAP2 POP PUSH2 0x4415 DUP3 PUSH2 0x56F5 JUMP JUMPDEST PUSH1 0x20 DUP3 ADD SWAP1 POP SWAP2 SWAP1 POP JUMP JUMPDEST PUSH1 0x0 PUSH2 0x442D PUSH1 0x20 DUP4 PUSH2 0x4CDC JUMP JUMPDEST SWAP2 POP PUSH2 0x4438 DUP3 PUSH2 0x571E JUMP JUMPDEST PUSH1 0x20 DUP3 ADD SWAP1 POP SWAP2 SWAP1 POP JUMP JUMPDEST PUSH1 0x0 PUSH2 0x4450 PUSH1 0x2F DUP4 PUSH2 0x4CDC JUMP JUMPDEST SWAP2 POP PUSH2 0x445B DUP3 PUSH2 0x5747 JUMP JUMPDEST PUSH1 0x40 DUP3 ADD SWAP1 POP SWAP2 SWAP1 POP JUMP JUMPDEST PUSH1 0x0 PUSH2 0x4473 PUSH1 0x4 DUP4 PUSH2 0x4CED JUMP JUMPDEST SWAP2 POP PUSH2 0x447E DUP3 PUSH2 0x5796 JUMP JUMPDEST PUSH1 0x4 DUP3 ADD SWAP1 POP SWAP2 SWAP1 POP JUMP JUMPDEST PUSH1 0x0 PUSH2 0x4496 PUSH1 0x22 DUP4 PUSH2 0x4CDC JUMP JUMPDEST SWAP2 POP PUSH2 0x44A1 DUP3 PUSH2 0x57BF JUMP JUMPDEST PUSH1 0x40 DUP3 ADD SWAP1 POP SWAP2 SWAP1 POP JUMP JUMPDEST PUSH1 0x0 PUSH2 0x44B9 PUSH1 0xE DUP4 PUSH2 0x4CDC JUMP JUMPDEST SWAP2 POP PUSH2 0x44C4 DUP3 PUSH2 0x580E JUMP JUMPDEST PUSH1 0x20 DUP3 ADD SWAP1 POP SWAP2 SWAP1 POP JUMP JUMPDEST PUSH1 0x0 PUSH2 0x44DC PUSH1 0x29 DUP4 PUSH2 0x4CDC JUMP JUMPDEST SWAP2 POP PUSH2 0x44E7 DUP3 PUSH2 0x5837 JUMP JUMPDEST PUSH1 0x40 DUP3 ADD SWAP1 POP SWAP2 SWAP1 POP JUMP JUMPDEST PUSH1 0x0 PUSH2 0x44FF PUSH1 0x29 DUP4 PUSH2 0x4CDC JUMP JUMPDEST SWAP2 POP PUSH2 0x450A DUP3 PUSH2 0x5886 JUMP JUMPDEST PUSH1 0x40 DUP3 ADD SWAP1 POP SWAP2 SWAP1 POP JUMP JUMPDEST PUSH1 0x0 PUSH2 0x4522 PUSH1 0x28 DUP4 PUSH2 0x4CDC JUMP JUMPDEST SWAP2 POP PUSH2 0x452D DUP3 PUSH2 0x58D5 JUMP JUMPDEST PUSH1 0x40 DUP3 ADD SWAP1 POP SWAP2 SWAP1 POP JUMP JUMPDEST PUSH1 0x0 PUSH2 0x4545 PUSH1 0x21 DUP4 PUSH2 0x4CDC JUMP JUMPDEST SWAP2 POP PUSH2 0x4550 DUP3 PUSH2 0x5924 JUMP JUMPDEST PUSH1 0x40 DUP3 ADD SWAP1 POP SWAP2 SWAP1 POP JUMP JUMPDEST PUSH2 0x4564 DUP2 PUSH2 0x4FE8 JUMP JUMPDEST DUP3 MSTORE POP POP JUMP JUMPDEST PUSH2 0x4573 DUP2 PUSH2 0x4FE8 JUMP JUMPDEST DUP3 MSTORE POP POP JUMP JUMPDEST PUSH1 0x0 PUSH2 0x4585 DUP3 DUP6 PUSH2 0x4179 JUMP JUMPDEST SWAP2 POP PUSH2 0x4591 DUP3 DUP5 PUSH2 0x4179 JUMP JUMPDEST SWAP2 POP PUSH2 0x459C DUP3 PUSH2 0x4466 JUMP JUMPDEST SWAP2 POP DUP2 SWAP1 POP SWAP4 SWAP3 POP POP POP JUMP JUMPDEST PUSH1 0x0 PUSH2 0x45B4 DUP3 DUP5 PUSH2 0x4179 JUMP JUMPDEST SWAP2 POP PUSH2 0x45BF DUP3 PUSH2 0x4466 JUMP JUMPDEST SWAP2 POP DUP2 SWAP1 POP SWAP3 SWAP2 POP POP JUMP JUMPDEST PUSH1 0x0 PUSH1 0x20 DUP3 ADD SWAP1 POP PUSH2 0x45DF PUSH1 0x0 DUP4 ADD DUP5 PUSH2 0x407C JUMP JUMPDEST SWAP3 SWAP2 POP POP JUMP JUMPDEST PUSH1 0x0 PUSH1 0xA0 DUP3 ADD SWAP1 POP PUSH2 0x45FA PUSH1 0x0 DUP4 ADD DUP9 PUSH2 0x407C JUMP JUMPDEST PUSH2 0x4607 PUSH1 0x20 DUP4 ADD DUP8 PUSH2 0x407C JUMP JUMPDEST DUP2 DUP2 SUB PUSH1 0x40 DUP4 ADD MSTORE PUSH2 0x4619 DUP2 DUP7 PUSH2 0x408B JUMP JUMPDEST SWAP1 POP DUP2 DUP2 SUB PUSH1 0x60 DUP4 ADD MSTORE PUSH2 0x462D DUP2 DUP6 PUSH2 0x408B JUMP JUMPDEST SWAP1 POP DUP2 DUP2 SUB PUSH1 0x80 DUP4 ADD MSTORE PUSH2 0x4641 DUP2 DUP5 PUSH2 0x40F8 JUMP JUMPDEST SWAP1 POP SWAP7 SWAP6 POP POP POP POP POP POP JUMP JUMPDEST PUSH1 0x0 PUSH1 0xA0 DUP3 ADD SWAP1 POP PUSH2 0x4662 PUSH1 0x0 DUP4 ADD DUP9 PUSH2 0x407C JUMP JUMPDEST PUSH2 0x466F PUSH1 0x20 DUP4 ADD DUP8 PUSH2 0x407C JUMP JUMPDEST PUSH2 0x467C PUSH1 0x40 DUP4 ADD DUP7 PUSH2 0x456A JUMP JUMPDEST PUSH2 0x4689 PUSH1 0x60 DUP4 ADD DUP6 PUSH2 0x456A JUMP JUMPDEST DUP2 DUP2 SUB PUSH1 0x80 DUP4 ADD MSTORE PUSH2 0x469B DUP2 DUP5 PUSH2 0x40F8 JUMP JUMPDEST SWAP1 POP SWAP7 SWAP6 POP POP POP POP POP POP JUMP JUMPDEST PUSH1 0x0 PUSH1 0x60 DUP3 ADD SWAP1 POP PUSH2 0x46BC PUSH1 0x0 DUP4 ADD DUP7 PUSH2 0x407C JUMP JUMPDEST DUP2 DUP2 SUB PUSH1 0x20 DUP4 ADD MSTORE PUSH2 0x46CE DUP2 DUP6 PUSH2 0x408B JUMP JUMPDEST SWAP1 POP DUP2 DUP2 SUB PUSH1 0x40 DUP4 ADD MSTORE PUSH2 0x46E2 DUP2 DUP5 PUSH2 0x408B JUMP JUMPDEST SWAP1 POP SWAP5 SWAP4 POP POP POP POP JUMP JUMPDEST PUSH1 0x0 PUSH1 0x40 DUP3 ADD SWAP1 POP PUSH2 0x4701 PUSH1 0x0 DUP4 ADD DUP6 PUSH2 0x407C JUMP JUMPDEST PUSH2 0x470E PUSH1 0x20 DUP4 ADD DUP5 PUSH2 0x456A JUMP JUMPDEST SWAP4 SWAP3 POP POP POP JUMP JUMPDEST PUSH1 0x0 PUSH1 0x60 DUP3 ADD SWAP1 POP PUSH2 0x472A PUSH1 0x0 DUP4 ADD DUP7 PUSH2 0x407C JUMP JUMPDEST PUSH2 0x4737 PUSH1 0x20 DUP4 ADD DUP6 PUSH2 0x456A JUMP JUMPDEST PUSH2 0x4744 PUSH1 0x40 DUP4 ADD DUP5 PUSH2 0x4131 JUMP JUMPDEST SWAP5 SWAP4 POP POP POP POP JUMP JUMPDEST PUSH1 0x0 PUSH1 0x60 DUP3 ADD SWAP1 POP PUSH2 0x4761 PUSH1 0x0 DUP4 ADD DUP7 PUSH2 0x407C JUMP JUMPDEST PUSH2 0x476E PUSH1 0x20 DUP4 ADD DUP6 PUSH2 0x456A JUMP JUMPDEST PUSH2 0x477B PUSH1 0x40 DUP4 ADD DUP5 PUSH2 0x456A JUMP JUMPDEST SWAP5 SWAP4 POP POP POP POP JUMP JUMPDEST PUSH1 0x0 PUSH1 0x20 DUP3 ADD SWAP1 POP DUP2 DUP2 SUB PUSH1 0x0 DUP4 ADD MSTORE PUSH2 0x479D DUP2 DUP5 PUSH2 0x408B JUMP JUMPDEST SWAP1 POP SWAP3 SWAP2 POP POP JUMP JUMPDEST PUSH1 0x0 PUSH1 0x40 DUP3 ADD SWAP1 POP DUP2 DUP2 SUB PUSH1 0x0 DUP4 ADD MSTORE PUSH2 0x47BF DUP2 DUP6 PUSH2 0x408B JUMP JUMPDEST SWAP1 POP DUP2 DUP2 SUB PUSH1 0x20 DUP4 ADD MSTORE PUSH2 0x47D3 DUP2 DUP5 PUSH2 0x408B JUMP JUMPDEST SWAP1 POP SWAP4 SWAP3 POP POP POP JUMP JUMPDEST PUSH1 0x0 PUSH1 0x20 DUP3 ADD SWAP1 POP PUSH2 0x47F1 PUSH1 0x0 DUP4 ADD DUP5 PUSH2 0x40E9 JUMP JUMPDEST SWAP3 SWAP2 POP POP JUMP JUMPDEST PUSH1 0x0 PUSH1 0x20 DUP3 ADD SWAP1 POP DUP2 DUP2 SUB PUSH1 0x0 DUP4 ADD MSTORE PUSH2 0x4811 DUP2 DUP5 PUSH2 0x4140 JUMP JUMPDEST SWAP1 POP SWAP3 SWAP2 POP POP JUMP JUMPDEST PUSH1 0x0 PUSH1 0x20 DUP3 ADD SWAP1 POP DUP2 DUP2 SUB PUSH1 0x0 DUP4 ADD MSTORE PUSH2 0x4832 DUP2 PUSH2 0x41AA JUMP JUMPDEST SWAP1 POP SWAP2 SWAP1 POP JUMP JUMPDEST PUSH1 0x0 PUSH1 0x20 DUP3 ADD SWAP1 POP DUP2 DUP2 SUB PUSH1 0x0 DUP4 ADD MSTORE PUSH2 0x4852 DUP2 PUSH2 0x41CD JUMP JUMPDEST SWAP1 POP SWAP2 SWAP1 POP JUMP JUMPDEST PUSH1 0x0 PUSH1 0x20 DUP3 ADD SWAP1 POP DUP2 DUP2 SUB PUSH1 0x0 DUP4 ADD MSTORE PUSH2 0x4872 DUP2 PUSH2 0x41F0 JUMP JUMPDEST SWAP1 POP SWAP2 SWAP1 POP JUMP JUMPDEST PUSH1 0x0 PUSH1 0x20 DUP3 ADD SWAP1 POP DUP2 DUP2 SUB PUSH1 0x0 DUP4 ADD MSTORE PUSH2 0x4892 DUP2 PUSH2 0x4213 JUMP JUMPDEST SWAP1 POP SWAP2 SWAP1 POP JUMP JUMPDEST PUSH1 0x0 PUSH1 0x20 DUP3 ADD SWAP1 POP DUP2 DUP2 SUB PUSH1 0x0 DUP4 ADD MSTORE PUSH2 0x48B2 DUP2 PUSH2 0x4236 JUMP JUMPDEST SWAP1 POP SWAP2 SWAP1 POP JUMP JUMPDEST PUSH1 0x0 PUSH1 0x20 DUP3 ADD SWAP1 POP DUP2 DUP2 SUB PUSH1 0x0 DUP4 ADD MSTORE PUSH2 0x48D2 DUP2 PUSH2 0x4259 JUMP JUMPDEST SWAP1 POP SWAP2 SWAP1 POP JUMP JUMPDEST PUSH1 0x0 PUSH1 0x20 DUP3 ADD SWAP1 POP DUP2 DUP2 SUB PUSH1 0x0 DUP4 ADD MSTORE PUSH2 0x48F2 DUP2 PUSH2 0x427C JUMP JUMPDEST SWAP1 POP SWAP2 SWAP1 POP JUMP JUMPDEST PUSH1 0x0 PUSH1 0x20 DUP3 ADD SWAP1 POP DUP2 DUP2 SUB PUSH1 0x0 DUP4 ADD MSTORE PUSH2 0x4912 DUP2 PUSH2 0x429F JUMP JUMPDEST SWAP1 POP SWAP2 SWAP1 POP JUMP JUMPDEST PUSH1 0x0 PUSH1 0x20 DUP3 ADD SWAP1 POP DUP2 DUP2 SUB PUSH1 0x0 DUP4 ADD MSTORE PUSH2 0x4932 DUP2 PUSH2 0x42C2 JUMP JUMPDEST SWAP1 POP SWAP2 SWAP1 POP JUMP JUMPDEST PUSH1 0x0 PUSH1 0x20 DUP3 ADD SWAP1 POP DUP2 DUP2 SUB PUSH1 0x0 DUP4 ADD MSTORE PUSH2 0x4952 DUP2 PUSH2 0x42E5 JUMP JUMPDEST SWAP1 POP SWAP2 SWAP1 POP JUMP JUMPDEST PUSH1 0x0 PUSH1 0x20 DUP3 ADD SWAP1 POP DUP2 DUP2 SUB PUSH1 0x0 DUP4 ADD MSTORE PUSH2 0x4972 DUP2 PUSH2 0x4308 JUMP JUMPDEST SWAP1 POP SWAP2 SWAP1 POP JUMP JUMPDEST PUSH1 0x0 PUSH1 0x20 DUP3 ADD SWAP1 POP DUP2 DUP2 SUB PUSH1 0x0 DUP4 ADD MSTORE PUSH2 0x4992 DUP2 PUSH2 0x432B JUMP JUMPDEST SWAP1 POP SWAP2 SWAP1 POP JUMP JUMPDEST PUSH1 0x0 PUSH1 0x20 DUP3 ADD SWAP1 POP DUP2 DUP2 SUB PUSH1 0x0 DUP4 ADD MSTORE PUSH2 0x49B2 DUP2 PUSH2 0x434E JUMP JUMPDEST SWAP1 POP SWAP2 SWAP1 POP JUMP JUMPDEST PUSH1 0x0 PUSH1 0x20 DUP3 ADD SWAP1 POP DUP2 DUP2 SUB PUSH1 0x0 DUP4 ADD MSTORE PUSH2 0x49D2 DUP2 PUSH2 0x4371 JUMP JUMPDEST SWAP1 POP SWAP2 SWAP1 POP JUMP JUMPDEST PUSH1 0x0 PUSH1 0x20 DUP3 ADD SWAP1 POP DUP2 DUP2 SUB PUSH1 0x0 DUP4 ADD MSTORE PUSH2 0x49F2 DUP2 PUSH2 0x4394 JUMP JUMPDEST SWAP1 POP SWAP2 SWAP1 POP JUMP JUMPDEST PUSH1 0x0 PUSH1 0x20 DUP3 ADD SWAP1 POP DUP2 DUP2 SUB PUSH1 0x0 DUP4 ADD MSTORE PUSH2 0x4A12 DUP2 PUSH2 0x43B7 JUMP JUMPDEST SWAP1 POP SWAP2 SWAP1 POP JUMP JUMPDEST PUSH1 0x0 PUSH1 0x20 DUP3 ADD SWAP1 POP DUP2 DUP2 SUB PUSH1 0x0 DUP4 ADD MSTORE PUSH2 0x4A32 DUP2 PUSH2 0x43DA JUMP JUMPDEST SWAP1 POP SWAP2 SWAP1 POP JUMP JUMPDEST PUSH1 0x0 PUSH1 0x20 DUP3 ADD SWAP1 POP DUP2 DUP2 SUB PUSH1 0x0 DUP4 ADD MSTORE PUSH2 0x4A52 DUP2 PUSH2 0x43FD JUMP JUMPDEST SWAP1 POP SWAP2 SWAP1 POP JUMP JUMPDEST PUSH1 0x0 PUSH1 0x20 DUP3 ADD SWAP1 POP DUP2 DUP2 SUB PUSH1 0x0 DUP4 ADD MSTORE PUSH2 0x4A72 DUP2 PUSH2 0x4420 JUMP JUMPDEST SWAP1 POP SWAP2 SWAP1 POP JUMP JUMPDEST PUSH1 0x0 PUSH1 0x20 DUP3 ADD SWAP1 POP DUP2 DUP2 SUB PUSH1 0x0 DUP4 ADD MSTORE PUSH2 0x4A92 DUP2 PUSH2 0x4443 JUMP JUMPDEST SWAP1 POP SWAP2 SWAP1 POP JUMP JUMPDEST PUSH1 0x0 PUSH1 0x20 DUP3 ADD SWAP1 POP DUP2 DUP2 SUB PUSH1 0x0 DUP4 ADD MSTORE PUSH2 0x4AB2 DUP2 PUSH2 0x4489 JUMP JUMPDEST SWAP1 POP SWAP2 SWAP1 POP JUMP JUMPDEST PUSH1 0x0 PUSH1 0x20 DUP3 ADD SWAP1 POP DUP2 DUP2 SUB PUSH1 0x0 DUP4 ADD MSTORE PUSH2 0x4AD2 DUP2 PUSH2 0x44AC JUMP JUMPDEST SWAP1 POP SWAP2 SWAP1 POP JUMP JUMPDEST PUSH1 0x0 PUSH1 0x20 DUP3 ADD SWAP1 POP DUP2 DUP2 SUB PUSH1 0x0 DUP4 ADD MSTORE PUSH2 0x4AF2 DUP2 PUSH2 0x44CF JUMP JUMPDEST SWAP1 POP SWAP2 SWAP1 POP JUMP JUMPDEST PUSH1 0x0 PUSH1 0x20 DUP3 ADD SWAP1 POP DUP2 DUP2 SUB PUSH1 0x0 DUP4 ADD MSTORE PUSH2 0x4B12 DUP2 PUSH2 0x44F2 JUMP JUMPDEST SWAP1 POP SWAP2 SWAP1 POP JUMP JUMPDEST PUSH1 0x0 PUSH1 0x20 DUP3 ADD SWAP1 POP DUP2 DUP2 SUB PUSH1 0x0 DUP4 ADD MSTORE PUSH2 0x4B32 DUP2 PUSH2 0x4515 JUMP JUMPDEST SWAP1 POP SWAP2 SWAP1 POP JUMP JUMPDEST PUSH1 0x0 PUSH1 0x20 DUP3 ADD SWAP1 POP DUP2 DUP2 SUB PUSH1 0x0 DUP4 ADD MSTORE PUSH2 0x4B52 DUP2 PUSH2 0x4538 JUMP JUMPDEST SWAP1 POP SWAP2 SWAP1 POP JUMP JUMPDEST PUSH1 0x0 PUSH1 0x20 DUP3 ADD SWAP1 POP PUSH2 0x4B6E PUSH1 0x0 DUP4 ADD DUP5 PUSH2 0x456A JUMP JUMPDEST SWAP3 SWAP2 POP POP JUMP JUMPDEST PUSH1 0x0 PUSH1 0x40 DUP3 ADD SWAP1 POP PUSH2 0x4B89 PUSH1 0x0 DUP4 ADD DUP6 PUSH2 0x456A JUMP JUMPDEST PUSH2 0x4B96 PUSH1 0x20 DUP4 ADD DUP5 PUSH2 0x456A JUMP JUMPDEST SWAP4 SWAP3 POP POP POP JUMP JUMPDEST PUSH1 0x0 PUSH2 0x4BA7 PUSH2 0x4BB8 JUMP JUMPDEST SWAP1 POP PUSH2 0x4BB3 DUP3 DUP3 PUSH2 0x5078 JUMP JUMPDEST SWAP2 SWAP1 POP JUMP JUMPDEST PUSH1 0x0 PUSH1 0x40 MLOAD SWAP1 POP SWAP1 JUMP JUMPDEST PUSH1 0x0 PUSH8 0xFFFFFFFFFFFFFFFF DUP3 GT ISZERO PUSH2 0x4BDD JUMPI PUSH2 0x4BDC PUSH2 0x51DF JUMP JUMPDEST JUMPDEST PUSH1 0x20 DUP3 MUL SWAP1 POP PUSH1 0x20 DUP2 ADD SWAP1 POP SWAP2 SWAP1 POP JUMP JUMPDEST PUSH1 0x0 PUSH8 0xFFFFFFFFFFFFFFFF DUP3 GT ISZERO PUSH2 0x4C09 JUMPI PUSH2 0x4C08 PUSH2 0x51DF JUMP JUMPDEST JUMPDEST PUSH1 0x20 DUP3 MUL SWAP1 POP PUSH1 0x20 DUP2 ADD SWAP1 POP SWAP2 SWAP1 POP JUMP JUMPDEST PUSH1 0x0 PUSH8 0xFFFFFFFFFFFFFFFF DUP3 GT ISZERO PUSH2 0x4C35 JUMPI PUSH2 0x4C34 PUSH2 0x51DF JUMP JUMPDEST JUMPDEST PUSH2 0x4C3E DUP3 PUSH2 0x5249 JUMP JUMPDEST SWAP1 POP PUSH1 0x20 DUP2 ADD SWAP1 POP SWAP2 SWAP1 POP JUMP JUMPDEST PUSH1 0x0 PUSH8 0xFFFFFFFFFFFFFFFF DUP3 GT ISZERO PUSH2 0x4C66 JUMPI PUSH2 0x4C65 PUSH2 0x51DF JUMP JUMPDEST JUMPDEST PUSH2 0x4C6F DUP3 PUSH2 0x5249 JUMP JUMPDEST SWAP1 POP PUSH1 0x20 DUP2 ADD SWAP1 POP SWAP2 SWAP1 POP JUMP JUMPDEST PUSH1 0x0 DUP2 SWAP1 POP PUSH1 0x20 DUP3 ADD SWAP1 POP SWAP2 SWAP1 POP JUMP JUMPDEST PUSH1 0x0 DUP2 MLOAD SWAP1 POP SWAP2 SWAP1 POP JUMP JUMPDEST PUSH1 0x0 DUP2 MLOAD SWAP1 POP SWAP2 SWAP1 POP JUMP JUMPDEST PUSH1 0x0 DUP2 MLOAD SWAP1 POP SWAP2 SWAP1 POP JUMP JUMPDEST PUSH1 0x0 PUSH1 0x20 DUP3 ADD SWAP1 POP SWAP2 SWAP1 POP JUMP JUMPDEST PUSH1 0x0 DUP3 DUP3 MSTORE PUSH1 0x20 DUP3 ADD SWAP1 POP SWAP3 SWAP2 POP POP JUMP JUMPDEST PUSH1 0x0 DUP3 DUP3 MSTORE PUSH1 0x20 DUP3 ADD SWAP1 POP SWAP3 SWAP2 POP POP JUMP JUMPDEST PUSH1 0x0 DUP3 DUP3 MSTORE PUSH1 0x20 DUP3 ADD SWAP1 POP SWAP3 SWAP2 POP POP JUMP JUMPDEST PUSH1 0x0 DUP2 SWAP1 POP SWAP3 SWAP2 POP POP JUMP JUMPDEST PUSH1 0x0 PUSH2 0x4D03 DUP3 PUSH2 0x4FE8 JUMP JUMPDEST SWAP2 POP PUSH2 0x4D0E DUP4 PUSH2 0x4FE8 JUMP JUMPDEST SWAP3 POP DUP3 PUSH32 0xFFFFFFFFFFFFFFFFFFFFFFFFFFFFFFFFFFFFFFFFFFFFFFFFFFFFFFFFFFFFFFFF SUB DUP3 GT ISZERO PUSH2 0x4D43 JUMPI PUSH2 0x4D42 PUSH2 0x5123 JUMP JUMPDEST JUMPDEST DUP3 DUP3 ADD SWAP1 POP SWAP3 SWAP2 POP POP JUMP JUMPDEST PUSH1 0x0 PUSH2 0x4D59 DUP3 PUSH2 0x4FE8 JUMP JUMPDEST SWAP2 POP PUSH2 0x4D64 DUP4 PUSH2 0x4FE8 JUMP JUMPDEST SWAP3 POP DUP3 PUSH2 0x4D74 JUMPI PUSH2 0x4D73 PUSH2 0x5152 JUMP JUMPDEST JUMPDEST DUP3 DUP3 DIV SWAP1 POP SWAP3 SWAP2 POP POP JUMP JUMPDEST PUSH1 0x0 DUP1 DUP3 SWAP2 POP DUP4 SWAP1 POP JUMPDEST PUSH1 0x1 DUP6 GT ISZERO PUSH2 0x4DC9 JUMPI DUP1 DUP7 DIV DUP2 GT ISZERO PUSH2 0x4DA5 JUMPI PUSH2 0x4DA4 PUSH2 0x5123 JUMP JUMPDEST JUMPDEST PUSH1 0x1 DUP6 AND ISZERO PUSH2 0x4DB4 JUMPI DUP1 DUP3 MUL SWAP2 POP JUMPDEST DUP1 DUP2 MUL SWAP1 POP PUSH2 0x4DC2 DUP6 PUSH2 0x525A JUMP JUMPDEST SWAP5 POP PUSH2 0x4D89 JUMP JUMPDEST SWAP5 POP SWAP5 SWAP3 POP POP POP JUMP JUMPDEST PUSH1 0x0 PUSH2 0x4DDD DUP3 PUSH2 0x4FE8 JUMP JUMPDEST SWAP2 POP PUSH2 0x4DE8 DUP4 PUSH2 0x4FE8 JUMP JUMPDEST SWAP3 POP PUSH2 0x4E15 PUSH32 0xFFFFFFFFFFFFFFFFFFFFFFFFFFFFFFFFFFFFFFFFFFFFFFFFFFFFFFFFFFFFFFFF DUP5 DUP5 PUSH2 0x4E1D JUMP JUMPDEST SWAP1 POP SWAP3 SWAP2 POP POP JUMP JUMPDEST PUSH1 0x0 DUP3 PUSH2 0x4E2D JUMPI PUSH1 0x1 SWAP1 POP PUSH2 0x4EE9 JUMP JUMPDEST DUP2 PUSH2 0x4E3B JUMPI PUSH1 0x0 SWAP1 POP PUSH2 0x4EE9 JUMP JUMPDEST DUP2 PUSH1 0x1 DUP2 EQ PUSH2 0x4E51 JUMPI PUSH1 0x2 DUP2 EQ PUSH2 0x4E5B JUMPI PUSH2 0x4E8A JUMP JUMPDEST PUSH1 0x1 SWAP2 POP POP PUSH2 0x4EE9 JUMP JUMPDEST PUSH1 0xFF DUP5 GT ISZERO PUSH2 0x4E6D JUMPI PUSH2 0x4E6C PUSH2 0x5123 JUMP JUMPDEST JUMPDEST DUP4 PUSH1 0x2 EXP SWAP2 POP DUP5 DUP3 GT ISZERO PUSH2 0x4E84 JUMPI PUSH2 0x4E83 PUSH2 0x5123 JUMP JUMPDEST JUMPDEST POP PUSH2 0x4EE9 JUMP JUMPDEST POP PUSH1 0x20 DUP4 LT PUSH2 0x133 DUP4 LT AND PUSH1 0x4E DUP5 LT PUSH1 0xB DUP5 LT AND OR ISZERO PUSH2 0x4EBF JUMPI DUP3 DUP3 EXP SWAP1 POP DUP4 DUP2 GT ISZERO PUSH2 0x4EBA JUMPI PUSH2 0x4EB9 PUSH2 0x5123 JUMP JUMPDEST JUMPDEST PUSH2 0x4EE9 JUMP JUMPDEST PUSH2 0x4ECC DUP5 DUP5 DUP5 PUSH1 0x1 PUSH2 0x4D7F JUMP JUMPDEST SWAP3 POP SWAP1 POP DUP2 DUP5 DIV DUP2 GT ISZERO PUSH2 0x4EE3 JUMPI PUSH2 0x4EE2 PUSH2 0x5123 JUMP JUMPDEST JUMPDEST DUP2 DUP2 MUL SWAP1 POP JUMPDEST SWAP4 SWAP3 POP POP POP JUMP JUMPDEST PUSH1 0x0 PUSH2 0x4EFB DUP3 PUSH2 0x4FE8 JUMP JUMPDEST SWAP2 POP PUSH2 0x4F06 DUP4 PUSH2 0x4FE8 JUMP JUMPDEST SWAP3 POP DUP2 PUSH32 0xFFFFFFFFFFFFFFFFFFFFFFFFFFFFFFFFFFFFFFFFFFFFFFFFFFFFFFFFFFFFFFFF DIV DUP4 GT DUP3 ISZERO ISZERO AND ISZERO PUSH2 0x4F3F JUMPI PUSH2 0x4F3E PUSH2 0x5123 JUMP JUMPDEST JUMPDEST DUP3 DUP3 MUL SWAP1 POP SWAP3 SWAP2 POP POP JUMP JUMPDEST PUSH1 0x0 PUSH2 0x4F55 DUP3 PUSH2 0x4FE8 JUMP JUMPDEST SWAP2 POP PUSH2 0x4F60 DUP4 PUSH2 0x4FE8 JUMP JUMPDEST SWAP3 POP DUP3 DUP3 LT ISZERO PUSH2 0x4F73 JUMPI PUSH2 0x4F72 PUSH2 0x5123 JUMP JUMPDEST JUMPDEST DUP3 DUP3 SUB SWAP1 POP SWAP3 SWAP2 POP POP JUMP JUMPDEST PUSH1 0x0 PUSH2 0x4F89 DUP3 PUSH2 0x4FC8 JUMP JUMPDEST SWAP1 POP SWAP2 SWAP1 POP JUMP JUMPDEST PUSH1 0x0 DUP2 ISZERO ISZERO SWAP1 POP SWAP2 SWAP1 POP JUMP JUMPDEST PUSH1 0x0 PUSH32 0xFFFFFFFF00000000000000000000000000000000000000000000000000000000 DUP3 AND SWAP1 POP SWAP2 SWAP1 POP JUMP JUMPDEST PUSH1 0x0 PUSH20 0xFFFFFFFFFFFFFFFFFFFFFFFFFFFFFFFFFFFFFFFF DUP3 AND SWAP1 POP SWAP2 SWAP1 POP JUMP JUMPDEST PUSH1 0x0 DUP2 SWAP1 POP SWAP2 SWAP1 POP JUMP JUMPDEST PUSH1 0x0 PUSH2 0x4FFD DUP3 PUSH2 0x4FE8 JUMP JUMPDEST SWAP1 POP SWAP2 SWAP1 POP JUMP JUMPDEST DUP3 DUP2 DUP4 CALLDATACOPY PUSH1 0x0 DUP4 DUP4 ADD MSTORE POP POP POP JUMP JUMPDEST PUSH1 0x0 JUMPDEST DUP4 DUP2 LT ISZERO PUSH2 0x5031 JUMPI DUP1 DUP3 ADD MLOAD DUP2 DUP5 ADD MSTORE PUSH1 0x20 DUP2 ADD SWAP1 POP PUSH2 0x5016 JUMP JUMPDEST DUP4 DUP2 GT ISZERO PUSH2 0x5040 JUMPI PUSH1 0x0 DUP5 DUP5 ADD MSTORE JUMPDEST POP POP POP POP JUMP JUMPDEST PUSH1 0x0 PUSH1 0x2 DUP3 DIV SWAP1 POP PUSH1 0x1 DUP3 AND DUP1 PUSH2 0x505E JUMPI PUSH1 0x7F DUP3 AND SWAP2 POP JUMPDEST PUSH1 0x20 DUP3 LT DUP2 EQ ISZERO PUSH2 0x5072 JUMPI PUSH2 0x5071 PUSH2 0x5181 JUMP JUMPDEST JUMPDEST POP SWAP2 SWAP1 POP JUMP JUMPDEST PUSH2 0x5081 DUP3 PUSH2 0x5249 JUMP JUMPDEST DUP2 ADD DUP2 DUP2 LT PUSH8 0xFFFFFFFFFFFFFFFF DUP3 GT OR ISZERO PUSH2 0x50A0 JUMPI PUSH2 0x509F PUSH2 0x51DF JUMP JUMPDEST JUMPDEST DUP1 PUSH1 0x40 MSTORE POP POP POP JUMP JUMPDEST PUSH1 0x0 PUSH2 0x50B4 DUP3 PUSH2 0x4FE8 JUMP JUMPDEST SWAP2 POP PUSH32 0xFFFFFFFFFFFFFFFFFFFFFFFFFFFFFFFFFFFFFFFFFFFFFFFFFFFFFFFFFFFFFFFF DUP3 EQ ISZERO PUSH2 0x50E7 JUMPI PUSH2 0x50E6 PUSH2 0x5123 JUMP JUMPDEST JUMPDEST PUSH1 0x1 DUP3 ADD SWAP1 POP SWAP2 SWAP1 POP JUMP JUMPDEST PUSH1 0x0 PUSH2 0x50FD DUP3 PUSH2 0x4FE8 JUMP JUMPDEST SWAP2 POP PUSH2 0x5108 DUP4 PUSH2 0x4FE8 JUMP JUMPDEST SWAP3 POP DUP3 PUSH2 0x5118 JUMPI PUSH2 0x5117 PUSH2 0x5152 JUMP JUMPDEST JUMPDEST DUP3 DUP3 MOD SWAP1 POP SWAP3 SWAP2 POP POP JUMP JUMPDEST PUSH32 0x4E487B7100000000000000000000000000000000000000000000000000000000 PUSH1 0x0 MSTORE PUSH1 0x11 PUSH1 0x4 MSTORE PUSH1 0x24 PUSH1 0x0 REVERT JUMPDEST PUSH32 0x4E487B7100000000000000000000000000000000000000000000000000000000 PUSH1 0x0 MSTORE PUSH1 0x12 PUSH1 0x4 MSTORE PUSH1 0x24 PUSH1 0x0 REVERT JUMPDEST PUSH32 0x4E487B7100000000000000000000000000000000000000000000000000000000 PUSH1 0x0 MSTORE PUSH1 0x22 PUSH1 0x4 MSTORE PUSH1 0x24 PUSH1 0x0 REVERT JUMPDEST PUSH32 0x4E487B7100000000000000000000000000000000000000000000000000000000 PUSH1 0x0 MSTORE PUSH1 0x32 PUSH1 0x4 MSTORE PUSH1 0x24 PUSH1 0x0 REVERT JUMPDEST PUSH32 0x4E487B7100000000000000000000000000000000000000000000000000000000 PUSH1 0x0 MSTORE PUSH1 0x41 PUSH1 0x4 MSTORE PUSH1 0x24 PUSH1 0x0 REVERT JUMPDEST PUSH1 0x0 PUSH1 0x3 RETURNDATASIZE GT ISZERO PUSH2 0x522D JUMPI PUSH1 0x4 PUSH1 0x0 DUP1 RETURNDATACOPY PUSH2 0x522A PUSH1 0x0 MLOAD PUSH2 0x5267 JUMP JUMPDEST SWAP1 POP JUMPDEST SWAP1 JUMP JUMPDEST PUSH1 0x0 DUP1 REVERT JUMPDEST PUSH1 0x0 DUP1 REVERT JUMPDEST PUSH1 0x0 DUP1 REVERT JUMPDEST PUSH1 0x0 DUP1 REVERT JUMPDEST PUSH1 0x0 DUP1 REVERT JUMPDEST PUSH1 0x0 PUSH1 0x1F NOT PUSH1 0x1F DUP4 ADD AND SWAP1 POP SWAP2 SWAP1 POP JUMP JUMPDEST PUSH1 0x0 DUP2 PUSH1 0x1 SHR SWAP1 POP SWAP2 SWAP1 POP JUMP JUMPDEST PUSH1 0x0 DUP2 PUSH1 0xE0 SHR SWAP1 POP SWAP2 SWAP1 POP JUMP JUMPDEST PUSH32 0x455243313135353A207472616E7366657220746F206E6F6E2045524331313535 PUSH1 0x0 DUP3 ADD MSTORE PUSH32 0x526563656976657220696D706C656D656E746572000000000000000000000000 PUSH1 0x20 DUP3 ADD MSTORE POP JUMP JUMPDEST PUSH32 0x455243313135353A204552433131353552656365697665722072656A65637465 PUSH1 0x0 DUP3 ADD MSTORE PUSH32 0x6420746F6B656E73000000000000000000000000000000000000000000000000 PUSH1 0x20 DUP3 ADD MSTORE POP JUMP JUMPDEST PUSH32 0x5061757361626C653A206E6F7420706175736564000000000000000000000000 PUSH1 0x0 DUP3 ADD MSTORE POP JUMP JUMPDEST PUSH32 0x4D65726765642069642063616E6E6F7420626520626173696320656C656D656E PUSH1 0x0 DUP3 ADD MSTORE PUSH32 0x7420696400000000000000000000000000000000000000000000000000000000 PUSH1 0x20 DUP3 ADD MSTORE POP JUMP JUMPDEST PUSH32 0x455243313135353A2062616C616E636520717565727920666F7220746865207A PUSH1 0x0 DUP3 ADD MSTORE PUSH32 0x65726F2061646472657373000000000000000000000000000000000000000000 PUSH1 0x20 DUP3 ADD MSTORE POP JUMP JUMPDEST PUSH32 0x4F776E61626C653A206E6577206F776E657220697320746865207A65726F2061 PUSH1 0x0 DUP3 ADD MSTORE PUSH32 0x6464726573730000000000000000000000000000000000000000000000000000 PUSH1 0x20 DUP3 ADD MSTORE POP JUMP JUMPDEST PUSH32 0x426173696320656C656D656E742069642063616E6E6F74206265203000000000 PUSH1 0x0 DUP3 ADD MSTORE POP JUMP JUMPDEST PUSH32 0x455243313135353A206275726E20616D6F756E7420657863656564732062616C PUSH1 0x0 DUP3 ADD MSTORE PUSH32 0x616E636500000000000000000000000000000000000000000000000000000000 PUSH1 0x20 DUP3 ADD MSTORE POP JUMP JUMPDEST PUSH32 0x43616E6E6F742062652073706C697420696E746F206D6F7265207468616E2031 PUSH1 0x0 DUP3 ADD MSTORE PUSH32 0x3020656C656D656E747300000000000000000000000000000000000000000000 PUSH1 0x20 DUP3 ADD MSTORE POP JUMP JUMPDEST PUSH32 0x455243313135353A2063616C6C6572206973206E6F74206F776E6572206E6F72 PUSH1 0x0 DUP3 ADD MSTORE PUSH32 0x20617070726F7665640000000000000000000000000000000000000000000000 PUSH1 0x20 DUP3 ADD MSTORE POP JUMP JUMPDEST PUSH32 0x43616E6E6F74206D657267652073696E676C6520656C656D656E740000000000 PUSH1 0x0 DUP3 ADD MSTORE POP JUMP JUMPDEST PUSH32 0x5061757361626C653A2070617573656400000000000000000000000000000000 PUSH1 0x0 DUP3 ADD MSTORE POP JUMP JUMPDEST PUSH32 0x43616E6E6F742073706C697420626173696320656C656D656E74000000000000 PUSH1 0x0 DUP3 ADD MSTORE POP JUMP JUMPDEST PUSH32 0x455243313135353A207472616E7366657220746F20746865207A65726F206164 PUSH1 0x0 DUP3 ADD MSTORE PUSH32 0x6472657373000000000000000000000000000000000000000000000000000000 PUSH1 0x20 DUP3 ADD MSTORE POP JUMP JUMPDEST PUSH32 0x455243313135353A207472616E736665722063616C6C6572206973206E6F7420 PUSH1 0x0 DUP3 ADD MSTORE PUSH32 0x6F776E6572206E6F7220617070726F7665640000000000000000000000000000 PUSH1 0x20 DUP3 ADD MSTORE POP JUMP JUMPDEST PUSH32 0x455243313135353A206275726E2066726F6D20746865207A65726F2061646472 PUSH1 0x0 DUP3 ADD MSTORE PUSH32 0x6573730000000000000000000000000000000000000000000000000000000000 PUSH1 0x20 DUP3 ADD MSTORE POP JUMP JUMPDEST PUSH32 0x455243313135353A20696E73756666696369656E742062616C616E636520666F PUSH1 0x0 DUP3 ADD MSTORE PUSH32 0x72207472616E7366657200000000000000000000000000000000000000000000 PUSH1 0x20 DUP3 ADD MSTORE POP JUMP JUMPDEST PUSH32 0x4964206D75737420626520736D616C6C6572207468616E203130303030000000 PUSH1 0x0 DUP3 ADD MSTORE POP JUMP JUMPDEST PUSH32 0x4F776E61626C653A2063616C6C6572206973206E6F7420746865206F776E6572 PUSH1 0x0 DUP3 ADD MSTORE POP JUMP JUMPDEST PUSH32 0x43616E6E6F74206D65726765207769746820656C656D656E7473207468617420 PUSH1 0x0 DUP3 ADD MSTORE PUSH32 0x686164206265656E206D65726765640000000000000000000000000000000000 PUSH1 0x20 DUP3 ADD MSTORE POP JUMP JUMPDEST PUSH32 0x7B69647D00000000000000000000000000000000000000000000000000000000 PUSH1 0x0 DUP3 ADD MSTORE POP JUMP JUMPDEST PUSH32 0x43616E6E6F74206D65726765206D6F7265207468616E20313020656C656D656E PUSH1 0x0 DUP3 ADD MSTORE PUSH32 0x7473000000000000000000000000000000000000000000000000000000000000 PUSH1 0x20 DUP3 ADD MSTORE POP JUMP JUMPDEST PUSH32 0x49642063616E6E6F742062652030000000000000000000000000000000000000 PUSH1 0x0 DUP3 ADD MSTORE POP JUMP JUMPDEST PUSH32 0x455243313135353A2073657474696E6720617070726F76616C20737461747573 PUSH1 0x0 DUP3 ADD MSTORE PUSH32 0x20666F722073656C660000000000000000000000000000000000000000000000 PUSH1 0x20 DUP3 ADD MSTORE POP JUMP JUMPDEST PUSH32 0x455243313135353A206163636F756E747320616E6420696473206C656E677468 PUSH1 0x0 DUP3 ADD MSTORE PUSH32 0x206D69736D617463680000000000000000000000000000000000000000000000 PUSH1 0x20 DUP3 ADD MSTORE POP JUMP JUMPDEST PUSH32 0x455243313135353A2069647320616E6420616D6F756E7473206C656E67746820 PUSH1 0x0 DUP3 ADD MSTORE PUSH32 0x6D69736D61746368000000000000000000000000000000000000000000000000 PUSH1 0x20 DUP3 ADD MSTORE POP JUMP JUMPDEST PUSH32 0x455243313135353A206D696E7420746F20746865207A65726F20616464726573 PUSH1 0x0 DUP3 ADD MSTORE PUSH32 0x7300000000000000000000000000000000000000000000000000000000000000 PUSH1 0x20 DUP3 ADD MSTORE POP JUMP JUMPDEST PUSH1 0x0 PUSH1 0x44 RETURNDATASIZE LT ISZERO PUSH2 0x5983 JUMPI PUSH2 0x5A06 JUMP JUMPDEST PUSH2 0x598B PUSH2 0x4BB8 JUMP JUMPDEST PUSH1 0x4 RETURNDATASIZE SUB PUSH1 0x4 DUP3 RETURNDATACOPY DUP1 MLOAD RETURNDATASIZE PUSH1 0x24 DUP3 ADD GT PUSH8 0xFFFFFFFFFFFFFFFF DUP3 GT OR ISZERO PUSH2 0x59B3 JUMPI POP POP PUSH2 0x5A06 JUMP JUMPDEST DUP1 DUP3 ADD DUP1 MLOAD PUSH8 0xFFFFFFFFFFFFFFFF DUP2 GT ISZERO PUSH2 0x59D1 JUMPI POP POP POP POP PUSH2 0x5A06 JUMP JUMPDEST DUP1 PUSH1 0x20 DUP4 ADD ADD PUSH1 0x4 RETURNDATASIZE SUB DUP6 ADD DUP2 GT ISZERO PUSH2 0x59EE JUMPI POP POP POP POP POP PUSH2 0x5A06 JUMP JUMPDEST PUSH2 0x59FD DUP3 PUSH1 0x20 ADD DUP6 ADD DUP7 PUSH2 0x5078 JUMP JUMPDEST DUP3 SWAP6 POP POP POP POP POP POP JUMPDEST SWAP1 JUMP JUMPDEST PUSH2 0x5A12 DUP2 PUSH2 0x4F7E JUMP JUMPDEST DUP2 EQ PUSH2 0x5A1D JUMPI PUSH1 0x0 DUP1 REVERT JUMPDEST POP JUMP JUMPDEST PUSH2 0x5A29 DUP2 PUSH2 0x4F90 JUMP JUMPDEST DUP2 EQ PUSH2 0x5A34 JUMPI PUSH1 0x0 DUP1 REVERT JUMPDEST POP JUMP JUMPDEST PUSH2 0x5A40 DUP2 PUSH2 0x4F9C JUMP JUMPDEST DUP2 EQ PUSH2 0x5A4B JUMPI PUSH1 0x0 DUP1 REVERT JUMPDEST POP JUMP JUMPDEST PUSH2 0x5A57 DUP2 PUSH2 0x4FE8 JUMP JUMPDEST DUP2 EQ PUSH2 0x5A62 JUMPI PUSH1 0x0 DUP1 REVERT JUMPDEST POP JUMP INVALID LOG2 PUSH5 0x6970667358 0x22 SLT KECCAK256 CODESIZE PUSH12 0x447D1FB1647A71F72CC459DF 0xBF 0xD1 SWAP15 0xE1 SSTORE 0x2B 0x1E GT 0x49 GT PUSH4 0x603619D2 RETURNDATASIZE STOP 0xA7 PUSH5 0x736F6C6343 STOP ADDMOD SMOD STOP CALLER PUSH9 0x747470733A2F2F6D65 PUSH21 0x61707974686F6E2E6865726F6B756170702E636F6D 0x2F PUSH2 0x7069 0x2F PUSH20 0x746F72652F68747470733A2F2F6D657461707974 PUSH9 0x6F6E2E6865726F6B75 PUSH2 0x7070 0x2E PUSH4 0x6F6D2F61 PUSH17 0x692F626F782F0000000000000000000000 "
		},
		"gasEstimates": {
			"creation": {
				"codeDepositCost": "4639000",
				"executionCost": "infinite",
				"totalCost": "infinite"
			},
			"external": {
				"MAX_MINTS()": "2518",
				"balanceOf(address,uint256)": "infinite",
				"balanceOfBatch(address[],uint256[])": "infinite",
				"burn(address,uint256,uint256)": "infinite",
				"burnBatch(address,uint256[],uint256[])": "infinite",
				"contractURI()": "infinite",
				"exists(uint256)": "2947",
				"isApprovedForAll(address,address)": "infinite",
				"merge(address,uint256[],bytes)": "infinite",
				"mint(address,uint256,uint256,bytes)": "infinite",
				"mintBatch(address,uint256[],uint256[],bytes)": "infinite",
				"owner()": "2589",
				"pause()": "infinite",
				"paused()": "2596",
				"permanentURI(string,uint256)": "infinite",
				"renounceOwnership()": "30485",
				"safeBatchTransferFrom(address,address,uint256[],uint256[],bytes)": "infinite",
				"safeTransferFrom(address,address,uint256,uint256,bytes)": "infinite",
				"setApprovalForAll(address,bool)": "infinite",
				"setMaxMints(uint256)": "24850",
				"setProxy(address)": "27051",
				"setStoreMetaURL(string)": "infinite",
				"setTokenURI(uint256,string)": "infinite",
				"setURI(string)": "infinite",
				"split(address,uint256,bytes)": "infinite",
				"supportsInterface(bytes4)": "842",
				"totalSupply(uint256)": "infinite",
				"transferOwnership(address)": "30811",
				"unpause()": "infinite",
				"uri(uint256)": "infinite"
			},
			"internal": {
				"_beforeTokenTransfer(address,address,address,uint256[] memory,uint256[] memory,bytes memory)": "infinite"
			}
		},
		"methodIdentifiers": {
			"MAX_MINTS()": "cce132d1",
			"balanceOf(address,uint256)": "00fdd58e",
			"balanceOfBatch(address[],uint256[])": "4e1273f4",
			"burn(address,uint256,uint256)": "f5298aca",
			"burnBatch(address,uint256[],uint256[])": "6b20c454",
			"contractURI()": "e8a3d485",
			"exists(uint256)": "4f558e79",
			"isApprovedForAll(address,address)": "e985e9c5",
			"merge(address,uint256[],bytes)": "ab326598",
			"mint(address,uint256,uint256,bytes)": "731133e9",
			"mintBatch(address,uint256[],uint256[],bytes)": "1f7fdffa",
			"owner()": "8da5cb5b",
			"pause()": "8456cb59",
			"paused()": "5c975abb",
			"permanentURI(string,uint256)": "5a7256c7",
			"renounceOwnership()": "715018a6",
			"safeBatchTransferFrom(address,address,uint256[],uint256[],bytes)": "2eb2c2d6",
			"safeTransferFrom(address,address,uint256,uint256,bytes)": "f242432a",
			"setApprovalForAll(address,bool)": "a22cb465",
			"setMaxMints(uint256)": "79c9cb7b",
			"setProxy(address)": "97107d6d",
			"setStoreMetaURL(string)": "30e995a6",
			"setTokenURI(uint256,string)": "162094c4",
			"setURI(string)": "02fe5305",
			"split(address,uint256,bytes)": "74cded02",
			"supportsInterface(bytes4)": "01ffc9a7",
			"totalSupply(uint256)": "bd85b039",
			"transferOwnership(address)": "f2fde38b",
			"unpause()": "3f4ba83a",
			"uri(uint256)": "0e89341c"
		}
	},
	"abi": [
		{
			"inputs": [],
			"stateMutability": "nonpayable",
			"type": "constructor"
		},
		{
			"anonymous": false,
			"inputs": [
				{
					"indexed": true,
					"internalType": "address",
					"name": "account",
					"type": "address"
				},
				{
					"indexed": true,
					"internalType": "address",
					"name": "operator",
					"type": "address"
				},
				{
					"indexed": false,
					"internalType": "bool",
					"name": "approved",
					"type": "bool"
				}
			],
			"name": "ApprovalForAll",
			"type": "event"
		},
		{
			"anonymous": false,
			"inputs": [
				{
					"indexed": false,
					"internalType": "address",
					"name": "to",
					"type": "address"
				},
				{
					"indexed": false,
					"internalType": "uint256",
					"name": "tokenId",
					"type": "uint256"
				},
				{
					"indexed": false,
					"internalType": "uint256",
					"name": "amount",
					"type": "uint256"
				}
			],
			"name": "Minted",
			"type": "event"
		},
		{
			"anonymous": false,
			"inputs": [
				{
					"indexed": false,
					"internalType": "address",
					"name": "to",
					"type": "address"
				},
				{
					"indexed": false,
					"internalType": "uint256[]",
					"name": "ids",
					"type": "uint256[]"
				},
				{
					"indexed": false,
					"internalType": "uint256[]",
					"name": "amounts",
					"type": "uint256[]"
				}
			],
			"name": "MintedBatch",
			"type": "event"
		},
		{
			"anonymous": false,
			"inputs": [
				{
					"indexed": true,
					"internalType": "address",
					"name": "previousOwner",
					"type": "address"
				},
				{
					"indexed": true,
					"internalType": "address",
					"name": "newOwner",
					"type": "address"
				}
			],
			"name": "OwnershipTransferred",
			"type": "event"
		},
		{
			"anonymous": false,
			"inputs": [
				{
					"indexed": false,
					"internalType": "address",
					"name": "account",
					"type": "address"
				}
			],
			"name": "Paused",
			"type": "event"
		},
		{
			"anonymous": false,
			"inputs": [
				{
					"indexed": false,
					"internalType": "string",
					"name": "_value",
					"type": "string"
				},
				{
					"indexed": true,
					"internalType": "uint256",
					"name": "_id",
					"type": "uint256"
				}
			],
			"name": "PermanentURI",
			"type": "event"
		},
		{
			"anonymous": false,
			"inputs": [
				{
					"indexed": false,
					"internalType": "address",
					"name": "to",
					"type": "address"
				},
				{
					"indexed": false,
					"internalType": "uint256",
					"name": "id",
					"type": "uint256"
				}
			],
			"name": "Split",
			"type": "event"
		},
		{
			"anonymous": false,
			"inputs": [
				{
					"indexed": true,
					"internalType": "address",
					"name": "operator",
					"type": "address"
				},
				{
					"indexed": true,
					"internalType": "address",
					"name": "from",
					"type": "address"
				},
				{
					"indexed": true,
					"internalType": "address",
					"name": "to",
					"type": "address"
				},
				{
					"indexed": false,
					"internalType": "uint256[]",
					"name": "ids",
					"type": "uint256[]"
				},
				{
					"indexed": false,
					"internalType": "uint256[]",
					"name": "values",
					"type": "uint256[]"
				}
			],
			"name": "TransferBatch",
			"type": "event"
		},
		{
			"anonymous": false,
			"inputs": [
				{
					"indexed": true,
					"internalType": "address",
					"name": "operator",
					"type": "address"
				},
				{
					"indexed": true,
					"internalType": "address",
					"name": "from",
					"type": "address"
				},
				{
					"indexed": true,
					"internalType": "address",
					"name": "to",
					"type": "address"
				},
				{
					"indexed": false,
					"internalType": "uint256",
					"name": "id",
					"type": "uint256"
				},
				{
					"indexed": false,
					"internalType": "uint256",
					"name": "value",
					"type": "uint256"
				}
			],
			"name": "TransferSingle",
			"type": "event"
		},
		{
			"anonymous": false,
			"inputs": [
				{
					"indexed": false,
					"internalType": "string",
					"name": "value",
					"type": "string"
				},
				{
					"indexed": true,
					"internalType": "uint256",
					"name": "id",
					"type": "uint256"
				}
			],
			"name": "URI",
			"type": "event"
		},
		{
			"anonymous": false,
			"inputs": [
				{
					"indexed": false,
					"internalType": "address",
					"name": "account",
					"type": "address"
				}
			],
			"name": "Unpaused",
			"type": "event"
		},
		{
			"inputs": [],
			"name": "MAX_MINTS",
			"outputs": [
				{
					"internalType": "uint256",
					"name": "",
					"type": "uint256"
				}
			],
			"stateMutability": "view",
			"type": "function"
		},
		{
			"inputs": [
				{
					"internalType": "address",
					"name": "account",
					"type": "address"
				},
				{
					"internalType": "uint256",
					"name": "id",
					"type": "uint256"
				}
			],
			"name": "balanceOf",
			"outputs": [
				{
					"internalType": "uint256",
					"name": "",
					"type": "uint256"
				}
			],
			"stateMutability": "view",
			"type": "function"
		},
		{
			"inputs": [
				{
					"internalType": "address[]",
					"name": "accounts",
					"type": "address[]"
				},
				{
					"internalType": "uint256[]",
					"name": "ids",
					"type": "uint256[]"
				}
			],
			"name": "balanceOfBatch",
			"outputs": [
				{
					"internalType": "uint256[]",
					"name": "",
					"type": "uint256[]"
				}
			],
			"stateMutability": "view",
			"type": "function"
		},
		{
			"inputs": [
				{
					"internalType": "address",
					"name": "account",
					"type": "address"
				},
				{
					"internalType": "uint256",
					"name": "id",
					"type": "uint256"
				},
				{
					"internalType": "uint256",
					"name": "value",
					"type": "uint256"
				}
			],
			"name": "burn",
			"outputs": [],
			"stateMutability": "nonpayable",
			"type": "function"
		},
		{
			"inputs": [
				{
					"internalType": "address",
					"name": "account",
					"type": "address"
				},
				{
					"internalType": "uint256[]",
					"name": "ids",
					"type": "uint256[]"
				},
				{
					"internalType": "uint256[]",
					"name": "values",
					"type": "uint256[]"
				}
			],
			"name": "burnBatch",
			"outputs": [],
			"stateMutability": "nonpayable",
			"type": "function"
		},
		{
			"inputs": [],
			"name": "contractURI",
			"outputs": [
				{
					"internalType": "string",
					"name": "",
					"type": "string"
				}
			],
			"stateMutability": "view",
			"type": "function"
		},
		{
			"inputs": [
				{
					"internalType": "uint256",
					"name": "id",
					"type": "uint256"
				}
			],
			"name": "exists",
			"outputs": [
				{
					"internalType": "bool",
					"name": "",
					"type": "bool"
				}
			],
			"stateMutability": "view",
			"type": "function"
		},
		{
			"inputs": [
				{
					"internalType": "address",
					"name": "_owner",
					"type": "address"
				},
				{
					"internalType": "address",
					"name": "_operator",
					"type": "address"
				}
			],
			"name": "isApprovedForAll",
			"outputs": [
				{
					"internalType": "bool",
					"name": "isOperator",
					"type": "bool"
				}
			],
			"stateMutability": "view",
			"type": "function"
		},
		{
			"inputs": [
				{
					"internalType": "address",
					"name": "account",
					"type": "address"
				},
				{
					"internalType": "uint256[]",
					"name": "ids",
					"type": "uint256[]"
				},
				{
					"internalType": "bytes",
					"name": "data",
					"type": "bytes"
				}
			],
			"name": "merge",
			"outputs": [],
			"stateMutability": "nonpayable",
			"type": "function"
		},
		{
			"inputs": [
				{
					"internalType": "address",
					"name": "account",
					"type": "address"
				},
				{
					"internalType": "uint256",
					"name": "id",
					"type": "uint256"
				},
				{
					"internalType": "uint256",
					"name": "amount",
					"type": "uint256"
				},
				{
					"internalType": "bytes",
					"name": "data",
					"type": "bytes"
				}
			],
			"name": "mint",
			"outputs": [],
			"stateMutability": "nonpayable",
			"type": "function"
		},
		{
			"inputs": [
				{
					"internalType": "address",
					"name": "to",
					"type": "address"
				},
				{
					"internalType": "uint256[]",
					"name": "ids",
					"type": "uint256[]"
				},
				{
					"internalType": "uint256[]",
					"name": "amounts",
					"type": "uint256[]"
				},
				{
					"internalType": "bytes",
					"name": "data",
					"type": "bytes"
				}
			],
			"name": "mintBatch",
			"outputs": [],
			"stateMutability": "nonpayable",
			"type": "function"
		},
		{
			"inputs": [],
			"name": "owner",
			"outputs": [
				{
					"internalType": "address",
					"name": "",
					"type": "address"
				}
			],
			"stateMutability": "view",
			"type": "function"
		},
		{
			"inputs": [],
			"name": "pause",
			"outputs": [],
			"stateMutability": "nonpayable",
			"type": "function"
		},
		{
			"inputs": [],
			"name": "paused",
			"outputs": [
				{
					"internalType": "bool",
					"name": "",
					"type": "bool"
				}
			],
			"stateMutability": "view",
			"type": "function"
		},
		{
			"inputs": [
				{
					"internalType": "string",
					"name": "_value",
					"type": "string"
				},
				{
					"internalType": "uint256",
					"name": "_id",
					"type": "uint256"
				}
			],
			"name": "permanentURI",
			"outputs": [],
			"stateMutability": "nonpayable",
			"type": "function"
		},
		{
			"inputs": [],
			"name": "renounceOwnership",
			"outputs": [],
			"stateMutability": "nonpayable",
			"type": "function"
		},
		{
			"inputs": [
				{
					"internalType": "address",
					"name": "from",
					"type": "address"
				},
				{
					"internalType": "address",
					"name": "to",
					"type": "address"
				},
				{
					"internalType": "uint256[]",
					"name": "ids",
					"type": "uint256[]"
				},
				{
					"internalType": "uint256[]",
					"name": "amounts",
					"type": "uint256[]"
				},
				{
					"internalType": "bytes",
					"name": "data",
					"type": "bytes"
				}
			],
			"name": "safeBatchTransferFrom",
			"outputs": [],
			"stateMutability": "nonpayable",
			"type": "function"
		},
		{
			"inputs": [
				{
					"internalType": "address",
					"name": "from",
					"type": "address"
				},
				{
					"internalType": "address",
					"name": "to",
					"type": "address"
				},
				{
					"internalType": "uint256",
					"name": "id",
					"type": "uint256"
				},
				{
					"internalType": "uint256",
					"name": "amount",
					"type": "uint256"
				},
				{
					"internalType": "bytes",
					"name": "data",
					"type": "bytes"
				}
			],
			"name": "safeTransferFrom",
			"outputs": [],
			"stateMutability": "nonpayable",
			"type": "function"
		},
		{
			"inputs": [
				{
					"internalType": "address",
					"name": "operator",
					"type": "address"
				},
				{
					"internalType": "bool",
					"name": "approved",
					"type": "bool"
				}
			],
			"name": "setApprovalForAll",
			"outputs": [],
			"stateMutability": "nonpayable",
			"type": "function"
		},
		{
			"inputs": [
				{
					"internalType": "uint256",
					"name": "max_mints",
					"type": "uint256"
				}
			],
			"name": "setMaxMints",
			"outputs": [],
			"stateMutability": "nonpayable",
			"type": "function"
		},
		{
			"inputs": [
				{
					"internalType": "address",
					"name": "_proxyAddress",
					"type": "address"
				}
			],
			"name": "setProxy",
			"outputs": [],
			"stateMutability": "nonpayable",
			"type": "function"
		},
		{
			"inputs": [
				{
					"internalType": "string",
					"name": "_storeMetaURL",
					"type": "string"
				}
			],
			"name": "setStoreMetaURL",
			"outputs": [],
			"stateMutability": "nonpayable",
			"type": "function"
		},
		{
			"inputs": [
				{
					"internalType": "uint256",
					"name": "tokenId",
					"type": "uint256"
				},
				{
					"internalType": "string",
					"name": "_tokenURI",
					"type": "string"
				}
			],
			"name": "setTokenURI",
			"outputs": [],
			"stateMutability": "nonpayable",
			"type": "function"
		},
		{
			"inputs": [
				{
					"internalType": "string",
					"name": "newuri",
					"type": "string"
				}
			],
			"name": "setURI",
			"outputs": [],
			"stateMutability": "nonpayable",
			"type": "function"
		},
		{
			"inputs": [
				{
					"internalType": "address",
					"name": "to",
					"type": "address"
				},
				{
					"internalType": "uint256",
					"name": "id",
					"type": "uint256"
				},
				{
					"internalType": "bytes",
					"name": "data",
					"type": "bytes"
				}
			],
			"name": "split",
			"outputs": [],
			"stateMutability": "nonpayable",
			"type": "function"
		},
		{
			"inputs": [
				{
					"internalType": "bytes4",
					"name": "interfaceId",
					"type": "bytes4"
				}
			],
			"name": "supportsInterface",
			"outputs": [
				{
					"internalType": "bool",
					"name": "",
					"type": "bool"
				}
			],
			"stateMutability": "view",
			"type": "function"
		},
		{
			"inputs": [
				{
					"internalType": "uint256",
					"name": "id",
					"type": "uint256"
				}
			],
			"name": "totalSupply",
			"outputs": [
				{
					"internalType": "uint256",
					"name": "",
					"type": "uint256"
				}
			],
			"stateMutability": "view",
			"type": "function"
		},
		{
			"inputs": [
				{
					"internalType": "address",
					"name": "newOwner",
					"type": "address"
				}
			],
			"name": "transferOwnership",
			"outputs": [],
			"stateMutability": "nonpayable",
			"type": "function"
		},
		{
			"inputs": [],
			"name": "unpause",
			"outputs": [],
			"stateMutability": "nonpayable",
			"type": "function"
		},
		{
			"inputs": [
				{
					"internalType": "uint256",
					"name": "tokenId",
					"type": "uint256"
				}
			],
			"name": "uri",
			"outputs": [
				{
					"internalType": "string",
					"name": "",
					"type": "string"
				}
			],
			"stateMutability": "view",
			"type": "function"
		}
	]
}