{
	"data": {
		"bytecode": {
			"linkReferences": {},
			"object": "610180604081905260006101608190526200001d916005916200032d565b506040518060600160405280602b81526020016200521f602b913980516200004e916008916020909101906200032d565b5066b1a2bc2ec500006009556003600a55615000600b556000600c55600d80546001600160a81b031916741e525eeaf261ca41b809884cbde9dd9e1619573a001790553480156200009e57600080fd5b506040516200524a3803806200524a833981016040819052620000c191620003fe565b60405180604001604052806002815260200161141360f21b815250604051806040016040528060018152602001603160f81b815250604051806060016040528060318152602001620051ee603191396200011b8162000247565b50620001306200012a62000260565b6200027c565b6003805460ff60a01b19169055815160208084019190912082518383012060e08290526101008190524660a0818152604080517f8b73c3c69bb8fe3d512ecc4cf759cc79239f7b179b0ffacaa9a75d522b39400f81880181905281830187905260608201869052608082019490945230818401528151808203909301835260c00190528051940193909320919290916080523060601b60c052610120525050604051620001e092509050620003bc565b604051809103906000f080158015620001fd573d6000803e3d6000fd5b5060601b6001600160601b031916610140526001600755601080546001600160a01b03199081166001600160a01b0394851617909155601180549091169190921617905562000473565b80516200025c9060029060208401906200032d565b5050565b600062000277620002ce60201b62001f0f1760201c565b905090565b600380546001600160a01b038381166001600160a01b0319831681179093556040519116919082907f8be0079c531659141344cd1fd0a4f28419497f9722a3daafe3b4186f6b6457e090600090a35050565b6000333014156200032757600080368080601f0160208091040260200160405190810160405280939291908181526020018383808284376000920191909152505050503601516001600160a01b031691506200032a9050565b50335b90565b8280546200033b9062000436565b90600052602060002090601f0160209004810192826200035f5760008555620003aa565b82601f106200037a57805160ff1916838001178555620003aa565b82800160010185558215620003aa579182015b82811115620003aa5782518255916020019190600101906200038d565b50620003b8929150620003ca565b5090565b61058b8062004c6383390190565b5b80821115620003b85760008155600101620003cb565b80516001600160a01b0381168114620003f957600080fd5b919050565b600080604083850312156200041257600080fd5b6200041d83620003e1565b91506200042d60208401620003e1565b90509250929050565b600181811c908216806200044b57607f821691505b602082108114156200046d57634e487b7160e01b600052602260045260246000fd5b50919050565b60805160a05160c05160601c60e05161010051610120516101405160601c614781620004e260003960008181611d1a015281816128c60152612b0f015260006132df0152600061332e01526000613309015260006132620152600061328c015260006132b601526147816000f3fe6080604052600436106102925760003560e01c80635a7256c71161015a578063a22cb465116100c1578063bd85b0391161007a578063bd85b039146107ce578063e2982c21146107fb578063e985e9c51461081b578063f242432a1461083b578063f2fde38b1461085b578063f5298aca1461087b57600080fd5b8063a22cb46514610739578063aa9c386a14610759578063b0c33af41461076c578063b66a0e5d14610784578063b7ec44b414610799578063bd3e19d4146107b957600080fd5b806379c9cb7b1161011357806379c9cb7b1461067a5780638456cb591461069a5780638da5cb5b146106af578063933a9ce8146106e157806394423f6b1461070457806397107d6d1461071957600080fd5b80635a7256c7146105d15780635bdf01c8146105f15780635c975abb146106065780636b20c454146106255780636c19e78314610645578063715018a61461066557600080fd5b806329aa6335116101fe5780633f4ba83a116101b75780633f4ba83a146104f357806344a0d68a146105085780634e1273f4146105285780634f558e791461055557806351a921dd1461058457806355367ba9146105bc57600080fd5b806329aa6335146104495780632a9de840146104695780632eb2c2d61461047e57806330e995a61461049e57806331b3eb94146104be57806337929eb4146104de57600080fd5b80630e89341c116102505780630e89341c1461037157806310662e911461039e578063156980a8146103b1578063162094c4146103d15780631f7fdffa146103f15780632286843c1461041157600080fd5b8062fdd58e1461029757806301ffc9a7146102ca57806302ea2b22146102fa57806302fe53051461031c57806303824f761461033c578063039295fa14610351575b600080fd5b3480156102a357600080fd5b506102b76102b236600461386d565b61089b565b6040519081526020015b60405180910390f35b3480156102d657600080fd5b506102ea6102e5366004613c89565b610934565b60405190151581526020016102c1565b34801561030657600080fd5b5061031a610315366004613c30565b610984565b005b34801561032857600080fd5b5061031a610337366004613cc3565b610d2e565b34801561034857600080fd5b506102ea610d42565b34801561035d57600080fd5b5061031a61036c366004613e63565b610d64565b34801561037d57600080fd5b5061039161038c366004613e63565b610d71565b6040516102c19190614128565b61031a6103ac366004613d43565b610d7c565b3480156103bd57600080fd5b5061031a6103cc366004613850565b6110c4565b3480156103dd57600080fd5b5061031a6103ec366004613e95565b6110ee565b3480156103fd57600080fd5b5061031a61040c366004613a5c565b611104565b34801561041d57600080fd5b506102b761042c366004613cc3565b8051602081830181018051600f8252928201919093012091525481565b34801561045557600080fd5b5061031a610464366004613e95565b6111d0565b34801561047557600080fd5b50600c546102b7565b34801561048a57600080fd5b5061031a6104993660046138d2565b611504565b3480156104aa57600080fd5b5061031a6104b9366004613cc3565b611562565b3480156104ca57600080fd5b5061031a6104d9366004613850565b61157d565b3480156104ea57600080fd5b506103916115be565b3480156104ff57600080fd5b5061031a611650565b34801561051457600080fd5b5061031a610523366004613e63565b611662565b34801561053457600080fd5b50610548610543366004613b5e565b61166f565b6040516102c191906140f0565b34801561056157600080fd5b506102ea610570366004613e63565b600090815260046020526040902054151590565b34801561059057600080fd5b506102b761059f366004613cc3565b8051602081830181018051600e8252928201919093012091525481565b3480156105c857600080fd5b5061031a611798565b3480156105dd57600080fd5b5061031a6105ec366004613cff565b6117ac565b3480156105fd57600080fd5b50600b546102b7565b34801561061257600080fd5b50600354600160a01b900460ff166102ea565b34801561063157600080fd5b5061031a6106403660046139e7565b6117f0565b34801561065157600080fd5b5061031a610660366004613850565b61184a565b34801561067157600080fd5b5061031a611874565b34801561068657600080fd5b5061031a610695366004613e63565b611886565b3480156106a657600080fd5b5061031a611893565b3480156106bb57600080fd5b506003546001600160a01b03165b6040516001600160a01b0390911681526020016102c1565b3480156106ed57600080fd5b50600d5461010090046001600160a01b03166106c9565b34801561071057600080fd5b50600a546102b7565b34801561072557600080fd5b5061031a610734366004613850565b6118a3565b34801561074557600080fd5b5061031a610754366004613af6565b6118d3565b61031a610767366004613da5565b6118e5565b34801561077857600080fd5b50600d5460ff166102ea565b34801561079057600080fd5b5061031a611ccf565b3480156107a557600080fd5b5061031a6107b436600461386d565b611ce6565b3480156107c557600080fd5b506009546102b7565b3480156107da57600080fd5b506102b76107e9366004613e63565b60009081526004602052604090205490565b34801561080757600080fd5b506102b7610816366004613850565b611cf8565b34801561082757600080fd5b506102ea610836366004613899565b611d96565b34801561084757600080fd5b5061031a61085636600461397f565b611ded565b34801561086757600080fd5b5061031a610876366004613850565b611e44565b34801561088757600080fd5b5061031a610896366004613b29565b611eba565b60006001600160a01b03831661090b5760405162461bcd60e51b815260206004820152602a60248201527f455243313135353a2061646472657373207a65726f206973206e6f742061207660448201526930b634b21037bbb732b960b11b60648201526084015b60405180910390fd5b506000818152602081815260408083206001600160a01b03861684529091529020545b92915050565b60006001600160e01b03198216636cdb3d1360e11b148061096557506001600160e01b031982166303a24d0760e21b145b8061092e57506301ffc9a760e01b6001600160e01b031983161461092e565b600260075414156109a75760405162461bcd60e51b8152600401610902906143bc565b600260075581516001106109fd5760405162461bcd60e51b815260206004820152601b60248201527f43616e6e6f74206d657267652073696e676c6520656c656d656e7400000000006044820152606401610902565b600b825110610a595760405162461bcd60e51b815260206004820152602260248201527f43616e6e6f74206d65726765206d6f7265207468616e20313020656c656d656e604482015261747360f01b6064820152608401610902565b333214610abc5760405162461bcd60e51b815260206004820152602b60248201527f4d657267696e672066726f6d20736d61727420636f6e7472616374732069732060448201526a1b9bdd08185b1b1bddd95960aa1b6064820152608401610902565b60008083516001600160401b03811115610ad857610ad8614666565b604051908082528060200260200182016040528015610b01578160200160208202803683370190505b50905060005b8451811015610c6857612710858281518110610b2557610b25614650565b602002602001015110610b925760405162461bcd60e51b815260206004820152602f60248201527f43616e6e6f74206d65726765207769746820656c656d656e747320746861742060448201526e1a1859081899595b881b595c99d959608a1b6064820152608401610902565b6000858281518110610ba657610ba6614650565b602002602001015111610bfb5760405162461bcd60e51b815260206004820152601c60248201527f426173696320656c656d656e742069642063616e6e6f742062652030000000006044820152606401610902565b610c0781612710614485565b858281518110610c1957610c19614650565b6020026020010151610c2b919061452d565b610c359084614416565b92506001828281518110610c4b57610c4b614650565b602090810291909101015280610c60816145df565b915050610b07565b506127108211610cc65760405162461bcd60e51b8152602060048201526024808201527f4d65726765642069642063616e6e6f7420626520626173696320656c656d656e6044820152631d081a5960e21b6064820152608401610902565b610cd1338583611f6b565b610cde3383600186612110565b60408051338152602081018490526001918101919091527ff09b8580f0dd326f61a39ad067bd70a1d6915c9c938abcbff08d6c5f844cb310906060015b60405180910390a1505060016007555050565b610d36612204565b610d3f8161227d565b50565b6000600b54610d50600c5490565b10610d5b5750600190565b50600090565b90565b610d6c612204565b600a55565b606061092e82612290565b60026007541415610d9f5760405162461bcd60e51b8152600401610902906143bc565b6002600755600d5460ff1680610dbf57506003546001600160a01b031633145b610e0b5760405162461bcd60e51b815260206004820152601a60248201527f5075626c69632073616c65206861736e277420737461727465640000000000006044820152606401610902565b333214610e2a5760405162461bcd60e51b8152600401610902906142e8565b600a54600954610e3a919061452d565b3414610e825760405162461bcd60e51b815260206004820152601760248201527624b731b7b93932b1ba1022ba3432b91030b6b7bab73a1760491b6044820152606401610902565b6001600f84604051610e949190613f54565b9081526020016040518091039020546001610eaf9190614416565b1115610efd5760405162461bcd60e51b815260206004820152601b60248201527f52616e646f6d206e756d62657220616c726561647920757365642e00000000006044820152606401610902565b60008211610f3e5760405162461bcd60e51b815260206004820152600e60248201526d049642063616e6e6f7420626520360941b6044820152606401610902565b6011546001600160a01b0316610f568484338561236f565b6001600160a01b031614610fa45760405162461bcd60e51b815260206004820152601560248201527414985b991bdb481b9d5b58995c881a5b9d985b1a59605a1b6044820152606401610902565b600b54600c54610fb5906001614416565b111580610fcc57506003546001600160a01b031633145b6110035760405162461bcd60e51b81526020600482015260086024820152671cdbdb19081bdd5d60c21b6044820152606401610902565b61102c33836001604051806040016040528060048152602001630307830360e41b815250612110565b604080513381526020810184905260018183015290517f25b428dfde728ccfaddad7e29e4ac23c24ed7fd1a6e3e3f91894a9a073f5dfff9181900360600190a16001600f8460405161107e9190613f54565b9081526020016040518091039020600082825461109b9190614416565b925050819055506001600c60008282546110b59190614416565b90915550506001600755505050565b6110cc612204565b601180546001600160a01b0319166001600160a01b0392909216919091179055565b6110f6612204565b6111008282612403565b5050565b61110c612204565b6002600754141561112f5760405162461bcd60e51b8152600401610902906143bc565b6002600755600d5460ff168061114f57506003546001600160a01b031633145b6111915760405162461bcd60e51b81526020600482015260136024820152721cd85b19481a185cdb89dd081cdd185c9d1959606a1b6044820152606401610902565b61119d8484848461245b565b7f9d15fe863d6d778932c2425aab5de66f2fcc03f779b90c593d26ee152fbbe871848484604051610d1b939291906140ba565b600260075414156111f35760405162461bcd60e51b8152600401610902906143bc565b600260075561271082116112495760405162461bcd60e51b815260206004820152601a60248201527f43616e6e6f742073706c697420626173696320656c656d656e740000000000006044820152606401610902565b3332146112ad5760405162461bcd60e51b815260206004820152602c60248201527f53706c6974696e672066726f6d20736d61727420636f6e74726163747320697360448201526b081b9bdd08185b1b1bddd95960a21b6064820152608401610902565b816000815b80156112d8576112c46127108261442e565b9050816112d0816145df565b9250506112b2565b600b821061133b5760405162461bcd60e51b815260206004820152602a60248201527f43616e6e6f742062652073706c697420696e746f206d6f7265207468616e20316044820152693020656c656d656e747360b01b6064820152608401610902565b611347338660016125c0565b6000826001600160401b0381111561136157611361614666565b60405190808252806020026020018201604052801561138a578160200160208202803683370190505b5090506000836001600160401b038111156113a7576113a7614666565b6040519080825280602002602001820160405280156113d0578160200160208202803683370190505b50905060005b848110156114b0576113ea612710896145fa565b8382815181106113fc576113fc614650565b602002602001018181525050600083828151811061141c5761141c614650565b6020026020010151116114715760405162461bcd60e51b815260206004820152601c60248201527f426173696320656c656d656e742069642063616e6e6f742062652030000000006044820152606401610902565b600182828151811061148557611485614650565b602090810291909101015261149c6127108961442e565b9750806114a8816145df565b9150506113d6565b506114bd3383838961245b565b60408051338152602081018790527fe1665329182bc1dab50c9b04ea6bd37107b73ed7c585951d808b02cd9b659627910160405180910390a1505060016007555050505050565b61150c6126e3565b6001600160a01b0316856001600160a01b031614806115325750611532856108366126e3565b61154e5760405162461bcd60e51b81526004016109029061413b565b61155b85858585856126f2565b5050505050565b61156a612204565b80516111009060089060208401906136cd565b611585612204565b600260075414156115a85760405162461bcd60e51b8152600401610902906143bc565b60026007556115b6816128a7565b506001600755565b6060600880546115cd90614578565b80601f01602080910402602001604051908101604052809291908181526020018280546115f990614578565b80156116465780601f1061161b57610100808354040283529160200191611646565b820191906000526020600020905b81548152906001019060200180831161162957829003601f168201915b5050505050905090565b611658612204565b61166061291e565b565b61166a612204565b600955565b606081518351146116d45760405162461bcd60e51b815260206004820152602960248201527f455243313135353a206163636f756e747320616e6420696473206c656e677468604482015268040dad2e6dac2e8c6d60bb1b6064820152608401610902565b600083516001600160401b038111156116ef576116ef614666565b604051908082528060200260200182016040528015611718578160200160208202803683370190505b50905060005b84518110156117905761176385828151811061173c5761173c614650565b602002602001015185838151811061175657611756614650565b602002602001015161089b565b82828151811061177557611775614650565b6020908102919091010152611789816145df565b905061171e565b509392505050565b6117a0612204565b600d805460ff19169055565b6117b4612204565b807fa109ba539900bf1b633f956d63c96fc89b814c7287f7aa50a9216d0b55657207836040516117e49190614128565b60405180910390a25050565b6117f86126e3565b6001600160a01b0316836001600160a01b0316148061181e575061181e836108366126e3565b61183a5760405162461bcd60e51b81526004016109029061413b565b611845838383611f6b565b505050565b611852612204565b601080546001600160a01b0319166001600160a01b0392909216919091179055565b61187c612204565b6116606000612979565b61188e612204565b600b55565b61189b612204565b6116606129cb565b6118ab612204565b600d80546001600160a01b0390921661010002610100600160a81b0319909216919091179055565b6111006118de6126e3565b8383612a0f565b600260075414156119085760405162461bcd60e51b8152600401610902906143bc565b600260075533321461192c5760405162461bcd60e51b8152600401610902906142e8565b60095434146119775760405162461bcd60e51b815260206004820152601760248201527624b731b7b93932b1ba1022ba3432b91030b6b7bab73a1760491b6044820152606401610902565b600e866040516119879190613f54565b90815260200160405180910390205460016119a29190614416565b8510156119e65760405162461bcd60e51b81526020600482015260126024820152712ba6103634b6b4ba1032bc31b2b2b232b21760711b6044820152606401610902565b6001600f846040516119f89190613f54565b9081526020016040518091039020546001611a139190614416565b1115611a615760405162461bcd60e51b815260206004820152601b60248201527f52616e646f6d206e756d62657220616c726561647920757365642e00000000006044820152606401610902565b60008211611aa25760405162461bcd60e51b815260206004820152600e60248201526d049642063616e6e6f7420626520360941b6044820152606401610902565b6010546001600160a01b0316611aba8787338861236f565b6001600160a01b031614611b105760405162461bcd60e51b815260206004820152601960248201527f57686974656c69737420766f756368657220696e76616c6964000000000000006044820152606401610902565b6011546001600160a01b0316611b288484338561236f565b6001600160a01b031614611b765760405162461bcd60e51b815260206004820152601560248201527414985b991bdb481b9d5b58995c881a5b9d985b1a59605a1b6044820152606401610902565b600b54600c54611b87906001614416565b111580611b9e57506003546001600160a01b031633145b611bd55760405162461bcd60e51b81526020600482015260086024820152671cdbdb19081bdd5d60c21b6044820152606401610902565b611bfe33836001604051806040016040528060048152602001630307830360e41b815250612110565b604080513381526020810184905260018183015290517fb2557f57d8ab076a9cb57485a4361cd3c326587964505f7ba4f11bb095dc43b99181900360600190a16001600e87604051611c509190613f54565b90815260200160405180910390206000828254611c6d9190614416565b925050819055506001600f84604051611c869190613f54565b90815260200160405180910390206000828254611ca39190614416565b925050819055506001600c6000828254611cbd9190614416565b90915550506001600755505050505050565b611cd7612204565b600d805460ff19166001179055565b611cee612204565b6111008282612af0565b6040516371d4ed8d60e11b81526001600160a01b0382811660048301526000917f00000000000000000000000000000000000000000000000000000000000000009091169063e3a9db1a9060240160206040518083038186803b158015611d5e57600080fd5b505afa158015611d72573d6000803e3d6000fd5b505050506040513d601f19601f8201168201806040525081019061092e9190613e7c565b600d546000906001600160a01b03838116610100909204161415611dbc5750600161092e565b6001600160a01b0380841660009081526001602090815260408083209386168352929052205460ff165b9392505050565b611df56126e3565b6001600160a01b0316856001600160a01b03161480611e1b5750611e1b856108366126e3565b611e375760405162461bcd60e51b81526004016109029061413b565b61155b8585858585612b68565b611e4c612204565b6001600160a01b038116611eb15760405162461bcd60e51b815260206004820152602660248201527f4f776e61626c653a206e6577206f776e657220697320746865207a65726f206160448201526564647265737360d01b6064820152608401610902565b610d3f81612979565b611ec26126e3565b6001600160a01b0316836001600160a01b03161480611ee85750611ee8836108366126e3565b611f045760405162461bcd60e51b81526004016109029061413b565b6118458383836125c0565b600033301415611f6657600080368080601f0160208091040260200160405190810160405280939291908181526020018383808284376000920191909152505050503601516001600160a01b03169150610d619050565b503390565b6001600160a01b038316611f915760405162461bcd60e51b81526004016109029061425b565b8051825114611fb25760405162461bcd60e51b815260040161090290614333565b6000611fbc6126e3565b9050611fdc81856000868660405180602001604052806000815250612cab565b60005b83518110156120a1576000848281518110611ffc57611ffc614650565b60200260200101519050600084838151811061201a5761201a614650565b602090810291909101810151600084815280835260408082206001600160a01b038c16835290935291909120549091508181101561206a5760405162461bcd60e51b8152600401610902906141d2565b6000928352602083815260408085206001600160a01b038b1686529091529092209103905580612099816145df565b915050611fdf565b5060006001600160a01b0316846001600160a01b0316826001600160a01b03167f4a39dc06d4c0dbc64b70af90fd698a233a518aa5d07e595d983b8c0526c8f7fb86866040516120f2929190614103565b60405180910390a46040805160208101909152600090525b50505050565b6001600160a01b0384166121365760405162461bcd60e51b81526004016109029061437b565b60006121406126e3565b9050600061214d85612cc1565b9050600061215a85612cc1565b905061216b83600089858589612cab565b6000868152602081815260408083206001600160a01b038b1684529091528120805487929061219b908490614416565b909155505060408051878152602081018790526001600160a01b03808a1692600092918716917fc3d58168c5ae7397731d063d5bbf3d657854427343f4c083240f7aacaa2d0f62910160405180910390a46121fb83600089898989612d0c565b50505050505050565b61220c6126e3565b6001600160a01b03166122276003546001600160a01b031690565b6001600160a01b0316146116605760405162461bcd60e51b815260206004820181905260248201527f4f776e61626c653a2063616c6c6572206973206e6f7420746865206f776e65726044820152606401610902565b80516111009060029060208401906136cd565b6000818152600660205260408120805460609291906122ae90614578565b80601f01602080910402602001604051908101604052809291908181526020018280546122da90614578565b80156123275780601f106122fc57610100808354040283529160200191612327565b820191906000526020600020905b81548152906001019060200180831161230a57829003601f168201915b5050505050905060008151116123455761234083612e77565b611de6565b600581604051602001612359929190613f70565b6040516020818303038152906040529392505050565b6000806123ed7f5cdace2705c38f69fb87d5d5667cdb01f9773e1c4d1b6e89ce75a545b06a1071878051906020012087876040516020016123d29493929190938452602084019290925260408301526001600160a01b0316606082015260800190565b60405160208183030381529060405280519060200120612f0b565b90506123f98184612f59565b9695505050505050565b60008281526006602090815260409091208251612422928401906136cd565b50817f6bb7ff708619ba0610cba295a58592e0451dee2622938c8755667688daf3529b61244e84610d71565b6040516117e49190614128565b6001600160a01b0384166124815760405162461bcd60e51b81526004016109029061437b565b81518351146124a25760405162461bcd60e51b815260040161090290614333565b60006124ac6126e3565b90506124bd81600087878787612cab565b60005b8451811015612558578381815181106124db576124db614650565b60200260200101516000808784815181106124f8576124f8614650565b602002602001015181526020019081526020016000206000886001600160a01b03166001600160a01b0316815260200190815260200160002060008282546125409190614416565b90915550819050612550816145df565b9150506124c0565b50846001600160a01b031660006001600160a01b0316826001600160a01b03167f4a39dc06d4c0dbc64b70af90fd698a233a518aa5d07e595d983b8c0526c8f7fb87876040516125a9929190614103565b60405180910390a461155b81600087878787612f75565b6001600160a01b0383166125e65760405162461bcd60e51b81526004016109029061425b565b60006125f06126e3565b905060006125fd84612cc1565b9050600061260a84612cc1565b905061262a83876000858560405180602001604052806000815250612cab565b6000858152602081815260408083206001600160a01b038a1684529091529020548481101561266b5760405162461bcd60e51b8152600401610902906141d2565b6000868152602081815260408083206001600160a01b038b81168086529184528285208a8703905582518b81529384018a90529092908816917fc3d58168c5ae7397731d063d5bbf3d657854427343f4c083240f7aacaa2d0f62910160405180910390a46040805160208101909152600090526121fb565b60006126ed611f0f565b905090565b81518351146127135760405162461bcd60e51b815260040161090290614333565b6001600160a01b0384166127395760405162461bcd60e51b815260040161090290614216565b60006127436126e3565b9050612753818787878787612cab565b60005b845181101561283957600085828151811061277357612773614650565b60200260200101519050600085838151811061279157612791614650565b602090810291909101810151600084815280835260408082206001600160a01b038e1683529093529190912054909150818110156127e15760405162461bcd60e51b81526004016109029061429e565b6000838152602081815260408083206001600160a01b038e8116855292528083208585039055908b1682528120805484929061281e908490614416565b9250508190555050505080612832906145df565b9050612756565b50846001600160a01b0316866001600160a01b0316826001600160a01b03167f4a39dc06d4c0dbc64b70af90fd698a233a518aa5d07e595d983b8c0526c8f7fb8787604051612889929190614103565b60405180910390a461289f818787878787612f75565b505050505050565b6040516351cff8d960e01b81526001600160a01b0382811660048301527f000000000000000000000000000000000000000000000000000000000000000016906351cff8d990602401600060405180830381600087803b15801561290a57600080fd5b505af115801561155b573d6000803e3d6000fd5b61292661303f565b6003805460ff60a01b191690557f5db9ee0a495bf2e6ff9c91a7834c1ba4fdd244a5e8aa4e537bd38aeae4b073aa61295c6126e3565b6040516001600160a01b03909116815260200160405180910390a1565b600380546001600160a01b038381166001600160a01b0319831681179093556040519116919082907f8be0079c531659141344cd1fd0a4f28419497f9722a3daafe3b4186f6b6457e090600090a35050565b6129d361308f565b6003805460ff60a01b1916600160a01b1790557f62e78cea01bee320cd4e420270b5ea74000d11b0c9f74754ebdbfc544b05a25861295c6126e3565b816001600160a01b0316836001600160a01b03161415612a835760405162461bcd60e51b815260206004820152602960248201527f455243313135353a2073657474696e6720617070726f76616c20737461747573604482015268103337b91039b2b63360b91b6064820152608401610902565b6001600160a01b03838116600081815260016020908152604080832094871680845294825291829020805460ff191686151590811790915591519182527f17307eab39ab6107e8899845ad3d59bd9653f200f220920489ca2b5937696c31910160405180910390a3505050565b60405163f340fa0160e01b81526001600160a01b0383811660048301527f0000000000000000000000000000000000000000000000000000000000000000169063f340fa019083906024016000604051808303818588803b158015612b5457600080fd5b505af11580156121fb573d6000803e3d6000fd5b6001600160a01b038416612b8e5760405162461bcd60e51b815260040161090290614216565b6000612b986126e3565b90506000612ba585612cc1565b90506000612bb285612cc1565b9050612bc2838989858589612cab565b6000868152602081815260408083206001600160a01b038c16845290915290205485811015612c035760405162461bcd60e51b81526004016109029061429e565b6000878152602081815260408083206001600160a01b038d8116855292528083208985039055908a16825281208054889290612c40908490614416565b909155505060408051888152602081018890526001600160a01b03808b16928c821692918816917fc3d58168c5ae7397731d063d5bbf3d657854427343f4c083240f7aacaa2d0f62910160405180910390a4612ca0848a8a8a8a8a612d0c565b505050505050505050565b612cb361308f565b61289f8686868686866130dc565b60408051600180825281830190925260609160009190602080830190803683370190505090508281600081518110612cfb57612cfb614650565b602090810291909101015292915050565b6001600160a01b0384163b1561289f5760405163f23a6e6160e01b81526001600160a01b0385169063f23a6e6190612d509089908990889088908890600401614075565b602060405180830381600087803b158015612d6a57600080fd5b505af1925050508015612d9a575060408051601f3d908101601f19168201909252612d9791810190613ca6565b60015b612e4757612da661467c565b806308c379a01415612de05750612dbb614697565b80612dc65750612de2565b8060405162461bcd60e51b81526004016109029190614128565b505b60405162461bcd60e51b815260206004820152603460248201527f455243313135353a207472616e7366657220746f206e6f6e20455243313135356044820152732932b1b2b4bb32b91034b6b83632b6b2b73a32b960611b6064820152608401610902565b6001600160e01b0319811663f23a6e6160e01b146121fb5760405162461bcd60e51b81526004016109029061418a565b606060028054612e8690614578565b80601f0160208091040260200160405190810160405280929190818152602001828054612eb290614578565b8015612eff5780601f10612ed457610100808354040283529160200191612eff565b820191906000526020600020905b815481529060010190602001808311612ee257829003601f168201915b50505050509050919050565b600061092e612f18613255565b8360405161190160f01b6020820152602281018390526042810182905260009060620160405160208183030381529060405280519060200120905092915050565b6000806000612f68858561337c565b91509150611790816133ec565b6001600160a01b0384163b1561289f5760405163bc197c8160e01b81526001600160a01b0385169063bc197c8190612fb99089908990889088908890600401614017565b602060405180830381600087803b158015612fd357600080fd5b505af1925050508015613003575060408051601f3d908101601f1916820190925261300091810190613ca6565b60015b61300f57612da661467c565b6001600160e01b0319811663bc197c8160e01b146121fb5760405162461bcd60e51b81526004016109029061418a565b600354600160a01b900460ff166116605760405162461bcd60e51b815260206004820152601460248201527314185d5cd8589b194e881b9bdd081c185d5cd95960621b6044820152606401610902565b600354600160a01b900460ff16156116605760405162461bcd60e51b815260206004820152601060248201526f14185d5cd8589b194e881c185d5cd95960821b6044820152606401610902565b6001600160a01b0385166131635760005b83518110156131615782818151811061310857613108614650565b60200260200101516004600086848151811061312657613126614650565b60200260200101518152602001908152602001600020600082825461314b9190614416565b9091555061315a9050816145df565b90506130ed565b505b6001600160a01b03841661289f5760005b83518110156121fb57600084828151811061319157613191614650565b6020026020010151905060008483815181106131af576131af614650565b60200260200101519050600060046000848152602001908152602001600020549050818110156132325760405162461bcd60e51b815260206004820152602860248201527f455243313135353a206275726e20616d6f756e74206578636565647320746f74604482015267616c537570706c7960c01b6064820152608401610902565b6000928352600460205260409092209103905561324e816145df565b9050613174565b6000306001600160a01b037f0000000000000000000000000000000000000000000000000000000000000000161480156132ae57507f000000000000000000000000000000000000000000000000000000000000000046145b156132d857507f000000000000000000000000000000000000000000000000000000000000000090565b50604080517f00000000000000000000000000000000000000000000000000000000000000006020808301919091527f0000000000000000000000000000000000000000000000000000000000000000828401527f000000000000000000000000000000000000000000000000000000000000000060608301524660808301523060a0808401919091528351808403909101815260c0909201909252805191012090565b6000808251604114156133b35760208301516040840151606085015160001a6133a7878285856135a7565b945094505050506133e5565b8251604014156133dd57602083015160408401516133d2868383613694565b9350935050506133e5565b506000905060025b9250929050565b60008160048111156134005761340061463a565b14156134095750565b600181600481111561341d5761341d61463a565b141561346b5760405162461bcd60e51b815260206004820152601860248201527f45434453413a20696e76616c6964207369676e617475726500000000000000006044820152606401610902565b600281600481111561347f5761347f61463a565b14156134cd5760405162461bcd60e51b815260206004820152601f60248201527f45434453413a20696e76616c6964207369676e6174757265206c656e677468006044820152606401610902565b60038160048111156134e1576134e161463a565b141561353a5760405162461bcd60e51b815260206004820152602260248201527f45434453413a20696e76616c6964207369676e6174757265202773272076616c604482015261756560f01b6064820152608401610902565b600481600481111561354e5761354e61463a565b1415610d3f5760405162461bcd60e51b815260206004820152602260248201527f45434453413a20696e76616c6964207369676e6174757265202776272076616c604482015261756560f01b6064820152608401610902565b6000807f7fffffffffffffffffffffffffffffff5d576e7357a4501ddfe92f46681b20a08311156135de575060009050600361368b565b8460ff16601b141580156135f657508460ff16601c14155b15613607575060009050600461368b565b6040805160008082526020820180845289905260ff881692820192909252606081018690526080810185905260019060a0016020604051602081039080840390855afa15801561365b573d6000803e3d6000fd5b5050604051601f1901519150506001600160a01b0381166136845760006001925092505061368b565b9150600090505b94509492505050565b6000806001600160ff1b038316816136b160ff86901c601b614416565b90506136bf878288856135a7565b935093505050935093915050565b8280546136d990614578565b90600052602060002090601f0160209004810192826136fb5760008555613741565b82601f1061371457805160ff1916838001178555613741565b82800160010185558215613741579182015b82811115613741578251825591602001919060010190613726565b5061374d929150613751565b5090565b5b8082111561374d5760008155600101613752565b600082601f83011261377757600080fd5b81356020613784826143f3565b60405161379182826145b3565b8381528281019150858301600585901b870184018810156137b157600080fd5b60005b858110156137d0578135845292840192908401906001016137b4565b5090979650505050505050565b600082601f8301126137ee57600080fd5b81356001600160401b0381111561380757613807614666565b60405161381e601f8301601f1916602001826145b3565b81815284602083860101111561383357600080fd5b816020850160208301376000918101602001919091529392505050565b60006020828403121561386257600080fd5b8135611de681614720565b6000806040838503121561388057600080fd5b823561388b81614720565b946020939093013593505050565b600080604083850312156138ac57600080fd5b82356138b781614720565b915060208301356138c781614720565b809150509250929050565b600080600080600060a086880312156138ea57600080fd5b85356138f581614720565b9450602086013561390581614720565b935060408601356001600160401b038082111561392157600080fd5b61392d89838a01613766565b9450606088013591508082111561394357600080fd5b61394f89838a01613766565b9350608088013591508082111561396557600080fd5b50613972888289016137dd565b9150509295509295909350565b600080600080600060a0868803121561399757600080fd5b85356139a281614720565b945060208601356139b281614720565b9350604086013592506060860135915060808601356001600160401b038111156139db57600080fd5b613972888289016137dd565b6000806000606084860312156139fc57600080fd5b8335613a0781614720565b925060208401356001600160401b0380821115613a2357600080fd5b613a2f87838801613766565b93506040860135915080821115613a4557600080fd5b50613a5286828701613766565b9150509250925092565b60008060008060808587031215613a7257600080fd5b8435613a7d81614720565b935060208501356001600160401b0380821115613a9957600080fd5b613aa588838901613766565b94506040870135915080821115613abb57600080fd5b613ac788838901613766565b93506060870135915080821115613add57600080fd5b50613aea878288016137dd565b91505092959194509250565b60008060408385031215613b0957600080fd5b8235613b1481614720565b9150602083013580151581146138c757600080fd5b600080600060608486031215613b3e57600080fd5b8335613b4981614720565b95602085013595506040909401359392505050565b60008060408385031215613b7157600080fd5b82356001600160401b0380821115613b8857600080fd5b818501915085601f830112613b9c57600080fd5b81356020613ba9826143f3565b604051613bb682826145b3565b8381528281019150858301600585901b870184018b1015613bd657600080fd5b600096505b84871015613c02578035613bee81614720565b835260019690960195918301918301613bdb565b5096505086013592505080821115613c1957600080fd5b50613c2685828601613766565b9150509250929050565b60008060408385031215613c4357600080fd5b82356001600160401b0380821115613c5a57600080fd5b613c6686838701613766565b93506020850135915080821115613c7c57600080fd5b50613c26858286016137dd565b600060208284031215613c9b57600080fd5b8135611de681614735565b600060208284031215613cb857600080fd5b8151611de681614735565b600060208284031215613cd557600080fd5b81356001600160401b03811115613ceb57600080fd5b613cf7848285016137dd565b949350505050565b60008060408385031215613d1257600080fd5b82356001600160401b03811115613d2857600080fd5b613d34858286016137dd565b95602094909401359450505050565b600080600060608486031215613d5857600080fd5b83356001600160401b0380821115613d6f57600080fd5b613d7b878388016137dd565b9450602086013593506040860135915080821115613d9857600080fd5b50613a52868287016137dd565b60008060008060008060c08789031215613dbe57600080fd5b86356001600160401b0380821115613dd557600080fd5b613de18a838b016137dd565b9750602089013596506040890135915080821115613dfe57600080fd5b613e0a8a838b016137dd565b95506060890135915080821115613e2057600080fd5b613e2c8a838b016137dd565b94506080890135935060a0890135915080821115613e4957600080fd5b50613e5689828a016137dd565b9150509295509295509295565b600060208284031215613e7557600080fd5b5035919050565b600060208284031215613e8e57600080fd5b5051919050565b60008060408385031215613ea857600080fd5b8235915060208301356001600160401b03811115613ec557600080fd5b613c26858286016137dd565b600081518084526020808501945080840160005b83811015613f0157815187529582019590820190600101613ee5565b509495945050505050565b60008151808452613f2481602086016020860161454c565b601f01601f19169290920160200192915050565b60008151613f4a81856020860161454c565b9290920192915050565b60008251613f6681846020870161454c565b9190910192915050565b600080845481600182811c915080831680613f8c57607f831692505b6020808410821415613fac57634e487b7160e01b86526022600452602486fd5b818015613fc05760018114613fd157613ffe565b60ff19861689528489019650613ffe565b60008b81526020902060005b86811015613ff65781548b820152908501908301613fdd565b505084890196505b50505050505061400e8185613f38565b95945050505050565b6001600160a01b0386811682528516602082015260a06040820181905260009061404390830186613ed1565b82810360608401526140558186613ed1565b905082810360808401526140698185613f0c565b98975050505050505050565b6001600160a01b03868116825285166020820152604081018490526060810183905260a0608082018190526000906140af90830184613f0c565b979650505050505050565b6001600160a01b03841681526060602082018190526000906140de90830185613ed1565b82810360408401526123f98185613ed1565b602081526000611de66020830184613ed1565b6040815260006141166040830185613ed1565b828103602084015261400e8185613ed1565b602081526000611de66020830184613f0c565b6020808252602f908201527f455243313135353a2063616c6c6572206973206e6f7420746f6b656e206f776e60408201526e195c881b9bdc88185c1c1c9bdd9959608a1b606082015260800190565b60208082526028908201527f455243313135353a204552433131353552656365697665722072656a656374656040820152676420746f6b656e7360c01b606082015260800190565b60208082526024908201527f455243313135353a206275726e20616d6f756e7420657863656564732062616c604082015263616e636560e01b606082015260800190565b60208082526025908201527f455243313135353a207472616e7366657220746f20746865207a65726f206164604082015264647265737360d81b606082015260800190565b60208082526023908201527f455243313135353a206275726e2066726f6d20746865207a65726f206164647260408201526265737360e81b606082015260800190565b6020808252602a908201527f455243313135353a20696e73756666696369656e742062616c616e636520666f60408201526939103a3930b739b332b960b11b606082015260800190565b6020808252602b908201527f4d696e74696e672066726f6d20736d61727420636f6e7472616374732069732060408201526a1b9bdd08185b1b1bddd95960aa1b606082015260800190565b60208082526028908201527f455243313135353a2069647320616e6420616d6f756e7473206c656e677468206040820152670dad2e6dac2e8c6d60c31b606082015260800190565b60208082526021908201527f455243313135353a206d696e7420746f20746865207a65726f206164647265736040820152607360f81b606082015260800190565b6020808252601f908201527f5265656e7472616e637947756172643a207265656e7472616e742063616c6c00604082015260600190565b60006001600160401b0382111561440c5761440c614666565b5060051b60200190565b600082198211156144295761442961460e565b500190565b60008261443d5761443d614624565b500490565b600181815b8085111561447d5781600019048211156144635761446361460e565b8085161561447057918102915b93841c9390800290614447565b509250929050565b6000611de6838360008261449b5750600161092e565b816144a85750600061092e565b81600181146144be57600281146144c8576144e4565b600191505061092e565b60ff8411156144d9576144d961460e565b50506001821b61092e565b5060208310610133831016604e8410600b8410161715614507575081810a61092e565b6145118383614442565b80600019048211156145255761452561460e565b029392505050565b60008160001904831182151516156145475761454761460e565b500290565b60005b8381101561456757818101518382015260200161454f565b8381111561210a5750506000910152565b600181811c9082168061458c57607f821691505b602082108114156145ad57634e487b7160e01b600052602260045260246000fd5b50919050565b601f8201601f191681016001600160401b03811182821017156145d8576145d8614666565b6040525050565b60006000198214156145f3576145f361460e565b5060010190565b60008261460957614609614624565b500690565b634e487b7160e01b600052601160045260246000fd5b634e487b7160e01b600052601260045260246000fd5b634e487b7160e01b600052602160045260246000fd5b634e487b7160e01b600052603260045260246000fd5b634e487b7160e01b600052604160045260246000fd5b600060033d1115610d615760046000803e5060005160e01c90565b600060443d10156146a55790565b6040516003193d81016004833e81513d6001600160401b0381602484011181841117156146d457505050505090565b82850191508151818111156146ec5750505050505090565b843d87010160208285010111156147065750505050505090565b614715602082860101876145b3565b509095945050505050565b6001600160a01b0381168114610d3f57600080fd5b6001600160e01b031981168114610d3f57600080fdfea2646970667358221220d960ccf73d4e1afe386997257efbc353f6165000bf061291738579b39051340664736f6c63430008070033608060405234801561001057600080fd5b5061001a3361001f565b61006f565b600080546001600160a01b038381166001600160a01b0319831681178455604051919092169283917f8be0079c531659141344cd1fd0a4f28419497f9722a3daafe3b4186f6b6457e09190a35050565b61050d8061007e6000396000f3fe6080604052600436106100555760003560e01c806351cff8d91461005a578063715018a61461007c5780638da5cb5b14610091578063e3a9db1a146100be578063f2fde38b14610102578063f340fa0114610122575b600080fd5b34801561006657600080fd5b5061007a610075366004610478565b610135565b005b34801561008857600080fd5b5061007a6101ac565b34801561009d57600080fd5b506000546040516001600160a01b0390911681526020015b60405180910390f35b3480156100ca57600080fd5b506100f46100d9366004610478565b6001600160a01b031660009081526001602052604090205490565b6040519081526020016100b5565b34801561010e57600080fd5b5061007a61011d366004610478565b6101c0565b61007a610130366004610478565b61023e565b61013d6102b0565b6001600160a01b0381166000818152600160205260408120805491905590610165908261030a565b816001600160a01b03167f7084f5476618d8e60b11ef0d7d3f06914655adb8793e28ff7f018d4c76d505d5826040516101a091815260200190565b60405180910390a25050565b6101b46102b0565b6101be6000610428565b565b6101c86102b0565b6001600160a01b0381166102325760405162461bcd60e51b815260206004820152602660248201527f4f776e61626c653a206e6577206f776e657220697320746865207a65726f206160448201526564647265737360d01b60648201526084015b60405180910390fd5b61023b81610428565b50565b6102466102b0565b6001600160a01b03811660009081526001602052604081208054349283929161027090849061049c565b90915550506040518181526001600160a01b038316907f2da466a7b24304f47e87fa2e1e5a81b9831ce54fec19055ce277ca2f39ba42c4906020016101a0565b6000546001600160a01b031633146101be5760405162461bcd60e51b815260206004820181905260248201527f4f776e61626c653a2063616c6c6572206973206e6f7420746865206f776e65726044820152606401610229565b8047101561035a5760405162461bcd60e51b815260206004820152601d60248201527f416464726573733a20696e73756666696369656e742062616c616e63650000006044820152606401610229565b6000826001600160a01b03168260405160006040518083038185875af1925050503d80600081146103a7576040519150601f19603f3d011682016040523d82523d6000602084013e6103ac565b606091505b50509050806104235760405162461bcd60e51b815260206004820152603a60248201527f416464726573733a20756e61626c6520746f2073656e642076616c75652c207260448201527f6563697069656e74206d617920686176652072657665727465640000000000006064820152608401610229565b505050565b600080546001600160a01b038381166001600160a01b0319831681178455604051919092169283917f8be0079c531659141344cd1fd0a4f28419497f9722a3daafe3b4186f6b6457e09190a35050565b60006020828403121561048a57600080fd5b8135610495816104c2565b9392505050565b600082198211156104bd57634e487b7160e01b600052601160045260246000fd5b500190565b6001600160a01b038116811461023b57600080fdfea2646970667358221220b2af98d294e7a87229f1fa3e610dfab5ab2eb56ef17ca07e100b281a095810d164736f6c6343000807003368747470733a2f2f6d657461707974686f6e2e6865726f6b756170702e636f6d2f6170692f656c656d656e742f7b69647d68747470733a2f2f6d657461707974686f6e2e6865726f6b756170702e636f6d2f6170692f73746f72652f",
			"opcodes": "PUSH2 0x180 PUSH1 0x40 DUP2 SWAP1 MSTORE PUSH1 0x0 PUSH2 0x160 DUP2 SWAP1 MSTORE PUSH3 0x1D SWAP2 PUSH1 0x5 SWAP2 PUSH3 0x32D JUMP JUMPDEST POP PUSH1 0x40 MLOAD DUP1 PUSH1 0x60 ADD PUSH1 0x40 MSTORE DUP1 PUSH1 0x2B DUP2 MSTORE PUSH1 0x20 ADD PUSH3 0x521F PUSH1 0x2B SWAP2 CODECOPY DUP1 MLOAD PUSH3 0x4E SWAP2 PUSH1 0x8 SWAP2 PUSH1 0x20 SWAP1 SWAP2 ADD SWAP1 PUSH3 0x32D JUMP JUMPDEST POP PUSH7 0xB1A2BC2EC50000 PUSH1 0x9 SSTORE PUSH1 0x3 PUSH1 0xA SSTORE PUSH2 0x5000 PUSH1 0xB SSTORE PUSH1 0x0 PUSH1 0xC SSTORE PUSH1 0xD DUP1 SLOAD PUSH1 0x1 PUSH1 0x1 PUSH1 0xA8 SHL SUB NOT AND PUSH21 0x1E525EEAF261CA41B809884CBDE9DD9E1619573A00 OR SWAP1 SSTORE CALLVALUE DUP1 ISZERO PUSH3 0x9E JUMPI PUSH1 0x0 DUP1 REVERT JUMPDEST POP PUSH1 0x40 MLOAD PUSH3 0x524A CODESIZE SUB DUP1 PUSH3 0x524A DUP4 CODECOPY DUP2 ADD PUSH1 0x40 DUP2 SWAP1 MSTORE PUSH3 0xC1 SWAP2 PUSH3 0x3FE JUMP JUMPDEST PUSH1 0x40 MLOAD DUP1 PUSH1 0x40 ADD PUSH1 0x40 MSTORE DUP1 PUSH1 0x2 DUP2 MSTORE PUSH1 0x20 ADD PUSH2 0x1413 PUSH1 0xF2 SHL DUP2 MSTORE POP PUSH1 0x40 MLOAD DUP1 PUSH1 0x40 ADD PUSH1 0x40 MSTORE DUP1 PUSH1 0x1 DUP2 MSTORE PUSH1 0x20 ADD PUSH1 0x31 PUSH1 0xF8 SHL DUP2 MSTORE POP PUSH1 0x40 MLOAD DUP1 PUSH1 0x60 ADD PUSH1 0x40 MSTORE DUP1 PUSH1 0x31 DUP2 MSTORE PUSH1 0x20 ADD PUSH3 0x51EE PUSH1 0x31 SWAP2 CODECOPY PUSH3 0x11B DUP2 PUSH3 0x247 JUMP JUMPDEST POP PUSH3 0x130 PUSH3 0x12A PUSH3 0x260 JUMP JUMPDEST PUSH3 0x27C JUMP JUMPDEST PUSH1 0x3 DUP1 SLOAD PUSH1 0xFF PUSH1 0xA0 SHL NOT AND SWAP1 SSTORE DUP2 MLOAD PUSH1 0x20 DUP1 DUP5 ADD SWAP2 SWAP1 SWAP2 KECCAK256 DUP3 MLOAD DUP4 DUP4 ADD KECCAK256 PUSH1 0xE0 DUP3 SWAP1 MSTORE PUSH2 0x100 DUP2 SWAP1 MSTORE CHAINID PUSH1 0xA0 DUP2 DUP2 MSTORE PUSH1 0x40 DUP1 MLOAD PUSH32 0x8B73C3C69BB8FE3D512ECC4CF759CC79239F7B179B0FFACAA9A75D522B39400F DUP2 DUP9 ADD DUP2 SWAP1 MSTORE DUP2 DUP4 ADD DUP8 SWAP1 MSTORE PUSH1 0x60 DUP3 ADD DUP7 SWAP1 MSTORE PUSH1 0x80 DUP3 ADD SWAP5 SWAP1 SWAP5 MSTORE ADDRESS DUP2 DUP5 ADD MSTORE DUP2 MLOAD DUP1 DUP3 SUB SWAP1 SWAP4 ADD DUP4 MSTORE PUSH1 0xC0 ADD SWAP1 MSTORE DUP1 MLOAD SWAP5 ADD SWAP4 SWAP1 SWAP4 KECCAK256 SWAP2 SWAP3 SWAP1 SWAP2 PUSH1 0x80 MSTORE ADDRESS PUSH1 0x60 SHL PUSH1 0xC0 MSTORE PUSH2 0x120 MSTORE POP POP PUSH1 0x40 MLOAD PUSH3 0x1E0 SWAP3 POP SWAP1 POP PUSH3 0x3BC JUMP JUMPDEST PUSH1 0x40 MLOAD DUP1 SWAP2 SUB SWAP1 PUSH1 0x0 CREATE DUP1 ISZERO DUP1 ISZERO PUSH3 0x1FD JUMPI RETURNDATASIZE PUSH1 0x0 DUP1 RETURNDATACOPY RETURNDATASIZE PUSH1 0x0 REVERT JUMPDEST POP PUSH1 0x60 SHL PUSH1 0x1 PUSH1 0x1 PUSH1 0x60 SHL SUB NOT AND PUSH2 0x140 MSTORE PUSH1 0x1 PUSH1 0x7 SSTORE PUSH1 0x10 DUP1 SLOAD PUSH1 0x1 PUSH1 0x1 PUSH1 0xA0 SHL SUB NOT SWAP1 DUP2 AND PUSH1 0x1 PUSH1 0x1 PUSH1 0xA0 SHL SUB SWAP5 DUP6 AND OR SWAP1 SWAP2 SSTORE PUSH1 0x11 DUP1 SLOAD SWAP1 SWAP2 AND SWAP2 SWAP1 SWAP3 AND OR SWAP1 SSTORE PUSH3 0x473 JUMP JUMPDEST DUP1 MLOAD PUSH3 0x25C SWAP1 PUSH1 0x2 SWAP1 PUSH1 0x20 DUP5 ADD SWAP1 PUSH3 0x32D JUMP JUMPDEST POP POP JUMP JUMPDEST PUSH1 0x0 PUSH3 0x277 PUSH3 0x2CE PUSH1 0x20 SHL PUSH3 0x1F0F OR PUSH1 0x20 SHR JUMP JUMPDEST SWAP1 POP SWAP1 JUMP JUMPDEST PUSH1 0x3 DUP1 SLOAD PUSH1 0x1 PUSH1 0x1 PUSH1 0xA0 SHL SUB DUP4 DUP2 AND PUSH1 0x1 PUSH1 0x1 PUSH1 0xA0 SHL SUB NOT DUP4 AND DUP2 OR SWAP1 SWAP4 SSTORE PUSH1 0x40 MLOAD SWAP2 AND SWAP2 SWAP1 DUP3 SWAP1 PUSH32 0x8BE0079C531659141344CD1FD0A4F28419497F9722A3DAAFE3B4186F6B6457E0 SWAP1 PUSH1 0x0 SWAP1 LOG3 POP POP JUMP JUMPDEST PUSH1 0x0 CALLER ADDRESS EQ ISZERO PUSH3 0x327 JUMPI PUSH1 0x0 DUP1 CALLDATASIZE DUP1 DUP1 PUSH1 0x1F ADD PUSH1 0x20 DUP1 SWAP2 DIV MUL PUSH1 0x20 ADD PUSH1 0x40 MLOAD SWAP1 DUP2 ADD PUSH1 0x40 MSTORE DUP1 SWAP4 SWAP3 SWAP2 SWAP1 DUP2 DUP2 MSTORE PUSH1 0x20 ADD DUP4 DUP4 DUP1 DUP3 DUP5 CALLDATACOPY PUSH1 0x0 SWAP3 ADD SWAP2 SWAP1 SWAP2 MSTORE POP POP POP POP CALLDATASIZE ADD MLOAD PUSH1 0x1 PUSH1 0x1 PUSH1 0xA0 SHL SUB AND SWAP2 POP PUSH3 0x32A SWAP1 POP JUMP JUMPDEST POP CALLER JUMPDEST SWAP1 JUMP JUMPDEST DUP3 DUP1 SLOAD PUSH3 0x33B SWAP1 PUSH3 0x436 JUMP JUMPDEST SWAP1 PUSH1 0x0 MSTORE PUSH1 0x20 PUSH1 0x0 KECCAK256 SWAP1 PUSH1 0x1F ADD PUSH1 0x20 SWAP1 DIV DUP2 ADD SWAP3 DUP3 PUSH3 0x35F JUMPI PUSH1 0x0 DUP6 SSTORE PUSH3 0x3AA JUMP JUMPDEST DUP3 PUSH1 0x1F LT PUSH3 0x37A JUMPI DUP1 MLOAD PUSH1 0xFF NOT AND DUP4 DUP1 ADD OR DUP6 SSTORE PUSH3 0x3AA JUMP JUMPDEST DUP3 DUP1 ADD PUSH1 0x1 ADD DUP6 SSTORE DUP3 ISZERO PUSH3 0x3AA JUMPI SWAP2 DUP3 ADD JUMPDEST DUP3 DUP2 GT ISZERO PUSH3 0x3AA JUMPI DUP3 MLOAD DUP3 SSTORE SWAP2 PUSH1 0x20 ADD SWAP2 SWAP1 PUSH1 0x1 ADD SWAP1 PUSH3 0x38D JUMP JUMPDEST POP PUSH3 0x3B8 SWAP3 SWAP2 POP PUSH3 0x3CA JUMP JUMPDEST POP SWAP1 JUMP JUMPDEST PUSH2 0x58B DUP1 PUSH3 0x4C63 DUP4 CODECOPY ADD SWAP1 JUMP JUMPDEST JUMPDEST DUP1 DUP3 GT ISZERO PUSH3 0x3B8 JUMPI PUSH1 0x0 DUP2 SSTORE PUSH1 0x1 ADD PUSH3 0x3CB JUMP JUMPDEST DUP1 MLOAD PUSH1 0x1 PUSH1 0x1 PUSH1 0xA0 SHL SUB DUP2 AND DUP2 EQ PUSH3 0x3F9 JUMPI PUSH1 0x0 DUP1 REVERT JUMPDEST SWAP2 SWAP1 POP JUMP JUMPDEST PUSH1 0x0 DUP1 PUSH1 0x40 DUP4 DUP6 SUB SLT ISZERO PUSH3 0x412 JUMPI PUSH1 0x0 DUP1 REVERT JUMPDEST PUSH3 0x41D DUP4 PUSH3 0x3E1 JUMP JUMPDEST SWAP2 POP PUSH3 0x42D PUSH1 0x20 DUP5 ADD PUSH3 0x3E1 JUMP JUMPDEST SWAP1 POP SWAP3 POP SWAP3 SWAP1 POP JUMP JUMPDEST PUSH1 0x1 DUP2 DUP2 SHR SWAP1 DUP3 AND DUP1 PUSH3 0x44B JUMPI PUSH1 0x7F DUP3 AND SWAP2 POP JUMPDEST PUSH1 0x20 DUP3 LT DUP2 EQ ISZERO PUSH3 0x46D JUMPI PUSH4 0x4E487B71 PUSH1 0xE0 SHL PUSH1 0x0 MSTORE PUSH1 0x22 PUSH1 0x4 MSTORE PUSH1 0x24 PUSH1 0x0 REVERT JUMPDEST POP SWAP2 SWAP1 POP JUMP JUMPDEST PUSH1 0x80 MLOAD PUSH1 0xA0 MLOAD PUSH1 0xC0 MLOAD PUSH1 0x60 SHR PUSH1 0xE0 MLOAD PUSH2 0x100 MLOAD PUSH2 0x120 MLOAD PUSH2 0x140 MLOAD PUSH1 0x60 SHR PUSH2 0x4781 PUSH3 0x4E2 PUSH1 0x0 CODECOPY PUSH1 0x0 DUP2 DUP2 PUSH2 0x1D1A ADD MSTORE DUP2 DUP2 PUSH2 0x28C6 ADD MSTORE PUSH2 0x2B0F ADD MSTORE PUSH1 0x0 PUSH2 0x32DF ADD MSTORE PUSH1 0x0 PUSH2 0x332E ADD MSTORE PUSH1 0x0 PUSH2 0x3309 ADD MSTORE PUSH1 0x0 PUSH2 0x3262 ADD MSTORE PUSH1 0x0 PUSH2 0x328C ADD MSTORE PUSH1 0x0 PUSH2 0x32B6 ADD MSTORE PUSH2 0x4781 PUSH1 0x0 RETURN INVALID PUSH1 0x80 PUSH1 0x40 MSTORE PUSH1 0x4 CALLDATASIZE LT PUSH2 0x292 JUMPI PUSH1 0x0 CALLDATALOAD PUSH1 0xE0 SHR DUP1 PUSH4 0x5A7256C7 GT PUSH2 0x15A JUMPI DUP1 PUSH4 0xA22CB465 GT PUSH2 0xC1 JUMPI DUP1 PUSH4 0xBD85B039 GT PUSH2 0x7A JUMPI DUP1 PUSH4 0xBD85B039 EQ PUSH2 0x7CE JUMPI DUP1 PUSH4 0xE2982C21 EQ PUSH2 0x7FB JUMPI DUP1 PUSH4 0xE985E9C5 EQ PUSH2 0x81B JUMPI DUP1 PUSH4 0xF242432A EQ PUSH2 0x83B JUMPI DUP1 PUSH4 0xF2FDE38B EQ PUSH2 0x85B JUMPI DUP1 PUSH4 0xF5298ACA EQ PUSH2 0x87B JUMPI PUSH1 0x0 DUP1 REVERT JUMPDEST DUP1 PUSH4 0xA22CB465 EQ PUSH2 0x739 JUMPI DUP1 PUSH4 0xAA9C386A EQ PUSH2 0x759 JUMPI DUP1 PUSH4 0xB0C33AF4 EQ PUSH2 0x76C JUMPI DUP1 PUSH4 0xB66A0E5D EQ PUSH2 0x784 JUMPI DUP1 PUSH4 0xB7EC44B4 EQ PUSH2 0x799 JUMPI DUP1 PUSH4 0xBD3E19D4 EQ PUSH2 0x7B9 JUMPI PUSH1 0x0 DUP1 REVERT JUMPDEST DUP1 PUSH4 0x79C9CB7B GT PUSH2 0x113 JUMPI DUP1 PUSH4 0x79C9CB7B EQ PUSH2 0x67A JUMPI DUP1 PUSH4 0x8456CB59 EQ PUSH2 0x69A JUMPI DUP1 PUSH4 0x8DA5CB5B EQ PUSH2 0x6AF JUMPI DUP1 PUSH4 0x933A9CE8 EQ PUSH2 0x6E1 JUMPI DUP1 PUSH4 0x94423F6B EQ PUSH2 0x704 JUMPI DUP1 PUSH4 0x97107D6D EQ PUSH2 0x719 JUMPI PUSH1 0x0 DUP1 REVERT JUMPDEST DUP1 PUSH4 0x5A7256C7 EQ PUSH2 0x5D1 JUMPI DUP1 PUSH4 0x5BDF01C8 EQ PUSH2 0x5F1 JUMPI DUP1 PUSH4 0x5C975ABB EQ PUSH2 0x606 JUMPI DUP1 PUSH4 0x6B20C454 EQ PUSH2 0x625 JUMPI DUP1 PUSH4 0x6C19E783 EQ PUSH2 0x645 JUMPI DUP1 PUSH4 0x715018A6 EQ PUSH2 0x665 JUMPI PUSH1 0x0 DUP1 REVERT JUMPDEST DUP1 PUSH4 0x29AA6335 GT PUSH2 0x1FE JUMPI DUP1 PUSH4 0x3F4BA83A GT PUSH2 0x1B7 JUMPI DUP1 PUSH4 0x3F4BA83A EQ PUSH2 0x4F3 JUMPI DUP1 PUSH4 0x44A0D68A EQ PUSH2 0x508 JUMPI DUP1 PUSH4 0x4E1273F4 EQ PUSH2 0x528 JUMPI DUP1 PUSH4 0x4F558E79 EQ PUSH2 0x555 JUMPI DUP1 PUSH4 0x51A921DD EQ PUSH2 0x584 JUMPI DUP1 PUSH4 0x55367BA9 EQ PUSH2 0x5BC JUMPI PUSH1 0x0 DUP1 REVERT JUMPDEST DUP1 PUSH4 0x29AA6335 EQ PUSH2 0x449 JUMPI DUP1 PUSH4 0x2A9DE840 EQ PUSH2 0x469 JUMPI DUP1 PUSH4 0x2EB2C2D6 EQ PUSH2 0x47E JUMPI DUP1 PUSH4 0x30E995A6 EQ PUSH2 0x49E JUMPI DUP1 PUSH4 0x31B3EB94 EQ PUSH2 0x4BE JUMPI DUP1 PUSH4 0x37929EB4 EQ PUSH2 0x4DE JUMPI PUSH1 0x0 DUP1 REVERT JUMPDEST DUP1 PUSH4 0xE89341C GT PUSH2 0x250 JUMPI DUP1 PUSH4 0xE89341C EQ PUSH2 0x371 JUMPI DUP1 PUSH4 0x10662E91 EQ PUSH2 0x39E JUMPI DUP1 PUSH4 0x156980A8 EQ PUSH2 0x3B1 JUMPI DUP1 PUSH4 0x162094C4 EQ PUSH2 0x3D1 JUMPI DUP1 PUSH4 0x1F7FDFFA EQ PUSH2 0x3F1 JUMPI DUP1 PUSH4 0x2286843C EQ PUSH2 0x411 JUMPI PUSH1 0x0 DUP1 REVERT JUMPDEST DUP1 PUSH3 0xFDD58E EQ PUSH2 0x297 JUMPI DUP1 PUSH4 0x1FFC9A7 EQ PUSH2 0x2CA JUMPI DUP1 PUSH4 0x2EA2B22 EQ PUSH2 0x2FA JUMPI DUP1 PUSH4 0x2FE5305 EQ PUSH2 0x31C JUMPI DUP1 PUSH4 0x3824F76 EQ PUSH2 0x33C JUMPI DUP1 PUSH4 0x39295FA EQ PUSH2 0x351 JUMPI JUMPDEST PUSH1 0x0 DUP1 REVERT JUMPDEST CALLVALUE DUP1 ISZERO PUSH2 0x2A3 JUMPI PUSH1 0x0 DUP1 REVERT JUMPDEST POP PUSH2 0x2B7 PUSH2 0x2B2 CALLDATASIZE PUSH1 0x4 PUSH2 0x386D JUMP JUMPDEST PUSH2 0x89B JUMP JUMPDEST PUSH1 0x40 MLOAD SWAP1 DUP2 MSTORE PUSH1 0x20 ADD JUMPDEST PUSH1 0x40 MLOAD DUP1 SWAP2 SUB SWAP1 RETURN JUMPDEST CALLVALUE DUP1 ISZERO PUSH2 0x2D6 JUMPI PUSH1 0x0 DUP1 REVERT JUMPDEST POP PUSH2 0x2EA PUSH2 0x2E5 CALLDATASIZE PUSH1 0x4 PUSH2 0x3C89 JUMP JUMPDEST PUSH2 0x934 JUMP JUMPDEST PUSH1 0x40 MLOAD SWAP1 ISZERO ISZERO DUP2 MSTORE PUSH1 0x20 ADD PUSH2 0x2C1 JUMP JUMPDEST CALLVALUE DUP1 ISZERO PUSH2 0x306 JUMPI PUSH1 0x0 DUP1 REVERT JUMPDEST POP PUSH2 0x31A PUSH2 0x315 CALLDATASIZE PUSH1 0x4 PUSH2 0x3C30 JUMP JUMPDEST PUSH2 0x984 JUMP JUMPDEST STOP JUMPDEST CALLVALUE DUP1 ISZERO PUSH2 0x328 JUMPI PUSH1 0x0 DUP1 REVERT JUMPDEST POP PUSH2 0x31A PUSH2 0x337 CALLDATASIZE PUSH1 0x4 PUSH2 0x3CC3 JUMP JUMPDEST PUSH2 0xD2E JUMP JUMPDEST CALLVALUE DUP1 ISZERO PUSH2 0x348 JUMPI PUSH1 0x0 DUP1 REVERT JUMPDEST POP PUSH2 0x2EA PUSH2 0xD42 JUMP JUMPDEST CALLVALUE DUP1 ISZERO PUSH2 0x35D JUMPI PUSH1 0x0 DUP1 REVERT JUMPDEST POP PUSH2 0x31A PUSH2 0x36C CALLDATASIZE PUSH1 0x4 PUSH2 0x3E63 JUMP JUMPDEST PUSH2 0xD64 JUMP JUMPDEST CALLVALUE DUP1 ISZERO PUSH2 0x37D JUMPI PUSH1 0x0 DUP1 REVERT JUMPDEST POP PUSH2 0x391 PUSH2 0x38C CALLDATASIZE PUSH1 0x4 PUSH2 0x3E63 JUMP JUMPDEST PUSH2 0xD71 JUMP JUMPDEST PUSH1 0x40 MLOAD PUSH2 0x2C1 SWAP2 SWAP1 PUSH2 0x4128 JUMP JUMPDEST PUSH2 0x31A PUSH2 0x3AC CALLDATASIZE PUSH1 0x4 PUSH2 0x3D43 JUMP JUMPDEST PUSH2 0xD7C JUMP JUMPDEST CALLVALUE DUP1 ISZERO PUSH2 0x3BD JUMPI PUSH1 0x0 DUP1 REVERT JUMPDEST POP PUSH2 0x31A PUSH2 0x3CC CALLDATASIZE PUSH1 0x4 PUSH2 0x3850 JUMP JUMPDEST PUSH2 0x10C4 JUMP JUMPDEST CALLVALUE DUP1 ISZERO PUSH2 0x3DD JUMPI PUSH1 0x0 DUP1 REVERT JUMPDEST POP PUSH2 0x31A PUSH2 0x3EC CALLDATASIZE PUSH1 0x4 PUSH2 0x3E95 JUMP JUMPDEST PUSH2 0x10EE JUMP JUMPDEST CALLVALUE DUP1 ISZERO PUSH2 0x3FD JUMPI PUSH1 0x0 DUP1 REVERT JUMPDEST POP PUSH2 0x31A PUSH2 0x40C CALLDATASIZE PUSH1 0x4 PUSH2 0x3A5C JUMP JUMPDEST PUSH2 0x1104 JUMP JUMPDEST CALLVALUE DUP1 ISZERO PUSH2 0x41D JUMPI PUSH1 0x0 DUP1 REVERT JUMPDEST POP PUSH2 0x2B7 PUSH2 0x42C CALLDATASIZE PUSH1 0x4 PUSH2 0x3CC3 JUMP JUMPDEST DUP1 MLOAD PUSH1 0x20 DUP2 DUP4 ADD DUP2 ADD DUP1 MLOAD PUSH1 0xF DUP3 MSTORE SWAP3 DUP3 ADD SWAP2 SWAP1 SWAP4 ADD KECCAK256 SWAP2 MSTORE SLOAD DUP2 JUMP JUMPDEST CALLVALUE DUP1 ISZERO PUSH2 0x455 JUMPI PUSH1 0x0 DUP1 REVERT JUMPDEST POP PUSH2 0x31A PUSH2 0x464 CALLDATASIZE PUSH1 0x4 PUSH2 0x3E95 JUMP JUMPDEST PUSH2 0x11D0 JUMP JUMPDEST CALLVALUE DUP1 ISZERO PUSH2 0x475 JUMPI PUSH1 0x0 DUP1 REVERT JUMPDEST POP PUSH1 0xC SLOAD PUSH2 0x2B7 JUMP JUMPDEST CALLVALUE DUP1 ISZERO PUSH2 0x48A JUMPI PUSH1 0x0 DUP1 REVERT JUMPDEST POP PUSH2 0x31A PUSH2 0x499 CALLDATASIZE PUSH1 0x4 PUSH2 0x38D2 JUMP JUMPDEST PUSH2 0x1504 JUMP JUMPDEST CALLVALUE DUP1 ISZERO PUSH2 0x4AA JUMPI PUSH1 0x0 DUP1 REVERT JUMPDEST POP PUSH2 0x31A PUSH2 0x4B9 CALLDATASIZE PUSH1 0x4 PUSH2 0x3CC3 JUMP JUMPDEST PUSH2 0x1562 JUMP JUMPDEST CALLVALUE DUP1 ISZERO PUSH2 0x4CA JUMPI PUSH1 0x0 DUP1 REVERT JUMPDEST POP PUSH2 0x31A PUSH2 0x4D9 CALLDATASIZE PUSH1 0x4 PUSH2 0x3850 JUMP JUMPDEST PUSH2 0x157D JUMP JUMPDEST CALLVALUE DUP1 ISZERO PUSH2 0x4EA JUMPI PUSH1 0x0 DUP1 REVERT JUMPDEST POP PUSH2 0x391 PUSH2 0x15BE JUMP JUMPDEST CALLVALUE DUP1 ISZERO PUSH2 0x4FF JUMPI PUSH1 0x0 DUP1 REVERT JUMPDEST POP PUSH2 0x31A PUSH2 0x1650 JUMP JUMPDEST CALLVALUE DUP1 ISZERO PUSH2 0x514 JUMPI PUSH1 0x0 DUP1 REVERT JUMPDEST POP PUSH2 0x31A PUSH2 0x523 CALLDATASIZE PUSH1 0x4 PUSH2 0x3E63 JUMP JUMPDEST PUSH2 0x1662 JUMP JUMPDEST CALLVALUE DUP1 ISZERO PUSH2 0x534 JUMPI PUSH1 0x0 DUP1 REVERT JUMPDEST POP PUSH2 0x548 PUSH2 0x543 CALLDATASIZE PUSH1 0x4 PUSH2 0x3B5E JUMP JUMPDEST PUSH2 0x166F JUMP JUMPDEST PUSH1 0x40 MLOAD PUSH2 0x2C1 SWAP2 SWAP1 PUSH2 0x40F0 JUMP JUMPDEST CALLVALUE DUP1 ISZERO PUSH2 0x561 JUMPI PUSH1 0x0 DUP1 REVERT JUMPDEST POP PUSH2 0x2EA PUSH2 0x570 CALLDATASIZE PUSH1 0x4 PUSH2 0x3E63 JUMP JUMPDEST PUSH1 0x0 SWAP1 DUP2 MSTORE PUSH1 0x4 PUSH1 0x20 MSTORE PUSH1 0x40 SWAP1 KECCAK256 SLOAD ISZERO ISZERO SWAP1 JUMP JUMPDEST CALLVALUE DUP1 ISZERO PUSH2 0x590 JUMPI PUSH1 0x0 DUP1 REVERT JUMPDEST POP PUSH2 0x2B7 PUSH2 0x59F CALLDATASIZE PUSH1 0x4 PUSH2 0x3CC3 JUMP JUMPDEST DUP1 MLOAD PUSH1 0x20 DUP2 DUP4 ADD DUP2 ADD DUP1 MLOAD PUSH1 0xE DUP3 MSTORE SWAP3 DUP3 ADD SWAP2 SWAP1 SWAP4 ADD KECCAK256 SWAP2 MSTORE SLOAD DUP2 JUMP JUMPDEST CALLVALUE DUP1 ISZERO PUSH2 0x5C8 JUMPI PUSH1 0x0 DUP1 REVERT JUMPDEST POP PUSH2 0x31A PUSH2 0x1798 JUMP JUMPDEST CALLVALUE DUP1 ISZERO PUSH2 0x5DD JUMPI PUSH1 0x0 DUP1 REVERT JUMPDEST POP PUSH2 0x31A PUSH2 0x5EC CALLDATASIZE PUSH1 0x4 PUSH2 0x3CFF JUMP JUMPDEST PUSH2 0x17AC JUMP JUMPDEST CALLVALUE DUP1 ISZERO PUSH2 0x5FD JUMPI PUSH1 0x0 DUP1 REVERT JUMPDEST POP PUSH1 0xB SLOAD PUSH2 0x2B7 JUMP JUMPDEST CALLVALUE DUP1 ISZERO PUSH2 0x612 JUMPI PUSH1 0x0 DUP1 REVERT JUMPDEST POP PUSH1 0x3 SLOAD PUSH1 0x1 PUSH1 0xA0 SHL SWAP1 DIV PUSH1 0xFF AND PUSH2 0x2EA JUMP JUMPDEST CALLVALUE DUP1 ISZERO PUSH2 0x631 JUMPI PUSH1 0x0 DUP1 REVERT JUMPDEST POP PUSH2 0x31A PUSH2 0x640 CALLDATASIZE PUSH1 0x4 PUSH2 0x39E7 JUMP JUMPDEST PUSH2 0x17F0 JUMP JUMPDEST CALLVALUE DUP1 ISZERO PUSH2 0x651 JUMPI PUSH1 0x0 DUP1 REVERT JUMPDEST POP PUSH2 0x31A PUSH2 0x660 CALLDATASIZE PUSH1 0x4 PUSH2 0x3850 JUMP JUMPDEST PUSH2 0x184A JUMP JUMPDEST CALLVALUE DUP1 ISZERO PUSH2 0x671 JUMPI PUSH1 0x0 DUP1 REVERT JUMPDEST POP PUSH2 0x31A PUSH2 0x1874 JUMP JUMPDEST CALLVALUE DUP1 ISZERO PUSH2 0x686 JUMPI PUSH1 0x0 DUP1 REVERT JUMPDEST POP PUSH2 0x31A PUSH2 0x695 CALLDATASIZE PUSH1 0x4 PUSH2 0x3E63 JUMP JUMPDEST PUSH2 0x1886 JUMP JUMPDEST CALLVALUE DUP1 ISZERO PUSH2 0x6A6 JUMPI PUSH1 0x0 DUP1 REVERT JUMPDEST POP PUSH2 0x31A PUSH2 0x1893 JUMP JUMPDEST CALLVALUE DUP1 ISZERO PUSH2 0x6BB JUMPI PUSH1 0x0 DUP1 REVERT JUMPDEST POP PUSH1 0x3 SLOAD PUSH1 0x1 PUSH1 0x1 PUSH1 0xA0 SHL SUB AND JUMPDEST PUSH1 0x40 MLOAD PUSH1 0x1 PUSH1 0x1 PUSH1 0xA0 SHL SUB SWAP1 SWAP2 AND DUP2 MSTORE PUSH1 0x20 ADD PUSH2 0x2C1 JUMP JUMPDEST CALLVALUE DUP1 ISZERO PUSH2 0x6ED JUMPI PUSH1 0x0 DUP1 REVERT JUMPDEST POP PUSH1 0xD SLOAD PUSH2 0x100 SWAP1 DIV PUSH1 0x1 PUSH1 0x1 PUSH1 0xA0 SHL SUB AND PUSH2 0x6C9 JUMP JUMPDEST CALLVALUE DUP1 ISZERO PUSH2 0x710 JUMPI PUSH1 0x0 DUP1 REVERT JUMPDEST POP PUSH1 0xA SLOAD PUSH2 0x2B7 JUMP JUMPDEST CALLVALUE DUP1 ISZERO PUSH2 0x725 JUMPI PUSH1 0x0 DUP1 REVERT JUMPDEST POP PUSH2 0x31A PUSH2 0x734 CALLDATASIZE PUSH1 0x4 PUSH2 0x3850 JUMP JUMPDEST PUSH2 0x18A3 JUMP JUMPDEST CALLVALUE DUP1 ISZERO PUSH2 0x745 JUMPI PUSH1 0x0 DUP1 REVERT JUMPDEST POP PUSH2 0x31A PUSH2 0x754 CALLDATASIZE PUSH1 0x4 PUSH2 0x3AF6 JUMP JUMPDEST PUSH2 0x18D3 JUMP JUMPDEST PUSH2 0x31A PUSH2 0x767 CALLDATASIZE PUSH1 0x4 PUSH2 0x3DA5 JUMP JUMPDEST PUSH2 0x18E5 JUMP JUMPDEST CALLVALUE DUP1 ISZERO PUSH2 0x778 JUMPI PUSH1 0x0 DUP1 REVERT JUMPDEST POP PUSH1 0xD SLOAD PUSH1 0xFF AND PUSH2 0x2EA JUMP JUMPDEST CALLVALUE DUP1 ISZERO PUSH2 0x790 JUMPI PUSH1 0x0 DUP1 REVERT JUMPDEST POP PUSH2 0x31A PUSH2 0x1CCF JUMP JUMPDEST CALLVALUE DUP1 ISZERO PUSH2 0x7A5 JUMPI PUSH1 0x0 DUP1 REVERT JUMPDEST POP PUSH2 0x31A PUSH2 0x7B4 CALLDATASIZE PUSH1 0x4 PUSH2 0x386D JUMP JUMPDEST PUSH2 0x1CE6 JUMP JUMPDEST CALLVALUE DUP1 ISZERO PUSH2 0x7C5 JUMPI PUSH1 0x0 DUP1 REVERT JUMPDEST POP PUSH1 0x9 SLOAD PUSH2 0x2B7 JUMP JUMPDEST CALLVALUE DUP1 ISZERO PUSH2 0x7DA JUMPI PUSH1 0x0 DUP1 REVERT JUMPDEST POP PUSH2 0x2B7 PUSH2 0x7E9 CALLDATASIZE PUSH1 0x4 PUSH2 0x3E63 JUMP JUMPDEST PUSH1 0x0 SWAP1 DUP2 MSTORE PUSH1 0x4 PUSH1 0x20 MSTORE PUSH1 0x40 SWAP1 KECCAK256 SLOAD SWAP1 JUMP JUMPDEST CALLVALUE DUP1 ISZERO PUSH2 0x807 JUMPI PUSH1 0x0 DUP1 REVERT JUMPDEST POP PUSH2 0x2B7 PUSH2 0x816 CALLDATASIZE PUSH1 0x4 PUSH2 0x3850 JUMP JUMPDEST PUSH2 0x1CF8 JUMP JUMPDEST CALLVALUE DUP1 ISZERO PUSH2 0x827 JUMPI PUSH1 0x0 DUP1 REVERT JUMPDEST POP PUSH2 0x2EA PUSH2 0x836 CALLDATASIZE PUSH1 0x4 PUSH2 0x3899 JUMP JUMPDEST PUSH2 0x1D96 JUMP JUMPDEST CALLVALUE DUP1 ISZERO PUSH2 0x847 JUMPI PUSH1 0x0 DUP1 REVERT JUMPDEST POP PUSH2 0x31A PUSH2 0x856 CALLDATASIZE PUSH1 0x4 PUSH2 0x397F JUMP JUMPDEST PUSH2 0x1DED JUMP JUMPDEST CALLVALUE DUP1 ISZERO PUSH2 0x867 JUMPI PUSH1 0x0 DUP1 REVERT JUMPDEST POP PUSH2 0x31A PUSH2 0x876 CALLDATASIZE PUSH1 0x4 PUSH2 0x3850 JUMP JUMPDEST PUSH2 0x1E44 JUMP JUMPDEST CALLVALUE DUP1 ISZERO PUSH2 0x887 JUMPI PUSH1 0x0 DUP1 REVERT JUMPDEST POP PUSH2 0x31A PUSH2 0x896 CALLDATASIZE PUSH1 0x4 PUSH2 0x3B29 JUMP JUMPDEST PUSH2 0x1EBA JUMP JUMPDEST PUSH1 0x0 PUSH1 0x1 PUSH1 0x1 PUSH1 0xA0 SHL SUB DUP4 AND PUSH2 0x90B JUMPI PUSH1 0x40 MLOAD PUSH3 0x461BCD PUSH1 0xE5 SHL DUP2 MSTORE PUSH1 0x20 PUSH1 0x4 DUP3 ADD MSTORE PUSH1 0x2A PUSH1 0x24 DUP3 ADD MSTORE PUSH32 0x455243313135353A2061646472657373207A65726F206973206E6F7420612076 PUSH1 0x44 DUP3 ADD MSTORE PUSH10 0x30B634B21037BBB732B9 PUSH1 0xB1 SHL PUSH1 0x64 DUP3 ADD MSTORE PUSH1 0x84 ADD JUMPDEST PUSH1 0x40 MLOAD DUP1 SWAP2 SUB SWAP1 REVERT JUMPDEST POP PUSH1 0x0 DUP2 DUP2 MSTORE PUSH1 0x20 DUP2 DUP2 MSTORE PUSH1 0x40 DUP1 DUP4 KECCAK256 PUSH1 0x1 PUSH1 0x1 PUSH1 0xA0 SHL SUB DUP7 AND DUP5 MSTORE SWAP1 SWAP2 MSTORE SWAP1 KECCAK256 SLOAD JUMPDEST SWAP3 SWAP2 POP POP JUMP JUMPDEST PUSH1 0x0 PUSH1 0x1 PUSH1 0x1 PUSH1 0xE0 SHL SUB NOT DUP3 AND PUSH4 0x6CDB3D13 PUSH1 0xE1 SHL EQ DUP1 PUSH2 0x965 JUMPI POP PUSH1 0x1 PUSH1 0x1 PUSH1 0xE0 SHL SUB NOT DUP3 AND PUSH4 0x3A24D07 PUSH1 0xE2 SHL EQ JUMPDEST DUP1 PUSH2 0x92E JUMPI POP PUSH4 0x1FFC9A7 PUSH1 0xE0 SHL PUSH1 0x1 PUSH1 0x1 PUSH1 0xE0 SHL SUB NOT DUP4 AND EQ PUSH2 0x92E JUMP JUMPDEST PUSH1 0x2 PUSH1 0x7 SLOAD EQ ISZERO PUSH2 0x9A7 JUMPI PUSH1 0x40 MLOAD PUSH3 0x461BCD PUSH1 0xE5 SHL DUP2 MSTORE PUSH1 0x4 ADD PUSH2 0x902 SWAP1 PUSH2 0x43BC JUMP JUMPDEST PUSH1 0x2 PUSH1 0x7 SSTORE DUP2 MLOAD PUSH1 0x1 LT PUSH2 0x9FD JUMPI PUSH1 0x40 MLOAD PUSH3 0x461BCD PUSH1 0xE5 SHL DUP2 MSTORE PUSH1 0x20 PUSH1 0x4 DUP3 ADD MSTORE PUSH1 0x1B PUSH1 0x24 DUP3 ADD MSTORE PUSH32 0x43616E6E6F74206D657267652073696E676C6520656C656D656E740000000000 PUSH1 0x44 DUP3 ADD MSTORE PUSH1 0x64 ADD PUSH2 0x902 JUMP JUMPDEST PUSH1 0xB DUP3 MLOAD LT PUSH2 0xA59 JUMPI PUSH1 0x40 MLOAD PUSH3 0x461BCD PUSH1 0xE5 SHL DUP2 MSTORE PUSH1 0x20 PUSH1 0x4 DUP3 ADD MSTORE PUSH1 0x22 PUSH1 0x24 DUP3 ADD MSTORE PUSH32 0x43616E6E6F74206D65726765206D6F7265207468616E20313020656C656D656E PUSH1 0x44 DUP3 ADD MSTORE PUSH2 0x7473 PUSH1 0xF0 SHL PUSH1 0x64 DUP3 ADD MSTORE PUSH1 0x84 ADD PUSH2 0x902 JUMP JUMPDEST CALLER ORIGIN EQ PUSH2 0xABC JUMPI PUSH1 0x40 MLOAD PUSH3 0x461BCD PUSH1 0xE5 SHL DUP2 MSTORE PUSH1 0x20 PUSH1 0x4 DUP3 ADD MSTORE PUSH1 0x2B PUSH1 0x24 DUP3 ADD MSTORE PUSH32 0x4D657267696E672066726F6D20736D61727420636F6E74726163747320697320 PUSH1 0x44 DUP3 ADD MSTORE PUSH11 0x1B9BDD08185B1B1BDDD959 PUSH1 0xAA SHL PUSH1 0x64 DUP3 ADD MSTORE PUSH1 0x84 ADD PUSH2 0x902 JUMP JUMPDEST PUSH1 0x0 DUP1 DUP4 MLOAD PUSH1 0x1 PUSH1 0x1 PUSH1 0x40 SHL SUB DUP2 GT ISZERO PUSH2 0xAD8 JUMPI PUSH2 0xAD8 PUSH2 0x4666 JUMP JUMPDEST PUSH1 0x40 MLOAD SWAP1 DUP1 DUP3 MSTORE DUP1 PUSH1 0x20 MUL PUSH1 0x20 ADD DUP3 ADD PUSH1 0x40 MSTORE DUP1 ISZERO PUSH2 0xB01 JUMPI DUP2 PUSH1 0x20 ADD PUSH1 0x20 DUP3 MUL DUP1 CALLDATASIZE DUP4 CALLDATACOPY ADD SWAP1 POP JUMPDEST POP SWAP1 POP PUSH1 0x0 JUMPDEST DUP5 MLOAD DUP2 LT ISZERO PUSH2 0xC68 JUMPI PUSH2 0x2710 DUP6 DUP3 DUP2 MLOAD DUP2 LT PUSH2 0xB25 JUMPI PUSH2 0xB25 PUSH2 0x4650 JUMP JUMPDEST PUSH1 0x20 MUL PUSH1 0x20 ADD ADD MLOAD LT PUSH2 0xB92 JUMPI PUSH1 0x40 MLOAD PUSH3 0x461BCD PUSH1 0xE5 SHL DUP2 MSTORE PUSH1 0x20 PUSH1 0x4 DUP3 ADD MSTORE PUSH1 0x2F PUSH1 0x24 DUP3 ADD MSTORE PUSH32 0x43616E6E6F74206D65726765207769746820656C656D656E7473207468617420 PUSH1 0x44 DUP3 ADD MSTORE PUSH15 0x1A1859081899595B881B595C99D959 PUSH1 0x8A SHL PUSH1 0x64 DUP3 ADD MSTORE PUSH1 0x84 ADD PUSH2 0x902 JUMP JUMPDEST PUSH1 0x0 DUP6 DUP3 DUP2 MLOAD DUP2 LT PUSH2 0xBA6 JUMPI PUSH2 0xBA6 PUSH2 0x4650 JUMP JUMPDEST PUSH1 0x20 MUL PUSH1 0x20 ADD ADD MLOAD GT PUSH2 0xBFB JUMPI PUSH1 0x40 MLOAD PUSH3 0x461BCD PUSH1 0xE5 SHL DUP2 MSTORE PUSH1 0x20 PUSH1 0x4 DUP3 ADD MSTORE PUSH1 0x1C PUSH1 0x24 DUP3 ADD MSTORE PUSH32 0x426173696320656C656D656E742069642063616E6E6F74206265203000000000 PUSH1 0x44 DUP3 ADD MSTORE PUSH1 0x64 ADD PUSH2 0x902 JUMP JUMPDEST PUSH2 0xC07 DUP2 PUSH2 0x2710 PUSH2 0x4485 JUMP JUMPDEST DUP6 DUP3 DUP2 MLOAD DUP2 LT PUSH2 0xC19 JUMPI PUSH2 0xC19 PUSH2 0x4650 JUMP JUMPDEST PUSH1 0x20 MUL PUSH1 0x20 ADD ADD MLOAD PUSH2 0xC2B SWAP2 SWAP1 PUSH2 0x452D JUMP JUMPDEST PUSH2 0xC35 SWAP1 DUP5 PUSH2 0x4416 JUMP JUMPDEST SWAP3 POP PUSH1 0x1 DUP3 DUP3 DUP2 MLOAD DUP2 LT PUSH2 0xC4B JUMPI PUSH2 0xC4B PUSH2 0x4650 JUMP JUMPDEST PUSH1 0x20 SWAP1 DUP2 MUL SWAP2 SWAP1 SWAP2 ADD ADD MSTORE DUP1 PUSH2 0xC60 DUP2 PUSH2 0x45DF JUMP JUMPDEST SWAP2 POP POP PUSH2 0xB07 JUMP JUMPDEST POP PUSH2 0x2710 DUP3 GT PUSH2 0xCC6 JUMPI PUSH1 0x40 MLOAD PUSH3 0x461BCD PUSH1 0xE5 SHL DUP2 MSTORE PUSH1 0x20 PUSH1 0x4 DUP3 ADD MSTORE PUSH1 0x24 DUP1 DUP3 ADD MSTORE PUSH32 0x4D65726765642069642063616E6E6F7420626520626173696320656C656D656E PUSH1 0x44 DUP3 ADD MSTORE PUSH4 0x1D081A59 PUSH1 0xE2 SHL PUSH1 0x64 DUP3 ADD MSTORE PUSH1 0x84 ADD PUSH2 0x902 JUMP JUMPDEST PUSH2 0xCD1 CALLER DUP6 DUP4 PUSH2 0x1F6B JUMP JUMPDEST PUSH2 0xCDE CALLER DUP4 PUSH1 0x1 DUP7 PUSH2 0x2110 JUMP JUMPDEST PUSH1 0x40 DUP1 MLOAD CALLER DUP2 MSTORE PUSH1 0x20 DUP2 ADD DUP5 SWAP1 MSTORE PUSH1 0x1 SWAP2 DUP2 ADD SWAP2 SWAP1 SWAP2 MSTORE PUSH32 0xF09B8580F0DD326F61A39AD067BD70A1D6915C9C938ABCBFF08D6C5F844CB310 SWAP1 PUSH1 0x60 ADD JUMPDEST PUSH1 0x40 MLOAD DUP1 SWAP2 SUB SWAP1 LOG1 POP POP PUSH1 0x1 PUSH1 0x7 SSTORE POP POP JUMP JUMPDEST PUSH2 0xD36 PUSH2 0x2204 JUMP JUMPDEST PUSH2 0xD3F DUP2 PUSH2 0x227D JUMP JUMPDEST POP JUMP JUMPDEST PUSH1 0x0 PUSH1 0xB SLOAD PUSH2 0xD50 PUSH1 0xC SLOAD SWAP1 JUMP JUMPDEST LT PUSH2 0xD5B JUMPI POP PUSH1 0x1 SWAP1 JUMP JUMPDEST POP PUSH1 0x0 SWAP1 JUMP JUMPDEST SWAP1 JUMP JUMPDEST PUSH2 0xD6C PUSH2 0x2204 JUMP JUMPDEST PUSH1 0xA SSTORE JUMP JUMPDEST PUSH1 0x60 PUSH2 0x92E DUP3 PUSH2 0x2290 JUMP JUMPDEST PUSH1 0x2 PUSH1 0x7 SLOAD EQ ISZERO PUSH2 0xD9F JUMPI PUSH1 0x40 MLOAD PUSH3 0x461BCD PUSH1 0xE5 SHL DUP2 MSTORE PUSH1 0x4 ADD PUSH2 0x902 SWAP1 PUSH2 0x43BC JUMP JUMPDEST PUSH1 0x2 PUSH1 0x7 SSTORE PUSH1 0xD SLOAD PUSH1 0xFF AND DUP1 PUSH2 0xDBF JUMPI POP PUSH1 0x3 SLOAD PUSH1 0x1 PUSH1 0x1 PUSH1 0xA0 SHL SUB AND CALLER EQ JUMPDEST PUSH2 0xE0B JUMPI PUSH1 0x40 MLOAD PUSH3 0x461BCD PUSH1 0xE5 SHL DUP2 MSTORE PUSH1 0x20 PUSH1 0x4 DUP3 ADD MSTORE PUSH1 0x1A PUSH1 0x24 DUP3 ADD MSTORE PUSH32 0x5075626C69632073616C65206861736E27742073746172746564000000000000 PUSH1 0x44 DUP3 ADD MSTORE PUSH1 0x64 ADD PUSH2 0x902 JUMP JUMPDEST CALLER ORIGIN EQ PUSH2 0xE2A JUMPI PUSH1 0x40 MLOAD PUSH3 0x461BCD PUSH1 0xE5 SHL DUP2 MSTORE PUSH1 0x4 ADD PUSH2 0x902 SWAP1 PUSH2 0x42E8 JUMP JUMPDEST PUSH1 0xA SLOAD PUSH1 0x9 SLOAD PUSH2 0xE3A SWAP2 SWAP1 PUSH2 0x452D JUMP JUMPDEST CALLVALUE EQ PUSH2 0xE82 JUMPI PUSH1 0x40 MLOAD PUSH3 0x461BCD PUSH1 0xE5 SHL DUP2 MSTORE PUSH1 0x20 PUSH1 0x4 DUP3 ADD MSTORE PUSH1 0x17 PUSH1 0x24 DUP3 ADD MSTORE PUSH23 0x24B731B7B93932B1BA1022BA3432B91030B6B7BAB73A17 PUSH1 0x49 SHL PUSH1 0x44 DUP3 ADD MSTORE PUSH1 0x64 ADD PUSH2 0x902 JUMP JUMPDEST PUSH1 0x1 PUSH1 0xF DUP5 PUSH1 0x40 MLOAD PUSH2 0xE94 SWAP2 SWAP1 PUSH2 0x3F54 JUMP JUMPDEST SWAP1 DUP2 MSTORE PUSH1 0x20 ADD PUSH1 0x40 MLOAD DUP1 SWAP2 SUB SWAP1 KECCAK256 SLOAD PUSH1 0x1 PUSH2 0xEAF SWAP2 SWAP1 PUSH2 0x4416 JUMP JUMPDEST GT ISZERO PUSH2 0xEFD JUMPI PUSH1 0x40 MLOAD PUSH3 0x461BCD PUSH1 0xE5 SHL DUP2 MSTORE PUSH1 0x20 PUSH1 0x4 DUP3 ADD MSTORE PUSH1 0x1B PUSH1 0x24 DUP3 ADD MSTORE PUSH32 0x52616E646F6D206E756D62657220616C726561647920757365642E0000000000 PUSH1 0x44 DUP3 ADD MSTORE PUSH1 0x64 ADD PUSH2 0x902 JUMP JUMPDEST PUSH1 0x0 DUP3 GT PUSH2 0xF3E JUMPI PUSH1 0x40 MLOAD PUSH3 0x461BCD PUSH1 0xE5 SHL DUP2 MSTORE PUSH1 0x20 PUSH1 0x4 DUP3 ADD MSTORE PUSH1 0xE PUSH1 0x24 DUP3 ADD MSTORE PUSH14 0x49642063616E6E6F74206265203 PUSH1 0x94 SHL PUSH1 0x44 DUP3 ADD MSTORE PUSH1 0x64 ADD PUSH2 0x902 JUMP JUMPDEST PUSH1 0x11 SLOAD PUSH1 0x1 PUSH1 0x1 PUSH1 0xA0 SHL SUB AND PUSH2 0xF56 DUP5 DUP5 CALLER DUP6 PUSH2 0x236F JUMP JUMPDEST PUSH1 0x1 PUSH1 0x1 PUSH1 0xA0 SHL SUB AND EQ PUSH2 0xFA4 JUMPI PUSH1 0x40 MLOAD PUSH3 0x461BCD PUSH1 0xE5 SHL DUP2 MSTORE PUSH1 0x20 PUSH1 0x4 DUP3 ADD MSTORE PUSH1 0x15 PUSH1 0x24 DUP3 ADD MSTORE PUSH21 0x14985B991BDB481B9D5B58995C881A5B9D985B1A59 PUSH1 0x5A SHL PUSH1 0x44 DUP3 ADD MSTORE PUSH1 0x64 ADD PUSH2 0x902 JUMP JUMPDEST PUSH1 0xB SLOAD PUSH1 0xC SLOAD PUSH2 0xFB5 SWAP1 PUSH1 0x1 PUSH2 0x4416 JUMP JUMPDEST GT ISZERO DUP1 PUSH2 0xFCC JUMPI POP PUSH1 0x3 SLOAD PUSH1 0x1 PUSH1 0x1 PUSH1 0xA0 SHL SUB AND CALLER EQ JUMPDEST PUSH2 0x1003 JUMPI PUSH1 0x40 MLOAD PUSH3 0x461BCD PUSH1 0xE5 SHL DUP2 MSTORE PUSH1 0x20 PUSH1 0x4 DUP3 ADD MSTORE PUSH1 0x8 PUSH1 0x24 DUP3 ADD MSTORE PUSH8 0x1CDBDB19081BDD5D PUSH1 0xC2 SHL PUSH1 0x44 DUP3 ADD MSTORE PUSH1 0x64 ADD PUSH2 0x902 JUMP JUMPDEST PUSH2 0x102C CALLER DUP4 PUSH1 0x1 PUSH1 0x40 MLOAD DUP1 PUSH1 0x40 ADD PUSH1 0x40 MSTORE DUP1 PUSH1 0x4 DUP2 MSTORE PUSH1 0x20 ADD PUSH4 0x3078303 PUSH1 0xE4 SHL DUP2 MSTORE POP PUSH2 0x2110 JUMP JUMPDEST PUSH1 0x40 DUP1 MLOAD CALLER DUP2 MSTORE PUSH1 0x20 DUP2 ADD DUP5 SWAP1 MSTORE PUSH1 0x1 DUP2 DUP4 ADD MSTORE SWAP1 MLOAD PUSH32 0x25B428DFDE728CCFADDAD7E29E4AC23C24ED7FD1A6E3E3F91894A9A073F5DFFF SWAP2 DUP2 SWAP1 SUB PUSH1 0x60 ADD SWAP1 LOG1 PUSH1 0x1 PUSH1 0xF DUP5 PUSH1 0x40 MLOAD PUSH2 0x107E SWAP2 SWAP1 PUSH2 0x3F54 JUMP JUMPDEST SWAP1 DUP2 MSTORE PUSH1 0x20 ADD PUSH1 0x40 MLOAD DUP1 SWAP2 SUB SWAP1 KECCAK256 PUSH1 0x0 DUP3 DUP3 SLOAD PUSH2 0x109B SWAP2 SWAP1 PUSH2 0x4416 JUMP JUMPDEST SWAP3 POP POP DUP2 SWAP1 SSTORE POP PUSH1 0x1 PUSH1 0xC PUSH1 0x0 DUP3 DUP3 SLOAD PUSH2 0x10B5 SWAP2 SWAP1 PUSH2 0x4416 JUMP JUMPDEST SWAP1 SWAP2 SSTORE POP POP PUSH1 0x1 PUSH1 0x7 SSTORE POP POP POP JUMP JUMPDEST PUSH2 0x10CC PUSH2 0x2204 JUMP JUMPDEST PUSH1 0x11 DUP1 SLOAD PUSH1 0x1 PUSH1 0x1 PUSH1 0xA0 SHL SUB NOT AND PUSH1 0x1 PUSH1 0x1 PUSH1 0xA0 SHL SUB SWAP3 SWAP1 SWAP3 AND SWAP2 SWAP1 SWAP2 OR SWAP1 SSTORE JUMP JUMPDEST PUSH2 0x10F6 PUSH2 0x2204 JUMP JUMPDEST PUSH2 0x1100 DUP3 DUP3 PUSH2 0x2403 JUMP JUMPDEST POP POP JUMP JUMPDEST PUSH2 0x110C PUSH2 0x2204 JUMP JUMPDEST PUSH1 0x2 PUSH1 0x7 SLOAD EQ ISZERO PUSH2 0x112F JUMPI PUSH1 0x40 MLOAD PUSH3 0x461BCD PUSH1 0xE5 SHL DUP2 MSTORE PUSH1 0x4 ADD PUSH2 0x902 SWAP1 PUSH2 0x43BC JUMP JUMPDEST PUSH1 0x2 PUSH1 0x7 SSTORE PUSH1 0xD SLOAD PUSH1 0xFF AND DUP1 PUSH2 0x114F JUMPI POP PUSH1 0x3 SLOAD PUSH1 0x1 PUSH1 0x1 PUSH1 0xA0 SHL SUB AND CALLER EQ JUMPDEST PUSH2 0x1191 JUMPI PUSH1 0x40 MLOAD PUSH3 0x461BCD PUSH1 0xE5 SHL DUP2 MSTORE PUSH1 0x20 PUSH1 0x4 DUP3 ADD MSTORE PUSH1 0x13 PUSH1 0x24 DUP3 ADD MSTORE PUSH19 0x1CD85B19481A185CDB89DD081CDD185C9D1959 PUSH1 0x6A SHL PUSH1 0x44 DUP3 ADD MSTORE PUSH1 0x64 ADD PUSH2 0x902 JUMP JUMPDEST PUSH2 0x119D DUP5 DUP5 DUP5 DUP5 PUSH2 0x245B JUMP JUMPDEST PUSH32 0x9D15FE863D6D778932C2425AAB5DE66F2FCC03F779B90C593D26EE152FBBE871 DUP5 DUP5 DUP5 PUSH1 0x40 MLOAD PUSH2 0xD1B SWAP4 SWAP3 SWAP2 SWAP1 PUSH2 0x40BA JUMP JUMPDEST PUSH1 0x2 PUSH1 0x7 SLOAD EQ ISZERO PUSH2 0x11F3 JUMPI PUSH1 0x40 MLOAD PUSH3 0x461BCD PUSH1 0xE5 SHL DUP2 MSTORE PUSH1 0x4 ADD PUSH2 0x902 SWAP1 PUSH2 0x43BC JUMP JUMPDEST PUSH1 0x2 PUSH1 0x7 SSTORE PUSH2 0x2710 DUP3 GT PUSH2 0x1249 JUMPI PUSH1 0x40 MLOAD PUSH3 0x461BCD PUSH1 0xE5 SHL DUP2 MSTORE PUSH1 0x20 PUSH1 0x4 DUP3 ADD MSTORE PUSH1 0x1A PUSH1 0x24 DUP3 ADD MSTORE PUSH32 0x43616E6E6F742073706C697420626173696320656C656D656E74000000000000 PUSH1 0x44 DUP3 ADD MSTORE PUSH1 0x64 ADD PUSH2 0x902 JUMP JUMPDEST CALLER ORIGIN EQ PUSH2 0x12AD JUMPI PUSH1 0x40 MLOAD PUSH3 0x461BCD PUSH1 0xE5 SHL DUP2 MSTORE PUSH1 0x20 PUSH1 0x4 DUP3 ADD MSTORE PUSH1 0x2C PUSH1 0x24 DUP3 ADD MSTORE PUSH32 0x53706C6974696E672066726F6D20736D61727420636F6E747261637473206973 PUSH1 0x44 DUP3 ADD MSTORE PUSH12 0x81B9BDD08185B1B1BDDD959 PUSH1 0xA2 SHL PUSH1 0x64 DUP3 ADD MSTORE PUSH1 0x84 ADD PUSH2 0x902 JUMP JUMPDEST DUP2 PUSH1 0x0 DUP2 JUMPDEST DUP1 ISZERO PUSH2 0x12D8 JUMPI PUSH2 0x12C4 PUSH2 0x2710 DUP3 PUSH2 0x442E JUMP JUMPDEST SWAP1 POP DUP2 PUSH2 0x12D0 DUP2 PUSH2 0x45DF JUMP JUMPDEST SWAP3 POP POP PUSH2 0x12B2 JUMP JUMPDEST PUSH1 0xB DUP3 LT PUSH2 0x133B JUMPI PUSH1 0x40 MLOAD PUSH3 0x461BCD PUSH1 0xE5 SHL DUP2 MSTORE PUSH1 0x20 PUSH1 0x4 DUP3 ADD MSTORE PUSH1 0x2A PUSH1 0x24 DUP3 ADD MSTORE PUSH32 0x43616E6E6F742062652073706C697420696E746F206D6F7265207468616E2031 PUSH1 0x44 DUP3 ADD MSTORE PUSH10 0x3020656C656D656E7473 PUSH1 0xB0 SHL PUSH1 0x64 DUP3 ADD MSTORE PUSH1 0x84 ADD PUSH2 0x902 JUMP JUMPDEST PUSH2 0x1347 CALLER DUP7 PUSH1 0x1 PUSH2 0x25C0 JUMP JUMPDEST PUSH1 0x0 DUP3 PUSH1 0x1 PUSH1 0x1 PUSH1 0x40 SHL SUB DUP2 GT ISZERO PUSH2 0x1361 JUMPI PUSH2 0x1361 PUSH2 0x4666 JUMP JUMPDEST PUSH1 0x40 MLOAD SWAP1 DUP1 DUP3 MSTORE DUP1 PUSH1 0x20 MUL PUSH1 0x20 ADD DUP3 ADD PUSH1 0x40 MSTORE DUP1 ISZERO PUSH2 0x138A JUMPI DUP2 PUSH1 0x20 ADD PUSH1 0x20 DUP3 MUL DUP1 CALLDATASIZE DUP4 CALLDATACOPY ADD SWAP1 POP JUMPDEST POP SWAP1 POP PUSH1 0x0 DUP4 PUSH1 0x1 PUSH1 0x1 PUSH1 0x40 SHL SUB DUP2 GT ISZERO PUSH2 0x13A7 JUMPI PUSH2 0x13A7 PUSH2 0x4666 JUMP JUMPDEST PUSH1 0x40 MLOAD SWAP1 DUP1 DUP3 MSTORE DUP1 PUSH1 0x20 MUL PUSH1 0x20 ADD DUP3 ADD PUSH1 0x40 MSTORE DUP1 ISZERO PUSH2 0x13D0 JUMPI DUP2 PUSH1 0x20 ADD PUSH1 0x20 DUP3 MUL DUP1 CALLDATASIZE DUP4 CALLDATACOPY ADD SWAP1 POP JUMPDEST POP SWAP1 POP PUSH1 0x0 JUMPDEST DUP5 DUP2 LT ISZERO PUSH2 0x14B0 JUMPI PUSH2 0x13EA PUSH2 0x2710 DUP10 PUSH2 0x45FA JUMP JUMPDEST DUP4 DUP3 DUP2 MLOAD DUP2 LT PUSH2 0x13FC JUMPI PUSH2 0x13FC PUSH2 0x4650 JUMP JUMPDEST PUSH1 0x20 MUL PUSH1 0x20 ADD ADD DUP2 DUP2 MSTORE POP POP PUSH1 0x0 DUP4 DUP3 DUP2 MLOAD DUP2 LT PUSH2 0x141C JUMPI PUSH2 0x141C PUSH2 0x4650 JUMP JUMPDEST PUSH1 0x20 MUL PUSH1 0x20 ADD ADD MLOAD GT PUSH2 0x1471 JUMPI PUSH1 0x40 MLOAD PUSH3 0x461BCD PUSH1 0xE5 SHL DUP2 MSTORE PUSH1 0x20 PUSH1 0x4 DUP3 ADD MSTORE PUSH1 0x1C PUSH1 0x24 DUP3 ADD MSTORE PUSH32 0x426173696320656C656D656E742069642063616E6E6F74206265203000000000 PUSH1 0x44 DUP3 ADD MSTORE PUSH1 0x64 ADD PUSH2 0x902 JUMP JUMPDEST PUSH1 0x1 DUP3 DUP3 DUP2 MLOAD DUP2 LT PUSH2 0x1485 JUMPI PUSH2 0x1485 PUSH2 0x4650 JUMP JUMPDEST PUSH1 0x20 SWAP1 DUP2 MUL SWAP2 SWAP1 SWAP2 ADD ADD MSTORE PUSH2 0x149C PUSH2 0x2710 DUP10 PUSH2 0x442E JUMP JUMPDEST SWAP8 POP DUP1 PUSH2 0x14A8 DUP2 PUSH2 0x45DF JUMP JUMPDEST SWAP2 POP POP PUSH2 0x13D6 JUMP JUMPDEST POP PUSH2 0x14BD CALLER DUP4 DUP4 DUP10 PUSH2 0x245B JUMP JUMPDEST PUSH1 0x40 DUP1 MLOAD CALLER DUP2 MSTORE PUSH1 0x20 DUP2 ADD DUP8 SWAP1 MSTORE PUSH32 0xE1665329182BC1DAB50C9B04EA6BD37107B73ED7C585951D808B02CD9B659627 SWAP2 ADD PUSH1 0x40 MLOAD DUP1 SWAP2 SUB SWAP1 LOG1 POP POP PUSH1 0x1 PUSH1 0x7 SSTORE POP POP POP POP POP JUMP JUMPDEST PUSH2 0x150C PUSH2 0x26E3 JUMP JUMPDEST PUSH1 0x1 PUSH1 0x1 PUSH1 0xA0 SHL SUB AND DUP6 PUSH1 0x1 PUSH1 0x1 PUSH1 0xA0 SHL SUB AND EQ DUP1 PUSH2 0x1532 JUMPI POP PUSH2 0x1532 DUP6 PUSH2 0x836 PUSH2 0x26E3 JUMP JUMPDEST PUSH2 0x154E JUMPI PUSH1 0x40 MLOAD PUSH3 0x461BCD PUSH1 0xE5 SHL DUP2 MSTORE PUSH1 0x4 ADD PUSH2 0x902 SWAP1 PUSH2 0x413B JUMP JUMPDEST PUSH2 0x155B DUP6 DUP6 DUP6 DUP6 DUP6 PUSH2 0x26F2 JUMP JUMPDEST POP POP POP POP POP JUMP JUMPDEST PUSH2 0x156A PUSH2 0x2204 JUMP JUMPDEST DUP1 MLOAD PUSH2 0x1100 SWAP1 PUSH1 0x8 SWAP1 PUSH1 0x20 DUP5 ADD SWAP1 PUSH2 0x36CD JUMP JUMPDEST PUSH2 0x1585 PUSH2 0x2204 JUMP JUMPDEST PUSH1 0x2 PUSH1 0x7 SLOAD EQ ISZERO PUSH2 0x15A8 JUMPI PUSH1 0x40 MLOAD PUSH3 0x461BCD PUSH1 0xE5 SHL DUP2 MSTORE PUSH1 0x4 ADD PUSH2 0x902 SWAP1 PUSH2 0x43BC JUMP JUMPDEST PUSH1 0x2 PUSH1 0x7 SSTORE PUSH2 0x15B6 DUP2 PUSH2 0x28A7 JUMP JUMPDEST POP PUSH1 0x1 PUSH1 0x7 SSTORE JUMP JUMPDEST PUSH1 0x60 PUSH1 0x8 DUP1 SLOAD PUSH2 0x15CD SWAP1 PUSH2 0x4578 JUMP JUMPDEST DUP1 PUSH1 0x1F ADD PUSH1 0x20 DUP1 SWAP2 DIV MUL PUSH1 0x20 ADD PUSH1 0x40 MLOAD SWAP1 DUP2 ADD PUSH1 0x40 MSTORE DUP1 SWAP3 SWAP2 SWAP1 DUP2 DUP2 MSTORE PUSH1 0x20 ADD DUP3 DUP1 SLOAD PUSH2 0x15F9 SWAP1 PUSH2 0x4578 JUMP JUMPDEST DUP1 ISZERO PUSH2 0x1646 JUMPI DUP1 PUSH1 0x1F LT PUSH2 0x161B JUMPI PUSH2 0x100 DUP1 DUP4 SLOAD DIV MUL DUP4 MSTORE SWAP2 PUSH1 0x20 ADD SWAP2 PUSH2 0x1646 JUMP JUMPDEST DUP3 ADD SWAP2 SWAP1 PUSH1 0x0 MSTORE PUSH1 0x20 PUSH1 0x0 KECCAK256 SWAP1 JUMPDEST DUP2 SLOAD DUP2 MSTORE SWAP1 PUSH1 0x1 ADD SWAP1 PUSH1 0x20 ADD DUP1 DUP4 GT PUSH2 0x1629 JUMPI DUP3 SWAP1 SUB PUSH1 0x1F AND DUP3 ADD SWAP2 JUMPDEST POP POP POP POP POP SWAP1 POP SWAP1 JUMP JUMPDEST PUSH2 0x1658 PUSH2 0x2204 JUMP JUMPDEST PUSH2 0x1660 PUSH2 0x291E JUMP JUMPDEST JUMP JUMPDEST PUSH2 0x166A PUSH2 0x2204 JUMP JUMPDEST PUSH1 0x9 SSTORE JUMP JUMPDEST PUSH1 0x60 DUP2 MLOAD DUP4 MLOAD EQ PUSH2 0x16D4 JUMPI PUSH1 0x40 MLOAD PUSH3 0x461BCD PUSH1 0xE5 SHL DUP2 MSTORE PUSH1 0x20 PUSH1 0x4 DUP3 ADD MSTORE PUSH1 0x29 PUSH1 0x24 DUP3 ADD MSTORE PUSH32 0x455243313135353A206163636F756E747320616E6420696473206C656E677468 PUSH1 0x44 DUP3 ADD MSTORE PUSH9 0x40DAD2E6DAC2E8C6D PUSH1 0xBB SHL PUSH1 0x64 DUP3 ADD MSTORE PUSH1 0x84 ADD PUSH2 0x902 JUMP JUMPDEST PUSH1 0x0 DUP4 MLOAD PUSH1 0x1 PUSH1 0x1 PUSH1 0x40 SHL SUB DUP2 GT ISZERO PUSH2 0x16EF JUMPI PUSH2 0x16EF PUSH2 0x4666 JUMP JUMPDEST PUSH1 0x40 MLOAD SWAP1 DUP1 DUP3 MSTORE DUP1 PUSH1 0x20 MUL PUSH1 0x20 ADD DUP3 ADD PUSH1 0x40 MSTORE DUP1 ISZERO PUSH2 0x1718 JUMPI DUP2 PUSH1 0x20 ADD PUSH1 0x20 DUP3 MUL DUP1 CALLDATASIZE DUP4 CALLDATACOPY ADD SWAP1 POP JUMPDEST POP SWAP1 POP PUSH1 0x0 JUMPDEST DUP5 MLOAD DUP2 LT ISZERO PUSH2 0x1790 JUMPI PUSH2 0x1763 DUP6 DUP3 DUP2 MLOAD DUP2 LT PUSH2 0x173C JUMPI PUSH2 0x173C PUSH2 0x4650 JUMP JUMPDEST PUSH1 0x20 MUL PUSH1 0x20 ADD ADD MLOAD DUP6 DUP4 DUP2 MLOAD DUP2 LT PUSH2 0x1756 JUMPI PUSH2 0x1756 PUSH2 0x4650 JUMP JUMPDEST PUSH1 0x20 MUL PUSH1 0x20 ADD ADD MLOAD PUSH2 0x89B JUMP JUMPDEST DUP3 DUP3 DUP2 MLOAD DUP2 LT PUSH2 0x1775 JUMPI PUSH2 0x1775 PUSH2 0x4650 JUMP JUMPDEST PUSH1 0x20 SWAP1 DUP2 MUL SWAP2 SWAP1 SWAP2 ADD ADD MSTORE PUSH2 0x1789 DUP2 PUSH2 0x45DF JUMP JUMPDEST SWAP1 POP PUSH2 0x171E JUMP JUMPDEST POP SWAP4 SWAP3 POP POP POP JUMP JUMPDEST PUSH2 0x17A0 PUSH2 0x2204 JUMP JUMPDEST PUSH1 0xD DUP1 SLOAD PUSH1 0xFF NOT AND SWAP1 SSTORE JUMP JUMPDEST PUSH2 0x17B4 PUSH2 0x2204 JUMP JUMPDEST DUP1 PUSH32 0xA109BA539900BF1B633F956D63C96FC89B814C7287F7AA50A9216D0B55657207 DUP4 PUSH1 0x40 MLOAD PUSH2 0x17E4 SWAP2 SWAP1 PUSH2 0x4128 JUMP JUMPDEST PUSH1 0x40 MLOAD DUP1 SWAP2 SUB SWAP1 LOG2 POP POP JUMP JUMPDEST PUSH2 0x17F8 PUSH2 0x26E3 JUMP JUMPDEST PUSH1 0x1 PUSH1 0x1 PUSH1 0xA0 SHL SUB AND DUP4 PUSH1 0x1 PUSH1 0x1 PUSH1 0xA0 SHL SUB AND EQ DUP1 PUSH2 0x181E JUMPI POP PUSH2 0x181E DUP4 PUSH2 0x836 PUSH2 0x26E3 JUMP JUMPDEST PUSH2 0x183A JUMPI PUSH1 0x40 MLOAD PUSH3 0x461BCD PUSH1 0xE5 SHL DUP2 MSTORE PUSH1 0x4 ADD PUSH2 0x902 SWAP1 PUSH2 0x413B JUMP JUMPDEST PUSH2 0x1845 DUP4 DUP4 DUP4 PUSH2 0x1F6B JUMP JUMPDEST POP POP POP JUMP JUMPDEST PUSH2 0x1852 PUSH2 0x2204 JUMP JUMPDEST PUSH1 0x10 DUP1 SLOAD PUSH1 0x1 PUSH1 0x1 PUSH1 0xA0 SHL SUB NOT AND PUSH1 0x1 PUSH1 0x1 PUSH1 0xA0 SHL SUB SWAP3 SWAP1 SWAP3 AND SWAP2 SWAP1 SWAP2 OR SWAP1 SSTORE JUMP JUMPDEST PUSH2 0x187C PUSH2 0x2204 JUMP JUMPDEST PUSH2 0x1660 PUSH1 0x0 PUSH2 0x2979 JUMP JUMPDEST PUSH2 0x188E PUSH2 0x2204 JUMP JUMPDEST PUSH1 0xB SSTORE JUMP JUMPDEST PUSH2 0x189B PUSH2 0x2204 JUMP JUMPDEST PUSH2 0x1660 PUSH2 0x29CB JUMP JUMPDEST PUSH2 0x18AB PUSH2 0x2204 JUMP JUMPDEST PUSH1 0xD DUP1 SLOAD PUSH1 0x1 PUSH1 0x1 PUSH1 0xA0 SHL SUB SWAP1 SWAP3 AND PUSH2 0x100 MUL PUSH2 0x100 PUSH1 0x1 PUSH1 0xA8 SHL SUB NOT SWAP1 SWAP3 AND SWAP2 SWAP1 SWAP2 OR SWAP1 SSTORE JUMP JUMPDEST PUSH2 0x1100 PUSH2 0x18DE PUSH2 0x26E3 JUMP JUMPDEST DUP4 DUP4 PUSH2 0x2A0F JUMP JUMPDEST PUSH1 0x2 PUSH1 0x7 SLOAD EQ ISZERO PUSH2 0x1908 JUMPI PUSH1 0x40 MLOAD PUSH3 0x461BCD PUSH1 0xE5 SHL DUP2 MSTORE PUSH1 0x4 ADD PUSH2 0x902 SWAP1 PUSH2 0x43BC JUMP JUMPDEST PUSH1 0x2 PUSH1 0x7 SSTORE CALLER ORIGIN EQ PUSH2 0x192C JUMPI PUSH1 0x40 MLOAD PUSH3 0x461BCD PUSH1 0xE5 SHL DUP2 MSTORE PUSH1 0x4 ADD PUSH2 0x902 SWAP1 PUSH2 0x42E8 JUMP JUMPDEST PUSH1 0x9 SLOAD CALLVALUE EQ PUSH2 0x1977 JUMPI PUSH1 0x40 MLOAD PUSH3 0x461BCD PUSH1 0xE5 SHL DUP2 MSTORE PUSH1 0x20 PUSH1 0x4 DUP3 ADD MSTORE PUSH1 0x17 PUSH1 0x24 DUP3 ADD MSTORE PUSH23 0x24B731B7B93932B1BA1022BA3432B91030B6B7BAB73A17 PUSH1 0x49 SHL PUSH1 0x44 DUP3 ADD MSTORE PUSH1 0x64 ADD PUSH2 0x902 JUMP JUMPDEST PUSH1 0xE DUP7 PUSH1 0x40 MLOAD PUSH2 0x1987 SWAP2 SWAP1 PUSH2 0x3F54 JUMP JUMPDEST SWAP1 DUP2 MSTORE PUSH1 0x20 ADD PUSH1 0x40 MLOAD DUP1 SWAP2 SUB SWAP1 KECCAK256 SLOAD PUSH1 0x1 PUSH2 0x19A2 SWAP2 SWAP1 PUSH2 0x4416 JUMP JUMPDEST DUP6 LT ISZERO PUSH2 0x19E6 JUMPI PUSH1 0x40 MLOAD PUSH3 0x461BCD PUSH1 0xE5 SHL DUP2 MSTORE PUSH1 0x20 PUSH1 0x4 DUP3 ADD MSTORE PUSH1 0x12 PUSH1 0x24 DUP3 ADD MSTORE PUSH18 0x2BA6103634B6B4BA1032BC31B2B2B232B217 PUSH1 0x71 SHL PUSH1 0x44 DUP3 ADD MSTORE PUSH1 0x64 ADD PUSH2 0x902 JUMP JUMPDEST PUSH1 0x1 PUSH1 0xF DUP5 PUSH1 0x40 MLOAD PUSH2 0x19F8 SWAP2 SWAP1 PUSH2 0x3F54 JUMP JUMPDEST SWAP1 DUP2 MSTORE PUSH1 0x20 ADD PUSH1 0x40 MLOAD DUP1 SWAP2 SUB SWAP1 KECCAK256 SLOAD PUSH1 0x1 PUSH2 0x1A13 SWAP2 SWAP1 PUSH2 0x4416 JUMP JUMPDEST GT ISZERO PUSH2 0x1A61 JUMPI PUSH1 0x40 MLOAD PUSH3 0x461BCD PUSH1 0xE5 SHL DUP2 MSTORE PUSH1 0x20 PUSH1 0x4 DUP3 ADD MSTORE PUSH1 0x1B PUSH1 0x24 DUP3 ADD MSTORE PUSH32 0x52616E646F6D206E756D62657220616C726561647920757365642E0000000000 PUSH1 0x44 DUP3 ADD MSTORE PUSH1 0x64 ADD PUSH2 0x902 JUMP JUMPDEST PUSH1 0x0 DUP3 GT PUSH2 0x1AA2 JUMPI PUSH1 0x40 MLOAD PUSH3 0x461BCD PUSH1 0xE5 SHL DUP2 MSTORE PUSH1 0x20 PUSH1 0x4 DUP3 ADD MSTORE PUSH1 0xE PUSH1 0x24 DUP3 ADD MSTORE PUSH14 0x49642063616E6E6F74206265203 PUSH1 0x94 SHL PUSH1 0x44 DUP3 ADD MSTORE PUSH1 0x64 ADD PUSH2 0x902 JUMP JUMPDEST PUSH1 0x10 SLOAD PUSH1 0x1 PUSH1 0x1 PUSH1 0xA0 SHL SUB AND PUSH2 0x1ABA DUP8 DUP8 CALLER DUP9 PUSH2 0x236F JUMP JUMPDEST PUSH1 0x1 PUSH1 0x1 PUSH1 0xA0 SHL SUB AND EQ PUSH2 0x1B10 JUMPI PUSH1 0x40 MLOAD PUSH3 0x461BCD PUSH1 0xE5 SHL DUP2 MSTORE PUSH1 0x20 PUSH1 0x4 DUP3 ADD MSTORE PUSH1 0x19 PUSH1 0x24 DUP3 ADD MSTORE PUSH32 0x57686974656C69737420766F756368657220696E76616C696400000000000000 PUSH1 0x44 DUP3 ADD MSTORE PUSH1 0x64 ADD PUSH2 0x902 JUMP JUMPDEST PUSH1 0x11 SLOAD PUSH1 0x1 PUSH1 0x1 PUSH1 0xA0 SHL SUB AND PUSH2 0x1B28 DUP5 DUP5 CALLER DUP6 PUSH2 0x236F JUMP JUMPDEST PUSH1 0x1 PUSH1 0x1 PUSH1 0xA0 SHL SUB AND EQ PUSH2 0x1B76 JUMPI PUSH1 0x40 MLOAD PUSH3 0x461BCD PUSH1 0xE5 SHL DUP2 MSTORE PUSH1 0x20 PUSH1 0x4 DUP3 ADD MSTORE PUSH1 0x15 PUSH1 0x24 DUP3 ADD MSTORE PUSH21 0x14985B991BDB481B9D5B58995C881A5B9D985B1A59 PUSH1 0x5A SHL PUSH1 0x44 DUP3 ADD MSTORE PUSH1 0x64 ADD PUSH2 0x902 JUMP JUMPDEST PUSH1 0xB SLOAD PUSH1 0xC SLOAD PUSH2 0x1B87 SWAP1 PUSH1 0x1 PUSH2 0x4416 JUMP JUMPDEST GT ISZERO DUP1 PUSH2 0x1B9E JUMPI POP PUSH1 0x3 SLOAD PUSH1 0x1 PUSH1 0x1 PUSH1 0xA0 SHL SUB AND CALLER EQ JUMPDEST PUSH2 0x1BD5 JUMPI PUSH1 0x40 MLOAD PUSH3 0x461BCD PUSH1 0xE5 SHL DUP2 MSTORE PUSH1 0x20 PUSH1 0x4 DUP3 ADD MSTORE PUSH1 0x8 PUSH1 0x24 DUP3 ADD MSTORE PUSH8 0x1CDBDB19081BDD5D PUSH1 0xC2 SHL PUSH1 0x44 DUP3 ADD MSTORE PUSH1 0x64 ADD PUSH2 0x902 JUMP JUMPDEST PUSH2 0x1BFE CALLER DUP4 PUSH1 0x1 PUSH1 0x40 MLOAD DUP1 PUSH1 0x40 ADD PUSH1 0x40 MSTORE DUP1 PUSH1 0x4 DUP2 MSTORE PUSH1 0x20 ADD PUSH4 0x3078303 PUSH1 0xE4 SHL DUP2 MSTORE POP PUSH2 0x2110 JUMP JUMPDEST PUSH1 0x40 DUP1 MLOAD CALLER DUP2 MSTORE PUSH1 0x20 DUP2 ADD DUP5 SWAP1 MSTORE PUSH1 0x1 DUP2 DUP4 ADD MSTORE SWAP1 MLOAD PUSH32 0xB2557F57D8AB076A9CB57485A4361CD3C326587964505F7BA4F11BB095DC43B9 SWAP2 DUP2 SWAP1 SUB PUSH1 0x60 ADD SWAP1 LOG1 PUSH1 0x1 PUSH1 0xE DUP8 PUSH1 0x40 MLOAD PUSH2 0x1C50 SWAP2 SWAP1 PUSH2 0x3F54 JUMP JUMPDEST SWAP1 DUP2 MSTORE PUSH1 0x20 ADD PUSH1 0x40 MLOAD DUP1 SWAP2 SUB SWAP1 KECCAK256 PUSH1 0x0 DUP3 DUP3 SLOAD PUSH2 0x1C6D SWAP2 SWAP1 PUSH2 0x4416 JUMP JUMPDEST SWAP3 POP POP DUP2 SWAP1 SSTORE POP PUSH1 0x1 PUSH1 0xF DUP5 PUSH1 0x40 MLOAD PUSH2 0x1C86 SWAP2 SWAP1 PUSH2 0x3F54 JUMP JUMPDEST SWAP1 DUP2 MSTORE PUSH1 0x20 ADD PUSH1 0x40 MLOAD DUP1 SWAP2 SUB SWAP1 KECCAK256 PUSH1 0x0 DUP3 DUP3 SLOAD PUSH2 0x1CA3 SWAP2 SWAP1 PUSH2 0x4416 JUMP JUMPDEST SWAP3 POP POP DUP2 SWAP1 SSTORE POP PUSH1 0x1 PUSH1 0xC PUSH1 0x0 DUP3 DUP3 SLOAD PUSH2 0x1CBD SWAP2 SWAP1 PUSH2 0x4416 JUMP JUMPDEST SWAP1 SWAP2 SSTORE POP POP PUSH1 0x1 PUSH1 0x7 SSTORE POP POP POP POP POP POP JUMP JUMPDEST PUSH2 0x1CD7 PUSH2 0x2204 JUMP JUMPDEST PUSH1 0xD DUP1 SLOAD PUSH1 0xFF NOT AND PUSH1 0x1 OR SWAP1 SSTORE JUMP JUMPDEST PUSH2 0x1CEE PUSH2 0x2204 JUMP JUMPDEST PUSH2 0x1100 DUP3 DUP3 PUSH2 0x2AF0 JUMP JUMPDEST PUSH1 0x40 MLOAD PUSH4 0x71D4ED8D PUSH1 0xE1 SHL DUP2 MSTORE PUSH1 0x1 PUSH1 0x1 PUSH1 0xA0 SHL SUB DUP3 DUP2 AND PUSH1 0x4 DUP4 ADD MSTORE PUSH1 0x0 SWAP2 PUSH32 0x0 SWAP1 SWAP2 AND SWAP1 PUSH4 0xE3A9DB1A SWAP1 PUSH1 0x24 ADD PUSH1 0x20 PUSH1 0x40 MLOAD DUP1 DUP4 SUB DUP2 DUP7 DUP1 EXTCODESIZE ISZERO DUP1 ISZERO PUSH2 0x1D5E JUMPI PUSH1 0x0 DUP1 REVERT JUMPDEST POP GAS STATICCALL ISZERO DUP1 ISZERO PUSH2 0x1D72 JUMPI RETURNDATASIZE PUSH1 0x0 DUP1 RETURNDATACOPY RETURNDATASIZE PUSH1 0x0 REVERT JUMPDEST POP POP POP POP PUSH1 0x40 MLOAD RETURNDATASIZE PUSH1 0x1F NOT PUSH1 0x1F DUP3 ADD AND DUP3 ADD DUP1 PUSH1 0x40 MSTORE POP DUP2 ADD SWAP1 PUSH2 0x92E SWAP2 SWAP1 PUSH2 0x3E7C JUMP JUMPDEST PUSH1 0xD SLOAD PUSH1 0x0 SWAP1 PUSH1 0x1 PUSH1 0x1 PUSH1 0xA0 SHL SUB DUP4 DUP2 AND PUSH2 0x100 SWAP1 SWAP3 DIV AND EQ ISZERO PUSH2 0x1DBC JUMPI POP PUSH1 0x1 PUSH2 0x92E JUMP JUMPDEST PUSH1 0x1 PUSH1 0x1 PUSH1 0xA0 SHL SUB DUP1 DUP5 AND PUSH1 0x0 SWAP1 DUP2 MSTORE PUSH1 0x1 PUSH1 0x20 SWAP1 DUP2 MSTORE PUSH1 0x40 DUP1 DUP4 KECCAK256 SWAP4 DUP7 AND DUP4 MSTORE SWAP3 SWAP1 MSTORE KECCAK256 SLOAD PUSH1 0xFF AND JUMPDEST SWAP4 SWAP3 POP POP POP JUMP JUMPDEST PUSH2 0x1DF5 PUSH2 0x26E3 JUMP JUMPDEST PUSH1 0x1 PUSH1 0x1 PUSH1 0xA0 SHL SUB AND DUP6 PUSH1 0x1 PUSH1 0x1 PUSH1 0xA0 SHL SUB AND EQ DUP1 PUSH2 0x1E1B JUMPI POP PUSH2 0x1E1B DUP6 PUSH2 0x836 PUSH2 0x26E3 JUMP JUMPDEST PUSH2 0x1E37 JUMPI PUSH1 0x40 MLOAD PUSH3 0x461BCD PUSH1 0xE5 SHL DUP2 MSTORE PUSH1 0x4 ADD PUSH2 0x902 SWAP1 PUSH2 0x413B JUMP JUMPDEST PUSH2 0x155B DUP6 DUP6 DUP6 DUP6 DUP6 PUSH2 0x2B68 JUMP JUMPDEST PUSH2 0x1E4C PUSH2 0x2204 JUMP JUMPDEST PUSH1 0x1 PUSH1 0x1 PUSH1 0xA0 SHL SUB DUP2 AND PUSH2 0x1EB1 JUMPI PUSH1 0x40 MLOAD PUSH3 0x461BCD PUSH1 0xE5 SHL DUP2 MSTORE PUSH1 0x20 PUSH1 0x4 DUP3 ADD MSTORE PUSH1 0x26 PUSH1 0x24 DUP3 ADD MSTORE PUSH32 0x4F776E61626C653A206E6577206F776E657220697320746865207A65726F2061 PUSH1 0x44 DUP3 ADD MSTORE PUSH6 0x646472657373 PUSH1 0xD0 SHL PUSH1 0x64 DUP3 ADD MSTORE PUSH1 0x84 ADD PUSH2 0x902 JUMP JUMPDEST PUSH2 0xD3F DUP2 PUSH2 0x2979 JUMP JUMPDEST PUSH2 0x1EC2 PUSH2 0x26E3 JUMP JUMPDEST PUSH1 0x1 PUSH1 0x1 PUSH1 0xA0 SHL SUB AND DUP4 PUSH1 0x1 PUSH1 0x1 PUSH1 0xA0 SHL SUB AND EQ DUP1 PUSH2 0x1EE8 JUMPI POP PUSH2 0x1EE8 DUP4 PUSH2 0x836 PUSH2 0x26E3 JUMP JUMPDEST PUSH2 0x1F04 JUMPI PUSH1 0x40 MLOAD PUSH3 0x461BCD PUSH1 0xE5 SHL DUP2 MSTORE PUSH1 0x4 ADD PUSH2 0x902 SWAP1 PUSH2 0x413B JUMP JUMPDEST PUSH2 0x1845 DUP4 DUP4 DUP4 PUSH2 0x25C0 JUMP JUMPDEST PUSH1 0x0 CALLER ADDRESS EQ ISZERO PUSH2 0x1F66 JUMPI PUSH1 0x0 DUP1 CALLDATASIZE DUP1 DUP1 PUSH1 0x1F ADD PUSH1 0x20 DUP1 SWAP2 DIV MUL PUSH1 0x20 ADD PUSH1 0x40 MLOAD SWAP1 DUP2 ADD PUSH1 0x40 MSTORE DUP1 SWAP4 SWAP3 SWAP2 SWAP1 DUP2 DUP2 MSTORE PUSH1 0x20 ADD DUP4 DUP4 DUP1 DUP3 DUP5 CALLDATACOPY PUSH1 0x0 SWAP3 ADD SWAP2 SWAP1 SWAP2 MSTORE POP POP POP POP CALLDATASIZE ADD MLOAD PUSH1 0x1 PUSH1 0x1 PUSH1 0xA0 SHL SUB AND SWAP2 POP PUSH2 0xD61 SWAP1 POP JUMP JUMPDEST POP CALLER SWAP1 JUMP JUMPDEST PUSH1 0x1 PUSH1 0x1 PUSH1 0xA0 SHL SUB DUP4 AND PUSH2 0x1F91 JUMPI PUSH1 0x40 MLOAD PUSH3 0x461BCD PUSH1 0xE5 SHL DUP2 MSTORE PUSH1 0x4 ADD PUSH2 0x902 SWAP1 PUSH2 0x425B JUMP JUMPDEST DUP1 MLOAD DUP3 MLOAD EQ PUSH2 0x1FB2 JUMPI PUSH1 0x40 MLOAD PUSH3 0x461BCD PUSH1 0xE5 SHL DUP2 MSTORE PUSH1 0x4 ADD PUSH2 0x902 SWAP1 PUSH2 0x4333 JUMP JUMPDEST PUSH1 0x0 PUSH2 0x1FBC PUSH2 0x26E3 JUMP JUMPDEST SWAP1 POP PUSH2 0x1FDC DUP2 DUP6 PUSH1 0x0 DUP7 DUP7 PUSH1 0x40 MLOAD DUP1 PUSH1 0x20 ADD PUSH1 0x40 MSTORE DUP1 PUSH1 0x0 DUP2 MSTORE POP PUSH2 0x2CAB JUMP JUMPDEST PUSH1 0x0 JUMPDEST DUP4 MLOAD DUP2 LT ISZERO PUSH2 0x20A1 JUMPI PUSH1 0x0 DUP5 DUP3 DUP2 MLOAD DUP2 LT PUSH2 0x1FFC JUMPI PUSH2 0x1FFC PUSH2 0x4650 JUMP JUMPDEST PUSH1 0x20 MUL PUSH1 0x20 ADD ADD MLOAD SWAP1 POP PUSH1 0x0 DUP5 DUP4 DUP2 MLOAD DUP2 LT PUSH2 0x201A JUMPI PUSH2 0x201A PUSH2 0x4650 JUMP JUMPDEST PUSH1 0x20 SWAP1 DUP2 MUL SWAP2 SWAP1 SWAP2 ADD DUP2 ADD MLOAD PUSH1 0x0 DUP5 DUP2 MSTORE DUP1 DUP4 MSTORE PUSH1 0x40 DUP1 DUP3 KECCAK256 PUSH1 0x1 PUSH1 0x1 PUSH1 0xA0 SHL SUB DUP13 AND DUP4 MSTORE SWAP1 SWAP4 MSTORE SWAP2 SWAP1 SWAP2 KECCAK256 SLOAD SWAP1 SWAP2 POP DUP2 DUP2 LT ISZERO PUSH2 0x206A JUMPI PUSH1 0x40 MLOAD PUSH3 0x461BCD PUSH1 0xE5 SHL DUP2 MSTORE PUSH1 0x4 ADD PUSH2 0x902 SWAP1 PUSH2 0x41D2 JUMP JUMPDEST PUSH1 0x0 SWAP3 DUP4 MSTORE PUSH1 0x20 DUP4 DUP2 MSTORE PUSH1 0x40 DUP1 DUP6 KECCAK256 PUSH1 0x1 PUSH1 0x1 PUSH1 0xA0 SHL SUB DUP12 AND DUP7 MSTORE SWAP1 SWAP2 MSTORE SWAP1 SWAP3 KECCAK256 SWAP2 SUB SWAP1 SSTORE DUP1 PUSH2 0x2099 DUP2 PUSH2 0x45DF JUMP JUMPDEST SWAP2 POP POP PUSH2 0x1FDF JUMP JUMPDEST POP PUSH1 0x0 PUSH1 0x1 PUSH1 0x1 PUSH1 0xA0 SHL SUB AND DUP5 PUSH1 0x1 PUSH1 0x1 PUSH1 0xA0 SHL SUB AND DUP3 PUSH1 0x1 PUSH1 0x1 PUSH1 0xA0 SHL SUB AND PUSH32 0x4A39DC06D4C0DBC64B70AF90FD698A233A518AA5D07E595D983B8C0526C8F7FB DUP7 DUP7 PUSH1 0x40 MLOAD PUSH2 0x20F2 SWAP3 SWAP2 SWAP1 PUSH2 0x4103 JUMP JUMPDEST PUSH1 0x40 MLOAD DUP1 SWAP2 SUB SWAP1 LOG4 PUSH1 0x40 DUP1 MLOAD PUSH1 0x20 DUP2 ADD SWAP1 SWAP2 MSTORE PUSH1 0x0 SWAP1 MSTORE JUMPDEST POP POP POP POP JUMP JUMPDEST PUSH1 0x1 PUSH1 0x1 PUSH1 0xA0 SHL SUB DUP5 AND PUSH2 0x2136 JUMPI PUSH1 0x40 MLOAD PUSH3 0x461BCD PUSH1 0xE5 SHL DUP2 MSTORE PUSH1 0x4 ADD PUSH2 0x902 SWAP1 PUSH2 0x437B JUMP JUMPDEST PUSH1 0x0 PUSH2 0x2140 PUSH2 0x26E3 JUMP JUMPDEST SWAP1 POP PUSH1 0x0 PUSH2 0x214D DUP6 PUSH2 0x2CC1 JUMP JUMPDEST SWAP1 POP PUSH1 0x0 PUSH2 0x215A DUP6 PUSH2 0x2CC1 JUMP JUMPDEST SWAP1 POP PUSH2 0x216B DUP4 PUSH1 0x0 DUP10 DUP6 DUP6 DUP10 PUSH2 0x2CAB JUMP JUMPDEST PUSH1 0x0 DUP7 DUP2 MSTORE PUSH1 0x20 DUP2 DUP2 MSTORE PUSH1 0x40 DUP1 DUP4 KECCAK256 PUSH1 0x1 PUSH1 0x1 PUSH1 0xA0 SHL SUB DUP12 AND DUP5 MSTORE SWAP1 SWAP2 MSTORE DUP2 KECCAK256 DUP1 SLOAD DUP8 SWAP3 SWAP1 PUSH2 0x219B SWAP1 DUP5 SWAP1 PUSH2 0x4416 JUMP JUMPDEST SWAP1 SWAP2 SSTORE POP POP PUSH1 0x40 DUP1 MLOAD DUP8 DUP2 MSTORE PUSH1 0x20 DUP2 ADD DUP8 SWAP1 MSTORE PUSH1 0x1 PUSH1 0x1 PUSH1 0xA0 SHL SUB DUP1 DUP11 AND SWAP3 PUSH1 0x0 SWAP3 SWAP2 DUP8 AND SWAP2 PUSH32 0xC3D58168C5AE7397731D063D5BBF3D657854427343F4C083240F7AACAA2D0F62 SWAP2 ADD PUSH1 0x40 MLOAD DUP1 SWAP2 SUB SWAP1 LOG4 PUSH2 0x21FB DUP4 PUSH1 0x0 DUP10 DUP10 DUP10 DUP10 PUSH2 0x2D0C JUMP JUMPDEST POP POP POP POP POP POP POP JUMP JUMPDEST PUSH2 0x220C PUSH2 0x26E3 JUMP JUMPDEST PUSH1 0x1 PUSH1 0x1 PUSH1 0xA0 SHL SUB AND PUSH2 0x2227 PUSH1 0x3 SLOAD PUSH1 0x1 PUSH1 0x1 PUSH1 0xA0 SHL SUB AND SWAP1 JUMP JUMPDEST PUSH1 0x1 PUSH1 0x1 PUSH1 0xA0 SHL SUB AND EQ PUSH2 0x1660 JUMPI PUSH1 0x40 MLOAD PUSH3 0x461BCD PUSH1 0xE5 SHL DUP2 MSTORE PUSH1 0x20 PUSH1 0x4 DUP3 ADD DUP2 SWAP1 MSTORE PUSH1 0x24 DUP3 ADD MSTORE PUSH32 0x4F776E61626C653A2063616C6C6572206973206E6F7420746865206F776E6572 PUSH1 0x44 DUP3 ADD MSTORE PUSH1 0x64 ADD PUSH2 0x902 JUMP JUMPDEST DUP1 MLOAD PUSH2 0x1100 SWAP1 PUSH1 0x2 SWAP1 PUSH1 0x20 DUP5 ADD SWAP1 PUSH2 0x36CD JUMP JUMPDEST PUSH1 0x0 DUP2 DUP2 MSTORE PUSH1 0x6 PUSH1 0x20 MSTORE PUSH1 0x40 DUP2 KECCAK256 DUP1 SLOAD PUSH1 0x60 SWAP3 SWAP2 SWAP1 PUSH2 0x22AE SWAP1 PUSH2 0x4578 JUMP JUMPDEST DUP1 PUSH1 0x1F ADD PUSH1 0x20 DUP1 SWAP2 DIV MUL PUSH1 0x20 ADD PUSH1 0x40 MLOAD SWAP1 DUP2 ADD PUSH1 0x40 MSTORE DUP1 SWAP3 SWAP2 SWAP1 DUP2 DUP2 MSTORE PUSH1 0x20 ADD DUP3 DUP1 SLOAD PUSH2 0x22DA SWAP1 PUSH2 0x4578 JUMP JUMPDEST DUP1 ISZERO PUSH2 0x2327 JUMPI DUP1 PUSH1 0x1F LT PUSH2 0x22FC JUMPI PUSH2 0x100 DUP1 DUP4 SLOAD DIV MUL DUP4 MSTORE SWAP2 PUSH1 0x20 ADD SWAP2 PUSH2 0x2327 JUMP JUMPDEST DUP3 ADD SWAP2 SWAP1 PUSH1 0x0 MSTORE PUSH1 0x20 PUSH1 0x0 KECCAK256 SWAP1 JUMPDEST DUP2 SLOAD DUP2 MSTORE SWAP1 PUSH1 0x1 ADD SWAP1 PUSH1 0x20 ADD DUP1 DUP4 GT PUSH2 0x230A JUMPI DUP3 SWAP1 SUB PUSH1 0x1F AND DUP3 ADD SWAP2 JUMPDEST POP POP POP POP POP SWAP1 POP PUSH1 0x0 DUP2 MLOAD GT PUSH2 0x2345 JUMPI PUSH2 0x2340 DUP4 PUSH2 0x2E77 JUMP JUMPDEST PUSH2 0x1DE6 JUMP JUMPDEST PUSH1 0x5 DUP2 PUSH1 0x40 MLOAD PUSH1 0x20 ADD PUSH2 0x2359 SWAP3 SWAP2 SWAP1 PUSH2 0x3F70 JUMP JUMPDEST PUSH1 0x40 MLOAD PUSH1 0x20 DUP2 DUP4 SUB SUB DUP2 MSTORE SWAP1 PUSH1 0x40 MSTORE SWAP4 SWAP3 POP POP POP JUMP JUMPDEST PUSH1 0x0 DUP1 PUSH2 0x23ED PUSH32 0x5CDACE2705C38F69FB87D5D5667CDB01F9773E1C4D1B6E89CE75A545B06A1071 DUP8 DUP1 MLOAD SWAP1 PUSH1 0x20 ADD KECCAK256 DUP8 DUP8 PUSH1 0x40 MLOAD PUSH1 0x20 ADD PUSH2 0x23D2 SWAP5 SWAP4 SWAP3 SWAP2 SWAP1 SWAP4 DUP5 MSTORE PUSH1 0x20 DUP5 ADD SWAP3 SWAP1 SWAP3 MSTORE PUSH1 0x40 DUP4 ADD MSTORE PUSH1 0x1 PUSH1 0x1 PUSH1 0xA0 SHL SUB AND PUSH1 0x60 DUP3 ADD MSTORE PUSH1 0x80 ADD SWAP1 JUMP JUMPDEST PUSH1 0x40 MLOAD PUSH1 0x20 DUP2 DUP4 SUB SUB DUP2 MSTORE SWAP1 PUSH1 0x40 MSTORE DUP1 MLOAD SWAP1 PUSH1 0x20 ADD KECCAK256 PUSH2 0x2F0B JUMP JUMPDEST SWAP1 POP PUSH2 0x23F9 DUP2 DUP5 PUSH2 0x2F59 JUMP JUMPDEST SWAP7 SWAP6 POP POP POP POP POP POP JUMP JUMPDEST PUSH1 0x0 DUP3 DUP2 MSTORE PUSH1 0x6 PUSH1 0x20 SWAP1 DUP2 MSTORE PUSH1 0x40 SWAP1 SWAP2 KECCAK256 DUP3 MLOAD PUSH2 0x2422 SWAP3 DUP5 ADD SWAP1 PUSH2 0x36CD JUMP JUMPDEST POP DUP2 PUSH32 0x6BB7FF708619BA0610CBA295A58592E0451DEE2622938C8755667688DAF3529B PUSH2 0x244E DUP5 PUSH2 0xD71 JUMP JUMPDEST PUSH1 0x40 MLOAD PUSH2 0x17E4 SWAP2 SWAP1 PUSH2 0x4128 JUMP JUMPDEST PUSH1 0x1 PUSH1 0x1 PUSH1 0xA0 SHL SUB DUP5 AND PUSH2 0x2481 JUMPI PUSH1 0x40 MLOAD PUSH3 0x461BCD PUSH1 0xE5 SHL DUP2 MSTORE PUSH1 0x4 ADD PUSH2 0x902 SWAP1 PUSH2 0x437B JUMP JUMPDEST DUP2 MLOAD DUP4 MLOAD EQ PUSH2 0x24A2 JUMPI PUSH1 0x40 MLOAD PUSH3 0x461BCD PUSH1 0xE5 SHL DUP2 MSTORE PUSH1 0x4 ADD PUSH2 0x902 SWAP1 PUSH2 0x4333 JUMP JUMPDEST PUSH1 0x0 PUSH2 0x24AC PUSH2 0x26E3 JUMP JUMPDEST SWAP1 POP PUSH2 0x24BD DUP2 PUSH1 0x0 DUP8 DUP8 DUP8 DUP8 PUSH2 0x2CAB JUMP JUMPDEST PUSH1 0x0 JUMPDEST DUP5 MLOAD DUP2 LT ISZERO PUSH2 0x2558 JUMPI DUP4 DUP2 DUP2 MLOAD DUP2 LT PUSH2 0x24DB JUMPI PUSH2 0x24DB PUSH2 0x4650 JUMP JUMPDEST PUSH1 0x20 MUL PUSH1 0x20 ADD ADD MLOAD PUSH1 0x0 DUP1 DUP8 DUP5 DUP2 MLOAD DUP2 LT PUSH2 0x24F8 JUMPI PUSH2 0x24F8 PUSH2 0x4650 JUMP JUMPDEST PUSH1 0x20 MUL PUSH1 0x20 ADD ADD MLOAD DUP2 MSTORE PUSH1 0x20 ADD SWAP1 DUP2 MSTORE PUSH1 0x20 ADD PUSH1 0x0 KECCAK256 PUSH1 0x0 DUP9 PUSH1 0x1 PUSH1 0x1 PUSH1 0xA0 SHL SUB AND PUSH1 0x1 PUSH1 0x1 PUSH1 0xA0 SHL SUB AND DUP2 MSTORE PUSH1 0x20 ADD SWAP1 DUP2 MSTORE PUSH1 0x20 ADD PUSH1 0x0 KECCAK256 PUSH1 0x0 DUP3 DUP3 SLOAD PUSH2 0x2540 SWAP2 SWAP1 PUSH2 0x4416 JUMP JUMPDEST SWAP1 SWAP2 SSTORE POP DUP2 SWAP1 POP PUSH2 0x2550 DUP2 PUSH2 0x45DF JUMP JUMPDEST SWAP2 POP POP PUSH2 0x24C0 JUMP JUMPDEST POP DUP5 PUSH1 0x1 PUSH1 0x1 PUSH1 0xA0 SHL SUB AND PUSH1 0x0 PUSH1 0x1 PUSH1 0x1 PUSH1 0xA0 SHL SUB AND DUP3 PUSH1 0x1 PUSH1 0x1 PUSH1 0xA0 SHL SUB AND PUSH32 0x4A39DC06D4C0DBC64B70AF90FD698A233A518AA5D07E595D983B8C0526C8F7FB DUP8 DUP8 PUSH1 0x40 MLOAD PUSH2 0x25A9 SWAP3 SWAP2 SWAP1 PUSH2 0x4103 JUMP JUMPDEST PUSH1 0x40 MLOAD DUP1 SWAP2 SUB SWAP1 LOG4 PUSH2 0x155B DUP2 PUSH1 0x0 DUP8 DUP8 DUP8 DUP8 PUSH2 0x2F75 JUMP JUMPDEST PUSH1 0x1 PUSH1 0x1 PUSH1 0xA0 SHL SUB DUP4 AND PUSH2 0x25E6 JUMPI PUSH1 0x40 MLOAD PUSH3 0x461BCD PUSH1 0xE5 SHL DUP2 MSTORE PUSH1 0x4 ADD PUSH2 0x902 SWAP1 PUSH2 0x425B JUMP JUMPDEST PUSH1 0x0 PUSH2 0x25F0 PUSH2 0x26E3 JUMP JUMPDEST SWAP1 POP PUSH1 0x0 PUSH2 0x25FD DUP5 PUSH2 0x2CC1 JUMP JUMPDEST SWAP1 POP PUSH1 0x0 PUSH2 0x260A DUP5 PUSH2 0x2CC1 JUMP JUMPDEST SWAP1 POP PUSH2 0x262A DUP4 DUP8 PUSH1 0x0 DUP6 DUP6 PUSH1 0x40 MLOAD DUP1 PUSH1 0x20 ADD PUSH1 0x40 MSTORE DUP1 PUSH1 0x0 DUP2 MSTORE POP PUSH2 0x2CAB JUMP JUMPDEST PUSH1 0x0 DUP6 DUP2 MSTORE PUSH1 0x20 DUP2 DUP2 MSTORE PUSH1 0x40 DUP1 DUP4 KECCAK256 PUSH1 0x1 PUSH1 0x1 PUSH1 0xA0 SHL SUB DUP11 AND DUP5 MSTORE SWAP1 SWAP2 MSTORE SWAP1 KECCAK256 SLOAD DUP5 DUP2 LT ISZERO PUSH2 0x266B JUMPI PUSH1 0x40 MLOAD PUSH3 0x461BCD PUSH1 0xE5 SHL DUP2 MSTORE PUSH1 0x4 ADD PUSH2 0x902 SWAP1 PUSH2 0x41D2 JUMP JUMPDEST PUSH1 0x0 DUP7 DUP2 MSTORE PUSH1 0x20 DUP2 DUP2 MSTORE PUSH1 0x40 DUP1 DUP4 KECCAK256 PUSH1 0x1 PUSH1 0x1 PUSH1 0xA0 SHL SUB DUP12 DUP2 AND DUP1 DUP7 MSTORE SWAP2 DUP5 MSTORE DUP3 DUP6 KECCAK256 DUP11 DUP8 SUB SWAP1 SSTORE DUP3 MLOAD DUP12 DUP2 MSTORE SWAP4 DUP5 ADD DUP11 SWAP1 MSTORE SWAP1 SWAP3 SWAP1 DUP9 AND SWAP2 PUSH32 0xC3D58168C5AE7397731D063D5BBF3D657854427343F4C083240F7AACAA2D0F62 SWAP2 ADD PUSH1 0x40 MLOAD DUP1 SWAP2 SUB SWAP1 LOG4 PUSH1 0x40 DUP1 MLOAD PUSH1 0x20 DUP2 ADD SWAP1 SWAP2 MSTORE PUSH1 0x0 SWAP1 MSTORE PUSH2 0x21FB JUMP JUMPDEST PUSH1 0x0 PUSH2 0x26ED PUSH2 0x1F0F JUMP JUMPDEST SWAP1 POP SWAP1 JUMP JUMPDEST DUP2 MLOAD DUP4 MLOAD EQ PUSH2 0x2713 JUMPI PUSH1 0x40 MLOAD PUSH3 0x461BCD PUSH1 0xE5 SHL DUP2 MSTORE PUSH1 0x4 ADD PUSH2 0x902 SWAP1 PUSH2 0x4333 JUMP JUMPDEST PUSH1 0x1 PUSH1 0x1 PUSH1 0xA0 SHL SUB DUP5 AND PUSH2 0x2739 JUMPI PUSH1 0x40 MLOAD PUSH3 0x461BCD PUSH1 0xE5 SHL DUP2 MSTORE PUSH1 0x4 ADD PUSH2 0x902 SWAP1 PUSH2 0x4216 JUMP JUMPDEST PUSH1 0x0 PUSH2 0x2743 PUSH2 0x26E3 JUMP JUMPDEST SWAP1 POP PUSH2 0x2753 DUP2 DUP8 DUP8 DUP8 DUP8 DUP8 PUSH2 0x2CAB JUMP JUMPDEST PUSH1 0x0 JUMPDEST DUP5 MLOAD DUP2 LT ISZERO PUSH2 0x2839 JUMPI PUSH1 0x0 DUP6 DUP3 DUP2 MLOAD DUP2 LT PUSH2 0x2773 JUMPI PUSH2 0x2773 PUSH2 0x4650 JUMP JUMPDEST PUSH1 0x20 MUL PUSH1 0x20 ADD ADD MLOAD SWAP1 POP PUSH1 0x0 DUP6 DUP4 DUP2 MLOAD DUP2 LT PUSH2 0x2791 JUMPI PUSH2 0x2791 PUSH2 0x4650 JUMP JUMPDEST PUSH1 0x20 SWAP1 DUP2 MUL SWAP2 SWAP1 SWAP2 ADD DUP2 ADD MLOAD PUSH1 0x0 DUP5 DUP2 MSTORE DUP1 DUP4 MSTORE PUSH1 0x40 DUP1 DUP3 KECCAK256 PUSH1 0x1 PUSH1 0x1 PUSH1 0xA0 SHL SUB DUP15 AND DUP4 MSTORE SWAP1 SWAP4 MSTORE SWAP2 SWAP1 SWAP2 KECCAK256 SLOAD SWAP1 SWAP2 POP DUP2 DUP2 LT ISZERO PUSH2 0x27E1 JUMPI PUSH1 0x40 MLOAD PUSH3 0x461BCD PUSH1 0xE5 SHL DUP2 MSTORE PUSH1 0x4 ADD PUSH2 0x902 SWAP1 PUSH2 0x429E JUMP JUMPDEST PUSH1 0x0 DUP4 DUP2 MSTORE PUSH1 0x20 DUP2 DUP2 MSTORE PUSH1 0x40 DUP1 DUP4 KECCAK256 PUSH1 0x1 PUSH1 0x1 PUSH1 0xA0 SHL SUB DUP15 DUP2 AND DUP6 MSTORE SWAP3 MSTORE DUP1 DUP4 KECCAK256 DUP6 DUP6 SUB SWAP1 SSTORE SWAP1 DUP12 AND DUP3 MSTORE DUP2 KECCAK256 DUP1 SLOAD DUP5 SWAP3 SWAP1 PUSH2 0x281E SWAP1 DUP5 SWAP1 PUSH2 0x4416 JUMP JUMPDEST SWAP3 POP POP DUP2 SWAP1 SSTORE POP POP POP POP DUP1 PUSH2 0x2832 SWAP1 PUSH2 0x45DF JUMP JUMPDEST SWAP1 POP PUSH2 0x2756 JUMP JUMPDEST POP DUP5 PUSH1 0x1 PUSH1 0x1 PUSH1 0xA0 SHL SUB AND DUP7 PUSH1 0x1 PUSH1 0x1 PUSH1 0xA0 SHL SUB AND DUP3 PUSH1 0x1 PUSH1 0x1 PUSH1 0xA0 SHL SUB AND PUSH32 0x4A39DC06D4C0DBC64B70AF90FD698A233A518AA5D07E595D983B8C0526C8F7FB DUP8 DUP8 PUSH1 0x40 MLOAD PUSH2 0x2889 SWAP3 SWAP2 SWAP1 PUSH2 0x4103 JUMP JUMPDEST PUSH1 0x40 MLOAD DUP1 SWAP2 SUB SWAP1 LOG4 PUSH2 0x289F DUP2 DUP8 DUP8 DUP8 DUP8 DUP8 PUSH2 0x2F75 JUMP JUMPDEST POP POP POP POP POP POP JUMP JUMPDEST PUSH1 0x40 MLOAD PUSH4 0x51CFF8D9 PUSH1 0xE0 SHL DUP2 MSTORE PUSH1 0x1 PUSH1 0x1 PUSH1 0xA0 SHL SUB DUP3 DUP2 AND PUSH1 0x4 DUP4 ADD MSTORE PUSH32 0x0 AND SWAP1 PUSH4 0x51CFF8D9 SWAP1 PUSH1 0x24 ADD PUSH1 0x0 PUSH1 0x40 MLOAD DUP1 DUP4 SUB DUP2 PUSH1 0x0 DUP8 DUP1 EXTCODESIZE ISZERO DUP1 ISZERO PUSH2 0x290A JUMPI PUSH1 0x0 DUP1 REVERT JUMPDEST POP GAS CALL ISZERO DUP1 ISZERO PUSH2 0x155B JUMPI RETURNDATASIZE PUSH1 0x0 DUP1 RETURNDATACOPY RETURNDATASIZE PUSH1 0x0 REVERT JUMPDEST PUSH2 0x2926 PUSH2 0x303F JUMP JUMPDEST PUSH1 0x3 DUP1 SLOAD PUSH1 0xFF PUSH1 0xA0 SHL NOT AND SWAP1 SSTORE PUSH32 0x5DB9EE0A495BF2E6FF9C91A7834C1BA4FDD244A5E8AA4E537BD38AEAE4B073AA PUSH2 0x295C PUSH2 0x26E3 JUMP JUMPDEST PUSH1 0x40 MLOAD PUSH1 0x1 PUSH1 0x1 PUSH1 0xA0 SHL SUB SWAP1 SWAP2 AND DUP2 MSTORE PUSH1 0x20 ADD PUSH1 0x40 MLOAD DUP1 SWAP2 SUB SWAP1 LOG1 JUMP JUMPDEST PUSH1 0x3 DUP1 SLOAD PUSH1 0x1 PUSH1 0x1 PUSH1 0xA0 SHL SUB DUP4 DUP2 AND PUSH1 0x1 PUSH1 0x1 PUSH1 0xA0 SHL SUB NOT DUP4 AND DUP2 OR SWAP1 SWAP4 SSTORE PUSH1 0x40 MLOAD SWAP2 AND SWAP2 SWAP1 DUP3 SWAP1 PUSH32 0x8BE0079C531659141344CD1FD0A4F28419497F9722A3DAAFE3B4186F6B6457E0 SWAP1 PUSH1 0x0 SWAP1 LOG3 POP POP JUMP JUMPDEST PUSH2 0x29D3 PUSH2 0x308F JUMP JUMPDEST PUSH1 0x3 DUP1 SLOAD PUSH1 0xFF PUSH1 0xA0 SHL NOT AND PUSH1 0x1 PUSH1 0xA0 SHL OR SWAP1 SSTORE PUSH32 0x62E78CEA01BEE320CD4E420270B5EA74000D11B0C9F74754EBDBFC544B05A258 PUSH2 0x295C PUSH2 0x26E3 JUMP JUMPDEST DUP2 PUSH1 0x1 PUSH1 0x1 PUSH1 0xA0 SHL SUB AND DUP4 PUSH1 0x1 PUSH1 0x1 PUSH1 0xA0 SHL SUB AND EQ ISZERO PUSH2 0x2A83 JUMPI PUSH1 0x40 MLOAD PUSH3 0x461BCD PUSH1 0xE5 SHL DUP2 MSTORE PUSH1 0x20 PUSH1 0x4 DUP3 ADD MSTORE PUSH1 0x29 PUSH1 0x24 DUP3 ADD MSTORE PUSH32 0x455243313135353A2073657474696E6720617070726F76616C20737461747573 PUSH1 0x44 DUP3 ADD MSTORE PUSH9 0x103337B91039B2B633 PUSH1 0xB9 SHL PUSH1 0x64 DUP3 ADD MSTORE PUSH1 0x84 ADD PUSH2 0x902 JUMP JUMPDEST PUSH1 0x1 PUSH1 0x1 PUSH1 0xA0 SHL SUB DUP4 DUP2 AND PUSH1 0x0 DUP2 DUP2 MSTORE PUSH1 0x1 PUSH1 0x20 SWAP1 DUP2 MSTORE PUSH1 0x40 DUP1 DUP4 KECCAK256 SWAP5 DUP8 AND DUP1 DUP5 MSTORE SWAP5 DUP3 MSTORE SWAP2 DUP3 SWAP1 KECCAK256 DUP1 SLOAD PUSH1 0xFF NOT AND DUP7 ISZERO ISZERO SWAP1 DUP2 OR SWAP1 SWAP2 SSTORE SWAP2 MLOAD SWAP2 DUP3 MSTORE PUSH32 0x17307EAB39AB6107E8899845AD3D59BD9653F200F220920489CA2B5937696C31 SWAP2 ADD PUSH1 0x40 MLOAD DUP1 SWAP2 SUB SWAP1 LOG3 POP POP POP JUMP JUMPDEST PUSH1 0x40 MLOAD PUSH4 0xF340FA01 PUSH1 0xE0 SHL DUP2 MSTORE PUSH1 0x1 PUSH1 0x1 PUSH1 0xA0 SHL SUB DUP4 DUP2 AND PUSH1 0x4 DUP4 ADD MSTORE PUSH32 0x0 AND SWAP1 PUSH4 0xF340FA01 SWAP1 DUP4 SWAP1 PUSH1 0x24 ADD PUSH1 0x0 PUSH1 0x40 MLOAD DUP1 DUP4 SUB DUP2 DUP6 DUP9 DUP1 EXTCODESIZE ISZERO DUP1 ISZERO PUSH2 0x2B54 JUMPI PUSH1 0x0 DUP1 REVERT JUMPDEST POP GAS CALL ISZERO DUP1 ISZERO PUSH2 0x21FB JUMPI RETURNDATASIZE PUSH1 0x0 DUP1 RETURNDATACOPY RETURNDATASIZE PUSH1 0x0 REVERT JUMPDEST PUSH1 0x1 PUSH1 0x1 PUSH1 0xA0 SHL SUB DUP5 AND PUSH2 0x2B8E JUMPI PUSH1 0x40 MLOAD PUSH3 0x461BCD PUSH1 0xE5 SHL DUP2 MSTORE PUSH1 0x4 ADD PUSH2 0x902 SWAP1 PUSH2 0x4216 JUMP JUMPDEST PUSH1 0x0 PUSH2 0x2B98 PUSH2 0x26E3 JUMP JUMPDEST SWAP1 POP PUSH1 0x0 PUSH2 0x2BA5 DUP6 PUSH2 0x2CC1 JUMP JUMPDEST SWAP1 POP PUSH1 0x0 PUSH2 0x2BB2 DUP6 PUSH2 0x2CC1 JUMP JUMPDEST SWAP1 POP PUSH2 0x2BC2 DUP4 DUP10 DUP10 DUP6 DUP6 DUP10 PUSH2 0x2CAB JUMP JUMPDEST PUSH1 0x0 DUP7 DUP2 MSTORE PUSH1 0x20 DUP2 DUP2 MSTORE PUSH1 0x40 DUP1 DUP4 KECCAK256 PUSH1 0x1 PUSH1 0x1 PUSH1 0xA0 SHL SUB DUP13 AND DUP5 MSTORE SWAP1 SWAP2 MSTORE SWAP1 KECCAK256 SLOAD DUP6 DUP2 LT ISZERO PUSH2 0x2C03 JUMPI PUSH1 0x40 MLOAD PUSH3 0x461BCD PUSH1 0xE5 SHL DUP2 MSTORE PUSH1 0x4 ADD PUSH2 0x902 SWAP1 PUSH2 0x429E JUMP JUMPDEST PUSH1 0x0 DUP8 DUP2 MSTORE PUSH1 0x20 DUP2 DUP2 MSTORE PUSH1 0x40 DUP1 DUP4 KECCAK256 PUSH1 0x1 PUSH1 0x1 PUSH1 0xA0 SHL SUB DUP14 DUP2 AND DUP6 MSTORE SWAP3 MSTORE DUP1 DUP4 KECCAK256 DUP10 DUP6 SUB SWAP1 SSTORE SWAP1 DUP11 AND DUP3 MSTORE DUP2 KECCAK256 DUP1 SLOAD DUP9 SWAP3 SWAP1 PUSH2 0x2C40 SWAP1 DUP5 SWAP1 PUSH2 0x4416 JUMP JUMPDEST SWAP1 SWAP2 SSTORE POP POP PUSH1 0x40 DUP1 MLOAD DUP9 DUP2 MSTORE PUSH1 0x20 DUP2 ADD DUP9 SWAP1 MSTORE PUSH1 0x1 PUSH1 0x1 PUSH1 0xA0 SHL SUB DUP1 DUP12 AND SWAP3 DUP13 DUP3 AND SWAP3 SWAP2 DUP9 AND SWAP2 PUSH32 0xC3D58168C5AE7397731D063D5BBF3D657854427343F4C083240F7AACAA2D0F62 SWAP2 ADD PUSH1 0x40 MLOAD DUP1 SWAP2 SUB SWAP1 LOG4 PUSH2 0x2CA0 DUP5 DUP11 DUP11 DUP11 DUP11 DUP11 PUSH2 0x2D0C JUMP JUMPDEST POP POP POP POP POP POP POP POP POP JUMP JUMPDEST PUSH2 0x2CB3 PUSH2 0x308F JUMP JUMPDEST PUSH2 0x289F DUP7 DUP7 DUP7 DUP7 DUP7 DUP7 PUSH2 0x30DC JUMP JUMPDEST PUSH1 0x40 DUP1 MLOAD PUSH1 0x1 DUP1 DUP3 MSTORE DUP2 DUP4 ADD SWAP1 SWAP3 MSTORE PUSH1 0x60 SWAP2 PUSH1 0x0 SWAP2 SWAP1 PUSH1 0x20 DUP1 DUP4 ADD SWAP1 DUP1 CALLDATASIZE DUP4 CALLDATACOPY ADD SWAP1 POP POP SWAP1 POP DUP3 DUP2 PUSH1 0x0 DUP2 MLOAD DUP2 LT PUSH2 0x2CFB JUMPI PUSH2 0x2CFB PUSH2 0x4650 JUMP JUMPDEST PUSH1 0x20 SWAP1 DUP2 MUL SWAP2 SWAP1 SWAP2 ADD ADD MSTORE SWAP3 SWAP2 POP POP JUMP JUMPDEST PUSH1 0x1 PUSH1 0x1 PUSH1 0xA0 SHL SUB DUP5 AND EXTCODESIZE ISZERO PUSH2 0x289F JUMPI PUSH1 0x40 MLOAD PUSH4 0xF23A6E61 PUSH1 0xE0 SHL DUP2 MSTORE PUSH1 0x1 PUSH1 0x1 PUSH1 0xA0 SHL SUB DUP6 AND SWAP1 PUSH4 0xF23A6E61 SWAP1 PUSH2 0x2D50 SWAP1 DUP10 SWAP1 DUP10 SWAP1 DUP9 SWAP1 DUP9 SWAP1 DUP9 SWAP1 PUSH1 0x4 ADD PUSH2 0x4075 JUMP JUMPDEST PUSH1 0x20 PUSH1 0x40 MLOAD DUP1 DUP4 SUB DUP2 PUSH1 0x0 DUP8 DUP1 EXTCODESIZE ISZERO DUP1 ISZERO PUSH2 0x2D6A JUMPI PUSH1 0x0 DUP1 REVERT JUMPDEST POP GAS CALL SWAP3 POP POP POP DUP1 ISZERO PUSH2 0x2D9A JUMPI POP PUSH1 0x40 DUP1 MLOAD PUSH1 0x1F RETURNDATASIZE SWAP1 DUP2 ADD PUSH1 0x1F NOT AND DUP3 ADD SWAP1 SWAP3 MSTORE PUSH2 0x2D97 SWAP2 DUP2 ADD SWAP1 PUSH2 0x3CA6 JUMP JUMPDEST PUSH1 0x1 JUMPDEST PUSH2 0x2E47 JUMPI PUSH2 0x2DA6 PUSH2 0x467C JUMP JUMPDEST DUP1 PUSH4 0x8C379A0 EQ ISZERO PUSH2 0x2DE0 JUMPI POP PUSH2 0x2DBB PUSH2 0x4697 JUMP JUMPDEST DUP1 PUSH2 0x2DC6 JUMPI POP PUSH2 0x2DE2 JUMP JUMPDEST DUP1 PUSH1 0x40 MLOAD PUSH3 0x461BCD PUSH1 0xE5 SHL DUP2 MSTORE PUSH1 0x4 ADD PUSH2 0x902 SWAP2 SWAP1 PUSH2 0x4128 JUMP JUMPDEST POP JUMPDEST PUSH1 0x40 MLOAD PUSH3 0x461BCD PUSH1 0xE5 SHL DUP2 MSTORE PUSH1 0x20 PUSH1 0x4 DUP3 ADD MSTORE PUSH1 0x34 PUSH1 0x24 DUP3 ADD MSTORE PUSH32 0x455243313135353A207472616E7366657220746F206E6F6E2045524331313535 PUSH1 0x44 DUP3 ADD MSTORE PUSH20 0x2932B1B2B4BB32B91034B6B83632B6B2B73A32B9 PUSH1 0x61 SHL PUSH1 0x64 DUP3 ADD MSTORE PUSH1 0x84 ADD PUSH2 0x902 JUMP JUMPDEST PUSH1 0x1 PUSH1 0x1 PUSH1 0xE0 SHL SUB NOT DUP2 AND PUSH4 0xF23A6E61 PUSH1 0xE0 SHL EQ PUSH2 0x21FB JUMPI PUSH1 0x40 MLOAD PUSH3 0x461BCD PUSH1 0xE5 SHL DUP2 MSTORE PUSH1 0x4 ADD PUSH2 0x902 SWAP1 PUSH2 0x418A JUMP JUMPDEST PUSH1 0x60 PUSH1 0x2 DUP1 SLOAD PUSH2 0x2E86 SWAP1 PUSH2 0x4578 JUMP JUMPDEST DUP1 PUSH1 0x1F ADD PUSH1 0x20 DUP1 SWAP2 DIV MUL PUSH1 0x20 ADD PUSH1 0x40 MLOAD SWAP1 DUP2 ADD PUSH1 0x40 MSTORE DUP1 SWAP3 SWAP2 SWAP1 DUP2 DUP2 MSTORE PUSH1 0x20 ADD DUP3 DUP1 SLOAD PUSH2 0x2EB2 SWAP1 PUSH2 0x4578 JUMP JUMPDEST DUP1 ISZERO PUSH2 0x2EFF JUMPI DUP1 PUSH1 0x1F LT PUSH2 0x2ED4 JUMPI PUSH2 0x100 DUP1 DUP4 SLOAD DIV MUL DUP4 MSTORE SWAP2 PUSH1 0x20 ADD SWAP2 PUSH2 0x2EFF JUMP JUMPDEST DUP3 ADD SWAP2 SWAP1 PUSH1 0x0 MSTORE PUSH1 0x20 PUSH1 0x0 KECCAK256 SWAP1 JUMPDEST DUP2 SLOAD DUP2 MSTORE SWAP1 PUSH1 0x1 ADD SWAP1 PUSH1 0x20 ADD DUP1 DUP4 GT PUSH2 0x2EE2 JUMPI DUP3 SWAP1 SUB PUSH1 0x1F AND DUP3 ADD SWAP2 JUMPDEST POP POP POP POP POP SWAP1 POP SWAP2 SWAP1 POP JUMP JUMPDEST PUSH1 0x0 PUSH2 0x92E PUSH2 0x2F18 PUSH2 0x3255 JUMP JUMPDEST DUP4 PUSH1 0x40 MLOAD PUSH2 0x1901 PUSH1 0xF0 SHL PUSH1 0x20 DUP3 ADD MSTORE PUSH1 0x22 DUP2 ADD DUP4 SWAP1 MSTORE PUSH1 0x42 DUP2 ADD DUP3 SWAP1 MSTORE PUSH1 0x0 SWAP1 PUSH1 0x62 ADD PUSH1 0x40 MLOAD PUSH1 0x20 DUP2 DUP4 SUB SUB DUP2 MSTORE SWAP1 PUSH1 0x40 MSTORE DUP1 MLOAD SWAP1 PUSH1 0x20 ADD KECCAK256 SWAP1 POP SWAP3 SWAP2 POP POP JUMP JUMPDEST PUSH1 0x0 DUP1 PUSH1 0x0 PUSH2 0x2F68 DUP6 DUP6 PUSH2 0x337C JUMP JUMPDEST SWAP2 POP SWAP2 POP PUSH2 0x1790 DUP2 PUSH2 0x33EC JUMP JUMPDEST PUSH1 0x1 PUSH1 0x1 PUSH1 0xA0 SHL SUB DUP5 AND EXTCODESIZE ISZERO PUSH2 0x289F JUMPI PUSH1 0x40 MLOAD PUSH4 0xBC197C81 PUSH1 0xE0 SHL DUP2 MSTORE PUSH1 0x1 PUSH1 0x1 PUSH1 0xA0 SHL SUB DUP6 AND SWAP1 PUSH4 0xBC197C81 SWAP1 PUSH2 0x2FB9 SWAP1 DUP10 SWAP1 DUP10 SWAP1 DUP9 SWAP1 DUP9 SWAP1 DUP9 SWAP1 PUSH1 0x4 ADD PUSH2 0x4017 JUMP JUMPDEST PUSH1 0x20 PUSH1 0x40 MLOAD DUP1 DUP4 SUB DUP2 PUSH1 0x0 DUP8 DUP1 EXTCODESIZE ISZERO DUP1 ISZERO PUSH2 0x2FD3 JUMPI PUSH1 0x0 DUP1 REVERT JUMPDEST POP GAS CALL SWAP3 POP POP POP DUP1 ISZERO PUSH2 0x3003 JUMPI POP PUSH1 0x40 DUP1 MLOAD PUSH1 0x1F RETURNDATASIZE SWAP1 DUP2 ADD PUSH1 0x1F NOT AND DUP3 ADD SWAP1 SWAP3 MSTORE PUSH2 0x3000 SWAP2 DUP2 ADD SWAP1 PUSH2 0x3CA6 JUMP JUMPDEST PUSH1 0x1 JUMPDEST PUSH2 0x300F JUMPI PUSH2 0x2DA6 PUSH2 0x467C JUMP JUMPDEST PUSH1 0x1 PUSH1 0x1 PUSH1 0xE0 SHL SUB NOT DUP2 AND PUSH4 0xBC197C81 PUSH1 0xE0 SHL EQ PUSH2 0x21FB JUMPI PUSH1 0x40 MLOAD PUSH3 0x461BCD PUSH1 0xE5 SHL DUP2 MSTORE PUSH1 0x4 ADD PUSH2 0x902 SWAP1 PUSH2 0x418A JUMP JUMPDEST PUSH1 0x3 SLOAD PUSH1 0x1 PUSH1 0xA0 SHL SWAP1 DIV PUSH1 0xFF AND PUSH2 0x1660 JUMPI PUSH1 0x40 MLOAD PUSH3 0x461BCD PUSH1 0xE5 SHL DUP2 MSTORE PUSH1 0x20 PUSH1 0x4 DUP3 ADD MSTORE PUSH1 0x14 PUSH1 0x24 DUP3 ADD MSTORE PUSH20 0x14185D5CD8589B194E881B9BDD081C185D5CD959 PUSH1 0x62 SHL PUSH1 0x44 DUP3 ADD MSTORE PUSH1 0x64 ADD PUSH2 0x902 JUMP JUMPDEST PUSH1 0x3 SLOAD PUSH1 0x1 PUSH1 0xA0 SHL SWAP1 DIV PUSH1 0xFF AND ISZERO PUSH2 0x1660 JUMPI PUSH1 0x40 MLOAD PUSH3 0x461BCD PUSH1 0xE5 SHL DUP2 MSTORE PUSH1 0x20 PUSH1 0x4 DUP3 ADD MSTORE PUSH1 0x10 PUSH1 0x24 DUP3 ADD MSTORE PUSH16 0x14185D5CD8589B194E881C185D5CD959 PUSH1 0x82 SHL PUSH1 0x44 DUP3 ADD MSTORE PUSH1 0x64 ADD PUSH2 0x902 JUMP JUMPDEST PUSH1 0x1 PUSH1 0x1 PUSH1 0xA0 SHL SUB DUP6 AND PUSH2 0x3163 JUMPI PUSH1 0x0 JUMPDEST DUP4 MLOAD DUP2 LT ISZERO PUSH2 0x3161 JUMPI DUP3 DUP2 DUP2 MLOAD DUP2 LT PUSH2 0x3108 JUMPI PUSH2 0x3108 PUSH2 0x4650 JUMP JUMPDEST PUSH1 0x20 MUL PUSH1 0x20 ADD ADD MLOAD PUSH1 0x4 PUSH1 0x0 DUP7 DUP5 DUP2 MLOAD DUP2 LT PUSH2 0x3126 JUMPI PUSH2 0x3126 PUSH2 0x4650 JUMP JUMPDEST PUSH1 0x20 MUL PUSH1 0x20 ADD ADD MLOAD DUP2 MSTORE PUSH1 0x20 ADD SWAP1 DUP2 MSTORE PUSH1 0x20 ADD PUSH1 0x0 KECCAK256 PUSH1 0x0 DUP3 DUP3 SLOAD PUSH2 0x314B SWAP2 SWAP1 PUSH2 0x4416 JUMP JUMPDEST SWAP1 SWAP2 SSTORE POP PUSH2 0x315A SWAP1 POP DUP2 PUSH2 0x45DF JUMP JUMPDEST SWAP1 POP PUSH2 0x30ED JUMP JUMPDEST POP JUMPDEST PUSH1 0x1 PUSH1 0x1 PUSH1 0xA0 SHL SUB DUP5 AND PUSH2 0x289F JUMPI PUSH1 0x0 JUMPDEST DUP4 MLOAD DUP2 LT ISZERO PUSH2 0x21FB JUMPI PUSH1 0x0 DUP5 DUP3 DUP2 MLOAD DUP2 LT PUSH2 0x3191 JUMPI PUSH2 0x3191 PUSH2 0x4650 JUMP JUMPDEST PUSH1 0x20 MUL PUSH1 0x20 ADD ADD MLOAD SWAP1 POP PUSH1 0x0 DUP5 DUP4 DUP2 MLOAD DUP2 LT PUSH2 0x31AF JUMPI PUSH2 0x31AF PUSH2 0x4650 JUMP JUMPDEST PUSH1 0x20 MUL PUSH1 0x20 ADD ADD MLOAD SWAP1 POP PUSH1 0x0 PUSH1 0x4 PUSH1 0x0 DUP5 DUP2 MSTORE PUSH1 0x20 ADD SWAP1 DUP2 MSTORE PUSH1 0x20 ADD PUSH1 0x0 KECCAK256 SLOAD SWAP1 POP DUP2 DUP2 LT ISZERO PUSH2 0x3232 JUMPI PUSH1 0x40 MLOAD PUSH3 0x461BCD PUSH1 0xE5 SHL DUP2 MSTORE PUSH1 0x20 PUSH1 0x4 DUP3 ADD MSTORE PUSH1 0x28 PUSH1 0x24 DUP3 ADD MSTORE PUSH32 0x455243313135353A206275726E20616D6F756E74206578636565647320746F74 PUSH1 0x44 DUP3 ADD MSTORE PUSH8 0x616C537570706C79 PUSH1 0xC0 SHL PUSH1 0x64 DUP3 ADD MSTORE PUSH1 0x84 ADD PUSH2 0x902 JUMP JUMPDEST PUSH1 0x0 SWAP3 DUP4 MSTORE PUSH1 0x4 PUSH1 0x20 MSTORE PUSH1 0x40 SWAP1 SWAP3 KECCAK256 SWAP2 SUB SWAP1 SSTORE PUSH2 0x324E DUP2 PUSH2 0x45DF JUMP JUMPDEST SWAP1 POP PUSH2 0x3174 JUMP JUMPDEST PUSH1 0x0 ADDRESS PUSH1 0x1 PUSH1 0x1 PUSH1 0xA0 SHL SUB PUSH32 0x0 AND EQ DUP1 ISZERO PUSH2 0x32AE JUMPI POP PUSH32 0x0 CHAINID EQ JUMPDEST ISZERO PUSH2 0x32D8 JUMPI POP PUSH32 0x0 SWAP1 JUMP JUMPDEST POP PUSH1 0x40 DUP1 MLOAD PUSH32 0x0 PUSH1 0x20 DUP1 DUP4 ADD SWAP2 SWAP1 SWAP2 MSTORE PUSH32 0x0 DUP3 DUP5 ADD MSTORE PUSH32 0x0 PUSH1 0x60 DUP4 ADD MSTORE CHAINID PUSH1 0x80 DUP4 ADD MSTORE ADDRESS PUSH1 0xA0 DUP1 DUP5 ADD SWAP2 SWAP1 SWAP2 MSTORE DUP4 MLOAD DUP1 DUP5 SUB SWAP1 SWAP2 ADD DUP2 MSTORE PUSH1 0xC0 SWAP1 SWAP3 ADD SWAP1 SWAP3 MSTORE DUP1 MLOAD SWAP2 ADD KECCAK256 SWAP1 JUMP JUMPDEST PUSH1 0x0 DUP1 DUP3 MLOAD PUSH1 0x41 EQ ISZERO PUSH2 0x33B3 JUMPI PUSH1 0x20 DUP4 ADD MLOAD PUSH1 0x40 DUP5 ADD MLOAD PUSH1 0x60 DUP6 ADD MLOAD PUSH1 0x0 BYTE PUSH2 0x33A7 DUP8 DUP3 DUP6 DUP6 PUSH2 0x35A7 JUMP JUMPDEST SWAP5 POP SWAP5 POP POP POP POP PUSH2 0x33E5 JUMP JUMPDEST DUP3 MLOAD PUSH1 0x40 EQ ISZERO PUSH2 0x33DD JUMPI PUSH1 0x20 DUP4 ADD MLOAD PUSH1 0x40 DUP5 ADD MLOAD PUSH2 0x33D2 DUP7 DUP4 DUP4 PUSH2 0x3694 JUMP JUMPDEST SWAP4 POP SWAP4 POP POP POP PUSH2 0x33E5 JUMP JUMPDEST POP PUSH1 0x0 SWAP1 POP PUSH1 0x2 JUMPDEST SWAP3 POP SWAP3 SWAP1 POP JUMP JUMPDEST PUSH1 0x0 DUP2 PUSH1 0x4 DUP2 GT ISZERO PUSH2 0x3400 JUMPI PUSH2 0x3400 PUSH2 0x463A JUMP JUMPDEST EQ ISZERO PUSH2 0x3409 JUMPI POP JUMP JUMPDEST PUSH1 0x1 DUP2 PUSH1 0x4 DUP2 GT ISZERO PUSH2 0x341D JUMPI PUSH2 0x341D PUSH2 0x463A JUMP JUMPDEST EQ ISZERO PUSH2 0x346B JUMPI PUSH1 0x40 MLOAD PUSH3 0x461BCD PUSH1 0xE5 SHL DUP2 MSTORE PUSH1 0x20 PUSH1 0x4 DUP3 ADD MSTORE PUSH1 0x18 PUSH1 0x24 DUP3 ADD MSTORE PUSH32 0x45434453413A20696E76616C6964207369676E61747572650000000000000000 PUSH1 0x44 DUP3 ADD MSTORE PUSH1 0x64 ADD PUSH2 0x902 JUMP JUMPDEST PUSH1 0x2 DUP2 PUSH1 0x4 DUP2 GT ISZERO PUSH2 0x347F JUMPI PUSH2 0x347F PUSH2 0x463A JUMP JUMPDEST EQ ISZERO PUSH2 0x34CD JUMPI PUSH1 0x40 MLOAD PUSH3 0x461BCD PUSH1 0xE5 SHL DUP2 MSTORE PUSH1 0x20 PUSH1 0x4 DUP3 ADD MSTORE PUSH1 0x1F PUSH1 0x24 DUP3 ADD MSTORE PUSH32 0x45434453413A20696E76616C6964207369676E6174757265206C656E67746800 PUSH1 0x44 DUP3 ADD MSTORE PUSH1 0x64 ADD PUSH2 0x902 JUMP JUMPDEST PUSH1 0x3 DUP2 PUSH1 0x4 DUP2 GT ISZERO PUSH2 0x34E1 JUMPI PUSH2 0x34E1 PUSH2 0x463A JUMP JUMPDEST EQ ISZERO PUSH2 0x353A JUMPI PUSH1 0x40 MLOAD PUSH3 0x461BCD PUSH1 0xE5 SHL DUP2 MSTORE PUSH1 0x20 PUSH1 0x4 DUP3 ADD MSTORE PUSH1 0x22 PUSH1 0x24 DUP3 ADD MSTORE PUSH32 0x45434453413A20696E76616C6964207369676E6174757265202773272076616C PUSH1 0x44 DUP3 ADD MSTORE PUSH2 0x7565 PUSH1 0xF0 SHL PUSH1 0x64 DUP3 ADD MSTORE PUSH1 0x84 ADD PUSH2 0x902 JUMP JUMPDEST PUSH1 0x4 DUP2 PUSH1 0x4 DUP2 GT ISZERO PUSH2 0x354E JUMPI PUSH2 0x354E PUSH2 0x463A JUMP JUMPDEST EQ ISZERO PUSH2 0xD3F JUMPI PUSH1 0x40 MLOAD PUSH3 0x461BCD PUSH1 0xE5 SHL DUP2 MSTORE PUSH1 0x20 PUSH1 0x4 DUP3 ADD MSTORE PUSH1 0x22 PUSH1 0x24 DUP3 ADD MSTORE PUSH32 0x45434453413A20696E76616C6964207369676E6174757265202776272076616C PUSH1 0x44 DUP3 ADD MSTORE PUSH2 0x7565 PUSH1 0xF0 SHL PUSH1 0x64 DUP3 ADD MSTORE PUSH1 0x84 ADD PUSH2 0x902 JUMP JUMPDEST PUSH1 0x0 DUP1 PUSH32 0x7FFFFFFFFFFFFFFFFFFFFFFFFFFFFFFF5D576E7357A4501DDFE92F46681B20A0 DUP4 GT ISZERO PUSH2 0x35DE JUMPI POP PUSH1 0x0 SWAP1 POP PUSH1 0x3 PUSH2 0x368B JUMP JUMPDEST DUP5 PUSH1 0xFF AND PUSH1 0x1B EQ ISZERO DUP1 ISZERO PUSH2 0x35F6 JUMPI POP DUP5 PUSH1 0xFF AND PUSH1 0x1C EQ ISZERO JUMPDEST ISZERO PUSH2 0x3607 JUMPI POP PUSH1 0x0 SWAP1 POP PUSH1 0x4 PUSH2 0x368B JUMP JUMPDEST PUSH1 0x40 DUP1 MLOAD PUSH1 0x0 DUP1 DUP3 MSTORE PUSH1 0x20 DUP3 ADD DUP1 DUP5 MSTORE DUP10 SWAP1 MSTORE PUSH1 0xFF DUP9 AND SWAP3 DUP3 ADD SWAP3 SWAP1 SWAP3 MSTORE PUSH1 0x60 DUP2 ADD DUP7 SWAP1 MSTORE PUSH1 0x80 DUP2 ADD DUP6 SWAP1 MSTORE PUSH1 0x1 SWAP1 PUSH1 0xA0 ADD PUSH1 0x20 PUSH1 0x40 MLOAD PUSH1 0x20 DUP2 SUB SWAP1 DUP1 DUP5 SUB SWAP1 DUP6 GAS STATICCALL ISZERO DUP1 ISZERO PUSH2 0x365B JUMPI RETURNDATASIZE PUSH1 0x0 DUP1 RETURNDATACOPY RETURNDATASIZE PUSH1 0x0 REVERT JUMPDEST POP POP PUSH1 0x40 MLOAD PUSH1 0x1F NOT ADD MLOAD SWAP2 POP POP PUSH1 0x1 PUSH1 0x1 PUSH1 0xA0 SHL SUB DUP2 AND PUSH2 0x3684 JUMPI PUSH1 0x0 PUSH1 0x1 SWAP3 POP SWAP3 POP POP PUSH2 0x368B JUMP JUMPDEST SWAP2 POP PUSH1 0x0 SWAP1 POP JUMPDEST SWAP5 POP SWAP5 SWAP3 POP POP POP JUMP JUMPDEST PUSH1 0x0 DUP1 PUSH1 0x1 PUSH1 0x1 PUSH1 0xFF SHL SUB DUP4 AND DUP2 PUSH2 0x36B1 PUSH1 0xFF DUP7 SWAP1 SHR PUSH1 0x1B PUSH2 0x4416 JUMP JUMPDEST SWAP1 POP PUSH2 0x36BF DUP8 DUP3 DUP9 DUP6 PUSH2 0x35A7 JUMP JUMPDEST SWAP4 POP SWAP4 POP POP POP SWAP4 POP SWAP4 SWAP2 POP POP JUMP JUMPDEST DUP3 DUP1 SLOAD PUSH2 0x36D9 SWAP1 PUSH2 0x4578 JUMP JUMPDEST SWAP1 PUSH1 0x0 MSTORE PUSH1 0x20 PUSH1 0x0 KECCAK256 SWAP1 PUSH1 0x1F ADD PUSH1 0x20 SWAP1 DIV DUP2 ADD SWAP3 DUP3 PUSH2 0x36FB JUMPI PUSH1 0x0 DUP6 SSTORE PUSH2 0x3741 JUMP JUMPDEST DUP3 PUSH1 0x1F LT PUSH2 0x3714 JUMPI DUP1 MLOAD PUSH1 0xFF NOT AND DUP4 DUP1 ADD OR DUP6 SSTORE PUSH2 0x3741 JUMP JUMPDEST DUP3 DUP1 ADD PUSH1 0x1 ADD DUP6 SSTORE DUP3 ISZERO PUSH2 0x3741 JUMPI SWAP2 DUP3 ADD JUMPDEST DUP3 DUP2 GT ISZERO PUSH2 0x3741 JUMPI DUP3 MLOAD DUP3 SSTORE SWAP2 PUSH1 0x20 ADD SWAP2 SWAP1 PUSH1 0x1 ADD SWAP1 PUSH2 0x3726 JUMP JUMPDEST POP PUSH2 0x374D SWAP3 SWAP2 POP PUSH2 0x3751 JUMP JUMPDEST POP SWAP1 JUMP JUMPDEST JUMPDEST DUP1 DUP3 GT ISZERO PUSH2 0x374D JUMPI PUSH1 0x0 DUP2 SSTORE PUSH1 0x1 ADD PUSH2 0x3752 JUMP JUMPDEST PUSH1 0x0 DUP3 PUSH1 0x1F DUP4 ADD SLT PUSH2 0x3777 JUMPI PUSH1 0x0 DUP1 REVERT JUMPDEST DUP2 CALLDATALOAD PUSH1 0x20 PUSH2 0x3784 DUP3 PUSH2 0x43F3 JUMP JUMPDEST PUSH1 0x40 MLOAD PUSH2 0x3791 DUP3 DUP3 PUSH2 0x45B3 JUMP JUMPDEST DUP4 DUP2 MSTORE DUP3 DUP2 ADD SWAP2 POP DUP6 DUP4 ADD PUSH1 0x5 DUP6 SWAP1 SHL DUP8 ADD DUP5 ADD DUP9 LT ISZERO PUSH2 0x37B1 JUMPI PUSH1 0x0 DUP1 REVERT JUMPDEST PUSH1 0x0 JUMPDEST DUP6 DUP2 LT ISZERO PUSH2 0x37D0 JUMPI DUP2 CALLDATALOAD DUP5 MSTORE SWAP3 DUP5 ADD SWAP3 SWAP1 DUP5 ADD SWAP1 PUSH1 0x1 ADD PUSH2 0x37B4 JUMP JUMPDEST POP SWAP1 SWAP8 SWAP7 POP POP POP POP POP POP POP JUMP JUMPDEST PUSH1 0x0 DUP3 PUSH1 0x1F DUP4 ADD SLT PUSH2 0x37EE JUMPI PUSH1 0x0 DUP1 REVERT JUMPDEST DUP2 CALLDATALOAD PUSH1 0x1 PUSH1 0x1 PUSH1 0x40 SHL SUB DUP2 GT ISZERO PUSH2 0x3807 JUMPI PUSH2 0x3807 PUSH2 0x4666 JUMP JUMPDEST PUSH1 0x40 MLOAD PUSH2 0x381E PUSH1 0x1F DUP4 ADD PUSH1 0x1F NOT AND PUSH1 0x20 ADD DUP3 PUSH2 0x45B3 JUMP JUMPDEST DUP2 DUP2 MSTORE DUP5 PUSH1 0x20 DUP4 DUP7 ADD ADD GT ISZERO PUSH2 0x3833 JUMPI PUSH1 0x0 DUP1 REVERT JUMPDEST DUP2 PUSH1 0x20 DUP6 ADD PUSH1 0x20 DUP4 ADD CALLDATACOPY PUSH1 0x0 SWAP2 DUP2 ADD PUSH1 0x20 ADD SWAP2 SWAP1 SWAP2 MSTORE SWAP4 SWAP3 POP POP POP JUMP JUMPDEST PUSH1 0x0 PUSH1 0x20 DUP3 DUP5 SUB SLT ISZERO PUSH2 0x3862 JUMPI PUSH1 0x0 DUP1 REVERT JUMPDEST DUP2 CALLDATALOAD PUSH2 0x1DE6 DUP2 PUSH2 0x4720 JUMP JUMPDEST PUSH1 0x0 DUP1 PUSH1 0x40 DUP4 DUP6 SUB SLT ISZERO PUSH2 0x3880 JUMPI PUSH1 0x0 DUP1 REVERT JUMPDEST DUP3 CALLDATALOAD PUSH2 0x388B DUP2 PUSH2 0x4720 JUMP JUMPDEST SWAP5 PUSH1 0x20 SWAP4 SWAP1 SWAP4 ADD CALLDATALOAD SWAP4 POP POP POP JUMP JUMPDEST PUSH1 0x0 DUP1 PUSH1 0x40 DUP4 DUP6 SUB SLT ISZERO PUSH2 0x38AC JUMPI PUSH1 0x0 DUP1 REVERT JUMPDEST DUP3 CALLDATALOAD PUSH2 0x38B7 DUP2 PUSH2 0x4720 JUMP JUMPDEST SWAP2 POP PUSH1 0x20 DUP4 ADD CALLDATALOAD PUSH2 0x38C7 DUP2 PUSH2 0x4720 JUMP JUMPDEST DUP1 SWAP2 POP POP SWAP3 POP SWAP3 SWAP1 POP JUMP JUMPDEST PUSH1 0x0 DUP1 PUSH1 0x0 DUP1 PUSH1 0x0 PUSH1 0xA0 DUP7 DUP9 SUB SLT ISZERO PUSH2 0x38EA JUMPI PUSH1 0x0 DUP1 REVERT JUMPDEST DUP6 CALLDATALOAD PUSH2 0x38F5 DUP2 PUSH2 0x4720 JUMP JUMPDEST SWAP5 POP PUSH1 0x20 DUP7 ADD CALLDATALOAD PUSH2 0x3905 DUP2 PUSH2 0x4720 JUMP JUMPDEST SWAP4 POP PUSH1 0x40 DUP7 ADD CALLDATALOAD PUSH1 0x1 PUSH1 0x1 PUSH1 0x40 SHL SUB DUP1 DUP3 GT ISZERO PUSH2 0x3921 JUMPI PUSH1 0x0 DUP1 REVERT JUMPDEST PUSH2 0x392D DUP10 DUP4 DUP11 ADD PUSH2 0x3766 JUMP JUMPDEST SWAP5 POP PUSH1 0x60 DUP9 ADD CALLDATALOAD SWAP2 POP DUP1 DUP3 GT ISZERO PUSH2 0x3943 JUMPI PUSH1 0x0 DUP1 REVERT JUMPDEST PUSH2 0x394F DUP10 DUP4 DUP11 ADD PUSH2 0x3766 JUMP JUMPDEST SWAP4 POP PUSH1 0x80 DUP9 ADD CALLDATALOAD SWAP2 POP DUP1 DUP3 GT ISZERO PUSH2 0x3965 JUMPI PUSH1 0x0 DUP1 REVERT JUMPDEST POP PUSH2 0x3972 DUP9 DUP3 DUP10 ADD PUSH2 0x37DD JUMP JUMPDEST SWAP2 POP POP SWAP3 SWAP6 POP SWAP3 SWAP6 SWAP1 SWAP4 POP JUMP JUMPDEST PUSH1 0x0 DUP1 PUSH1 0x0 DUP1 PUSH1 0x0 PUSH1 0xA0 DUP7 DUP9 SUB SLT ISZERO PUSH2 0x3997 JUMPI PUSH1 0x0 DUP1 REVERT JUMPDEST DUP6 CALLDATALOAD PUSH2 0x39A2 DUP2 PUSH2 0x4720 JUMP JUMPDEST SWAP5 POP PUSH1 0x20 DUP7 ADD CALLDATALOAD PUSH2 0x39B2 DUP2 PUSH2 0x4720 JUMP JUMPDEST SWAP4 POP PUSH1 0x40 DUP7 ADD CALLDATALOAD SWAP3 POP PUSH1 0x60 DUP7 ADD CALLDATALOAD SWAP2 POP PUSH1 0x80 DUP7 ADD CALLDATALOAD PUSH1 0x1 PUSH1 0x1 PUSH1 0x40 SHL SUB DUP2 GT ISZERO PUSH2 0x39DB JUMPI PUSH1 0x0 DUP1 REVERT JUMPDEST PUSH2 0x3972 DUP9 DUP3 DUP10 ADD PUSH2 0x37DD JUMP JUMPDEST PUSH1 0x0 DUP1 PUSH1 0x0 PUSH1 0x60 DUP5 DUP7 SUB SLT ISZERO PUSH2 0x39FC JUMPI PUSH1 0x0 DUP1 REVERT JUMPDEST DUP4 CALLDATALOAD PUSH2 0x3A07 DUP2 PUSH2 0x4720 JUMP JUMPDEST SWAP3 POP PUSH1 0x20 DUP5 ADD CALLDATALOAD PUSH1 0x1 PUSH1 0x1 PUSH1 0x40 SHL SUB DUP1 DUP3 GT ISZERO PUSH2 0x3A23 JUMPI PUSH1 0x0 DUP1 REVERT JUMPDEST PUSH2 0x3A2F DUP8 DUP4 DUP9 ADD PUSH2 0x3766 JUMP JUMPDEST SWAP4 POP PUSH1 0x40 DUP7 ADD CALLDATALOAD SWAP2 POP DUP1 DUP3 GT ISZERO PUSH2 0x3A45 JUMPI PUSH1 0x0 DUP1 REVERT JUMPDEST POP PUSH2 0x3A52 DUP7 DUP3 DUP8 ADD PUSH2 0x3766 JUMP JUMPDEST SWAP2 POP POP SWAP3 POP SWAP3 POP SWAP3 JUMP JUMPDEST PUSH1 0x0 DUP1 PUSH1 0x0 DUP1 PUSH1 0x80 DUP6 DUP8 SUB SLT ISZERO PUSH2 0x3A72 JUMPI PUSH1 0x0 DUP1 REVERT JUMPDEST DUP5 CALLDATALOAD PUSH2 0x3A7D DUP2 PUSH2 0x4720 JUMP JUMPDEST SWAP4 POP PUSH1 0x20 DUP6 ADD CALLDATALOAD PUSH1 0x1 PUSH1 0x1 PUSH1 0x40 SHL SUB DUP1 DUP3 GT ISZERO PUSH2 0x3A99 JUMPI PUSH1 0x0 DUP1 REVERT JUMPDEST PUSH2 0x3AA5 DUP9 DUP4 DUP10 ADD PUSH2 0x3766 JUMP JUMPDEST SWAP5 POP PUSH1 0x40 DUP8 ADD CALLDATALOAD SWAP2 POP DUP1 DUP3 GT ISZERO PUSH2 0x3ABB JUMPI PUSH1 0x0 DUP1 REVERT JUMPDEST PUSH2 0x3AC7 DUP9 DUP4 DUP10 ADD PUSH2 0x3766 JUMP JUMPDEST SWAP4 POP PUSH1 0x60 DUP8 ADD CALLDATALOAD SWAP2 POP DUP1 DUP3 GT ISZERO PUSH2 0x3ADD JUMPI PUSH1 0x0 DUP1 REVERT JUMPDEST POP PUSH2 0x3AEA DUP8 DUP3 DUP9 ADD PUSH2 0x37DD JUMP JUMPDEST SWAP2 POP POP SWAP3 SWAP6 SWAP2 SWAP5 POP SWAP3 POP JUMP JUMPDEST PUSH1 0x0 DUP1 PUSH1 0x40 DUP4 DUP6 SUB SLT ISZERO PUSH2 0x3B09 JUMPI PUSH1 0x0 DUP1 REVERT JUMPDEST DUP3 CALLDATALOAD PUSH2 0x3B14 DUP2 PUSH2 0x4720 JUMP JUMPDEST SWAP2 POP PUSH1 0x20 DUP4 ADD CALLDATALOAD DUP1 ISZERO ISZERO DUP2 EQ PUSH2 0x38C7 JUMPI PUSH1 0x0 DUP1 REVERT JUMPDEST PUSH1 0x0 DUP1 PUSH1 0x0 PUSH1 0x60 DUP5 DUP7 SUB SLT ISZERO PUSH2 0x3B3E JUMPI PUSH1 0x0 DUP1 REVERT JUMPDEST DUP4 CALLDATALOAD PUSH2 0x3B49 DUP2 PUSH2 0x4720 JUMP JUMPDEST SWAP6 PUSH1 0x20 DUP6 ADD CALLDATALOAD SWAP6 POP PUSH1 0x40 SWAP1 SWAP5 ADD CALLDATALOAD SWAP4 SWAP3 POP POP POP JUMP JUMPDEST PUSH1 0x0 DUP1 PUSH1 0x40 DUP4 DUP6 SUB SLT ISZERO PUSH2 0x3B71 JUMPI PUSH1 0x0 DUP1 REVERT JUMPDEST DUP3 CALLDATALOAD PUSH1 0x1 PUSH1 0x1 PUSH1 0x40 SHL SUB DUP1 DUP3 GT ISZERO PUSH2 0x3B88 JUMPI PUSH1 0x0 DUP1 REVERT JUMPDEST DUP2 DUP6 ADD SWAP2 POP DUP6 PUSH1 0x1F DUP4 ADD SLT PUSH2 0x3B9C JUMPI PUSH1 0x0 DUP1 REVERT JUMPDEST DUP2 CALLDATALOAD PUSH1 0x20 PUSH2 0x3BA9 DUP3 PUSH2 0x43F3 JUMP JUMPDEST PUSH1 0x40 MLOAD PUSH2 0x3BB6 DUP3 DUP3 PUSH2 0x45B3 JUMP JUMPDEST DUP4 DUP2 MSTORE DUP3 DUP2 ADD SWAP2 POP DUP6 DUP4 ADD PUSH1 0x5 DUP6 SWAP1 SHL DUP8 ADD DUP5 ADD DUP12 LT ISZERO PUSH2 0x3BD6 JUMPI PUSH1 0x0 DUP1 REVERT JUMPDEST PUSH1 0x0 SWAP7 POP JUMPDEST DUP5 DUP8 LT ISZERO PUSH2 0x3C02 JUMPI DUP1 CALLDATALOAD PUSH2 0x3BEE DUP2 PUSH2 0x4720 JUMP JUMPDEST DUP4 MSTORE PUSH1 0x1 SWAP7 SWAP1 SWAP7 ADD SWAP6 SWAP2 DUP4 ADD SWAP2 DUP4 ADD PUSH2 0x3BDB JUMP JUMPDEST POP SWAP7 POP POP DUP7 ADD CALLDATALOAD SWAP3 POP POP DUP1 DUP3 GT ISZERO PUSH2 0x3C19 JUMPI PUSH1 0x0 DUP1 REVERT JUMPDEST POP PUSH2 0x3C26 DUP6 DUP3 DUP7 ADD PUSH2 0x3766 JUMP JUMPDEST SWAP2 POP POP SWAP3 POP SWAP3 SWAP1 POP JUMP JUMPDEST PUSH1 0x0 DUP1 PUSH1 0x40 DUP4 DUP6 SUB SLT ISZERO PUSH2 0x3C43 JUMPI PUSH1 0x0 DUP1 REVERT JUMPDEST DUP3 CALLDATALOAD PUSH1 0x1 PUSH1 0x1 PUSH1 0x40 SHL SUB DUP1 DUP3 GT ISZERO PUSH2 0x3C5A JUMPI PUSH1 0x0 DUP1 REVERT JUMPDEST PUSH2 0x3C66 DUP7 DUP4 DUP8 ADD PUSH2 0x3766 JUMP JUMPDEST SWAP4 POP PUSH1 0x20 DUP6 ADD CALLDATALOAD SWAP2 POP DUP1 DUP3 GT ISZERO PUSH2 0x3C7C JUMPI PUSH1 0x0 DUP1 REVERT JUMPDEST POP PUSH2 0x3C26 DUP6 DUP3 DUP7 ADD PUSH2 0x37DD JUMP JUMPDEST PUSH1 0x0 PUSH1 0x20 DUP3 DUP5 SUB SLT ISZERO PUSH2 0x3C9B JUMPI PUSH1 0x0 DUP1 REVERT JUMPDEST DUP2 CALLDATALOAD PUSH2 0x1DE6 DUP2 PUSH2 0x4735 JUMP JUMPDEST PUSH1 0x0 PUSH1 0x20 DUP3 DUP5 SUB SLT ISZERO PUSH2 0x3CB8 JUMPI PUSH1 0x0 DUP1 REVERT JUMPDEST DUP2 MLOAD PUSH2 0x1DE6 DUP2 PUSH2 0x4735 JUMP JUMPDEST PUSH1 0x0 PUSH1 0x20 DUP3 DUP5 SUB SLT ISZERO PUSH2 0x3CD5 JUMPI PUSH1 0x0 DUP1 REVERT JUMPDEST DUP2 CALLDATALOAD PUSH1 0x1 PUSH1 0x1 PUSH1 0x40 SHL SUB DUP2 GT ISZERO PUSH2 0x3CEB JUMPI PUSH1 0x0 DUP1 REVERT JUMPDEST PUSH2 0x3CF7 DUP5 DUP3 DUP6 ADD PUSH2 0x37DD JUMP JUMPDEST SWAP5 SWAP4 POP POP POP POP JUMP JUMPDEST PUSH1 0x0 DUP1 PUSH1 0x40 DUP4 DUP6 SUB SLT ISZERO PUSH2 0x3D12 JUMPI PUSH1 0x0 DUP1 REVERT JUMPDEST DUP3 CALLDATALOAD PUSH1 0x1 PUSH1 0x1 PUSH1 0x40 SHL SUB DUP2 GT ISZERO PUSH2 0x3D28 JUMPI PUSH1 0x0 DUP1 REVERT JUMPDEST PUSH2 0x3D34 DUP6 DUP3 DUP7 ADD PUSH2 0x37DD JUMP JUMPDEST SWAP6 PUSH1 0x20 SWAP5 SWAP1 SWAP5 ADD CALLDATALOAD SWAP5 POP POP POP POP JUMP JUMPDEST PUSH1 0x0 DUP1 PUSH1 0x0 PUSH1 0x60 DUP5 DUP7 SUB SLT ISZERO PUSH2 0x3D58 JUMPI PUSH1 0x0 DUP1 REVERT JUMPDEST DUP4 CALLDATALOAD PUSH1 0x1 PUSH1 0x1 PUSH1 0x40 SHL SUB DUP1 DUP3 GT ISZERO PUSH2 0x3D6F JUMPI PUSH1 0x0 DUP1 REVERT JUMPDEST PUSH2 0x3D7B DUP8 DUP4 DUP9 ADD PUSH2 0x37DD JUMP JUMPDEST SWAP5 POP PUSH1 0x20 DUP7 ADD CALLDATALOAD SWAP4 POP PUSH1 0x40 DUP7 ADD CALLDATALOAD SWAP2 POP DUP1 DUP3 GT ISZERO PUSH2 0x3D98 JUMPI PUSH1 0x0 DUP1 REVERT JUMPDEST POP PUSH2 0x3A52 DUP7 DUP3 DUP8 ADD PUSH2 0x37DD JUMP JUMPDEST PUSH1 0x0 DUP1 PUSH1 0x0 DUP1 PUSH1 0x0 DUP1 PUSH1 0xC0 DUP8 DUP10 SUB SLT ISZERO PUSH2 0x3DBE JUMPI PUSH1 0x0 DUP1 REVERT JUMPDEST DUP7 CALLDATALOAD PUSH1 0x1 PUSH1 0x1 PUSH1 0x40 SHL SUB DUP1 DUP3 GT ISZERO PUSH2 0x3DD5 JUMPI PUSH1 0x0 DUP1 REVERT JUMPDEST PUSH2 0x3DE1 DUP11 DUP4 DUP12 ADD PUSH2 0x37DD JUMP JUMPDEST SWAP8 POP PUSH1 0x20 DUP10 ADD CALLDATALOAD SWAP7 POP PUSH1 0x40 DUP10 ADD CALLDATALOAD SWAP2 POP DUP1 DUP3 GT ISZERO PUSH2 0x3DFE JUMPI PUSH1 0x0 DUP1 REVERT JUMPDEST PUSH2 0x3E0A DUP11 DUP4 DUP12 ADD PUSH2 0x37DD JUMP JUMPDEST SWAP6 POP PUSH1 0x60 DUP10 ADD CALLDATALOAD SWAP2 POP DUP1 DUP3 GT ISZERO PUSH2 0x3E20 JUMPI PUSH1 0x0 DUP1 REVERT JUMPDEST PUSH2 0x3E2C DUP11 DUP4 DUP12 ADD PUSH2 0x37DD JUMP JUMPDEST SWAP5 POP PUSH1 0x80 DUP10 ADD CALLDATALOAD SWAP4 POP PUSH1 0xA0 DUP10 ADD CALLDATALOAD SWAP2 POP DUP1 DUP3 GT ISZERO PUSH2 0x3E49 JUMPI PUSH1 0x0 DUP1 REVERT JUMPDEST POP PUSH2 0x3E56 DUP10 DUP3 DUP11 ADD PUSH2 0x37DD JUMP JUMPDEST SWAP2 POP POP SWAP3 SWAP6 POP SWAP3 SWAP6 POP SWAP3 SWAP6 JUMP JUMPDEST PUSH1 0x0 PUSH1 0x20 DUP3 DUP5 SUB SLT ISZERO PUSH2 0x3E75 JUMPI PUSH1 0x0 DUP1 REVERT JUMPDEST POP CALLDATALOAD SWAP2 SWAP1 POP JUMP JUMPDEST PUSH1 0x0 PUSH1 0x20 DUP3 DUP5 SUB SLT ISZERO PUSH2 0x3E8E JUMPI PUSH1 0x0 DUP1 REVERT JUMPDEST POP MLOAD SWAP2 SWAP1 POP JUMP JUMPDEST PUSH1 0x0 DUP1 PUSH1 0x40 DUP4 DUP6 SUB SLT ISZERO PUSH2 0x3EA8 JUMPI PUSH1 0x0 DUP1 REVERT JUMPDEST DUP3 CALLDATALOAD SWAP2 POP PUSH1 0x20 DUP4 ADD CALLDATALOAD PUSH1 0x1 PUSH1 0x1 PUSH1 0x40 SHL SUB DUP2 GT ISZERO PUSH2 0x3EC5 JUMPI PUSH1 0x0 DUP1 REVERT JUMPDEST PUSH2 0x3C26 DUP6 DUP3 DUP7 ADD PUSH2 0x37DD JUMP JUMPDEST PUSH1 0x0 DUP2 MLOAD DUP1 DUP5 MSTORE PUSH1 0x20 DUP1 DUP6 ADD SWAP5 POP DUP1 DUP5 ADD PUSH1 0x0 JUMPDEST DUP4 DUP2 LT ISZERO PUSH2 0x3F01 JUMPI DUP2 MLOAD DUP8 MSTORE SWAP6 DUP3 ADD SWAP6 SWAP1 DUP3 ADD SWAP1 PUSH1 0x1 ADD PUSH2 0x3EE5 JUMP JUMPDEST POP SWAP5 SWAP6 SWAP5 POP POP POP POP POP JUMP JUMPDEST PUSH1 0x0 DUP2 MLOAD DUP1 DUP5 MSTORE PUSH2 0x3F24 DUP2 PUSH1 0x20 DUP7 ADD PUSH1 0x20 DUP7 ADD PUSH2 0x454C JUMP JUMPDEST PUSH1 0x1F ADD PUSH1 0x1F NOT AND SWAP3 SWAP1 SWAP3 ADD PUSH1 0x20 ADD SWAP3 SWAP2 POP POP JUMP JUMPDEST PUSH1 0x0 DUP2 MLOAD PUSH2 0x3F4A DUP2 DUP6 PUSH1 0x20 DUP7 ADD PUSH2 0x454C JUMP JUMPDEST SWAP3 SWAP1 SWAP3 ADD SWAP3 SWAP2 POP POP JUMP JUMPDEST PUSH1 0x0 DUP3 MLOAD PUSH2 0x3F66 DUP2 DUP5 PUSH1 0x20 DUP8 ADD PUSH2 0x454C JUMP JUMPDEST SWAP2 SWAP1 SWAP2 ADD SWAP3 SWAP2 POP POP JUMP JUMPDEST PUSH1 0x0 DUP1 DUP5 SLOAD DUP2 PUSH1 0x1 DUP3 DUP2 SHR SWAP2 POP DUP1 DUP4 AND DUP1 PUSH2 0x3F8C JUMPI PUSH1 0x7F DUP4 AND SWAP3 POP JUMPDEST PUSH1 0x20 DUP1 DUP5 LT DUP3 EQ ISZERO PUSH2 0x3FAC JUMPI PUSH4 0x4E487B71 PUSH1 0xE0 SHL DUP7 MSTORE PUSH1 0x22 PUSH1 0x4 MSTORE PUSH1 0x24 DUP7 REVERT JUMPDEST DUP2 DUP1 ISZERO PUSH2 0x3FC0 JUMPI PUSH1 0x1 DUP2 EQ PUSH2 0x3FD1 JUMPI PUSH2 0x3FFE JUMP JUMPDEST PUSH1 0xFF NOT DUP7 AND DUP10 MSTORE DUP5 DUP10 ADD SWAP7 POP PUSH2 0x3FFE JUMP JUMPDEST PUSH1 0x0 DUP12 DUP2 MSTORE PUSH1 0x20 SWAP1 KECCAK256 PUSH1 0x0 JUMPDEST DUP7 DUP2 LT ISZERO PUSH2 0x3FF6 JUMPI DUP2 SLOAD DUP12 DUP3 ADD MSTORE SWAP1 DUP6 ADD SWAP1 DUP4 ADD PUSH2 0x3FDD JUMP JUMPDEST POP POP DUP5 DUP10 ADD SWAP7 POP JUMPDEST POP POP POP POP POP POP PUSH2 0x400E DUP2 DUP6 PUSH2 0x3F38 JUMP JUMPDEST SWAP6 SWAP5 POP POP POP POP POP JUMP JUMPDEST PUSH1 0x1 PUSH1 0x1 PUSH1 0xA0 SHL SUB DUP7 DUP2 AND DUP3 MSTORE DUP6 AND PUSH1 0x20 DUP3 ADD MSTORE PUSH1 0xA0 PUSH1 0x40 DUP3 ADD DUP2 SWAP1 MSTORE PUSH1 0x0 SWAP1 PUSH2 0x4043 SWAP1 DUP4 ADD DUP7 PUSH2 0x3ED1 JUMP JUMPDEST DUP3 DUP2 SUB PUSH1 0x60 DUP5 ADD MSTORE PUSH2 0x4055 DUP2 DUP7 PUSH2 0x3ED1 JUMP JUMPDEST SWAP1 POP DUP3 DUP2 SUB PUSH1 0x80 DUP5 ADD MSTORE PUSH2 0x4069 DUP2 DUP6 PUSH2 0x3F0C JUMP JUMPDEST SWAP9 SWAP8 POP POP POP POP POP POP POP POP JUMP JUMPDEST PUSH1 0x1 PUSH1 0x1 PUSH1 0xA0 SHL SUB DUP7 DUP2 AND DUP3 MSTORE DUP6 AND PUSH1 0x20 DUP3 ADD MSTORE PUSH1 0x40 DUP2 ADD DUP5 SWAP1 MSTORE PUSH1 0x60 DUP2 ADD DUP4 SWAP1 MSTORE PUSH1 0xA0 PUSH1 0x80 DUP3 ADD DUP2 SWAP1 MSTORE PUSH1 0x0 SWAP1 PUSH2 0x40AF SWAP1 DUP4 ADD DUP5 PUSH2 0x3F0C JUMP JUMPDEST SWAP8 SWAP7 POP POP POP POP POP POP POP JUMP JUMPDEST PUSH1 0x1 PUSH1 0x1 PUSH1 0xA0 SHL SUB DUP5 AND DUP2 MSTORE PUSH1 0x60 PUSH1 0x20 DUP3 ADD DUP2 SWAP1 MSTORE PUSH1 0x0 SWAP1 PUSH2 0x40DE SWAP1 DUP4 ADD DUP6 PUSH2 0x3ED1 JUMP JUMPDEST DUP3 DUP2 SUB PUSH1 0x40 DUP5 ADD MSTORE PUSH2 0x23F9 DUP2 DUP6 PUSH2 0x3ED1 JUMP JUMPDEST PUSH1 0x20 DUP2 MSTORE PUSH1 0x0 PUSH2 0x1DE6 PUSH1 0x20 DUP4 ADD DUP5 PUSH2 0x3ED1 JUMP JUMPDEST PUSH1 0x40 DUP2 MSTORE PUSH1 0x0 PUSH2 0x4116 PUSH1 0x40 DUP4 ADD DUP6 PUSH2 0x3ED1 JUMP JUMPDEST DUP3 DUP2 SUB PUSH1 0x20 DUP5 ADD MSTORE PUSH2 0x400E DUP2 DUP6 PUSH2 0x3ED1 JUMP JUMPDEST PUSH1 0x20 DUP2 MSTORE PUSH1 0x0 PUSH2 0x1DE6 PUSH1 0x20 DUP4 ADD DUP5 PUSH2 0x3F0C JUMP JUMPDEST PUSH1 0x20 DUP1 DUP3 MSTORE PUSH1 0x2F SWAP1 DUP3 ADD MSTORE PUSH32 0x455243313135353A2063616C6C6572206973206E6F7420746F6B656E206F776E PUSH1 0x40 DUP3 ADD MSTORE PUSH15 0x195C881B9BDC88185C1C1C9BDD9959 PUSH1 0x8A SHL PUSH1 0x60 DUP3 ADD MSTORE PUSH1 0x80 ADD SWAP1 JUMP JUMPDEST PUSH1 0x20 DUP1 DUP3 MSTORE PUSH1 0x28 SWAP1 DUP3 ADD MSTORE PUSH32 0x455243313135353A204552433131353552656365697665722072656A65637465 PUSH1 0x40 DUP3 ADD MSTORE PUSH8 0x6420746F6B656E73 PUSH1 0xC0 SHL PUSH1 0x60 DUP3 ADD MSTORE PUSH1 0x80 ADD SWAP1 JUMP JUMPDEST PUSH1 0x20 DUP1 DUP3 MSTORE PUSH1 0x24 SWAP1 DUP3 ADD MSTORE PUSH32 0x455243313135353A206275726E20616D6F756E7420657863656564732062616C PUSH1 0x40 DUP3 ADD MSTORE PUSH4 0x616E6365 PUSH1 0xE0 SHL PUSH1 0x60 DUP3 ADD MSTORE PUSH1 0x80 ADD SWAP1 JUMP JUMPDEST PUSH1 0x20 DUP1 DUP3 MSTORE PUSH1 0x25 SWAP1 DUP3 ADD MSTORE PUSH32 0x455243313135353A207472616E7366657220746F20746865207A65726F206164 PUSH1 0x40 DUP3 ADD MSTORE PUSH5 0x6472657373 PUSH1 0xD8 SHL PUSH1 0x60 DUP3 ADD MSTORE PUSH1 0x80 ADD SWAP1 JUMP JUMPDEST PUSH1 0x20 DUP1 DUP3 MSTORE PUSH1 0x23 SWAP1 DUP3 ADD MSTORE PUSH32 0x455243313135353A206275726E2066726F6D20746865207A65726F2061646472 PUSH1 0x40 DUP3 ADD MSTORE PUSH3 0x657373 PUSH1 0xE8 SHL PUSH1 0x60 DUP3 ADD MSTORE PUSH1 0x80 ADD SWAP1 JUMP JUMPDEST PUSH1 0x20 DUP1 DUP3 MSTORE PUSH1 0x2A SWAP1 DUP3 ADD MSTORE PUSH32 0x455243313135353A20696E73756666696369656E742062616C616E636520666F PUSH1 0x40 DUP3 ADD MSTORE PUSH10 0x39103A3930B739B332B9 PUSH1 0xB1 SHL PUSH1 0x60 DUP3 ADD MSTORE PUSH1 0x80 ADD SWAP1 JUMP JUMPDEST PUSH1 0x20 DUP1 DUP3 MSTORE PUSH1 0x2B SWAP1 DUP3 ADD MSTORE PUSH32 0x4D696E74696E672066726F6D20736D61727420636F6E74726163747320697320 PUSH1 0x40 DUP3 ADD MSTORE PUSH11 0x1B9BDD08185B1B1BDDD959 PUSH1 0xAA SHL PUSH1 0x60 DUP3 ADD MSTORE PUSH1 0x80 ADD SWAP1 JUMP JUMPDEST PUSH1 0x20 DUP1 DUP3 MSTORE PUSH1 0x28 SWAP1 DUP3 ADD MSTORE PUSH32 0x455243313135353A2069647320616E6420616D6F756E7473206C656E67746820 PUSH1 0x40 DUP3 ADD MSTORE PUSH8 0xDAD2E6DAC2E8C6D PUSH1 0xC3 SHL PUSH1 0x60 DUP3 ADD MSTORE PUSH1 0x80 ADD SWAP1 JUMP JUMPDEST PUSH1 0x20 DUP1 DUP3 MSTORE PUSH1 0x21 SWAP1 DUP3 ADD MSTORE PUSH32 0x455243313135353A206D696E7420746F20746865207A65726F20616464726573 PUSH1 0x40 DUP3 ADD MSTORE PUSH1 0x73 PUSH1 0xF8 SHL PUSH1 0x60 DUP3 ADD MSTORE PUSH1 0x80 ADD SWAP1 JUMP JUMPDEST PUSH1 0x20 DUP1 DUP3 MSTORE PUSH1 0x1F SWAP1 DUP3 ADD MSTORE PUSH32 0x5265656E7472616E637947756172643A207265656E7472616E742063616C6C00 PUSH1 0x40 DUP3 ADD MSTORE PUSH1 0x60 ADD SWAP1 JUMP JUMPDEST PUSH1 0x0 PUSH1 0x1 PUSH1 0x1 PUSH1 0x40 SHL SUB DUP3 GT ISZERO PUSH2 0x440C JUMPI PUSH2 0x440C PUSH2 0x4666 JUMP JUMPDEST POP PUSH1 0x5 SHL PUSH1 0x20 ADD SWAP1 JUMP JUMPDEST PUSH1 0x0 DUP3 NOT DUP3 GT ISZERO PUSH2 0x4429 JUMPI PUSH2 0x4429 PUSH2 0x460E JUMP JUMPDEST POP ADD SWAP1 JUMP JUMPDEST PUSH1 0x0 DUP3 PUSH2 0x443D JUMPI PUSH2 0x443D PUSH2 0x4624 JUMP JUMPDEST POP DIV SWAP1 JUMP JUMPDEST PUSH1 0x1 DUP2 DUP2 JUMPDEST DUP1 DUP6 GT ISZERO PUSH2 0x447D JUMPI DUP2 PUSH1 0x0 NOT DIV DUP3 GT ISZERO PUSH2 0x4463 JUMPI PUSH2 0x4463 PUSH2 0x460E JUMP JUMPDEST DUP1 DUP6 AND ISZERO PUSH2 0x4470 JUMPI SWAP2 DUP2 MUL SWAP2 JUMPDEST SWAP4 DUP5 SHR SWAP4 SWAP1 DUP1 MUL SWAP1 PUSH2 0x4447 JUMP JUMPDEST POP SWAP3 POP SWAP3 SWAP1 POP JUMP JUMPDEST PUSH1 0x0 PUSH2 0x1DE6 DUP4 DUP4 PUSH1 0x0 DUP3 PUSH2 0x449B JUMPI POP PUSH1 0x1 PUSH2 0x92E JUMP JUMPDEST DUP2 PUSH2 0x44A8 JUMPI POP PUSH1 0x0 PUSH2 0x92E JUMP JUMPDEST DUP2 PUSH1 0x1 DUP2 EQ PUSH2 0x44BE JUMPI PUSH1 0x2 DUP2 EQ PUSH2 0x44C8 JUMPI PUSH2 0x44E4 JUMP JUMPDEST PUSH1 0x1 SWAP2 POP POP PUSH2 0x92E JUMP JUMPDEST PUSH1 0xFF DUP5 GT ISZERO PUSH2 0x44D9 JUMPI PUSH2 0x44D9 PUSH2 0x460E JUMP JUMPDEST POP POP PUSH1 0x1 DUP3 SHL PUSH2 0x92E JUMP JUMPDEST POP PUSH1 0x20 DUP4 LT PUSH2 0x133 DUP4 LT AND PUSH1 0x4E DUP5 LT PUSH1 0xB DUP5 LT AND OR ISZERO PUSH2 0x4507 JUMPI POP DUP2 DUP2 EXP PUSH2 0x92E JUMP JUMPDEST PUSH2 0x4511 DUP4 DUP4 PUSH2 0x4442 JUMP JUMPDEST DUP1 PUSH1 0x0 NOT DIV DUP3 GT ISZERO PUSH2 0x4525 JUMPI PUSH2 0x4525 PUSH2 0x460E JUMP JUMPDEST MUL SWAP4 SWAP3 POP POP POP JUMP JUMPDEST PUSH1 0x0 DUP2 PUSH1 0x0 NOT DIV DUP4 GT DUP3 ISZERO ISZERO AND ISZERO PUSH2 0x4547 JUMPI PUSH2 0x4547 PUSH2 0x460E JUMP JUMPDEST POP MUL SWAP1 JUMP JUMPDEST PUSH1 0x0 JUMPDEST DUP4 DUP2 LT ISZERO PUSH2 0x4567 JUMPI DUP2 DUP2 ADD MLOAD DUP4 DUP3 ADD MSTORE PUSH1 0x20 ADD PUSH2 0x454F JUMP JUMPDEST DUP4 DUP2 GT ISZERO PUSH2 0x210A JUMPI POP POP PUSH1 0x0 SWAP2 ADD MSTORE JUMP JUMPDEST PUSH1 0x1 DUP2 DUP2 SHR SWAP1 DUP3 AND DUP1 PUSH2 0x458C JUMPI PUSH1 0x7F DUP3 AND SWAP2 POP JUMPDEST PUSH1 0x20 DUP3 LT DUP2 EQ ISZERO PUSH2 0x45AD JUMPI PUSH4 0x4E487B71 PUSH1 0xE0 SHL PUSH1 0x0 MSTORE PUSH1 0x22 PUSH1 0x4 MSTORE PUSH1 0x24 PUSH1 0x0 REVERT JUMPDEST POP SWAP2 SWAP1 POP JUMP JUMPDEST PUSH1 0x1F DUP3 ADD PUSH1 0x1F NOT AND DUP2 ADD PUSH1 0x1 PUSH1 0x1 PUSH1 0x40 SHL SUB DUP2 GT DUP3 DUP3 LT OR ISZERO PUSH2 0x45D8 JUMPI PUSH2 0x45D8 PUSH2 0x4666 JUMP JUMPDEST PUSH1 0x40 MSTORE POP POP JUMP JUMPDEST PUSH1 0x0 PUSH1 0x0 NOT DUP3 EQ ISZERO PUSH2 0x45F3 JUMPI PUSH2 0x45F3 PUSH2 0x460E JUMP JUMPDEST POP PUSH1 0x1 ADD SWAP1 JUMP JUMPDEST PUSH1 0x0 DUP3 PUSH2 0x4609 JUMPI PUSH2 0x4609 PUSH2 0x4624 JUMP JUMPDEST POP MOD SWAP1 JUMP JUMPDEST PUSH4 0x4E487B71 PUSH1 0xE0 SHL PUSH1 0x0 MSTORE PUSH1 0x11 PUSH1 0x4 MSTORE PUSH1 0x24 PUSH1 0x0 REVERT JUMPDEST PUSH4 0x4E487B71 PUSH1 0xE0 SHL PUSH1 0x0 MSTORE PUSH1 0x12 PUSH1 0x4 MSTORE PUSH1 0x24 PUSH1 0x0 REVERT JUMPDEST PUSH4 0x4E487B71 PUSH1 0xE0 SHL PUSH1 0x0 MSTORE PUSH1 0x21 PUSH1 0x4 MSTORE PUSH1 0x24 PUSH1 0x0 REVERT JUMPDEST PUSH4 0x4E487B71 PUSH1 0xE0 SHL PUSH1 0x0 MSTORE PUSH1 0x32 PUSH1 0x4 MSTORE PUSH1 0x24 PUSH1 0x0 REVERT JUMPDEST PUSH4 0x4E487B71 PUSH1 0xE0 SHL PUSH1 0x0 MSTORE PUSH1 0x41 PUSH1 0x4 MSTORE PUSH1 0x24 PUSH1 0x0 REVERT JUMPDEST PUSH1 0x0 PUSH1 0x3 RETURNDATASIZE GT ISZERO PUSH2 0xD61 JUMPI PUSH1 0x4 PUSH1 0x0 DUP1 RETURNDATACOPY POP PUSH1 0x0 MLOAD PUSH1 0xE0 SHR SWAP1 JUMP JUMPDEST PUSH1 0x0 PUSH1 0x44 RETURNDATASIZE LT ISZERO PUSH2 0x46A5 JUMPI SWAP1 JUMP JUMPDEST PUSH1 0x40 MLOAD PUSH1 0x3 NOT RETURNDATASIZE DUP2 ADD PUSH1 0x4 DUP4 RETURNDATACOPY DUP2 MLOAD RETURNDATASIZE PUSH1 0x1 PUSH1 0x1 PUSH1 0x40 SHL SUB DUP2 PUSH1 0x24 DUP5 ADD GT DUP2 DUP5 GT OR ISZERO PUSH2 0x46D4 JUMPI POP POP POP POP POP SWAP1 JUMP JUMPDEST DUP3 DUP6 ADD SWAP2 POP DUP2 MLOAD DUP2 DUP2 GT ISZERO PUSH2 0x46EC JUMPI POP POP POP POP POP POP SWAP1 JUMP JUMPDEST DUP5 RETURNDATASIZE DUP8 ADD ADD PUSH1 0x20 DUP3 DUP6 ADD ADD GT ISZERO PUSH2 0x4706 JUMPI POP POP POP POP POP POP SWAP1 JUMP JUMPDEST PUSH2 0x4715 PUSH1 0x20 DUP3 DUP7 ADD ADD DUP8 PUSH2 0x45B3 JUMP JUMPDEST POP SWAP1 SWAP6 SWAP5 POP POP POP POP POP JUMP JUMPDEST PUSH1 0x1 PUSH1 0x1 PUSH1 0xA0 SHL SUB DUP2 AND DUP2 EQ PUSH2 0xD3F JUMPI PUSH1 0x0 DUP1 REVERT JUMPDEST PUSH1 0x1 PUSH1 0x1 PUSH1 0xE0 SHL SUB NOT DUP2 AND DUP2 EQ PUSH2 0xD3F JUMPI PUSH1 0x0 DUP1 REVERT INVALID LOG2 PUSH5 0x6970667358 0x22 SLT KECCAK256 0xD9 PUSH1 0xCC 0xF7 RETURNDATASIZE 0x4E BYTE INVALID CODESIZE PUSH10 0x97257EFBC353F6165000 0xBF MOD SLT SWAP2 PUSH20 0x8579B39051340664736F6C634300080700336080 PUSH1 0x40 MSTORE CALLVALUE DUP1 ISZERO PUSH2 0x10 JUMPI PUSH1 0x0 DUP1 REVERT JUMPDEST POP PUSH2 0x1A CALLER PUSH2 0x1F JUMP JUMPDEST PUSH2 0x6F JUMP JUMPDEST PUSH1 0x0 DUP1 SLOAD PUSH1 0x1 PUSH1 0x1 PUSH1 0xA0 SHL SUB DUP4 DUP2 AND PUSH1 0x1 PUSH1 0x1 PUSH1 0xA0 SHL SUB NOT DUP4 AND DUP2 OR DUP5 SSTORE PUSH1 0x40 MLOAD SWAP2 SWAP1 SWAP3 AND SWAP3 DUP4 SWAP2 PUSH32 0x8BE0079C531659141344CD1FD0A4F28419497F9722A3DAAFE3B4186F6B6457E0 SWAP2 SWAP1 LOG3 POP POP JUMP JUMPDEST PUSH2 0x50D DUP1 PUSH2 0x7E PUSH1 0x0 CODECOPY PUSH1 0x0 RETURN INVALID PUSH1 0x80 PUSH1 0x40 MSTORE PUSH1 0x4 CALLDATASIZE LT PUSH2 0x55 JUMPI PUSH1 0x0 CALLDATALOAD PUSH1 0xE0 SHR DUP1 PUSH4 0x51CFF8D9 EQ PUSH2 0x5A JUMPI DUP1 PUSH4 0x715018A6 EQ PUSH2 0x7C JUMPI DUP1 PUSH4 0x8DA5CB5B EQ PUSH2 0x91 JUMPI DUP1 PUSH4 0xE3A9DB1A EQ PUSH2 0xBE JUMPI DUP1 PUSH4 0xF2FDE38B EQ PUSH2 0x102 JUMPI DUP1 PUSH4 0xF340FA01 EQ PUSH2 0x122 JUMPI JUMPDEST PUSH1 0x0 DUP1 REVERT JUMPDEST CALLVALUE DUP1 ISZERO PUSH2 0x66 JUMPI PUSH1 0x0 DUP1 REVERT JUMPDEST POP PUSH2 0x7A PUSH2 0x75 CALLDATASIZE PUSH1 0x4 PUSH2 0x478 JUMP JUMPDEST PUSH2 0x135 JUMP JUMPDEST STOP JUMPDEST CALLVALUE DUP1 ISZERO PUSH2 0x88 JUMPI PUSH1 0x0 DUP1 REVERT JUMPDEST POP PUSH2 0x7A PUSH2 0x1AC JUMP JUMPDEST CALLVALUE DUP1 ISZERO PUSH2 0x9D JUMPI PUSH1 0x0 DUP1 REVERT JUMPDEST POP PUSH1 0x0 SLOAD PUSH1 0x40 MLOAD PUSH1 0x1 PUSH1 0x1 PUSH1 0xA0 SHL SUB SWAP1 SWAP2 AND DUP2 MSTORE PUSH1 0x20 ADD JUMPDEST PUSH1 0x40 MLOAD DUP1 SWAP2 SUB SWAP1 RETURN JUMPDEST CALLVALUE DUP1 ISZERO PUSH2 0xCA JUMPI PUSH1 0x0 DUP1 REVERT JUMPDEST POP PUSH2 0xF4 PUSH2 0xD9 CALLDATASIZE PUSH1 0x4 PUSH2 0x478 JUMP JUMPDEST PUSH1 0x1 PUSH1 0x1 PUSH1 0xA0 SHL SUB AND PUSH1 0x0 SWAP1 DUP2 MSTORE PUSH1 0x1 PUSH1 0x20 MSTORE PUSH1 0x40 SWAP1 KECCAK256 SLOAD SWAP1 JUMP JUMPDEST PUSH1 0x40 MLOAD SWAP1 DUP2 MSTORE PUSH1 0x20 ADD PUSH2 0xB5 JUMP JUMPDEST CALLVALUE DUP1 ISZERO PUSH2 0x10E JUMPI PUSH1 0x0 DUP1 REVERT JUMPDEST POP PUSH2 0x7A PUSH2 0x11D CALLDATASIZE PUSH1 0x4 PUSH2 0x478 JUMP JUMPDEST PUSH2 0x1C0 JUMP JUMPDEST PUSH2 0x7A PUSH2 0x130 CALLDATASIZE PUSH1 0x4 PUSH2 0x478 JUMP JUMPDEST PUSH2 0x23E JUMP JUMPDEST PUSH2 0x13D PUSH2 0x2B0 JUMP JUMPDEST PUSH1 0x1 PUSH1 0x1 PUSH1 0xA0 SHL SUB DUP2 AND PUSH1 0x0 DUP2 DUP2 MSTORE PUSH1 0x1 PUSH1 0x20 MSTORE PUSH1 0x40 DUP2 KECCAK256 DUP1 SLOAD SWAP2 SWAP1 SSTORE SWAP1 PUSH2 0x165 SWAP1 DUP3 PUSH2 0x30A JUMP JUMPDEST DUP2 PUSH1 0x1 PUSH1 0x1 PUSH1 0xA0 SHL SUB AND PUSH32 0x7084F5476618D8E60B11EF0D7D3F06914655ADB8793E28FF7F018D4C76D505D5 DUP3 PUSH1 0x40 MLOAD PUSH2 0x1A0 SWAP2 DUP2 MSTORE PUSH1 0x20 ADD SWAP1 JUMP JUMPDEST PUSH1 0x40 MLOAD DUP1 SWAP2 SUB SWAP1 LOG2 POP POP JUMP JUMPDEST PUSH2 0x1B4 PUSH2 0x2B0 JUMP JUMPDEST PUSH2 0x1BE PUSH1 0x0 PUSH2 0x428 JUMP JUMPDEST JUMP JUMPDEST PUSH2 0x1C8 PUSH2 0x2B0 JUMP JUMPDEST PUSH1 0x1 PUSH1 0x1 PUSH1 0xA0 SHL SUB DUP2 AND PUSH2 0x232 JUMPI PUSH1 0x40 MLOAD PUSH3 0x461BCD PUSH1 0xE5 SHL DUP2 MSTORE PUSH1 0x20 PUSH1 0x4 DUP3 ADD MSTORE PUSH1 0x26 PUSH1 0x24 DUP3 ADD MSTORE PUSH32 0x4F776E61626C653A206E6577206F776E657220697320746865207A65726F2061 PUSH1 0x44 DUP3 ADD MSTORE PUSH6 0x646472657373 PUSH1 0xD0 SHL PUSH1 0x64 DUP3 ADD MSTORE PUSH1 0x84 ADD JUMPDEST PUSH1 0x40 MLOAD DUP1 SWAP2 SUB SWAP1 REVERT JUMPDEST PUSH2 0x23B DUP2 PUSH2 0x428 JUMP JUMPDEST POP JUMP JUMPDEST PUSH2 0x246 PUSH2 0x2B0 JUMP JUMPDEST PUSH1 0x1 PUSH1 0x1 PUSH1 0xA0 SHL SUB DUP2 AND PUSH1 0x0 SWAP1 DUP2 MSTORE PUSH1 0x1 PUSH1 0x20 MSTORE PUSH1 0x40 DUP2 KECCAK256 DUP1 SLOAD CALLVALUE SWAP3 DUP4 SWAP3 SWAP2 PUSH2 0x270 SWAP1 DUP5 SWAP1 PUSH2 0x49C JUMP JUMPDEST SWAP1 SWAP2 SSTORE POP POP PUSH1 0x40 MLOAD DUP2 DUP2 MSTORE PUSH1 0x1 PUSH1 0x1 PUSH1 0xA0 SHL SUB DUP4 AND SWAP1 PUSH32 0x2DA466A7B24304F47E87FA2E1E5A81B9831CE54FEC19055CE277CA2F39BA42C4 SWAP1 PUSH1 0x20 ADD PUSH2 0x1A0 JUMP JUMPDEST PUSH1 0x0 SLOAD PUSH1 0x1 PUSH1 0x1 PUSH1 0xA0 SHL SUB AND CALLER EQ PUSH2 0x1BE JUMPI PUSH1 0x40 MLOAD PUSH3 0x461BCD PUSH1 0xE5 SHL DUP2 MSTORE PUSH1 0x20 PUSH1 0x4 DUP3 ADD DUP2 SWAP1 MSTORE PUSH1 0x24 DUP3 ADD MSTORE PUSH32 0x4F776E61626C653A2063616C6C6572206973206E6F7420746865206F776E6572 PUSH1 0x44 DUP3 ADD MSTORE PUSH1 0x64 ADD PUSH2 0x229 JUMP JUMPDEST DUP1 SELFBALANCE LT ISZERO PUSH2 0x35A JUMPI PUSH1 0x40 MLOAD PUSH3 0x461BCD PUSH1 0xE5 SHL DUP2 MSTORE PUSH1 0x20 PUSH1 0x4 DUP3 ADD MSTORE PUSH1 0x1D PUSH1 0x24 DUP3 ADD MSTORE PUSH32 0x416464726573733A20696E73756666696369656E742062616C616E6365000000 PUSH1 0x44 DUP3 ADD MSTORE PUSH1 0x64 ADD PUSH2 0x229 JUMP JUMPDEST PUSH1 0x0 DUP3 PUSH1 0x1 PUSH1 0x1 PUSH1 0xA0 SHL SUB AND DUP3 PUSH1 0x40 MLOAD PUSH1 0x0 PUSH1 0x40 MLOAD DUP1 DUP4 SUB DUP2 DUP6 DUP8 GAS CALL SWAP3 POP POP POP RETURNDATASIZE DUP1 PUSH1 0x0 DUP2 EQ PUSH2 0x3A7 JUMPI PUSH1 0x40 MLOAD SWAP2 POP PUSH1 0x1F NOT PUSH1 0x3F RETURNDATASIZE ADD AND DUP3 ADD PUSH1 0x40 MSTORE RETURNDATASIZE DUP3 MSTORE RETURNDATASIZE PUSH1 0x0 PUSH1 0x20 DUP5 ADD RETURNDATACOPY PUSH2 0x3AC JUMP JUMPDEST PUSH1 0x60 SWAP2 POP JUMPDEST POP POP SWAP1 POP DUP1 PUSH2 0x423 JUMPI PUSH1 0x40 MLOAD PUSH3 0x461BCD PUSH1 0xE5 SHL DUP2 MSTORE PUSH1 0x20 PUSH1 0x4 DUP3 ADD MSTORE PUSH1 0x3A PUSH1 0x24 DUP3 ADD MSTORE PUSH32 0x416464726573733A20756E61626C6520746F2073656E642076616C75652C2072 PUSH1 0x44 DUP3 ADD MSTORE PUSH32 0x6563697069656E74206D61792068617665207265766572746564000000000000 PUSH1 0x64 DUP3 ADD MSTORE PUSH1 0x84 ADD PUSH2 0x229 JUMP JUMPDEST POP POP POP JUMP JUMPDEST PUSH1 0x0 DUP1 SLOAD PUSH1 0x1 PUSH1 0x1 PUSH1 0xA0 SHL SUB DUP4 DUP2 AND PUSH1 0x1 PUSH1 0x1 PUSH1 0xA0 SHL SUB NOT DUP4 AND DUP2 OR DUP5 SSTORE PUSH1 0x40 MLOAD SWAP2 SWAP1 SWAP3 AND SWAP3 DUP4 SWAP2 PUSH32 0x8BE0079C531659141344CD1FD0A4F28419497F9722A3DAAFE3B4186F6B6457E0 SWAP2 SWAP1 LOG3 POP POP JUMP JUMPDEST PUSH1 0x0 PUSH1 0x20 DUP3 DUP5 SUB SLT ISZERO PUSH2 0x48A JUMPI PUSH1 0x0 DUP1 REVERT JUMPDEST DUP2 CALLDATALOAD PUSH2 0x495 DUP2 PUSH2 0x4C2 JUMP JUMPDEST SWAP4 SWAP3 POP POP POP JUMP JUMPDEST PUSH1 0x0 DUP3 NOT DUP3 GT ISZERO PUSH2 0x4BD JUMPI PUSH4 0x4E487B71 PUSH1 0xE0 SHL PUSH1 0x0 MSTORE PUSH1 0x11 PUSH1 0x4 MSTORE PUSH1 0x24 PUSH1 0x0 REVERT JUMPDEST POP ADD SWAP1 JUMP JUMPDEST PUSH1 0x1 PUSH1 0x1 PUSH1 0xA0 SHL SUB DUP2 AND DUP2 EQ PUSH2 0x23B JUMPI PUSH1 0x0 DUP1 REVERT INVALID LOG2 PUSH5 0x6970667358 0x22 SLT KECCAK256 0xB2 0xAF SWAP9 0xD2 SWAP5 0xE7 0xA8 PUSH19 0x29F1FA3E610DFAB5AB2EB56EF17CA07E100B28 BYTE MULMOD PC LT 0xD1 PUSH5 0x736F6C6343 STOP ADDMOD SMOD STOP CALLER PUSH9 0x747470733A2F2F6D65 PUSH21 0x61707974686F6E2E6865726F6B756170702E636F6D 0x2F PUSH2 0x7069 0x2F PUSH6 0x6C656D656E74 0x2F PUSH28 0x69647D68747470733A2F2F6D657461707974686F6E2E6865726F6B75 PUSH2 0x7070 0x2E PUSH4 0x6F6D2F61 PUSH17 0x692F73746F72652F000000000000000000 "
		},
		"gasEstimates": {
			"creation": {
				"codeDepositCost": "3661000",
				"executionCost": "infinite",
				"totalCost": "infinite"
			},
			"external": {
				"asyncTransfer(address,uint256)": "infinite",
				"balanceOf(address,uint256)": "2717",
				"balanceOfBatch(address[],uint256[])": "infinite",
				"burn(address,uint256,uint256)": "infinite",
				"burnBatch(address,uint256[],uint256[])": "infinite",
				"exists(uint256)": "2561",
				"getContractURI()": "infinite",
				"getCost()": "2436",
				"getCostFactor()": "2414",
				"getHasSaleStarted()": "2393",
				"getMaxMints()": "2349",
				"getProxy()": "2453",
				"getTokensetMinted()": "2349",
				"hasSoldOut()": "4591",
				"isApprovedForAll(address,address)": "infinite",
				"merge(uint256[],bytes)": "infinite",
				"mint(string,uint256,bytes)": "infinite",
				"mintBatch(address,uint256[],uint256[],bytes)": "infinite",
				"owner()": "2409",
				"pause()": "infinite",
				"pauseSale()": "infinite",
				"paused()": "2411",
				"payments(address)": "infinite",
				"permanentURI(string,uint256)": "infinite",
				"ranConsumed(string)": "infinite",
				"renounceOwnership()": "infinite",
				"safeBatchTransferFrom(address,address,uint256[],uint256[],bytes)": "infinite",
				"safeTransferFrom(address,address,uint256,uint256,bytes)": "infinite",
				"setApprovalForAll(address,bool)": "infinite",
				"setCost(uint256)": "infinite",
				"setCostFactor(uint256)": "infinite",
				"setMaxMints(uint256)": "infinite",
				"setProxy(address)": "infinite",
				"setRanSigner(address)": "infinite",
				"setSigner(address)": "infinite",
				"setStoreMetaURL(string)": "infinite",
				"setTokenURI(uint256,string)": "infinite",
				"setURI(string)": "infinite",
				"split(uint256,bytes)": "infinite",
				"startSale()": "infinite",
				"supportsInterface(bytes4)": "601",
				"totalSupply(uint256)": "2471",
				"transferOwnership(address)": "infinite",
				"unpause()": "infinite",
				"uri(uint256)": "infinite",
				"withdrawPayments(address)": "infinite",
				"wlConsumed(string)": "infinite",
				"wlMint(string,uint256,bytes,string,uint256,bytes)": "infinite"
			},
			"internal": {
				"_beforeTokenTransfer(address,address,address,uint256[] memory,uint256[] memory,bytes memory)": "infinite",
				"_msgSender()": "infinite",
				"verify(string memory,uint256,address,bytes memory)": "infinite"
			}
		},
		"methodIdentifiers": {
			"asyncTransfer(address,uint256)": "b7ec44b4",
			"balanceOf(address,uint256)": "00fdd58e",
			"balanceOfBatch(address[],uint256[])": "4e1273f4",
			"burn(address,uint256,uint256)": "f5298aca",
			"burnBatch(address,uint256[],uint256[])": "6b20c454",
			"exists(uint256)": "4f558e79",
			"getContractURI()": "37929eb4",
			"getCost()": "bd3e19d4",
			"getCostFactor()": "94423f6b",
			"getHasSaleStarted()": "b0c33af4",
			"getMaxMints()": "5bdf01c8",
			"getProxy()": "933a9ce8",
			"getTokensetMinted()": "2a9de840",
			"hasSoldOut()": "03824f76",
			"isApprovedForAll(address,address)": "e985e9c5",
			"merge(uint256[],bytes)": "02ea2b22",
			"mint(string,uint256,bytes)": "10662e91",
			"mintBatch(address,uint256[],uint256[],bytes)": "1f7fdffa",
			"owner()": "8da5cb5b",
			"pause()": "8456cb59",
			"pauseSale()": "55367ba9",
			"paused()": "5c975abb",
			"payments(address)": "e2982c21",
			"permanentURI(string,uint256)": "5a7256c7",
			"ranConsumed(string)": "2286843c",
			"renounceOwnership()": "715018a6",
			"safeBatchTransferFrom(address,address,uint256[],uint256[],bytes)": "2eb2c2d6",
			"safeTransferFrom(address,address,uint256,uint256,bytes)": "f242432a",
			"setApprovalForAll(address,bool)": "a22cb465",
			"setCost(uint256)": "44a0d68a",
			"setCostFactor(uint256)": "039295fa",
			"setMaxMints(uint256)": "79c9cb7b",
			"setProxy(address)": "97107d6d",
			"setRanSigner(address)": "156980a8",
			"setSigner(address)": "6c19e783",
			"setStoreMetaURL(string)": "30e995a6",
			"setTokenURI(uint256,string)": "162094c4",
			"setURI(string)": "02fe5305",
			"split(uint256,bytes)": "29aa6335",
			"startSale()": "b66a0e5d",
			"supportsInterface(bytes4)": "01ffc9a7",
			"totalSupply(uint256)": "bd85b039",
			"transferOwnership(address)": "f2fde38b",
			"unpause()": "3f4ba83a",
			"uri(uint256)": "0e89341c",
			"withdrawPayments(address)": "31b3eb94",
			"wlConsumed(string)": "51a921dd",
			"wlMint(string,uint256,bytes,string,uint256,bytes)": "aa9c386a"
		}
	},
	"abi": [
		{
			"inputs": [
				{
					"internalType": "address",
					"name": "signerAddress_",
					"type": "address"
				},
				{
					"internalType": "address",
					"name": "ranSignerAddress_",
					"type": "address"
				}
			],
			"stateMutability": "nonpayable",
			"type": "constructor"
		},
		{
			"anonymous": false,
			"inputs": [
				{
					"indexed": true,
					"internalType": "address",
					"name": "account",
					"type": "address"
				},
				{
					"indexed": true,
					"internalType": "address",
					"name": "operator",
					"type": "address"
				},
				{
					"indexed": false,
					"internalType": "bool",
					"name": "approved",
					"type": "bool"
				}
			],
			"name": "ApprovalForAll",
			"type": "event"
		},
		{
			"anonymous": false,
			"inputs": [
				{
					"indexed": false,
					"internalType": "address",
					"name": "to",
					"type": "address"
				},
				{
					"indexed": false,
					"internalType": "uint256",
					"name": "tokenId",
					"type": "uint256"
				},
				{
					"indexed": false,
					"internalType": "uint256",
					"name": "amount",
					"type": "uint256"
				}
			],
			"name": "Merged",
			"type": "event"
		},
		{
			"anonymous": false,
			"inputs": [
				{
					"indexed": false,
					"internalType": "address",
					"name": "to",
					"type": "address"
				},
				{
					"indexed": false,
					"internalType": "uint256",
					"name": "tokenId",
					"type": "uint256"
				},
				{
					"indexed": false,
					"internalType": "uint256",
					"name": "amount",
					"type": "uint256"
				}
			],
			"name": "Minted",
			"type": "event"
		},
		{
			"anonymous": false,
			"inputs": [
				{
					"indexed": false,
					"internalType": "address",
					"name": "to",
					"type": "address"
				},
				{
					"indexed": false,
					"internalType": "uint256[]",
					"name": "ids",
					"type": "uint256[]"
				},
				{
					"indexed": false,
					"internalType": "uint256[]",
					"name": "amounts",
					"type": "uint256[]"
				}
			],
			"name": "MintedBatch",
			"type": "event"
		},
		{
			"anonymous": false,
			"inputs": [
				{
					"indexed": true,
					"internalType": "address",
					"name": "previousOwner",
					"type": "address"
				},
				{
					"indexed": true,
					"internalType": "address",
					"name": "newOwner",
					"type": "address"
				}
			],
			"name": "OwnershipTransferred",
			"type": "event"
		},
		{
			"anonymous": false,
			"inputs": [
				{
					"indexed": false,
					"internalType": "address",
					"name": "account",
					"type": "address"
				}
			],
			"name": "Paused",
			"type": "event"
		},
		{
			"anonymous": false,
			"inputs": [
				{
					"indexed": false,
					"internalType": "string",
					"name": "_value",
					"type": "string"
				},
				{
					"indexed": true,
					"internalType": "uint256",
					"name": "_id",
					"type": "uint256"
				}
			],
			"name": "PermanentURI",
			"type": "event"
		},
		{
			"anonymous": false,
			"inputs": [
				{
					"indexed": false,
					"internalType": "address",
					"name": "to",
					"type": "address"
				},
				{
					"indexed": false,
					"internalType": "uint256",
					"name": "id",
					"type": "uint256"
				}
			],
			"name": "Split",
			"type": "event"
		},
		{
			"anonymous": false,
			"inputs": [
				{
					"indexed": true,
					"internalType": "address",
					"name": "operator",
					"type": "address"
				},
				{
					"indexed": true,
					"internalType": "address",
					"name": "from",
					"type": "address"
				},
				{
					"indexed": true,
					"internalType": "address",
					"name": "to",
					"type": "address"
				},
				{
					"indexed": false,
					"internalType": "uint256[]",
					"name": "ids",
					"type": "uint256[]"
				},
				{
					"indexed": false,
					"internalType": "uint256[]",
					"name": "values",
					"type": "uint256[]"
				}
			],
			"name": "TransferBatch",
			"type": "event"
		},
		{
			"anonymous": false,
			"inputs": [
				{
					"indexed": true,
					"internalType": "address",
					"name": "operator",
					"type": "address"
				},
				{
					"indexed": true,
					"internalType": "address",
					"name": "from",
					"type": "address"
				},
				{
					"indexed": true,
					"internalType": "address",
					"name": "to",
					"type": "address"
				},
				{
					"indexed": false,
					"internalType": "uint256",
					"name": "id",
					"type": "uint256"
				},
				{
					"indexed": false,
					"internalType": "uint256",
					"name": "value",
					"type": "uint256"
				}
			],
			"name": "TransferSingle",
			"type": "event"
		},
		{
			"anonymous": false,
			"inputs": [
				{
					"indexed": false,
					"internalType": "string",
					"name": "value",
					"type": "string"
				},
				{
					"indexed": true,
					"internalType": "uint256",
					"name": "id",
					"type": "uint256"
				}
			],
			"name": "URI",
			"type": "event"
		},
		{
			"anonymous": false,
			"inputs": [
				{
					"indexed": false,
					"internalType": "address",
					"name": "account",
					"type": "address"
				}
			],
			"name": "Unpaused",
			"type": "event"
		},
		{
			"anonymous": false,
			"inputs": [
				{
					"indexed": false,
					"internalType": "address",
					"name": "to",
					"type": "address"
				},
				{
					"indexed": false,
					"internalType": "uint256",
					"name": "tokenId",
					"type": "uint256"
				},
				{
					"indexed": false,
					"internalType": "uint256",
					"name": "amount",
					"type": "uint256"
				}
			],
			"name": "wlMinted",
			"type": "event"
		},
		{
			"inputs": [
				{
					"internalType": "address payable",
					"name": "dest",
					"type": "address"
				},
				{
					"internalType": "uint256",
					"name": "amount",
					"type": "uint256"
				}
			],
			"name": "asyncTransfer",
			"outputs": [],
			"stateMutability": "nonpayable",
			"type": "function"
		},
		{
			"inputs": [
				{
					"internalType": "address",
					"name": "account",
					"type": "address"
				},
				{
					"internalType": "uint256",
					"name": "id",
					"type": "uint256"
				}
			],
			"name": "balanceOf",
			"outputs": [
				{
					"internalType": "uint256",
					"name": "",
					"type": "uint256"
				}
			],
			"stateMutability": "view",
			"type": "function"
		},
		{
			"inputs": [
				{
					"internalType": "address[]",
					"name": "accounts",
					"type": "address[]"
				},
				{
					"internalType": "uint256[]",
					"name": "ids",
					"type": "uint256[]"
				}
			],
			"name": "balanceOfBatch",
			"outputs": [
				{
					"internalType": "uint256[]",
					"name": "",
					"type": "uint256[]"
				}
			],
			"stateMutability": "view",
			"type": "function"
		},
		{
			"inputs": [
				{
					"internalType": "address",
					"name": "account",
					"type": "address"
				},
				{
					"internalType": "uint256",
					"name": "id",
					"type": "uint256"
				},
				{
					"internalType": "uint256",
					"name": "value",
					"type": "uint256"
				}
			],
			"name": "burn",
			"outputs": [],
			"stateMutability": "nonpayable",
			"type": "function"
		},
		{
			"inputs": [
				{
					"internalType": "address",
					"name": "account",
					"type": "address"
				},
				{
					"internalType": "uint256[]",
					"name": "ids",
					"type": "uint256[]"
				},
				{
					"internalType": "uint256[]",
					"name": "values",
					"type": "uint256[]"
				}
			],
			"name": "burnBatch",
			"outputs": [],
			"stateMutability": "nonpayable",
			"type": "function"
		},
		{
			"inputs": [
				{
					"internalType": "uint256",
					"name": "id",
					"type": "uint256"
				}
			],
			"name": "exists",
			"outputs": [
				{
					"internalType": "bool",
					"name": "",
					"type": "bool"
				}
			],
			"stateMutability": "view",
			"type": "function"
		},
		{
			"inputs": [],
			"name": "getContractURI",
			"outputs": [
				{
					"internalType": "string",
					"name": "",
					"type": "string"
				}
			],
			"stateMutability": "view",
			"type": "function"
		},
		{
			"inputs": [],
			"name": "getCost",
			"outputs": [
				{
					"internalType": "uint256",
					"name": "",
					"type": "uint256"
				}
			],
			"stateMutability": "view",
			"type": "function"
		},
		{
			"inputs": [],
			"name": "getCostFactor",
			"outputs": [
				{
					"internalType": "uint256",
					"name": "",
					"type": "uint256"
				}
			],
			"stateMutability": "view",
			"type": "function"
		},
		{
			"inputs": [],
			"name": "getHasSaleStarted",
			"outputs": [
				{
					"internalType": "bool",
					"name": "",
					"type": "bool"
				}
			],
			"stateMutability": "view",
			"type": "function"
		},
		{
			"inputs": [],
			"name": "getMaxMints",
			"outputs": [
				{
					"internalType": "uint256",
					"name": "",
					"type": "uint256"
				}
			],
			"stateMutability": "view",
			"type": "function"
		},
		{
			"inputs": [],
			"name": "getProxy",
			"outputs": [
				{
					"internalType": "address",
					"name": "",
					"type": "address"
				}
			],
			"stateMutability": "view",
			"type": "function"
		},
		{
			"inputs": [],
			"name": "getTokensetMinted",
			"outputs": [
				{
					"internalType": "uint256",
					"name": "",
					"type": "uint256"
				}
			],
			"stateMutability": "view",
			"type": "function"
		},
		{
			"inputs": [],
			"name": "hasSoldOut",
			"outputs": [
				{
					"internalType": "bool",
					"name": "",
					"type": "bool"
				}
			],
			"stateMutability": "view",
			"type": "function"
		},
		{
			"inputs": [
				{
					"internalType": "address",
					"name": "_owner",
					"type": "address"
				},
				{
					"internalType": "address",
					"name": "_operator",
					"type": "address"
				}
			],
			"name": "isApprovedForAll",
			"outputs": [
				{
					"internalType": "bool",
					"name": "isOperator",
					"type": "bool"
				}
			],
			"stateMutability": "view",
			"type": "function"
		},
		{
			"inputs": [
				{
					"internalType": "uint256[]",
					"name": "ids",
					"type": "uint256[]"
				},
				{
					"internalType": "bytes",
					"name": "data",
					"type": "bytes"
				}
			],
			"name": "merge",
			"outputs": [],
			"stateMutability": "nonpayable",
			"type": "function"
		},
		{
			"inputs": [
				{
					"internalType": "string",
					"name": "ranId",
					"type": "string"
				},
				{
					"internalType": "uint256",
					"name": "randomNumber",
					"type": "uint256"
				},
				{
					"internalType": "bytes",
					"name": "ranSignature",
					"type": "bytes"
				}
			],
			"name": "mint",
			"outputs": [],
			"stateMutability": "payable",
			"type": "function"
		},
		{
			"inputs": [
				{
					"internalType": "address",
					"name": "to",
					"type": "address"
				},
				{
					"internalType": "uint256[]",
					"name": "ids",
					"type": "uint256[]"
				},
				{
					"internalType": "uint256[]",
					"name": "amounts",
					"type": "uint256[]"
				},
				{
					"internalType": "bytes",
					"name": "data",
					"type": "bytes"
				}
			],
			"name": "mintBatch",
			"outputs": [],
			"stateMutability": "nonpayable",
			"type": "function"
		},
		{
			"inputs": [],
			"name": "owner",
			"outputs": [
				{
					"internalType": "address",
					"name": "",
					"type": "address"
				}
			],
			"stateMutability": "view",
			"type": "function"
		},
		{
			"inputs": [],
			"name": "pause",
			"outputs": [],
			"stateMutability": "nonpayable",
			"type": "function"
		},
		{
			"inputs": [],
			"name": "pauseSale",
			"outputs": [],
			"stateMutability": "nonpayable",
			"type": "function"
		},
		{
			"inputs": [],
			"name": "paused",
			"outputs": [
				{
					"internalType": "bool",
					"name": "",
					"type": "bool"
				}
			],
			"stateMutability": "view",
			"type": "function"
		},
		{
			"inputs": [
				{
					"internalType": "address",
					"name": "dest",
					"type": "address"
				}
			],
			"name": "payments",
			"outputs": [
				{
					"internalType": "uint256",
					"name": "",
					"type": "uint256"
				}
			],
			"stateMutability": "view",
			"type": "function"
		},
		{
			"inputs": [
				{
					"internalType": "string",
					"name": "_value",
					"type": "string"
				},
				{
					"internalType": "uint256",
					"name": "_id",
					"type": "uint256"
				}
			],
			"name": "permanentURI",
			"outputs": [],
			"stateMutability": "nonpayable",
			"type": "function"
		},
		{
			"inputs": [
				{
					"internalType": "string",
					"name": "",
					"type": "string"
				}
			],
			"name": "ranConsumed",
			"outputs": [
				{
					"internalType": "uint256",
					"name": "",
					"type": "uint256"
				}
			],
			"stateMutability": "view",
			"type": "function"
		},
		{
			"inputs": [],
			"name": "renounceOwnership",
			"outputs": [],
			"stateMutability": "nonpayable",
			"type": "function"
		},
		{
			"inputs": [
				{
					"internalType": "address",
					"name": "from",
					"type": "address"
				},
				{
					"internalType": "address",
					"name": "to",
					"type": "address"
				},
				{
					"internalType": "uint256[]",
					"name": "ids",
					"type": "uint256[]"
				},
				{
					"internalType": "uint256[]",
					"name": "amounts",
					"type": "uint256[]"
				},
				{
					"internalType": "bytes",
					"name": "data",
					"type": "bytes"
				}
			],
			"name": "safeBatchTransferFrom",
			"outputs": [],
			"stateMutability": "nonpayable",
			"type": "function"
		},
		{
			"inputs": [
				{
					"internalType": "address",
					"name": "from",
					"type": "address"
				},
				{
					"internalType": "address",
					"name": "to",
					"type": "address"
				},
				{
					"internalType": "uint256",
					"name": "id",
					"type": "uint256"
				},
				{
					"internalType": "uint256",
					"name": "amount",
					"type": "uint256"
				},
				{
					"internalType": "bytes",
					"name": "data",
					"type": "bytes"
				}
			],
			"name": "safeTransferFrom",
			"outputs": [],
			"stateMutability": "nonpayable",
			"type": "function"
		},
		{
			"inputs": [
				{
					"internalType": "address",
					"name": "operator",
					"type": "address"
				},
				{
					"internalType": "bool",
					"name": "approved",
					"type": "bool"
				}
			],
			"name": "setApprovalForAll",
			"outputs": [],
			"stateMutability": "nonpayable",
			"type": "function"
		},
		{
			"inputs": [
				{
					"internalType": "uint256",
					"name": "_cost_per_token_set",
					"type": "uint256"
				}
			],
			"name": "setCost",
			"outputs": [],
			"stateMutability": "nonpayable",
			"type": "function"
		},
		{
			"inputs": [
				{
					"internalType": "uint256",
					"name": "_costFactor",
					"type": "uint256"
				}
			],
			"name": "setCostFactor",
			"outputs": [],
			"stateMutability": "nonpayable",
			"type": "function"
		},
		{
			"inputs": [
				{
					"internalType": "uint256",
					"name": "max_mints",
					"type": "uint256"
				}
			],
			"name": "setMaxMints",
			"outputs": [],
			"stateMutability": "nonpayable",
			"type": "function"
		},
		{
			"inputs": [
				{
					"internalType": "address",
					"name": "_proxyAddress",
					"type": "address"
				}
			],
			"name": "setProxy",
			"outputs": [],
			"stateMutability": "nonpayable",
			"type": "function"
		},
		{
			"inputs": [
				{
					"internalType": "address",
					"name": "ranSignerAddress_",
					"type": "address"
				}
			],
			"name": "setRanSigner",
			"outputs": [],
			"stateMutability": "nonpayable",
			"type": "function"
		},
		{
			"inputs": [
				{
					"internalType": "address",
					"name": "signerAddress_",
					"type": "address"
				}
			],
			"name": "setSigner",
			"outputs": [],
			"stateMutability": "nonpayable",
			"type": "function"
		},
		{
			"inputs": [
				{
					"internalType": "string",
					"name": "_storeMetaURL",
					"type": "string"
				}
			],
			"name": "setStoreMetaURL",
			"outputs": [],
			"stateMutability": "nonpayable",
			"type": "function"
		},
		{
			"inputs": [
				{
					"internalType": "uint256",
					"name": "tokenId",
					"type": "uint256"
				},
				{
					"internalType": "string",
					"name": "tokenURI",
					"type": "string"
				}
			],
			"name": "setTokenURI",
			"outputs": [],
			"stateMutability": "nonpayable",
			"type": "function"
		},
		{
			"inputs": [
				{
					"internalType": "string",
					"name": "newuri",
					"type": "string"
				}
			],
			"name": "setURI",
			"outputs": [],
			"stateMutability": "nonpayable",
			"type": "function"
		},
		{
			"inputs": [
				{
					"internalType": "uint256",
					"name": "id",
					"type": "uint256"
				},
				{
					"internalType": "bytes",
					"name": "data",
					"type": "bytes"
				}
			],
			"name": "split",
			"outputs": [],
			"stateMutability": "nonpayable",
			"type": "function"
		},
		{
			"inputs": [],
			"name": "startSale",
			"outputs": [],
			"stateMutability": "nonpayable",
			"type": "function"
		},
		{
			"inputs": [
				{
					"internalType": "bytes4",
					"name": "interfaceId",
					"type": "bytes4"
				}
			],
			"name": "supportsInterface",
			"outputs": [
				{
					"internalType": "bool",
					"name": "",
					"type": "bool"
				}
			],
			"stateMutability": "view",
			"type": "function"
		},
		{
			"inputs": [
				{
					"internalType": "uint256",
					"name": "id",
					"type": "uint256"
				}
			],
			"name": "totalSupply",
			"outputs": [
				{
					"internalType": "uint256",
					"name": "",
					"type": "uint256"
				}
			],
			"stateMutability": "view",
			"type": "function"
		},
		{
			"inputs": [
				{
					"internalType": "address",
					"name": "newOwner",
					"type": "address"
				}
			],
			"name": "transferOwnership",
			"outputs": [],
			"stateMutability": "nonpayable",
			"type": "function"
		},
		{
			"inputs": [],
			"name": "unpause",
			"outputs": [],
			"stateMutability": "nonpayable",
			"type": "function"
		},
		{
			"inputs": [
				{
					"internalType": "uint256",
					"name": "tokenId",
					"type": "uint256"
				}
			],
			"name": "uri",
			"outputs": [
				{
					"internalType": "string",
					"name": "",
					"type": "string"
				}
			],
			"stateMutability": "view",
			"type": "function"
		},
		{
			"inputs": [
				{
					"internalType": "address payable",
					"name": "payee",
					"type": "address"
				}
			],
			"name": "withdrawPayments",
			"outputs": [],
			"stateMutability": "nonpayable",
			"type": "function"
		},
		{
			"inputs": [
				{
					"internalType": "string",
					"name": "",
					"type": "string"
				}
			],
			"name": "wlConsumed",
			"outputs": [
				{
					"internalType": "uint256",
					"name": "",
					"type": "uint256"
				}
			],
			"stateMutability": "view",
			"type": "function"
		},
		{
			"inputs": [
				{
					"internalType": "string",
					"name": "wlId",
					"type": "string"
				},
				{
					"internalType": "uint256",
					"name": "maxWLTokenNum",
					"type": "uint256"
				},
				{
					"internalType": "bytes",
					"name": "wlSignature",
					"type": "bytes"
				},
				{
					"internalType": "string",
					"name": "ranId",
					"type": "string"
				},
				{
					"internalType": "uint256",
					"name": "randomNumber",
					"type": "uint256"
				},
				{
					"internalType": "bytes",
					"name": "ranSignature",
					"type": "bytes"
				}
			],
			"name": "wlMint",
			"outputs": [],
			"stateMutability": "payable",
			"type": "function"
		}
	]
}