{
	"data": {
		"bytecode": {
			"linkReferences": {},
			"object": "60806040526040518060600160405280602b815260200162005029602b91396006908051906020019062000035929190620001f7565b506203200060075573f57b2c51ded3a29e6891aba85459d600256cf317600860006101000a81548173ffffffffffffffffffffffffffffffffffffffff021916908373ffffffffffffffffffffffffffffffffffffffff1602179055503480156200009f57600080fd5b506040518060600160405280602981526020016200505460299139620000cb816200010d60201b60201c565b50620000ec620000e06200012960201b60201c565b6200013160201b60201c565b6000600360146101000a81548160ff0219169083151502179055506200030c565b806002908051906020019062000125929190620001f7565b5050565b600033905090565b6000600360009054906101000a900473ffffffffffffffffffffffffffffffffffffffff16905081600360006101000a81548173ffffffffffffffffffffffffffffffffffffffff021916908373ffffffffffffffffffffffffffffffffffffffff1602179055508173ffffffffffffffffffffffffffffffffffffffff168173ffffffffffffffffffffffffffffffffffffffff167f8be0079c531659141344cd1fd0a4f28419497f9722a3daafe3b4186f6b6457e060405160405180910390a35050565b8280546200020590620002a7565b90600052602060002090601f01602090048101928262000229576000855562000275565b82601f106200024457805160ff191683800117855562000275565b8280016001018555821562000275579182015b828111156200027457825182559160200191906001019062000257565b5b50905062000284919062000288565b5090565b5b80821115620002a357600081600090555060010162000289565b5090565b60006002820490506001821680620002c057607f821691505b60208210811415620002d757620002d6620002dd565b5b50919050565b7f4e487b7100000000000000000000000000000000000000000000000000000000600052602260045260246000fd5b614d0d806200031c6000396000f3fe608060405234801561001057600080fd5b50600436106101ce5760003560e01c80636b20c45411610104578063a22cb465116100a2578063e985e9c511610071578063e985e9c5146104d9578063f242432a14610509578063f2fde38b14610525578063f5298aca14610541576101ce565b8063a22cb46514610451578063bd85b0391461046d578063cce132d11461049d578063e8a3d485146104bb576101ce565b806379c9cb7b116100de57806379c9cb7b146103f15780638456cb591461040d5780638da5cb5b1461041757806397107d6d14610435576101ce565b80636b20c454146103af578063715018a6146103cb578063731133e9146103d5576101ce565b806330e995a6116101715780634e1273f41161014b5780634e1273f4146103155780634f558e79146103455780635a7256c7146103755780635c975abb14610391576101ce565b806330e995a6146102d35780633519628d146102ef5780633f4ba83a1461030b576101ce565b80630e89341c116101ad5780630e89341c1461024f578063162094c41461027f5780631f7fdffa1461029b5780632eb2c2d6146102b7576101ce565b8062fdd58e146101d357806301ffc9a71461020357806302fe530514610233575b600080fd5b6101ed60048036038101906101e891906136b6565b61055d565b6040516101fa919061423d565b60405180910390f35b61021d60048036038101906102189190613844565b610626565b60405161022a9190613fe0565b60405180910390f35b61024d6004803603810190610248919061389e565b610708565b005b61026960048036038101906102649190613943565b610790565b6040516102769190613ffb565b60405180910390f35b61029960048036038101906102949190613970565b6107a2565b005b6102b560048036038101906102b091906134ec565b61082c565b005b6102d160048036038101906102cc91906132fb565b6108f5565b005b6102ed60048036038101906102e8919061389e565b610996565b005b610309600480360381019061030491906135a7565b610a2c565b005b610313610a87565b005b61032f600480360381019061032a91906137cc565b610b0d565b60405161033c9190613f87565b60405180910390f35b61035f600480360381019061035a9190613943565b610c26565b60405161036c9190613fe0565b60405180910390f35b61038f600480360381019061038a91906138e7565b610c3a565b005b610399610cf2565b6040516103a69190613fe0565b60405180910390f35b6103c960048036038101906103c49190613461565b610d09565b005b6103d3610da6565b005b6103ef60048036038101906103ea9190613749565b610e2e565b005b61040b60048036038101906104069190613943565b610ef7565b005b610415610f7d565b005b61041f611003565b60405161042c9190613df7565b60405180910390f35b61044f600480360381019061044a919061328e565b61102d565b005b61046b60048036038101906104669190613676565b6110ed565b005b61048760048036038101906104829190613943565b611103565b604051610494919061423d565b60405180910390f35b6104a5611120565b6040516104b2919061423d565b60405180910390f35b6104c3611126565b6040516104d09190613ffb565b60405180910390f35b6104f360048036038101906104ee91906132bb565b6111b8565b6040516105009190613fe0565b60405180910390f35b610523600480360381019061051e91906133ca565b61122c565b005b61053f600480360381019061053a919061328e565b6112cd565b005b61055b600480360381019061055691906136f6565b6113c5565b005b60008073ffffffffffffffffffffffffffffffffffffffff168373ffffffffffffffffffffffffffffffffffffffff1614156105ce576040517f08c379a00000000000000000000000000000000000000000000000000000000081526004016105c59061407d565b60405180910390fd5b60008083815260200190815260200160002060008473ffffffffffffffffffffffffffffffffffffffff1673ffffffffffffffffffffffffffffffffffffffff16815260200190815260200160002054905092915050565b60007fd9b67a26000000000000000000000000000000000000000000000000000000007bffffffffffffffffffffffffffffffffffffffffffffffffffffffff1916827bffffffffffffffffffffffffffffffffffffffffffffffffffffffff191614806106f157507f0e89341c000000000000000000000000000000000000000000000000000000007bffffffffffffffffffffffffffffffffffffffffffffffffffffffff1916827bffffffffffffffffffffffffffffffffffffffffffffffffffffffff1916145b80610701575061070082611462565b5b9050919050565b6107106114cc565b73ffffffffffffffffffffffffffffffffffffffff1661072e611003565b73ffffffffffffffffffffffffffffffffffffffff1614610784576040517f08c379a000000000000000000000000000000000000000000000000000000000815260040161077b9061419d565b60405180910390fd5b61078d816114d4565b50565b606061079b826114ee565b9050919050565b6107aa6114cc565b73ffffffffffffffffffffffffffffffffffffffff166107c8611003565b73ffffffffffffffffffffffffffffffffffffffff161461081e576040517f08c379a00000000000000000000000000000000000000000000000000000000081526004016108159061419d565b60405180910390fd5b6108288282611637565b5050565b6108346114cc565b73ffffffffffffffffffffffffffffffffffffffff16610852611003565b73ffffffffffffffffffffffffffffffffffffffff16146108a8576040517f08c379a000000000000000000000000000000000000000000000000000000000815260040161089f9061419d565b60405180910390fd5b6108b484848484611663565b7f9d15fe863d6d778932c2425aab5de66f2fcc03f779b90c593d26ee152fbbe8718484846040516108e793929190613ed4565b60405180910390a150505050565b6108fd6114cc565b73ffffffffffffffffffffffffffffffffffffffff168573ffffffffffffffffffffffffffffffffffffffff16148061094357506109428561093d6114cc565b6111b8565b5b610982576040517f08c379a00000000000000000000000000000000000000000000000000000000081526004016109799061413d565b60405180910390fd5b61098f8585858585611881565b5050505050565b61099e6114cc565b73ffffffffffffffffffffffffffffffffffffffff166109bc611003565b73ffffffffffffffffffffffffffffffffffffffff1614610a12576040517f08c379a0000000000000000000000000000000000000000000000000000000008152600401610a099061419d565b60405180910390fd5b8060069080519060200190610a28929190612f66565b5050565b610a37858585611b95565b610a448583600184611e46565b7f25b428dfde728ccfaddad7e29e4ac23c24ed7fd1a6e3e3f91894a9a073f5dfff85836001604051610a7893929190613f19565b60405180910390a15050505050565b610a8f6114cc565b73ffffffffffffffffffffffffffffffffffffffff16610aad611003565b73ffffffffffffffffffffffffffffffffffffffff1614610b03576040517f08c379a0000000000000000000000000000000000000000000000000000000008152600401610afa9061419d565b60405180910390fd5b610b0b611fdc565b565b60608151835114610b53576040517f08c379a0000000000000000000000000000000000000000000000000000000008152600401610b4a906141dd565b60405180910390fd5b6000835167ffffffffffffffff811115610b7057610b6f614667565b5b604051908082528060200260200182016040528015610b9e5781602001602082028036833780820191505090505b50905060005b8451811015610c1b57610beb858281518110610bc357610bc2614638565b5b6020026020010151858381518110610bde57610bdd614638565b5b602002602001015161055d565b828281518110610bfe57610bfd614638565b5b60200260200101818152505080610c1490614591565b9050610ba4565b508091505092915050565b600080610c3283611103565b119050919050565b610c426114cc565b73ffffffffffffffffffffffffffffffffffffffff16610c60611003565b73ffffffffffffffffffffffffffffffffffffffff1614610cb6576040517f08c379a0000000000000000000000000000000000000000000000000000000008152600401610cad9061419d565b60405180910390fd5b807fa109ba539900bf1b633f956d63c96fc89b814c7287f7aa50a9216d0b5565720783604051610ce69190613ffb565b60405180910390a25050565b6000600360149054906101000a900460ff16905090565b610d116114cc565b73ffffffffffffffffffffffffffffffffffffffff168373ffffffffffffffffffffffffffffffffffffffff161480610d575750610d5683610d516114cc565b6111b8565b5b610d96576040517f08c379a0000000000000000000000000000000000000000000000000000000008152600401610d8d906140dd565b60405180910390fd5b610da1838383611b95565b505050565b610dae6114cc565b73ffffffffffffffffffffffffffffffffffffffff16610dcc611003565b73ffffffffffffffffffffffffffffffffffffffff1614610e22576040517f08c379a0000000000000000000000000000000000000000000000000000000008152600401610e199061419d565b60405180910390fd5b610e2c600061207e565b565b610e366114cc565b73ffffffffffffffffffffffffffffffffffffffff16610e54611003565b73ffffffffffffffffffffffffffffffffffffffff1614610eaa576040517f08c379a0000000000000000000000000000000000000000000000000000000008152600401610ea19061419d565b60405180910390fd5b610eb684848484611e46565b7f25b428dfde728ccfaddad7e29e4ac23c24ed7fd1a6e3e3f91894a9a073f5dfff848484604051610ee993929190613f50565b60405180910390a150505050565b610eff6114cc565b73ffffffffffffffffffffffffffffffffffffffff16610f1d611003565b73ffffffffffffffffffffffffffffffffffffffff1614610f73576040517f08c379a0000000000000000000000000000000000000000000000000000000008152600401610f6a9061419d565b60405180910390fd5b8060078190555050565b610f856114cc565b73ffffffffffffffffffffffffffffffffffffffff16610fa3611003565b73ffffffffffffffffffffffffffffffffffffffff1614610ff9576040517f08c379a0000000000000000000000000000000000000000000000000000000008152600401610ff09061419d565b60405180910390fd5b611001612144565b565b6000600360009054906101000a900473ffffffffffffffffffffffffffffffffffffffff16905090565b6110356114cc565b73ffffffffffffffffffffffffffffffffffffffff16611053611003565b73ffffffffffffffffffffffffffffffffffffffff16146110a9576040517f08c379a00000000000000000000000000000000000000000000000000000000081526004016110a09061419d565b60405180910390fd5b80600860006101000a81548173ffffffffffffffffffffffffffffffffffffffff021916908373ffffffffffffffffffffffffffffffffffffffff16021790555050565b6110ff6110f86114cc565b83836121e7565b5050565b600060046000838152602001908152602001600020549050919050565b60075481565b6060600680546111359061452e565b80601f01602080910402602001604051908101604052809291908181526020018280546111619061452e565b80156111ae5780601f10611183576101008083540402835291602001916111ae565b820191906000526020600020905b81548152906001019060200180831161119157829003601f168201915b5050505050905090565b6000600860009054906101000a900473ffffffffffffffffffffffffffffffffffffffff1673ffffffffffffffffffffffffffffffffffffffff168273ffffffffffffffffffffffffffffffffffffffff1614156112195760019050611226565b6112238383612354565b90505b92915050565b6112346114cc565b73ffffffffffffffffffffffffffffffffffffffff168573ffffffffffffffffffffffffffffffffffffffff16148061127a5750611279856112746114cc565b6111b8565b5b6112b9576040517f08c379a00000000000000000000000000000000000000000000000000000000081526004016112b0906140dd565b60405180910390fd5b6112c685858585856123e8565b5050505050565b6112d56114cc565b73ffffffffffffffffffffffffffffffffffffffff166112f3611003565b73ffffffffffffffffffffffffffffffffffffffff1614611349576040517f08c379a00000000000000000000000000000000000000000000000000000000081526004016113409061419d565b60405180910390fd5b600073ffffffffffffffffffffffffffffffffffffffff168173ffffffffffffffffffffffffffffffffffffffff1614156113b9576040517f08c379a00000000000000000000000000000000000000000000000000000000081526004016113b09061409d565b60405180910390fd5b6113c28161207e565b50565b6113cd6114cc565b73ffffffffffffffffffffffffffffffffffffffff168373ffffffffffffffffffffffffffffffffffffffff16148061141357506114128361140d6114cc565b6111b8565b5b611452576040517f08c379a0000000000000000000000000000000000000000000000000000000008152600401611449906140dd565b60405180910390fd5b61145d83838361266a565b505050565b60007f01ffc9a7000000000000000000000000000000000000000000000000000000007bffffffffffffffffffffffffffffffffffffffffffffffffffffffff1916827bffffffffffffffffffffffffffffffffffffffffffffffffffffffff1916149050919050565b600033905090565b80600290805190602001906114ea929190612f66565b5050565b606060006005600084815260200190815260200160002080546115109061452e565b80601f016020809104026020016040519081016040528092919081815260200182805461153c9061452e565b80156115895780601f1061155e57610100808354040283529160200191611589565b820191906000526020600020905b81548152906001019060200180831161156c57829003601f168201915b50505050509050600061159b84612887565b90506000815114156115d057816040516020016115b89190613dd5565b60405160208183030381529060405292505050611632565b6000825111156116055780826040516020016115ed929190613da6565b60405160208183030381529060405292505050611632565b61160e84612887565b60405160200161161e9190613dd5565b604051602081830303815290604052925050505b919050565b8060056000848152602001908152602001600020908051906020019061165e929190612f66565b505050565b600073ffffffffffffffffffffffffffffffffffffffff168473ffffffffffffffffffffffffffffffffffffffff1614156116d3576040517f08c379a00000000000000000000000000000000000000000000000000000000081526004016116ca9061421d565b60405180910390fd5b8151835114611717576040517f08c379a000000000000000000000000000000000000000000000000000000000815260040161170e906141fd565b60405180910390fd5b60006117216114cc565b90506117328160008787878761291b565b60005b84518110156117eb5783818151811061175157611750614638565b5b602002602001015160008087848151811061176f5761176e614638565b5b6020026020010151815260200190815260200160002060008873ffffffffffffffffffffffffffffffffffffffff1673ffffffffffffffffffffffffffffffffffffffff16815260200190815260200160002060008282546117d191906143dc565b9250508190555080806117e390614591565b915050611735565b508473ffffffffffffffffffffffffffffffffffffffff16600073ffffffffffffffffffffffffffffffffffffffff168273ffffffffffffffffffffffffffffffffffffffff167f4a39dc06d4c0dbc64b70af90fd698a233a518aa5d07e595d983b8c0526c8f7fb8787604051611863929190613fa9565b60405180910390a461187a81600087878787612979565b5050505050565b81518351146118c5576040517f08c379a00000000000000000000000000000000000000000000000000000000081526004016118bc906141fd565b60405180910390fd5b600073ffffffffffffffffffffffffffffffffffffffff168473ffffffffffffffffffffffffffffffffffffffff161415611935576040517f08c379a000000000000000000000000000000000000000000000000000000000815260040161192c9061411d565b60405180910390fd5b600061193f6114cc565b905061194f81878787878761291b565b60005b8451811015611b005760008582815181106119705761196f614638565b5b60200260200101519050600085838151811061198f5761198e614638565b5b60200260200101519050600080600084815260200190815260200160002060008b73ffffffffffffffffffffffffffffffffffffffff1673ffffffffffffffffffffffffffffffffffffffff16815260200190815260200160002054905081811015611a30576040517f08c379a0000000000000000000000000000000000000000000000000000000008152600401611a279061417d565b60405180910390fd5b81810360008085815260200190815260200160002060008c73ffffffffffffffffffffffffffffffffffffffff1673ffffffffffffffffffffffffffffffffffffffff168152602001908152602001600020819055508160008085815260200190815260200160002060008b73ffffffffffffffffffffffffffffffffffffffff1673ffffffffffffffffffffffffffffffffffffffff1681526020019081526020016000206000828254611ae591906143dc565b9250508190555050505080611af990614591565b9050611952565b508473ffffffffffffffffffffffffffffffffffffffff168673ffffffffffffffffffffffffffffffffffffffff168273ffffffffffffffffffffffffffffffffffffffff167f4a39dc06d4c0dbc64b70af90fd698a233a518aa5d07e595d983b8c0526c8f7fb8787604051611b77929190613fa9565b60405180910390a4611b8d818787878787612979565b505050505050565b600073ffffffffffffffffffffffffffffffffffffffff168373ffffffffffffffffffffffffffffffffffffffff161415611c05576040517f08c379a0000000000000000000000000000000000000000000000000000000008152600401611bfc9061415d565b60405180910390fd5b8051825114611c49576040517f08c379a0000000000000000000000000000000000000000000000000000000008152600401611c40906141fd565b60405180910390fd5b6000611c536114cc565b9050611c738185600086866040518060200160405280600081525061291b565b60005b8351811015611dc0576000848281518110611c9457611c93614638565b5b602002602001015190506000848381518110611cb357611cb2614638565b5b60200260200101519050600080600084815260200190815260200160002060008973ffffffffffffffffffffffffffffffffffffffff1673ffffffffffffffffffffffffffffffffffffffff16815260200190815260200160002054905081811015611d54576040517f08c379a0000000000000000000000000000000000000000000000000000000008152600401611d4b906140bd565b60405180910390fd5b81810360008085815260200190815260200160002060008a73ffffffffffffffffffffffffffffffffffffffff1673ffffffffffffffffffffffffffffffffffffffff168152602001908152602001600020819055505050508080611db890614591565b915050611c76565b50600073ffffffffffffffffffffffffffffffffffffffff168473ffffffffffffffffffffffffffffffffffffffff168273ffffffffffffffffffffffffffffffffffffffff167f4a39dc06d4c0dbc64b70af90fd698a233a518aa5d07e595d983b8c0526c8f7fb8686604051611e38929190613fa9565b60405180910390a450505050565b600073ffffffffffffffffffffffffffffffffffffffff168473ffffffffffffffffffffffffffffffffffffffff161415611eb6576040517f08c379a0000000000000000000000000000000000000000000000000000000008152600401611ead9061421d565b60405180910390fd5b6000611ec06114cc565b9050611ee181600087611ed288612b60565b611edb88612b60565b8761291b565b8260008086815260200190815260200160002060008773ffffffffffffffffffffffffffffffffffffffff1673ffffffffffffffffffffffffffffffffffffffff1681526020019081526020016000206000828254611f4091906143dc565b925050819055508473ffffffffffffffffffffffffffffffffffffffff16600073ffffffffffffffffffffffffffffffffffffffff168273ffffffffffffffffffffffffffffffffffffffff167fc3d58168c5ae7397731d063d5bbf3d657854427343f4c083240f7aacaa2d0f628787604051611fbe929190614258565b60405180910390a4611fd581600087878787612bda565b5050505050565b611fe4610cf2565b612023576040517f08c379a000000000000000000000000000000000000000000000000000000000815260040161201a9061405d565b60405180910390fd5b6000600360146101000a81548160ff0219169083151502179055507f5db9ee0a495bf2e6ff9c91a7834c1ba4fdd244a5e8aa4e537bd38aeae4b073aa6120676114cc565b6040516120749190613df7565b60405180910390a1565b6000600360009054906101000a900473ffffffffffffffffffffffffffffffffffffffff16905081600360006101000a81548173ffffffffffffffffffffffffffffffffffffffff021916908373ffffffffffffffffffffffffffffffffffffffff1602179055508173ffffffffffffffffffffffffffffffffffffffff168173ffffffffffffffffffffffffffffffffffffffff167f8be0079c531659141344cd1fd0a4f28419497f9722a3daafe3b4186f6b6457e060405160405180910390a35050565b61214c610cf2565b1561218c576040517f08c379a0000000000000000000000000000000000000000000000000000000008152600401612183906140fd565b60405180910390fd5b6001600360146101000a81548160ff0219169083151502179055507f62e78cea01bee320cd4e420270b5ea74000d11b0c9f74754ebdbfc544b05a2586121d06114cc565b6040516121dd9190613df7565b60405180910390a1565b8173ffffffffffffffffffffffffffffffffffffffff168373ffffffffffffffffffffffffffffffffffffffff161415612256576040517f08c379a000000000000000000000000000000000000000000000000000000000815260040161224d906141bd565b60405180910390fd5b80600160008573ffffffffffffffffffffffffffffffffffffffff1673ffffffffffffffffffffffffffffffffffffffff16815260200190815260200160002060008473ffffffffffffffffffffffffffffffffffffffff1673ffffffffffffffffffffffffffffffffffffffff16815260200190815260200160002060006101000a81548160ff0219169083151502179055508173ffffffffffffffffffffffffffffffffffffffff168373ffffffffffffffffffffffffffffffffffffffff167f17307eab39ab6107e8899845ad3d59bd9653f200f220920489ca2b5937696c31836040516123479190613fe0565b60405180910390a3505050565b6000600160008473ffffffffffffffffffffffffffffffffffffffff1673ffffffffffffffffffffffffffffffffffffffff16815260200190815260200160002060008373ffffffffffffffffffffffffffffffffffffffff1673ffffffffffffffffffffffffffffffffffffffff16815260200190815260200160002060009054906101000a900460ff16905092915050565b600073ffffffffffffffffffffffffffffffffffffffff168473ffffffffffffffffffffffffffffffffffffffff161415612458576040517f08c379a000000000000000000000000000000000000000000000000000000000815260040161244f9061411d565b60405180910390fd5b60006124626114cc565b905061248281878761247388612b60565b61247c88612b60565b8761291b565b600080600086815260200190815260200160002060008873ffffffffffffffffffffffffffffffffffffffff1673ffffffffffffffffffffffffffffffffffffffff16815260200190815260200160002054905083811015612519576040517f08c379a00000000000000000000000000000000000000000000000000000000081526004016125109061417d565b60405180910390fd5b83810360008087815260200190815260200160002060008973ffffffffffffffffffffffffffffffffffffffff1673ffffffffffffffffffffffffffffffffffffffff168152602001908152602001600020819055508360008087815260200190815260200160002060008873ffffffffffffffffffffffffffffffffffffffff1673ffffffffffffffffffffffffffffffffffffffff16815260200190815260200160002060008282546125ce91906143dc565b925050819055508573ffffffffffffffffffffffffffffffffffffffff168773ffffffffffffffffffffffffffffffffffffffff168373ffffffffffffffffffffffffffffffffffffffff167fc3d58168c5ae7397731d063d5bbf3d657854427343f4c083240f7aacaa2d0f62888860405161264b929190614258565b60405180910390a4612661828888888888612bda565b50505050505050565b600073ffffffffffffffffffffffffffffffffffffffff168373ffffffffffffffffffffffffffffffffffffffff1614156126da576040517f08c379a00000000000000000000000000000000000000000000000000000000081526004016126d19061415d565b60405180910390fd5b60006126e46114cc565b9050612714818560006126f687612b60565b6126ff87612b60565b6040518060200160405280600081525061291b565b600080600085815260200190815260200160002060008673ffffffffffffffffffffffffffffffffffffffff1673ffffffffffffffffffffffffffffffffffffffff168152602001908152602001600020549050828110156127ab576040517f08c379a00000000000000000000000000000000000000000000000000000000081526004016127a2906140bd565b60405180910390fd5b82810360008086815260200190815260200160002060008773ffffffffffffffffffffffffffffffffffffffff1673ffffffffffffffffffffffffffffffffffffffff16815260200190815260200160002081905550600073ffffffffffffffffffffffffffffffffffffffff168573ffffffffffffffffffffffffffffffffffffffff168373ffffffffffffffffffffffffffffffffffffffff167fc3d58168c5ae7397731d063d5bbf3d657854427343f4c083240f7aacaa2d0f628787604051612878929190614258565b60405180910390a45050505050565b6060600280546128969061452e565b80601f01602080910402602001604051908101604052809291908181526020018280546128c29061452e565b801561290f5780601f106128e45761010080835404028352916020019161290f565b820191906000526020600020905b8154815290600101906020018083116128f257829003601f168201915b50505050509050919050565b612923610cf2565b15612963576040517f08c379a000000000000000000000000000000000000000000000000000000000815260040161295a906140fd565b60405180910390fd5b612971868686868686612dc1565b505050505050565b6129988473ffffffffffffffffffffffffffffffffffffffff16612f3b565b15612b58578373ffffffffffffffffffffffffffffffffffffffff1663bc197c8187878686866040518663ffffffff1660e01b81526004016129de959493929190613e12565b602060405180830381600087803b1580156129f857600080fd5b505af1925050508015612a2957506040513d601f19601f82011682018060405250810190612a269190613871565b60015b612acf57612a35614696565b806308c379a01415612a925750612a4a614be5565b80612a555750612a94565b806040517f08c379a0000000000000000000000000000000000000000000000000000000008152600401612a899190613ffb565b60405180910390fd5b505b6040517f08c379a0000000000000000000000000000000000000000000000000000000008152600401612ac69061401d565b60405180910390fd5b63bc197c8160e01b7bffffffffffffffffffffffffffffffffffffffffffffffffffffffff1916817bffffffffffffffffffffffffffffffffffffffffffffffffffffffff191614612b56576040517f08c379a0000000000000000000000000000000000000000000000000000000008152600401612b4d9061403d565b60405180910390fd5b505b505050505050565b60606000600167ffffffffffffffff811115612b7f57612b7e614667565b5b604051908082528060200260200182016040528015612bad5781602001602082028036833780820191505090505b5090508281600081518110612bc557612bc4614638565b5b60200260200101818152505080915050919050565b612bf98473ffffffffffffffffffffffffffffffffffffffff16612f3b565b15612db9578373ffffffffffffffffffffffffffffffffffffffff1663f23a6e6187878686866040518663ffffffff1660e01b8152600401612c3f959493929190613e7a565b602060405180830381600087803b158015612c5957600080fd5b505af1925050508015612c8a57506040513d601f19601f82011682018060405250810190612c879190613871565b60015b612d3057612c96614696565b806308c379a01415612cf35750612cab614be5565b80612cb65750612cf5565b806040517f08c379a0000000000000000000000000000000000000000000000000000000008152600401612cea9190613ffb565b60405180910390fd5b505b6040517f08c379a0000000000000000000000000000000000000000000000000000000008152600401612d279061401d565b60405180910390fd5b63f23a6e6160e01b7bffffffffffffffffffffffffffffffffffffffffffffffffffffffff1916817bffffffffffffffffffffffffffffffffffffffffffffffffffffffff191614612db7576040517f08c379a0000000000000000000000000000000000000000000000000000000008152600401612dae9061403d565b60405180910390fd5b505b505050505050565b612dcf868686868686612f5e565b600073ffffffffffffffffffffffffffffffffffffffff168573ffffffffffffffffffffffffffffffffffffffff161415612e815760005b8351811015612e7f57828181518110612e2357612e22614638565b5b602002602001015160046000868481518110612e4257612e41614638565b5b602002602001015181526020019081526020016000206000828254612e6791906143dc565b9250508190555080612e7890614591565b9050612e07565b505b600073ffffffffffffffffffffffffffffffffffffffff168473ffffffffffffffffffffffffffffffffffffffff161415612f335760005b8351811015612f3157828181518110612ed557612ed4614638565b5b602002602001015160046000868481518110612ef457612ef3614638565b5b602002602001015181526020019081526020016000206000828254612f199190614432565b9250508190555080612f2a90614591565b9050612eb9565b505b505050505050565b6000808273ffffffffffffffffffffffffffffffffffffffff163b119050919050565b505050505050565b828054612f729061452e565b90600052602060002090601f016020900481019282612f945760008555612fdb565b82601f10612fad57805160ff1916838001178555612fdb565b82800160010185558215612fdb579182015b82811115612fda578251825591602001919060010190612fbf565b5b509050612fe89190612fec565b5090565b5b80821115613005576000816000905550600101612fed565b5090565b600061301c613017846142a6565b614281565b9050808382526020820190508285602086028201111561303f5761303e6146bd565b5b60005b8581101561306f5781613055888261316d565b845260208401935060208301925050600181019050613042565b5050509392505050565b600061308c613087846142d2565b614281565b905080838252602082019050828560208602820111156130af576130ae6146bd565b5b60005b858110156130df57816130c58882613279565b8452602084019350602083019250506001810190506130b2565b5050509392505050565b60006130fc6130f7846142fe565b614281565b905082815260208101848484011115613118576131176146c2565b5b6131238482856144ec565b509392505050565b600061313e6131398461432f565b614281565b90508281526020810184848401111561315a576131596146c2565b5b6131658482856144ec565b509392505050565b60008135905061317c81614c7b565b92915050565b600082601f830112613197576131966146b8565b5b81356131a7848260208601613009565b91505092915050565b600082601f8301126131c5576131c46146b8565b5b81356131d5848260208601613079565b91505092915050565b6000813590506131ed81614c92565b92915050565b60008135905061320281614ca9565b92915050565b60008151905061321781614ca9565b92915050565b600082601f830112613232576132316146b8565b5b81356132428482602086016130e9565b91505092915050565b600082601f8301126132605761325f6146b8565b5b813561327084826020860161312b565b91505092915050565b60008135905061328881614cc0565b92915050565b6000602082840312156132a4576132a36146cc565b5b60006132b28482850161316d565b91505092915050565b600080604083850312156132d2576132d16146cc565b5b60006132e08582860161316d565b92505060206132f18582860161316d565b9150509250929050565b600080600080600060a08688031215613317576133166146cc565b5b60006133258882890161316d565b95505060206133368882890161316d565b945050604086013567ffffffffffffffff811115613357576133566146c7565b5b613363888289016131b0565b935050606086013567ffffffffffffffff811115613384576133836146c7565b5b613390888289016131b0565b925050608086013567ffffffffffffffff8111156133b1576133b06146c7565b5b6133bd8882890161321d565b9150509295509295909350565b600080600080600060a086880312156133e6576133e56146cc565b5b60006133f48882890161316d565b95505060206134058882890161316d565b945050604061341688828901613279565b935050606061342788828901613279565b925050608086013567ffffffffffffffff811115613448576134476146c7565b5b6134548882890161321d565b9150509295509295909350565b60008060006060848603121561347a576134796146cc565b5b60006134888682870161316d565b935050602084013567ffffffffffffffff8111156134a9576134a86146c7565b5b6134b5868287016131b0565b925050604084013567ffffffffffffffff8111156134d6576134d56146c7565b5b6134e2868287016131b0565b9150509250925092565b60008060008060808587031215613506576135056146cc565b5b60006135148782880161316d565b945050602085013567ffffffffffffffff811115613535576135346146c7565b5b613541878288016131b0565b935050604085013567ffffffffffffffff811115613562576135616146c7565b5b61356e878288016131b0565b925050606085013567ffffffffffffffff81111561358f5761358e6146c7565b5b61359b8782880161321d565b91505092959194509250565b600080600080600060a086880312156135c3576135c26146cc565b5b60006135d18882890161316d565b955050602086013567ffffffffffffffff8111156135f2576135f16146c7565b5b6135fe888289016131b0565b945050604086013567ffffffffffffffff81111561361f5761361e6146c7565b5b61362b888289016131b0565b935050606061363c88828901613279565b925050608086013567ffffffffffffffff81111561365d5761365c6146c7565b5b6136698882890161321d565b9150509295509295909350565b6000806040838503121561368d5761368c6146cc565b5b600061369b8582860161316d565b92505060206136ac858286016131de565b9150509250929050565b600080604083850312156136cd576136cc6146cc565b5b60006136db8582860161316d565b92505060206136ec85828601613279565b9150509250929050565b60008060006060848603121561370f5761370e6146cc565b5b600061371d8682870161316d565b935050602061372e86828701613279565b925050604061373f86828701613279565b9150509250925092565b60008060008060808587031215613763576137626146cc565b5b60006137718782880161316d565b945050602061378287828801613279565b935050604061379387828801613279565b925050606085013567ffffffffffffffff8111156137b4576137b36146c7565b5b6137c08782880161321d565b91505092959194509250565b600080604083850312156137e3576137e26146cc565b5b600083013567ffffffffffffffff811115613801576138006146c7565b5b61380d85828601613182565b925050602083013567ffffffffffffffff81111561382e5761382d6146c7565b5b61383a858286016131b0565b9150509250929050565b60006020828403121561385a576138596146cc565b5b6000613868848285016131f3565b91505092915050565b600060208284031215613887576138866146cc565b5b600061389584828501613208565b91505092915050565b6000602082840312156138b4576138b36146cc565b5b600082013567ffffffffffffffff8111156138d2576138d16146c7565b5b6138de8482850161324b565b91505092915050565b600080604083850312156138fe576138fd6146cc565b5b600083013567ffffffffffffffff81111561391c5761391b6146c7565b5b6139288582860161324b565b925050602061393985828601613279565b9150509250929050565b600060208284031215613959576139586146cc565b5b600061396784828501613279565b91505092915050565b60008060408385031215613987576139866146cc565b5b600061399585828601613279565b925050602083013567ffffffffffffffff8111156139b6576139b56146c7565b5b6139c28582860161324b565b9150509250929050565b60006139d88383613d88565b60208301905092915050565b6139ed81614466565b82525050565b60006139fe82614370565b613a08818561439e565b9350613a1383614360565b8060005b83811015613a44578151613a2b88826139cc565b9750613a3683614391565b925050600181019050613a17565b5085935050505092915050565b613a5a81614478565b82525050565b6000613a6b8261437b565b613a7581856143af565b9350613a858185602086016144fb565b613a8e816146d1565b840191505092915050565b613aa2816144da565b82525050565b6000613ab382614386565b613abd81856143c0565b9350613acd8185602086016144fb565b613ad6816146d1565b840191505092915050565b6000613aec82614386565b613af681856143d1565b9350613b068185602086016144fb565b80840191505092915050565b6000613b1f6034836143c0565b9150613b2a826146ef565b604082019050919050565b6000613b426028836143c0565b9150613b4d8261473e565b604082019050919050565b6000613b656014836143c0565b9150613b708261478d565b602082019050919050565b6000613b88602b836143c0565b9150613b93826147b6565b604082019050919050565b6000613bab6026836143c0565b9150613bb682614805565b604082019050919050565b6000613bce6024836143c0565b9150613bd982614854565b604082019050919050565b6000613bf16029836143c0565b9150613bfc826148a3565b604082019050919050565b6000613c146010836143c0565b9150613c1f826148f2565b602082019050919050565b6000613c376025836143c0565b9150613c428261491b565b604082019050919050565b6000613c5a6032836143c0565b9150613c658261496a565b604082019050919050565b6000613c7d6023836143c0565b9150613c88826149b9565b604082019050919050565b6000613ca0602a836143c0565b9150613cab82614a08565b604082019050919050565b6000613cc36020836143c0565b9150613cce82614a57565b602082019050919050565b6000613ce66004836143d1565b9150613cf182614a80565b600482019050919050565b6000613d096029836143c0565b9150613d1482614aa9565b604082019050919050565b6000613d2c6029836143c0565b9150613d3782614af8565b604082019050919050565b6000613d4f6028836143c0565b9150613d5a82614b47565b604082019050919050565b6000613d726021836143c0565b9150613d7d82614b96565b604082019050919050565b613d91816144d0565b82525050565b613da0816144d0565b82525050565b6000613db28285613ae1565b9150613dbe8284613ae1565b9150613dc982613cd9565b91508190509392505050565b6000613de18284613ae1565b9150613dec82613cd9565b915081905092915050565b6000602082019050613e0c60008301846139e4565b92915050565b600060a082019050613e2760008301886139e4565b613e3460208301876139e4565b8181036040830152613e4681866139f3565b90508181036060830152613e5a81856139f3565b90508181036080830152613e6e8184613a60565b90509695505050505050565b600060a082019050613e8f60008301886139e4565b613e9c60208301876139e4565b613ea96040830186613d97565b613eb66060830185613d97565b8181036080830152613ec88184613a60565b90509695505050505050565b6000606082019050613ee960008301866139e4565b8181036020830152613efb81856139f3565b90508181036040830152613f0f81846139f3565b9050949350505050565b6000606082019050613f2e60008301866139e4565b613f3b6020830185613d97565b613f486040830184613a99565b949350505050565b6000606082019050613f6560008301866139e4565b613f726020830185613d97565b613f7f6040830184613d97565b949350505050565b60006020820190508181036000830152613fa181846139f3565b905092915050565b60006040820190508181036000830152613fc381856139f3565b90508181036020830152613fd781846139f3565b90509392505050565b6000602082019050613ff56000830184613a51565b92915050565b600060208201905081810360008301526140158184613aa8565b905092915050565b6000602082019050818103600083015261403681613b12565b9050919050565b6000602082019050818103600083015261405681613b35565b9050919050565b6000602082019050818103600083015261407681613b58565b9050919050565b6000602082019050818103600083015261409681613b7b565b9050919050565b600060208201905081810360008301526140b681613b9e565b9050919050565b600060208201905081810360008301526140d681613bc1565b9050919050565b600060208201905081810360008301526140f681613be4565b9050919050565b6000602082019050818103600083015261411681613c07565b9050919050565b6000602082019050818103600083015261413681613c2a565b9050919050565b6000602082019050818103600083015261415681613c4d565b9050919050565b6000602082019050818103600083015261417681613c70565b9050919050565b6000602082019050818103600083015261419681613c93565b9050919050565b600060208201905081810360008301526141b681613cb6565b9050919050565b600060208201905081810360008301526141d681613cfc565b9050919050565b600060208201905081810360008301526141f681613d1f565b9050919050565b6000602082019050818103600083015261421681613d42565b9050919050565b6000602082019050818103600083015261423681613d65565b9050919050565b60006020820190506142526000830184613d97565b92915050565b600060408201905061426d6000830185613d97565b61427a6020830184613d97565b9392505050565b600061428b61429c565b90506142978282614560565b919050565b6000604051905090565b600067ffffffffffffffff8211156142c1576142c0614667565b5b602082029050602081019050919050565b600067ffffffffffffffff8211156142ed576142ec614667565b5b602082029050602081019050919050565b600067ffffffffffffffff82111561431957614318614667565b5b614322826146d1565b9050602081019050919050565b600067ffffffffffffffff82111561434a57614349614667565b5b614353826146d1565b9050602081019050919050565b6000819050602082019050919050565b600081519050919050565b600081519050919050565b600081519050919050565b6000602082019050919050565b600082825260208201905092915050565b600082825260208201905092915050565b600082825260208201905092915050565b600081905092915050565b60006143e7826144d0565b91506143f2836144d0565b9250827fffffffffffffffffffffffffffffffffffffffffffffffffffffffffffffffff03821115614427576144266145da565b5b828201905092915050565b600061443d826144d0565b9150614448836144d0565b92508282101561445b5761445a6145da565b5b828203905092915050565b6000614471826144b0565b9050919050565b60008115159050919050565b60007fffffffff0000000000000000000000000000000000000000000000000000000082169050919050565b600073ffffffffffffffffffffffffffffffffffffffff82169050919050565b6000819050919050565b60006144e5826144d0565b9050919050565b82818337600083830152505050565b60005b838110156145195780820151818401526020810190506144fe565b83811115614528576000848401525b50505050565b6000600282049050600182168061454657607f821691505b6020821081141561455a57614559614609565b5b50919050565b614569826146d1565b810181811067ffffffffffffffff8211171561458857614587614667565b5b80604052505050565b600061459c826144d0565b91507fffffffffffffffffffffffffffffffffffffffffffffffffffffffffffffffff8214156145cf576145ce6145da565b5b600182019050919050565b7f4e487b7100000000000000000000000000000000000000000000000000000000600052601160045260246000fd5b7f4e487b7100000000000000000000000000000000000000000000000000000000600052602260045260246000fd5b7f4e487b7100000000000000000000000000000000000000000000000000000000600052603260045260246000fd5b7f4e487b7100000000000000000000000000000000000000000000000000000000600052604160045260246000fd5b600060033d11156146b55760046000803e6146b26000516146e2565b90505b90565b600080fd5b600080fd5b600080fd5b600080fd5b600080fd5b6000601f19601f8301169050919050565b60008160e01c9050919050565b7f455243313135353a207472616e7366657220746f206e6f6e204552433131353560008201527f526563656976657220696d706c656d656e746572000000000000000000000000602082015250565b7f455243313135353a204552433131353552656365697665722072656a6563746560008201527f6420746f6b656e73000000000000000000000000000000000000000000000000602082015250565b7f5061757361626c653a206e6f7420706175736564000000000000000000000000600082015250565b7f455243313135353a2062616c616e636520717565727920666f7220746865207a60008201527f65726f2061646472657373000000000000000000000000000000000000000000602082015250565b7f4f776e61626c653a206e6577206f776e657220697320746865207a65726f206160008201527f6464726573730000000000000000000000000000000000000000000000000000602082015250565b7f455243313135353a206275726e20616d6f756e7420657863656564732062616c60008201527f616e636500000000000000000000000000000000000000000000000000000000602082015250565b7f455243313135353a2063616c6c6572206973206e6f74206f776e6572206e6f7260008201527f20617070726f7665640000000000000000000000000000000000000000000000602082015250565b7f5061757361626c653a2070617573656400000000000000000000000000000000600082015250565b7f455243313135353a207472616e7366657220746f20746865207a65726f20616460008201527f6472657373000000000000000000000000000000000000000000000000000000602082015250565b7f455243313135353a207472616e736665722063616c6c6572206973206e6f742060008201527f6f776e6572206e6f7220617070726f7665640000000000000000000000000000602082015250565b7f455243313135353a206275726e2066726f6d20746865207a65726f206164647260008201527f6573730000000000000000000000000000000000000000000000000000000000602082015250565b7f455243313135353a20696e73756666696369656e742062616c616e636520666f60008201527f72207472616e7366657200000000000000000000000000000000000000000000602082015250565b7f4f776e61626c653a2063616c6c6572206973206e6f7420746865206f776e6572600082015250565b7f7b69647d00000000000000000000000000000000000000000000000000000000600082015250565b7f455243313135353a2073657474696e6720617070726f76616c2073746174757360008201527f20666f722073656c660000000000000000000000000000000000000000000000602082015250565b7f455243313135353a206163636f756e747320616e6420696473206c656e67746860008201527f206d69736d617463680000000000000000000000000000000000000000000000602082015250565b7f455243313135353a2069647320616e6420616d6f756e7473206c656e6774682060008201527f6d69736d61746368000000000000000000000000000000000000000000000000602082015250565b7f455243313135353a206d696e7420746f20746865207a65726f2061646472657360008201527f7300000000000000000000000000000000000000000000000000000000000000602082015250565b600060443d1015614bf557614c78565b614bfd61429c565b60043d036004823e80513d602482011167ffffffffffffffff82111715614c25575050614c78565b808201805167ffffffffffffffff811115614c435750505050614c78565b80602083010160043d038501811115614c60575050505050614c78565b614c6f82602001850186614560565b82955050505050505b90565b614c8481614466565b8114614c8f57600080fd5b50565b614c9b81614478565b8114614ca657600080fd5b50565b614cb281614484565b8114614cbd57600080fd5b50565b614cc9816144d0565b8114614cd457600080fd5b5056fea2646970667358221220bd415e696252e9546499871808aa6655079c5c8f9c8ab98889b44eb355a9bf8e64736f6c6343000807003368747470733a2f2f6d657461707974686f6e2e6865726f6b756170702e636f6d2f6170692f73746f72652f68747470733a2f2f6d657461707974686f6e2e6865726f6b756170702e636f6d2f6170692f626f782f",
			"opcodes": "PUSH1 0x80 PUSH1 0x40 MSTORE PUSH1 0x40 MLOAD DUP1 PUSH1 0x60 ADD PUSH1 0x40 MSTORE DUP1 PUSH1 0x2B DUP2 MSTORE PUSH1 0x20 ADD PUSH3 0x5029 PUSH1 0x2B SWAP2 CODECOPY PUSH1 0x6 SWAP1 DUP1 MLOAD SWAP1 PUSH1 0x20 ADD SWAP1 PUSH3 0x35 SWAP3 SWAP2 SWAP1 PUSH3 0x1F7 JUMP JUMPDEST POP PUSH3 0x32000 PUSH1 0x7 SSTORE PUSH20 0xF57B2C51DED3A29E6891ABA85459D600256CF317 PUSH1 0x8 PUSH1 0x0 PUSH2 0x100 EXP DUP2 SLOAD DUP2 PUSH20 0xFFFFFFFFFFFFFFFFFFFFFFFFFFFFFFFFFFFFFFFF MUL NOT AND SWAP1 DUP4 PUSH20 0xFFFFFFFFFFFFFFFFFFFFFFFFFFFFFFFFFFFFFFFF AND MUL OR SWAP1 SSTORE POP CALLVALUE DUP1 ISZERO PUSH3 0x9F JUMPI PUSH1 0x0 DUP1 REVERT JUMPDEST POP PUSH1 0x40 MLOAD DUP1 PUSH1 0x60 ADD PUSH1 0x40 MSTORE DUP1 PUSH1 0x29 DUP2 MSTORE PUSH1 0x20 ADD PUSH3 0x5054 PUSH1 0x29 SWAP2 CODECOPY PUSH3 0xCB DUP2 PUSH3 0x10D PUSH1 0x20 SHL PUSH1 0x20 SHR JUMP JUMPDEST POP PUSH3 0xEC PUSH3 0xE0 PUSH3 0x129 PUSH1 0x20 SHL PUSH1 0x20 SHR JUMP JUMPDEST PUSH3 0x131 PUSH1 0x20 SHL PUSH1 0x20 SHR JUMP JUMPDEST PUSH1 0x0 PUSH1 0x3 PUSH1 0x14 PUSH2 0x100 EXP DUP2 SLOAD DUP2 PUSH1 0xFF MUL NOT AND SWAP1 DUP4 ISZERO ISZERO MUL OR SWAP1 SSTORE POP PUSH3 0x30C JUMP JUMPDEST DUP1 PUSH1 0x2 SWAP1 DUP1 MLOAD SWAP1 PUSH1 0x20 ADD SWAP1 PUSH3 0x125 SWAP3 SWAP2 SWAP1 PUSH3 0x1F7 JUMP JUMPDEST POP POP JUMP JUMPDEST PUSH1 0x0 CALLER SWAP1 POP SWAP1 JUMP JUMPDEST PUSH1 0x0 PUSH1 0x3 PUSH1 0x0 SWAP1 SLOAD SWAP1 PUSH2 0x100 EXP SWAP1 DIV PUSH20 0xFFFFFFFFFFFFFFFFFFFFFFFFFFFFFFFFFFFFFFFF AND SWAP1 POP DUP2 PUSH1 0x3 PUSH1 0x0 PUSH2 0x100 EXP DUP2 SLOAD DUP2 PUSH20 0xFFFFFFFFFFFFFFFFFFFFFFFFFFFFFFFFFFFFFFFF MUL NOT AND SWAP1 DUP4 PUSH20 0xFFFFFFFFFFFFFFFFFFFFFFFFFFFFFFFFFFFFFFFF AND MUL OR SWAP1 SSTORE POP DUP2 PUSH20 0xFFFFFFFFFFFFFFFFFFFFFFFFFFFFFFFFFFFFFFFF AND DUP2 PUSH20 0xFFFFFFFFFFFFFFFFFFFFFFFFFFFFFFFFFFFFFFFF AND PUSH32 0x8BE0079C531659141344CD1FD0A4F28419497F9722A3DAAFE3B4186F6B6457E0 PUSH1 0x40 MLOAD PUSH1 0x40 MLOAD DUP1 SWAP2 SUB SWAP1 LOG3 POP POP JUMP JUMPDEST DUP3 DUP1 SLOAD PUSH3 0x205 SWAP1 PUSH3 0x2A7 JUMP JUMPDEST SWAP1 PUSH1 0x0 MSTORE PUSH1 0x20 PUSH1 0x0 KECCAK256 SWAP1 PUSH1 0x1F ADD PUSH1 0x20 SWAP1 DIV DUP2 ADD SWAP3 DUP3 PUSH3 0x229 JUMPI PUSH1 0x0 DUP6 SSTORE PUSH3 0x275 JUMP JUMPDEST DUP3 PUSH1 0x1F LT PUSH3 0x244 JUMPI DUP1 MLOAD PUSH1 0xFF NOT AND DUP4 DUP1 ADD OR DUP6 SSTORE PUSH3 0x275 JUMP JUMPDEST DUP3 DUP1 ADD PUSH1 0x1 ADD DUP6 SSTORE DUP3 ISZERO PUSH3 0x275 JUMPI SWAP2 DUP3 ADD JUMPDEST DUP3 DUP2 GT ISZERO PUSH3 0x274 JUMPI DUP3 MLOAD DUP3 SSTORE SWAP2 PUSH1 0x20 ADD SWAP2 SWAP1 PUSH1 0x1 ADD SWAP1 PUSH3 0x257 JUMP JUMPDEST JUMPDEST POP SWAP1 POP PUSH3 0x284 SWAP2 SWAP1 PUSH3 0x288 JUMP JUMPDEST POP SWAP1 JUMP JUMPDEST JUMPDEST DUP1 DUP3 GT ISZERO PUSH3 0x2A3 JUMPI PUSH1 0x0 DUP2 PUSH1 0x0 SWAP1 SSTORE POP PUSH1 0x1 ADD PUSH3 0x289 JUMP JUMPDEST POP SWAP1 JUMP JUMPDEST PUSH1 0x0 PUSH1 0x2 DUP3 DIV SWAP1 POP PUSH1 0x1 DUP3 AND DUP1 PUSH3 0x2C0 JUMPI PUSH1 0x7F DUP3 AND SWAP2 POP JUMPDEST PUSH1 0x20 DUP3 LT DUP2 EQ ISZERO PUSH3 0x2D7 JUMPI PUSH3 0x2D6 PUSH3 0x2DD JUMP JUMPDEST JUMPDEST POP SWAP2 SWAP1 POP JUMP JUMPDEST PUSH32 0x4E487B7100000000000000000000000000000000000000000000000000000000 PUSH1 0x0 MSTORE PUSH1 0x22 PUSH1 0x4 MSTORE PUSH1 0x24 PUSH1 0x0 REVERT JUMPDEST PUSH2 0x4D0D DUP1 PUSH3 0x31C PUSH1 0x0 CODECOPY PUSH1 0x0 RETURN INVALID PUSH1 0x80 PUSH1 0x40 MSTORE CALLVALUE DUP1 ISZERO PUSH2 0x10 JUMPI PUSH1 0x0 DUP1 REVERT JUMPDEST POP PUSH1 0x4 CALLDATASIZE LT PUSH2 0x1CE JUMPI PUSH1 0x0 CALLDATALOAD PUSH1 0xE0 SHR DUP1 PUSH4 0x6B20C454 GT PUSH2 0x104 JUMPI DUP1 PUSH4 0xA22CB465 GT PUSH2 0xA2 JUMPI DUP1 PUSH4 0xE985E9C5 GT PUSH2 0x71 JUMPI DUP1 PUSH4 0xE985E9C5 EQ PUSH2 0x4D9 JUMPI DUP1 PUSH4 0xF242432A EQ PUSH2 0x509 JUMPI DUP1 PUSH4 0xF2FDE38B EQ PUSH2 0x525 JUMPI DUP1 PUSH4 0xF5298ACA EQ PUSH2 0x541 JUMPI PUSH2 0x1CE JUMP JUMPDEST DUP1 PUSH4 0xA22CB465 EQ PUSH2 0x451 JUMPI DUP1 PUSH4 0xBD85B039 EQ PUSH2 0x46D JUMPI DUP1 PUSH4 0xCCE132D1 EQ PUSH2 0x49D JUMPI DUP1 PUSH4 0xE8A3D485 EQ PUSH2 0x4BB JUMPI PUSH2 0x1CE JUMP JUMPDEST DUP1 PUSH4 0x79C9CB7B GT PUSH2 0xDE JUMPI DUP1 PUSH4 0x79C9CB7B EQ PUSH2 0x3F1 JUMPI DUP1 PUSH4 0x8456CB59 EQ PUSH2 0x40D JUMPI DUP1 PUSH4 0x8DA5CB5B EQ PUSH2 0x417 JUMPI DUP1 PUSH4 0x97107D6D EQ PUSH2 0x435 JUMPI PUSH2 0x1CE JUMP JUMPDEST DUP1 PUSH4 0x6B20C454 EQ PUSH2 0x3AF JUMPI DUP1 PUSH4 0x715018A6 EQ PUSH2 0x3CB JUMPI DUP1 PUSH4 0x731133E9 EQ PUSH2 0x3D5 JUMPI PUSH2 0x1CE JUMP JUMPDEST DUP1 PUSH4 0x30E995A6 GT PUSH2 0x171 JUMPI DUP1 PUSH4 0x4E1273F4 GT PUSH2 0x14B JUMPI DUP1 PUSH4 0x4E1273F4 EQ PUSH2 0x315 JUMPI DUP1 PUSH4 0x4F558E79 EQ PUSH2 0x345 JUMPI DUP1 PUSH4 0x5A7256C7 EQ PUSH2 0x375 JUMPI DUP1 PUSH4 0x5C975ABB EQ PUSH2 0x391 JUMPI PUSH2 0x1CE JUMP JUMPDEST DUP1 PUSH4 0x30E995A6 EQ PUSH2 0x2D3 JUMPI DUP1 PUSH4 0x3519628D EQ PUSH2 0x2EF JUMPI DUP1 PUSH4 0x3F4BA83A EQ PUSH2 0x30B JUMPI PUSH2 0x1CE JUMP JUMPDEST DUP1 PUSH4 0xE89341C GT PUSH2 0x1AD JUMPI DUP1 PUSH4 0xE89341C EQ PUSH2 0x24F JUMPI DUP1 PUSH4 0x162094C4 EQ PUSH2 0x27F JUMPI DUP1 PUSH4 0x1F7FDFFA EQ PUSH2 0x29B JUMPI DUP1 PUSH4 0x2EB2C2D6 EQ PUSH2 0x2B7 JUMPI PUSH2 0x1CE JUMP JUMPDEST DUP1 PUSH3 0xFDD58E EQ PUSH2 0x1D3 JUMPI DUP1 PUSH4 0x1FFC9A7 EQ PUSH2 0x203 JUMPI DUP1 PUSH4 0x2FE5305 EQ PUSH2 0x233 JUMPI JUMPDEST PUSH1 0x0 DUP1 REVERT JUMPDEST PUSH2 0x1ED PUSH1 0x4 DUP1 CALLDATASIZE SUB DUP2 ADD SWAP1 PUSH2 0x1E8 SWAP2 SWAP1 PUSH2 0x36B6 JUMP JUMPDEST PUSH2 0x55D JUMP JUMPDEST PUSH1 0x40 MLOAD PUSH2 0x1FA SWAP2 SWAP1 PUSH2 0x423D JUMP JUMPDEST PUSH1 0x40 MLOAD DUP1 SWAP2 SUB SWAP1 RETURN JUMPDEST PUSH2 0x21D PUSH1 0x4 DUP1 CALLDATASIZE SUB DUP2 ADD SWAP1 PUSH2 0x218 SWAP2 SWAP1 PUSH2 0x3844 JUMP JUMPDEST PUSH2 0x626 JUMP JUMPDEST PUSH1 0x40 MLOAD PUSH2 0x22A SWAP2 SWAP1 PUSH2 0x3FE0 JUMP JUMPDEST PUSH1 0x40 MLOAD DUP1 SWAP2 SUB SWAP1 RETURN JUMPDEST PUSH2 0x24D PUSH1 0x4 DUP1 CALLDATASIZE SUB DUP2 ADD SWAP1 PUSH2 0x248 SWAP2 SWAP1 PUSH2 0x389E JUMP JUMPDEST PUSH2 0x708 JUMP JUMPDEST STOP JUMPDEST PUSH2 0x269 PUSH1 0x4 DUP1 CALLDATASIZE SUB DUP2 ADD SWAP1 PUSH2 0x264 SWAP2 SWAP1 PUSH2 0x3943 JUMP JUMPDEST PUSH2 0x790 JUMP JUMPDEST PUSH1 0x40 MLOAD PUSH2 0x276 SWAP2 SWAP1 PUSH2 0x3FFB JUMP JUMPDEST PUSH1 0x40 MLOAD DUP1 SWAP2 SUB SWAP1 RETURN JUMPDEST PUSH2 0x299 PUSH1 0x4 DUP1 CALLDATASIZE SUB DUP2 ADD SWAP1 PUSH2 0x294 SWAP2 SWAP1 PUSH2 0x3970 JUMP JUMPDEST PUSH2 0x7A2 JUMP JUMPDEST STOP JUMPDEST PUSH2 0x2B5 PUSH1 0x4 DUP1 CALLDATASIZE SUB DUP2 ADD SWAP1 PUSH2 0x2B0 SWAP2 SWAP1 PUSH2 0x34EC JUMP JUMPDEST PUSH2 0x82C JUMP JUMPDEST STOP JUMPDEST PUSH2 0x2D1 PUSH1 0x4 DUP1 CALLDATASIZE SUB DUP2 ADD SWAP1 PUSH2 0x2CC SWAP2 SWAP1 PUSH2 0x32FB JUMP JUMPDEST PUSH2 0x8F5 JUMP JUMPDEST STOP JUMPDEST PUSH2 0x2ED PUSH1 0x4 DUP1 CALLDATASIZE SUB DUP2 ADD SWAP1 PUSH2 0x2E8 SWAP2 SWAP1 PUSH2 0x389E JUMP JUMPDEST PUSH2 0x996 JUMP JUMPDEST STOP JUMPDEST PUSH2 0x309 PUSH1 0x4 DUP1 CALLDATASIZE SUB DUP2 ADD SWAP1 PUSH2 0x304 SWAP2 SWAP1 PUSH2 0x35A7 JUMP JUMPDEST PUSH2 0xA2C JUMP JUMPDEST STOP JUMPDEST PUSH2 0x313 PUSH2 0xA87 JUMP JUMPDEST STOP JUMPDEST PUSH2 0x32F PUSH1 0x4 DUP1 CALLDATASIZE SUB DUP2 ADD SWAP1 PUSH2 0x32A SWAP2 SWAP1 PUSH2 0x37CC JUMP JUMPDEST PUSH2 0xB0D JUMP JUMPDEST PUSH1 0x40 MLOAD PUSH2 0x33C SWAP2 SWAP1 PUSH2 0x3F87 JUMP JUMPDEST PUSH1 0x40 MLOAD DUP1 SWAP2 SUB SWAP1 RETURN JUMPDEST PUSH2 0x35F PUSH1 0x4 DUP1 CALLDATASIZE SUB DUP2 ADD SWAP1 PUSH2 0x35A SWAP2 SWAP1 PUSH2 0x3943 JUMP JUMPDEST PUSH2 0xC26 JUMP JUMPDEST PUSH1 0x40 MLOAD PUSH2 0x36C SWAP2 SWAP1 PUSH2 0x3FE0 JUMP JUMPDEST PUSH1 0x40 MLOAD DUP1 SWAP2 SUB SWAP1 RETURN JUMPDEST PUSH2 0x38F PUSH1 0x4 DUP1 CALLDATASIZE SUB DUP2 ADD SWAP1 PUSH2 0x38A SWAP2 SWAP1 PUSH2 0x38E7 JUMP JUMPDEST PUSH2 0xC3A JUMP JUMPDEST STOP JUMPDEST PUSH2 0x399 PUSH2 0xCF2 JUMP JUMPDEST PUSH1 0x40 MLOAD PUSH2 0x3A6 SWAP2 SWAP1 PUSH2 0x3FE0 JUMP JUMPDEST PUSH1 0x40 MLOAD DUP1 SWAP2 SUB SWAP1 RETURN JUMPDEST PUSH2 0x3C9 PUSH1 0x4 DUP1 CALLDATASIZE SUB DUP2 ADD SWAP1 PUSH2 0x3C4 SWAP2 SWAP1 PUSH2 0x3461 JUMP JUMPDEST PUSH2 0xD09 JUMP JUMPDEST STOP JUMPDEST PUSH2 0x3D3 PUSH2 0xDA6 JUMP JUMPDEST STOP JUMPDEST PUSH2 0x3EF PUSH1 0x4 DUP1 CALLDATASIZE SUB DUP2 ADD SWAP1 PUSH2 0x3EA SWAP2 SWAP1 PUSH2 0x3749 JUMP JUMPDEST PUSH2 0xE2E JUMP JUMPDEST STOP JUMPDEST PUSH2 0x40B PUSH1 0x4 DUP1 CALLDATASIZE SUB DUP2 ADD SWAP1 PUSH2 0x406 SWAP2 SWAP1 PUSH2 0x3943 JUMP JUMPDEST PUSH2 0xEF7 JUMP JUMPDEST STOP JUMPDEST PUSH2 0x415 PUSH2 0xF7D JUMP JUMPDEST STOP JUMPDEST PUSH2 0x41F PUSH2 0x1003 JUMP JUMPDEST PUSH1 0x40 MLOAD PUSH2 0x42C SWAP2 SWAP1 PUSH2 0x3DF7 JUMP JUMPDEST PUSH1 0x40 MLOAD DUP1 SWAP2 SUB SWAP1 RETURN JUMPDEST PUSH2 0x44F PUSH1 0x4 DUP1 CALLDATASIZE SUB DUP2 ADD SWAP1 PUSH2 0x44A SWAP2 SWAP1 PUSH2 0x328E JUMP JUMPDEST PUSH2 0x102D JUMP JUMPDEST STOP JUMPDEST PUSH2 0x46B PUSH1 0x4 DUP1 CALLDATASIZE SUB DUP2 ADD SWAP1 PUSH2 0x466 SWAP2 SWAP1 PUSH2 0x3676 JUMP JUMPDEST PUSH2 0x10ED JUMP JUMPDEST STOP JUMPDEST PUSH2 0x487 PUSH1 0x4 DUP1 CALLDATASIZE SUB DUP2 ADD SWAP1 PUSH2 0x482 SWAP2 SWAP1 PUSH2 0x3943 JUMP JUMPDEST PUSH2 0x1103 JUMP JUMPDEST PUSH1 0x40 MLOAD PUSH2 0x494 SWAP2 SWAP1 PUSH2 0x423D JUMP JUMPDEST PUSH1 0x40 MLOAD DUP1 SWAP2 SUB SWAP1 RETURN JUMPDEST PUSH2 0x4A5 PUSH2 0x1120 JUMP JUMPDEST PUSH1 0x40 MLOAD PUSH2 0x4B2 SWAP2 SWAP1 PUSH2 0x423D JUMP JUMPDEST PUSH1 0x40 MLOAD DUP1 SWAP2 SUB SWAP1 RETURN JUMPDEST PUSH2 0x4C3 PUSH2 0x1126 JUMP JUMPDEST PUSH1 0x40 MLOAD PUSH2 0x4D0 SWAP2 SWAP1 PUSH2 0x3FFB JUMP JUMPDEST PUSH1 0x40 MLOAD DUP1 SWAP2 SUB SWAP1 RETURN JUMPDEST PUSH2 0x4F3 PUSH1 0x4 DUP1 CALLDATASIZE SUB DUP2 ADD SWAP1 PUSH2 0x4EE SWAP2 SWAP1 PUSH2 0x32BB JUMP JUMPDEST PUSH2 0x11B8 JUMP JUMPDEST PUSH1 0x40 MLOAD PUSH2 0x500 SWAP2 SWAP1 PUSH2 0x3FE0 JUMP JUMPDEST PUSH1 0x40 MLOAD DUP1 SWAP2 SUB SWAP1 RETURN JUMPDEST PUSH2 0x523 PUSH1 0x4 DUP1 CALLDATASIZE SUB DUP2 ADD SWAP1 PUSH2 0x51E SWAP2 SWAP1 PUSH2 0x33CA JUMP JUMPDEST PUSH2 0x122C JUMP JUMPDEST STOP JUMPDEST PUSH2 0x53F PUSH1 0x4 DUP1 CALLDATASIZE SUB DUP2 ADD SWAP1 PUSH2 0x53A SWAP2 SWAP1 PUSH2 0x328E JUMP JUMPDEST PUSH2 0x12CD JUMP JUMPDEST STOP JUMPDEST PUSH2 0x55B PUSH1 0x4 DUP1 CALLDATASIZE SUB DUP2 ADD SWAP1 PUSH2 0x556 SWAP2 SWAP1 PUSH2 0x36F6 JUMP JUMPDEST PUSH2 0x13C5 JUMP JUMPDEST STOP JUMPDEST PUSH1 0x0 DUP1 PUSH20 0xFFFFFFFFFFFFFFFFFFFFFFFFFFFFFFFFFFFFFFFF AND DUP4 PUSH20 0xFFFFFFFFFFFFFFFFFFFFFFFFFFFFFFFFFFFFFFFF AND EQ ISZERO PUSH2 0x5CE JUMPI PUSH1 0x40 MLOAD PUSH32 0x8C379A000000000000000000000000000000000000000000000000000000000 DUP2 MSTORE PUSH1 0x4 ADD PUSH2 0x5C5 SWAP1 PUSH2 0x407D JUMP JUMPDEST PUSH1 0x40 MLOAD DUP1 SWAP2 SUB SWAP1 REVERT JUMPDEST PUSH1 0x0 DUP1 DUP4 DUP2 MSTORE PUSH1 0x20 ADD SWAP1 DUP2 MSTORE PUSH1 0x20 ADD PUSH1 0x0 KECCAK256 PUSH1 0x0 DUP5 PUSH20 0xFFFFFFFFFFFFFFFFFFFFFFFFFFFFFFFFFFFFFFFF AND PUSH20 0xFFFFFFFFFFFFFFFFFFFFFFFFFFFFFFFFFFFFFFFF AND DUP2 MSTORE PUSH1 0x20 ADD SWAP1 DUP2 MSTORE PUSH1 0x20 ADD PUSH1 0x0 KECCAK256 SLOAD SWAP1 POP SWAP3 SWAP2 POP POP JUMP JUMPDEST PUSH1 0x0 PUSH32 0xD9B67A2600000000000000000000000000000000000000000000000000000000 PUSH28 0xFFFFFFFFFFFFFFFFFFFFFFFFFFFFFFFFFFFFFFFFFFFFFFFFFFFFFFFF NOT AND DUP3 PUSH28 0xFFFFFFFFFFFFFFFFFFFFFFFFFFFFFFFFFFFFFFFFFFFFFFFFFFFFFFFF NOT AND EQ DUP1 PUSH2 0x6F1 JUMPI POP PUSH32 0xE89341C00000000000000000000000000000000000000000000000000000000 PUSH28 0xFFFFFFFFFFFFFFFFFFFFFFFFFFFFFFFFFFFFFFFFFFFFFFFFFFFFFFFF NOT AND DUP3 PUSH28 0xFFFFFFFFFFFFFFFFFFFFFFFFFFFFFFFFFFFFFFFFFFFFFFFFFFFFFFFF NOT AND EQ JUMPDEST DUP1 PUSH2 0x701 JUMPI POP PUSH2 0x700 DUP3 PUSH2 0x1462 JUMP JUMPDEST JUMPDEST SWAP1 POP SWAP2 SWAP1 POP JUMP JUMPDEST PUSH2 0x710 PUSH2 0x14CC JUMP JUMPDEST PUSH20 0xFFFFFFFFFFFFFFFFFFFFFFFFFFFFFFFFFFFFFFFF AND PUSH2 0x72E PUSH2 0x1003 JUMP JUMPDEST PUSH20 0xFFFFFFFFFFFFFFFFFFFFFFFFFFFFFFFFFFFFFFFF AND EQ PUSH2 0x784 JUMPI PUSH1 0x40 MLOAD PUSH32 0x8C379A000000000000000000000000000000000000000000000000000000000 DUP2 MSTORE PUSH1 0x4 ADD PUSH2 0x77B SWAP1 PUSH2 0x419D JUMP JUMPDEST PUSH1 0x40 MLOAD DUP1 SWAP2 SUB SWAP1 REVERT JUMPDEST PUSH2 0x78D DUP2 PUSH2 0x14D4 JUMP JUMPDEST POP JUMP JUMPDEST PUSH1 0x60 PUSH2 0x79B DUP3 PUSH2 0x14EE JUMP JUMPDEST SWAP1 POP SWAP2 SWAP1 POP JUMP JUMPDEST PUSH2 0x7AA PUSH2 0x14CC JUMP JUMPDEST PUSH20 0xFFFFFFFFFFFFFFFFFFFFFFFFFFFFFFFFFFFFFFFF AND PUSH2 0x7C8 PUSH2 0x1003 JUMP JUMPDEST PUSH20 0xFFFFFFFFFFFFFFFFFFFFFFFFFFFFFFFFFFFFFFFF AND EQ PUSH2 0x81E JUMPI PUSH1 0x40 MLOAD PUSH32 0x8C379A000000000000000000000000000000000000000000000000000000000 DUP2 MSTORE PUSH1 0x4 ADD PUSH2 0x815 SWAP1 PUSH2 0x419D JUMP JUMPDEST PUSH1 0x40 MLOAD DUP1 SWAP2 SUB SWAP1 REVERT JUMPDEST PUSH2 0x828 DUP3 DUP3 PUSH2 0x1637 JUMP JUMPDEST POP POP JUMP JUMPDEST PUSH2 0x834 PUSH2 0x14CC JUMP JUMPDEST PUSH20 0xFFFFFFFFFFFFFFFFFFFFFFFFFFFFFFFFFFFFFFFF AND PUSH2 0x852 PUSH2 0x1003 JUMP JUMPDEST PUSH20 0xFFFFFFFFFFFFFFFFFFFFFFFFFFFFFFFFFFFFFFFF AND EQ PUSH2 0x8A8 JUMPI PUSH1 0x40 MLOAD PUSH32 0x8C379A000000000000000000000000000000000000000000000000000000000 DUP2 MSTORE PUSH1 0x4 ADD PUSH2 0x89F SWAP1 PUSH2 0x419D JUMP JUMPDEST PUSH1 0x40 MLOAD DUP1 SWAP2 SUB SWAP1 REVERT JUMPDEST PUSH2 0x8B4 DUP5 DUP5 DUP5 DUP5 PUSH2 0x1663 JUMP JUMPDEST PUSH32 0x9D15FE863D6D778932C2425AAB5DE66F2FCC03F779B90C593D26EE152FBBE871 DUP5 DUP5 DUP5 PUSH1 0x40 MLOAD PUSH2 0x8E7 SWAP4 SWAP3 SWAP2 SWAP1 PUSH2 0x3ED4 JUMP JUMPDEST PUSH1 0x40 MLOAD DUP1 SWAP2 SUB SWAP1 LOG1 POP POP POP POP JUMP JUMPDEST PUSH2 0x8FD PUSH2 0x14CC JUMP JUMPDEST PUSH20 0xFFFFFFFFFFFFFFFFFFFFFFFFFFFFFFFFFFFFFFFF AND DUP6 PUSH20 0xFFFFFFFFFFFFFFFFFFFFFFFFFFFFFFFFFFFFFFFF AND EQ DUP1 PUSH2 0x943 JUMPI POP PUSH2 0x942 DUP6 PUSH2 0x93D PUSH2 0x14CC JUMP JUMPDEST PUSH2 0x11B8 JUMP JUMPDEST JUMPDEST PUSH2 0x982 JUMPI PUSH1 0x40 MLOAD PUSH32 0x8C379A000000000000000000000000000000000000000000000000000000000 DUP2 MSTORE PUSH1 0x4 ADD PUSH2 0x979 SWAP1 PUSH2 0x413D JUMP JUMPDEST PUSH1 0x40 MLOAD DUP1 SWAP2 SUB SWAP1 REVERT JUMPDEST PUSH2 0x98F DUP6 DUP6 DUP6 DUP6 DUP6 PUSH2 0x1881 JUMP JUMPDEST POP POP POP POP POP JUMP JUMPDEST PUSH2 0x99E PUSH2 0x14CC JUMP JUMPDEST PUSH20 0xFFFFFFFFFFFFFFFFFFFFFFFFFFFFFFFFFFFFFFFF AND PUSH2 0x9BC PUSH2 0x1003 JUMP JUMPDEST PUSH20 0xFFFFFFFFFFFFFFFFFFFFFFFFFFFFFFFFFFFFFFFF AND EQ PUSH2 0xA12 JUMPI PUSH1 0x40 MLOAD PUSH32 0x8C379A000000000000000000000000000000000000000000000000000000000 DUP2 MSTORE PUSH1 0x4 ADD PUSH2 0xA09 SWAP1 PUSH2 0x419D JUMP JUMPDEST PUSH1 0x40 MLOAD DUP1 SWAP2 SUB SWAP1 REVERT JUMPDEST DUP1 PUSH1 0x6 SWAP1 DUP1 MLOAD SWAP1 PUSH1 0x20 ADD SWAP1 PUSH2 0xA28 SWAP3 SWAP2 SWAP1 PUSH2 0x2F66 JUMP JUMPDEST POP POP JUMP JUMPDEST PUSH2 0xA37 DUP6 DUP6 DUP6 PUSH2 0x1B95 JUMP JUMPDEST PUSH2 0xA44 DUP6 DUP4 PUSH1 0x1 DUP5 PUSH2 0x1E46 JUMP JUMPDEST PUSH32 0x25B428DFDE728CCFADDAD7E29E4AC23C24ED7FD1A6E3E3F91894A9A073F5DFFF DUP6 DUP4 PUSH1 0x1 PUSH1 0x40 MLOAD PUSH2 0xA78 SWAP4 SWAP3 SWAP2 SWAP1 PUSH2 0x3F19 JUMP JUMPDEST PUSH1 0x40 MLOAD DUP1 SWAP2 SUB SWAP1 LOG1 POP POP POP POP POP JUMP JUMPDEST PUSH2 0xA8F PUSH2 0x14CC JUMP JUMPDEST PUSH20 0xFFFFFFFFFFFFFFFFFFFFFFFFFFFFFFFFFFFFFFFF AND PUSH2 0xAAD PUSH2 0x1003 JUMP JUMPDEST PUSH20 0xFFFFFFFFFFFFFFFFFFFFFFFFFFFFFFFFFFFFFFFF AND EQ PUSH2 0xB03 JUMPI PUSH1 0x40 MLOAD PUSH32 0x8C379A000000000000000000000000000000000000000000000000000000000 DUP2 MSTORE PUSH1 0x4 ADD PUSH2 0xAFA SWAP1 PUSH2 0x419D JUMP JUMPDEST PUSH1 0x40 MLOAD DUP1 SWAP2 SUB SWAP1 REVERT JUMPDEST PUSH2 0xB0B PUSH2 0x1FDC JUMP JUMPDEST JUMP JUMPDEST PUSH1 0x60 DUP2 MLOAD DUP4 MLOAD EQ PUSH2 0xB53 JUMPI PUSH1 0x40 MLOAD PUSH32 0x8C379A000000000000000000000000000000000000000000000000000000000 DUP2 MSTORE PUSH1 0x4 ADD PUSH2 0xB4A SWAP1 PUSH2 0x41DD JUMP JUMPDEST PUSH1 0x40 MLOAD DUP1 SWAP2 SUB SWAP1 REVERT JUMPDEST PUSH1 0x0 DUP4 MLOAD PUSH8 0xFFFFFFFFFFFFFFFF DUP2 GT ISZERO PUSH2 0xB70 JUMPI PUSH2 0xB6F PUSH2 0x4667 JUMP JUMPDEST JUMPDEST PUSH1 0x40 MLOAD SWAP1 DUP1 DUP3 MSTORE DUP1 PUSH1 0x20 MUL PUSH1 0x20 ADD DUP3 ADD PUSH1 0x40 MSTORE DUP1 ISZERO PUSH2 0xB9E JUMPI DUP2 PUSH1 0x20 ADD PUSH1 0x20 DUP3 MUL DUP1 CALLDATASIZE DUP4 CALLDATACOPY DUP1 DUP3 ADD SWAP2 POP POP SWAP1 POP JUMPDEST POP SWAP1 POP PUSH1 0x0 JUMPDEST DUP5 MLOAD DUP2 LT ISZERO PUSH2 0xC1B JUMPI PUSH2 0xBEB DUP6 DUP3 DUP2 MLOAD DUP2 LT PUSH2 0xBC3 JUMPI PUSH2 0xBC2 PUSH2 0x4638 JUMP JUMPDEST JUMPDEST PUSH1 0x20 MUL PUSH1 0x20 ADD ADD MLOAD DUP6 DUP4 DUP2 MLOAD DUP2 LT PUSH2 0xBDE JUMPI PUSH2 0xBDD PUSH2 0x4638 JUMP JUMPDEST JUMPDEST PUSH1 0x20 MUL PUSH1 0x20 ADD ADD MLOAD PUSH2 0x55D JUMP JUMPDEST DUP3 DUP3 DUP2 MLOAD DUP2 LT PUSH2 0xBFE JUMPI PUSH2 0xBFD PUSH2 0x4638 JUMP JUMPDEST JUMPDEST PUSH1 0x20 MUL PUSH1 0x20 ADD ADD DUP2 DUP2 MSTORE POP POP DUP1 PUSH2 0xC14 SWAP1 PUSH2 0x4591 JUMP JUMPDEST SWAP1 POP PUSH2 0xBA4 JUMP JUMPDEST POP DUP1 SWAP2 POP POP SWAP3 SWAP2 POP POP JUMP JUMPDEST PUSH1 0x0 DUP1 PUSH2 0xC32 DUP4 PUSH2 0x1103 JUMP JUMPDEST GT SWAP1 POP SWAP2 SWAP1 POP JUMP JUMPDEST PUSH2 0xC42 PUSH2 0x14CC JUMP JUMPDEST PUSH20 0xFFFFFFFFFFFFFFFFFFFFFFFFFFFFFFFFFFFFFFFF AND PUSH2 0xC60 PUSH2 0x1003 JUMP JUMPDEST PUSH20 0xFFFFFFFFFFFFFFFFFFFFFFFFFFFFFFFFFFFFFFFF AND EQ PUSH2 0xCB6 JUMPI PUSH1 0x40 MLOAD PUSH32 0x8C379A000000000000000000000000000000000000000000000000000000000 DUP2 MSTORE PUSH1 0x4 ADD PUSH2 0xCAD SWAP1 PUSH2 0x419D JUMP JUMPDEST PUSH1 0x40 MLOAD DUP1 SWAP2 SUB SWAP1 REVERT JUMPDEST DUP1 PUSH32 0xA109BA539900BF1B633F956D63C96FC89B814C7287F7AA50A9216D0B55657207 DUP4 PUSH1 0x40 MLOAD PUSH2 0xCE6 SWAP2 SWAP1 PUSH2 0x3FFB JUMP JUMPDEST PUSH1 0x40 MLOAD DUP1 SWAP2 SUB SWAP1 LOG2 POP POP JUMP JUMPDEST PUSH1 0x0 PUSH1 0x3 PUSH1 0x14 SWAP1 SLOAD SWAP1 PUSH2 0x100 EXP SWAP1 DIV PUSH1 0xFF AND SWAP1 POP SWAP1 JUMP JUMPDEST PUSH2 0xD11 PUSH2 0x14CC JUMP JUMPDEST PUSH20 0xFFFFFFFFFFFFFFFFFFFFFFFFFFFFFFFFFFFFFFFF AND DUP4 PUSH20 0xFFFFFFFFFFFFFFFFFFFFFFFFFFFFFFFFFFFFFFFF AND EQ DUP1 PUSH2 0xD57 JUMPI POP PUSH2 0xD56 DUP4 PUSH2 0xD51 PUSH2 0x14CC JUMP JUMPDEST PUSH2 0x11B8 JUMP JUMPDEST JUMPDEST PUSH2 0xD96 JUMPI PUSH1 0x40 MLOAD PUSH32 0x8C379A000000000000000000000000000000000000000000000000000000000 DUP2 MSTORE PUSH1 0x4 ADD PUSH2 0xD8D SWAP1 PUSH2 0x40DD JUMP JUMPDEST PUSH1 0x40 MLOAD DUP1 SWAP2 SUB SWAP1 REVERT JUMPDEST PUSH2 0xDA1 DUP4 DUP4 DUP4 PUSH2 0x1B95 JUMP JUMPDEST POP POP POP JUMP JUMPDEST PUSH2 0xDAE PUSH2 0x14CC JUMP JUMPDEST PUSH20 0xFFFFFFFFFFFFFFFFFFFFFFFFFFFFFFFFFFFFFFFF AND PUSH2 0xDCC PUSH2 0x1003 JUMP JUMPDEST PUSH20 0xFFFFFFFFFFFFFFFFFFFFFFFFFFFFFFFFFFFFFFFF AND EQ PUSH2 0xE22 JUMPI PUSH1 0x40 MLOAD PUSH32 0x8C379A000000000000000000000000000000000000000000000000000000000 DUP2 MSTORE PUSH1 0x4 ADD PUSH2 0xE19 SWAP1 PUSH2 0x419D JUMP JUMPDEST PUSH1 0x40 MLOAD DUP1 SWAP2 SUB SWAP1 REVERT JUMPDEST PUSH2 0xE2C PUSH1 0x0 PUSH2 0x207E JUMP JUMPDEST JUMP JUMPDEST PUSH2 0xE36 PUSH2 0x14CC JUMP JUMPDEST PUSH20 0xFFFFFFFFFFFFFFFFFFFFFFFFFFFFFFFFFFFFFFFF AND PUSH2 0xE54 PUSH2 0x1003 JUMP JUMPDEST PUSH20 0xFFFFFFFFFFFFFFFFFFFFFFFFFFFFFFFFFFFFFFFF AND EQ PUSH2 0xEAA JUMPI PUSH1 0x40 MLOAD PUSH32 0x8C379A000000000000000000000000000000000000000000000000000000000 DUP2 MSTORE PUSH1 0x4 ADD PUSH2 0xEA1 SWAP1 PUSH2 0x419D JUMP JUMPDEST PUSH1 0x40 MLOAD DUP1 SWAP2 SUB SWAP1 REVERT JUMPDEST PUSH2 0xEB6 DUP5 DUP5 DUP5 DUP5 PUSH2 0x1E46 JUMP JUMPDEST PUSH32 0x25B428DFDE728CCFADDAD7E29E4AC23C24ED7FD1A6E3E3F91894A9A073F5DFFF DUP5 DUP5 DUP5 PUSH1 0x40 MLOAD PUSH2 0xEE9 SWAP4 SWAP3 SWAP2 SWAP1 PUSH2 0x3F50 JUMP JUMPDEST PUSH1 0x40 MLOAD DUP1 SWAP2 SUB SWAP1 LOG1 POP POP POP POP JUMP JUMPDEST PUSH2 0xEFF PUSH2 0x14CC JUMP JUMPDEST PUSH20 0xFFFFFFFFFFFFFFFFFFFFFFFFFFFFFFFFFFFFFFFF AND PUSH2 0xF1D PUSH2 0x1003 JUMP JUMPDEST PUSH20 0xFFFFFFFFFFFFFFFFFFFFFFFFFFFFFFFFFFFFFFFF AND EQ PUSH2 0xF73 JUMPI PUSH1 0x40 MLOAD PUSH32 0x8C379A000000000000000000000000000000000000000000000000000000000 DUP2 MSTORE PUSH1 0x4 ADD PUSH2 0xF6A SWAP1 PUSH2 0x419D JUMP JUMPDEST PUSH1 0x40 MLOAD DUP1 SWAP2 SUB SWAP1 REVERT JUMPDEST DUP1 PUSH1 0x7 DUP2 SWAP1 SSTORE POP POP JUMP JUMPDEST PUSH2 0xF85 PUSH2 0x14CC JUMP JUMPDEST PUSH20 0xFFFFFFFFFFFFFFFFFFFFFFFFFFFFFFFFFFFFFFFF AND PUSH2 0xFA3 PUSH2 0x1003 JUMP JUMPDEST PUSH20 0xFFFFFFFFFFFFFFFFFFFFFFFFFFFFFFFFFFFFFFFF AND EQ PUSH2 0xFF9 JUMPI PUSH1 0x40 MLOAD PUSH32 0x8C379A000000000000000000000000000000000000000000000000000000000 DUP2 MSTORE PUSH1 0x4 ADD PUSH2 0xFF0 SWAP1 PUSH2 0x419D JUMP JUMPDEST PUSH1 0x40 MLOAD DUP1 SWAP2 SUB SWAP1 REVERT JUMPDEST PUSH2 0x1001 PUSH2 0x2144 JUMP JUMPDEST JUMP JUMPDEST PUSH1 0x0 PUSH1 0x3 PUSH1 0x0 SWAP1 SLOAD SWAP1 PUSH2 0x100 EXP SWAP1 DIV PUSH20 0xFFFFFFFFFFFFFFFFFFFFFFFFFFFFFFFFFFFFFFFF AND SWAP1 POP SWAP1 JUMP JUMPDEST PUSH2 0x1035 PUSH2 0x14CC JUMP JUMPDEST PUSH20 0xFFFFFFFFFFFFFFFFFFFFFFFFFFFFFFFFFFFFFFFF AND PUSH2 0x1053 PUSH2 0x1003 JUMP JUMPDEST PUSH20 0xFFFFFFFFFFFFFFFFFFFFFFFFFFFFFFFFFFFFFFFF AND EQ PUSH2 0x10A9 JUMPI PUSH1 0x40 MLOAD PUSH32 0x8C379A000000000000000000000000000000000000000000000000000000000 DUP2 MSTORE PUSH1 0x4 ADD PUSH2 0x10A0 SWAP1 PUSH2 0x419D JUMP JUMPDEST PUSH1 0x40 MLOAD DUP1 SWAP2 SUB SWAP1 REVERT JUMPDEST DUP1 PUSH1 0x8 PUSH1 0x0 PUSH2 0x100 EXP DUP2 SLOAD DUP2 PUSH20 0xFFFFFFFFFFFFFFFFFFFFFFFFFFFFFFFFFFFFFFFF MUL NOT AND SWAP1 DUP4 PUSH20 0xFFFFFFFFFFFFFFFFFFFFFFFFFFFFFFFFFFFFFFFF AND MUL OR SWAP1 SSTORE POP POP JUMP JUMPDEST PUSH2 0x10FF PUSH2 0x10F8 PUSH2 0x14CC JUMP JUMPDEST DUP4 DUP4 PUSH2 0x21E7 JUMP JUMPDEST POP POP JUMP JUMPDEST PUSH1 0x0 PUSH1 0x4 PUSH1 0x0 DUP4 DUP2 MSTORE PUSH1 0x20 ADD SWAP1 DUP2 MSTORE PUSH1 0x20 ADD PUSH1 0x0 KECCAK256 SLOAD SWAP1 POP SWAP2 SWAP1 POP JUMP JUMPDEST PUSH1 0x7 SLOAD DUP2 JUMP JUMPDEST PUSH1 0x60 PUSH1 0x6 DUP1 SLOAD PUSH2 0x1135 SWAP1 PUSH2 0x452E JUMP JUMPDEST DUP1 PUSH1 0x1F ADD PUSH1 0x20 DUP1 SWAP2 DIV MUL PUSH1 0x20 ADD PUSH1 0x40 MLOAD SWAP1 DUP2 ADD PUSH1 0x40 MSTORE DUP1 SWAP3 SWAP2 SWAP1 DUP2 DUP2 MSTORE PUSH1 0x20 ADD DUP3 DUP1 SLOAD PUSH2 0x1161 SWAP1 PUSH2 0x452E JUMP JUMPDEST DUP1 ISZERO PUSH2 0x11AE JUMPI DUP1 PUSH1 0x1F LT PUSH2 0x1183 JUMPI PUSH2 0x100 DUP1 DUP4 SLOAD DIV MUL DUP4 MSTORE SWAP2 PUSH1 0x20 ADD SWAP2 PUSH2 0x11AE JUMP JUMPDEST DUP3 ADD SWAP2 SWAP1 PUSH1 0x0 MSTORE PUSH1 0x20 PUSH1 0x0 KECCAK256 SWAP1 JUMPDEST DUP2 SLOAD DUP2 MSTORE SWAP1 PUSH1 0x1 ADD SWAP1 PUSH1 0x20 ADD DUP1 DUP4 GT PUSH2 0x1191 JUMPI DUP3 SWAP1 SUB PUSH1 0x1F AND DUP3 ADD SWAP2 JUMPDEST POP POP POP POP POP SWAP1 POP SWAP1 JUMP JUMPDEST PUSH1 0x0 PUSH1 0x8 PUSH1 0x0 SWAP1 SLOAD SWAP1 PUSH2 0x100 EXP SWAP1 DIV PUSH20 0xFFFFFFFFFFFFFFFFFFFFFFFFFFFFFFFFFFFFFFFF AND PUSH20 0xFFFFFFFFFFFFFFFFFFFFFFFFFFFFFFFFFFFFFFFF AND DUP3 PUSH20 0xFFFFFFFFFFFFFFFFFFFFFFFFFFFFFFFFFFFFFFFF AND EQ ISZERO PUSH2 0x1219 JUMPI PUSH1 0x1 SWAP1 POP PUSH2 0x1226 JUMP JUMPDEST PUSH2 0x1223 DUP4 DUP4 PUSH2 0x2354 JUMP JUMPDEST SWAP1 POP JUMPDEST SWAP3 SWAP2 POP POP JUMP JUMPDEST PUSH2 0x1234 PUSH2 0x14CC JUMP JUMPDEST PUSH20 0xFFFFFFFFFFFFFFFFFFFFFFFFFFFFFFFFFFFFFFFF AND DUP6 PUSH20 0xFFFFFFFFFFFFFFFFFFFFFFFFFFFFFFFFFFFFFFFF AND EQ DUP1 PUSH2 0x127A JUMPI POP PUSH2 0x1279 DUP6 PUSH2 0x1274 PUSH2 0x14CC JUMP JUMPDEST PUSH2 0x11B8 JUMP JUMPDEST JUMPDEST PUSH2 0x12B9 JUMPI PUSH1 0x40 MLOAD PUSH32 0x8C379A000000000000000000000000000000000000000000000000000000000 DUP2 MSTORE PUSH1 0x4 ADD PUSH2 0x12B0 SWAP1 PUSH2 0x40DD JUMP JUMPDEST PUSH1 0x40 MLOAD DUP1 SWAP2 SUB SWAP1 REVERT JUMPDEST PUSH2 0x12C6 DUP6 DUP6 DUP6 DUP6 DUP6 PUSH2 0x23E8 JUMP JUMPDEST POP POP POP POP POP JUMP JUMPDEST PUSH2 0x12D5 PUSH2 0x14CC JUMP JUMPDEST PUSH20 0xFFFFFFFFFFFFFFFFFFFFFFFFFFFFFFFFFFFFFFFF AND PUSH2 0x12F3 PUSH2 0x1003 JUMP JUMPDEST PUSH20 0xFFFFFFFFFFFFFFFFFFFFFFFFFFFFFFFFFFFFFFFF AND EQ PUSH2 0x1349 JUMPI PUSH1 0x40 MLOAD PUSH32 0x8C379A000000000000000000000000000000000000000000000000000000000 DUP2 MSTORE PUSH1 0x4 ADD PUSH2 0x1340 SWAP1 PUSH2 0x419D JUMP JUMPDEST PUSH1 0x40 MLOAD DUP1 SWAP2 SUB SWAP1 REVERT JUMPDEST PUSH1 0x0 PUSH20 0xFFFFFFFFFFFFFFFFFFFFFFFFFFFFFFFFFFFFFFFF AND DUP2 PUSH20 0xFFFFFFFFFFFFFFFFFFFFFFFFFFFFFFFFFFFFFFFF AND EQ ISZERO PUSH2 0x13B9 JUMPI PUSH1 0x40 MLOAD PUSH32 0x8C379A000000000000000000000000000000000000000000000000000000000 DUP2 MSTORE PUSH1 0x4 ADD PUSH2 0x13B0 SWAP1 PUSH2 0x409D JUMP JUMPDEST PUSH1 0x40 MLOAD DUP1 SWAP2 SUB SWAP1 REVERT JUMPDEST PUSH2 0x13C2 DUP2 PUSH2 0x207E JUMP JUMPDEST POP JUMP JUMPDEST PUSH2 0x13CD PUSH2 0x14CC JUMP JUMPDEST PUSH20 0xFFFFFFFFFFFFFFFFFFFFFFFFFFFFFFFFFFFFFFFF AND DUP4 PUSH20 0xFFFFFFFFFFFFFFFFFFFFFFFFFFFFFFFFFFFFFFFF AND EQ DUP1 PUSH2 0x1413 JUMPI POP PUSH2 0x1412 DUP4 PUSH2 0x140D PUSH2 0x14CC JUMP JUMPDEST PUSH2 0x11B8 JUMP JUMPDEST JUMPDEST PUSH2 0x1452 JUMPI PUSH1 0x40 MLOAD PUSH32 0x8C379A000000000000000000000000000000000000000000000000000000000 DUP2 MSTORE PUSH1 0x4 ADD PUSH2 0x1449 SWAP1 PUSH2 0x40DD JUMP JUMPDEST PUSH1 0x40 MLOAD DUP1 SWAP2 SUB SWAP1 REVERT JUMPDEST PUSH2 0x145D DUP4 DUP4 DUP4 PUSH2 0x266A JUMP JUMPDEST POP POP POP JUMP JUMPDEST PUSH1 0x0 PUSH32 0x1FFC9A700000000000000000000000000000000000000000000000000000000 PUSH28 0xFFFFFFFFFFFFFFFFFFFFFFFFFFFFFFFFFFFFFFFFFFFFFFFFFFFFFFFF NOT AND DUP3 PUSH28 0xFFFFFFFFFFFFFFFFFFFFFFFFFFFFFFFFFFFFFFFFFFFFFFFFFFFFFFFF NOT AND EQ SWAP1 POP SWAP2 SWAP1 POP JUMP JUMPDEST PUSH1 0x0 CALLER SWAP1 POP SWAP1 JUMP JUMPDEST DUP1 PUSH1 0x2 SWAP1 DUP1 MLOAD SWAP1 PUSH1 0x20 ADD SWAP1 PUSH2 0x14EA SWAP3 SWAP2 SWAP1 PUSH2 0x2F66 JUMP JUMPDEST POP POP JUMP JUMPDEST PUSH1 0x60 PUSH1 0x0 PUSH1 0x5 PUSH1 0x0 DUP5 DUP2 MSTORE PUSH1 0x20 ADD SWAP1 DUP2 MSTORE PUSH1 0x20 ADD PUSH1 0x0 KECCAK256 DUP1 SLOAD PUSH2 0x1510 SWAP1 PUSH2 0x452E JUMP JUMPDEST DUP1 PUSH1 0x1F ADD PUSH1 0x20 DUP1 SWAP2 DIV MUL PUSH1 0x20 ADD PUSH1 0x40 MLOAD SWAP1 DUP2 ADD PUSH1 0x40 MSTORE DUP1 SWAP3 SWAP2 SWAP1 DUP2 DUP2 MSTORE PUSH1 0x20 ADD DUP3 DUP1 SLOAD PUSH2 0x153C SWAP1 PUSH2 0x452E JUMP JUMPDEST DUP1 ISZERO PUSH2 0x1589 JUMPI DUP1 PUSH1 0x1F LT PUSH2 0x155E JUMPI PUSH2 0x100 DUP1 DUP4 SLOAD DIV MUL DUP4 MSTORE SWAP2 PUSH1 0x20 ADD SWAP2 PUSH2 0x1589 JUMP JUMPDEST DUP3 ADD SWAP2 SWAP1 PUSH1 0x0 MSTORE PUSH1 0x20 PUSH1 0x0 KECCAK256 SWAP1 JUMPDEST DUP2 SLOAD DUP2 MSTORE SWAP1 PUSH1 0x1 ADD SWAP1 PUSH1 0x20 ADD DUP1 DUP4 GT PUSH2 0x156C JUMPI DUP3 SWAP1 SUB PUSH1 0x1F AND DUP3 ADD SWAP2 JUMPDEST POP POP POP POP POP SWAP1 POP PUSH1 0x0 PUSH2 0x159B DUP5 PUSH2 0x2887 JUMP JUMPDEST SWAP1 POP PUSH1 0x0 DUP2 MLOAD EQ ISZERO PUSH2 0x15D0 JUMPI DUP2 PUSH1 0x40 MLOAD PUSH1 0x20 ADD PUSH2 0x15B8 SWAP2 SWAP1 PUSH2 0x3DD5 JUMP JUMPDEST PUSH1 0x40 MLOAD PUSH1 0x20 DUP2 DUP4 SUB SUB DUP2 MSTORE SWAP1 PUSH1 0x40 MSTORE SWAP3 POP POP POP PUSH2 0x1632 JUMP JUMPDEST PUSH1 0x0 DUP3 MLOAD GT ISZERO PUSH2 0x1605 JUMPI DUP1 DUP3 PUSH1 0x40 MLOAD PUSH1 0x20 ADD PUSH2 0x15ED SWAP3 SWAP2 SWAP1 PUSH2 0x3DA6 JUMP JUMPDEST PUSH1 0x40 MLOAD PUSH1 0x20 DUP2 DUP4 SUB SUB DUP2 MSTORE SWAP1 PUSH1 0x40 MSTORE SWAP3 POP POP POP PUSH2 0x1632 JUMP JUMPDEST PUSH2 0x160E DUP5 PUSH2 0x2887 JUMP JUMPDEST PUSH1 0x40 MLOAD PUSH1 0x20 ADD PUSH2 0x161E SWAP2 SWAP1 PUSH2 0x3DD5 JUMP JUMPDEST PUSH1 0x40 MLOAD PUSH1 0x20 DUP2 DUP4 SUB SUB DUP2 MSTORE SWAP1 PUSH1 0x40 MSTORE SWAP3 POP POP POP JUMPDEST SWAP2 SWAP1 POP JUMP JUMPDEST DUP1 PUSH1 0x5 PUSH1 0x0 DUP5 DUP2 MSTORE PUSH1 0x20 ADD SWAP1 DUP2 MSTORE PUSH1 0x20 ADD PUSH1 0x0 KECCAK256 SWAP1 DUP1 MLOAD SWAP1 PUSH1 0x20 ADD SWAP1 PUSH2 0x165E SWAP3 SWAP2 SWAP1 PUSH2 0x2F66 JUMP JUMPDEST POP POP POP JUMP JUMPDEST PUSH1 0x0 PUSH20 0xFFFFFFFFFFFFFFFFFFFFFFFFFFFFFFFFFFFFFFFF AND DUP5 PUSH20 0xFFFFFFFFFFFFFFFFFFFFFFFFFFFFFFFFFFFFFFFF AND EQ ISZERO PUSH2 0x16D3 JUMPI PUSH1 0x40 MLOAD PUSH32 0x8C379A000000000000000000000000000000000000000000000000000000000 DUP2 MSTORE PUSH1 0x4 ADD PUSH2 0x16CA SWAP1 PUSH2 0x421D JUMP JUMPDEST PUSH1 0x40 MLOAD DUP1 SWAP2 SUB SWAP1 REVERT JUMPDEST DUP2 MLOAD DUP4 MLOAD EQ PUSH2 0x1717 JUMPI PUSH1 0x40 MLOAD PUSH32 0x8C379A000000000000000000000000000000000000000000000000000000000 DUP2 MSTORE PUSH1 0x4 ADD PUSH2 0x170E SWAP1 PUSH2 0x41FD JUMP JUMPDEST PUSH1 0x40 MLOAD DUP1 SWAP2 SUB SWAP1 REVERT JUMPDEST PUSH1 0x0 PUSH2 0x1721 PUSH2 0x14CC JUMP JUMPDEST SWAP1 POP PUSH2 0x1732 DUP2 PUSH1 0x0 DUP8 DUP8 DUP8 DUP8 PUSH2 0x291B JUMP JUMPDEST PUSH1 0x0 JUMPDEST DUP5 MLOAD DUP2 LT ISZERO PUSH2 0x17EB JUMPI DUP4 DUP2 DUP2 MLOAD DUP2 LT PUSH2 0x1751 JUMPI PUSH2 0x1750 PUSH2 0x4638 JUMP JUMPDEST JUMPDEST PUSH1 0x20 MUL PUSH1 0x20 ADD ADD MLOAD PUSH1 0x0 DUP1 DUP8 DUP5 DUP2 MLOAD DUP2 LT PUSH2 0x176F JUMPI PUSH2 0x176E PUSH2 0x4638 JUMP JUMPDEST JUMPDEST PUSH1 0x20 MUL PUSH1 0x20 ADD ADD MLOAD DUP2 MSTORE PUSH1 0x20 ADD SWAP1 DUP2 MSTORE PUSH1 0x20 ADD PUSH1 0x0 KECCAK256 PUSH1 0x0 DUP9 PUSH20 0xFFFFFFFFFFFFFFFFFFFFFFFFFFFFFFFFFFFFFFFF AND PUSH20 0xFFFFFFFFFFFFFFFFFFFFFFFFFFFFFFFFFFFFFFFF AND DUP2 MSTORE PUSH1 0x20 ADD SWAP1 DUP2 MSTORE PUSH1 0x20 ADD PUSH1 0x0 KECCAK256 PUSH1 0x0 DUP3 DUP3 SLOAD PUSH2 0x17D1 SWAP2 SWAP1 PUSH2 0x43DC JUMP JUMPDEST SWAP3 POP POP DUP2 SWAP1 SSTORE POP DUP1 DUP1 PUSH2 0x17E3 SWAP1 PUSH2 0x4591 JUMP JUMPDEST SWAP2 POP POP PUSH2 0x1735 JUMP JUMPDEST POP DUP5 PUSH20 0xFFFFFFFFFFFFFFFFFFFFFFFFFFFFFFFFFFFFFFFF AND PUSH1 0x0 PUSH20 0xFFFFFFFFFFFFFFFFFFFFFFFFFFFFFFFFFFFFFFFF AND DUP3 PUSH20 0xFFFFFFFFFFFFFFFFFFFFFFFFFFFFFFFFFFFFFFFF AND PUSH32 0x4A39DC06D4C0DBC64B70AF90FD698A233A518AA5D07E595D983B8C0526C8F7FB DUP8 DUP8 PUSH1 0x40 MLOAD PUSH2 0x1863 SWAP3 SWAP2 SWAP1 PUSH2 0x3FA9 JUMP JUMPDEST PUSH1 0x40 MLOAD DUP1 SWAP2 SUB SWAP1 LOG4 PUSH2 0x187A DUP2 PUSH1 0x0 DUP8 DUP8 DUP8 DUP8 PUSH2 0x2979 JUMP JUMPDEST POP POP POP POP POP JUMP JUMPDEST DUP2 MLOAD DUP4 MLOAD EQ PUSH2 0x18C5 JUMPI PUSH1 0x40 MLOAD PUSH32 0x8C379A000000000000000000000000000000000000000000000000000000000 DUP2 MSTORE PUSH1 0x4 ADD PUSH2 0x18BC SWAP1 PUSH2 0x41FD JUMP JUMPDEST PUSH1 0x40 MLOAD DUP1 SWAP2 SUB SWAP1 REVERT JUMPDEST PUSH1 0x0 PUSH20 0xFFFFFFFFFFFFFFFFFFFFFFFFFFFFFFFFFFFFFFFF AND DUP5 PUSH20 0xFFFFFFFFFFFFFFFFFFFFFFFFFFFFFFFFFFFFFFFF AND EQ ISZERO PUSH2 0x1935 JUMPI PUSH1 0x40 MLOAD PUSH32 0x8C379A000000000000000000000000000000000000000000000000000000000 DUP2 MSTORE PUSH1 0x4 ADD PUSH2 0x192C SWAP1 PUSH2 0x411D JUMP JUMPDEST PUSH1 0x40 MLOAD DUP1 SWAP2 SUB SWAP1 REVERT JUMPDEST PUSH1 0x0 PUSH2 0x193F PUSH2 0x14CC JUMP JUMPDEST SWAP1 POP PUSH2 0x194F DUP2 DUP8 DUP8 DUP8 DUP8 DUP8 PUSH2 0x291B JUMP JUMPDEST PUSH1 0x0 JUMPDEST DUP5 MLOAD DUP2 LT ISZERO PUSH2 0x1B00 JUMPI PUSH1 0x0 DUP6 DUP3 DUP2 MLOAD DUP2 LT PUSH2 0x1970 JUMPI PUSH2 0x196F PUSH2 0x4638 JUMP JUMPDEST JUMPDEST PUSH1 0x20 MUL PUSH1 0x20 ADD ADD MLOAD SWAP1 POP PUSH1 0x0 DUP6 DUP4 DUP2 MLOAD DUP2 LT PUSH2 0x198F JUMPI PUSH2 0x198E PUSH2 0x4638 JUMP JUMPDEST JUMPDEST PUSH1 0x20 MUL PUSH1 0x20 ADD ADD MLOAD SWAP1 POP PUSH1 0x0 DUP1 PUSH1 0x0 DUP5 DUP2 MSTORE PUSH1 0x20 ADD SWAP1 DUP2 MSTORE PUSH1 0x20 ADD PUSH1 0x0 KECCAK256 PUSH1 0x0 DUP12 PUSH20 0xFFFFFFFFFFFFFFFFFFFFFFFFFFFFFFFFFFFFFFFF AND PUSH20 0xFFFFFFFFFFFFFFFFFFFFFFFFFFFFFFFFFFFFFFFF AND DUP2 MSTORE PUSH1 0x20 ADD SWAP1 DUP2 MSTORE PUSH1 0x20 ADD PUSH1 0x0 KECCAK256 SLOAD SWAP1 POP DUP2 DUP2 LT ISZERO PUSH2 0x1A30 JUMPI PUSH1 0x40 MLOAD PUSH32 0x8C379A000000000000000000000000000000000000000000000000000000000 DUP2 MSTORE PUSH1 0x4 ADD PUSH2 0x1A27 SWAP1 PUSH2 0x417D JUMP JUMPDEST PUSH1 0x40 MLOAD DUP1 SWAP2 SUB SWAP1 REVERT JUMPDEST DUP2 DUP2 SUB PUSH1 0x0 DUP1 DUP6 DUP2 MSTORE PUSH1 0x20 ADD SWAP1 DUP2 MSTORE PUSH1 0x20 ADD PUSH1 0x0 KECCAK256 PUSH1 0x0 DUP13 PUSH20 0xFFFFFFFFFFFFFFFFFFFFFFFFFFFFFFFFFFFFFFFF AND PUSH20 0xFFFFFFFFFFFFFFFFFFFFFFFFFFFFFFFFFFFFFFFF AND DUP2 MSTORE PUSH1 0x20 ADD SWAP1 DUP2 MSTORE PUSH1 0x20 ADD PUSH1 0x0 KECCAK256 DUP2 SWAP1 SSTORE POP DUP2 PUSH1 0x0 DUP1 DUP6 DUP2 MSTORE PUSH1 0x20 ADD SWAP1 DUP2 MSTORE PUSH1 0x20 ADD PUSH1 0x0 KECCAK256 PUSH1 0x0 DUP12 PUSH20 0xFFFFFFFFFFFFFFFFFFFFFFFFFFFFFFFFFFFFFFFF AND PUSH20 0xFFFFFFFFFFFFFFFFFFFFFFFFFFFFFFFFFFFFFFFF AND DUP2 MSTORE PUSH1 0x20 ADD SWAP1 DUP2 MSTORE PUSH1 0x20 ADD PUSH1 0x0 KECCAK256 PUSH1 0x0 DUP3 DUP3 SLOAD PUSH2 0x1AE5 SWAP2 SWAP1 PUSH2 0x43DC JUMP JUMPDEST SWAP3 POP POP DUP2 SWAP1 SSTORE POP POP POP POP DUP1 PUSH2 0x1AF9 SWAP1 PUSH2 0x4591 JUMP JUMPDEST SWAP1 POP PUSH2 0x1952 JUMP JUMPDEST POP DUP5 PUSH20 0xFFFFFFFFFFFFFFFFFFFFFFFFFFFFFFFFFFFFFFFF AND DUP7 PUSH20 0xFFFFFFFFFFFFFFFFFFFFFFFFFFFFFFFFFFFFFFFF AND DUP3 PUSH20 0xFFFFFFFFFFFFFFFFFFFFFFFFFFFFFFFFFFFFFFFF AND PUSH32 0x4A39DC06D4C0DBC64B70AF90FD698A233A518AA5D07E595D983B8C0526C8F7FB DUP8 DUP8 PUSH1 0x40 MLOAD PUSH2 0x1B77 SWAP3 SWAP2 SWAP1 PUSH2 0x3FA9 JUMP JUMPDEST PUSH1 0x40 MLOAD DUP1 SWAP2 SUB SWAP1 LOG4 PUSH2 0x1B8D DUP2 DUP8 DUP8 DUP8 DUP8 DUP8 PUSH2 0x2979 JUMP JUMPDEST POP POP POP POP POP POP JUMP JUMPDEST PUSH1 0x0 PUSH20 0xFFFFFFFFFFFFFFFFFFFFFFFFFFFFFFFFFFFFFFFF AND DUP4 PUSH20 0xFFFFFFFFFFFFFFFFFFFFFFFFFFFFFFFFFFFFFFFF AND EQ ISZERO PUSH2 0x1C05 JUMPI PUSH1 0x40 MLOAD PUSH32 0x8C379A000000000000000000000000000000000000000000000000000000000 DUP2 MSTORE PUSH1 0x4 ADD PUSH2 0x1BFC SWAP1 PUSH2 0x415D JUMP JUMPDEST PUSH1 0x40 MLOAD DUP1 SWAP2 SUB SWAP1 REVERT JUMPDEST DUP1 MLOAD DUP3 MLOAD EQ PUSH2 0x1C49 JUMPI PUSH1 0x40 MLOAD PUSH32 0x8C379A000000000000000000000000000000000000000000000000000000000 DUP2 MSTORE PUSH1 0x4 ADD PUSH2 0x1C40 SWAP1 PUSH2 0x41FD JUMP JUMPDEST PUSH1 0x40 MLOAD DUP1 SWAP2 SUB SWAP1 REVERT JUMPDEST PUSH1 0x0 PUSH2 0x1C53 PUSH2 0x14CC JUMP JUMPDEST SWAP1 POP PUSH2 0x1C73 DUP2 DUP6 PUSH1 0x0 DUP7 DUP7 PUSH1 0x40 MLOAD DUP1 PUSH1 0x20 ADD PUSH1 0x40 MSTORE DUP1 PUSH1 0x0 DUP2 MSTORE POP PUSH2 0x291B JUMP JUMPDEST PUSH1 0x0 JUMPDEST DUP4 MLOAD DUP2 LT ISZERO PUSH2 0x1DC0 JUMPI PUSH1 0x0 DUP5 DUP3 DUP2 MLOAD DUP2 LT PUSH2 0x1C94 JUMPI PUSH2 0x1C93 PUSH2 0x4638 JUMP JUMPDEST JUMPDEST PUSH1 0x20 MUL PUSH1 0x20 ADD ADD MLOAD SWAP1 POP PUSH1 0x0 DUP5 DUP4 DUP2 MLOAD DUP2 LT PUSH2 0x1CB3 JUMPI PUSH2 0x1CB2 PUSH2 0x4638 JUMP JUMPDEST JUMPDEST PUSH1 0x20 MUL PUSH1 0x20 ADD ADD MLOAD SWAP1 POP PUSH1 0x0 DUP1 PUSH1 0x0 DUP5 DUP2 MSTORE PUSH1 0x20 ADD SWAP1 DUP2 MSTORE PUSH1 0x20 ADD PUSH1 0x0 KECCAK256 PUSH1 0x0 DUP10 PUSH20 0xFFFFFFFFFFFFFFFFFFFFFFFFFFFFFFFFFFFFFFFF AND PUSH20 0xFFFFFFFFFFFFFFFFFFFFFFFFFFFFFFFFFFFFFFFF AND DUP2 MSTORE PUSH1 0x20 ADD SWAP1 DUP2 MSTORE PUSH1 0x20 ADD PUSH1 0x0 KECCAK256 SLOAD SWAP1 POP DUP2 DUP2 LT ISZERO PUSH2 0x1D54 JUMPI PUSH1 0x40 MLOAD PUSH32 0x8C379A000000000000000000000000000000000000000000000000000000000 DUP2 MSTORE PUSH1 0x4 ADD PUSH2 0x1D4B SWAP1 PUSH2 0x40BD JUMP JUMPDEST PUSH1 0x40 MLOAD DUP1 SWAP2 SUB SWAP1 REVERT JUMPDEST DUP2 DUP2 SUB PUSH1 0x0 DUP1 DUP6 DUP2 MSTORE PUSH1 0x20 ADD SWAP1 DUP2 MSTORE PUSH1 0x20 ADD PUSH1 0x0 KECCAK256 PUSH1 0x0 DUP11 PUSH20 0xFFFFFFFFFFFFFFFFFFFFFFFFFFFFFFFFFFFFFFFF AND PUSH20 0xFFFFFFFFFFFFFFFFFFFFFFFFFFFFFFFFFFFFFFFF AND DUP2 MSTORE PUSH1 0x20 ADD SWAP1 DUP2 MSTORE PUSH1 0x20 ADD PUSH1 0x0 KECCAK256 DUP2 SWAP1 SSTORE POP POP POP POP DUP1 DUP1 PUSH2 0x1DB8 SWAP1 PUSH2 0x4591 JUMP JUMPDEST SWAP2 POP POP PUSH2 0x1C76 JUMP JUMPDEST POP PUSH1 0x0 PUSH20 0xFFFFFFFFFFFFFFFFFFFFFFFFFFFFFFFFFFFFFFFF AND DUP5 PUSH20 0xFFFFFFFFFFFFFFFFFFFFFFFFFFFFFFFFFFFFFFFF AND DUP3 PUSH20 0xFFFFFFFFFFFFFFFFFFFFFFFFFFFFFFFFFFFFFFFF AND PUSH32 0x4A39DC06D4C0DBC64B70AF90FD698A233A518AA5D07E595D983B8C0526C8F7FB DUP7 DUP7 PUSH1 0x40 MLOAD PUSH2 0x1E38 SWAP3 SWAP2 SWAP1 PUSH2 0x3FA9 JUMP JUMPDEST PUSH1 0x40 MLOAD DUP1 SWAP2 SUB SWAP1 LOG4 POP POP POP POP JUMP JUMPDEST PUSH1 0x0 PUSH20 0xFFFFFFFFFFFFFFFFFFFFFFFFFFFFFFFFFFFFFFFF AND DUP5 PUSH20 0xFFFFFFFFFFFFFFFFFFFFFFFFFFFFFFFFFFFFFFFF AND EQ ISZERO PUSH2 0x1EB6 JUMPI PUSH1 0x40 MLOAD PUSH32 0x8C379A000000000000000000000000000000000000000000000000000000000 DUP2 MSTORE PUSH1 0x4 ADD PUSH2 0x1EAD SWAP1 PUSH2 0x421D JUMP JUMPDEST PUSH1 0x40 MLOAD DUP1 SWAP2 SUB SWAP1 REVERT JUMPDEST PUSH1 0x0 PUSH2 0x1EC0 PUSH2 0x14CC JUMP JUMPDEST SWAP1 POP PUSH2 0x1EE1 DUP2 PUSH1 0x0 DUP8 PUSH2 0x1ED2 DUP9 PUSH2 0x2B60 JUMP JUMPDEST PUSH2 0x1EDB DUP9 PUSH2 0x2B60 JUMP JUMPDEST DUP8 PUSH2 0x291B JUMP JUMPDEST DUP3 PUSH1 0x0 DUP1 DUP7 DUP2 MSTORE PUSH1 0x20 ADD SWAP1 DUP2 MSTORE PUSH1 0x20 ADD PUSH1 0x0 KECCAK256 PUSH1 0x0 DUP8 PUSH20 0xFFFFFFFFFFFFFFFFFFFFFFFFFFFFFFFFFFFFFFFF AND PUSH20 0xFFFFFFFFFFFFFFFFFFFFFFFFFFFFFFFFFFFFFFFF AND DUP2 MSTORE PUSH1 0x20 ADD SWAP1 DUP2 MSTORE PUSH1 0x20 ADD PUSH1 0x0 KECCAK256 PUSH1 0x0 DUP3 DUP3 SLOAD PUSH2 0x1F40 SWAP2 SWAP1 PUSH2 0x43DC JUMP JUMPDEST SWAP3 POP POP DUP2 SWAP1 SSTORE POP DUP5 PUSH20 0xFFFFFFFFFFFFFFFFFFFFFFFFFFFFFFFFFFFFFFFF AND PUSH1 0x0 PUSH20 0xFFFFFFFFFFFFFFFFFFFFFFFFFFFFFFFFFFFFFFFF AND DUP3 PUSH20 0xFFFFFFFFFFFFFFFFFFFFFFFFFFFFFFFFFFFFFFFF AND PUSH32 0xC3D58168C5AE7397731D063D5BBF3D657854427343F4C083240F7AACAA2D0F62 DUP8 DUP8 PUSH1 0x40 MLOAD PUSH2 0x1FBE SWAP3 SWAP2 SWAP1 PUSH2 0x4258 JUMP JUMPDEST PUSH1 0x40 MLOAD DUP1 SWAP2 SUB SWAP1 LOG4 PUSH2 0x1FD5 DUP2 PUSH1 0x0 DUP8 DUP8 DUP8 DUP8 PUSH2 0x2BDA JUMP JUMPDEST POP POP POP POP POP JUMP JUMPDEST PUSH2 0x1FE4 PUSH2 0xCF2 JUMP JUMPDEST PUSH2 0x2023 JUMPI PUSH1 0x40 MLOAD PUSH32 0x8C379A000000000000000000000000000000000000000000000000000000000 DUP2 MSTORE PUSH1 0x4 ADD PUSH2 0x201A SWAP1 PUSH2 0x405D JUMP JUMPDEST PUSH1 0x40 MLOAD DUP1 SWAP2 SUB SWAP1 REVERT JUMPDEST PUSH1 0x0 PUSH1 0x3 PUSH1 0x14 PUSH2 0x100 EXP DUP2 SLOAD DUP2 PUSH1 0xFF MUL NOT AND SWAP1 DUP4 ISZERO ISZERO MUL OR SWAP1 SSTORE POP PUSH32 0x5DB9EE0A495BF2E6FF9C91A7834C1BA4FDD244A5E8AA4E537BD38AEAE4B073AA PUSH2 0x2067 PUSH2 0x14CC JUMP JUMPDEST PUSH1 0x40 MLOAD PUSH2 0x2074 SWAP2 SWAP1 PUSH2 0x3DF7 JUMP JUMPDEST PUSH1 0x40 MLOAD DUP1 SWAP2 SUB SWAP1 LOG1 JUMP JUMPDEST PUSH1 0x0 PUSH1 0x3 PUSH1 0x0 SWAP1 SLOAD SWAP1 PUSH2 0x100 EXP SWAP1 DIV PUSH20 0xFFFFFFFFFFFFFFFFFFFFFFFFFFFFFFFFFFFFFFFF AND SWAP1 POP DUP2 PUSH1 0x3 PUSH1 0x0 PUSH2 0x100 EXP DUP2 SLOAD DUP2 PUSH20 0xFFFFFFFFFFFFFFFFFFFFFFFFFFFFFFFFFFFFFFFF MUL NOT AND SWAP1 DUP4 PUSH20 0xFFFFFFFFFFFFFFFFFFFFFFFFFFFFFFFFFFFFFFFF AND MUL OR SWAP1 SSTORE POP DUP2 PUSH20 0xFFFFFFFFFFFFFFFFFFFFFFFFFFFFFFFFFFFFFFFF AND DUP2 PUSH20 0xFFFFFFFFFFFFFFFFFFFFFFFFFFFFFFFFFFFFFFFF AND PUSH32 0x8BE0079C531659141344CD1FD0A4F28419497F9722A3DAAFE3B4186F6B6457E0 PUSH1 0x40 MLOAD PUSH1 0x40 MLOAD DUP1 SWAP2 SUB SWAP1 LOG3 POP POP JUMP JUMPDEST PUSH2 0x214C PUSH2 0xCF2 JUMP JUMPDEST ISZERO PUSH2 0x218C JUMPI PUSH1 0x40 MLOAD PUSH32 0x8C379A000000000000000000000000000000000000000000000000000000000 DUP2 MSTORE PUSH1 0x4 ADD PUSH2 0x2183 SWAP1 PUSH2 0x40FD JUMP JUMPDEST PUSH1 0x40 MLOAD DUP1 SWAP2 SUB SWAP1 REVERT JUMPDEST PUSH1 0x1 PUSH1 0x3 PUSH1 0x14 PUSH2 0x100 EXP DUP2 SLOAD DUP2 PUSH1 0xFF MUL NOT AND SWAP1 DUP4 ISZERO ISZERO MUL OR SWAP1 SSTORE POP PUSH32 0x62E78CEA01BEE320CD4E420270B5EA74000D11B0C9F74754EBDBFC544B05A258 PUSH2 0x21D0 PUSH2 0x14CC JUMP JUMPDEST PUSH1 0x40 MLOAD PUSH2 0x21DD SWAP2 SWAP1 PUSH2 0x3DF7 JUMP JUMPDEST PUSH1 0x40 MLOAD DUP1 SWAP2 SUB SWAP1 LOG1 JUMP JUMPDEST DUP2 PUSH20 0xFFFFFFFFFFFFFFFFFFFFFFFFFFFFFFFFFFFFFFFF AND DUP4 PUSH20 0xFFFFFFFFFFFFFFFFFFFFFFFFFFFFFFFFFFFFFFFF AND EQ ISZERO PUSH2 0x2256 JUMPI PUSH1 0x40 MLOAD PUSH32 0x8C379A000000000000000000000000000000000000000000000000000000000 DUP2 MSTORE PUSH1 0x4 ADD PUSH2 0x224D SWAP1 PUSH2 0x41BD JUMP JUMPDEST PUSH1 0x40 MLOAD DUP1 SWAP2 SUB SWAP1 REVERT JUMPDEST DUP1 PUSH1 0x1 PUSH1 0x0 DUP6 PUSH20 0xFFFFFFFFFFFFFFFFFFFFFFFFFFFFFFFFFFFFFFFF AND PUSH20 0xFFFFFFFFFFFFFFFFFFFFFFFFFFFFFFFFFFFFFFFF AND DUP2 MSTORE PUSH1 0x20 ADD SWAP1 DUP2 MSTORE PUSH1 0x20 ADD PUSH1 0x0 KECCAK256 PUSH1 0x0 DUP5 PUSH20 0xFFFFFFFFFFFFFFFFFFFFFFFFFFFFFFFFFFFFFFFF AND PUSH20 0xFFFFFFFFFFFFFFFFFFFFFFFFFFFFFFFFFFFFFFFF AND DUP2 MSTORE PUSH1 0x20 ADD SWAP1 DUP2 MSTORE PUSH1 0x20 ADD PUSH1 0x0 KECCAK256 PUSH1 0x0 PUSH2 0x100 EXP DUP2 SLOAD DUP2 PUSH1 0xFF MUL NOT AND SWAP1 DUP4 ISZERO ISZERO MUL OR SWAP1 SSTORE POP DUP2 PUSH20 0xFFFFFFFFFFFFFFFFFFFFFFFFFFFFFFFFFFFFFFFF AND DUP4 PUSH20 0xFFFFFFFFFFFFFFFFFFFFFFFFFFFFFFFFFFFFFFFF AND PUSH32 0x17307EAB39AB6107E8899845AD3D59BD9653F200F220920489CA2B5937696C31 DUP4 PUSH1 0x40 MLOAD PUSH2 0x2347 SWAP2 SWAP1 PUSH2 0x3FE0 JUMP JUMPDEST PUSH1 0x40 MLOAD DUP1 SWAP2 SUB SWAP1 LOG3 POP POP POP JUMP JUMPDEST PUSH1 0x0 PUSH1 0x1 PUSH1 0x0 DUP5 PUSH20 0xFFFFFFFFFFFFFFFFFFFFFFFFFFFFFFFFFFFFFFFF AND PUSH20 0xFFFFFFFFFFFFFFFFFFFFFFFFFFFFFFFFFFFFFFFF AND DUP2 MSTORE PUSH1 0x20 ADD SWAP1 DUP2 MSTORE PUSH1 0x20 ADD PUSH1 0x0 KECCAK256 PUSH1 0x0 DUP4 PUSH20 0xFFFFFFFFFFFFFFFFFFFFFFFFFFFFFFFFFFFFFFFF AND PUSH20 0xFFFFFFFFFFFFFFFFFFFFFFFFFFFFFFFFFFFFFFFF AND DUP2 MSTORE PUSH1 0x20 ADD SWAP1 DUP2 MSTORE PUSH1 0x20 ADD PUSH1 0x0 KECCAK256 PUSH1 0x0 SWAP1 SLOAD SWAP1 PUSH2 0x100 EXP SWAP1 DIV PUSH1 0xFF AND SWAP1 POP SWAP3 SWAP2 POP POP JUMP JUMPDEST PUSH1 0x0 PUSH20 0xFFFFFFFFFFFFFFFFFFFFFFFFFFFFFFFFFFFFFFFF AND DUP5 PUSH20 0xFFFFFFFFFFFFFFFFFFFFFFFFFFFFFFFFFFFFFFFF AND EQ ISZERO PUSH2 0x2458 JUMPI PUSH1 0x40 MLOAD PUSH32 0x8C379A000000000000000000000000000000000000000000000000000000000 DUP2 MSTORE PUSH1 0x4 ADD PUSH2 0x244F SWAP1 PUSH2 0x411D JUMP JUMPDEST PUSH1 0x40 MLOAD DUP1 SWAP2 SUB SWAP1 REVERT JUMPDEST PUSH1 0x0 PUSH2 0x2462 PUSH2 0x14CC JUMP JUMPDEST SWAP1 POP PUSH2 0x2482 DUP2 DUP8 DUP8 PUSH2 0x2473 DUP9 PUSH2 0x2B60 JUMP JUMPDEST PUSH2 0x247C DUP9 PUSH2 0x2B60 JUMP JUMPDEST DUP8 PUSH2 0x291B JUMP JUMPDEST PUSH1 0x0 DUP1 PUSH1 0x0 DUP7 DUP2 MSTORE PUSH1 0x20 ADD SWAP1 DUP2 MSTORE PUSH1 0x20 ADD PUSH1 0x0 KECCAK256 PUSH1 0x0 DUP9 PUSH20 0xFFFFFFFFFFFFFFFFFFFFFFFFFFFFFFFFFFFFFFFF AND PUSH20 0xFFFFFFFFFFFFFFFFFFFFFFFFFFFFFFFFFFFFFFFF AND DUP2 MSTORE PUSH1 0x20 ADD SWAP1 DUP2 MSTORE PUSH1 0x20 ADD PUSH1 0x0 KECCAK256 SLOAD SWAP1 POP DUP4 DUP2 LT ISZERO PUSH2 0x2519 JUMPI PUSH1 0x40 MLOAD PUSH32 0x8C379A000000000000000000000000000000000000000000000000000000000 DUP2 MSTORE PUSH1 0x4 ADD PUSH2 0x2510 SWAP1 PUSH2 0x417D JUMP JUMPDEST PUSH1 0x40 MLOAD DUP1 SWAP2 SUB SWAP1 REVERT JUMPDEST DUP4 DUP2 SUB PUSH1 0x0 DUP1 DUP8 DUP2 MSTORE PUSH1 0x20 ADD SWAP1 DUP2 MSTORE PUSH1 0x20 ADD PUSH1 0x0 KECCAK256 PUSH1 0x0 DUP10 PUSH20 0xFFFFFFFFFFFFFFFFFFFFFFFFFFFFFFFFFFFFFFFF AND PUSH20 0xFFFFFFFFFFFFFFFFFFFFFFFFFFFFFFFFFFFFFFFF AND DUP2 MSTORE PUSH1 0x20 ADD SWAP1 DUP2 MSTORE PUSH1 0x20 ADD PUSH1 0x0 KECCAK256 DUP2 SWAP1 SSTORE POP DUP4 PUSH1 0x0 DUP1 DUP8 DUP2 MSTORE PUSH1 0x20 ADD SWAP1 DUP2 MSTORE PUSH1 0x20 ADD PUSH1 0x0 KECCAK256 PUSH1 0x0 DUP9 PUSH20 0xFFFFFFFFFFFFFFFFFFFFFFFFFFFFFFFFFFFFFFFF AND PUSH20 0xFFFFFFFFFFFFFFFFFFFFFFFFFFFFFFFFFFFFFFFF AND DUP2 MSTORE PUSH1 0x20 ADD SWAP1 DUP2 MSTORE PUSH1 0x20 ADD PUSH1 0x0 KECCAK256 PUSH1 0x0 DUP3 DUP3 SLOAD PUSH2 0x25CE SWAP2 SWAP1 PUSH2 0x43DC JUMP JUMPDEST SWAP3 POP POP DUP2 SWAP1 SSTORE POP DUP6 PUSH20 0xFFFFFFFFFFFFFFFFFFFFFFFFFFFFFFFFFFFFFFFF AND DUP8 PUSH20 0xFFFFFFFFFFFFFFFFFFFFFFFFFFFFFFFFFFFFFFFF AND DUP4 PUSH20 0xFFFFFFFFFFFFFFFFFFFFFFFFFFFFFFFFFFFFFFFF AND PUSH32 0xC3D58168C5AE7397731D063D5BBF3D657854427343F4C083240F7AACAA2D0F62 DUP9 DUP9 PUSH1 0x40 MLOAD PUSH2 0x264B SWAP3 SWAP2 SWAP1 PUSH2 0x4258 JUMP JUMPDEST PUSH1 0x40 MLOAD DUP1 SWAP2 SUB SWAP1 LOG4 PUSH2 0x2661 DUP3 DUP9 DUP9 DUP9 DUP9 DUP9 PUSH2 0x2BDA JUMP JUMPDEST POP POP POP POP POP POP POP JUMP JUMPDEST PUSH1 0x0 PUSH20 0xFFFFFFFFFFFFFFFFFFFFFFFFFFFFFFFFFFFFFFFF AND DUP4 PUSH20 0xFFFFFFFFFFFFFFFFFFFFFFFFFFFFFFFFFFFFFFFF AND EQ ISZERO PUSH2 0x26DA JUMPI PUSH1 0x40 MLOAD PUSH32 0x8C379A000000000000000000000000000000000000000000000000000000000 DUP2 MSTORE PUSH1 0x4 ADD PUSH2 0x26D1 SWAP1 PUSH2 0x415D JUMP JUMPDEST PUSH1 0x40 MLOAD DUP1 SWAP2 SUB SWAP1 REVERT JUMPDEST PUSH1 0x0 PUSH2 0x26E4 PUSH2 0x14CC JUMP JUMPDEST SWAP1 POP PUSH2 0x2714 DUP2 DUP6 PUSH1 0x0 PUSH2 0x26F6 DUP8 PUSH2 0x2B60 JUMP JUMPDEST PUSH2 0x26FF DUP8 PUSH2 0x2B60 JUMP JUMPDEST PUSH1 0x40 MLOAD DUP1 PUSH1 0x20 ADD PUSH1 0x40 MSTORE DUP1 PUSH1 0x0 DUP2 MSTORE POP PUSH2 0x291B JUMP JUMPDEST PUSH1 0x0 DUP1 PUSH1 0x0 DUP6 DUP2 MSTORE PUSH1 0x20 ADD SWAP1 DUP2 MSTORE PUSH1 0x20 ADD PUSH1 0x0 KECCAK256 PUSH1 0x0 DUP7 PUSH20 0xFFFFFFFFFFFFFFFFFFFFFFFFFFFFFFFFFFFFFFFF AND PUSH20 0xFFFFFFFFFFFFFFFFFFFFFFFFFFFFFFFFFFFFFFFF AND DUP2 MSTORE PUSH1 0x20 ADD SWAP1 DUP2 MSTORE PUSH1 0x20 ADD PUSH1 0x0 KECCAK256 SLOAD SWAP1 POP DUP3 DUP2 LT ISZERO PUSH2 0x27AB JUMPI PUSH1 0x40 MLOAD PUSH32 0x8C379A000000000000000000000000000000000000000000000000000000000 DUP2 MSTORE PUSH1 0x4 ADD PUSH2 0x27A2 SWAP1 PUSH2 0x40BD JUMP JUMPDEST PUSH1 0x40 MLOAD DUP1 SWAP2 SUB SWAP1 REVERT JUMPDEST DUP3 DUP2 SUB PUSH1 0x0 DUP1 DUP7 DUP2 MSTORE PUSH1 0x20 ADD SWAP1 DUP2 MSTORE PUSH1 0x20 ADD PUSH1 0x0 KECCAK256 PUSH1 0x0 DUP8 PUSH20 0xFFFFFFFFFFFFFFFFFFFFFFFFFFFFFFFFFFFFFFFF AND PUSH20 0xFFFFFFFFFFFFFFFFFFFFFFFFFFFFFFFFFFFFFFFF AND DUP2 MSTORE PUSH1 0x20 ADD SWAP1 DUP2 MSTORE PUSH1 0x20 ADD PUSH1 0x0 KECCAK256 DUP2 SWAP1 SSTORE POP PUSH1 0x0 PUSH20 0xFFFFFFFFFFFFFFFFFFFFFFFFFFFFFFFFFFFFFFFF AND DUP6 PUSH20 0xFFFFFFFFFFFFFFFFFFFFFFFFFFFFFFFFFFFFFFFF AND DUP4 PUSH20 0xFFFFFFFFFFFFFFFFFFFFFFFFFFFFFFFFFFFFFFFF AND PUSH32 0xC3D58168C5AE7397731D063D5BBF3D657854427343F4C083240F7AACAA2D0F62 DUP8 DUP8 PUSH1 0x40 MLOAD PUSH2 0x2878 SWAP3 SWAP2 SWAP1 PUSH2 0x4258 JUMP JUMPDEST PUSH1 0x40 MLOAD DUP1 SWAP2 SUB SWAP1 LOG4 POP POP POP POP POP JUMP JUMPDEST PUSH1 0x60 PUSH1 0x2 DUP1 SLOAD PUSH2 0x2896 SWAP1 PUSH2 0x452E JUMP JUMPDEST DUP1 PUSH1 0x1F ADD PUSH1 0x20 DUP1 SWAP2 DIV MUL PUSH1 0x20 ADD PUSH1 0x40 MLOAD SWAP1 DUP2 ADD PUSH1 0x40 MSTORE DUP1 SWAP3 SWAP2 SWAP1 DUP2 DUP2 MSTORE PUSH1 0x20 ADD DUP3 DUP1 SLOAD PUSH2 0x28C2 SWAP1 PUSH2 0x452E JUMP JUMPDEST DUP1 ISZERO PUSH2 0x290F JUMPI DUP1 PUSH1 0x1F LT PUSH2 0x28E4 JUMPI PUSH2 0x100 DUP1 DUP4 SLOAD DIV MUL DUP4 MSTORE SWAP2 PUSH1 0x20 ADD SWAP2 PUSH2 0x290F JUMP JUMPDEST DUP3 ADD SWAP2 SWAP1 PUSH1 0x0 MSTORE PUSH1 0x20 PUSH1 0x0 KECCAK256 SWAP1 JUMPDEST DUP2 SLOAD DUP2 MSTORE SWAP1 PUSH1 0x1 ADD SWAP1 PUSH1 0x20 ADD DUP1 DUP4 GT PUSH2 0x28F2 JUMPI DUP3 SWAP1 SUB PUSH1 0x1F AND DUP3 ADD SWAP2 JUMPDEST POP POP POP POP POP SWAP1 POP SWAP2 SWAP1 POP JUMP JUMPDEST PUSH2 0x2923 PUSH2 0xCF2 JUMP JUMPDEST ISZERO PUSH2 0x2963 JUMPI PUSH1 0x40 MLOAD PUSH32 0x8C379A000000000000000000000000000000000000000000000000000000000 DUP2 MSTORE PUSH1 0x4 ADD PUSH2 0x295A SWAP1 PUSH2 0x40FD JUMP JUMPDEST PUSH1 0x40 MLOAD DUP1 SWAP2 SUB SWAP1 REVERT JUMPDEST PUSH2 0x2971 DUP7 DUP7 DUP7 DUP7 DUP7 DUP7 PUSH2 0x2DC1 JUMP JUMPDEST POP POP POP POP POP POP JUMP JUMPDEST PUSH2 0x2998 DUP5 PUSH20 0xFFFFFFFFFFFFFFFFFFFFFFFFFFFFFFFFFFFFFFFF AND PUSH2 0x2F3B JUMP JUMPDEST ISZERO PUSH2 0x2B58 JUMPI DUP4 PUSH20 0xFFFFFFFFFFFFFFFFFFFFFFFFFFFFFFFFFFFFFFFF AND PUSH4 0xBC197C81 DUP8 DUP8 DUP7 DUP7 DUP7 PUSH1 0x40 MLOAD DUP7 PUSH4 0xFFFFFFFF AND PUSH1 0xE0 SHL DUP2 MSTORE PUSH1 0x4 ADD PUSH2 0x29DE SWAP6 SWAP5 SWAP4 SWAP3 SWAP2 SWAP1 PUSH2 0x3E12 JUMP JUMPDEST PUSH1 0x20 PUSH1 0x40 MLOAD DUP1 DUP4 SUB DUP2 PUSH1 0x0 DUP8 DUP1 EXTCODESIZE ISZERO DUP1 ISZERO PUSH2 0x29F8 JUMPI PUSH1 0x0 DUP1 REVERT JUMPDEST POP GAS CALL SWAP3 POP POP POP DUP1 ISZERO PUSH2 0x2A29 JUMPI POP PUSH1 0x40 MLOAD RETURNDATASIZE PUSH1 0x1F NOT PUSH1 0x1F DUP3 ADD AND DUP3 ADD DUP1 PUSH1 0x40 MSTORE POP DUP2 ADD SWAP1 PUSH2 0x2A26 SWAP2 SWAP1 PUSH2 0x3871 JUMP JUMPDEST PUSH1 0x1 JUMPDEST PUSH2 0x2ACF JUMPI PUSH2 0x2A35 PUSH2 0x4696 JUMP JUMPDEST DUP1 PUSH4 0x8C379A0 EQ ISZERO PUSH2 0x2A92 JUMPI POP PUSH2 0x2A4A PUSH2 0x4BE5 JUMP JUMPDEST DUP1 PUSH2 0x2A55 JUMPI POP PUSH2 0x2A94 JUMP JUMPDEST DUP1 PUSH1 0x40 MLOAD PUSH32 0x8C379A000000000000000000000000000000000000000000000000000000000 DUP2 MSTORE PUSH1 0x4 ADD PUSH2 0x2A89 SWAP2 SWAP1 PUSH2 0x3FFB JUMP JUMPDEST PUSH1 0x40 MLOAD DUP1 SWAP2 SUB SWAP1 REVERT JUMPDEST POP JUMPDEST PUSH1 0x40 MLOAD PUSH32 0x8C379A000000000000000000000000000000000000000000000000000000000 DUP2 MSTORE PUSH1 0x4 ADD PUSH2 0x2AC6 SWAP1 PUSH2 0x401D JUMP JUMPDEST PUSH1 0x40 MLOAD DUP1 SWAP2 SUB SWAP1 REVERT JUMPDEST PUSH4 0xBC197C81 PUSH1 0xE0 SHL PUSH28 0xFFFFFFFFFFFFFFFFFFFFFFFFFFFFFFFFFFFFFFFFFFFFFFFFFFFFFFFF NOT AND DUP2 PUSH28 0xFFFFFFFFFFFFFFFFFFFFFFFFFFFFFFFFFFFFFFFFFFFFFFFFFFFFFFFF NOT AND EQ PUSH2 0x2B56 JUMPI PUSH1 0x40 MLOAD PUSH32 0x8C379A000000000000000000000000000000000000000000000000000000000 DUP2 MSTORE PUSH1 0x4 ADD PUSH2 0x2B4D SWAP1 PUSH2 0x403D JUMP JUMPDEST PUSH1 0x40 MLOAD DUP1 SWAP2 SUB SWAP1 REVERT JUMPDEST POP JUMPDEST POP POP POP POP POP POP JUMP JUMPDEST PUSH1 0x60 PUSH1 0x0 PUSH1 0x1 PUSH8 0xFFFFFFFFFFFFFFFF DUP2 GT ISZERO PUSH2 0x2B7F JUMPI PUSH2 0x2B7E PUSH2 0x4667 JUMP JUMPDEST JUMPDEST PUSH1 0x40 MLOAD SWAP1 DUP1 DUP3 MSTORE DUP1 PUSH1 0x20 MUL PUSH1 0x20 ADD DUP3 ADD PUSH1 0x40 MSTORE DUP1 ISZERO PUSH2 0x2BAD JUMPI DUP2 PUSH1 0x20 ADD PUSH1 0x20 DUP3 MUL DUP1 CALLDATASIZE DUP4 CALLDATACOPY DUP1 DUP3 ADD SWAP2 POP POP SWAP1 POP JUMPDEST POP SWAP1 POP DUP3 DUP2 PUSH1 0x0 DUP2 MLOAD DUP2 LT PUSH2 0x2BC5 JUMPI PUSH2 0x2BC4 PUSH2 0x4638 JUMP JUMPDEST JUMPDEST PUSH1 0x20 MUL PUSH1 0x20 ADD ADD DUP2 DUP2 MSTORE POP POP DUP1 SWAP2 POP POP SWAP2 SWAP1 POP JUMP JUMPDEST PUSH2 0x2BF9 DUP5 PUSH20 0xFFFFFFFFFFFFFFFFFFFFFFFFFFFFFFFFFFFFFFFF AND PUSH2 0x2F3B JUMP JUMPDEST ISZERO PUSH2 0x2DB9 JUMPI DUP4 PUSH20 0xFFFFFFFFFFFFFFFFFFFFFFFFFFFFFFFFFFFFFFFF AND PUSH4 0xF23A6E61 DUP8 DUP8 DUP7 DUP7 DUP7 PUSH1 0x40 MLOAD DUP7 PUSH4 0xFFFFFFFF AND PUSH1 0xE0 SHL DUP2 MSTORE PUSH1 0x4 ADD PUSH2 0x2C3F SWAP6 SWAP5 SWAP4 SWAP3 SWAP2 SWAP1 PUSH2 0x3E7A JUMP JUMPDEST PUSH1 0x20 PUSH1 0x40 MLOAD DUP1 DUP4 SUB DUP2 PUSH1 0x0 DUP8 DUP1 EXTCODESIZE ISZERO DUP1 ISZERO PUSH2 0x2C59 JUMPI PUSH1 0x0 DUP1 REVERT JUMPDEST POP GAS CALL SWAP3 POP POP POP DUP1 ISZERO PUSH2 0x2C8A JUMPI POP PUSH1 0x40 MLOAD RETURNDATASIZE PUSH1 0x1F NOT PUSH1 0x1F DUP3 ADD AND DUP3 ADD DUP1 PUSH1 0x40 MSTORE POP DUP2 ADD SWAP1 PUSH2 0x2C87 SWAP2 SWAP1 PUSH2 0x3871 JUMP JUMPDEST PUSH1 0x1 JUMPDEST PUSH2 0x2D30 JUMPI PUSH2 0x2C96 PUSH2 0x4696 JUMP JUMPDEST DUP1 PUSH4 0x8C379A0 EQ ISZERO PUSH2 0x2CF3 JUMPI POP PUSH2 0x2CAB PUSH2 0x4BE5 JUMP JUMPDEST DUP1 PUSH2 0x2CB6 JUMPI POP PUSH2 0x2CF5 JUMP JUMPDEST DUP1 PUSH1 0x40 MLOAD PUSH32 0x8C379A000000000000000000000000000000000000000000000000000000000 DUP2 MSTORE PUSH1 0x4 ADD PUSH2 0x2CEA SWAP2 SWAP1 PUSH2 0x3FFB JUMP JUMPDEST PUSH1 0x40 MLOAD DUP1 SWAP2 SUB SWAP1 REVERT JUMPDEST POP JUMPDEST PUSH1 0x40 MLOAD PUSH32 0x8C379A000000000000000000000000000000000000000000000000000000000 DUP2 MSTORE PUSH1 0x4 ADD PUSH2 0x2D27 SWAP1 PUSH2 0x401D JUMP JUMPDEST PUSH1 0x40 MLOAD DUP1 SWAP2 SUB SWAP1 REVERT JUMPDEST PUSH4 0xF23A6E61 PUSH1 0xE0 SHL PUSH28 0xFFFFFFFFFFFFFFFFFFFFFFFFFFFFFFFFFFFFFFFFFFFFFFFFFFFFFFFF NOT AND DUP2 PUSH28 0xFFFFFFFFFFFFFFFFFFFFFFFFFFFFFFFFFFFFFFFFFFFFFFFFFFFFFFFF NOT AND EQ PUSH2 0x2DB7 JUMPI PUSH1 0x40 MLOAD PUSH32 0x8C379A000000000000000000000000000000000000000000000000000000000 DUP2 MSTORE PUSH1 0x4 ADD PUSH2 0x2DAE SWAP1 PUSH2 0x403D JUMP JUMPDEST PUSH1 0x40 MLOAD DUP1 SWAP2 SUB SWAP1 REVERT JUMPDEST POP JUMPDEST POP POP POP POP POP POP JUMP JUMPDEST PUSH2 0x2DCF DUP7 DUP7 DUP7 DUP7 DUP7 DUP7 PUSH2 0x2F5E JUMP JUMPDEST PUSH1 0x0 PUSH20 0xFFFFFFFFFFFFFFFFFFFFFFFFFFFFFFFFFFFFFFFF AND DUP6 PUSH20 0xFFFFFFFFFFFFFFFFFFFFFFFFFFFFFFFFFFFFFFFF AND EQ ISZERO PUSH2 0x2E81 JUMPI PUSH1 0x0 JUMPDEST DUP4 MLOAD DUP2 LT ISZERO PUSH2 0x2E7F JUMPI DUP3 DUP2 DUP2 MLOAD DUP2 LT PUSH2 0x2E23 JUMPI PUSH2 0x2E22 PUSH2 0x4638 JUMP JUMPDEST JUMPDEST PUSH1 0x20 MUL PUSH1 0x20 ADD ADD MLOAD PUSH1 0x4 PUSH1 0x0 DUP7 DUP5 DUP2 MLOAD DUP2 LT PUSH2 0x2E42 JUMPI PUSH2 0x2E41 PUSH2 0x4638 JUMP JUMPDEST JUMPDEST PUSH1 0x20 MUL PUSH1 0x20 ADD ADD MLOAD DUP2 MSTORE PUSH1 0x20 ADD SWAP1 DUP2 MSTORE PUSH1 0x20 ADD PUSH1 0x0 KECCAK256 PUSH1 0x0 DUP3 DUP3 SLOAD PUSH2 0x2E67 SWAP2 SWAP1 PUSH2 0x43DC JUMP JUMPDEST SWAP3 POP POP DUP2 SWAP1 SSTORE POP DUP1 PUSH2 0x2E78 SWAP1 PUSH2 0x4591 JUMP JUMPDEST SWAP1 POP PUSH2 0x2E07 JUMP JUMPDEST POP JUMPDEST PUSH1 0x0 PUSH20 0xFFFFFFFFFFFFFFFFFFFFFFFFFFFFFFFFFFFFFFFF AND DUP5 PUSH20 0xFFFFFFFFFFFFFFFFFFFFFFFFFFFFFFFFFFFFFFFF AND EQ ISZERO PUSH2 0x2F33 JUMPI PUSH1 0x0 JUMPDEST DUP4 MLOAD DUP2 LT ISZERO PUSH2 0x2F31 JUMPI DUP3 DUP2 DUP2 MLOAD DUP2 LT PUSH2 0x2ED5 JUMPI PUSH2 0x2ED4 PUSH2 0x4638 JUMP JUMPDEST JUMPDEST PUSH1 0x20 MUL PUSH1 0x20 ADD ADD MLOAD PUSH1 0x4 PUSH1 0x0 DUP7 DUP5 DUP2 MLOAD DUP2 LT PUSH2 0x2EF4 JUMPI PUSH2 0x2EF3 PUSH2 0x4638 JUMP JUMPDEST JUMPDEST PUSH1 0x20 MUL PUSH1 0x20 ADD ADD MLOAD DUP2 MSTORE PUSH1 0x20 ADD SWAP1 DUP2 MSTORE PUSH1 0x20 ADD PUSH1 0x0 KECCAK256 PUSH1 0x0 DUP3 DUP3 SLOAD PUSH2 0x2F19 SWAP2 SWAP1 PUSH2 0x4432 JUMP JUMPDEST SWAP3 POP POP DUP2 SWAP1 SSTORE POP DUP1 PUSH2 0x2F2A SWAP1 PUSH2 0x4591 JUMP JUMPDEST SWAP1 POP PUSH2 0x2EB9 JUMP JUMPDEST POP JUMPDEST POP POP POP POP POP POP JUMP JUMPDEST PUSH1 0x0 DUP1 DUP3 PUSH20 0xFFFFFFFFFFFFFFFFFFFFFFFFFFFFFFFFFFFFFFFF AND EXTCODESIZE GT SWAP1 POP SWAP2 SWAP1 POP JUMP JUMPDEST POP POP POP POP POP POP JUMP JUMPDEST DUP3 DUP1 SLOAD PUSH2 0x2F72 SWAP1 PUSH2 0x452E JUMP JUMPDEST SWAP1 PUSH1 0x0 MSTORE PUSH1 0x20 PUSH1 0x0 KECCAK256 SWAP1 PUSH1 0x1F ADD PUSH1 0x20 SWAP1 DIV DUP2 ADD SWAP3 DUP3 PUSH2 0x2F94 JUMPI PUSH1 0x0 DUP6 SSTORE PUSH2 0x2FDB JUMP JUMPDEST DUP3 PUSH1 0x1F LT PUSH2 0x2FAD JUMPI DUP1 MLOAD PUSH1 0xFF NOT AND DUP4 DUP1 ADD OR DUP6 SSTORE PUSH2 0x2FDB JUMP JUMPDEST DUP3 DUP1 ADD PUSH1 0x1 ADD DUP6 SSTORE DUP3 ISZERO PUSH2 0x2FDB JUMPI SWAP2 DUP3 ADD JUMPDEST DUP3 DUP2 GT ISZERO PUSH2 0x2FDA JUMPI DUP3 MLOAD DUP3 SSTORE SWAP2 PUSH1 0x20 ADD SWAP2 SWAP1 PUSH1 0x1 ADD SWAP1 PUSH2 0x2FBF JUMP JUMPDEST JUMPDEST POP SWAP1 POP PUSH2 0x2FE8 SWAP2 SWAP1 PUSH2 0x2FEC JUMP JUMPDEST POP SWAP1 JUMP JUMPDEST JUMPDEST DUP1 DUP3 GT ISZERO PUSH2 0x3005 JUMPI PUSH1 0x0 DUP2 PUSH1 0x0 SWAP1 SSTORE POP PUSH1 0x1 ADD PUSH2 0x2FED JUMP JUMPDEST POP SWAP1 JUMP JUMPDEST PUSH1 0x0 PUSH2 0x301C PUSH2 0x3017 DUP5 PUSH2 0x42A6 JUMP JUMPDEST PUSH2 0x4281 JUMP JUMPDEST SWAP1 POP DUP1 DUP4 DUP3 MSTORE PUSH1 0x20 DUP3 ADD SWAP1 POP DUP3 DUP6 PUSH1 0x20 DUP7 MUL DUP3 ADD GT ISZERO PUSH2 0x303F JUMPI PUSH2 0x303E PUSH2 0x46BD JUMP JUMPDEST JUMPDEST PUSH1 0x0 JUMPDEST DUP6 DUP2 LT ISZERO PUSH2 0x306F JUMPI DUP2 PUSH2 0x3055 DUP9 DUP3 PUSH2 0x316D JUMP JUMPDEST DUP5 MSTORE PUSH1 0x20 DUP5 ADD SWAP4 POP PUSH1 0x20 DUP4 ADD SWAP3 POP POP PUSH1 0x1 DUP2 ADD SWAP1 POP PUSH2 0x3042 JUMP JUMPDEST POP POP POP SWAP4 SWAP3 POP POP POP JUMP JUMPDEST PUSH1 0x0 PUSH2 0x308C PUSH2 0x3087 DUP5 PUSH2 0x42D2 JUMP JUMPDEST PUSH2 0x4281 JUMP JUMPDEST SWAP1 POP DUP1 DUP4 DUP3 MSTORE PUSH1 0x20 DUP3 ADD SWAP1 POP DUP3 DUP6 PUSH1 0x20 DUP7 MUL DUP3 ADD GT ISZERO PUSH2 0x30AF JUMPI PUSH2 0x30AE PUSH2 0x46BD JUMP JUMPDEST JUMPDEST PUSH1 0x0 JUMPDEST DUP6 DUP2 LT ISZERO PUSH2 0x30DF JUMPI DUP2 PUSH2 0x30C5 DUP9 DUP3 PUSH2 0x3279 JUMP JUMPDEST DUP5 MSTORE PUSH1 0x20 DUP5 ADD SWAP4 POP PUSH1 0x20 DUP4 ADD SWAP3 POP POP PUSH1 0x1 DUP2 ADD SWAP1 POP PUSH2 0x30B2 JUMP JUMPDEST POP POP POP SWAP4 SWAP3 POP POP POP JUMP JUMPDEST PUSH1 0x0 PUSH2 0x30FC PUSH2 0x30F7 DUP5 PUSH2 0x42FE JUMP JUMPDEST PUSH2 0x4281 JUMP JUMPDEST SWAP1 POP DUP3 DUP2 MSTORE PUSH1 0x20 DUP2 ADD DUP5 DUP5 DUP5 ADD GT ISZERO PUSH2 0x3118 JUMPI PUSH2 0x3117 PUSH2 0x46C2 JUMP JUMPDEST JUMPDEST PUSH2 0x3123 DUP5 DUP3 DUP6 PUSH2 0x44EC JUMP JUMPDEST POP SWAP4 SWAP3 POP POP POP JUMP JUMPDEST PUSH1 0x0 PUSH2 0x313E PUSH2 0x3139 DUP5 PUSH2 0x432F JUMP JUMPDEST PUSH2 0x4281 JUMP JUMPDEST SWAP1 POP DUP3 DUP2 MSTORE PUSH1 0x20 DUP2 ADD DUP5 DUP5 DUP5 ADD GT ISZERO PUSH2 0x315A JUMPI PUSH2 0x3159 PUSH2 0x46C2 JUMP JUMPDEST JUMPDEST PUSH2 0x3165 DUP5 DUP3 DUP6 PUSH2 0x44EC JUMP JUMPDEST POP SWAP4 SWAP3 POP POP POP JUMP JUMPDEST PUSH1 0x0 DUP2 CALLDATALOAD SWAP1 POP PUSH2 0x317C DUP2 PUSH2 0x4C7B JUMP JUMPDEST SWAP3 SWAP2 POP POP JUMP JUMPDEST PUSH1 0x0 DUP3 PUSH1 0x1F DUP4 ADD SLT PUSH2 0x3197 JUMPI PUSH2 0x3196 PUSH2 0x46B8 JUMP JUMPDEST JUMPDEST DUP2 CALLDATALOAD PUSH2 0x31A7 DUP5 DUP3 PUSH1 0x20 DUP7 ADD PUSH2 0x3009 JUMP JUMPDEST SWAP2 POP POP SWAP3 SWAP2 POP POP JUMP JUMPDEST PUSH1 0x0 DUP3 PUSH1 0x1F DUP4 ADD SLT PUSH2 0x31C5 JUMPI PUSH2 0x31C4 PUSH2 0x46B8 JUMP JUMPDEST JUMPDEST DUP2 CALLDATALOAD PUSH2 0x31D5 DUP5 DUP3 PUSH1 0x20 DUP7 ADD PUSH2 0x3079 JUMP JUMPDEST SWAP2 POP POP SWAP3 SWAP2 POP POP JUMP JUMPDEST PUSH1 0x0 DUP2 CALLDATALOAD SWAP1 POP PUSH2 0x31ED DUP2 PUSH2 0x4C92 JUMP JUMPDEST SWAP3 SWAP2 POP POP JUMP JUMPDEST PUSH1 0x0 DUP2 CALLDATALOAD SWAP1 POP PUSH2 0x3202 DUP2 PUSH2 0x4CA9 JUMP JUMPDEST SWAP3 SWAP2 POP POP JUMP JUMPDEST PUSH1 0x0 DUP2 MLOAD SWAP1 POP PUSH2 0x3217 DUP2 PUSH2 0x4CA9 JUMP JUMPDEST SWAP3 SWAP2 POP POP JUMP JUMPDEST PUSH1 0x0 DUP3 PUSH1 0x1F DUP4 ADD SLT PUSH2 0x3232 JUMPI PUSH2 0x3231 PUSH2 0x46B8 JUMP JUMPDEST JUMPDEST DUP2 CALLDATALOAD PUSH2 0x3242 DUP5 DUP3 PUSH1 0x20 DUP7 ADD PUSH2 0x30E9 JUMP JUMPDEST SWAP2 POP POP SWAP3 SWAP2 POP POP JUMP JUMPDEST PUSH1 0x0 DUP3 PUSH1 0x1F DUP4 ADD SLT PUSH2 0x3260 JUMPI PUSH2 0x325F PUSH2 0x46B8 JUMP JUMPDEST JUMPDEST DUP2 CALLDATALOAD PUSH2 0x3270 DUP5 DUP3 PUSH1 0x20 DUP7 ADD PUSH2 0x312B JUMP JUMPDEST SWAP2 POP POP SWAP3 SWAP2 POP POP JUMP JUMPDEST PUSH1 0x0 DUP2 CALLDATALOAD SWAP1 POP PUSH2 0x3288 DUP2 PUSH2 0x4CC0 JUMP JUMPDEST SWAP3 SWAP2 POP POP JUMP JUMPDEST PUSH1 0x0 PUSH1 0x20 DUP3 DUP5 SUB SLT ISZERO PUSH2 0x32A4 JUMPI PUSH2 0x32A3 PUSH2 0x46CC JUMP JUMPDEST JUMPDEST PUSH1 0x0 PUSH2 0x32B2 DUP5 DUP3 DUP6 ADD PUSH2 0x316D JUMP JUMPDEST SWAP2 POP POP SWAP3 SWAP2 POP POP JUMP JUMPDEST PUSH1 0x0 DUP1 PUSH1 0x40 DUP4 DUP6 SUB SLT ISZERO PUSH2 0x32D2 JUMPI PUSH2 0x32D1 PUSH2 0x46CC JUMP JUMPDEST JUMPDEST PUSH1 0x0 PUSH2 0x32E0 DUP6 DUP3 DUP7 ADD PUSH2 0x316D JUMP JUMPDEST SWAP3 POP POP PUSH1 0x20 PUSH2 0x32F1 DUP6 DUP3 DUP7 ADD PUSH2 0x316D JUMP JUMPDEST SWAP2 POP POP SWAP3 POP SWAP3 SWAP1 POP JUMP JUMPDEST PUSH1 0x0 DUP1 PUSH1 0x0 DUP1 PUSH1 0x0 PUSH1 0xA0 DUP7 DUP9 SUB SLT ISZERO PUSH2 0x3317 JUMPI PUSH2 0x3316 PUSH2 0x46CC JUMP JUMPDEST JUMPDEST PUSH1 0x0 PUSH2 0x3325 DUP9 DUP3 DUP10 ADD PUSH2 0x316D JUMP JUMPDEST SWAP6 POP POP PUSH1 0x20 PUSH2 0x3336 DUP9 DUP3 DUP10 ADD PUSH2 0x316D JUMP JUMPDEST SWAP5 POP POP PUSH1 0x40 DUP7 ADD CALLDATALOAD PUSH8 0xFFFFFFFFFFFFFFFF DUP2 GT ISZERO PUSH2 0x3357 JUMPI PUSH2 0x3356 PUSH2 0x46C7 JUMP JUMPDEST JUMPDEST PUSH2 0x3363 DUP9 DUP3 DUP10 ADD PUSH2 0x31B0 JUMP JUMPDEST SWAP4 POP POP PUSH1 0x60 DUP7 ADD CALLDATALOAD PUSH8 0xFFFFFFFFFFFFFFFF DUP2 GT ISZERO PUSH2 0x3384 JUMPI PUSH2 0x3383 PUSH2 0x46C7 JUMP JUMPDEST JUMPDEST PUSH2 0x3390 DUP9 DUP3 DUP10 ADD PUSH2 0x31B0 JUMP JUMPDEST SWAP3 POP POP PUSH1 0x80 DUP7 ADD CALLDATALOAD PUSH8 0xFFFFFFFFFFFFFFFF DUP2 GT ISZERO PUSH2 0x33B1 JUMPI PUSH2 0x33B0 PUSH2 0x46C7 JUMP JUMPDEST JUMPDEST PUSH2 0x33BD DUP9 DUP3 DUP10 ADD PUSH2 0x321D JUMP JUMPDEST SWAP2 POP POP SWAP3 SWAP6 POP SWAP3 SWAP6 SWAP1 SWAP4 POP JUMP JUMPDEST PUSH1 0x0 DUP1 PUSH1 0x0 DUP1 PUSH1 0x0 PUSH1 0xA0 DUP7 DUP9 SUB SLT ISZERO PUSH2 0x33E6 JUMPI PUSH2 0x33E5 PUSH2 0x46CC JUMP JUMPDEST JUMPDEST PUSH1 0x0 PUSH2 0x33F4 DUP9 DUP3 DUP10 ADD PUSH2 0x316D JUMP JUMPDEST SWAP6 POP POP PUSH1 0x20 PUSH2 0x3405 DUP9 DUP3 DUP10 ADD PUSH2 0x316D JUMP JUMPDEST SWAP5 POP POP PUSH1 0x40 PUSH2 0x3416 DUP9 DUP3 DUP10 ADD PUSH2 0x3279 JUMP JUMPDEST SWAP4 POP POP PUSH1 0x60 PUSH2 0x3427 DUP9 DUP3 DUP10 ADD PUSH2 0x3279 JUMP JUMPDEST SWAP3 POP POP PUSH1 0x80 DUP7 ADD CALLDATALOAD PUSH8 0xFFFFFFFFFFFFFFFF DUP2 GT ISZERO PUSH2 0x3448 JUMPI PUSH2 0x3447 PUSH2 0x46C7 JUMP JUMPDEST JUMPDEST PUSH2 0x3454 DUP9 DUP3 DUP10 ADD PUSH2 0x321D JUMP JUMPDEST SWAP2 POP POP SWAP3 SWAP6 POP SWAP3 SWAP6 SWAP1 SWAP4 POP JUMP JUMPDEST PUSH1 0x0 DUP1 PUSH1 0x0 PUSH1 0x60 DUP5 DUP7 SUB SLT ISZERO PUSH2 0x347A JUMPI PUSH2 0x3479 PUSH2 0x46CC JUMP JUMPDEST JUMPDEST PUSH1 0x0 PUSH2 0x3488 DUP7 DUP3 DUP8 ADD PUSH2 0x316D JUMP JUMPDEST SWAP4 POP POP PUSH1 0x20 DUP5 ADD CALLDATALOAD PUSH8 0xFFFFFFFFFFFFFFFF DUP2 GT ISZERO PUSH2 0x34A9 JUMPI PUSH2 0x34A8 PUSH2 0x46C7 JUMP JUMPDEST JUMPDEST PUSH2 0x34B5 DUP7 DUP3 DUP8 ADD PUSH2 0x31B0 JUMP JUMPDEST SWAP3 POP POP PUSH1 0x40 DUP5 ADD CALLDATALOAD PUSH8 0xFFFFFFFFFFFFFFFF DUP2 GT ISZERO PUSH2 0x34D6 JUMPI PUSH2 0x34D5 PUSH2 0x46C7 JUMP JUMPDEST JUMPDEST PUSH2 0x34E2 DUP7 DUP3 DUP8 ADD PUSH2 0x31B0 JUMP JUMPDEST SWAP2 POP POP SWAP3 POP SWAP3 POP SWAP3 JUMP JUMPDEST PUSH1 0x0 DUP1 PUSH1 0x0 DUP1 PUSH1 0x80 DUP6 DUP8 SUB SLT ISZERO PUSH2 0x3506 JUMPI PUSH2 0x3505 PUSH2 0x46CC JUMP JUMPDEST JUMPDEST PUSH1 0x0 PUSH2 0x3514 DUP8 DUP3 DUP9 ADD PUSH2 0x316D JUMP JUMPDEST SWAP5 POP POP PUSH1 0x20 DUP6 ADD CALLDATALOAD PUSH8 0xFFFFFFFFFFFFFFFF DUP2 GT ISZERO PUSH2 0x3535 JUMPI PUSH2 0x3534 PUSH2 0x46C7 JUMP JUMPDEST JUMPDEST PUSH2 0x3541 DUP8 DUP3 DUP9 ADD PUSH2 0x31B0 JUMP JUMPDEST SWAP4 POP POP PUSH1 0x40 DUP6 ADD CALLDATALOAD PUSH8 0xFFFFFFFFFFFFFFFF DUP2 GT ISZERO PUSH2 0x3562 JUMPI PUSH2 0x3561 PUSH2 0x46C7 JUMP JUMPDEST JUMPDEST PUSH2 0x356E DUP8 DUP3 DUP9 ADD PUSH2 0x31B0 JUMP JUMPDEST SWAP3 POP POP PUSH1 0x60 DUP6 ADD CALLDATALOAD PUSH8 0xFFFFFFFFFFFFFFFF DUP2 GT ISZERO PUSH2 0x358F JUMPI PUSH2 0x358E PUSH2 0x46C7 JUMP JUMPDEST JUMPDEST PUSH2 0x359B DUP8 DUP3 DUP9 ADD PUSH2 0x321D JUMP JUMPDEST SWAP2 POP POP SWAP3 SWAP6 SWAP2 SWAP5 POP SWAP3 POP JUMP JUMPDEST PUSH1 0x0 DUP1 PUSH1 0x0 DUP1 PUSH1 0x0 PUSH1 0xA0 DUP7 DUP9 SUB SLT ISZERO PUSH2 0x35C3 JUMPI PUSH2 0x35C2 PUSH2 0x46CC JUMP JUMPDEST JUMPDEST PUSH1 0x0 PUSH2 0x35D1 DUP9 DUP3 DUP10 ADD PUSH2 0x316D JUMP JUMPDEST SWAP6 POP POP PUSH1 0x20 DUP7 ADD CALLDATALOAD PUSH8 0xFFFFFFFFFFFFFFFF DUP2 GT ISZERO PUSH2 0x35F2 JUMPI PUSH2 0x35F1 PUSH2 0x46C7 JUMP JUMPDEST JUMPDEST PUSH2 0x35FE DUP9 DUP3 DUP10 ADD PUSH2 0x31B0 JUMP JUMPDEST SWAP5 POP POP PUSH1 0x40 DUP7 ADD CALLDATALOAD PUSH8 0xFFFFFFFFFFFFFFFF DUP2 GT ISZERO PUSH2 0x361F JUMPI PUSH2 0x361E PUSH2 0x46C7 JUMP JUMPDEST JUMPDEST PUSH2 0x362B DUP9 DUP3 DUP10 ADD PUSH2 0x31B0 JUMP JUMPDEST SWAP4 POP POP PUSH1 0x60 PUSH2 0x363C DUP9 DUP3 DUP10 ADD PUSH2 0x3279 JUMP JUMPDEST SWAP3 POP POP PUSH1 0x80 DUP7 ADD CALLDATALOAD PUSH8 0xFFFFFFFFFFFFFFFF DUP2 GT ISZERO PUSH2 0x365D JUMPI PUSH2 0x365C PUSH2 0x46C7 JUMP JUMPDEST JUMPDEST PUSH2 0x3669 DUP9 DUP3 DUP10 ADD PUSH2 0x321D JUMP JUMPDEST SWAP2 POP POP SWAP3 SWAP6 POP SWAP3 SWAP6 SWAP1 SWAP4 POP JUMP JUMPDEST PUSH1 0x0 DUP1 PUSH1 0x40 DUP4 DUP6 SUB SLT ISZERO PUSH2 0x368D JUMPI PUSH2 0x368C PUSH2 0x46CC JUMP JUMPDEST JUMPDEST PUSH1 0x0 PUSH2 0x369B DUP6 DUP3 DUP7 ADD PUSH2 0x316D JUMP JUMPDEST SWAP3 POP POP PUSH1 0x20 PUSH2 0x36AC DUP6 DUP3 DUP7 ADD PUSH2 0x31DE JUMP JUMPDEST SWAP2 POP POP SWAP3 POP SWAP3 SWAP1 POP JUMP JUMPDEST PUSH1 0x0 DUP1 PUSH1 0x40 DUP4 DUP6 SUB SLT ISZERO PUSH2 0x36CD JUMPI PUSH2 0x36CC PUSH2 0x46CC JUMP JUMPDEST JUMPDEST PUSH1 0x0 PUSH2 0x36DB DUP6 DUP3 DUP7 ADD PUSH2 0x316D JUMP JUMPDEST SWAP3 POP POP PUSH1 0x20 PUSH2 0x36EC DUP6 DUP3 DUP7 ADD PUSH2 0x3279 JUMP JUMPDEST SWAP2 POP POP SWAP3 POP SWAP3 SWAP1 POP JUMP JUMPDEST PUSH1 0x0 DUP1 PUSH1 0x0 PUSH1 0x60 DUP5 DUP7 SUB SLT ISZERO PUSH2 0x370F JUMPI PUSH2 0x370E PUSH2 0x46CC JUMP JUMPDEST JUMPDEST PUSH1 0x0 PUSH2 0x371D DUP7 DUP3 DUP8 ADD PUSH2 0x316D JUMP JUMPDEST SWAP4 POP POP PUSH1 0x20 PUSH2 0x372E DUP7 DUP3 DUP8 ADD PUSH2 0x3279 JUMP JUMPDEST SWAP3 POP POP PUSH1 0x40 PUSH2 0x373F DUP7 DUP3 DUP8 ADD PUSH2 0x3279 JUMP JUMPDEST SWAP2 POP POP SWAP3 POP SWAP3 POP SWAP3 JUMP JUMPDEST PUSH1 0x0 DUP1 PUSH1 0x0 DUP1 PUSH1 0x80 DUP6 DUP8 SUB SLT ISZERO PUSH2 0x3763 JUMPI PUSH2 0x3762 PUSH2 0x46CC JUMP JUMPDEST JUMPDEST PUSH1 0x0 PUSH2 0x3771 DUP8 DUP3 DUP9 ADD PUSH2 0x316D JUMP JUMPDEST SWAP5 POP POP PUSH1 0x20 PUSH2 0x3782 DUP8 DUP3 DUP9 ADD PUSH2 0x3279 JUMP JUMPDEST SWAP4 POP POP PUSH1 0x40 PUSH2 0x3793 DUP8 DUP3 DUP9 ADD PUSH2 0x3279 JUMP JUMPDEST SWAP3 POP POP PUSH1 0x60 DUP6 ADD CALLDATALOAD PUSH8 0xFFFFFFFFFFFFFFFF DUP2 GT ISZERO PUSH2 0x37B4 JUMPI PUSH2 0x37B3 PUSH2 0x46C7 JUMP JUMPDEST JUMPDEST PUSH2 0x37C0 DUP8 DUP3 DUP9 ADD PUSH2 0x321D JUMP JUMPDEST SWAP2 POP POP SWAP3 SWAP6 SWAP2 SWAP5 POP SWAP3 POP JUMP JUMPDEST PUSH1 0x0 DUP1 PUSH1 0x40 DUP4 DUP6 SUB SLT ISZERO PUSH2 0x37E3 JUMPI PUSH2 0x37E2 PUSH2 0x46CC JUMP JUMPDEST JUMPDEST PUSH1 0x0 DUP4 ADD CALLDATALOAD PUSH8 0xFFFFFFFFFFFFFFFF DUP2 GT ISZERO PUSH2 0x3801 JUMPI PUSH2 0x3800 PUSH2 0x46C7 JUMP JUMPDEST JUMPDEST PUSH2 0x380D DUP6 DUP3 DUP7 ADD PUSH2 0x3182 JUMP JUMPDEST SWAP3 POP POP PUSH1 0x20 DUP4 ADD CALLDATALOAD PUSH8 0xFFFFFFFFFFFFFFFF DUP2 GT ISZERO PUSH2 0x382E JUMPI PUSH2 0x382D PUSH2 0x46C7 JUMP JUMPDEST JUMPDEST PUSH2 0x383A DUP6 DUP3 DUP7 ADD PUSH2 0x31B0 JUMP JUMPDEST SWAP2 POP POP SWAP3 POP SWAP3 SWAP1 POP JUMP JUMPDEST PUSH1 0x0 PUSH1 0x20 DUP3 DUP5 SUB SLT ISZERO PUSH2 0x385A JUMPI PUSH2 0x3859 PUSH2 0x46CC JUMP JUMPDEST JUMPDEST PUSH1 0x0 PUSH2 0x3868 DUP5 DUP3 DUP6 ADD PUSH2 0x31F3 JUMP JUMPDEST SWAP2 POP POP SWAP3 SWAP2 POP POP JUMP JUMPDEST PUSH1 0x0 PUSH1 0x20 DUP3 DUP5 SUB SLT ISZERO PUSH2 0x3887 JUMPI PUSH2 0x3886 PUSH2 0x46CC JUMP JUMPDEST JUMPDEST PUSH1 0x0 PUSH2 0x3895 DUP5 DUP3 DUP6 ADD PUSH2 0x3208 JUMP JUMPDEST SWAP2 POP POP SWAP3 SWAP2 POP POP JUMP JUMPDEST PUSH1 0x0 PUSH1 0x20 DUP3 DUP5 SUB SLT ISZERO PUSH2 0x38B4 JUMPI PUSH2 0x38B3 PUSH2 0x46CC JUMP JUMPDEST JUMPDEST PUSH1 0x0 DUP3 ADD CALLDATALOAD PUSH8 0xFFFFFFFFFFFFFFFF DUP2 GT ISZERO PUSH2 0x38D2 JUMPI PUSH2 0x38D1 PUSH2 0x46C7 JUMP JUMPDEST JUMPDEST PUSH2 0x38DE DUP5 DUP3 DUP6 ADD PUSH2 0x324B JUMP JUMPDEST SWAP2 POP POP SWAP3 SWAP2 POP POP JUMP JUMPDEST PUSH1 0x0 DUP1 PUSH1 0x40 DUP4 DUP6 SUB SLT ISZERO PUSH2 0x38FE JUMPI PUSH2 0x38FD PUSH2 0x46CC JUMP JUMPDEST JUMPDEST PUSH1 0x0 DUP4 ADD CALLDATALOAD PUSH8 0xFFFFFFFFFFFFFFFF DUP2 GT ISZERO PUSH2 0x391C JUMPI PUSH2 0x391B PUSH2 0x46C7 JUMP JUMPDEST JUMPDEST PUSH2 0x3928 DUP6 DUP3 DUP7 ADD PUSH2 0x324B JUMP JUMPDEST SWAP3 POP POP PUSH1 0x20 PUSH2 0x3939 DUP6 DUP3 DUP7 ADD PUSH2 0x3279 JUMP JUMPDEST SWAP2 POP POP SWAP3 POP SWAP3 SWAP1 POP JUMP JUMPDEST PUSH1 0x0 PUSH1 0x20 DUP3 DUP5 SUB SLT ISZERO PUSH2 0x3959 JUMPI PUSH2 0x3958 PUSH2 0x46CC JUMP JUMPDEST JUMPDEST PUSH1 0x0 PUSH2 0x3967 DUP5 DUP3 DUP6 ADD PUSH2 0x3279 JUMP JUMPDEST SWAP2 POP POP SWAP3 SWAP2 POP POP JUMP JUMPDEST PUSH1 0x0 DUP1 PUSH1 0x40 DUP4 DUP6 SUB SLT ISZERO PUSH2 0x3987 JUMPI PUSH2 0x3986 PUSH2 0x46CC JUMP JUMPDEST JUMPDEST PUSH1 0x0 PUSH2 0x3995 DUP6 DUP3 DUP7 ADD PUSH2 0x3279 JUMP JUMPDEST SWAP3 POP POP PUSH1 0x20 DUP4 ADD CALLDATALOAD PUSH8 0xFFFFFFFFFFFFFFFF DUP2 GT ISZERO PUSH2 0x39B6 JUMPI PUSH2 0x39B5 PUSH2 0x46C7 JUMP JUMPDEST JUMPDEST PUSH2 0x39C2 DUP6 DUP3 DUP7 ADD PUSH2 0x324B JUMP JUMPDEST SWAP2 POP POP SWAP3 POP SWAP3 SWAP1 POP JUMP JUMPDEST PUSH1 0x0 PUSH2 0x39D8 DUP4 DUP4 PUSH2 0x3D88 JUMP JUMPDEST PUSH1 0x20 DUP4 ADD SWAP1 POP SWAP3 SWAP2 POP POP JUMP JUMPDEST PUSH2 0x39ED DUP2 PUSH2 0x4466 JUMP JUMPDEST DUP3 MSTORE POP POP JUMP JUMPDEST PUSH1 0x0 PUSH2 0x39FE DUP3 PUSH2 0x4370 JUMP JUMPDEST PUSH2 0x3A08 DUP2 DUP6 PUSH2 0x439E JUMP JUMPDEST SWAP4 POP PUSH2 0x3A13 DUP4 PUSH2 0x4360 JUMP JUMPDEST DUP1 PUSH1 0x0 JUMPDEST DUP4 DUP2 LT ISZERO PUSH2 0x3A44 JUMPI DUP2 MLOAD PUSH2 0x3A2B DUP9 DUP3 PUSH2 0x39CC JUMP JUMPDEST SWAP8 POP PUSH2 0x3A36 DUP4 PUSH2 0x4391 JUMP JUMPDEST SWAP3 POP POP PUSH1 0x1 DUP2 ADD SWAP1 POP PUSH2 0x3A17 JUMP JUMPDEST POP DUP6 SWAP4 POP POP POP POP SWAP3 SWAP2 POP POP JUMP JUMPDEST PUSH2 0x3A5A DUP2 PUSH2 0x4478 JUMP JUMPDEST DUP3 MSTORE POP POP JUMP JUMPDEST PUSH1 0x0 PUSH2 0x3A6B DUP3 PUSH2 0x437B JUMP JUMPDEST PUSH2 0x3A75 DUP2 DUP6 PUSH2 0x43AF JUMP JUMPDEST SWAP4 POP PUSH2 0x3A85 DUP2 DUP6 PUSH1 0x20 DUP7 ADD PUSH2 0x44FB JUMP JUMPDEST PUSH2 0x3A8E DUP2 PUSH2 0x46D1 JUMP JUMPDEST DUP5 ADD SWAP2 POP POP SWAP3 SWAP2 POP POP JUMP JUMPDEST PUSH2 0x3AA2 DUP2 PUSH2 0x44DA JUMP JUMPDEST DUP3 MSTORE POP POP JUMP JUMPDEST PUSH1 0x0 PUSH2 0x3AB3 DUP3 PUSH2 0x4386 JUMP JUMPDEST PUSH2 0x3ABD DUP2 DUP6 PUSH2 0x43C0 JUMP JUMPDEST SWAP4 POP PUSH2 0x3ACD DUP2 DUP6 PUSH1 0x20 DUP7 ADD PUSH2 0x44FB JUMP JUMPDEST PUSH2 0x3AD6 DUP2 PUSH2 0x46D1 JUMP JUMPDEST DUP5 ADD SWAP2 POP POP SWAP3 SWAP2 POP POP JUMP JUMPDEST PUSH1 0x0 PUSH2 0x3AEC DUP3 PUSH2 0x4386 JUMP JUMPDEST PUSH2 0x3AF6 DUP2 DUP6 PUSH2 0x43D1 JUMP JUMPDEST SWAP4 POP PUSH2 0x3B06 DUP2 DUP6 PUSH1 0x20 DUP7 ADD PUSH2 0x44FB JUMP JUMPDEST DUP1 DUP5 ADD SWAP2 POP POP SWAP3 SWAP2 POP POP JUMP JUMPDEST PUSH1 0x0 PUSH2 0x3B1F PUSH1 0x34 DUP4 PUSH2 0x43C0 JUMP JUMPDEST SWAP2 POP PUSH2 0x3B2A DUP3 PUSH2 0x46EF JUMP JUMPDEST PUSH1 0x40 DUP3 ADD SWAP1 POP SWAP2 SWAP1 POP JUMP JUMPDEST PUSH1 0x0 PUSH2 0x3B42 PUSH1 0x28 DUP4 PUSH2 0x43C0 JUMP JUMPDEST SWAP2 POP PUSH2 0x3B4D DUP3 PUSH2 0x473E JUMP JUMPDEST PUSH1 0x40 DUP3 ADD SWAP1 POP SWAP2 SWAP1 POP JUMP JUMPDEST PUSH1 0x0 PUSH2 0x3B65 PUSH1 0x14 DUP4 PUSH2 0x43C0 JUMP JUMPDEST SWAP2 POP PUSH2 0x3B70 DUP3 PUSH2 0x478D JUMP JUMPDEST PUSH1 0x20 DUP3 ADD SWAP1 POP SWAP2 SWAP1 POP JUMP JUMPDEST PUSH1 0x0 PUSH2 0x3B88 PUSH1 0x2B DUP4 PUSH2 0x43C0 JUMP JUMPDEST SWAP2 POP PUSH2 0x3B93 DUP3 PUSH2 0x47B6 JUMP JUMPDEST PUSH1 0x40 DUP3 ADD SWAP1 POP SWAP2 SWAP1 POP JUMP JUMPDEST PUSH1 0x0 PUSH2 0x3BAB PUSH1 0x26 DUP4 PUSH2 0x43C0 JUMP JUMPDEST SWAP2 POP PUSH2 0x3BB6 DUP3 PUSH2 0x4805 JUMP JUMPDEST PUSH1 0x40 DUP3 ADD SWAP1 POP SWAP2 SWAP1 POP JUMP JUMPDEST PUSH1 0x0 PUSH2 0x3BCE PUSH1 0x24 DUP4 PUSH2 0x43C0 JUMP JUMPDEST SWAP2 POP PUSH2 0x3BD9 DUP3 PUSH2 0x4854 JUMP JUMPDEST PUSH1 0x40 DUP3 ADD SWAP1 POP SWAP2 SWAP1 POP JUMP JUMPDEST PUSH1 0x0 PUSH2 0x3BF1 PUSH1 0x29 DUP4 PUSH2 0x43C0 JUMP JUMPDEST SWAP2 POP PUSH2 0x3BFC DUP3 PUSH2 0x48A3 JUMP JUMPDEST PUSH1 0x40 DUP3 ADD SWAP1 POP SWAP2 SWAP1 POP JUMP JUMPDEST PUSH1 0x0 PUSH2 0x3C14 PUSH1 0x10 DUP4 PUSH2 0x43C0 JUMP JUMPDEST SWAP2 POP PUSH2 0x3C1F DUP3 PUSH2 0x48F2 JUMP JUMPDEST PUSH1 0x20 DUP3 ADD SWAP1 POP SWAP2 SWAP1 POP JUMP JUMPDEST PUSH1 0x0 PUSH2 0x3C37 PUSH1 0x25 DUP4 PUSH2 0x43C0 JUMP JUMPDEST SWAP2 POP PUSH2 0x3C42 DUP3 PUSH2 0x491B JUMP JUMPDEST PUSH1 0x40 DUP3 ADD SWAP1 POP SWAP2 SWAP1 POP JUMP JUMPDEST PUSH1 0x0 PUSH2 0x3C5A PUSH1 0x32 DUP4 PUSH2 0x43C0 JUMP JUMPDEST SWAP2 POP PUSH2 0x3C65 DUP3 PUSH2 0x496A JUMP JUMPDEST PUSH1 0x40 DUP3 ADD SWAP1 POP SWAP2 SWAP1 POP JUMP JUMPDEST PUSH1 0x0 PUSH2 0x3C7D PUSH1 0x23 DUP4 PUSH2 0x43C0 JUMP JUMPDEST SWAP2 POP PUSH2 0x3C88 DUP3 PUSH2 0x49B9 JUMP JUMPDEST PUSH1 0x40 DUP3 ADD SWAP1 POP SWAP2 SWAP1 POP JUMP JUMPDEST PUSH1 0x0 PUSH2 0x3CA0 PUSH1 0x2A DUP4 PUSH2 0x43C0 JUMP JUMPDEST SWAP2 POP PUSH2 0x3CAB DUP3 PUSH2 0x4A08 JUMP JUMPDEST PUSH1 0x40 DUP3 ADD SWAP1 POP SWAP2 SWAP1 POP JUMP JUMPDEST PUSH1 0x0 PUSH2 0x3CC3 PUSH1 0x20 DUP4 PUSH2 0x43C0 JUMP JUMPDEST SWAP2 POP PUSH2 0x3CCE DUP3 PUSH2 0x4A57 JUMP JUMPDEST PUSH1 0x20 DUP3 ADD SWAP1 POP SWAP2 SWAP1 POP JUMP JUMPDEST PUSH1 0x0 PUSH2 0x3CE6 PUSH1 0x4 DUP4 PUSH2 0x43D1 JUMP JUMPDEST SWAP2 POP PUSH2 0x3CF1 DUP3 PUSH2 0x4A80 JUMP JUMPDEST PUSH1 0x4 DUP3 ADD SWAP1 POP SWAP2 SWAP1 POP JUMP JUMPDEST PUSH1 0x0 PUSH2 0x3D09 PUSH1 0x29 DUP4 PUSH2 0x43C0 JUMP JUMPDEST SWAP2 POP PUSH2 0x3D14 DUP3 PUSH2 0x4AA9 JUMP JUMPDEST PUSH1 0x40 DUP3 ADD SWAP1 POP SWAP2 SWAP1 POP JUMP JUMPDEST PUSH1 0x0 PUSH2 0x3D2C PUSH1 0x29 DUP4 PUSH2 0x43C0 JUMP JUMPDEST SWAP2 POP PUSH2 0x3D37 DUP3 PUSH2 0x4AF8 JUMP JUMPDEST PUSH1 0x40 DUP3 ADD SWAP1 POP SWAP2 SWAP1 POP JUMP JUMPDEST PUSH1 0x0 PUSH2 0x3D4F PUSH1 0x28 DUP4 PUSH2 0x43C0 JUMP JUMPDEST SWAP2 POP PUSH2 0x3D5A DUP3 PUSH2 0x4B47 JUMP JUMPDEST PUSH1 0x40 DUP3 ADD SWAP1 POP SWAP2 SWAP1 POP JUMP JUMPDEST PUSH1 0x0 PUSH2 0x3D72 PUSH1 0x21 DUP4 PUSH2 0x43C0 JUMP JUMPDEST SWAP2 POP PUSH2 0x3D7D DUP3 PUSH2 0x4B96 JUMP JUMPDEST PUSH1 0x40 DUP3 ADD SWAP1 POP SWAP2 SWAP1 POP JUMP JUMPDEST PUSH2 0x3D91 DUP2 PUSH2 0x44D0 JUMP JUMPDEST DUP3 MSTORE POP POP JUMP JUMPDEST PUSH2 0x3DA0 DUP2 PUSH2 0x44D0 JUMP JUMPDEST DUP3 MSTORE POP POP JUMP JUMPDEST PUSH1 0x0 PUSH2 0x3DB2 DUP3 DUP6 PUSH2 0x3AE1 JUMP JUMPDEST SWAP2 POP PUSH2 0x3DBE DUP3 DUP5 PUSH2 0x3AE1 JUMP JUMPDEST SWAP2 POP PUSH2 0x3DC9 DUP3 PUSH2 0x3CD9 JUMP JUMPDEST SWAP2 POP DUP2 SWAP1 POP SWAP4 SWAP3 POP POP POP JUMP JUMPDEST PUSH1 0x0 PUSH2 0x3DE1 DUP3 DUP5 PUSH2 0x3AE1 JUMP JUMPDEST SWAP2 POP PUSH2 0x3DEC DUP3 PUSH2 0x3CD9 JUMP JUMPDEST SWAP2 POP DUP2 SWAP1 POP SWAP3 SWAP2 POP POP JUMP JUMPDEST PUSH1 0x0 PUSH1 0x20 DUP3 ADD SWAP1 POP PUSH2 0x3E0C PUSH1 0x0 DUP4 ADD DUP5 PUSH2 0x39E4 JUMP JUMPDEST SWAP3 SWAP2 POP POP JUMP JUMPDEST PUSH1 0x0 PUSH1 0xA0 DUP3 ADD SWAP1 POP PUSH2 0x3E27 PUSH1 0x0 DUP4 ADD DUP9 PUSH2 0x39E4 JUMP JUMPDEST PUSH2 0x3E34 PUSH1 0x20 DUP4 ADD DUP8 PUSH2 0x39E4 JUMP JUMPDEST DUP2 DUP2 SUB PUSH1 0x40 DUP4 ADD MSTORE PUSH2 0x3E46 DUP2 DUP7 PUSH2 0x39F3 JUMP JUMPDEST SWAP1 POP DUP2 DUP2 SUB PUSH1 0x60 DUP4 ADD MSTORE PUSH2 0x3E5A DUP2 DUP6 PUSH2 0x39F3 JUMP JUMPDEST SWAP1 POP DUP2 DUP2 SUB PUSH1 0x80 DUP4 ADD MSTORE PUSH2 0x3E6E DUP2 DUP5 PUSH2 0x3A60 JUMP JUMPDEST SWAP1 POP SWAP7 SWAP6 POP POP POP POP POP POP JUMP JUMPDEST PUSH1 0x0 PUSH1 0xA0 DUP3 ADD SWAP1 POP PUSH2 0x3E8F PUSH1 0x0 DUP4 ADD DUP9 PUSH2 0x39E4 JUMP JUMPDEST PUSH2 0x3E9C PUSH1 0x20 DUP4 ADD DUP8 PUSH2 0x39E4 JUMP JUMPDEST PUSH2 0x3EA9 PUSH1 0x40 DUP4 ADD DUP7 PUSH2 0x3D97 JUMP JUMPDEST PUSH2 0x3EB6 PUSH1 0x60 DUP4 ADD DUP6 PUSH2 0x3D97 JUMP JUMPDEST DUP2 DUP2 SUB PUSH1 0x80 DUP4 ADD MSTORE PUSH2 0x3EC8 DUP2 DUP5 PUSH2 0x3A60 JUMP JUMPDEST SWAP1 POP SWAP7 SWAP6 POP POP POP POP POP POP JUMP JUMPDEST PUSH1 0x0 PUSH1 0x60 DUP3 ADD SWAP1 POP PUSH2 0x3EE9 PUSH1 0x0 DUP4 ADD DUP7 PUSH2 0x39E4 JUMP JUMPDEST DUP2 DUP2 SUB PUSH1 0x20 DUP4 ADD MSTORE PUSH2 0x3EFB DUP2 DUP6 PUSH2 0x39F3 JUMP JUMPDEST SWAP1 POP DUP2 DUP2 SUB PUSH1 0x40 DUP4 ADD MSTORE PUSH2 0x3F0F DUP2 DUP5 PUSH2 0x39F3 JUMP JUMPDEST SWAP1 POP SWAP5 SWAP4 POP POP POP POP JUMP JUMPDEST PUSH1 0x0 PUSH1 0x60 DUP3 ADD SWAP1 POP PUSH2 0x3F2E PUSH1 0x0 DUP4 ADD DUP7 PUSH2 0x39E4 JUMP JUMPDEST PUSH2 0x3F3B PUSH1 0x20 DUP4 ADD DUP6 PUSH2 0x3D97 JUMP JUMPDEST PUSH2 0x3F48 PUSH1 0x40 DUP4 ADD DUP5 PUSH2 0x3A99 JUMP JUMPDEST SWAP5 SWAP4 POP POP POP POP JUMP JUMPDEST PUSH1 0x0 PUSH1 0x60 DUP3 ADD SWAP1 POP PUSH2 0x3F65 PUSH1 0x0 DUP4 ADD DUP7 PUSH2 0x39E4 JUMP JUMPDEST PUSH2 0x3F72 PUSH1 0x20 DUP4 ADD DUP6 PUSH2 0x3D97 JUMP JUMPDEST PUSH2 0x3F7F PUSH1 0x40 DUP4 ADD DUP5 PUSH2 0x3D97 JUMP JUMPDEST SWAP5 SWAP4 POP POP POP POP JUMP JUMPDEST PUSH1 0x0 PUSH1 0x20 DUP3 ADD SWAP1 POP DUP2 DUP2 SUB PUSH1 0x0 DUP4 ADD MSTORE PUSH2 0x3FA1 DUP2 DUP5 PUSH2 0x39F3 JUMP JUMPDEST SWAP1 POP SWAP3 SWAP2 POP POP JUMP JUMPDEST PUSH1 0x0 PUSH1 0x40 DUP3 ADD SWAP1 POP DUP2 DUP2 SUB PUSH1 0x0 DUP4 ADD MSTORE PUSH2 0x3FC3 DUP2 DUP6 PUSH2 0x39F3 JUMP JUMPDEST SWAP1 POP DUP2 DUP2 SUB PUSH1 0x20 DUP4 ADD MSTORE PUSH2 0x3FD7 DUP2 DUP5 PUSH2 0x39F3 JUMP JUMPDEST SWAP1 POP SWAP4 SWAP3 POP POP POP JUMP JUMPDEST PUSH1 0x0 PUSH1 0x20 DUP3 ADD SWAP1 POP PUSH2 0x3FF5 PUSH1 0x0 DUP4 ADD DUP5 PUSH2 0x3A51 JUMP JUMPDEST SWAP3 SWAP2 POP POP JUMP JUMPDEST PUSH1 0x0 PUSH1 0x20 DUP3 ADD SWAP1 POP DUP2 DUP2 SUB PUSH1 0x0 DUP4 ADD MSTORE PUSH2 0x4015 DUP2 DUP5 PUSH2 0x3AA8 JUMP JUMPDEST SWAP1 POP SWAP3 SWAP2 POP POP JUMP JUMPDEST PUSH1 0x0 PUSH1 0x20 DUP3 ADD SWAP1 POP DUP2 DUP2 SUB PUSH1 0x0 DUP4 ADD MSTORE PUSH2 0x4036 DUP2 PUSH2 0x3B12 JUMP JUMPDEST SWAP1 POP SWAP2 SWAP1 POP JUMP JUMPDEST PUSH1 0x0 PUSH1 0x20 DUP3 ADD SWAP1 POP DUP2 DUP2 SUB PUSH1 0x0 DUP4 ADD MSTORE PUSH2 0x4056 DUP2 PUSH2 0x3B35 JUMP JUMPDEST SWAP1 POP SWAP2 SWAP1 POP JUMP JUMPDEST PUSH1 0x0 PUSH1 0x20 DUP3 ADD SWAP1 POP DUP2 DUP2 SUB PUSH1 0x0 DUP4 ADD MSTORE PUSH2 0x4076 DUP2 PUSH2 0x3B58 JUMP JUMPDEST SWAP1 POP SWAP2 SWAP1 POP JUMP JUMPDEST PUSH1 0x0 PUSH1 0x20 DUP3 ADD SWAP1 POP DUP2 DUP2 SUB PUSH1 0x0 DUP4 ADD MSTORE PUSH2 0x4096 DUP2 PUSH2 0x3B7B JUMP JUMPDEST SWAP1 POP SWAP2 SWAP1 POP JUMP JUMPDEST PUSH1 0x0 PUSH1 0x20 DUP3 ADD SWAP1 POP DUP2 DUP2 SUB PUSH1 0x0 DUP4 ADD MSTORE PUSH2 0x40B6 DUP2 PUSH2 0x3B9E JUMP JUMPDEST SWAP1 POP SWAP2 SWAP1 POP JUMP JUMPDEST PUSH1 0x0 PUSH1 0x20 DUP3 ADD SWAP1 POP DUP2 DUP2 SUB PUSH1 0x0 DUP4 ADD MSTORE PUSH2 0x40D6 DUP2 PUSH2 0x3BC1 JUMP JUMPDEST SWAP1 POP SWAP2 SWAP1 POP JUMP JUMPDEST PUSH1 0x0 PUSH1 0x20 DUP3 ADD SWAP1 POP DUP2 DUP2 SUB PUSH1 0x0 DUP4 ADD MSTORE PUSH2 0x40F6 DUP2 PUSH2 0x3BE4 JUMP JUMPDEST SWAP1 POP SWAP2 SWAP1 POP JUMP JUMPDEST PUSH1 0x0 PUSH1 0x20 DUP3 ADD SWAP1 POP DUP2 DUP2 SUB PUSH1 0x0 DUP4 ADD MSTORE PUSH2 0x4116 DUP2 PUSH2 0x3C07 JUMP JUMPDEST SWAP1 POP SWAP2 SWAP1 POP JUMP JUMPDEST PUSH1 0x0 PUSH1 0x20 DUP3 ADD SWAP1 POP DUP2 DUP2 SUB PUSH1 0x0 DUP4 ADD MSTORE PUSH2 0x4136 DUP2 PUSH2 0x3C2A JUMP JUMPDEST SWAP1 POP SWAP2 SWAP1 POP JUMP JUMPDEST PUSH1 0x0 PUSH1 0x20 DUP3 ADD SWAP1 POP DUP2 DUP2 SUB PUSH1 0x0 DUP4 ADD MSTORE PUSH2 0x4156 DUP2 PUSH2 0x3C4D JUMP JUMPDEST SWAP1 POP SWAP2 SWAP1 POP JUMP JUMPDEST PUSH1 0x0 PUSH1 0x20 DUP3 ADD SWAP1 POP DUP2 DUP2 SUB PUSH1 0x0 DUP4 ADD MSTORE PUSH2 0x4176 DUP2 PUSH2 0x3C70 JUMP JUMPDEST SWAP1 POP SWAP2 SWAP1 POP JUMP JUMPDEST PUSH1 0x0 PUSH1 0x20 DUP3 ADD SWAP1 POP DUP2 DUP2 SUB PUSH1 0x0 DUP4 ADD MSTORE PUSH2 0x4196 DUP2 PUSH2 0x3C93 JUMP JUMPDEST SWAP1 POP SWAP2 SWAP1 POP JUMP JUMPDEST PUSH1 0x0 PUSH1 0x20 DUP3 ADD SWAP1 POP DUP2 DUP2 SUB PUSH1 0x0 DUP4 ADD MSTORE PUSH2 0x41B6 DUP2 PUSH2 0x3CB6 JUMP JUMPDEST SWAP1 POP SWAP2 SWAP1 POP JUMP JUMPDEST PUSH1 0x0 PUSH1 0x20 DUP3 ADD SWAP1 POP DUP2 DUP2 SUB PUSH1 0x0 DUP4 ADD MSTORE PUSH2 0x41D6 DUP2 PUSH2 0x3CFC JUMP JUMPDEST SWAP1 POP SWAP2 SWAP1 POP JUMP JUMPDEST PUSH1 0x0 PUSH1 0x20 DUP3 ADD SWAP1 POP DUP2 DUP2 SUB PUSH1 0x0 DUP4 ADD MSTORE PUSH2 0x41F6 DUP2 PUSH2 0x3D1F JUMP JUMPDEST SWAP1 POP SWAP2 SWAP1 POP JUMP JUMPDEST PUSH1 0x0 PUSH1 0x20 DUP3 ADD SWAP1 POP DUP2 DUP2 SUB PUSH1 0x0 DUP4 ADD MSTORE PUSH2 0x4216 DUP2 PUSH2 0x3D42 JUMP JUMPDEST SWAP1 POP SWAP2 SWAP1 POP JUMP JUMPDEST PUSH1 0x0 PUSH1 0x20 DUP3 ADD SWAP1 POP DUP2 DUP2 SUB PUSH1 0x0 DUP4 ADD MSTORE PUSH2 0x4236 DUP2 PUSH2 0x3D65 JUMP JUMPDEST SWAP1 POP SWAP2 SWAP1 POP JUMP JUMPDEST PUSH1 0x0 PUSH1 0x20 DUP3 ADD SWAP1 POP PUSH2 0x4252 PUSH1 0x0 DUP4 ADD DUP5 PUSH2 0x3D97 JUMP JUMPDEST SWAP3 SWAP2 POP POP JUMP JUMPDEST PUSH1 0x0 PUSH1 0x40 DUP3 ADD SWAP1 POP PUSH2 0x426D PUSH1 0x0 DUP4 ADD DUP6 PUSH2 0x3D97 JUMP JUMPDEST PUSH2 0x427A PUSH1 0x20 DUP4 ADD DUP5 PUSH2 0x3D97 JUMP JUMPDEST SWAP4 SWAP3 POP POP POP JUMP JUMPDEST PUSH1 0x0 PUSH2 0x428B PUSH2 0x429C JUMP JUMPDEST SWAP1 POP PUSH2 0x4297 DUP3 DUP3 PUSH2 0x4560 JUMP JUMPDEST SWAP2 SWAP1 POP JUMP JUMPDEST PUSH1 0x0 PUSH1 0x40 MLOAD SWAP1 POP SWAP1 JUMP JUMPDEST PUSH1 0x0 PUSH8 0xFFFFFFFFFFFFFFFF DUP3 GT ISZERO PUSH2 0x42C1 JUMPI PUSH2 0x42C0 PUSH2 0x4667 JUMP JUMPDEST JUMPDEST PUSH1 0x20 DUP3 MUL SWAP1 POP PUSH1 0x20 DUP2 ADD SWAP1 POP SWAP2 SWAP1 POP JUMP JUMPDEST PUSH1 0x0 PUSH8 0xFFFFFFFFFFFFFFFF DUP3 GT ISZERO PUSH2 0x42ED JUMPI PUSH2 0x42EC PUSH2 0x4667 JUMP JUMPDEST JUMPDEST PUSH1 0x20 DUP3 MUL SWAP1 POP PUSH1 0x20 DUP2 ADD SWAP1 POP SWAP2 SWAP1 POP JUMP JUMPDEST PUSH1 0x0 PUSH8 0xFFFFFFFFFFFFFFFF DUP3 GT ISZERO PUSH2 0x4319 JUMPI PUSH2 0x4318 PUSH2 0x4667 JUMP JUMPDEST JUMPDEST PUSH2 0x4322 DUP3 PUSH2 0x46D1 JUMP JUMPDEST SWAP1 POP PUSH1 0x20 DUP2 ADD SWAP1 POP SWAP2 SWAP1 POP JUMP JUMPDEST PUSH1 0x0 PUSH8 0xFFFFFFFFFFFFFFFF DUP3 GT ISZERO PUSH2 0x434A JUMPI PUSH2 0x4349 PUSH2 0x4667 JUMP JUMPDEST JUMPDEST PUSH2 0x4353 DUP3 PUSH2 0x46D1 JUMP JUMPDEST SWAP1 POP PUSH1 0x20 DUP2 ADD SWAP1 POP SWAP2 SWAP1 POP JUMP JUMPDEST PUSH1 0x0 DUP2 SWAP1 POP PUSH1 0x20 DUP3 ADD SWAP1 POP SWAP2 SWAP1 POP JUMP JUMPDEST PUSH1 0x0 DUP2 MLOAD SWAP1 POP SWAP2 SWAP1 POP JUMP JUMPDEST PUSH1 0x0 DUP2 MLOAD SWAP1 POP SWAP2 SWAP1 POP JUMP JUMPDEST PUSH1 0x0 DUP2 MLOAD SWAP1 POP SWAP2 SWAP1 POP JUMP JUMPDEST PUSH1 0x0 PUSH1 0x20 DUP3 ADD SWAP1 POP SWAP2 SWAP1 POP JUMP JUMPDEST PUSH1 0x0 DUP3 DUP3 MSTORE PUSH1 0x20 DUP3 ADD SWAP1 POP SWAP3 SWAP2 POP POP JUMP JUMPDEST PUSH1 0x0 DUP3 DUP3 MSTORE PUSH1 0x20 DUP3 ADD SWAP1 POP SWAP3 SWAP2 POP POP JUMP JUMPDEST PUSH1 0x0 DUP3 DUP3 MSTORE PUSH1 0x20 DUP3 ADD SWAP1 POP SWAP3 SWAP2 POP POP JUMP JUMPDEST PUSH1 0x0 DUP2 SWAP1 POP SWAP3 SWAP2 POP POP JUMP JUMPDEST PUSH1 0x0 PUSH2 0x43E7 DUP3 PUSH2 0x44D0 JUMP JUMPDEST SWAP2 POP PUSH2 0x43F2 DUP4 PUSH2 0x44D0 JUMP JUMPDEST SWAP3 POP DUP3 PUSH32 0xFFFFFFFFFFFFFFFFFFFFFFFFFFFFFFFFFFFFFFFFFFFFFFFFFFFFFFFFFFFFFFFF SUB DUP3 GT ISZERO PUSH2 0x4427 JUMPI PUSH2 0x4426 PUSH2 0x45DA JUMP JUMPDEST JUMPDEST DUP3 DUP3 ADD SWAP1 POP SWAP3 SWAP2 POP POP JUMP JUMPDEST PUSH1 0x0 PUSH2 0x443D DUP3 PUSH2 0x44D0 JUMP JUMPDEST SWAP2 POP PUSH2 0x4448 DUP4 PUSH2 0x44D0 JUMP JUMPDEST SWAP3 POP DUP3 DUP3 LT ISZERO PUSH2 0x445B JUMPI PUSH2 0x445A PUSH2 0x45DA JUMP JUMPDEST JUMPDEST DUP3 DUP3 SUB SWAP1 POP SWAP3 SWAP2 POP POP JUMP JUMPDEST PUSH1 0x0 PUSH2 0x4471 DUP3 PUSH2 0x44B0 JUMP JUMPDEST SWAP1 POP SWAP2 SWAP1 POP JUMP JUMPDEST PUSH1 0x0 DUP2 ISZERO ISZERO SWAP1 POP SWAP2 SWAP1 POP JUMP JUMPDEST PUSH1 0x0 PUSH32 0xFFFFFFFF00000000000000000000000000000000000000000000000000000000 DUP3 AND SWAP1 POP SWAP2 SWAP1 POP JUMP JUMPDEST PUSH1 0x0 PUSH20 0xFFFFFFFFFFFFFFFFFFFFFFFFFFFFFFFFFFFFFFFF DUP3 AND SWAP1 POP SWAP2 SWAP1 POP JUMP JUMPDEST PUSH1 0x0 DUP2 SWAP1 POP SWAP2 SWAP1 POP JUMP JUMPDEST PUSH1 0x0 PUSH2 0x44E5 DUP3 PUSH2 0x44D0 JUMP JUMPDEST SWAP1 POP SWAP2 SWAP1 POP JUMP JUMPDEST DUP3 DUP2 DUP4 CALLDATACOPY PUSH1 0x0 DUP4 DUP4 ADD MSTORE POP POP POP JUMP JUMPDEST PUSH1 0x0 JUMPDEST DUP4 DUP2 LT ISZERO PUSH2 0x4519 JUMPI DUP1 DUP3 ADD MLOAD DUP2 DUP5 ADD MSTORE PUSH1 0x20 DUP2 ADD SWAP1 POP PUSH2 0x44FE JUMP JUMPDEST DUP4 DUP2 GT ISZERO PUSH2 0x4528 JUMPI PUSH1 0x0 DUP5 DUP5 ADD MSTORE JUMPDEST POP POP POP POP JUMP JUMPDEST PUSH1 0x0 PUSH1 0x2 DUP3 DIV SWAP1 POP PUSH1 0x1 DUP3 AND DUP1 PUSH2 0x4546 JUMPI PUSH1 0x7F DUP3 AND SWAP2 POP JUMPDEST PUSH1 0x20 DUP3 LT DUP2 EQ ISZERO PUSH2 0x455A JUMPI PUSH2 0x4559 PUSH2 0x4609 JUMP JUMPDEST JUMPDEST POP SWAP2 SWAP1 POP JUMP JUMPDEST PUSH2 0x4569 DUP3 PUSH2 0x46D1 JUMP JUMPDEST DUP2 ADD DUP2 DUP2 LT PUSH8 0xFFFFFFFFFFFFFFFF DUP3 GT OR ISZERO PUSH2 0x4588 JUMPI PUSH2 0x4587 PUSH2 0x4667 JUMP JUMPDEST JUMPDEST DUP1 PUSH1 0x40 MSTORE POP POP POP JUMP JUMPDEST PUSH1 0x0 PUSH2 0x459C DUP3 PUSH2 0x44D0 JUMP JUMPDEST SWAP2 POP PUSH32 0xFFFFFFFFFFFFFFFFFFFFFFFFFFFFFFFFFFFFFFFFFFFFFFFFFFFFFFFFFFFFFFFF DUP3 EQ ISZERO PUSH2 0x45CF JUMPI PUSH2 0x45CE PUSH2 0x45DA JUMP JUMPDEST JUMPDEST PUSH1 0x1 DUP3 ADD SWAP1 POP SWAP2 SWAP1 POP JUMP JUMPDEST PUSH32 0x4E487B7100000000000000000000000000000000000000000000000000000000 PUSH1 0x0 MSTORE PUSH1 0x11 PUSH1 0x4 MSTORE PUSH1 0x24 PUSH1 0x0 REVERT JUMPDEST PUSH32 0x4E487B7100000000000000000000000000000000000000000000000000000000 PUSH1 0x0 MSTORE PUSH1 0x22 PUSH1 0x4 MSTORE PUSH1 0x24 PUSH1 0x0 REVERT JUMPDEST PUSH32 0x4E487B7100000000000000000000000000000000000000000000000000000000 PUSH1 0x0 MSTORE PUSH1 0x32 PUSH1 0x4 MSTORE PUSH1 0x24 PUSH1 0x0 REVERT JUMPDEST PUSH32 0x4E487B7100000000000000000000000000000000000000000000000000000000 PUSH1 0x0 MSTORE PUSH1 0x41 PUSH1 0x4 MSTORE PUSH1 0x24 PUSH1 0x0 REVERT JUMPDEST PUSH1 0x0 PUSH1 0x3 RETURNDATASIZE GT ISZERO PUSH2 0x46B5 JUMPI PUSH1 0x4 PUSH1 0x0 DUP1 RETURNDATACOPY PUSH2 0x46B2 PUSH1 0x0 MLOAD PUSH2 0x46E2 JUMP JUMPDEST SWAP1 POP JUMPDEST SWAP1 JUMP JUMPDEST PUSH1 0x0 DUP1 REVERT JUMPDEST PUSH1 0x0 DUP1 REVERT JUMPDEST PUSH1 0x0 DUP1 REVERT JUMPDEST PUSH1 0x0 DUP1 REVERT JUMPDEST PUSH1 0x0 DUP1 REVERT JUMPDEST PUSH1 0x0 PUSH1 0x1F NOT PUSH1 0x1F DUP4 ADD AND SWAP1 POP SWAP2 SWAP1 POP JUMP JUMPDEST PUSH1 0x0 DUP2 PUSH1 0xE0 SHR SWAP1 POP SWAP2 SWAP1 POP JUMP JUMPDEST PUSH32 0x455243313135353A207472616E7366657220746F206E6F6E2045524331313535 PUSH1 0x0 DUP3 ADD MSTORE PUSH32 0x526563656976657220696D706C656D656E746572000000000000000000000000 PUSH1 0x20 DUP3 ADD MSTORE POP JUMP JUMPDEST PUSH32 0x455243313135353A204552433131353552656365697665722072656A65637465 PUSH1 0x0 DUP3 ADD MSTORE PUSH32 0x6420746F6B656E73000000000000000000000000000000000000000000000000 PUSH1 0x20 DUP3 ADD MSTORE POP JUMP JUMPDEST PUSH32 0x5061757361626C653A206E6F7420706175736564000000000000000000000000 PUSH1 0x0 DUP3 ADD MSTORE POP JUMP JUMPDEST PUSH32 0x455243313135353A2062616C616E636520717565727920666F7220746865207A PUSH1 0x0 DUP3 ADD MSTORE PUSH32 0x65726F2061646472657373000000000000000000000000000000000000000000 PUSH1 0x20 DUP3 ADD MSTORE POP JUMP JUMPDEST PUSH32 0x4F776E61626C653A206E6577206F776E657220697320746865207A65726F2061 PUSH1 0x0 DUP3 ADD MSTORE PUSH32 0x6464726573730000000000000000000000000000000000000000000000000000 PUSH1 0x20 DUP3 ADD MSTORE POP JUMP JUMPDEST PUSH32 0x455243313135353A206275726E20616D6F756E7420657863656564732062616C PUSH1 0x0 DUP3 ADD MSTORE PUSH32 0x616E636500000000000000000000000000000000000000000000000000000000 PUSH1 0x20 DUP3 ADD MSTORE POP JUMP JUMPDEST PUSH32 0x455243313135353A2063616C6C6572206973206E6F74206F776E6572206E6F72 PUSH1 0x0 DUP3 ADD MSTORE PUSH32 0x20617070726F7665640000000000000000000000000000000000000000000000 PUSH1 0x20 DUP3 ADD MSTORE POP JUMP JUMPDEST PUSH32 0x5061757361626C653A2070617573656400000000000000000000000000000000 PUSH1 0x0 DUP3 ADD MSTORE POP JUMP JUMPDEST PUSH32 0x455243313135353A207472616E7366657220746F20746865207A65726F206164 PUSH1 0x0 DUP3 ADD MSTORE PUSH32 0x6472657373000000000000000000000000000000000000000000000000000000 PUSH1 0x20 DUP3 ADD MSTORE POP JUMP JUMPDEST PUSH32 0x455243313135353A207472616E736665722063616C6C6572206973206E6F7420 PUSH1 0x0 DUP3 ADD MSTORE PUSH32 0x6F776E6572206E6F7220617070726F7665640000000000000000000000000000 PUSH1 0x20 DUP3 ADD MSTORE POP JUMP JUMPDEST PUSH32 0x455243313135353A206275726E2066726F6D20746865207A65726F2061646472 PUSH1 0x0 DUP3 ADD MSTORE PUSH32 0x6573730000000000000000000000000000000000000000000000000000000000 PUSH1 0x20 DUP3 ADD MSTORE POP JUMP JUMPDEST PUSH32 0x455243313135353A20696E73756666696369656E742062616C616E636520666F PUSH1 0x0 DUP3 ADD MSTORE PUSH32 0x72207472616E7366657200000000000000000000000000000000000000000000 PUSH1 0x20 DUP3 ADD MSTORE POP JUMP JUMPDEST PUSH32 0x4F776E61626C653A2063616C6C6572206973206E6F7420746865206F776E6572 PUSH1 0x0 DUP3 ADD MSTORE POP JUMP JUMPDEST PUSH32 0x7B69647D00000000000000000000000000000000000000000000000000000000 PUSH1 0x0 DUP3 ADD MSTORE POP JUMP JUMPDEST PUSH32 0x455243313135353A2073657474696E6720617070726F76616C20737461747573 PUSH1 0x0 DUP3 ADD MSTORE PUSH32 0x20666F722073656C660000000000000000000000000000000000000000000000 PUSH1 0x20 DUP3 ADD MSTORE POP JUMP JUMPDEST PUSH32 0x455243313135353A206163636F756E747320616E6420696473206C656E677468 PUSH1 0x0 DUP3 ADD MSTORE PUSH32 0x206D69736D617463680000000000000000000000000000000000000000000000 PUSH1 0x20 DUP3 ADD MSTORE POP JUMP JUMPDEST PUSH32 0x455243313135353A2069647320616E6420616D6F756E7473206C656E67746820 PUSH1 0x0 DUP3 ADD MSTORE PUSH32 0x6D69736D61746368000000000000000000000000000000000000000000000000 PUSH1 0x20 DUP3 ADD MSTORE POP JUMP JUMPDEST PUSH32 0x455243313135353A206D696E7420746F20746865207A65726F20616464726573 PUSH1 0x0 DUP3 ADD MSTORE PUSH32 0x7300000000000000000000000000000000000000000000000000000000000000 PUSH1 0x20 DUP3 ADD MSTORE POP JUMP JUMPDEST PUSH1 0x0 PUSH1 0x44 RETURNDATASIZE LT ISZERO PUSH2 0x4BF5 JUMPI PUSH2 0x4C78 JUMP JUMPDEST PUSH2 0x4BFD PUSH2 0x429C JUMP JUMPDEST PUSH1 0x4 RETURNDATASIZE SUB PUSH1 0x4 DUP3 RETURNDATACOPY DUP1 MLOAD RETURNDATASIZE PUSH1 0x24 DUP3 ADD GT PUSH8 0xFFFFFFFFFFFFFFFF DUP3 GT OR ISZERO PUSH2 0x4C25 JUMPI POP POP PUSH2 0x4C78 JUMP JUMPDEST DUP1 DUP3 ADD DUP1 MLOAD PUSH8 0xFFFFFFFFFFFFFFFF DUP2 GT ISZERO PUSH2 0x4C43 JUMPI POP POP POP POP PUSH2 0x4C78 JUMP JUMPDEST DUP1 PUSH1 0x20 DUP4 ADD ADD PUSH1 0x4 RETURNDATASIZE SUB DUP6 ADD DUP2 GT ISZERO PUSH2 0x4C60 JUMPI POP POP POP POP POP PUSH2 0x4C78 JUMP JUMPDEST PUSH2 0x4C6F DUP3 PUSH1 0x20 ADD DUP6 ADD DUP7 PUSH2 0x4560 JUMP JUMPDEST DUP3 SWAP6 POP POP POP POP POP POP JUMPDEST SWAP1 JUMP JUMPDEST PUSH2 0x4C84 DUP2 PUSH2 0x4466 JUMP JUMPDEST DUP2 EQ PUSH2 0x4C8F JUMPI PUSH1 0x0 DUP1 REVERT JUMPDEST POP JUMP JUMPDEST PUSH2 0x4C9B DUP2 PUSH2 0x4478 JUMP JUMPDEST DUP2 EQ PUSH2 0x4CA6 JUMPI PUSH1 0x0 DUP1 REVERT JUMPDEST POP JUMP JUMPDEST PUSH2 0x4CB2 DUP2 PUSH2 0x4484 JUMP JUMPDEST DUP2 EQ PUSH2 0x4CBD JUMPI PUSH1 0x0 DUP1 REVERT JUMPDEST POP JUMP JUMPDEST PUSH2 0x4CC9 DUP2 PUSH2 0x44D0 JUMP JUMPDEST DUP2 EQ PUSH2 0x4CD4 JUMPI PUSH1 0x0 DUP1 REVERT JUMPDEST POP JUMP INVALID LOG2 PUSH5 0x6970667358 0x22 SLT KECCAK256 0xBD COINBASE 0x5E PUSH10 0x6252E9546499871808AA PUSH7 0x55079C5C8F9C8A 0xB9 DUP9 DUP10 0xB4 0x4E 0xB3 SSTORE 0xA9 0xBF DUP15 PUSH5 0x736F6C6343 STOP ADDMOD SMOD STOP CALLER PUSH9 0x747470733A2F2F6D65 PUSH21 0x61707974686F6E2E6865726F6B756170702E636F6D 0x2F PUSH2 0x7069 0x2F PUSH20 0x746F72652F68747470733A2F2F6D657461707974 PUSH9 0x6F6E2E6865726F6B75 PUSH2 0x7070 0x2E PUSH4 0x6F6D2F61 PUSH17 0x692F626F782F0000000000000000000000 "
		},
		"gasEstimates": {
			"creation": {
				"codeDepositCost": "3945000",
				"executionCost": "infinite",
				"totalCost": "infinite"
			},
			"external": {
				"MAX_MINTS()": "2518",
				"balanceOf(address,uint256)": "infinite",
				"balanceOfBatch(address[],uint256[])": "infinite",
				"burn(address,uint256,uint256)": "infinite",
				"burnBatch(address,uint256[],uint256[])": "infinite",
				"contractURI()": "infinite",
				"exists(uint256)": "2902",
				"isApprovedForAll(address,address)": "infinite",
				"merge(address,uint256[],uint256[],uint256,bytes)": "infinite",
				"mint(address,uint256,uint256,bytes)": "infinite",
				"mintBatch(address,uint256[],uint256[],bytes)": "infinite",
				"owner()": "2611",
				"pause()": "infinite",
				"paused()": "2640",
				"permanentURI(string,uint256)": "infinite",
				"renounceOwnership()": "30442",
				"safeBatchTransferFrom(address,address,uint256[],uint256[],bytes)": "infinite",
				"safeTransferFrom(address,address,uint256,uint256,bytes)": "infinite",
				"setApprovalForAll(address,bool)": "infinite",
				"setMaxMints(uint256)": "24805",
				"setProxy(address)": "27073",
				"setStoreMetaURL(string)": "infinite",
				"setTokenURI(uint256,string)": "infinite",
				"setURI(string)": "infinite",
				"supportsInterface(bytes4)": "842",
				"totalSupply(uint256)": "infinite",
				"transferOwnership(address)": "30811",
				"unpause()": "infinite",
				"uri(uint256)": "infinite"
			},
			"internal": {
				"_beforeTokenTransfer(address,address,address,uint256[] memory,uint256[] memory,bytes memory)": "infinite"
			}
		},
		"methodIdentifiers": {
			"MAX_MINTS()": "cce132d1",
			"balanceOf(address,uint256)": "00fdd58e",
			"balanceOfBatch(address[],uint256[])": "4e1273f4",
			"burn(address,uint256,uint256)": "f5298aca",
			"burnBatch(address,uint256[],uint256[])": "6b20c454",
			"contractURI()": "e8a3d485",
			"exists(uint256)": "4f558e79",
			"isApprovedForAll(address,address)": "e985e9c5",
			"merge(address,uint256[],uint256[],uint256,bytes)": "3519628d",
			"mint(address,uint256,uint256,bytes)": "731133e9",
			"mintBatch(address,uint256[],uint256[],bytes)": "1f7fdffa",
			"owner()": "8da5cb5b",
			"pause()": "8456cb59",
			"paused()": "5c975abb",
			"permanentURI(string,uint256)": "5a7256c7",
			"renounceOwnership()": "715018a6",
			"safeBatchTransferFrom(address,address,uint256[],uint256[],bytes)": "2eb2c2d6",
			"safeTransferFrom(address,address,uint256,uint256,bytes)": "f242432a",
			"setApprovalForAll(address,bool)": "a22cb465",
			"setMaxMints(uint256)": "79c9cb7b",
			"setProxy(address)": "97107d6d",
			"setStoreMetaURL(string)": "30e995a6",
			"setTokenURI(uint256,string)": "162094c4",
			"setURI(string)": "02fe5305",
			"supportsInterface(bytes4)": "01ffc9a7",
			"totalSupply(uint256)": "bd85b039",
			"transferOwnership(address)": "f2fde38b",
			"unpause()": "3f4ba83a",
			"uri(uint256)": "0e89341c"
		}
	},
	"abi": [
		{
			"inputs": [],
			"stateMutability": "nonpayable",
			"type": "constructor"
		},
		{
			"anonymous": false,
			"inputs": [
				{
					"indexed": true,
					"internalType": "address",
					"name": "account",
					"type": "address"
				},
				{
					"indexed": true,
					"internalType": "address",
					"name": "operator",
					"type": "address"
				},
				{
					"indexed": false,
					"internalType": "bool",
					"name": "approved",
					"type": "bool"
				}
			],
			"name": "ApprovalForAll",
			"type": "event"
		},
		{
			"anonymous": false,
			"inputs": [
				{
					"indexed": false,
					"internalType": "address",
					"name": "to",
					"type": "address"
				},
				{
					"indexed": false,
					"internalType": "uint256",
					"name": "tokenId",
					"type": "uint256"
				},
				{
					"indexed": false,
					"internalType": "uint256",
					"name": "amount",
					"type": "uint256"
				}
			],
			"name": "Minted",
			"type": "event"
		},
		{
			"anonymous": false,
			"inputs": [
				{
					"indexed": false,
					"internalType": "address",
					"name": "to",
					"type": "address"
				},
				{
					"indexed": false,
					"internalType": "uint256[]",
					"name": "ids",
					"type": "uint256[]"
				},
				{
					"indexed": false,
					"internalType": "uint256[]",
					"name": "amounts",
					"type": "uint256[]"
				}
			],
			"name": "MintedBatch",
			"type": "event"
		},
		{
			"anonymous": false,
			"inputs": [
				{
					"indexed": true,
					"internalType": "address",
					"name": "previousOwner",
					"type": "address"
				},
				{
					"indexed": true,
					"internalType": "address",
					"name": "newOwner",
					"type": "address"
				}
			],
			"name": "OwnershipTransferred",
			"type": "event"
		},
		{
			"anonymous": false,
			"inputs": [
				{
					"indexed": false,
					"internalType": "address",
					"name": "account",
					"type": "address"
				}
			],
			"name": "Paused",
			"type": "event"
		},
		{
			"anonymous": false,
			"inputs": [
				{
					"indexed": false,
					"internalType": "string",
					"name": "_value",
					"type": "string"
				},
				{
					"indexed": true,
					"internalType": "uint256",
					"name": "_id",
					"type": "uint256"
				}
			],
			"name": "PermanentURI",
			"type": "event"
		},
		{
			"anonymous": false,
			"inputs": [
				{
					"indexed": true,
					"internalType": "address",
					"name": "operator",
					"type": "address"
				},
				{
					"indexed": true,
					"internalType": "address",
					"name": "from",
					"type": "address"
				},
				{
					"indexed": true,
					"internalType": "address",
					"name": "to",
					"type": "address"
				},
				{
					"indexed": false,
					"internalType": "uint256[]",
					"name": "ids",
					"type": "uint256[]"
				},
				{
					"indexed": false,
					"internalType": "uint256[]",
					"name": "values",
					"type": "uint256[]"
				}
			],
			"name": "TransferBatch",
			"type": "event"
		},
		{
			"anonymous": false,
			"inputs": [
				{
					"indexed": true,
					"internalType": "address",
					"name": "operator",
					"type": "address"
				},
				{
					"indexed": true,
					"internalType": "address",
					"name": "from",
					"type": "address"
				},
				{
					"indexed": true,
					"internalType": "address",
					"name": "to",
					"type": "address"
				},
				{
					"indexed": false,
					"internalType": "uint256",
					"name": "id",
					"type": "uint256"
				},
				{
					"indexed": false,
					"internalType": "uint256",
					"name": "value",
					"type": "uint256"
				}
			],
			"name": "TransferSingle",
			"type": "event"
		},
		{
			"anonymous": false,
			"inputs": [
				{
					"indexed": false,
					"internalType": "string",
					"name": "value",
					"type": "string"
				},
				{
					"indexed": true,
					"internalType": "uint256",
					"name": "id",
					"type": "uint256"
				}
			],
			"name": "URI",
			"type": "event"
		},
		{
			"anonymous": false,
			"inputs": [
				{
					"indexed": false,
					"internalType": "address",
					"name": "account",
					"type": "address"
				}
			],
			"name": "Unpaused",
			"type": "event"
		},
		{
			"inputs": [],
			"name": "MAX_MINTS",
			"outputs": [
				{
					"internalType": "uint256",
					"name": "",
					"type": "uint256"
				}
			],
			"stateMutability": "view",
			"type": "function"
		},
		{
			"inputs": [
				{
					"internalType": "address",
					"name": "account",
					"type": "address"
				},
				{
					"internalType": "uint256",
					"name": "id",
					"type": "uint256"
				}
			],
			"name": "balanceOf",
			"outputs": [
				{
					"internalType": "uint256",
					"name": "",
					"type": "uint256"
				}
			],
			"stateMutability": "view",
			"type": "function"
		},
		{
			"inputs": [
				{
					"internalType": "address[]",
					"name": "accounts",
					"type": "address[]"
				},
				{
					"internalType": "uint256[]",
					"name": "ids",
					"type": "uint256[]"
				}
			],
			"name": "balanceOfBatch",
			"outputs": [
				{
					"internalType": "uint256[]",
					"name": "",
					"type": "uint256[]"
				}
			],
			"stateMutability": "view",
			"type": "function"
		},
		{
			"inputs": [
				{
					"internalType": "address",
					"name": "account",
					"type": "address"
				},
				{
					"internalType": "uint256",
					"name": "id",
					"type": "uint256"
				},
				{
					"internalType": "uint256",
					"name": "value",
					"type": "uint256"
				}
			],
			"name": "burn",
			"outputs": [],
			"stateMutability": "nonpayable",
			"type": "function"
		},
		{
			"inputs": [
				{
					"internalType": "address",
					"name": "account",
					"type": "address"
				},
				{
					"internalType": "uint256[]",
					"name": "ids",
					"type": "uint256[]"
				},
				{
					"internalType": "uint256[]",
					"name": "values",
					"type": "uint256[]"
				}
			],
			"name": "burnBatch",
			"outputs": [],
			"stateMutability": "nonpayable",
			"type": "function"
		},
		{
			"inputs": [],
			"name": "contractURI",
			"outputs": [
				{
					"internalType": "string",
					"name": "",
					"type": "string"
				}
			],
			"stateMutability": "view",
			"type": "function"
		},
		{
			"inputs": [
				{
					"internalType": "uint256",
					"name": "id",
					"type": "uint256"
				}
			],
			"name": "exists",
			"outputs": [
				{
					"internalType": "bool",
					"name": "",
					"type": "bool"
				}
			],
			"stateMutability": "view",
			"type": "function"
		},
		{
			"inputs": [
				{
					"internalType": "address",
					"name": "_owner",
					"type": "address"
				},
				{
					"internalType": "address",
					"name": "_operator",
					"type": "address"
				}
			],
			"name": "isApprovedForAll",
			"outputs": [
				{
					"internalType": "bool",
					"name": "isOperator",
					"type": "bool"
				}
			],
			"stateMutability": "view",
			"type": "function"
		},
		{
			"inputs": [
				{
					"internalType": "address",
					"name": "account",
					"type": "address"
				},
				{
					"internalType": "uint256[]",
					"name": "ids",
					"type": "uint256[]"
				},
				{
					"internalType": "uint256[]",
					"name": "amounts",
					"type": "uint256[]"
				},
				{
					"internalType": "uint256",
					"name": "id",
					"type": "uint256"
				},
				{
					"internalType": "bytes",
					"name": "data",
					"type": "bytes"
				}
			],
			"name": "merge",
			"outputs": [],
			"stateMutability": "nonpayable",
			"type": "function"
		},
		{
			"inputs": [
				{
					"internalType": "address",
					"name": "account",
					"type": "address"
				},
				{
					"internalType": "uint256",
					"name": "id",
					"type": "uint256"
				},
				{
					"internalType": "uint256",
					"name": "amount",
					"type": "uint256"
				},
				{
					"internalType": "bytes",
					"name": "data",
					"type": "bytes"
				}
			],
			"name": "mint",
			"outputs": [],
			"stateMutability": "nonpayable",
			"type": "function"
		},
		{
			"inputs": [
				{
					"internalType": "address",
					"name": "to",
					"type": "address"
				},
				{
					"internalType": "uint256[]",
					"name": "ids",
					"type": "uint256[]"
				},
				{
					"internalType": "uint256[]",
					"name": "amounts",
					"type": "uint256[]"
				},
				{
					"internalType": "bytes",
					"name": "data",
					"type": "bytes"
				}
			],
			"name": "mintBatch",
			"outputs": [],
			"stateMutability": "nonpayable",
			"type": "function"
		},
		{
			"inputs": [],
			"name": "owner",
			"outputs": [
				{
					"internalType": "address",
					"name": "",
					"type": "address"
				}
			],
			"stateMutability": "view",
			"type": "function"
		},
		{
			"inputs": [],
			"name": "pause",
			"outputs": [],
			"stateMutability": "nonpayable",
			"type": "function"
		},
		{
			"inputs": [],
			"name": "paused",
			"outputs": [
				{
					"internalType": "bool",
					"name": "",
					"type": "bool"
				}
			],
			"stateMutability": "view",
			"type": "function"
		},
		{
			"inputs": [
				{
					"internalType": "string",
					"name": "_value",
					"type": "string"
				},
				{
					"internalType": "uint256",
					"name": "_id",
					"type": "uint256"
				}
			],
			"name": "permanentURI",
			"outputs": [],
			"stateMutability": "nonpayable",
			"type": "function"
		},
		{
			"inputs": [],
			"name": "renounceOwnership",
			"outputs": [],
			"stateMutability": "nonpayable",
			"type": "function"
		},
		{
			"inputs": [
				{
					"internalType": "address",
					"name": "from",
					"type": "address"
				},
				{
					"internalType": "address",
					"name": "to",
					"type": "address"
				},
				{
					"internalType": "uint256[]",
					"name": "ids",
					"type": "uint256[]"
				},
				{
					"internalType": "uint256[]",
					"name": "amounts",
					"type": "uint256[]"
				},
				{
					"internalType": "bytes",
					"name": "data",
					"type": "bytes"
				}
			],
			"name": "safeBatchTransferFrom",
			"outputs": [],
			"stateMutability": "nonpayable",
			"type": "function"
		},
		{
			"inputs": [
				{
					"internalType": "address",
					"name": "from",
					"type": "address"
				},
				{
					"internalType": "address",
					"name": "to",
					"type": "address"
				},
				{
					"internalType": "uint256",
					"name": "id",
					"type": "uint256"
				},
				{
					"internalType": "uint256",
					"name": "amount",
					"type": "uint256"
				},
				{
					"internalType": "bytes",
					"name": "data",
					"type": "bytes"
				}
			],
			"name": "safeTransferFrom",
			"outputs": [],
			"stateMutability": "nonpayable",
			"type": "function"
		},
		{
			"inputs": [
				{
					"internalType": "address",
					"name": "operator",
					"type": "address"
				},
				{
					"internalType": "bool",
					"name": "approved",
					"type": "bool"
				}
			],
			"name": "setApprovalForAll",
			"outputs": [],
			"stateMutability": "nonpayable",
			"type": "function"
		},
		{
			"inputs": [
				{
					"internalType": "uint256",
					"name": "max_mints",
					"type": "uint256"
				}
			],
			"name": "setMaxMints",
			"outputs": [],
			"stateMutability": "nonpayable",
			"type": "function"
		},
		{
			"inputs": [
				{
					"internalType": "address",
					"name": "_proxyAddress",
					"type": "address"
				}
			],
			"name": "setProxy",
			"outputs": [],
			"stateMutability": "nonpayable",
			"type": "function"
		},
		{
			"inputs": [
				{
					"internalType": "string",
					"name": "_storeMetaURL",
					"type": "string"
				}
			],
			"name": "setStoreMetaURL",
			"outputs": [],
			"stateMutability": "nonpayable",
			"type": "function"
		},
		{
			"inputs": [
				{
					"internalType": "uint256",
					"name": "tokenId",
					"type": "uint256"
				},
				{
					"internalType": "string",
					"name": "_tokenURI",
					"type": "string"
				}
			],
			"name": "setTokenURI",
			"outputs": [],
			"stateMutability": "nonpayable",
			"type": "function"
		},
		{
			"inputs": [
				{
					"internalType": "string",
					"name": "newuri",
					"type": "string"
				}
			],
			"name": "setURI",
			"outputs": [],
			"stateMutability": "nonpayable",
			"type": "function"
		},
		{
			"inputs": [
				{
					"internalType": "bytes4",
					"name": "interfaceId",
					"type": "bytes4"
				}
			],
			"name": "supportsInterface",
			"outputs": [
				{
					"internalType": "bool",
					"name": "",
					"type": "bool"
				}
			],
			"stateMutability": "view",
			"type": "function"
		},
		{
			"inputs": [
				{
					"internalType": "uint256",
					"name": "id",
					"type": "uint256"
				}
			],
			"name": "totalSupply",
			"outputs": [
				{
					"internalType": "uint256",
					"name": "",
					"type": "uint256"
				}
			],
			"stateMutability": "view",
			"type": "function"
		},
		{
			"inputs": [
				{
					"internalType": "address",
					"name": "newOwner",
					"type": "address"
				}
			],
			"name": "transferOwnership",
			"outputs": [],
			"stateMutability": "nonpayable",
			"type": "function"
		},
		{
			"inputs": [],
			"name": "unpause",
			"outputs": [],
			"stateMutability": "nonpayable",
			"type": "function"
		},
		{
			"inputs": [
				{
					"internalType": "uint256",
					"name": "tokenId",
					"type": "uint256"
				}
			],
			"name": "uri",
			"outputs": [
				{
					"internalType": "string",
					"name": "",
					"type": "string"
				}
			],
			"stateMutability": "view",
			"type": "function"
		}
	]
}