{
	"data": {
		"bytecode": {
			"linkReferences": {},
			"object": "610180604081905260006101608190526200001d9160059162000328565b5066b1a2bc2ec500006008556003600955615000600a556000600b55600c805460ff191690556040805160608101909152602b80825262005143602083013980516200007291600d9160209091019062000328565b50600e80546001600160a01b031990811673a5409ec958c83c3f309868babaca7c86dcb077c117909155600f8054821673b3857ebb2bb273e72adab45b3417d1c111f3b21b17905560108054909116736813b289fa4bb595c6b851e55c9ffe097f5f3e74179055348015620000e657600080fd5b5060405180604001604052806004815260200163504f4f5360e01b815250604051806040016040528060018152602001603160f81b8152506040518060600160405280603181526020016200511260319139620001438162000242565b5062000158620001526200025b565b62000277565b6003805460ff60a01b19169055815160208084019190912082518383012060e08290526101008190524660a0818152604080517f8b73c3c69bb8fe3d512ecc4cf759cc79239f7b179b0ffacaa9a75d522b39400f81880181905281830187905260608201869052608082019490945230818401528151808203909301835260c00190528051940193909320919290916080523060601b60c0526101205250506040516200020892509050620003b7565b604051809103906000f08015801562000225573d6000803e3d6000fd5b5060601b6001600160601b03191661014052600160075562000419565b80516200025790600290602084019062000328565b5050565b600062000272620002c960201b62001ed21760201c565b905090565b600380546001600160a01b038381166001600160a01b0319831681179093556040519116919082907f8be0079c531659141344cd1fd0a4f28419497f9722a3daafe3b4186f6b6457e090600090a35050565b6000333014156200032257600080368080601f0160208091040260200160405190810160405280939291908181526020018383808284376000920191909152505050503601516001600160a01b03169150620003259050565b50335b90565b8280546200033690620003dc565b90600052602060002090601f0160209004810192826200035a5760008555620003a5565b82601f106200037557805160ff1916838001178555620003a5565b82800160010185558215620003a5579182015b82811115620003a557825182559160200191906001019062000388565b50620003b3929150620003c5565b5090565b6105888062004b8a83390190565b5b80821115620003b35760008155600101620003c6565b600181811c90821680620003f157607f821691505b602082108114156200041357634e487b7160e01b600052602260045260246000fd5b50919050565b60805160a05160c05160601c60e05161010051610120516101405160601c6147026200048860003960008181611ce2015281816128dd0152612b260152600061333c0152600061338b01526000613366015260006132bf015260006132e90152600061331301526147026000f3fe6080604052600436106102875760003560e01c80635a7256c71161015a578063a22cb465116100c1578063bd85b0391161007a578063bd85b0391461079e578063e2982c21146107cb578063e985e9c5146107eb578063f242432a1461080b578063f2fde38b1461082b578063f5298aca1461084b57600080fd5b8063a22cb46514610709578063aa9c386a14610729578063b0c33af41461073c578063b66a0e5d14610754578063b7ec44b414610769578063bd3e19d41461078957600080fd5b806379c9cb7b1161011357806379c9cb7b1461064f5780638456cb591461066f5780638da5cb5b14610684578063933a9ce8146106b657806394423f6b146106d457806397107d6d146106e957600080fd5b80635a7256c7146105a65780635bdf01c8146105c65780635c975abb146105db5780636b20c454146105fa5780636c19e7831461061a578063715018a61461063a57600080fd5b806329aa6335116101fe5780633f4ba83a116101b75780633f4ba83a146104c857806344a0d68a146104dd5780634e1273f4146104fd5780634f558e791461052a57806351a921dd1461055957806355367ba91461059157600080fd5b806329aa63351461041e5780632a9de8401461043e5780632eb2c2d61461045357806330e995a61461047357806331b3eb941461049357806337929eb4146104b357600080fd5b8063039295fa11610250578063039295fa146103465780630e89341c1461036657806310662e9114610393578063156980a8146103a6578063162094c4146103c65780632286843c146103e657600080fd5b8062fdd58e1461028c57806301ffc9a7146102bf57806302ea2b22146102ef57806302fe53051461031157806303824f7614610331575b600080fd5b34801561029857600080fd5b506102ac6102a7366004613b1c565b61086b565b6040519081526020015b60405180910390f35b3480156102cb57600080fd5b506102df6102da366004613c84565b610904565b60405190151581526020016102b6565b3480156102fb57600080fd5b5061030f61030a366004613c2e565b610954565b005b34801561031d57600080fd5b5061030f61032c366004613cbc565b610d3f565b34801561033d57600080fd5b506102df610d53565b34801561035257600080fd5b5061030f610361366004613e50565b610d75565b34801561037257600080fd5b50610386610381366004613e50565b610d82565b6040516102b691906140d9565b61030f6103a1366004613d38565b610d8d565b3480156103b257600080fd5b5061030f6103c13660046138eb565b6110d5565b3480156103d257600080fd5b5061030f6103e1366004613e80565b6110ff565b3480156103f257600080fd5b506102ac610401366004613cbc565b805160208183018101805160128252928201919093012091525481565b34801561042a57600080fd5b5061030f610439366004613e80565b611115565b34801561044a57600080fd5b50600b546102ac565b34801561045f57600080fd5b5061030f61046e36600461396a565b61148f565b34801561047f57600080fd5b5061030f61048e366004613cbc565b6114ed565b34801561049f57600080fd5b5061030f6104ae3660046138eb565b611508565b3480156104bf57600080fd5b50610386611549565b3480156104d457600080fd5b5061030f6115db565b3480156104e957600080fd5b5061030f6104f8366004613e50565b6115ed565b34801561050957600080fd5b5061051d610518366004613b62565b6115fa565b6040516102b691906140a1565b34801561053657600080fd5b506102df610545366004613e50565b600090815260046020526040902054151590565b34801561056557600080fd5b506102ac610574366004613cbc565b805160208183018101805160118252928201919093012091525481565b34801561059d57600080fd5b5061030f61175b565b3480156105b257600080fd5b5061030f6105c1366004613cf6565b61176f565b3480156105d257600080fd5b50600a546102ac565b3480156105e757600080fd5b50600354600160a01b900460ff166102df565b34801561060657600080fd5b5061030f610615366004613a79565b6117b3565b34801561062657600080fd5b5061030f6106353660046138eb565b61180d565b34801561064657600080fd5b5061030f611837565b34801561065b57600080fd5b5061030f61066a366004613e50565b611849565b34801561067b57600080fd5b5061030f611856565b34801561069057600080fd5b506003546001600160a01b03165b6040516001600160a01b0390911681526020016102b6565b3480156106c257600080fd5b50600e546001600160a01b031661069e565b3480156106e057600080fd5b506009546102ac565b3480156106f557600080fd5b5061030f6107043660046138eb565b611866565b34801561071557600080fd5b5061030f610724366004613aeb565b611890565b61030f610737366004613d97565b6118a2565b34801561074857600080fd5b50600c5460ff166102df565b34801561076057600080fd5b5061030f611c97565b34801561077557600080fd5b5061030f610784366004613907565b611cae565b34801561079557600080fd5b506008546102ac565b3480156107aa57600080fd5b506102ac6107b9366004613e50565b60009081526004602052604090205490565b3480156107d757600080fd5b506102ac6107e63660046138eb565b611cc0565b3480156107f757600080fd5b506102df610806366004613932565b611d5e565b34801561081757600080fd5b5061030f610826366004613a13565b611db0565b34801561083757600080fd5b5061030f6108463660046138eb565b611e07565b34801561085757600080fd5b5061030f610866366004613b2e565b611e7d565b60006001600160a01b0383166108db5760405162461bcd60e51b815260206004820152602a60248201527f455243313135353a2061646472657373207a65726f206973206e6f742061207660448201526930b634b21037bbb732b960b11b60648201526084015b60405180910390fd5b506000818152602081815260408083206001600160a01b03861684529091529020545b92915050565b60006001600160e01b03198216636cdb3d1360e11b148061093557506001600160e01b031982166303a24d0760e21b145b806108fe57506301ffc9a760e01b6001600160e01b03198316146108fe565b600260075414156109775760405162461bcd60e51b81526004016108d29061436d565b600260075581516001106109cd5760405162461bcd60e51b815260206004820152601b60248201527f43616e6e6f74206d657267652073696e676c6520656c656d656e74000000000060448201526064016108d2565b600b825110610a295760405162461bcd60e51b815260206004820152602260248201527f43616e6e6f74206d65726765206d6f7265207468616e20313020656c656d656e604482015261747360f01b60648201526084016108d2565b333214610a8c5760405162461bcd60e51b815260206004820152602b60248201527f4d657267696e672066726f6d20736d61727420636f6e7472616374732069732060448201526a1b9bdd08185b1b1bddd95960aa1b60648201526084016108d2565b60008083516001600160401b03811115610ab657634e487b7160e01b600052604160045260246000fd5b604051908082528060200260200182016040528015610adf578160200160208202803683370190505b50905060005b8451811015610c7e57612710858281518110610b1157634e487b7160e01b600052603260045260246000fd5b602002602001015110610b7e5760405162461bcd60e51b815260206004820152602f60248201527f43616e6e6f74206d65726765207769746820656c656d656e747320746861742060448201526e1a1859081899595b881b595c99d959608a1b60648201526084016108d2565b6000858281518110610ba057634e487b7160e01b600052603260045260246000fd5b602002602001015111610bf55760405162461bcd60e51b815260206004820152601c60248201527f426173696320656c656d656e742069642063616e6e6f7420626520300000000060448201526064016108d2565b610c0181612710614436565b858281518110610c2157634e487b7160e01b600052603260045260246000fd5b6020026020010151610c3391906144de565b610c3d90846143c7565b92506001828281518110610c6157634e487b7160e01b600052603260045260246000fd5b602090810291909101015280610c7681614590565b915050610ae5565b506127108211610cdc5760405162461bcd60e51b8152602060048201526024808201527f4d65726765642069642063616e6e6f7420626520626173696320656c656d656e6044820152631d081a5960e21b60648201526084016108d2565b610ce7338583611f2e565b610cf433836001866120ef565b604080513381526020810184905260018183015290517ff09b8580f0dd326f61a39ad067bd70a1d6915c9c938abcbff08d6c5f844cb3109181900360600190a1505060016007555050565b610d476121e3565b610d508161225c565b50565b6000600a54610d61600b5490565b10610d6c5750600190565b50600090565b90565b610d7d6121e3565b600955565b60606108fe8261226f565b60026007541415610db05760405162461bcd60e51b81526004016108d29061436d565b6002600755600c5460ff1680610dd057506003546001600160a01b031633145b610e1c5760405162461bcd60e51b815260206004820152601a60248201527f5075626c69632073616c65206861736e2774207374617274656400000000000060448201526064016108d2565b333214610e3b5760405162461bcd60e51b81526004016108d290614299565b600954600854610e4b91906144de565b3414610e935760405162461bcd60e51b815260206004820152601760248201527624b731b7b93932b1ba1022ba3432b91030b6b7bab73a1760491b60448201526064016108d2565b6001601284604051610ea59190613f3c565b9081526020016040518091039020546001610ec091906143c7565b1115610f0e5760405162461bcd60e51b815260206004820152601b60248201527f52616e646f6d206e756d62657220616c726561647920757365642e000000000060448201526064016108d2565b60008211610f4f5760405162461bcd60e51b815260206004820152600e60248201526d049642063616e6e6f7420626520360941b60448201526064016108d2565b6010546001600160a01b0316610f678484338561234e565b6001600160a01b031614610fb55760405162461bcd60e51b815260206004820152601560248201527414985b991bdb481b9d5b58995c881a5b9d985b1a59605a1b60448201526064016108d2565b600a54600b54610fc69060016143c7565b111580610fdd57506003546001600160a01b031633145b6110145760405162461bcd60e51b81526020600482015260086024820152671cdbdb19081bdd5d60c21b60448201526064016108d2565b61103d33836001604051806040016040528060048152602001630307830360e41b8152506120ef565b604080513381526020810184905260018183015290517f25b428dfde728ccfaddad7e29e4ac23c24ed7fd1a6e3e3f91894a9a073f5dfff9181900360600190a1600160128460405161108f9190613f3c565b908152602001604051809103902060008282546110ac91906143c7565b925050819055506001600b60008282546110c691906143c7565b90915550506001600755505050565b6110dd6121e3565b601080546001600160a01b0319166001600160a01b0392909216919091179055565b6111076121e3565b61111182826123e2565b5050565b600260075414156111385760405162461bcd60e51b81526004016108d29061436d565b6002600755612710821161118e5760405162461bcd60e51b815260206004820152601a60248201527f43616e6e6f742073706c697420626173696320656c656d656e7400000000000060448201526064016108d2565b3332146111f25760405162461bcd60e51b815260206004820152602c60248201527f53706c6974696e672066726f6d20736d61727420636f6e74726163747320697360448201526b081b9bdd08185b1b1bddd95960a21b60648201526084016108d2565b816000815b801561121d57611209612710826143df565b90508161121581614590565b9250506111f7565b600b82106112805760405162461bcd60e51b815260206004820152602a60248201527f43616e6e6f742062652073706c697420696e746f206d6f7265207468616e20316044820152693020656c656d656e747360b01b60648201526084016108d2565b61128c3386600161243a565b6000826001600160401b038111156112b457634e487b7160e01b600052604160045260246000fd5b6040519080825280602002602001820160405280156112dd578160200160208202803683370190505b5090506000836001600160401b0381111561130857634e487b7160e01b600052604160045260246000fd5b604051908082528060200260200182016040528015611331578160200160208202803683370190505b50905060005b8481101561143b5761134b612710896145ab565b83828151811061136b57634e487b7160e01b600052603260045260246000fd5b602002602001018181525050600083828151811061139957634e487b7160e01b600052603260045260246000fd5b6020026020010151116113ee5760405162461bcd60e51b815260206004820152601c60248201527f426173696320656c656d656e742069642063616e6e6f7420626520300000000060448201526064016108d2565b600182828151811061141057634e487b7160e01b600052603260045260246000fd5b6020908102919091010152611427612710896143df565b97508061143381614590565b915050611337565b506114483383838961255d565b60408051338152602081018790527fe1665329182bc1dab50c9b04ea6bd37107b73ed7c585951d808b02cd9b659627910160405180910390a1505060016007555050505050565b6114976126de565b6001600160a01b0316856001600160a01b031614806114bd57506114bd856108066126de565b6114d95760405162461bcd60e51b81526004016108d2906140ec565b6114e685858585856126ed565b5050505050565b6114f56121e3565b805161111190600d906020840190613770565b6115106121e3565b600260075414156115335760405162461bcd60e51b81526004016108d29061436d565b6002600755611541816128be565b506001600755565b6060600d805461155890614529565b80601f016020809104026020016040519081016040528092919081815260200182805461158490614529565b80156115d15780601f106115a6576101008083540402835291602001916115d1565b820191906000526020600020905b8154815290600101906020018083116115b457829003601f168201915b5050505050905090565b6115e36121e3565b6115eb612935565b565b6115f56121e3565b600855565b6060815183511461165f5760405162461bcd60e51b815260206004820152602960248201527f455243313135353a206163636f756e747320616e6420696473206c656e677468604482015268040dad2e6dac2e8c6d60bb1b60648201526084016108d2565b600083516001600160401b0381111561168857634e487b7160e01b600052604160045260246000fd5b6040519080825280602002602001820160405280156116b1578160200160208202803683370190505b50905060005b8451811015611753576117188582815181106116e357634e487b7160e01b600052603260045260246000fd5b602002602001015185838151811061170b57634e487b7160e01b600052603260045260246000fd5b602002602001015161086b565b82828151811061173857634e487b7160e01b600052603260045260246000fd5b602090810291909101015261174c81614590565b90506116b7565b509392505050565b6117636121e3565b600c805460ff19169055565b6117776121e3565b807fa109ba539900bf1b633f956d63c96fc89b814c7287f7aa50a9216d0b55657207836040516117a791906140d9565b60405180910390a25050565b6117bb6126de565b6001600160a01b0316836001600160a01b031614806117e157506117e1836108066126de565b6117fd5760405162461bcd60e51b81526004016108d2906140ec565b611808838383611f2e565b505050565b6118156121e3565b600f80546001600160a01b0319166001600160a01b0392909216919091179055565b61183f6121e3565b6115eb6000612990565b6118516121e3565b600a55565b61185e6121e3565b6115eb6129e2565b61186e6121e3565b600e80546001600160a01b0319166001600160a01b0392909216919091179055565b61111161189b6126de565b8383612a26565b600260075414156118c55760405162461bcd60e51b81526004016108d29061436d565b60026007553332146118e95760405162461bcd60e51b81526004016108d290614299565b60085434146119345760405162461bcd60e51b815260206004820152601760248201527624b731b7b93932b1ba1022ba3432b91030b6b7bab73a1760491b60448201526064016108d2565b6011866040516119449190613f3c565b908152602001604051809103902054600161195f91906143c7565b8510156119ae5760405162461bcd60e51b815260206004820152601960248201527f57686974656c697374206c696d69742065786365656465642e0000000000000060448201526064016108d2565b60016012846040516119c09190613f3c565b90815260200160405180910390205460016119db91906143c7565b1115611a295760405162461bcd60e51b815260206004820152601b60248201527f52616e646f6d206e756d62657220616c726561647920757365642e000000000060448201526064016108d2565b60008211611a6a5760405162461bcd60e51b815260206004820152600e60248201526d049642063616e6e6f7420626520360941b60448201526064016108d2565b600f546001600160a01b0316611a828787338861234e565b6001600160a01b031614611ad85760405162461bcd60e51b815260206004820152601960248201527f57686974656c69737420766f756368657220696e76616c69640000000000000060448201526064016108d2565b6010546001600160a01b0316611af08484338561234e565b6001600160a01b031614611b3e5760405162461bcd60e51b815260206004820152601560248201527414985b991bdb481b9d5b58995c881a5b9d985b1a59605a1b60448201526064016108d2565b600a54600b54611b4f9060016143c7565b111580611b6657506003546001600160a01b031633145b611b9d5760405162461bcd60e51b81526020600482015260086024820152671cdbdb19081bdd5d60c21b60448201526064016108d2565b611bc633836001604051806040016040528060048152602001630307830360e41b8152506120ef565b604080513381526020810184905260018183015290517fb2557f57d8ab076a9cb57485a4361cd3c326587964505f7ba4f11bb095dc43b99181900360600190a16001601187604051611c189190613f3c565b90815260200160405180910390206000828254611c3591906143c7565b925050819055506001601284604051611c4e9190613f3c565b90815260200160405180910390206000828254611c6b91906143c7565b925050819055506001600b6000828254611c8591906143c7565b90915550506001600755505050505050565b611c9f6121e3565b600c805460ff19166001179055565b611cb66121e3565b6111118282612b07565b6040516371d4ed8d60e11b81526001600160a01b0382811660048301526000917f00000000000000000000000000000000000000000000000000000000000000009091169063e3a9db1a9060240160206040518083038186803b158015611d2657600080fd5b505afa158015611d3a573d6000803e3d6000fd5b505050506040513d601f19601f820116820180604052508101906108fe9190613e68565b600e546000906001600160a01b0383811691161415611d7f575060016108fe565b6001600160a01b0380841660009081526001602090815260408083209386168352929052205460ff165b9392505050565b611db86126de565b6001600160a01b0316856001600160a01b03161480611dde5750611dde856108066126de565b611dfa5760405162461bcd60e51b81526004016108d2906140ec565b6114e68585858585612b7f565b611e0f6121e3565b6001600160a01b038116611e745760405162461bcd60e51b815260206004820152602660248201527f4f776e61626c653a206e6577206f776e657220697320746865207a65726f206160448201526564647265737360d01b60648201526084016108d2565b610d5081612990565b611e856126de565b6001600160a01b0316836001600160a01b03161480611eab5750611eab836108066126de565b611ec75760405162461bcd60e51b81526004016108d2906140ec565b61180883838361243a565b600033301415611f2957600080368080601f0160208091040260200160405190810160405280939291908181526020018383808284376000920191909152505050503601516001600160a01b03169150610d729050565b503390565b6001600160a01b038316611f545760405162461bcd60e51b81526004016108d29061420c565b8051825114611f755760405162461bcd60e51b81526004016108d2906142e4565b6000611f7f6126de565b9050611f9f81856000868660405180602001604052806000815250612cc2565b60005b8351811015612080576000848281518110611fcd57634e487b7160e01b600052603260045260246000fd5b602002602001015190506000848381518110611ff957634e487b7160e01b600052603260045260246000fd5b602090810291909101810151600084815280835260408082206001600160a01b038c1683529093529190912054909150818110156120495760405162461bcd60e51b81526004016108d290614183565b6000928352602083815260408085206001600160a01b038b168652909152909220910390558061207881614590565b915050611fa2565b5060006001600160a01b0316846001600160a01b0316826001600160a01b03167f4a39dc06d4c0dbc64b70af90fd698a233a518aa5d07e595d983b8c0526c8f7fb86866040516120d19291906140b4565b60405180910390a46040805160208101909152600090525b50505050565b6001600160a01b0384166121155760405162461bcd60e51b81526004016108d29061432c565b600061211f6126de565b9050600061212c85612cd8565b9050600061213985612cd8565b905061214a83600089858589612cc2565b6000868152602081815260408083206001600160a01b038b1684529091528120805487929061217a9084906143c7565b909155505060408051878152602081018790526001600160a01b03808a1692600092918716917fc3d58168c5ae7397731d063d5bbf3d657854427343f4c083240f7aacaa2d0f62910160405180910390a46121da83600089898989612d31565b50505050505050565b6121eb6126de565b6001600160a01b03166122066003546001600160a01b031690565b6001600160a01b0316146115eb5760405162461bcd60e51b815260206004820181905260248201527f4f776e61626c653a2063616c6c6572206973206e6f7420746865206f776e657260448201526064016108d2565b8051611111906002906020840190613770565b60008181526006602052604081208054606092919061228d90614529565b80601f01602080910402602001604051908101604052809291908181526020018280546122b990614529565b80156123065780601f106122db57610100808354040283529160200191612306565b820191906000526020600020905b8154815290600101906020018083116122e957829003601f168201915b5050505050905060008151116123245761231f83612e9c565b611da9565b600581604051602001612338929190613f58565b6040516020818303038152906040529392505050565b6000806123cc7f5cdace2705c38f69fb87d5d5667cdb01f9773e1c4d1b6e89ce75a545b06a1071878051906020012087876040516020016123b19493929190938452602084019290925260408301526001600160a01b0316606082015260800190565b60405160208183030381529060405280519060200120612f30565b90506123d88184612f7e565b9695505050505050565b6000828152600660209081526040909120825161240192840190613770565b50817f6bb7ff708619ba0610cba295a58592e0451dee2622938c8755667688daf3529b61242d84610d82565b6040516117a791906140d9565b6001600160a01b0383166124605760405162461bcd60e51b81526004016108d29061420c565b600061246a6126de565b9050600061247784612cd8565b9050600061248484612cd8565b90506124a483876000858560405180602001604052806000815250612cc2565b6000858152602081815260408083206001600160a01b038a168452909152902054848110156124e55760405162461bcd60e51b81526004016108d290614183565b6000868152602081815260408083206001600160a01b038b81168086529184528285208a8703905582518b81529384018a90529092908816917fc3d58168c5ae7397731d063d5bbf3d657854427343f4c083240f7aacaa2d0f62910160405180910390a46040805160208101909152600090526121da565b6001600160a01b0384166125835760405162461bcd60e51b81526004016108d29061432c565b81518351146125a45760405162461bcd60e51b81526004016108d2906142e4565b60006125ae6126de565b90506125bf81600087878787612cc2565b60005b8451811015612676578381815181106125eb57634e487b7160e01b600052603260045260246000fd5b602002602001015160008087848151811061261657634e487b7160e01b600052603260045260246000fd5b602002602001015181526020019081526020016000206000886001600160a01b03166001600160a01b03168152602001908152602001600020600082825461265e91906143c7565b9091555081905061266e81614590565b9150506125c2565b50846001600160a01b031660006001600160a01b0316826001600160a01b03167f4a39dc06d4c0dbc64b70af90fd698a233a518aa5d07e595d983b8c0526c8f7fb87876040516126c79291906140b4565b60405180910390a46114e681600087878787612f9a565b60006126e8611ed2565b905090565b815183511461270e5760405162461bcd60e51b81526004016108d2906142e4565b6001600160a01b0384166127345760405162461bcd60e51b81526004016108d2906141c7565b600061273e6126de565b905061274e818787878787612cc2565b60005b845181101561285057600085828151811061277c57634e487b7160e01b600052603260045260246000fd5b6020026020010151905060008583815181106127a857634e487b7160e01b600052603260045260246000fd5b602090810291909101810151600084815280835260408082206001600160a01b038e1683529093529190912054909150818110156127f85760405162461bcd60e51b81526004016108d29061424f565b6000838152602081815260408083206001600160a01b038e8116855292528083208585039055908b168252812080548492906128359084906143c7565b925050819055505050508061284990614590565b9050612751565b50846001600160a01b0316866001600160a01b0316826001600160a01b03167f4a39dc06d4c0dbc64b70af90fd698a233a518aa5d07e595d983b8c0526c8f7fb87876040516128a09291906140b4565b60405180910390a46128b6818787878787612f9a565b505050505050565b6040516351cff8d960e01b81526001600160a01b0382811660048301527f000000000000000000000000000000000000000000000000000000000000000016906351cff8d990602401600060405180830381600087803b15801561292157600080fd5b505af11580156114e6573d6000803e3d6000fd5b61293d613064565b6003805460ff60a01b191690557f5db9ee0a495bf2e6ff9c91a7834c1ba4fdd244a5e8aa4e537bd38aeae4b073aa6129736126de565b6040516001600160a01b03909116815260200160405180910390a1565b600380546001600160a01b038381166001600160a01b0319831681179093556040519116919082907f8be0079c531659141344cd1fd0a4f28419497f9722a3daafe3b4186f6b6457e090600090a35050565b6129ea6130b4565b6003805460ff60a01b1916600160a01b1790557f62e78cea01bee320cd4e420270b5ea74000d11b0c9f74754ebdbfc544b05a2586129736126de565b816001600160a01b0316836001600160a01b03161415612a9a5760405162461bcd60e51b815260206004820152602960248201527f455243313135353a2073657474696e6720617070726f76616c20737461747573604482015268103337b91039b2b63360b91b60648201526084016108d2565b6001600160a01b03838116600081815260016020908152604080832094871680845294825291829020805460ff191686151590811790915591519182527f17307eab39ab6107e8899845ad3d59bd9653f200f220920489ca2b5937696c31910160405180910390a3505050565b60405163f340fa0160e01b81526001600160a01b0383811660048301527f0000000000000000000000000000000000000000000000000000000000000000169063f340fa019083906024016000604051808303818588803b158015612b6b57600080fd5b505af11580156121da573d6000803e3d6000fd5b6001600160a01b038416612ba55760405162461bcd60e51b81526004016108d2906141c7565b6000612baf6126de565b90506000612bbc85612cd8565b90506000612bc985612cd8565b9050612bd9838989858589612cc2565b6000868152602081815260408083206001600160a01b038c16845290915290205485811015612c1a5760405162461bcd60e51b81526004016108d29061424f565b6000878152602081815260408083206001600160a01b038d8116855292528083208985039055908a16825281208054889290612c579084906143c7565b909155505060408051888152602081018890526001600160a01b03808b16928c821692918816917fc3d58168c5ae7397731d063d5bbf3d657854427343f4c083240f7aacaa2d0f62910160405180910390a4612cb7848a8a8a8a8a612d31565b505050505050505050565b612cca6130b4565b6128b6868686868686613101565b60408051600180825281830190925260609160009190602080830190803683370190505090508281600081518110612d2057634e487b7160e01b600052603260045260246000fd5b602090810291909101015292915050565b6001600160a01b0384163b156128b65760405163f23a6e6160e01b81526001600160a01b0385169063f23a6e6190612d75908990899088908890889060040161405c565b602060405180830381600087803b158015612d8f57600080fd5b505af1925050508015612dbf575060408051601f3d908101601f19168201909252612dbc91810190613ca0565b60015b612e6c57612dcb614601565b806308c379a01415612e055750612de0614618565b80612deb5750612e07565b8060405162461bcd60e51b81526004016108d291906140d9565b505b60405162461bcd60e51b815260206004820152603460248201527f455243313135353a207472616e7366657220746f206e6f6e20455243313135356044820152732932b1b2b4bb32b91034b6b83632b6b2b73a32b960611b60648201526084016108d2565b6001600160e01b0319811663f23a6e6160e01b146121da5760405162461bcd60e51b81526004016108d29061413b565b606060028054612eab90614529565b80601f0160208091040260200160405190810160405280929190818152602001828054612ed790614529565b8015612f245780601f10612ef957610100808354040283529160200191612f24565b820191906000526020600020905b815481529060010190602001808311612f0757829003601f168201915b50505050509050919050565b60006108fe612f3d6132b2565b8360405161190160f01b6020820152602281018390526042810182905260009060620160405160208183030381529060405280519060200120905092915050565b6000806000612f8d85856133d9565b9150915061175381613449565b6001600160a01b0384163b156128b65760405163bc197c8160e01b81526001600160a01b0385169063bc197c8190612fde9089908990889088908890600401613ffe565b602060405180830381600087803b158015612ff857600080fd5b505af1925050508015613028575060408051601f3d908101601f1916820190925261302591810190613ca0565b60015b61303457612dcb614601565b6001600160e01b0319811663bc197c8160e01b146121da5760405162461bcd60e51b81526004016108d29061413b565b600354600160a01b900460ff166115eb5760405162461bcd60e51b815260206004820152601460248201527314185d5cd8589b194e881b9bdd081c185d5cd95960621b60448201526064016108d2565b600354600160a01b900460ff16156115eb5760405162461bcd60e51b815260206004820152601060248201526f14185d5cd8589b194e881c185d5cd95960821b60448201526064016108d2565b6001600160a01b0385166131a45760005b83518110156131a25782818151811061313b57634e487b7160e01b600052603260045260246000fd5b60200260200101516004600086848151811061316757634e487b7160e01b600052603260045260246000fd5b60200260200101518152602001908152602001600020600082825461318c91906143c7565b9091555061319b905081614590565b9050613112565b505b6001600160a01b0384166128b65760005b83518110156121da5760008482815181106131e057634e487b7160e01b600052603260045260246000fd5b60200260200101519050600084838151811061320c57634e487b7160e01b600052603260045260246000fd5b602002602001015190506000600460008481526020019081526020016000205490508181101561328f5760405162461bcd60e51b815260206004820152602860248201527f455243313135353a206275726e20616d6f756e74206578636565647320746f74604482015267616c537570706c7960c01b60648201526084016108d2565b600092835260046020526040909220910390556132ab81614590565b90506131b5565b6000306001600160a01b037f00000000000000000000000000000000000000000000000000000000000000001614801561330b57507f000000000000000000000000000000000000000000000000000000000000000046145b1561333557507f000000000000000000000000000000000000000000000000000000000000000090565b50604080517f00000000000000000000000000000000000000000000000000000000000000006020808301919091527f0000000000000000000000000000000000000000000000000000000000000000828401527f000000000000000000000000000000000000000000000000000000000000000060608301524660808301523060a0808401919091528351808403909101815260c0909201909252805191012090565b6000808251604114156134105760208301516040840151606085015160001a6134048782858561364a565b94509450505050613442565b82516040141561343a576020830151604084015161342f868383613737565b935093505050613442565b506000905060025b9250929050565b600081600481111561346b57634e487b7160e01b600052602160045260246000fd5b14156134745750565b600181600481111561349657634e487b7160e01b600052602160045260246000fd5b14156134e45760405162461bcd60e51b815260206004820152601860248201527f45434453413a20696e76616c6964207369676e6174757265000000000000000060448201526064016108d2565b600281600481111561350657634e487b7160e01b600052602160045260246000fd5b14156135545760405162461bcd60e51b815260206004820152601f60248201527f45434453413a20696e76616c6964207369676e6174757265206c656e6774680060448201526064016108d2565b600381600481111561357657634e487b7160e01b600052602160045260246000fd5b14156135cf5760405162461bcd60e51b815260206004820152602260248201527f45434453413a20696e76616c6964207369676e6174757265202773272076616c604482015261756560f01b60648201526084016108d2565b60048160048111156135f157634e487b7160e01b600052602160045260246000fd5b1415610d505760405162461bcd60e51b815260206004820152602260248201527f45434453413a20696e76616c6964207369676e6174757265202776272076616c604482015261756560f01b60648201526084016108d2565b6000807f7fffffffffffffffffffffffffffffff5d576e7357a4501ddfe92f46681b20a0831115613681575060009050600361372e565b8460ff16601b1415801561369957508460ff16601c14155b156136aa575060009050600461372e565b6040805160008082526020820180845289905260ff881692820192909252606081018690526080810185905260019060a0016020604051602081039080840390855afa1580156136fe573d6000803e3d6000fd5b5050604051601f1901519150506001600160a01b0381166137275760006001925092505061372e565b9150600090505b94509492505050565b6000806001600160ff1b0383168161375460ff86901c601b6143c7565b90506137628782888561364a565b935093505050935093915050565b82805461377c90614529565b90600052602060002090601f01602090048101928261379e57600085556137e4565b82601f106137b757805160ff19168380011785556137e4565b828001600101855582156137e4579182015b828111156137e45782518255916020019190600101906137c9565b506137f09291506137f4565b5090565b5b808211156137f057600081556001016137f5565b600082601f830112613819578081fd5b81356020613826826143a4565b6040516138338282614564565b8381528281019150858301600585901b87018401881015613852578586fd5b855b8581101561387057813584529284019290840190600101613854565b5090979650505050505050565b600082601f83011261388d578081fd5b81356001600160401b038111156138a6576138a66145eb565b6040516138bd601f8301601f191660200182614564565b8181528460208386010111156138d1578283fd5b816020850160208301379081016020019190915292915050565b6000602082840312156138fc578081fd5b8135611da9816146a1565b60008060408385031215613919578081fd5b8235613924816146a1565b946020939093013593505050565b60008060408385031215613944578182fd5b823561394f816146a1565b9150602083013561395f816146a1565b809150509250929050565b600080600080600060a08688031215613981578081fd5b853561398c816146a1565b9450602086013561399c816146a1565b935060408601356001600160401b03808211156139b7578283fd5b6139c389838a01613809565b945060608801359150808211156139d8578283fd5b6139e489838a01613809565b935060808801359150808211156139f9578283fd5b50613a068882890161387d565b9150509295509295909350565b600080600080600060a08688031215613a2a578081fd5b8535613a35816146a1565b94506020860135613a45816146a1565b9350604086013592506060860135915060808601356001600160401b03811115613a6d578182fd5b613a068882890161387d565b600080600060608486031215613a8d578283fd5b8335613a98816146a1565b925060208401356001600160401b0380821115613ab3578384fd5b613abf87838801613809565b93506040860135915080821115613ad4578283fd5b50613ae186828701613809565b9150509250925092565b60008060408385031215613afd578182fd5b8235613b08816146a1565b91506020830135801515811461395f578182fd5b60008060408385031215613919578182fd5b600080600060608486031215613b42578081fd5b8335613b4d816146a1565b95602085013595506040909401359392505050565b60008060408385031215613b74578182fd5b82356001600160401b0380821115613b8a578384fd5b818501915085601f830112613b9d578384fd5b81356020613baa826143a4565b604051613bb78282614564565b8381528281019150858301600585901b870184018b1015613bd6578889fd5b8896505b84871015613c01578035613bed816146a1565b835260019690960195918301918301613bda565b5096505086013592505080821115613c17578283fd5b50613c2485828601613809565b9150509250929050565b60008060408385031215613c40578182fd5b82356001600160401b0380821115613c56578384fd5b613c6286838701613809565b93506020850135915080821115613c77578283fd5b50613c248582860161387d565b600060208284031215613c95578081fd5b8135611da9816146b6565b600060208284031215613cb1578081fd5b8151611da9816146b6565b600060208284031215613ccd578081fd5b81356001600160401b03811115613ce2578182fd5b613cee8482850161387d565b949350505050565b60008060408385031215613d08578182fd5b82356001600160401b03811115613d1d578283fd5b613d298582860161387d565b95602094909401359450505050565b600080600060608486031215613d4c578081fd5b83356001600160401b0380821115613d62578283fd5b613d6e8783880161387d565b9450602086013593506040860135915080821115613d8a578283fd5b50613ae18682870161387d565b60008060008060008060c08789031215613daf578384fd5b86356001600160401b0380821115613dc5578586fd5b613dd18a838b0161387d565b9750602089013596506040890135915080821115613ded578586fd5b613df98a838b0161387d565b95506060890135915080821115613e0e578283fd5b613e1a8a838b0161387d565b94506080890135935060a0890135915080821115613e36578283fd5b50613e4389828a0161387d565b9150509295509295509295565b600060208284031215613e61578081fd5b5035919050565b600060208284031215613e79578081fd5b5051919050565b60008060408385031215613e92578182fd5b8235915060208301356001600160401b03811115613eae578182fd5b613c248582860161387d565b6000815180845260208085019450808401835b83811015613ee957815187529582019590820190600101613ecd565b509495945050505050565b60008151808452613f0c8160208601602086016144fd565b601f01601f19169290920160200192915050565b60008151613f328185602086016144fd565b9290920192915050565b60008251613f4e8184602087016144fd565b9190910192915050565b600080845482600182811c915080831680613f7457607f831692505b6020808410821415613f9457634e487b7160e01b87526022600452602487fd5b818015613fa85760018114613fb957613fe5565b60ff19861689528489019650613fe5565b60008b815260209020885b86811015613fdd5781548b820152908501908301613fc4565b505084890196505b505050505050613ff58185613f20565b95945050505050565b6001600160a01b0386811682528516602082015260a06040820181905260009061402a90830186613eba565b828103606084015261403c8186613eba565b905082810360808401526140508185613ef4565b98975050505050505050565b6001600160a01b03868116825285166020820152604081018490526060810183905260a06080820181905260009061409690830184613ef4565b979650505050505050565b602081526000611da96020830184613eba565b6040815260006140c76040830185613eba565b8281036020840152613ff58185613eba565b602081526000611da96020830184613ef4565b6020808252602f908201527f455243313135353a2063616c6c6572206973206e6f7420746f6b656e206f776e60408201526e195c881b9bdc88185c1c1c9bdd9959608a1b606082015260800190565b60208082526028908201527f455243313135353a204552433131353552656365697665722072656a656374656040820152676420746f6b656e7360c01b606082015260800190565b60208082526024908201527f455243313135353a206275726e20616d6f756e7420657863656564732062616c604082015263616e636560e01b606082015260800190565b60208082526025908201527f455243313135353a207472616e7366657220746f20746865207a65726f206164604082015264647265737360d81b606082015260800190565b60208082526023908201527f455243313135353a206275726e2066726f6d20746865207a65726f206164647260408201526265737360e81b606082015260800190565b6020808252602a908201527f455243313135353a20696e73756666696369656e742062616c616e636520666f60408201526939103a3930b739b332b960b11b606082015260800190565b6020808252602b908201527f4d696e74696e672066726f6d20736d61727420636f6e7472616374732069732060408201526a1b9bdd08185b1b1bddd95960aa1b606082015260800190565b60208082526028908201527f455243313135353a2069647320616e6420616d6f756e7473206c656e677468206040820152670dad2e6dac2e8c6d60c31b606082015260800190565b60208082526021908201527f455243313135353a206d696e7420746f20746865207a65726f206164647265736040820152607360f81b606082015260800190565b6020808252601f908201527f5265656e7472616e637947756172643a207265656e7472616e742063616c6c00604082015260600190565b60006001600160401b038211156143bd576143bd6145eb565b5060051b60200190565b600082198211156143da576143da6145bf565b500190565b6000826143ee576143ee6145d5565b500490565b600181815b8085111561442e578160001904821115614414576144146145bf565b8085161561442157918102915b93841c93908002906143f8565b509250929050565b6000611da9838360008261444c575060016108fe565b81614459575060006108fe565b816001811461446f576002811461447957614495565b60019150506108fe565b60ff84111561448a5761448a6145bf565b50506001821b6108fe565b5060208310610133831016604e8410600b84101617156144b8575081810a6108fe565b6144c283836143f3565b80600019048211156144d6576144d66145bf565b029392505050565b60008160001904831182151516156144f8576144f86145bf565b500290565b60005b83811015614518578181015183820152602001614500565b838111156120e95750506000910152565b600181811c9082168061453d57607f821691505b6020821081141561455e57634e487b7160e01b600052602260045260246000fd5b50919050565b601f8201601f191681016001600160401b0381118282101715614589576145896145eb565b6040525050565b60006000198214156145a4576145a46145bf565b5060010190565b6000826145ba576145ba6145d5565b500690565b634e487b7160e01b600052601160045260246000fd5b634e487b7160e01b600052601260045260246000fd5b634e487b7160e01b600052604160045260246000fd5b600060033d1115610d7257600481823e5160e01c90565b600060443d10156146265790565b6040516003193d81016004833e81513d6001600160401b03816024840111818411171561465557505050505090565b828501915081518181111561466d5750505050505090565b843d87010160208285010111156146875750505050505090565b61469660208286010187614564565b509095945050505050565b6001600160a01b0381168114610d5057600080fd5b6001600160e01b031981168114610d5057600080fdfea264697066735822122087d00b9e8cc4967f4265a70e6b33a98dd81e5d7fe09ee9659094d34b47b34c3164736f6c63430008040033608060405234801561001057600080fd5b5061001a3361001f565b61006f565b600080546001600160a01b038381166001600160a01b0319831681178455604051919092169283917f8be0079c531659141344cd1fd0a4f28419497f9722a3daafe3b4186f6b6457e09190a35050565b61050a8061007e6000396000f3fe6080604052600436106100555760003560e01c806351cff8d91461005a578063715018a61461007c5780638da5cb5b14610091578063e3a9db1a146100be578063f2fde38b14610102578063f340fa0114610122575b600080fd5b34801561006657600080fd5b5061007a610075366004610478565b610135565b005b34801561008857600080fd5b5061007a6101ac565b34801561009d57600080fd5b506000546040516001600160a01b0390911681526020015b60405180910390f35b3480156100ca57600080fd5b506100f46100d9366004610478565b6001600160a01b031660009081526001602052604090205490565b6040519081526020016100b5565b34801561010e57600080fd5b5061007a61011d366004610478565b6101c0565b61007a610130366004610478565b61023e565b61013d6102b0565b6001600160a01b0381166000818152600160205260408120805491905590610165908261030a565b816001600160a01b03167f7084f5476618d8e60b11ef0d7d3f06914655adb8793e28ff7f018d4c76d505d5826040516101a091815260200190565b60405180910390a25050565b6101b46102b0565b6101be6000610428565b565b6101c86102b0565b6001600160a01b0381166102325760405162461bcd60e51b815260206004820152602660248201527f4f776e61626c653a206e6577206f776e657220697320746865207a65726f206160448201526564647265737360d01b60648201526084015b60405180910390fd5b61023b81610428565b50565b6102466102b0565b6001600160a01b03811660009081526001602052604081208054349283929161027090849061049b565b90915550506040518181526001600160a01b038316907f2da466a7b24304f47e87fa2e1e5a81b9831ce54fec19055ce277ca2f39ba42c4906020016101a0565b6000546001600160a01b031633146101be5760405162461bcd60e51b815260206004820181905260248201527f4f776e61626c653a2063616c6c6572206973206e6f7420746865206f776e65726044820152606401610229565b8047101561035a5760405162461bcd60e51b815260206004820152601d60248201527f416464726573733a20696e73756666696369656e742062616c616e63650000006044820152606401610229565b6000826001600160a01b03168260405160006040518083038185875af1925050503d80600081146103a7576040519150601f19603f3d011682016040523d82523d6000602084013e6103ac565b606091505b50509050806104235760405162461bcd60e51b815260206004820152603a60248201527f416464726573733a20756e61626c6520746f2073656e642076616c75652c207260448201527f6563697069656e74206d617920686176652072657665727465640000000000006064820152608401610229565b505050565b600080546001600160a01b038381166001600160a01b0319831681178455604051919092169283917f8be0079c531659141344cd1fd0a4f28419497f9722a3daafe3b4186f6b6457e09190a35050565b600060208284031215610489578081fd5b8135610494816104bf565b9392505050565b600082198211156104ba57634e487b7160e01b81526011600452602481fd5b500190565b6001600160a01b038116811461023b57600080fdfea2646970667358221220638995151e0ceb779ba1d9b80b35e5f810c9137e9db1c63fc2f954c5c1ed524664736f6c6343000804003368747470733a2f2f6d657461707974686f6e2e6865726f6b756170702e636f6d2f6170692f656c656d656e742f7b69647d68747470733a2f2f6d657461707974686f6e2e6865726f6b756170702e636f6d2f6170692f73746f72652f",
			"opcodes": "PUSH2 0x180 PUSH1 0x40 DUP2 SWAP1 MSTORE PUSH1 0x0 PUSH2 0x160 DUP2 SWAP1 MSTORE PUSH3 0x1D SWAP2 PUSH1 0x5 SWAP2 PUSH3 0x328 JUMP JUMPDEST POP PUSH7 0xB1A2BC2EC50000 PUSH1 0x8 SSTORE PUSH1 0x3 PUSH1 0x9 SSTORE PUSH2 0x5000 PUSH1 0xA SSTORE PUSH1 0x0 PUSH1 0xB SSTORE PUSH1 0xC DUP1 SLOAD PUSH1 0xFF NOT AND SWAP1 SSTORE PUSH1 0x40 DUP1 MLOAD PUSH1 0x60 DUP2 ADD SWAP1 SWAP2 MSTORE PUSH1 0x2B DUP1 DUP3 MSTORE PUSH3 0x5143 PUSH1 0x20 DUP4 ADD CODECOPY DUP1 MLOAD PUSH3 0x72 SWAP2 PUSH1 0xD SWAP2 PUSH1 0x20 SWAP1 SWAP2 ADD SWAP1 PUSH3 0x328 JUMP JUMPDEST POP PUSH1 0xE DUP1 SLOAD PUSH1 0x1 PUSH1 0x1 PUSH1 0xA0 SHL SUB NOT SWAP1 DUP2 AND PUSH20 0xA5409EC958C83C3F309868BABACA7C86DCB077C1 OR SWAP1 SWAP2 SSTORE PUSH1 0xF DUP1 SLOAD DUP3 AND PUSH20 0xB3857EBB2BB273E72ADAB45B3417D1C111F3B21B OR SWAP1 SSTORE PUSH1 0x10 DUP1 SLOAD SWAP1 SWAP2 AND PUSH20 0x6813B289FA4BB595C6B851E55C9FFE097F5F3E74 OR SWAP1 SSTORE CALLVALUE DUP1 ISZERO PUSH3 0xE6 JUMPI PUSH1 0x0 DUP1 REVERT JUMPDEST POP PUSH1 0x40 MLOAD DUP1 PUSH1 0x40 ADD PUSH1 0x40 MSTORE DUP1 PUSH1 0x4 DUP2 MSTORE PUSH1 0x20 ADD PUSH4 0x504F4F53 PUSH1 0xE0 SHL DUP2 MSTORE POP PUSH1 0x40 MLOAD DUP1 PUSH1 0x40 ADD PUSH1 0x40 MSTORE DUP1 PUSH1 0x1 DUP2 MSTORE PUSH1 0x20 ADD PUSH1 0x31 PUSH1 0xF8 SHL DUP2 MSTORE POP PUSH1 0x40 MLOAD DUP1 PUSH1 0x60 ADD PUSH1 0x40 MSTORE DUP1 PUSH1 0x31 DUP2 MSTORE PUSH1 0x20 ADD PUSH3 0x5112 PUSH1 0x31 SWAP2 CODECOPY PUSH3 0x143 DUP2 PUSH3 0x242 JUMP JUMPDEST POP PUSH3 0x158 PUSH3 0x152 PUSH3 0x25B JUMP JUMPDEST PUSH3 0x277 JUMP JUMPDEST PUSH1 0x3 DUP1 SLOAD PUSH1 0xFF PUSH1 0xA0 SHL NOT AND SWAP1 SSTORE DUP2 MLOAD PUSH1 0x20 DUP1 DUP5 ADD SWAP2 SWAP1 SWAP2 KECCAK256 DUP3 MLOAD DUP4 DUP4 ADD KECCAK256 PUSH1 0xE0 DUP3 SWAP1 MSTORE PUSH2 0x100 DUP2 SWAP1 MSTORE CHAINID PUSH1 0xA0 DUP2 DUP2 MSTORE PUSH1 0x40 DUP1 MLOAD PUSH32 0x8B73C3C69BB8FE3D512ECC4CF759CC79239F7B179B0FFACAA9A75D522B39400F DUP2 DUP9 ADD DUP2 SWAP1 MSTORE DUP2 DUP4 ADD DUP8 SWAP1 MSTORE PUSH1 0x60 DUP3 ADD DUP7 SWAP1 MSTORE PUSH1 0x80 DUP3 ADD SWAP5 SWAP1 SWAP5 MSTORE ADDRESS DUP2 DUP5 ADD MSTORE DUP2 MLOAD DUP1 DUP3 SUB SWAP1 SWAP4 ADD DUP4 MSTORE PUSH1 0xC0 ADD SWAP1 MSTORE DUP1 MLOAD SWAP5 ADD SWAP4 SWAP1 SWAP4 KECCAK256 SWAP2 SWAP3 SWAP1 SWAP2 PUSH1 0x80 MSTORE ADDRESS PUSH1 0x60 SHL PUSH1 0xC0 MSTORE PUSH2 0x120 MSTORE POP POP PUSH1 0x40 MLOAD PUSH3 0x208 SWAP3 POP SWAP1 POP PUSH3 0x3B7 JUMP JUMPDEST PUSH1 0x40 MLOAD DUP1 SWAP2 SUB SWAP1 PUSH1 0x0 CREATE DUP1 ISZERO DUP1 ISZERO PUSH3 0x225 JUMPI RETURNDATASIZE PUSH1 0x0 DUP1 RETURNDATACOPY RETURNDATASIZE PUSH1 0x0 REVERT JUMPDEST POP PUSH1 0x60 SHL PUSH1 0x1 PUSH1 0x1 PUSH1 0x60 SHL SUB NOT AND PUSH2 0x140 MSTORE PUSH1 0x1 PUSH1 0x7 SSTORE PUSH3 0x419 JUMP JUMPDEST DUP1 MLOAD PUSH3 0x257 SWAP1 PUSH1 0x2 SWAP1 PUSH1 0x20 DUP5 ADD SWAP1 PUSH3 0x328 JUMP JUMPDEST POP POP JUMP JUMPDEST PUSH1 0x0 PUSH3 0x272 PUSH3 0x2C9 PUSH1 0x20 SHL PUSH3 0x1ED2 OR PUSH1 0x20 SHR JUMP JUMPDEST SWAP1 POP SWAP1 JUMP JUMPDEST PUSH1 0x3 DUP1 SLOAD PUSH1 0x1 PUSH1 0x1 PUSH1 0xA0 SHL SUB DUP4 DUP2 AND PUSH1 0x1 PUSH1 0x1 PUSH1 0xA0 SHL SUB NOT DUP4 AND DUP2 OR SWAP1 SWAP4 SSTORE PUSH1 0x40 MLOAD SWAP2 AND SWAP2 SWAP1 DUP3 SWAP1 PUSH32 0x8BE0079C531659141344CD1FD0A4F28419497F9722A3DAAFE3B4186F6B6457E0 SWAP1 PUSH1 0x0 SWAP1 LOG3 POP POP JUMP JUMPDEST PUSH1 0x0 CALLER ADDRESS EQ ISZERO PUSH3 0x322 JUMPI PUSH1 0x0 DUP1 CALLDATASIZE DUP1 DUP1 PUSH1 0x1F ADD PUSH1 0x20 DUP1 SWAP2 DIV MUL PUSH1 0x20 ADD PUSH1 0x40 MLOAD SWAP1 DUP2 ADD PUSH1 0x40 MSTORE DUP1 SWAP4 SWAP3 SWAP2 SWAP1 DUP2 DUP2 MSTORE PUSH1 0x20 ADD DUP4 DUP4 DUP1 DUP3 DUP5 CALLDATACOPY PUSH1 0x0 SWAP3 ADD SWAP2 SWAP1 SWAP2 MSTORE POP POP POP POP CALLDATASIZE ADD MLOAD PUSH1 0x1 PUSH1 0x1 PUSH1 0xA0 SHL SUB AND SWAP2 POP PUSH3 0x325 SWAP1 POP JUMP JUMPDEST POP CALLER JUMPDEST SWAP1 JUMP JUMPDEST DUP3 DUP1 SLOAD PUSH3 0x336 SWAP1 PUSH3 0x3DC JUMP JUMPDEST SWAP1 PUSH1 0x0 MSTORE PUSH1 0x20 PUSH1 0x0 KECCAK256 SWAP1 PUSH1 0x1F ADD PUSH1 0x20 SWAP1 DIV DUP2 ADD SWAP3 DUP3 PUSH3 0x35A JUMPI PUSH1 0x0 DUP6 SSTORE PUSH3 0x3A5 JUMP JUMPDEST DUP3 PUSH1 0x1F LT PUSH3 0x375 JUMPI DUP1 MLOAD PUSH1 0xFF NOT AND DUP4 DUP1 ADD OR DUP6 SSTORE PUSH3 0x3A5 JUMP JUMPDEST DUP3 DUP1 ADD PUSH1 0x1 ADD DUP6 SSTORE DUP3 ISZERO PUSH3 0x3A5 JUMPI SWAP2 DUP3 ADD JUMPDEST DUP3 DUP2 GT ISZERO PUSH3 0x3A5 JUMPI DUP3 MLOAD DUP3 SSTORE SWAP2 PUSH1 0x20 ADD SWAP2 SWAP1 PUSH1 0x1 ADD SWAP1 PUSH3 0x388 JUMP JUMPDEST POP PUSH3 0x3B3 SWAP3 SWAP2 POP PUSH3 0x3C5 JUMP JUMPDEST POP SWAP1 JUMP JUMPDEST PUSH2 0x588 DUP1 PUSH3 0x4B8A DUP4 CODECOPY ADD SWAP1 JUMP JUMPDEST JUMPDEST DUP1 DUP3 GT ISZERO PUSH3 0x3B3 JUMPI PUSH1 0x0 DUP2 SSTORE PUSH1 0x1 ADD PUSH3 0x3C6 JUMP JUMPDEST PUSH1 0x1 DUP2 DUP2 SHR SWAP1 DUP3 AND DUP1 PUSH3 0x3F1 JUMPI PUSH1 0x7F DUP3 AND SWAP2 POP JUMPDEST PUSH1 0x20 DUP3 LT DUP2 EQ ISZERO PUSH3 0x413 JUMPI PUSH4 0x4E487B71 PUSH1 0xE0 SHL PUSH1 0x0 MSTORE PUSH1 0x22 PUSH1 0x4 MSTORE PUSH1 0x24 PUSH1 0x0 REVERT JUMPDEST POP SWAP2 SWAP1 POP JUMP JUMPDEST PUSH1 0x80 MLOAD PUSH1 0xA0 MLOAD PUSH1 0xC0 MLOAD PUSH1 0x60 SHR PUSH1 0xE0 MLOAD PUSH2 0x100 MLOAD PUSH2 0x120 MLOAD PUSH2 0x140 MLOAD PUSH1 0x60 SHR PUSH2 0x4702 PUSH3 0x488 PUSH1 0x0 CODECOPY PUSH1 0x0 DUP2 DUP2 PUSH2 0x1CE2 ADD MSTORE DUP2 DUP2 PUSH2 0x28DD ADD MSTORE PUSH2 0x2B26 ADD MSTORE PUSH1 0x0 PUSH2 0x333C ADD MSTORE PUSH1 0x0 PUSH2 0x338B ADD MSTORE PUSH1 0x0 PUSH2 0x3366 ADD MSTORE PUSH1 0x0 PUSH2 0x32BF ADD MSTORE PUSH1 0x0 PUSH2 0x32E9 ADD MSTORE PUSH1 0x0 PUSH2 0x3313 ADD MSTORE PUSH2 0x4702 PUSH1 0x0 RETURN INVALID PUSH1 0x80 PUSH1 0x40 MSTORE PUSH1 0x4 CALLDATASIZE LT PUSH2 0x287 JUMPI PUSH1 0x0 CALLDATALOAD PUSH1 0xE0 SHR DUP1 PUSH4 0x5A7256C7 GT PUSH2 0x15A JUMPI DUP1 PUSH4 0xA22CB465 GT PUSH2 0xC1 JUMPI DUP1 PUSH4 0xBD85B039 GT PUSH2 0x7A JUMPI DUP1 PUSH4 0xBD85B039 EQ PUSH2 0x79E JUMPI DUP1 PUSH4 0xE2982C21 EQ PUSH2 0x7CB JUMPI DUP1 PUSH4 0xE985E9C5 EQ PUSH2 0x7EB JUMPI DUP1 PUSH4 0xF242432A EQ PUSH2 0x80B JUMPI DUP1 PUSH4 0xF2FDE38B EQ PUSH2 0x82B JUMPI DUP1 PUSH4 0xF5298ACA EQ PUSH2 0x84B JUMPI PUSH1 0x0 DUP1 REVERT JUMPDEST DUP1 PUSH4 0xA22CB465 EQ PUSH2 0x709 JUMPI DUP1 PUSH4 0xAA9C386A EQ PUSH2 0x729 JUMPI DUP1 PUSH4 0xB0C33AF4 EQ PUSH2 0x73C JUMPI DUP1 PUSH4 0xB66A0E5D EQ PUSH2 0x754 JUMPI DUP1 PUSH4 0xB7EC44B4 EQ PUSH2 0x769 JUMPI DUP1 PUSH4 0xBD3E19D4 EQ PUSH2 0x789 JUMPI PUSH1 0x0 DUP1 REVERT JUMPDEST DUP1 PUSH4 0x79C9CB7B GT PUSH2 0x113 JUMPI DUP1 PUSH4 0x79C9CB7B EQ PUSH2 0x64F JUMPI DUP1 PUSH4 0x8456CB59 EQ PUSH2 0x66F JUMPI DUP1 PUSH4 0x8DA5CB5B EQ PUSH2 0x684 JUMPI DUP1 PUSH4 0x933A9CE8 EQ PUSH2 0x6B6 JUMPI DUP1 PUSH4 0x94423F6B EQ PUSH2 0x6D4 JUMPI DUP1 PUSH4 0x97107D6D EQ PUSH2 0x6E9 JUMPI PUSH1 0x0 DUP1 REVERT JUMPDEST DUP1 PUSH4 0x5A7256C7 EQ PUSH2 0x5A6 JUMPI DUP1 PUSH4 0x5BDF01C8 EQ PUSH2 0x5C6 JUMPI DUP1 PUSH4 0x5C975ABB EQ PUSH2 0x5DB JUMPI DUP1 PUSH4 0x6B20C454 EQ PUSH2 0x5FA JUMPI DUP1 PUSH4 0x6C19E783 EQ PUSH2 0x61A JUMPI DUP1 PUSH4 0x715018A6 EQ PUSH2 0x63A JUMPI PUSH1 0x0 DUP1 REVERT JUMPDEST DUP1 PUSH4 0x29AA6335 GT PUSH2 0x1FE JUMPI DUP1 PUSH4 0x3F4BA83A GT PUSH2 0x1B7 JUMPI DUP1 PUSH4 0x3F4BA83A EQ PUSH2 0x4C8 JUMPI DUP1 PUSH4 0x44A0D68A EQ PUSH2 0x4DD JUMPI DUP1 PUSH4 0x4E1273F4 EQ PUSH2 0x4FD JUMPI DUP1 PUSH4 0x4F558E79 EQ PUSH2 0x52A JUMPI DUP1 PUSH4 0x51A921DD EQ PUSH2 0x559 JUMPI DUP1 PUSH4 0x55367BA9 EQ PUSH2 0x591 JUMPI PUSH1 0x0 DUP1 REVERT JUMPDEST DUP1 PUSH4 0x29AA6335 EQ PUSH2 0x41E JUMPI DUP1 PUSH4 0x2A9DE840 EQ PUSH2 0x43E JUMPI DUP1 PUSH4 0x2EB2C2D6 EQ PUSH2 0x453 JUMPI DUP1 PUSH4 0x30E995A6 EQ PUSH2 0x473 JUMPI DUP1 PUSH4 0x31B3EB94 EQ PUSH2 0x493 JUMPI DUP1 PUSH4 0x37929EB4 EQ PUSH2 0x4B3 JUMPI PUSH1 0x0 DUP1 REVERT JUMPDEST DUP1 PUSH4 0x39295FA GT PUSH2 0x250 JUMPI DUP1 PUSH4 0x39295FA EQ PUSH2 0x346 JUMPI DUP1 PUSH4 0xE89341C EQ PUSH2 0x366 JUMPI DUP1 PUSH4 0x10662E91 EQ PUSH2 0x393 JUMPI DUP1 PUSH4 0x156980A8 EQ PUSH2 0x3A6 JUMPI DUP1 PUSH4 0x162094C4 EQ PUSH2 0x3C6 JUMPI DUP1 PUSH4 0x2286843C EQ PUSH2 0x3E6 JUMPI PUSH1 0x0 DUP1 REVERT JUMPDEST DUP1 PUSH3 0xFDD58E EQ PUSH2 0x28C JUMPI DUP1 PUSH4 0x1FFC9A7 EQ PUSH2 0x2BF JUMPI DUP1 PUSH4 0x2EA2B22 EQ PUSH2 0x2EF JUMPI DUP1 PUSH4 0x2FE5305 EQ PUSH2 0x311 JUMPI DUP1 PUSH4 0x3824F76 EQ PUSH2 0x331 JUMPI JUMPDEST PUSH1 0x0 DUP1 REVERT JUMPDEST CALLVALUE DUP1 ISZERO PUSH2 0x298 JUMPI PUSH1 0x0 DUP1 REVERT JUMPDEST POP PUSH2 0x2AC PUSH2 0x2A7 CALLDATASIZE PUSH1 0x4 PUSH2 0x3B1C JUMP JUMPDEST PUSH2 0x86B JUMP JUMPDEST PUSH1 0x40 MLOAD SWAP1 DUP2 MSTORE PUSH1 0x20 ADD JUMPDEST PUSH1 0x40 MLOAD DUP1 SWAP2 SUB SWAP1 RETURN JUMPDEST CALLVALUE DUP1 ISZERO PUSH2 0x2CB JUMPI PUSH1 0x0 DUP1 REVERT JUMPDEST POP PUSH2 0x2DF PUSH2 0x2DA CALLDATASIZE PUSH1 0x4 PUSH2 0x3C84 JUMP JUMPDEST PUSH2 0x904 JUMP JUMPDEST PUSH1 0x40 MLOAD SWAP1 ISZERO ISZERO DUP2 MSTORE PUSH1 0x20 ADD PUSH2 0x2B6 JUMP JUMPDEST CALLVALUE DUP1 ISZERO PUSH2 0x2FB JUMPI PUSH1 0x0 DUP1 REVERT JUMPDEST POP PUSH2 0x30F PUSH2 0x30A CALLDATASIZE PUSH1 0x4 PUSH2 0x3C2E JUMP JUMPDEST PUSH2 0x954 JUMP JUMPDEST STOP JUMPDEST CALLVALUE DUP1 ISZERO PUSH2 0x31D JUMPI PUSH1 0x0 DUP1 REVERT JUMPDEST POP PUSH2 0x30F PUSH2 0x32C CALLDATASIZE PUSH1 0x4 PUSH2 0x3CBC JUMP JUMPDEST PUSH2 0xD3F JUMP JUMPDEST CALLVALUE DUP1 ISZERO PUSH2 0x33D JUMPI PUSH1 0x0 DUP1 REVERT JUMPDEST POP PUSH2 0x2DF PUSH2 0xD53 JUMP JUMPDEST CALLVALUE DUP1 ISZERO PUSH2 0x352 JUMPI PUSH1 0x0 DUP1 REVERT JUMPDEST POP PUSH2 0x30F PUSH2 0x361 CALLDATASIZE PUSH1 0x4 PUSH2 0x3E50 JUMP JUMPDEST PUSH2 0xD75 JUMP JUMPDEST CALLVALUE DUP1 ISZERO PUSH2 0x372 JUMPI PUSH1 0x0 DUP1 REVERT JUMPDEST POP PUSH2 0x386 PUSH2 0x381 CALLDATASIZE PUSH1 0x4 PUSH2 0x3E50 JUMP JUMPDEST PUSH2 0xD82 JUMP JUMPDEST PUSH1 0x40 MLOAD PUSH2 0x2B6 SWAP2 SWAP1 PUSH2 0x40D9 JUMP JUMPDEST PUSH2 0x30F PUSH2 0x3A1 CALLDATASIZE PUSH1 0x4 PUSH2 0x3D38 JUMP JUMPDEST PUSH2 0xD8D JUMP JUMPDEST CALLVALUE DUP1 ISZERO PUSH2 0x3B2 JUMPI PUSH1 0x0 DUP1 REVERT JUMPDEST POP PUSH2 0x30F PUSH2 0x3C1 CALLDATASIZE PUSH1 0x4 PUSH2 0x38EB JUMP JUMPDEST PUSH2 0x10D5 JUMP JUMPDEST CALLVALUE DUP1 ISZERO PUSH2 0x3D2 JUMPI PUSH1 0x0 DUP1 REVERT JUMPDEST POP PUSH2 0x30F PUSH2 0x3E1 CALLDATASIZE PUSH1 0x4 PUSH2 0x3E80 JUMP JUMPDEST PUSH2 0x10FF JUMP JUMPDEST CALLVALUE DUP1 ISZERO PUSH2 0x3F2 JUMPI PUSH1 0x0 DUP1 REVERT JUMPDEST POP PUSH2 0x2AC PUSH2 0x401 CALLDATASIZE PUSH1 0x4 PUSH2 0x3CBC JUMP JUMPDEST DUP1 MLOAD PUSH1 0x20 DUP2 DUP4 ADD DUP2 ADD DUP1 MLOAD PUSH1 0x12 DUP3 MSTORE SWAP3 DUP3 ADD SWAP2 SWAP1 SWAP4 ADD KECCAK256 SWAP2 MSTORE SLOAD DUP2 JUMP JUMPDEST CALLVALUE DUP1 ISZERO PUSH2 0x42A JUMPI PUSH1 0x0 DUP1 REVERT JUMPDEST POP PUSH2 0x30F PUSH2 0x439 CALLDATASIZE PUSH1 0x4 PUSH2 0x3E80 JUMP JUMPDEST PUSH2 0x1115 JUMP JUMPDEST CALLVALUE DUP1 ISZERO PUSH2 0x44A JUMPI PUSH1 0x0 DUP1 REVERT JUMPDEST POP PUSH1 0xB SLOAD PUSH2 0x2AC JUMP JUMPDEST CALLVALUE DUP1 ISZERO PUSH2 0x45F JUMPI PUSH1 0x0 DUP1 REVERT JUMPDEST POP PUSH2 0x30F PUSH2 0x46E CALLDATASIZE PUSH1 0x4 PUSH2 0x396A JUMP JUMPDEST PUSH2 0x148F JUMP JUMPDEST CALLVALUE DUP1 ISZERO PUSH2 0x47F JUMPI PUSH1 0x0 DUP1 REVERT JUMPDEST POP PUSH2 0x30F PUSH2 0x48E CALLDATASIZE PUSH1 0x4 PUSH2 0x3CBC JUMP JUMPDEST PUSH2 0x14ED JUMP JUMPDEST CALLVALUE DUP1 ISZERO PUSH2 0x49F JUMPI PUSH1 0x0 DUP1 REVERT JUMPDEST POP PUSH2 0x30F PUSH2 0x4AE CALLDATASIZE PUSH1 0x4 PUSH2 0x38EB JUMP JUMPDEST PUSH2 0x1508 JUMP JUMPDEST CALLVALUE DUP1 ISZERO PUSH2 0x4BF JUMPI PUSH1 0x0 DUP1 REVERT JUMPDEST POP PUSH2 0x386 PUSH2 0x1549 JUMP JUMPDEST CALLVALUE DUP1 ISZERO PUSH2 0x4D4 JUMPI PUSH1 0x0 DUP1 REVERT JUMPDEST POP PUSH2 0x30F PUSH2 0x15DB JUMP JUMPDEST CALLVALUE DUP1 ISZERO PUSH2 0x4E9 JUMPI PUSH1 0x0 DUP1 REVERT JUMPDEST POP PUSH2 0x30F PUSH2 0x4F8 CALLDATASIZE PUSH1 0x4 PUSH2 0x3E50 JUMP JUMPDEST PUSH2 0x15ED JUMP JUMPDEST CALLVALUE DUP1 ISZERO PUSH2 0x509 JUMPI PUSH1 0x0 DUP1 REVERT JUMPDEST POP PUSH2 0x51D PUSH2 0x518 CALLDATASIZE PUSH1 0x4 PUSH2 0x3B62 JUMP JUMPDEST PUSH2 0x15FA JUMP JUMPDEST PUSH1 0x40 MLOAD PUSH2 0x2B6 SWAP2 SWAP1 PUSH2 0x40A1 JUMP JUMPDEST CALLVALUE DUP1 ISZERO PUSH2 0x536 JUMPI PUSH1 0x0 DUP1 REVERT JUMPDEST POP PUSH2 0x2DF PUSH2 0x545 CALLDATASIZE PUSH1 0x4 PUSH2 0x3E50 JUMP JUMPDEST PUSH1 0x0 SWAP1 DUP2 MSTORE PUSH1 0x4 PUSH1 0x20 MSTORE PUSH1 0x40 SWAP1 KECCAK256 SLOAD ISZERO ISZERO SWAP1 JUMP JUMPDEST CALLVALUE DUP1 ISZERO PUSH2 0x565 JUMPI PUSH1 0x0 DUP1 REVERT JUMPDEST POP PUSH2 0x2AC PUSH2 0x574 CALLDATASIZE PUSH1 0x4 PUSH2 0x3CBC JUMP JUMPDEST DUP1 MLOAD PUSH1 0x20 DUP2 DUP4 ADD DUP2 ADD DUP1 MLOAD PUSH1 0x11 DUP3 MSTORE SWAP3 DUP3 ADD SWAP2 SWAP1 SWAP4 ADD KECCAK256 SWAP2 MSTORE SLOAD DUP2 JUMP JUMPDEST CALLVALUE DUP1 ISZERO PUSH2 0x59D JUMPI PUSH1 0x0 DUP1 REVERT JUMPDEST POP PUSH2 0x30F PUSH2 0x175B JUMP JUMPDEST CALLVALUE DUP1 ISZERO PUSH2 0x5B2 JUMPI PUSH1 0x0 DUP1 REVERT JUMPDEST POP PUSH2 0x30F PUSH2 0x5C1 CALLDATASIZE PUSH1 0x4 PUSH2 0x3CF6 JUMP JUMPDEST PUSH2 0x176F JUMP JUMPDEST CALLVALUE DUP1 ISZERO PUSH2 0x5D2 JUMPI PUSH1 0x0 DUP1 REVERT JUMPDEST POP PUSH1 0xA SLOAD PUSH2 0x2AC JUMP JUMPDEST CALLVALUE DUP1 ISZERO PUSH2 0x5E7 JUMPI PUSH1 0x0 DUP1 REVERT JUMPDEST POP PUSH1 0x3 SLOAD PUSH1 0x1 PUSH1 0xA0 SHL SWAP1 DIV PUSH1 0xFF AND PUSH2 0x2DF JUMP JUMPDEST CALLVALUE DUP1 ISZERO PUSH2 0x606 JUMPI PUSH1 0x0 DUP1 REVERT JUMPDEST POP PUSH2 0x30F PUSH2 0x615 CALLDATASIZE PUSH1 0x4 PUSH2 0x3A79 JUMP JUMPDEST PUSH2 0x17B3 JUMP JUMPDEST CALLVALUE DUP1 ISZERO PUSH2 0x626 JUMPI PUSH1 0x0 DUP1 REVERT JUMPDEST POP PUSH2 0x30F PUSH2 0x635 CALLDATASIZE PUSH1 0x4 PUSH2 0x38EB JUMP JUMPDEST PUSH2 0x180D JUMP JUMPDEST CALLVALUE DUP1 ISZERO PUSH2 0x646 JUMPI PUSH1 0x0 DUP1 REVERT JUMPDEST POP PUSH2 0x30F PUSH2 0x1837 JUMP JUMPDEST CALLVALUE DUP1 ISZERO PUSH2 0x65B JUMPI PUSH1 0x0 DUP1 REVERT JUMPDEST POP PUSH2 0x30F PUSH2 0x66A CALLDATASIZE PUSH1 0x4 PUSH2 0x3E50 JUMP JUMPDEST PUSH2 0x1849 JUMP JUMPDEST CALLVALUE DUP1 ISZERO PUSH2 0x67B JUMPI PUSH1 0x0 DUP1 REVERT JUMPDEST POP PUSH2 0x30F PUSH2 0x1856 JUMP JUMPDEST CALLVALUE DUP1 ISZERO PUSH2 0x690 JUMPI PUSH1 0x0 DUP1 REVERT JUMPDEST POP PUSH1 0x3 SLOAD PUSH1 0x1 PUSH1 0x1 PUSH1 0xA0 SHL SUB AND JUMPDEST PUSH1 0x40 MLOAD PUSH1 0x1 PUSH1 0x1 PUSH1 0xA0 SHL SUB SWAP1 SWAP2 AND DUP2 MSTORE PUSH1 0x20 ADD PUSH2 0x2B6 JUMP JUMPDEST CALLVALUE DUP1 ISZERO PUSH2 0x6C2 JUMPI PUSH1 0x0 DUP1 REVERT JUMPDEST POP PUSH1 0xE SLOAD PUSH1 0x1 PUSH1 0x1 PUSH1 0xA0 SHL SUB AND PUSH2 0x69E JUMP JUMPDEST CALLVALUE DUP1 ISZERO PUSH2 0x6E0 JUMPI PUSH1 0x0 DUP1 REVERT JUMPDEST POP PUSH1 0x9 SLOAD PUSH2 0x2AC JUMP JUMPDEST CALLVALUE DUP1 ISZERO PUSH2 0x6F5 JUMPI PUSH1 0x0 DUP1 REVERT JUMPDEST POP PUSH2 0x30F PUSH2 0x704 CALLDATASIZE PUSH1 0x4 PUSH2 0x38EB JUMP JUMPDEST PUSH2 0x1866 JUMP JUMPDEST CALLVALUE DUP1 ISZERO PUSH2 0x715 JUMPI PUSH1 0x0 DUP1 REVERT JUMPDEST POP PUSH2 0x30F PUSH2 0x724 CALLDATASIZE PUSH1 0x4 PUSH2 0x3AEB JUMP JUMPDEST PUSH2 0x1890 JUMP JUMPDEST PUSH2 0x30F PUSH2 0x737 CALLDATASIZE PUSH1 0x4 PUSH2 0x3D97 JUMP JUMPDEST PUSH2 0x18A2 JUMP JUMPDEST CALLVALUE DUP1 ISZERO PUSH2 0x748 JUMPI PUSH1 0x0 DUP1 REVERT JUMPDEST POP PUSH1 0xC SLOAD PUSH1 0xFF AND PUSH2 0x2DF JUMP JUMPDEST CALLVALUE DUP1 ISZERO PUSH2 0x760 JUMPI PUSH1 0x0 DUP1 REVERT JUMPDEST POP PUSH2 0x30F PUSH2 0x1C97 JUMP JUMPDEST CALLVALUE DUP1 ISZERO PUSH2 0x775 JUMPI PUSH1 0x0 DUP1 REVERT JUMPDEST POP PUSH2 0x30F PUSH2 0x784 CALLDATASIZE PUSH1 0x4 PUSH2 0x3907 JUMP JUMPDEST PUSH2 0x1CAE JUMP JUMPDEST CALLVALUE DUP1 ISZERO PUSH2 0x795 JUMPI PUSH1 0x0 DUP1 REVERT JUMPDEST POP PUSH1 0x8 SLOAD PUSH2 0x2AC JUMP JUMPDEST CALLVALUE DUP1 ISZERO PUSH2 0x7AA JUMPI PUSH1 0x0 DUP1 REVERT JUMPDEST POP PUSH2 0x2AC PUSH2 0x7B9 CALLDATASIZE PUSH1 0x4 PUSH2 0x3E50 JUMP JUMPDEST PUSH1 0x0 SWAP1 DUP2 MSTORE PUSH1 0x4 PUSH1 0x20 MSTORE PUSH1 0x40 SWAP1 KECCAK256 SLOAD SWAP1 JUMP JUMPDEST CALLVALUE DUP1 ISZERO PUSH2 0x7D7 JUMPI PUSH1 0x0 DUP1 REVERT JUMPDEST POP PUSH2 0x2AC PUSH2 0x7E6 CALLDATASIZE PUSH1 0x4 PUSH2 0x38EB JUMP JUMPDEST PUSH2 0x1CC0 JUMP JUMPDEST CALLVALUE DUP1 ISZERO PUSH2 0x7F7 JUMPI PUSH1 0x0 DUP1 REVERT JUMPDEST POP PUSH2 0x2DF PUSH2 0x806 CALLDATASIZE PUSH1 0x4 PUSH2 0x3932 JUMP JUMPDEST PUSH2 0x1D5E JUMP JUMPDEST CALLVALUE DUP1 ISZERO PUSH2 0x817 JUMPI PUSH1 0x0 DUP1 REVERT JUMPDEST POP PUSH2 0x30F PUSH2 0x826 CALLDATASIZE PUSH1 0x4 PUSH2 0x3A13 JUMP JUMPDEST PUSH2 0x1DB0 JUMP JUMPDEST CALLVALUE DUP1 ISZERO PUSH2 0x837 JUMPI PUSH1 0x0 DUP1 REVERT JUMPDEST POP PUSH2 0x30F PUSH2 0x846 CALLDATASIZE PUSH1 0x4 PUSH2 0x38EB JUMP JUMPDEST PUSH2 0x1E07 JUMP JUMPDEST CALLVALUE DUP1 ISZERO PUSH2 0x857 JUMPI PUSH1 0x0 DUP1 REVERT JUMPDEST POP PUSH2 0x30F PUSH2 0x866 CALLDATASIZE PUSH1 0x4 PUSH2 0x3B2E JUMP JUMPDEST PUSH2 0x1E7D JUMP JUMPDEST PUSH1 0x0 PUSH1 0x1 PUSH1 0x1 PUSH1 0xA0 SHL SUB DUP4 AND PUSH2 0x8DB JUMPI PUSH1 0x40 MLOAD PUSH3 0x461BCD PUSH1 0xE5 SHL DUP2 MSTORE PUSH1 0x20 PUSH1 0x4 DUP3 ADD MSTORE PUSH1 0x2A PUSH1 0x24 DUP3 ADD MSTORE PUSH32 0x455243313135353A2061646472657373207A65726F206973206E6F7420612076 PUSH1 0x44 DUP3 ADD MSTORE PUSH10 0x30B634B21037BBB732B9 PUSH1 0xB1 SHL PUSH1 0x64 DUP3 ADD MSTORE PUSH1 0x84 ADD JUMPDEST PUSH1 0x40 MLOAD DUP1 SWAP2 SUB SWAP1 REVERT JUMPDEST POP PUSH1 0x0 DUP2 DUP2 MSTORE PUSH1 0x20 DUP2 DUP2 MSTORE PUSH1 0x40 DUP1 DUP4 KECCAK256 PUSH1 0x1 PUSH1 0x1 PUSH1 0xA0 SHL SUB DUP7 AND DUP5 MSTORE SWAP1 SWAP2 MSTORE SWAP1 KECCAK256 SLOAD JUMPDEST SWAP3 SWAP2 POP POP JUMP JUMPDEST PUSH1 0x0 PUSH1 0x1 PUSH1 0x1 PUSH1 0xE0 SHL SUB NOT DUP3 AND PUSH4 0x6CDB3D13 PUSH1 0xE1 SHL EQ DUP1 PUSH2 0x935 JUMPI POP PUSH1 0x1 PUSH1 0x1 PUSH1 0xE0 SHL SUB NOT DUP3 AND PUSH4 0x3A24D07 PUSH1 0xE2 SHL EQ JUMPDEST DUP1 PUSH2 0x8FE JUMPI POP PUSH4 0x1FFC9A7 PUSH1 0xE0 SHL PUSH1 0x1 PUSH1 0x1 PUSH1 0xE0 SHL SUB NOT DUP4 AND EQ PUSH2 0x8FE JUMP JUMPDEST PUSH1 0x2 PUSH1 0x7 SLOAD EQ ISZERO PUSH2 0x977 JUMPI PUSH1 0x40 MLOAD PUSH3 0x461BCD PUSH1 0xE5 SHL DUP2 MSTORE PUSH1 0x4 ADD PUSH2 0x8D2 SWAP1 PUSH2 0x436D JUMP JUMPDEST PUSH1 0x2 PUSH1 0x7 SSTORE DUP2 MLOAD PUSH1 0x1 LT PUSH2 0x9CD JUMPI PUSH1 0x40 MLOAD PUSH3 0x461BCD PUSH1 0xE5 SHL DUP2 MSTORE PUSH1 0x20 PUSH1 0x4 DUP3 ADD MSTORE PUSH1 0x1B PUSH1 0x24 DUP3 ADD MSTORE PUSH32 0x43616E6E6F74206D657267652073696E676C6520656C656D656E740000000000 PUSH1 0x44 DUP3 ADD MSTORE PUSH1 0x64 ADD PUSH2 0x8D2 JUMP JUMPDEST PUSH1 0xB DUP3 MLOAD LT PUSH2 0xA29 JUMPI PUSH1 0x40 MLOAD PUSH3 0x461BCD PUSH1 0xE5 SHL DUP2 MSTORE PUSH1 0x20 PUSH1 0x4 DUP3 ADD MSTORE PUSH1 0x22 PUSH1 0x24 DUP3 ADD MSTORE PUSH32 0x43616E6E6F74206D65726765206D6F7265207468616E20313020656C656D656E PUSH1 0x44 DUP3 ADD MSTORE PUSH2 0x7473 PUSH1 0xF0 SHL PUSH1 0x64 DUP3 ADD MSTORE PUSH1 0x84 ADD PUSH2 0x8D2 JUMP JUMPDEST CALLER ORIGIN EQ PUSH2 0xA8C JUMPI PUSH1 0x40 MLOAD PUSH3 0x461BCD PUSH1 0xE5 SHL DUP2 MSTORE PUSH1 0x20 PUSH1 0x4 DUP3 ADD MSTORE PUSH1 0x2B PUSH1 0x24 DUP3 ADD MSTORE PUSH32 0x4D657267696E672066726F6D20736D61727420636F6E74726163747320697320 PUSH1 0x44 DUP3 ADD MSTORE PUSH11 0x1B9BDD08185B1B1BDDD959 PUSH1 0xAA SHL PUSH1 0x64 DUP3 ADD MSTORE PUSH1 0x84 ADD PUSH2 0x8D2 JUMP JUMPDEST PUSH1 0x0 DUP1 DUP4 MLOAD PUSH1 0x1 PUSH1 0x1 PUSH1 0x40 SHL SUB DUP2 GT ISZERO PUSH2 0xAB6 JUMPI PUSH4 0x4E487B71 PUSH1 0xE0 SHL PUSH1 0x0 MSTORE PUSH1 0x41 PUSH1 0x4 MSTORE PUSH1 0x24 PUSH1 0x0 REVERT JUMPDEST PUSH1 0x40 MLOAD SWAP1 DUP1 DUP3 MSTORE DUP1 PUSH1 0x20 MUL PUSH1 0x20 ADD DUP3 ADD PUSH1 0x40 MSTORE DUP1 ISZERO PUSH2 0xADF JUMPI DUP2 PUSH1 0x20 ADD PUSH1 0x20 DUP3 MUL DUP1 CALLDATASIZE DUP4 CALLDATACOPY ADD SWAP1 POP JUMPDEST POP SWAP1 POP PUSH1 0x0 JUMPDEST DUP5 MLOAD DUP2 LT ISZERO PUSH2 0xC7E JUMPI PUSH2 0x2710 DUP6 DUP3 DUP2 MLOAD DUP2 LT PUSH2 0xB11 JUMPI PUSH4 0x4E487B71 PUSH1 0xE0 SHL PUSH1 0x0 MSTORE PUSH1 0x32 PUSH1 0x4 MSTORE PUSH1 0x24 PUSH1 0x0 REVERT JUMPDEST PUSH1 0x20 MUL PUSH1 0x20 ADD ADD MLOAD LT PUSH2 0xB7E JUMPI PUSH1 0x40 MLOAD PUSH3 0x461BCD PUSH1 0xE5 SHL DUP2 MSTORE PUSH1 0x20 PUSH1 0x4 DUP3 ADD MSTORE PUSH1 0x2F PUSH1 0x24 DUP3 ADD MSTORE PUSH32 0x43616E6E6F74206D65726765207769746820656C656D656E7473207468617420 PUSH1 0x44 DUP3 ADD MSTORE PUSH15 0x1A1859081899595B881B595C99D959 PUSH1 0x8A SHL PUSH1 0x64 DUP3 ADD MSTORE PUSH1 0x84 ADD PUSH2 0x8D2 JUMP JUMPDEST PUSH1 0x0 DUP6 DUP3 DUP2 MLOAD DUP2 LT PUSH2 0xBA0 JUMPI PUSH4 0x4E487B71 PUSH1 0xE0 SHL PUSH1 0x0 MSTORE PUSH1 0x32 PUSH1 0x4 MSTORE PUSH1 0x24 PUSH1 0x0 REVERT JUMPDEST PUSH1 0x20 MUL PUSH1 0x20 ADD ADD MLOAD GT PUSH2 0xBF5 JUMPI PUSH1 0x40 MLOAD PUSH3 0x461BCD PUSH1 0xE5 SHL DUP2 MSTORE PUSH1 0x20 PUSH1 0x4 DUP3 ADD MSTORE PUSH1 0x1C PUSH1 0x24 DUP3 ADD MSTORE PUSH32 0x426173696320656C656D656E742069642063616E6E6F74206265203000000000 PUSH1 0x44 DUP3 ADD MSTORE PUSH1 0x64 ADD PUSH2 0x8D2 JUMP JUMPDEST PUSH2 0xC01 DUP2 PUSH2 0x2710 PUSH2 0x4436 JUMP JUMPDEST DUP6 DUP3 DUP2 MLOAD DUP2 LT PUSH2 0xC21 JUMPI PUSH4 0x4E487B71 PUSH1 0xE0 SHL PUSH1 0x0 MSTORE PUSH1 0x32 PUSH1 0x4 MSTORE PUSH1 0x24 PUSH1 0x0 REVERT JUMPDEST PUSH1 0x20 MUL PUSH1 0x20 ADD ADD MLOAD PUSH2 0xC33 SWAP2 SWAP1 PUSH2 0x44DE JUMP JUMPDEST PUSH2 0xC3D SWAP1 DUP5 PUSH2 0x43C7 JUMP JUMPDEST SWAP3 POP PUSH1 0x1 DUP3 DUP3 DUP2 MLOAD DUP2 LT PUSH2 0xC61 JUMPI PUSH4 0x4E487B71 PUSH1 0xE0 SHL PUSH1 0x0 MSTORE PUSH1 0x32 PUSH1 0x4 MSTORE PUSH1 0x24 PUSH1 0x0 REVERT JUMPDEST PUSH1 0x20 SWAP1 DUP2 MUL SWAP2 SWAP1 SWAP2 ADD ADD MSTORE DUP1 PUSH2 0xC76 DUP2 PUSH2 0x4590 JUMP JUMPDEST SWAP2 POP POP PUSH2 0xAE5 JUMP JUMPDEST POP PUSH2 0x2710 DUP3 GT PUSH2 0xCDC JUMPI PUSH1 0x40 MLOAD PUSH3 0x461BCD PUSH1 0xE5 SHL DUP2 MSTORE PUSH1 0x20 PUSH1 0x4 DUP3 ADD MSTORE PUSH1 0x24 DUP1 DUP3 ADD MSTORE PUSH32 0x4D65726765642069642063616E6E6F7420626520626173696320656C656D656E PUSH1 0x44 DUP3 ADD MSTORE PUSH4 0x1D081A59 PUSH1 0xE2 SHL PUSH1 0x64 DUP3 ADD MSTORE PUSH1 0x84 ADD PUSH2 0x8D2 JUMP JUMPDEST PUSH2 0xCE7 CALLER DUP6 DUP4 PUSH2 0x1F2E JUMP JUMPDEST PUSH2 0xCF4 CALLER DUP4 PUSH1 0x1 DUP7 PUSH2 0x20EF JUMP JUMPDEST PUSH1 0x40 DUP1 MLOAD CALLER DUP2 MSTORE PUSH1 0x20 DUP2 ADD DUP5 SWAP1 MSTORE PUSH1 0x1 DUP2 DUP4 ADD MSTORE SWAP1 MLOAD PUSH32 0xF09B8580F0DD326F61A39AD067BD70A1D6915C9C938ABCBFF08D6C5F844CB310 SWAP2 DUP2 SWAP1 SUB PUSH1 0x60 ADD SWAP1 LOG1 POP POP PUSH1 0x1 PUSH1 0x7 SSTORE POP POP JUMP JUMPDEST PUSH2 0xD47 PUSH2 0x21E3 JUMP JUMPDEST PUSH2 0xD50 DUP2 PUSH2 0x225C JUMP JUMPDEST POP JUMP JUMPDEST PUSH1 0x0 PUSH1 0xA SLOAD PUSH2 0xD61 PUSH1 0xB SLOAD SWAP1 JUMP JUMPDEST LT PUSH2 0xD6C JUMPI POP PUSH1 0x1 SWAP1 JUMP JUMPDEST POP PUSH1 0x0 SWAP1 JUMP JUMPDEST SWAP1 JUMP JUMPDEST PUSH2 0xD7D PUSH2 0x21E3 JUMP JUMPDEST PUSH1 0x9 SSTORE JUMP JUMPDEST PUSH1 0x60 PUSH2 0x8FE DUP3 PUSH2 0x226F JUMP JUMPDEST PUSH1 0x2 PUSH1 0x7 SLOAD EQ ISZERO PUSH2 0xDB0 JUMPI PUSH1 0x40 MLOAD PUSH3 0x461BCD PUSH1 0xE5 SHL DUP2 MSTORE PUSH1 0x4 ADD PUSH2 0x8D2 SWAP1 PUSH2 0x436D JUMP JUMPDEST PUSH1 0x2 PUSH1 0x7 SSTORE PUSH1 0xC SLOAD PUSH1 0xFF AND DUP1 PUSH2 0xDD0 JUMPI POP PUSH1 0x3 SLOAD PUSH1 0x1 PUSH1 0x1 PUSH1 0xA0 SHL SUB AND CALLER EQ JUMPDEST PUSH2 0xE1C JUMPI PUSH1 0x40 MLOAD PUSH3 0x461BCD PUSH1 0xE5 SHL DUP2 MSTORE PUSH1 0x20 PUSH1 0x4 DUP3 ADD MSTORE PUSH1 0x1A PUSH1 0x24 DUP3 ADD MSTORE PUSH32 0x5075626C69632073616C65206861736E27742073746172746564000000000000 PUSH1 0x44 DUP3 ADD MSTORE PUSH1 0x64 ADD PUSH2 0x8D2 JUMP JUMPDEST CALLER ORIGIN EQ PUSH2 0xE3B JUMPI PUSH1 0x40 MLOAD PUSH3 0x461BCD PUSH1 0xE5 SHL DUP2 MSTORE PUSH1 0x4 ADD PUSH2 0x8D2 SWAP1 PUSH2 0x4299 JUMP JUMPDEST PUSH1 0x9 SLOAD PUSH1 0x8 SLOAD PUSH2 0xE4B SWAP2 SWAP1 PUSH2 0x44DE JUMP JUMPDEST CALLVALUE EQ PUSH2 0xE93 JUMPI PUSH1 0x40 MLOAD PUSH3 0x461BCD PUSH1 0xE5 SHL DUP2 MSTORE PUSH1 0x20 PUSH1 0x4 DUP3 ADD MSTORE PUSH1 0x17 PUSH1 0x24 DUP3 ADD MSTORE PUSH23 0x24B731B7B93932B1BA1022BA3432B91030B6B7BAB73A17 PUSH1 0x49 SHL PUSH1 0x44 DUP3 ADD MSTORE PUSH1 0x64 ADD PUSH2 0x8D2 JUMP JUMPDEST PUSH1 0x1 PUSH1 0x12 DUP5 PUSH1 0x40 MLOAD PUSH2 0xEA5 SWAP2 SWAP1 PUSH2 0x3F3C JUMP JUMPDEST SWAP1 DUP2 MSTORE PUSH1 0x20 ADD PUSH1 0x40 MLOAD DUP1 SWAP2 SUB SWAP1 KECCAK256 SLOAD PUSH1 0x1 PUSH2 0xEC0 SWAP2 SWAP1 PUSH2 0x43C7 JUMP JUMPDEST GT ISZERO PUSH2 0xF0E JUMPI PUSH1 0x40 MLOAD PUSH3 0x461BCD PUSH1 0xE5 SHL DUP2 MSTORE PUSH1 0x20 PUSH1 0x4 DUP3 ADD MSTORE PUSH1 0x1B PUSH1 0x24 DUP3 ADD MSTORE PUSH32 0x52616E646F6D206E756D62657220616C726561647920757365642E0000000000 PUSH1 0x44 DUP3 ADD MSTORE PUSH1 0x64 ADD PUSH2 0x8D2 JUMP JUMPDEST PUSH1 0x0 DUP3 GT PUSH2 0xF4F JUMPI PUSH1 0x40 MLOAD PUSH3 0x461BCD PUSH1 0xE5 SHL DUP2 MSTORE PUSH1 0x20 PUSH1 0x4 DUP3 ADD MSTORE PUSH1 0xE PUSH1 0x24 DUP3 ADD MSTORE PUSH14 0x49642063616E6E6F74206265203 PUSH1 0x94 SHL PUSH1 0x44 DUP3 ADD MSTORE PUSH1 0x64 ADD PUSH2 0x8D2 JUMP JUMPDEST PUSH1 0x10 SLOAD PUSH1 0x1 PUSH1 0x1 PUSH1 0xA0 SHL SUB AND PUSH2 0xF67 DUP5 DUP5 CALLER DUP6 PUSH2 0x234E JUMP JUMPDEST PUSH1 0x1 PUSH1 0x1 PUSH1 0xA0 SHL SUB AND EQ PUSH2 0xFB5 JUMPI PUSH1 0x40 MLOAD PUSH3 0x461BCD PUSH1 0xE5 SHL DUP2 MSTORE PUSH1 0x20 PUSH1 0x4 DUP3 ADD MSTORE PUSH1 0x15 PUSH1 0x24 DUP3 ADD MSTORE PUSH21 0x14985B991BDB481B9D5B58995C881A5B9D985B1A59 PUSH1 0x5A SHL PUSH1 0x44 DUP3 ADD MSTORE PUSH1 0x64 ADD PUSH2 0x8D2 JUMP JUMPDEST PUSH1 0xA SLOAD PUSH1 0xB SLOAD PUSH2 0xFC6 SWAP1 PUSH1 0x1 PUSH2 0x43C7 JUMP JUMPDEST GT ISZERO DUP1 PUSH2 0xFDD JUMPI POP PUSH1 0x3 SLOAD PUSH1 0x1 PUSH1 0x1 PUSH1 0xA0 SHL SUB AND CALLER EQ JUMPDEST PUSH2 0x1014 JUMPI PUSH1 0x40 MLOAD PUSH3 0x461BCD PUSH1 0xE5 SHL DUP2 MSTORE PUSH1 0x20 PUSH1 0x4 DUP3 ADD MSTORE PUSH1 0x8 PUSH1 0x24 DUP3 ADD MSTORE PUSH8 0x1CDBDB19081BDD5D PUSH1 0xC2 SHL PUSH1 0x44 DUP3 ADD MSTORE PUSH1 0x64 ADD PUSH2 0x8D2 JUMP JUMPDEST PUSH2 0x103D CALLER DUP4 PUSH1 0x1 PUSH1 0x40 MLOAD DUP1 PUSH1 0x40 ADD PUSH1 0x40 MSTORE DUP1 PUSH1 0x4 DUP2 MSTORE PUSH1 0x20 ADD PUSH4 0x3078303 PUSH1 0xE4 SHL DUP2 MSTORE POP PUSH2 0x20EF JUMP JUMPDEST PUSH1 0x40 DUP1 MLOAD CALLER DUP2 MSTORE PUSH1 0x20 DUP2 ADD DUP5 SWAP1 MSTORE PUSH1 0x1 DUP2 DUP4 ADD MSTORE SWAP1 MLOAD PUSH32 0x25B428DFDE728CCFADDAD7E29E4AC23C24ED7FD1A6E3E3F91894A9A073F5DFFF SWAP2 DUP2 SWAP1 SUB PUSH1 0x60 ADD SWAP1 LOG1 PUSH1 0x1 PUSH1 0x12 DUP5 PUSH1 0x40 MLOAD PUSH2 0x108F SWAP2 SWAP1 PUSH2 0x3F3C JUMP JUMPDEST SWAP1 DUP2 MSTORE PUSH1 0x20 ADD PUSH1 0x40 MLOAD DUP1 SWAP2 SUB SWAP1 KECCAK256 PUSH1 0x0 DUP3 DUP3 SLOAD PUSH2 0x10AC SWAP2 SWAP1 PUSH2 0x43C7 JUMP JUMPDEST SWAP3 POP POP DUP2 SWAP1 SSTORE POP PUSH1 0x1 PUSH1 0xB PUSH1 0x0 DUP3 DUP3 SLOAD PUSH2 0x10C6 SWAP2 SWAP1 PUSH2 0x43C7 JUMP JUMPDEST SWAP1 SWAP2 SSTORE POP POP PUSH1 0x1 PUSH1 0x7 SSTORE POP POP POP JUMP JUMPDEST PUSH2 0x10DD PUSH2 0x21E3 JUMP JUMPDEST PUSH1 0x10 DUP1 SLOAD PUSH1 0x1 PUSH1 0x1 PUSH1 0xA0 SHL SUB NOT AND PUSH1 0x1 PUSH1 0x1 PUSH1 0xA0 SHL SUB SWAP3 SWAP1 SWAP3 AND SWAP2 SWAP1 SWAP2 OR SWAP1 SSTORE JUMP JUMPDEST PUSH2 0x1107 PUSH2 0x21E3 JUMP JUMPDEST PUSH2 0x1111 DUP3 DUP3 PUSH2 0x23E2 JUMP JUMPDEST POP POP JUMP JUMPDEST PUSH1 0x2 PUSH1 0x7 SLOAD EQ ISZERO PUSH2 0x1138 JUMPI PUSH1 0x40 MLOAD PUSH3 0x461BCD PUSH1 0xE5 SHL DUP2 MSTORE PUSH1 0x4 ADD PUSH2 0x8D2 SWAP1 PUSH2 0x436D JUMP JUMPDEST PUSH1 0x2 PUSH1 0x7 SSTORE PUSH2 0x2710 DUP3 GT PUSH2 0x118E JUMPI PUSH1 0x40 MLOAD PUSH3 0x461BCD PUSH1 0xE5 SHL DUP2 MSTORE PUSH1 0x20 PUSH1 0x4 DUP3 ADD MSTORE PUSH1 0x1A PUSH1 0x24 DUP3 ADD MSTORE PUSH32 0x43616E6E6F742073706C697420626173696320656C656D656E74000000000000 PUSH1 0x44 DUP3 ADD MSTORE PUSH1 0x64 ADD PUSH2 0x8D2 JUMP JUMPDEST CALLER ORIGIN EQ PUSH2 0x11F2 JUMPI PUSH1 0x40 MLOAD PUSH3 0x461BCD PUSH1 0xE5 SHL DUP2 MSTORE PUSH1 0x20 PUSH1 0x4 DUP3 ADD MSTORE PUSH1 0x2C PUSH1 0x24 DUP3 ADD MSTORE PUSH32 0x53706C6974696E672066726F6D20736D61727420636F6E747261637473206973 PUSH1 0x44 DUP3 ADD MSTORE PUSH12 0x81B9BDD08185B1B1BDDD959 PUSH1 0xA2 SHL PUSH1 0x64 DUP3 ADD MSTORE PUSH1 0x84 ADD PUSH2 0x8D2 JUMP JUMPDEST DUP2 PUSH1 0x0 DUP2 JUMPDEST DUP1 ISZERO PUSH2 0x121D JUMPI PUSH2 0x1209 PUSH2 0x2710 DUP3 PUSH2 0x43DF JUMP JUMPDEST SWAP1 POP DUP2 PUSH2 0x1215 DUP2 PUSH2 0x4590 JUMP JUMPDEST SWAP3 POP POP PUSH2 0x11F7 JUMP JUMPDEST PUSH1 0xB DUP3 LT PUSH2 0x1280 JUMPI PUSH1 0x40 MLOAD PUSH3 0x461BCD PUSH1 0xE5 SHL DUP2 MSTORE PUSH1 0x20 PUSH1 0x4 DUP3 ADD MSTORE PUSH1 0x2A PUSH1 0x24 DUP3 ADD MSTORE PUSH32 0x43616E6E6F742062652073706C697420696E746F206D6F7265207468616E2031 PUSH1 0x44 DUP3 ADD MSTORE PUSH10 0x3020656C656D656E7473 PUSH1 0xB0 SHL PUSH1 0x64 DUP3 ADD MSTORE PUSH1 0x84 ADD PUSH2 0x8D2 JUMP JUMPDEST PUSH2 0x128C CALLER DUP7 PUSH1 0x1 PUSH2 0x243A JUMP JUMPDEST PUSH1 0x0 DUP3 PUSH1 0x1 PUSH1 0x1 PUSH1 0x40 SHL SUB DUP2 GT ISZERO PUSH2 0x12B4 JUMPI PUSH4 0x4E487B71 PUSH1 0xE0 SHL PUSH1 0x0 MSTORE PUSH1 0x41 PUSH1 0x4 MSTORE PUSH1 0x24 PUSH1 0x0 REVERT JUMPDEST PUSH1 0x40 MLOAD SWAP1 DUP1 DUP3 MSTORE DUP1 PUSH1 0x20 MUL PUSH1 0x20 ADD DUP3 ADD PUSH1 0x40 MSTORE DUP1 ISZERO PUSH2 0x12DD JUMPI DUP2 PUSH1 0x20 ADD PUSH1 0x20 DUP3 MUL DUP1 CALLDATASIZE DUP4 CALLDATACOPY ADD SWAP1 POP JUMPDEST POP SWAP1 POP PUSH1 0x0 DUP4 PUSH1 0x1 PUSH1 0x1 PUSH1 0x40 SHL SUB DUP2 GT ISZERO PUSH2 0x1308 JUMPI PUSH4 0x4E487B71 PUSH1 0xE0 SHL PUSH1 0x0 MSTORE PUSH1 0x41 PUSH1 0x4 MSTORE PUSH1 0x24 PUSH1 0x0 REVERT JUMPDEST PUSH1 0x40 MLOAD SWAP1 DUP1 DUP3 MSTORE DUP1 PUSH1 0x20 MUL PUSH1 0x20 ADD DUP3 ADD PUSH1 0x40 MSTORE DUP1 ISZERO PUSH2 0x1331 JUMPI DUP2 PUSH1 0x20 ADD PUSH1 0x20 DUP3 MUL DUP1 CALLDATASIZE DUP4 CALLDATACOPY ADD SWAP1 POP JUMPDEST POP SWAP1 POP PUSH1 0x0 JUMPDEST DUP5 DUP2 LT ISZERO PUSH2 0x143B JUMPI PUSH2 0x134B PUSH2 0x2710 DUP10 PUSH2 0x45AB JUMP JUMPDEST DUP4 DUP3 DUP2 MLOAD DUP2 LT PUSH2 0x136B JUMPI PUSH4 0x4E487B71 PUSH1 0xE0 SHL PUSH1 0x0 MSTORE PUSH1 0x32 PUSH1 0x4 MSTORE PUSH1 0x24 PUSH1 0x0 REVERT JUMPDEST PUSH1 0x20 MUL PUSH1 0x20 ADD ADD DUP2 DUP2 MSTORE POP POP PUSH1 0x0 DUP4 DUP3 DUP2 MLOAD DUP2 LT PUSH2 0x1399 JUMPI PUSH4 0x4E487B71 PUSH1 0xE0 SHL PUSH1 0x0 MSTORE PUSH1 0x32 PUSH1 0x4 MSTORE PUSH1 0x24 PUSH1 0x0 REVERT JUMPDEST PUSH1 0x20 MUL PUSH1 0x20 ADD ADD MLOAD GT PUSH2 0x13EE JUMPI PUSH1 0x40 MLOAD PUSH3 0x461BCD PUSH1 0xE5 SHL DUP2 MSTORE PUSH1 0x20 PUSH1 0x4 DUP3 ADD MSTORE PUSH1 0x1C PUSH1 0x24 DUP3 ADD MSTORE PUSH32 0x426173696320656C656D656E742069642063616E6E6F74206265203000000000 PUSH1 0x44 DUP3 ADD MSTORE PUSH1 0x64 ADD PUSH2 0x8D2 JUMP JUMPDEST PUSH1 0x1 DUP3 DUP3 DUP2 MLOAD DUP2 LT PUSH2 0x1410 JUMPI PUSH4 0x4E487B71 PUSH1 0xE0 SHL PUSH1 0x0 MSTORE PUSH1 0x32 PUSH1 0x4 MSTORE PUSH1 0x24 PUSH1 0x0 REVERT JUMPDEST PUSH1 0x20 SWAP1 DUP2 MUL SWAP2 SWAP1 SWAP2 ADD ADD MSTORE PUSH2 0x1427 PUSH2 0x2710 DUP10 PUSH2 0x43DF JUMP JUMPDEST SWAP8 POP DUP1 PUSH2 0x1433 DUP2 PUSH2 0x4590 JUMP JUMPDEST SWAP2 POP POP PUSH2 0x1337 JUMP JUMPDEST POP PUSH2 0x1448 CALLER DUP4 DUP4 DUP10 PUSH2 0x255D JUMP JUMPDEST PUSH1 0x40 DUP1 MLOAD CALLER DUP2 MSTORE PUSH1 0x20 DUP2 ADD DUP8 SWAP1 MSTORE PUSH32 0xE1665329182BC1DAB50C9B04EA6BD37107B73ED7C585951D808B02CD9B659627 SWAP2 ADD PUSH1 0x40 MLOAD DUP1 SWAP2 SUB SWAP1 LOG1 POP POP PUSH1 0x1 PUSH1 0x7 SSTORE POP POP POP POP POP JUMP JUMPDEST PUSH2 0x1497 PUSH2 0x26DE JUMP JUMPDEST PUSH1 0x1 PUSH1 0x1 PUSH1 0xA0 SHL SUB AND DUP6 PUSH1 0x1 PUSH1 0x1 PUSH1 0xA0 SHL SUB AND EQ DUP1 PUSH2 0x14BD JUMPI POP PUSH2 0x14BD DUP6 PUSH2 0x806 PUSH2 0x26DE JUMP JUMPDEST PUSH2 0x14D9 JUMPI PUSH1 0x40 MLOAD PUSH3 0x461BCD PUSH1 0xE5 SHL DUP2 MSTORE PUSH1 0x4 ADD PUSH2 0x8D2 SWAP1 PUSH2 0x40EC JUMP JUMPDEST PUSH2 0x14E6 DUP6 DUP6 DUP6 DUP6 DUP6 PUSH2 0x26ED JUMP JUMPDEST POP POP POP POP POP JUMP JUMPDEST PUSH2 0x14F5 PUSH2 0x21E3 JUMP JUMPDEST DUP1 MLOAD PUSH2 0x1111 SWAP1 PUSH1 0xD SWAP1 PUSH1 0x20 DUP5 ADD SWAP1 PUSH2 0x3770 JUMP JUMPDEST PUSH2 0x1510 PUSH2 0x21E3 JUMP JUMPDEST PUSH1 0x2 PUSH1 0x7 SLOAD EQ ISZERO PUSH2 0x1533 JUMPI PUSH1 0x40 MLOAD PUSH3 0x461BCD PUSH1 0xE5 SHL DUP2 MSTORE PUSH1 0x4 ADD PUSH2 0x8D2 SWAP1 PUSH2 0x436D JUMP JUMPDEST PUSH1 0x2 PUSH1 0x7 SSTORE PUSH2 0x1541 DUP2 PUSH2 0x28BE JUMP JUMPDEST POP PUSH1 0x1 PUSH1 0x7 SSTORE JUMP JUMPDEST PUSH1 0x60 PUSH1 0xD DUP1 SLOAD PUSH2 0x1558 SWAP1 PUSH2 0x4529 JUMP JUMPDEST DUP1 PUSH1 0x1F ADD PUSH1 0x20 DUP1 SWAP2 DIV MUL PUSH1 0x20 ADD PUSH1 0x40 MLOAD SWAP1 DUP2 ADD PUSH1 0x40 MSTORE DUP1 SWAP3 SWAP2 SWAP1 DUP2 DUP2 MSTORE PUSH1 0x20 ADD DUP3 DUP1 SLOAD PUSH2 0x1584 SWAP1 PUSH2 0x4529 JUMP JUMPDEST DUP1 ISZERO PUSH2 0x15D1 JUMPI DUP1 PUSH1 0x1F LT PUSH2 0x15A6 JUMPI PUSH2 0x100 DUP1 DUP4 SLOAD DIV MUL DUP4 MSTORE SWAP2 PUSH1 0x20 ADD SWAP2 PUSH2 0x15D1 JUMP JUMPDEST DUP3 ADD SWAP2 SWAP1 PUSH1 0x0 MSTORE PUSH1 0x20 PUSH1 0x0 KECCAK256 SWAP1 JUMPDEST DUP2 SLOAD DUP2 MSTORE SWAP1 PUSH1 0x1 ADD SWAP1 PUSH1 0x20 ADD DUP1 DUP4 GT PUSH2 0x15B4 JUMPI DUP3 SWAP1 SUB PUSH1 0x1F AND DUP3 ADD SWAP2 JUMPDEST POP POP POP POP POP SWAP1 POP SWAP1 JUMP JUMPDEST PUSH2 0x15E3 PUSH2 0x21E3 JUMP JUMPDEST PUSH2 0x15EB PUSH2 0x2935 JUMP JUMPDEST JUMP JUMPDEST PUSH2 0x15F5 PUSH2 0x21E3 JUMP JUMPDEST PUSH1 0x8 SSTORE JUMP JUMPDEST PUSH1 0x60 DUP2 MLOAD DUP4 MLOAD EQ PUSH2 0x165F JUMPI PUSH1 0x40 MLOAD PUSH3 0x461BCD PUSH1 0xE5 SHL DUP2 MSTORE PUSH1 0x20 PUSH1 0x4 DUP3 ADD MSTORE PUSH1 0x29 PUSH1 0x24 DUP3 ADD MSTORE PUSH32 0x455243313135353A206163636F756E747320616E6420696473206C656E677468 PUSH1 0x44 DUP3 ADD MSTORE PUSH9 0x40DAD2E6DAC2E8C6D PUSH1 0xBB SHL PUSH1 0x64 DUP3 ADD MSTORE PUSH1 0x84 ADD PUSH2 0x8D2 JUMP JUMPDEST PUSH1 0x0 DUP4 MLOAD PUSH1 0x1 PUSH1 0x1 PUSH1 0x40 SHL SUB DUP2 GT ISZERO PUSH2 0x1688 JUMPI PUSH4 0x4E487B71 PUSH1 0xE0 SHL PUSH1 0x0 MSTORE PUSH1 0x41 PUSH1 0x4 MSTORE PUSH1 0x24 PUSH1 0x0 REVERT JUMPDEST PUSH1 0x40 MLOAD SWAP1 DUP1 DUP3 MSTORE DUP1 PUSH1 0x20 MUL PUSH1 0x20 ADD DUP3 ADD PUSH1 0x40 MSTORE DUP1 ISZERO PUSH2 0x16B1 JUMPI DUP2 PUSH1 0x20 ADD PUSH1 0x20 DUP3 MUL DUP1 CALLDATASIZE DUP4 CALLDATACOPY ADD SWAP1 POP JUMPDEST POP SWAP1 POP PUSH1 0x0 JUMPDEST DUP5 MLOAD DUP2 LT ISZERO PUSH2 0x1753 JUMPI PUSH2 0x1718 DUP6 DUP3 DUP2 MLOAD DUP2 LT PUSH2 0x16E3 JUMPI PUSH4 0x4E487B71 PUSH1 0xE0 SHL PUSH1 0x0 MSTORE PUSH1 0x32 PUSH1 0x4 MSTORE PUSH1 0x24 PUSH1 0x0 REVERT JUMPDEST PUSH1 0x20 MUL PUSH1 0x20 ADD ADD MLOAD DUP6 DUP4 DUP2 MLOAD DUP2 LT PUSH2 0x170B JUMPI PUSH4 0x4E487B71 PUSH1 0xE0 SHL PUSH1 0x0 MSTORE PUSH1 0x32 PUSH1 0x4 MSTORE PUSH1 0x24 PUSH1 0x0 REVERT JUMPDEST PUSH1 0x20 MUL PUSH1 0x20 ADD ADD MLOAD PUSH2 0x86B JUMP JUMPDEST DUP3 DUP3 DUP2 MLOAD DUP2 LT PUSH2 0x1738 JUMPI PUSH4 0x4E487B71 PUSH1 0xE0 SHL PUSH1 0x0 MSTORE PUSH1 0x32 PUSH1 0x4 MSTORE PUSH1 0x24 PUSH1 0x0 REVERT JUMPDEST PUSH1 0x20 SWAP1 DUP2 MUL SWAP2 SWAP1 SWAP2 ADD ADD MSTORE PUSH2 0x174C DUP2 PUSH2 0x4590 JUMP JUMPDEST SWAP1 POP PUSH2 0x16B7 JUMP JUMPDEST POP SWAP4 SWAP3 POP POP POP JUMP JUMPDEST PUSH2 0x1763 PUSH2 0x21E3 JUMP JUMPDEST PUSH1 0xC DUP1 SLOAD PUSH1 0xFF NOT AND SWAP1 SSTORE JUMP JUMPDEST PUSH2 0x1777 PUSH2 0x21E3 JUMP JUMPDEST DUP1 PUSH32 0xA109BA539900BF1B633F956D63C96FC89B814C7287F7AA50A9216D0B55657207 DUP4 PUSH1 0x40 MLOAD PUSH2 0x17A7 SWAP2 SWAP1 PUSH2 0x40D9 JUMP JUMPDEST PUSH1 0x40 MLOAD DUP1 SWAP2 SUB SWAP1 LOG2 POP POP JUMP JUMPDEST PUSH2 0x17BB PUSH2 0x26DE JUMP JUMPDEST PUSH1 0x1 PUSH1 0x1 PUSH1 0xA0 SHL SUB AND DUP4 PUSH1 0x1 PUSH1 0x1 PUSH1 0xA0 SHL SUB AND EQ DUP1 PUSH2 0x17E1 JUMPI POP PUSH2 0x17E1 DUP4 PUSH2 0x806 PUSH2 0x26DE JUMP JUMPDEST PUSH2 0x17FD JUMPI PUSH1 0x40 MLOAD PUSH3 0x461BCD PUSH1 0xE5 SHL DUP2 MSTORE PUSH1 0x4 ADD PUSH2 0x8D2 SWAP1 PUSH2 0x40EC JUMP JUMPDEST PUSH2 0x1808 DUP4 DUP4 DUP4 PUSH2 0x1F2E JUMP JUMPDEST POP POP POP JUMP JUMPDEST PUSH2 0x1815 PUSH2 0x21E3 JUMP JUMPDEST PUSH1 0xF DUP1 SLOAD PUSH1 0x1 PUSH1 0x1 PUSH1 0xA0 SHL SUB NOT AND PUSH1 0x1 PUSH1 0x1 PUSH1 0xA0 SHL SUB SWAP3 SWAP1 SWAP3 AND SWAP2 SWAP1 SWAP2 OR SWAP1 SSTORE JUMP JUMPDEST PUSH2 0x183F PUSH2 0x21E3 JUMP JUMPDEST PUSH2 0x15EB PUSH1 0x0 PUSH2 0x2990 JUMP JUMPDEST PUSH2 0x1851 PUSH2 0x21E3 JUMP JUMPDEST PUSH1 0xA SSTORE JUMP JUMPDEST PUSH2 0x185E PUSH2 0x21E3 JUMP JUMPDEST PUSH2 0x15EB PUSH2 0x29E2 JUMP JUMPDEST PUSH2 0x186E PUSH2 0x21E3 JUMP JUMPDEST PUSH1 0xE DUP1 SLOAD PUSH1 0x1 PUSH1 0x1 PUSH1 0xA0 SHL SUB NOT AND PUSH1 0x1 PUSH1 0x1 PUSH1 0xA0 SHL SUB SWAP3 SWAP1 SWAP3 AND SWAP2 SWAP1 SWAP2 OR SWAP1 SSTORE JUMP JUMPDEST PUSH2 0x1111 PUSH2 0x189B PUSH2 0x26DE JUMP JUMPDEST DUP4 DUP4 PUSH2 0x2A26 JUMP JUMPDEST PUSH1 0x2 PUSH1 0x7 SLOAD EQ ISZERO PUSH2 0x18C5 JUMPI PUSH1 0x40 MLOAD PUSH3 0x461BCD PUSH1 0xE5 SHL DUP2 MSTORE PUSH1 0x4 ADD PUSH2 0x8D2 SWAP1 PUSH2 0x436D JUMP JUMPDEST PUSH1 0x2 PUSH1 0x7 SSTORE CALLER ORIGIN EQ PUSH2 0x18E9 JUMPI PUSH1 0x40 MLOAD PUSH3 0x461BCD PUSH1 0xE5 SHL DUP2 MSTORE PUSH1 0x4 ADD PUSH2 0x8D2 SWAP1 PUSH2 0x4299 JUMP JUMPDEST PUSH1 0x8 SLOAD CALLVALUE EQ PUSH2 0x1934 JUMPI PUSH1 0x40 MLOAD PUSH3 0x461BCD PUSH1 0xE5 SHL DUP2 MSTORE PUSH1 0x20 PUSH1 0x4 DUP3 ADD MSTORE PUSH1 0x17 PUSH1 0x24 DUP3 ADD MSTORE PUSH23 0x24B731B7B93932B1BA1022BA3432B91030B6B7BAB73A17 PUSH1 0x49 SHL PUSH1 0x44 DUP3 ADD MSTORE PUSH1 0x64 ADD PUSH2 0x8D2 JUMP JUMPDEST PUSH1 0x11 DUP7 PUSH1 0x40 MLOAD PUSH2 0x1944 SWAP2 SWAP1 PUSH2 0x3F3C JUMP JUMPDEST SWAP1 DUP2 MSTORE PUSH1 0x20 ADD PUSH1 0x40 MLOAD DUP1 SWAP2 SUB SWAP1 KECCAK256 SLOAD PUSH1 0x1 PUSH2 0x195F SWAP2 SWAP1 PUSH2 0x43C7 JUMP JUMPDEST DUP6 LT ISZERO PUSH2 0x19AE JUMPI PUSH1 0x40 MLOAD PUSH3 0x461BCD PUSH1 0xE5 SHL DUP2 MSTORE PUSH1 0x20 PUSH1 0x4 DUP3 ADD MSTORE PUSH1 0x19 PUSH1 0x24 DUP3 ADD MSTORE PUSH32 0x57686974656C697374206C696D69742065786365656465642E00000000000000 PUSH1 0x44 DUP3 ADD MSTORE PUSH1 0x64 ADD PUSH2 0x8D2 JUMP JUMPDEST PUSH1 0x1 PUSH1 0x12 DUP5 PUSH1 0x40 MLOAD PUSH2 0x19C0 SWAP2 SWAP1 PUSH2 0x3F3C JUMP JUMPDEST SWAP1 DUP2 MSTORE PUSH1 0x20 ADD PUSH1 0x40 MLOAD DUP1 SWAP2 SUB SWAP1 KECCAK256 SLOAD PUSH1 0x1 PUSH2 0x19DB SWAP2 SWAP1 PUSH2 0x43C7 JUMP JUMPDEST GT ISZERO PUSH2 0x1A29 JUMPI PUSH1 0x40 MLOAD PUSH3 0x461BCD PUSH1 0xE5 SHL DUP2 MSTORE PUSH1 0x20 PUSH1 0x4 DUP3 ADD MSTORE PUSH1 0x1B PUSH1 0x24 DUP3 ADD MSTORE PUSH32 0x52616E646F6D206E756D62657220616C726561647920757365642E0000000000 PUSH1 0x44 DUP3 ADD MSTORE PUSH1 0x64 ADD PUSH2 0x8D2 JUMP JUMPDEST PUSH1 0x0 DUP3 GT PUSH2 0x1A6A JUMPI PUSH1 0x40 MLOAD PUSH3 0x461BCD PUSH1 0xE5 SHL DUP2 MSTORE PUSH1 0x20 PUSH1 0x4 DUP3 ADD MSTORE PUSH1 0xE PUSH1 0x24 DUP3 ADD MSTORE PUSH14 0x49642063616E6E6F74206265203 PUSH1 0x94 SHL PUSH1 0x44 DUP3 ADD MSTORE PUSH1 0x64 ADD PUSH2 0x8D2 JUMP JUMPDEST PUSH1 0xF SLOAD PUSH1 0x1 PUSH1 0x1 PUSH1 0xA0 SHL SUB AND PUSH2 0x1A82 DUP8 DUP8 CALLER DUP9 PUSH2 0x234E JUMP JUMPDEST PUSH1 0x1 PUSH1 0x1 PUSH1 0xA0 SHL SUB AND EQ PUSH2 0x1AD8 JUMPI PUSH1 0x40 MLOAD PUSH3 0x461BCD PUSH1 0xE5 SHL DUP2 MSTORE PUSH1 0x20 PUSH1 0x4 DUP3 ADD MSTORE PUSH1 0x19 PUSH1 0x24 DUP3 ADD MSTORE PUSH32 0x57686974656C69737420766F756368657220696E76616C696400000000000000 PUSH1 0x44 DUP3 ADD MSTORE PUSH1 0x64 ADD PUSH2 0x8D2 JUMP JUMPDEST PUSH1 0x10 SLOAD PUSH1 0x1 PUSH1 0x1 PUSH1 0xA0 SHL SUB AND PUSH2 0x1AF0 DUP5 DUP5 CALLER DUP6 PUSH2 0x234E JUMP JUMPDEST PUSH1 0x1 PUSH1 0x1 PUSH1 0xA0 SHL SUB AND EQ PUSH2 0x1B3E JUMPI PUSH1 0x40 MLOAD PUSH3 0x461BCD PUSH1 0xE5 SHL DUP2 MSTORE PUSH1 0x20 PUSH1 0x4 DUP3 ADD MSTORE PUSH1 0x15 PUSH1 0x24 DUP3 ADD MSTORE PUSH21 0x14985B991BDB481B9D5B58995C881A5B9D985B1A59 PUSH1 0x5A SHL PUSH1 0x44 DUP3 ADD MSTORE PUSH1 0x64 ADD PUSH2 0x8D2 JUMP JUMPDEST PUSH1 0xA SLOAD PUSH1 0xB SLOAD PUSH2 0x1B4F SWAP1 PUSH1 0x1 PUSH2 0x43C7 JUMP JUMPDEST GT ISZERO DUP1 PUSH2 0x1B66 JUMPI POP PUSH1 0x3 SLOAD PUSH1 0x1 PUSH1 0x1 PUSH1 0xA0 SHL SUB AND CALLER EQ JUMPDEST PUSH2 0x1B9D JUMPI PUSH1 0x40 MLOAD PUSH3 0x461BCD PUSH1 0xE5 SHL DUP2 MSTORE PUSH1 0x20 PUSH1 0x4 DUP3 ADD MSTORE PUSH1 0x8 PUSH1 0x24 DUP3 ADD MSTORE PUSH8 0x1CDBDB19081BDD5D PUSH1 0xC2 SHL PUSH1 0x44 DUP3 ADD MSTORE PUSH1 0x64 ADD PUSH2 0x8D2 JUMP JUMPDEST PUSH2 0x1BC6 CALLER DUP4 PUSH1 0x1 PUSH1 0x40 MLOAD DUP1 PUSH1 0x40 ADD PUSH1 0x40 MSTORE DUP1 PUSH1 0x4 DUP2 MSTORE PUSH1 0x20 ADD PUSH4 0x3078303 PUSH1 0xE4 SHL DUP2 MSTORE POP PUSH2 0x20EF JUMP JUMPDEST PUSH1 0x40 DUP1 MLOAD CALLER DUP2 MSTORE PUSH1 0x20 DUP2 ADD DUP5 SWAP1 MSTORE PUSH1 0x1 DUP2 DUP4 ADD MSTORE SWAP1 MLOAD PUSH32 0xB2557F57D8AB076A9CB57485A4361CD3C326587964505F7BA4F11BB095DC43B9 SWAP2 DUP2 SWAP1 SUB PUSH1 0x60 ADD SWAP1 LOG1 PUSH1 0x1 PUSH1 0x11 DUP8 PUSH1 0x40 MLOAD PUSH2 0x1C18 SWAP2 SWAP1 PUSH2 0x3F3C JUMP JUMPDEST SWAP1 DUP2 MSTORE PUSH1 0x20 ADD PUSH1 0x40 MLOAD DUP1 SWAP2 SUB SWAP1 KECCAK256 PUSH1 0x0 DUP3 DUP3 SLOAD PUSH2 0x1C35 SWAP2 SWAP1 PUSH2 0x43C7 JUMP JUMPDEST SWAP3 POP POP DUP2 SWAP1 SSTORE POP PUSH1 0x1 PUSH1 0x12 DUP5 PUSH1 0x40 MLOAD PUSH2 0x1C4E SWAP2 SWAP1 PUSH2 0x3F3C JUMP JUMPDEST SWAP1 DUP2 MSTORE PUSH1 0x20 ADD PUSH1 0x40 MLOAD DUP1 SWAP2 SUB SWAP1 KECCAK256 PUSH1 0x0 DUP3 DUP3 SLOAD PUSH2 0x1C6B SWAP2 SWAP1 PUSH2 0x43C7 JUMP JUMPDEST SWAP3 POP POP DUP2 SWAP1 SSTORE POP PUSH1 0x1 PUSH1 0xB PUSH1 0x0 DUP3 DUP3 SLOAD PUSH2 0x1C85 SWAP2 SWAP1 PUSH2 0x43C7 JUMP JUMPDEST SWAP1 SWAP2 SSTORE POP POP PUSH1 0x1 PUSH1 0x7 SSTORE POP POP POP POP POP POP JUMP JUMPDEST PUSH2 0x1C9F PUSH2 0x21E3 JUMP JUMPDEST PUSH1 0xC DUP1 SLOAD PUSH1 0xFF NOT AND PUSH1 0x1 OR SWAP1 SSTORE JUMP JUMPDEST PUSH2 0x1CB6 PUSH2 0x21E3 JUMP JUMPDEST PUSH2 0x1111 DUP3 DUP3 PUSH2 0x2B07 JUMP JUMPDEST PUSH1 0x40 MLOAD PUSH4 0x71D4ED8D PUSH1 0xE1 SHL DUP2 MSTORE PUSH1 0x1 PUSH1 0x1 PUSH1 0xA0 SHL SUB DUP3 DUP2 AND PUSH1 0x4 DUP4 ADD MSTORE PUSH1 0x0 SWAP2 PUSH32 0x0 SWAP1 SWAP2 AND SWAP1 PUSH4 0xE3A9DB1A SWAP1 PUSH1 0x24 ADD PUSH1 0x20 PUSH1 0x40 MLOAD DUP1 DUP4 SUB DUP2 DUP7 DUP1 EXTCODESIZE ISZERO DUP1 ISZERO PUSH2 0x1D26 JUMPI PUSH1 0x0 DUP1 REVERT JUMPDEST POP GAS STATICCALL ISZERO DUP1 ISZERO PUSH2 0x1D3A JUMPI RETURNDATASIZE PUSH1 0x0 DUP1 RETURNDATACOPY RETURNDATASIZE PUSH1 0x0 REVERT JUMPDEST POP POP POP POP PUSH1 0x40 MLOAD RETURNDATASIZE PUSH1 0x1F NOT PUSH1 0x1F DUP3 ADD AND DUP3 ADD DUP1 PUSH1 0x40 MSTORE POP DUP2 ADD SWAP1 PUSH2 0x8FE SWAP2 SWAP1 PUSH2 0x3E68 JUMP JUMPDEST PUSH1 0xE SLOAD PUSH1 0x0 SWAP1 PUSH1 0x1 PUSH1 0x1 PUSH1 0xA0 SHL SUB DUP4 DUP2 AND SWAP2 AND EQ ISZERO PUSH2 0x1D7F JUMPI POP PUSH1 0x1 PUSH2 0x8FE JUMP JUMPDEST PUSH1 0x1 PUSH1 0x1 PUSH1 0xA0 SHL SUB DUP1 DUP5 AND PUSH1 0x0 SWAP1 DUP2 MSTORE PUSH1 0x1 PUSH1 0x20 SWAP1 DUP2 MSTORE PUSH1 0x40 DUP1 DUP4 KECCAK256 SWAP4 DUP7 AND DUP4 MSTORE SWAP3 SWAP1 MSTORE KECCAK256 SLOAD PUSH1 0xFF AND JUMPDEST SWAP4 SWAP3 POP POP POP JUMP JUMPDEST PUSH2 0x1DB8 PUSH2 0x26DE JUMP JUMPDEST PUSH1 0x1 PUSH1 0x1 PUSH1 0xA0 SHL SUB AND DUP6 PUSH1 0x1 PUSH1 0x1 PUSH1 0xA0 SHL SUB AND EQ DUP1 PUSH2 0x1DDE JUMPI POP PUSH2 0x1DDE DUP6 PUSH2 0x806 PUSH2 0x26DE JUMP JUMPDEST PUSH2 0x1DFA JUMPI PUSH1 0x40 MLOAD PUSH3 0x461BCD PUSH1 0xE5 SHL DUP2 MSTORE PUSH1 0x4 ADD PUSH2 0x8D2 SWAP1 PUSH2 0x40EC JUMP JUMPDEST PUSH2 0x14E6 DUP6 DUP6 DUP6 DUP6 DUP6 PUSH2 0x2B7F JUMP JUMPDEST PUSH2 0x1E0F PUSH2 0x21E3 JUMP JUMPDEST PUSH1 0x1 PUSH1 0x1 PUSH1 0xA0 SHL SUB DUP2 AND PUSH2 0x1E74 JUMPI PUSH1 0x40 MLOAD PUSH3 0x461BCD PUSH1 0xE5 SHL DUP2 MSTORE PUSH1 0x20 PUSH1 0x4 DUP3 ADD MSTORE PUSH1 0x26 PUSH1 0x24 DUP3 ADD MSTORE PUSH32 0x4F776E61626C653A206E6577206F776E657220697320746865207A65726F2061 PUSH1 0x44 DUP3 ADD MSTORE PUSH6 0x646472657373 PUSH1 0xD0 SHL PUSH1 0x64 DUP3 ADD MSTORE PUSH1 0x84 ADD PUSH2 0x8D2 JUMP JUMPDEST PUSH2 0xD50 DUP2 PUSH2 0x2990 JUMP JUMPDEST PUSH2 0x1E85 PUSH2 0x26DE JUMP JUMPDEST PUSH1 0x1 PUSH1 0x1 PUSH1 0xA0 SHL SUB AND DUP4 PUSH1 0x1 PUSH1 0x1 PUSH1 0xA0 SHL SUB AND EQ DUP1 PUSH2 0x1EAB JUMPI POP PUSH2 0x1EAB DUP4 PUSH2 0x806 PUSH2 0x26DE JUMP JUMPDEST PUSH2 0x1EC7 JUMPI PUSH1 0x40 MLOAD PUSH3 0x461BCD PUSH1 0xE5 SHL DUP2 MSTORE PUSH1 0x4 ADD PUSH2 0x8D2 SWAP1 PUSH2 0x40EC JUMP JUMPDEST PUSH2 0x1808 DUP4 DUP4 DUP4 PUSH2 0x243A JUMP JUMPDEST PUSH1 0x0 CALLER ADDRESS EQ ISZERO PUSH2 0x1F29 JUMPI PUSH1 0x0 DUP1 CALLDATASIZE DUP1 DUP1 PUSH1 0x1F ADD PUSH1 0x20 DUP1 SWAP2 DIV MUL PUSH1 0x20 ADD PUSH1 0x40 MLOAD SWAP1 DUP2 ADD PUSH1 0x40 MSTORE DUP1 SWAP4 SWAP3 SWAP2 SWAP1 DUP2 DUP2 MSTORE PUSH1 0x20 ADD DUP4 DUP4 DUP1 DUP3 DUP5 CALLDATACOPY PUSH1 0x0 SWAP3 ADD SWAP2 SWAP1 SWAP2 MSTORE POP POP POP POP CALLDATASIZE ADD MLOAD PUSH1 0x1 PUSH1 0x1 PUSH1 0xA0 SHL SUB AND SWAP2 POP PUSH2 0xD72 SWAP1 POP JUMP JUMPDEST POP CALLER SWAP1 JUMP JUMPDEST PUSH1 0x1 PUSH1 0x1 PUSH1 0xA0 SHL SUB DUP4 AND PUSH2 0x1F54 JUMPI PUSH1 0x40 MLOAD PUSH3 0x461BCD PUSH1 0xE5 SHL DUP2 MSTORE PUSH1 0x4 ADD PUSH2 0x8D2 SWAP1 PUSH2 0x420C JUMP JUMPDEST DUP1 MLOAD DUP3 MLOAD EQ PUSH2 0x1F75 JUMPI PUSH1 0x40 MLOAD PUSH3 0x461BCD PUSH1 0xE5 SHL DUP2 MSTORE PUSH1 0x4 ADD PUSH2 0x8D2 SWAP1 PUSH2 0x42E4 JUMP JUMPDEST PUSH1 0x0 PUSH2 0x1F7F PUSH2 0x26DE JUMP JUMPDEST SWAP1 POP PUSH2 0x1F9F DUP2 DUP6 PUSH1 0x0 DUP7 DUP7 PUSH1 0x40 MLOAD DUP1 PUSH1 0x20 ADD PUSH1 0x40 MSTORE DUP1 PUSH1 0x0 DUP2 MSTORE POP PUSH2 0x2CC2 JUMP JUMPDEST PUSH1 0x0 JUMPDEST DUP4 MLOAD DUP2 LT ISZERO PUSH2 0x2080 JUMPI PUSH1 0x0 DUP5 DUP3 DUP2 MLOAD DUP2 LT PUSH2 0x1FCD JUMPI PUSH4 0x4E487B71 PUSH1 0xE0 SHL PUSH1 0x0 MSTORE PUSH1 0x32 PUSH1 0x4 MSTORE PUSH1 0x24 PUSH1 0x0 REVERT JUMPDEST PUSH1 0x20 MUL PUSH1 0x20 ADD ADD MLOAD SWAP1 POP PUSH1 0x0 DUP5 DUP4 DUP2 MLOAD DUP2 LT PUSH2 0x1FF9 JUMPI PUSH4 0x4E487B71 PUSH1 0xE0 SHL PUSH1 0x0 MSTORE PUSH1 0x32 PUSH1 0x4 MSTORE PUSH1 0x24 PUSH1 0x0 REVERT JUMPDEST PUSH1 0x20 SWAP1 DUP2 MUL SWAP2 SWAP1 SWAP2 ADD DUP2 ADD MLOAD PUSH1 0x0 DUP5 DUP2 MSTORE DUP1 DUP4 MSTORE PUSH1 0x40 DUP1 DUP3 KECCAK256 PUSH1 0x1 PUSH1 0x1 PUSH1 0xA0 SHL SUB DUP13 AND DUP4 MSTORE SWAP1 SWAP4 MSTORE SWAP2 SWAP1 SWAP2 KECCAK256 SLOAD SWAP1 SWAP2 POP DUP2 DUP2 LT ISZERO PUSH2 0x2049 JUMPI PUSH1 0x40 MLOAD PUSH3 0x461BCD PUSH1 0xE5 SHL DUP2 MSTORE PUSH1 0x4 ADD PUSH2 0x8D2 SWAP1 PUSH2 0x4183 JUMP JUMPDEST PUSH1 0x0 SWAP3 DUP4 MSTORE PUSH1 0x20 DUP4 DUP2 MSTORE PUSH1 0x40 DUP1 DUP6 KECCAK256 PUSH1 0x1 PUSH1 0x1 PUSH1 0xA0 SHL SUB DUP12 AND DUP7 MSTORE SWAP1 SWAP2 MSTORE SWAP1 SWAP3 KECCAK256 SWAP2 SUB SWAP1 SSTORE DUP1 PUSH2 0x2078 DUP2 PUSH2 0x4590 JUMP JUMPDEST SWAP2 POP POP PUSH2 0x1FA2 JUMP JUMPDEST POP PUSH1 0x0 PUSH1 0x1 PUSH1 0x1 PUSH1 0xA0 SHL SUB AND DUP5 PUSH1 0x1 PUSH1 0x1 PUSH1 0xA0 SHL SUB AND DUP3 PUSH1 0x1 PUSH1 0x1 PUSH1 0xA0 SHL SUB AND PUSH32 0x4A39DC06D4C0DBC64B70AF90FD698A233A518AA5D07E595D983B8C0526C8F7FB DUP7 DUP7 PUSH1 0x40 MLOAD PUSH2 0x20D1 SWAP3 SWAP2 SWAP1 PUSH2 0x40B4 JUMP JUMPDEST PUSH1 0x40 MLOAD DUP1 SWAP2 SUB SWAP1 LOG4 PUSH1 0x40 DUP1 MLOAD PUSH1 0x20 DUP2 ADD SWAP1 SWAP2 MSTORE PUSH1 0x0 SWAP1 MSTORE JUMPDEST POP POP POP POP JUMP JUMPDEST PUSH1 0x1 PUSH1 0x1 PUSH1 0xA0 SHL SUB DUP5 AND PUSH2 0x2115 JUMPI PUSH1 0x40 MLOAD PUSH3 0x461BCD PUSH1 0xE5 SHL DUP2 MSTORE PUSH1 0x4 ADD PUSH2 0x8D2 SWAP1 PUSH2 0x432C JUMP JUMPDEST PUSH1 0x0 PUSH2 0x211F PUSH2 0x26DE JUMP JUMPDEST SWAP1 POP PUSH1 0x0 PUSH2 0x212C DUP6 PUSH2 0x2CD8 JUMP JUMPDEST SWAP1 POP PUSH1 0x0 PUSH2 0x2139 DUP6 PUSH2 0x2CD8 JUMP JUMPDEST SWAP1 POP PUSH2 0x214A DUP4 PUSH1 0x0 DUP10 DUP6 DUP6 DUP10 PUSH2 0x2CC2 JUMP JUMPDEST PUSH1 0x0 DUP7 DUP2 MSTORE PUSH1 0x20 DUP2 DUP2 MSTORE PUSH1 0x40 DUP1 DUP4 KECCAK256 PUSH1 0x1 PUSH1 0x1 PUSH1 0xA0 SHL SUB DUP12 AND DUP5 MSTORE SWAP1 SWAP2 MSTORE DUP2 KECCAK256 DUP1 SLOAD DUP8 SWAP3 SWAP1 PUSH2 0x217A SWAP1 DUP5 SWAP1 PUSH2 0x43C7 JUMP JUMPDEST SWAP1 SWAP2 SSTORE POP POP PUSH1 0x40 DUP1 MLOAD DUP8 DUP2 MSTORE PUSH1 0x20 DUP2 ADD DUP8 SWAP1 MSTORE PUSH1 0x1 PUSH1 0x1 PUSH1 0xA0 SHL SUB DUP1 DUP11 AND SWAP3 PUSH1 0x0 SWAP3 SWAP2 DUP8 AND SWAP2 PUSH32 0xC3D58168C5AE7397731D063D5BBF3D657854427343F4C083240F7AACAA2D0F62 SWAP2 ADD PUSH1 0x40 MLOAD DUP1 SWAP2 SUB SWAP1 LOG4 PUSH2 0x21DA DUP4 PUSH1 0x0 DUP10 DUP10 DUP10 DUP10 PUSH2 0x2D31 JUMP JUMPDEST POP POP POP POP POP POP POP JUMP JUMPDEST PUSH2 0x21EB PUSH2 0x26DE JUMP JUMPDEST PUSH1 0x1 PUSH1 0x1 PUSH1 0xA0 SHL SUB AND PUSH2 0x2206 PUSH1 0x3 SLOAD PUSH1 0x1 PUSH1 0x1 PUSH1 0xA0 SHL SUB AND SWAP1 JUMP JUMPDEST PUSH1 0x1 PUSH1 0x1 PUSH1 0xA0 SHL SUB AND EQ PUSH2 0x15EB JUMPI PUSH1 0x40 MLOAD PUSH3 0x461BCD PUSH1 0xE5 SHL DUP2 MSTORE PUSH1 0x20 PUSH1 0x4 DUP3 ADD DUP2 SWAP1 MSTORE PUSH1 0x24 DUP3 ADD MSTORE PUSH32 0x4F776E61626C653A2063616C6C6572206973206E6F7420746865206F776E6572 PUSH1 0x44 DUP3 ADD MSTORE PUSH1 0x64 ADD PUSH2 0x8D2 JUMP JUMPDEST DUP1 MLOAD PUSH2 0x1111 SWAP1 PUSH1 0x2 SWAP1 PUSH1 0x20 DUP5 ADD SWAP1 PUSH2 0x3770 JUMP JUMPDEST PUSH1 0x0 DUP2 DUP2 MSTORE PUSH1 0x6 PUSH1 0x20 MSTORE PUSH1 0x40 DUP2 KECCAK256 DUP1 SLOAD PUSH1 0x60 SWAP3 SWAP2 SWAP1 PUSH2 0x228D SWAP1 PUSH2 0x4529 JUMP JUMPDEST DUP1 PUSH1 0x1F ADD PUSH1 0x20 DUP1 SWAP2 DIV MUL PUSH1 0x20 ADD PUSH1 0x40 MLOAD SWAP1 DUP2 ADD PUSH1 0x40 MSTORE DUP1 SWAP3 SWAP2 SWAP1 DUP2 DUP2 MSTORE PUSH1 0x20 ADD DUP3 DUP1 SLOAD PUSH2 0x22B9 SWAP1 PUSH2 0x4529 JUMP JUMPDEST DUP1 ISZERO PUSH2 0x2306 JUMPI DUP1 PUSH1 0x1F LT PUSH2 0x22DB JUMPI PUSH2 0x100 DUP1 DUP4 SLOAD DIV MUL DUP4 MSTORE SWAP2 PUSH1 0x20 ADD SWAP2 PUSH2 0x2306 JUMP JUMPDEST DUP3 ADD SWAP2 SWAP1 PUSH1 0x0 MSTORE PUSH1 0x20 PUSH1 0x0 KECCAK256 SWAP1 JUMPDEST DUP2 SLOAD DUP2 MSTORE SWAP1 PUSH1 0x1 ADD SWAP1 PUSH1 0x20 ADD DUP1 DUP4 GT PUSH2 0x22E9 JUMPI DUP3 SWAP1 SUB PUSH1 0x1F AND DUP3 ADD SWAP2 JUMPDEST POP POP POP POP POP SWAP1 POP PUSH1 0x0 DUP2 MLOAD GT PUSH2 0x2324 JUMPI PUSH2 0x231F DUP4 PUSH2 0x2E9C JUMP JUMPDEST PUSH2 0x1DA9 JUMP JUMPDEST PUSH1 0x5 DUP2 PUSH1 0x40 MLOAD PUSH1 0x20 ADD PUSH2 0x2338 SWAP3 SWAP2 SWAP1 PUSH2 0x3F58 JUMP JUMPDEST PUSH1 0x40 MLOAD PUSH1 0x20 DUP2 DUP4 SUB SUB DUP2 MSTORE SWAP1 PUSH1 0x40 MSTORE SWAP4 SWAP3 POP POP POP JUMP JUMPDEST PUSH1 0x0 DUP1 PUSH2 0x23CC PUSH32 0x5CDACE2705C38F69FB87D5D5667CDB01F9773E1C4D1B6E89CE75A545B06A1071 DUP8 DUP1 MLOAD SWAP1 PUSH1 0x20 ADD KECCAK256 DUP8 DUP8 PUSH1 0x40 MLOAD PUSH1 0x20 ADD PUSH2 0x23B1 SWAP5 SWAP4 SWAP3 SWAP2 SWAP1 SWAP4 DUP5 MSTORE PUSH1 0x20 DUP5 ADD SWAP3 SWAP1 SWAP3 MSTORE PUSH1 0x40 DUP4 ADD MSTORE PUSH1 0x1 PUSH1 0x1 PUSH1 0xA0 SHL SUB AND PUSH1 0x60 DUP3 ADD MSTORE PUSH1 0x80 ADD SWAP1 JUMP JUMPDEST PUSH1 0x40 MLOAD PUSH1 0x20 DUP2 DUP4 SUB SUB DUP2 MSTORE SWAP1 PUSH1 0x40 MSTORE DUP1 MLOAD SWAP1 PUSH1 0x20 ADD KECCAK256 PUSH2 0x2F30 JUMP JUMPDEST SWAP1 POP PUSH2 0x23D8 DUP2 DUP5 PUSH2 0x2F7E JUMP JUMPDEST SWAP7 SWAP6 POP POP POP POP POP POP JUMP JUMPDEST PUSH1 0x0 DUP3 DUP2 MSTORE PUSH1 0x6 PUSH1 0x20 SWAP1 DUP2 MSTORE PUSH1 0x40 SWAP1 SWAP2 KECCAK256 DUP3 MLOAD PUSH2 0x2401 SWAP3 DUP5 ADD SWAP1 PUSH2 0x3770 JUMP JUMPDEST POP DUP2 PUSH32 0x6BB7FF708619BA0610CBA295A58592E0451DEE2622938C8755667688DAF3529B PUSH2 0x242D DUP5 PUSH2 0xD82 JUMP JUMPDEST PUSH1 0x40 MLOAD PUSH2 0x17A7 SWAP2 SWAP1 PUSH2 0x40D9 JUMP JUMPDEST PUSH1 0x1 PUSH1 0x1 PUSH1 0xA0 SHL SUB DUP4 AND PUSH2 0x2460 JUMPI PUSH1 0x40 MLOAD PUSH3 0x461BCD PUSH1 0xE5 SHL DUP2 MSTORE PUSH1 0x4 ADD PUSH2 0x8D2 SWAP1 PUSH2 0x420C JUMP JUMPDEST PUSH1 0x0 PUSH2 0x246A PUSH2 0x26DE JUMP JUMPDEST SWAP1 POP PUSH1 0x0 PUSH2 0x2477 DUP5 PUSH2 0x2CD8 JUMP JUMPDEST SWAP1 POP PUSH1 0x0 PUSH2 0x2484 DUP5 PUSH2 0x2CD8 JUMP JUMPDEST SWAP1 POP PUSH2 0x24A4 DUP4 DUP8 PUSH1 0x0 DUP6 DUP6 PUSH1 0x40 MLOAD DUP1 PUSH1 0x20 ADD PUSH1 0x40 MSTORE DUP1 PUSH1 0x0 DUP2 MSTORE POP PUSH2 0x2CC2 JUMP JUMPDEST PUSH1 0x0 DUP6 DUP2 MSTORE PUSH1 0x20 DUP2 DUP2 MSTORE PUSH1 0x40 DUP1 DUP4 KECCAK256 PUSH1 0x1 PUSH1 0x1 PUSH1 0xA0 SHL SUB DUP11 AND DUP5 MSTORE SWAP1 SWAP2 MSTORE SWAP1 KECCAK256 SLOAD DUP5 DUP2 LT ISZERO PUSH2 0x24E5 JUMPI PUSH1 0x40 MLOAD PUSH3 0x461BCD PUSH1 0xE5 SHL DUP2 MSTORE PUSH1 0x4 ADD PUSH2 0x8D2 SWAP1 PUSH2 0x4183 JUMP JUMPDEST PUSH1 0x0 DUP7 DUP2 MSTORE PUSH1 0x20 DUP2 DUP2 MSTORE PUSH1 0x40 DUP1 DUP4 KECCAK256 PUSH1 0x1 PUSH1 0x1 PUSH1 0xA0 SHL SUB DUP12 DUP2 AND DUP1 DUP7 MSTORE SWAP2 DUP5 MSTORE DUP3 DUP6 KECCAK256 DUP11 DUP8 SUB SWAP1 SSTORE DUP3 MLOAD DUP12 DUP2 MSTORE SWAP4 DUP5 ADD DUP11 SWAP1 MSTORE SWAP1 SWAP3 SWAP1 DUP9 AND SWAP2 PUSH32 0xC3D58168C5AE7397731D063D5BBF3D657854427343F4C083240F7AACAA2D0F62 SWAP2 ADD PUSH1 0x40 MLOAD DUP1 SWAP2 SUB SWAP1 LOG4 PUSH1 0x40 DUP1 MLOAD PUSH1 0x20 DUP2 ADD SWAP1 SWAP2 MSTORE PUSH1 0x0 SWAP1 MSTORE PUSH2 0x21DA JUMP JUMPDEST PUSH1 0x1 PUSH1 0x1 PUSH1 0xA0 SHL SUB DUP5 AND PUSH2 0x2583 JUMPI PUSH1 0x40 MLOAD PUSH3 0x461BCD PUSH1 0xE5 SHL DUP2 MSTORE PUSH1 0x4 ADD PUSH2 0x8D2 SWAP1 PUSH2 0x432C JUMP JUMPDEST DUP2 MLOAD DUP4 MLOAD EQ PUSH2 0x25A4 JUMPI PUSH1 0x40 MLOAD PUSH3 0x461BCD PUSH1 0xE5 SHL DUP2 MSTORE PUSH1 0x4 ADD PUSH2 0x8D2 SWAP1 PUSH2 0x42E4 JUMP JUMPDEST PUSH1 0x0 PUSH2 0x25AE PUSH2 0x26DE JUMP JUMPDEST SWAP1 POP PUSH2 0x25BF DUP2 PUSH1 0x0 DUP8 DUP8 DUP8 DUP8 PUSH2 0x2CC2 JUMP JUMPDEST PUSH1 0x0 JUMPDEST DUP5 MLOAD DUP2 LT ISZERO PUSH2 0x2676 JUMPI DUP4 DUP2 DUP2 MLOAD DUP2 LT PUSH2 0x25EB JUMPI PUSH4 0x4E487B71 PUSH1 0xE0 SHL PUSH1 0x0 MSTORE PUSH1 0x32 PUSH1 0x4 MSTORE PUSH1 0x24 PUSH1 0x0 REVERT JUMPDEST PUSH1 0x20 MUL PUSH1 0x20 ADD ADD MLOAD PUSH1 0x0 DUP1 DUP8 DUP5 DUP2 MLOAD DUP2 LT PUSH2 0x2616 JUMPI PUSH4 0x4E487B71 PUSH1 0xE0 SHL PUSH1 0x0 MSTORE PUSH1 0x32 PUSH1 0x4 MSTORE PUSH1 0x24 PUSH1 0x0 REVERT JUMPDEST PUSH1 0x20 MUL PUSH1 0x20 ADD ADD MLOAD DUP2 MSTORE PUSH1 0x20 ADD SWAP1 DUP2 MSTORE PUSH1 0x20 ADD PUSH1 0x0 KECCAK256 PUSH1 0x0 DUP9 PUSH1 0x1 PUSH1 0x1 PUSH1 0xA0 SHL SUB AND PUSH1 0x1 PUSH1 0x1 PUSH1 0xA0 SHL SUB AND DUP2 MSTORE PUSH1 0x20 ADD SWAP1 DUP2 MSTORE PUSH1 0x20 ADD PUSH1 0x0 KECCAK256 PUSH1 0x0 DUP3 DUP3 SLOAD PUSH2 0x265E SWAP2 SWAP1 PUSH2 0x43C7 JUMP JUMPDEST SWAP1 SWAP2 SSTORE POP DUP2 SWAP1 POP PUSH2 0x266E DUP2 PUSH2 0x4590 JUMP JUMPDEST SWAP2 POP POP PUSH2 0x25C2 JUMP JUMPDEST POP DUP5 PUSH1 0x1 PUSH1 0x1 PUSH1 0xA0 SHL SUB AND PUSH1 0x0 PUSH1 0x1 PUSH1 0x1 PUSH1 0xA0 SHL SUB AND DUP3 PUSH1 0x1 PUSH1 0x1 PUSH1 0xA0 SHL SUB AND PUSH32 0x4A39DC06D4C0DBC64B70AF90FD698A233A518AA5D07E595D983B8C0526C8F7FB DUP8 DUP8 PUSH1 0x40 MLOAD PUSH2 0x26C7 SWAP3 SWAP2 SWAP1 PUSH2 0x40B4 JUMP JUMPDEST PUSH1 0x40 MLOAD DUP1 SWAP2 SUB SWAP1 LOG4 PUSH2 0x14E6 DUP2 PUSH1 0x0 DUP8 DUP8 DUP8 DUP8 PUSH2 0x2F9A JUMP JUMPDEST PUSH1 0x0 PUSH2 0x26E8 PUSH2 0x1ED2 JUMP JUMPDEST SWAP1 POP SWAP1 JUMP JUMPDEST DUP2 MLOAD DUP4 MLOAD EQ PUSH2 0x270E JUMPI PUSH1 0x40 MLOAD PUSH3 0x461BCD PUSH1 0xE5 SHL DUP2 MSTORE PUSH1 0x4 ADD PUSH2 0x8D2 SWAP1 PUSH2 0x42E4 JUMP JUMPDEST PUSH1 0x1 PUSH1 0x1 PUSH1 0xA0 SHL SUB DUP5 AND PUSH2 0x2734 JUMPI PUSH1 0x40 MLOAD PUSH3 0x461BCD PUSH1 0xE5 SHL DUP2 MSTORE PUSH1 0x4 ADD PUSH2 0x8D2 SWAP1 PUSH2 0x41C7 JUMP JUMPDEST PUSH1 0x0 PUSH2 0x273E PUSH2 0x26DE JUMP JUMPDEST SWAP1 POP PUSH2 0x274E DUP2 DUP8 DUP8 DUP8 DUP8 DUP8 PUSH2 0x2CC2 JUMP JUMPDEST PUSH1 0x0 JUMPDEST DUP5 MLOAD DUP2 LT ISZERO PUSH2 0x2850 JUMPI PUSH1 0x0 DUP6 DUP3 DUP2 MLOAD DUP2 LT PUSH2 0x277C JUMPI PUSH4 0x4E487B71 PUSH1 0xE0 SHL PUSH1 0x0 MSTORE PUSH1 0x32 PUSH1 0x4 MSTORE PUSH1 0x24 PUSH1 0x0 REVERT JUMPDEST PUSH1 0x20 MUL PUSH1 0x20 ADD ADD MLOAD SWAP1 POP PUSH1 0x0 DUP6 DUP4 DUP2 MLOAD DUP2 LT PUSH2 0x27A8 JUMPI PUSH4 0x4E487B71 PUSH1 0xE0 SHL PUSH1 0x0 MSTORE PUSH1 0x32 PUSH1 0x4 MSTORE PUSH1 0x24 PUSH1 0x0 REVERT JUMPDEST PUSH1 0x20 SWAP1 DUP2 MUL SWAP2 SWAP1 SWAP2 ADD DUP2 ADD MLOAD PUSH1 0x0 DUP5 DUP2 MSTORE DUP1 DUP4 MSTORE PUSH1 0x40 DUP1 DUP3 KECCAK256 PUSH1 0x1 PUSH1 0x1 PUSH1 0xA0 SHL SUB DUP15 AND DUP4 MSTORE SWAP1 SWAP4 MSTORE SWAP2 SWAP1 SWAP2 KECCAK256 SLOAD SWAP1 SWAP2 POP DUP2 DUP2 LT ISZERO PUSH2 0x27F8 JUMPI PUSH1 0x40 MLOAD PUSH3 0x461BCD PUSH1 0xE5 SHL DUP2 MSTORE PUSH1 0x4 ADD PUSH2 0x8D2 SWAP1 PUSH2 0x424F JUMP JUMPDEST PUSH1 0x0 DUP4 DUP2 MSTORE PUSH1 0x20 DUP2 DUP2 MSTORE PUSH1 0x40 DUP1 DUP4 KECCAK256 PUSH1 0x1 PUSH1 0x1 PUSH1 0xA0 SHL SUB DUP15 DUP2 AND DUP6 MSTORE SWAP3 MSTORE DUP1 DUP4 KECCAK256 DUP6 DUP6 SUB SWAP1 SSTORE SWAP1 DUP12 AND DUP3 MSTORE DUP2 KECCAK256 DUP1 SLOAD DUP5 SWAP3 SWAP1 PUSH2 0x2835 SWAP1 DUP5 SWAP1 PUSH2 0x43C7 JUMP JUMPDEST SWAP3 POP POP DUP2 SWAP1 SSTORE POP POP POP POP DUP1 PUSH2 0x2849 SWAP1 PUSH2 0x4590 JUMP JUMPDEST SWAP1 POP PUSH2 0x2751 JUMP JUMPDEST POP DUP5 PUSH1 0x1 PUSH1 0x1 PUSH1 0xA0 SHL SUB AND DUP7 PUSH1 0x1 PUSH1 0x1 PUSH1 0xA0 SHL SUB AND DUP3 PUSH1 0x1 PUSH1 0x1 PUSH1 0xA0 SHL SUB AND PUSH32 0x4A39DC06D4C0DBC64B70AF90FD698A233A518AA5D07E595D983B8C0526C8F7FB DUP8 DUP8 PUSH1 0x40 MLOAD PUSH2 0x28A0 SWAP3 SWAP2 SWAP1 PUSH2 0x40B4 JUMP JUMPDEST PUSH1 0x40 MLOAD DUP1 SWAP2 SUB SWAP1 LOG4 PUSH2 0x28B6 DUP2 DUP8 DUP8 DUP8 DUP8 DUP8 PUSH2 0x2F9A JUMP JUMPDEST POP POP POP POP POP POP JUMP JUMPDEST PUSH1 0x40 MLOAD PUSH4 0x51CFF8D9 PUSH1 0xE0 SHL DUP2 MSTORE PUSH1 0x1 PUSH1 0x1 PUSH1 0xA0 SHL SUB DUP3 DUP2 AND PUSH1 0x4 DUP4 ADD MSTORE PUSH32 0x0 AND SWAP1 PUSH4 0x51CFF8D9 SWAP1 PUSH1 0x24 ADD PUSH1 0x0 PUSH1 0x40 MLOAD DUP1 DUP4 SUB DUP2 PUSH1 0x0 DUP8 DUP1 EXTCODESIZE ISZERO DUP1 ISZERO PUSH2 0x2921 JUMPI PUSH1 0x0 DUP1 REVERT JUMPDEST POP GAS CALL ISZERO DUP1 ISZERO PUSH2 0x14E6 JUMPI RETURNDATASIZE PUSH1 0x0 DUP1 RETURNDATACOPY RETURNDATASIZE PUSH1 0x0 REVERT JUMPDEST PUSH2 0x293D PUSH2 0x3064 JUMP JUMPDEST PUSH1 0x3 DUP1 SLOAD PUSH1 0xFF PUSH1 0xA0 SHL NOT AND SWAP1 SSTORE PUSH32 0x5DB9EE0A495BF2E6FF9C91A7834C1BA4FDD244A5E8AA4E537BD38AEAE4B073AA PUSH2 0x2973 PUSH2 0x26DE JUMP JUMPDEST PUSH1 0x40 MLOAD PUSH1 0x1 PUSH1 0x1 PUSH1 0xA0 SHL SUB SWAP1 SWAP2 AND DUP2 MSTORE PUSH1 0x20 ADD PUSH1 0x40 MLOAD DUP1 SWAP2 SUB SWAP1 LOG1 JUMP JUMPDEST PUSH1 0x3 DUP1 SLOAD PUSH1 0x1 PUSH1 0x1 PUSH1 0xA0 SHL SUB DUP4 DUP2 AND PUSH1 0x1 PUSH1 0x1 PUSH1 0xA0 SHL SUB NOT DUP4 AND DUP2 OR SWAP1 SWAP4 SSTORE PUSH1 0x40 MLOAD SWAP2 AND SWAP2 SWAP1 DUP3 SWAP1 PUSH32 0x8BE0079C531659141344CD1FD0A4F28419497F9722A3DAAFE3B4186F6B6457E0 SWAP1 PUSH1 0x0 SWAP1 LOG3 POP POP JUMP JUMPDEST PUSH2 0x29EA PUSH2 0x30B4 JUMP JUMPDEST PUSH1 0x3 DUP1 SLOAD PUSH1 0xFF PUSH1 0xA0 SHL NOT AND PUSH1 0x1 PUSH1 0xA0 SHL OR SWAP1 SSTORE PUSH32 0x62E78CEA01BEE320CD4E420270B5EA74000D11B0C9F74754EBDBFC544B05A258 PUSH2 0x2973 PUSH2 0x26DE JUMP JUMPDEST DUP2 PUSH1 0x1 PUSH1 0x1 PUSH1 0xA0 SHL SUB AND DUP4 PUSH1 0x1 PUSH1 0x1 PUSH1 0xA0 SHL SUB AND EQ ISZERO PUSH2 0x2A9A JUMPI PUSH1 0x40 MLOAD PUSH3 0x461BCD PUSH1 0xE5 SHL DUP2 MSTORE PUSH1 0x20 PUSH1 0x4 DUP3 ADD MSTORE PUSH1 0x29 PUSH1 0x24 DUP3 ADD MSTORE PUSH32 0x455243313135353A2073657474696E6720617070726F76616C20737461747573 PUSH1 0x44 DUP3 ADD MSTORE PUSH9 0x103337B91039B2B633 PUSH1 0xB9 SHL PUSH1 0x64 DUP3 ADD MSTORE PUSH1 0x84 ADD PUSH2 0x8D2 JUMP JUMPDEST PUSH1 0x1 PUSH1 0x1 PUSH1 0xA0 SHL SUB DUP4 DUP2 AND PUSH1 0x0 DUP2 DUP2 MSTORE PUSH1 0x1 PUSH1 0x20 SWAP1 DUP2 MSTORE PUSH1 0x40 DUP1 DUP4 KECCAK256 SWAP5 DUP8 AND DUP1 DUP5 MSTORE SWAP5 DUP3 MSTORE SWAP2 DUP3 SWAP1 KECCAK256 DUP1 SLOAD PUSH1 0xFF NOT AND DUP7 ISZERO ISZERO SWAP1 DUP2 OR SWAP1 SWAP2 SSTORE SWAP2 MLOAD SWAP2 DUP3 MSTORE PUSH32 0x17307EAB39AB6107E8899845AD3D59BD9653F200F220920489CA2B5937696C31 SWAP2 ADD PUSH1 0x40 MLOAD DUP1 SWAP2 SUB SWAP1 LOG3 POP POP POP JUMP JUMPDEST PUSH1 0x40 MLOAD PUSH4 0xF340FA01 PUSH1 0xE0 SHL DUP2 MSTORE PUSH1 0x1 PUSH1 0x1 PUSH1 0xA0 SHL SUB DUP4 DUP2 AND PUSH1 0x4 DUP4 ADD MSTORE PUSH32 0x0 AND SWAP1 PUSH4 0xF340FA01 SWAP1 DUP4 SWAP1 PUSH1 0x24 ADD PUSH1 0x0 PUSH1 0x40 MLOAD DUP1 DUP4 SUB DUP2 DUP6 DUP9 DUP1 EXTCODESIZE ISZERO DUP1 ISZERO PUSH2 0x2B6B JUMPI PUSH1 0x0 DUP1 REVERT JUMPDEST POP GAS CALL ISZERO DUP1 ISZERO PUSH2 0x21DA JUMPI RETURNDATASIZE PUSH1 0x0 DUP1 RETURNDATACOPY RETURNDATASIZE PUSH1 0x0 REVERT JUMPDEST PUSH1 0x1 PUSH1 0x1 PUSH1 0xA0 SHL SUB DUP5 AND PUSH2 0x2BA5 JUMPI PUSH1 0x40 MLOAD PUSH3 0x461BCD PUSH1 0xE5 SHL DUP2 MSTORE PUSH1 0x4 ADD PUSH2 0x8D2 SWAP1 PUSH2 0x41C7 JUMP JUMPDEST PUSH1 0x0 PUSH2 0x2BAF PUSH2 0x26DE JUMP JUMPDEST SWAP1 POP PUSH1 0x0 PUSH2 0x2BBC DUP6 PUSH2 0x2CD8 JUMP JUMPDEST SWAP1 POP PUSH1 0x0 PUSH2 0x2BC9 DUP6 PUSH2 0x2CD8 JUMP JUMPDEST SWAP1 POP PUSH2 0x2BD9 DUP4 DUP10 DUP10 DUP6 DUP6 DUP10 PUSH2 0x2CC2 JUMP JUMPDEST PUSH1 0x0 DUP7 DUP2 MSTORE PUSH1 0x20 DUP2 DUP2 MSTORE PUSH1 0x40 DUP1 DUP4 KECCAK256 PUSH1 0x1 PUSH1 0x1 PUSH1 0xA0 SHL SUB DUP13 AND DUP5 MSTORE SWAP1 SWAP2 MSTORE SWAP1 KECCAK256 SLOAD DUP6 DUP2 LT ISZERO PUSH2 0x2C1A JUMPI PUSH1 0x40 MLOAD PUSH3 0x461BCD PUSH1 0xE5 SHL DUP2 MSTORE PUSH1 0x4 ADD PUSH2 0x8D2 SWAP1 PUSH2 0x424F JUMP JUMPDEST PUSH1 0x0 DUP8 DUP2 MSTORE PUSH1 0x20 DUP2 DUP2 MSTORE PUSH1 0x40 DUP1 DUP4 KECCAK256 PUSH1 0x1 PUSH1 0x1 PUSH1 0xA0 SHL SUB DUP14 DUP2 AND DUP6 MSTORE SWAP3 MSTORE DUP1 DUP4 KECCAK256 DUP10 DUP6 SUB SWAP1 SSTORE SWAP1 DUP11 AND DUP3 MSTORE DUP2 KECCAK256 DUP1 SLOAD DUP9 SWAP3 SWAP1 PUSH2 0x2C57 SWAP1 DUP5 SWAP1 PUSH2 0x43C7 JUMP JUMPDEST SWAP1 SWAP2 SSTORE POP POP PUSH1 0x40 DUP1 MLOAD DUP9 DUP2 MSTORE PUSH1 0x20 DUP2 ADD DUP9 SWAP1 MSTORE PUSH1 0x1 PUSH1 0x1 PUSH1 0xA0 SHL SUB DUP1 DUP12 AND SWAP3 DUP13 DUP3 AND SWAP3 SWAP2 DUP9 AND SWAP2 PUSH32 0xC3D58168C5AE7397731D063D5BBF3D657854427343F4C083240F7AACAA2D0F62 SWAP2 ADD PUSH1 0x40 MLOAD DUP1 SWAP2 SUB SWAP1 LOG4 PUSH2 0x2CB7 DUP5 DUP11 DUP11 DUP11 DUP11 DUP11 PUSH2 0x2D31 JUMP JUMPDEST POP POP POP POP POP POP POP POP POP JUMP JUMPDEST PUSH2 0x2CCA PUSH2 0x30B4 JUMP JUMPDEST PUSH2 0x28B6 DUP7 DUP7 DUP7 DUP7 DUP7 DUP7 PUSH2 0x3101 JUMP JUMPDEST PUSH1 0x40 DUP1 MLOAD PUSH1 0x1 DUP1 DUP3 MSTORE DUP2 DUP4 ADD SWAP1 SWAP3 MSTORE PUSH1 0x60 SWAP2 PUSH1 0x0 SWAP2 SWAP1 PUSH1 0x20 DUP1 DUP4 ADD SWAP1 DUP1 CALLDATASIZE DUP4 CALLDATACOPY ADD SWAP1 POP POP SWAP1 POP DUP3 DUP2 PUSH1 0x0 DUP2 MLOAD DUP2 LT PUSH2 0x2D20 JUMPI PUSH4 0x4E487B71 PUSH1 0xE0 SHL PUSH1 0x0 MSTORE PUSH1 0x32 PUSH1 0x4 MSTORE PUSH1 0x24 PUSH1 0x0 REVERT JUMPDEST PUSH1 0x20 SWAP1 DUP2 MUL SWAP2 SWAP1 SWAP2 ADD ADD MSTORE SWAP3 SWAP2 POP POP JUMP JUMPDEST PUSH1 0x1 PUSH1 0x1 PUSH1 0xA0 SHL SUB DUP5 AND EXTCODESIZE ISZERO PUSH2 0x28B6 JUMPI PUSH1 0x40 MLOAD PUSH4 0xF23A6E61 PUSH1 0xE0 SHL DUP2 MSTORE PUSH1 0x1 PUSH1 0x1 PUSH1 0xA0 SHL SUB DUP6 AND SWAP1 PUSH4 0xF23A6E61 SWAP1 PUSH2 0x2D75 SWAP1 DUP10 SWAP1 DUP10 SWAP1 DUP9 SWAP1 DUP9 SWAP1 DUP9 SWAP1 PUSH1 0x4 ADD PUSH2 0x405C JUMP JUMPDEST PUSH1 0x20 PUSH1 0x40 MLOAD DUP1 DUP4 SUB DUP2 PUSH1 0x0 DUP8 DUP1 EXTCODESIZE ISZERO DUP1 ISZERO PUSH2 0x2D8F JUMPI PUSH1 0x0 DUP1 REVERT JUMPDEST POP GAS CALL SWAP3 POP POP POP DUP1 ISZERO PUSH2 0x2DBF JUMPI POP PUSH1 0x40 DUP1 MLOAD PUSH1 0x1F RETURNDATASIZE SWAP1 DUP2 ADD PUSH1 0x1F NOT AND DUP3 ADD SWAP1 SWAP3 MSTORE PUSH2 0x2DBC SWAP2 DUP2 ADD SWAP1 PUSH2 0x3CA0 JUMP JUMPDEST PUSH1 0x1 JUMPDEST PUSH2 0x2E6C JUMPI PUSH2 0x2DCB PUSH2 0x4601 JUMP JUMPDEST DUP1 PUSH4 0x8C379A0 EQ ISZERO PUSH2 0x2E05 JUMPI POP PUSH2 0x2DE0 PUSH2 0x4618 JUMP JUMPDEST DUP1 PUSH2 0x2DEB JUMPI POP PUSH2 0x2E07 JUMP JUMPDEST DUP1 PUSH1 0x40 MLOAD PUSH3 0x461BCD PUSH1 0xE5 SHL DUP2 MSTORE PUSH1 0x4 ADD PUSH2 0x8D2 SWAP2 SWAP1 PUSH2 0x40D9 JUMP JUMPDEST POP JUMPDEST PUSH1 0x40 MLOAD PUSH3 0x461BCD PUSH1 0xE5 SHL DUP2 MSTORE PUSH1 0x20 PUSH1 0x4 DUP3 ADD MSTORE PUSH1 0x34 PUSH1 0x24 DUP3 ADD MSTORE PUSH32 0x455243313135353A207472616E7366657220746F206E6F6E2045524331313535 PUSH1 0x44 DUP3 ADD MSTORE PUSH20 0x2932B1B2B4BB32B91034B6B83632B6B2B73A32B9 PUSH1 0x61 SHL PUSH1 0x64 DUP3 ADD MSTORE PUSH1 0x84 ADD PUSH2 0x8D2 JUMP JUMPDEST PUSH1 0x1 PUSH1 0x1 PUSH1 0xE0 SHL SUB NOT DUP2 AND PUSH4 0xF23A6E61 PUSH1 0xE0 SHL EQ PUSH2 0x21DA JUMPI PUSH1 0x40 MLOAD PUSH3 0x461BCD PUSH1 0xE5 SHL DUP2 MSTORE PUSH1 0x4 ADD PUSH2 0x8D2 SWAP1 PUSH2 0x413B JUMP JUMPDEST PUSH1 0x60 PUSH1 0x2 DUP1 SLOAD PUSH2 0x2EAB SWAP1 PUSH2 0x4529 JUMP JUMPDEST DUP1 PUSH1 0x1F ADD PUSH1 0x20 DUP1 SWAP2 DIV MUL PUSH1 0x20 ADD PUSH1 0x40 MLOAD SWAP1 DUP2 ADD PUSH1 0x40 MSTORE DUP1 SWAP3 SWAP2 SWAP1 DUP2 DUP2 MSTORE PUSH1 0x20 ADD DUP3 DUP1 SLOAD PUSH2 0x2ED7 SWAP1 PUSH2 0x4529 JUMP JUMPDEST DUP1 ISZERO PUSH2 0x2F24 JUMPI DUP1 PUSH1 0x1F LT PUSH2 0x2EF9 JUMPI PUSH2 0x100 DUP1 DUP4 SLOAD DIV MUL DUP4 MSTORE SWAP2 PUSH1 0x20 ADD SWAP2 PUSH2 0x2F24 JUMP JUMPDEST DUP3 ADD SWAP2 SWAP1 PUSH1 0x0 MSTORE PUSH1 0x20 PUSH1 0x0 KECCAK256 SWAP1 JUMPDEST DUP2 SLOAD DUP2 MSTORE SWAP1 PUSH1 0x1 ADD SWAP1 PUSH1 0x20 ADD DUP1 DUP4 GT PUSH2 0x2F07 JUMPI DUP3 SWAP1 SUB PUSH1 0x1F AND DUP3 ADD SWAP2 JUMPDEST POP POP POP POP POP SWAP1 POP SWAP2 SWAP1 POP JUMP JUMPDEST PUSH1 0x0 PUSH2 0x8FE PUSH2 0x2F3D PUSH2 0x32B2 JUMP JUMPDEST DUP4 PUSH1 0x40 MLOAD PUSH2 0x1901 PUSH1 0xF0 SHL PUSH1 0x20 DUP3 ADD MSTORE PUSH1 0x22 DUP2 ADD DUP4 SWAP1 MSTORE PUSH1 0x42 DUP2 ADD DUP3 SWAP1 MSTORE PUSH1 0x0 SWAP1 PUSH1 0x62 ADD PUSH1 0x40 MLOAD PUSH1 0x20 DUP2 DUP4 SUB SUB DUP2 MSTORE SWAP1 PUSH1 0x40 MSTORE DUP1 MLOAD SWAP1 PUSH1 0x20 ADD KECCAK256 SWAP1 POP SWAP3 SWAP2 POP POP JUMP JUMPDEST PUSH1 0x0 DUP1 PUSH1 0x0 PUSH2 0x2F8D DUP6 DUP6 PUSH2 0x33D9 JUMP JUMPDEST SWAP2 POP SWAP2 POP PUSH2 0x1753 DUP2 PUSH2 0x3449 JUMP JUMPDEST PUSH1 0x1 PUSH1 0x1 PUSH1 0xA0 SHL SUB DUP5 AND EXTCODESIZE ISZERO PUSH2 0x28B6 JUMPI PUSH1 0x40 MLOAD PUSH4 0xBC197C81 PUSH1 0xE0 SHL DUP2 MSTORE PUSH1 0x1 PUSH1 0x1 PUSH1 0xA0 SHL SUB DUP6 AND SWAP1 PUSH4 0xBC197C81 SWAP1 PUSH2 0x2FDE SWAP1 DUP10 SWAP1 DUP10 SWAP1 DUP9 SWAP1 DUP9 SWAP1 DUP9 SWAP1 PUSH1 0x4 ADD PUSH2 0x3FFE JUMP JUMPDEST PUSH1 0x20 PUSH1 0x40 MLOAD DUP1 DUP4 SUB DUP2 PUSH1 0x0 DUP8 DUP1 EXTCODESIZE ISZERO DUP1 ISZERO PUSH2 0x2FF8 JUMPI PUSH1 0x0 DUP1 REVERT JUMPDEST POP GAS CALL SWAP3 POP POP POP DUP1 ISZERO PUSH2 0x3028 JUMPI POP PUSH1 0x40 DUP1 MLOAD PUSH1 0x1F RETURNDATASIZE SWAP1 DUP2 ADD PUSH1 0x1F NOT AND DUP3 ADD SWAP1 SWAP3 MSTORE PUSH2 0x3025 SWAP2 DUP2 ADD SWAP1 PUSH2 0x3CA0 JUMP JUMPDEST PUSH1 0x1 JUMPDEST PUSH2 0x3034 JUMPI PUSH2 0x2DCB PUSH2 0x4601 JUMP JUMPDEST PUSH1 0x1 PUSH1 0x1 PUSH1 0xE0 SHL SUB NOT DUP2 AND PUSH4 0xBC197C81 PUSH1 0xE0 SHL EQ PUSH2 0x21DA JUMPI PUSH1 0x40 MLOAD PUSH3 0x461BCD PUSH1 0xE5 SHL DUP2 MSTORE PUSH1 0x4 ADD PUSH2 0x8D2 SWAP1 PUSH2 0x413B JUMP JUMPDEST PUSH1 0x3 SLOAD PUSH1 0x1 PUSH1 0xA0 SHL SWAP1 DIV PUSH1 0xFF AND PUSH2 0x15EB JUMPI PUSH1 0x40 MLOAD PUSH3 0x461BCD PUSH1 0xE5 SHL DUP2 MSTORE PUSH1 0x20 PUSH1 0x4 DUP3 ADD MSTORE PUSH1 0x14 PUSH1 0x24 DUP3 ADD MSTORE PUSH20 0x14185D5CD8589B194E881B9BDD081C185D5CD959 PUSH1 0x62 SHL PUSH1 0x44 DUP3 ADD MSTORE PUSH1 0x64 ADD PUSH2 0x8D2 JUMP JUMPDEST PUSH1 0x3 SLOAD PUSH1 0x1 PUSH1 0xA0 SHL SWAP1 DIV PUSH1 0xFF AND ISZERO PUSH2 0x15EB JUMPI PUSH1 0x40 MLOAD PUSH3 0x461BCD PUSH1 0xE5 SHL DUP2 MSTORE PUSH1 0x20 PUSH1 0x4 DUP3 ADD MSTORE PUSH1 0x10 PUSH1 0x24 DUP3 ADD MSTORE PUSH16 0x14185D5CD8589B194E881C185D5CD959 PUSH1 0x82 SHL PUSH1 0x44 DUP3 ADD MSTORE PUSH1 0x64 ADD PUSH2 0x8D2 JUMP JUMPDEST PUSH1 0x1 PUSH1 0x1 PUSH1 0xA0 SHL SUB DUP6 AND PUSH2 0x31A4 JUMPI PUSH1 0x0 JUMPDEST DUP4 MLOAD DUP2 LT ISZERO PUSH2 0x31A2 JUMPI DUP3 DUP2 DUP2 MLOAD DUP2 LT PUSH2 0x313B JUMPI PUSH4 0x4E487B71 PUSH1 0xE0 SHL PUSH1 0x0 MSTORE PUSH1 0x32 PUSH1 0x4 MSTORE PUSH1 0x24 PUSH1 0x0 REVERT JUMPDEST PUSH1 0x20 MUL PUSH1 0x20 ADD ADD MLOAD PUSH1 0x4 PUSH1 0x0 DUP7 DUP5 DUP2 MLOAD DUP2 LT PUSH2 0x3167 JUMPI PUSH4 0x4E487B71 PUSH1 0xE0 SHL PUSH1 0x0 MSTORE PUSH1 0x32 PUSH1 0x4 MSTORE PUSH1 0x24 PUSH1 0x0 REVERT JUMPDEST PUSH1 0x20 MUL PUSH1 0x20 ADD ADD MLOAD DUP2 MSTORE PUSH1 0x20 ADD SWAP1 DUP2 MSTORE PUSH1 0x20 ADD PUSH1 0x0 KECCAK256 PUSH1 0x0 DUP3 DUP3 SLOAD PUSH2 0x318C SWAP2 SWAP1 PUSH2 0x43C7 JUMP JUMPDEST SWAP1 SWAP2 SSTORE POP PUSH2 0x319B SWAP1 POP DUP2 PUSH2 0x4590 JUMP JUMPDEST SWAP1 POP PUSH2 0x3112 JUMP JUMPDEST POP JUMPDEST PUSH1 0x1 PUSH1 0x1 PUSH1 0xA0 SHL SUB DUP5 AND PUSH2 0x28B6 JUMPI PUSH1 0x0 JUMPDEST DUP4 MLOAD DUP2 LT ISZERO PUSH2 0x21DA JUMPI PUSH1 0x0 DUP5 DUP3 DUP2 MLOAD DUP2 LT PUSH2 0x31E0 JUMPI PUSH4 0x4E487B71 PUSH1 0xE0 SHL PUSH1 0x0 MSTORE PUSH1 0x32 PUSH1 0x4 MSTORE PUSH1 0x24 PUSH1 0x0 REVERT JUMPDEST PUSH1 0x20 MUL PUSH1 0x20 ADD ADD MLOAD SWAP1 POP PUSH1 0x0 DUP5 DUP4 DUP2 MLOAD DUP2 LT PUSH2 0x320C JUMPI PUSH4 0x4E487B71 PUSH1 0xE0 SHL PUSH1 0x0 MSTORE PUSH1 0x32 PUSH1 0x4 MSTORE PUSH1 0x24 PUSH1 0x0 REVERT JUMPDEST PUSH1 0x20 MUL PUSH1 0x20 ADD ADD MLOAD SWAP1 POP PUSH1 0x0 PUSH1 0x4 PUSH1 0x0 DUP5 DUP2 MSTORE PUSH1 0x20 ADD SWAP1 DUP2 MSTORE PUSH1 0x20 ADD PUSH1 0x0 KECCAK256 SLOAD SWAP1 POP DUP2 DUP2 LT ISZERO PUSH2 0x328F JUMPI PUSH1 0x40 MLOAD PUSH3 0x461BCD PUSH1 0xE5 SHL DUP2 MSTORE PUSH1 0x20 PUSH1 0x4 DUP3 ADD MSTORE PUSH1 0x28 PUSH1 0x24 DUP3 ADD MSTORE PUSH32 0x455243313135353A206275726E20616D6F756E74206578636565647320746F74 PUSH1 0x44 DUP3 ADD MSTORE PUSH8 0x616C537570706C79 PUSH1 0xC0 SHL PUSH1 0x64 DUP3 ADD MSTORE PUSH1 0x84 ADD PUSH2 0x8D2 JUMP JUMPDEST PUSH1 0x0 SWAP3 DUP4 MSTORE PUSH1 0x4 PUSH1 0x20 MSTORE PUSH1 0x40 SWAP1 SWAP3 KECCAK256 SWAP2 SUB SWAP1 SSTORE PUSH2 0x32AB DUP2 PUSH2 0x4590 JUMP JUMPDEST SWAP1 POP PUSH2 0x31B5 JUMP JUMPDEST PUSH1 0x0 ADDRESS PUSH1 0x1 PUSH1 0x1 PUSH1 0xA0 SHL SUB PUSH32 0x0 AND EQ DUP1 ISZERO PUSH2 0x330B JUMPI POP PUSH32 0x0 CHAINID EQ JUMPDEST ISZERO PUSH2 0x3335 JUMPI POP PUSH32 0x0 SWAP1 JUMP JUMPDEST POP PUSH1 0x40 DUP1 MLOAD PUSH32 0x0 PUSH1 0x20 DUP1 DUP4 ADD SWAP2 SWAP1 SWAP2 MSTORE PUSH32 0x0 DUP3 DUP5 ADD MSTORE PUSH32 0x0 PUSH1 0x60 DUP4 ADD MSTORE CHAINID PUSH1 0x80 DUP4 ADD MSTORE ADDRESS PUSH1 0xA0 DUP1 DUP5 ADD SWAP2 SWAP1 SWAP2 MSTORE DUP4 MLOAD DUP1 DUP5 SUB SWAP1 SWAP2 ADD DUP2 MSTORE PUSH1 0xC0 SWAP1 SWAP3 ADD SWAP1 SWAP3 MSTORE DUP1 MLOAD SWAP2 ADD KECCAK256 SWAP1 JUMP JUMPDEST PUSH1 0x0 DUP1 DUP3 MLOAD PUSH1 0x41 EQ ISZERO PUSH2 0x3410 JUMPI PUSH1 0x20 DUP4 ADD MLOAD PUSH1 0x40 DUP5 ADD MLOAD PUSH1 0x60 DUP6 ADD MLOAD PUSH1 0x0 BYTE PUSH2 0x3404 DUP8 DUP3 DUP6 DUP6 PUSH2 0x364A JUMP JUMPDEST SWAP5 POP SWAP5 POP POP POP POP PUSH2 0x3442 JUMP JUMPDEST DUP3 MLOAD PUSH1 0x40 EQ ISZERO PUSH2 0x343A JUMPI PUSH1 0x20 DUP4 ADD MLOAD PUSH1 0x40 DUP5 ADD MLOAD PUSH2 0x342F DUP7 DUP4 DUP4 PUSH2 0x3737 JUMP JUMPDEST SWAP4 POP SWAP4 POP POP POP PUSH2 0x3442 JUMP JUMPDEST POP PUSH1 0x0 SWAP1 POP PUSH1 0x2 JUMPDEST SWAP3 POP SWAP3 SWAP1 POP JUMP JUMPDEST PUSH1 0x0 DUP2 PUSH1 0x4 DUP2 GT ISZERO PUSH2 0x346B JUMPI PUSH4 0x4E487B71 PUSH1 0xE0 SHL PUSH1 0x0 MSTORE PUSH1 0x21 PUSH1 0x4 MSTORE PUSH1 0x24 PUSH1 0x0 REVERT JUMPDEST EQ ISZERO PUSH2 0x3474 JUMPI POP JUMP JUMPDEST PUSH1 0x1 DUP2 PUSH1 0x4 DUP2 GT ISZERO PUSH2 0x3496 JUMPI PUSH4 0x4E487B71 PUSH1 0xE0 SHL PUSH1 0x0 MSTORE PUSH1 0x21 PUSH1 0x4 MSTORE PUSH1 0x24 PUSH1 0x0 REVERT JUMPDEST EQ ISZERO PUSH2 0x34E4 JUMPI PUSH1 0x40 MLOAD PUSH3 0x461BCD PUSH1 0xE5 SHL DUP2 MSTORE PUSH1 0x20 PUSH1 0x4 DUP3 ADD MSTORE PUSH1 0x18 PUSH1 0x24 DUP3 ADD MSTORE PUSH32 0x45434453413A20696E76616C6964207369676E61747572650000000000000000 PUSH1 0x44 DUP3 ADD MSTORE PUSH1 0x64 ADD PUSH2 0x8D2 JUMP JUMPDEST PUSH1 0x2 DUP2 PUSH1 0x4 DUP2 GT ISZERO PUSH2 0x3506 JUMPI PUSH4 0x4E487B71 PUSH1 0xE0 SHL PUSH1 0x0 MSTORE PUSH1 0x21 PUSH1 0x4 MSTORE PUSH1 0x24 PUSH1 0x0 REVERT JUMPDEST EQ ISZERO PUSH2 0x3554 JUMPI PUSH1 0x40 MLOAD PUSH3 0x461BCD PUSH1 0xE5 SHL DUP2 MSTORE PUSH1 0x20 PUSH1 0x4 DUP3 ADD MSTORE PUSH1 0x1F PUSH1 0x24 DUP3 ADD MSTORE PUSH32 0x45434453413A20696E76616C6964207369676E6174757265206C656E67746800 PUSH1 0x44 DUP3 ADD MSTORE PUSH1 0x64 ADD PUSH2 0x8D2 JUMP JUMPDEST PUSH1 0x3 DUP2 PUSH1 0x4 DUP2 GT ISZERO PUSH2 0x3576 JUMPI PUSH4 0x4E487B71 PUSH1 0xE0 SHL PUSH1 0x0 MSTORE PUSH1 0x21 PUSH1 0x4 MSTORE PUSH1 0x24 PUSH1 0x0 REVERT JUMPDEST EQ ISZERO PUSH2 0x35CF JUMPI PUSH1 0x40 MLOAD PUSH3 0x461BCD PUSH1 0xE5 SHL DUP2 MSTORE PUSH1 0x20 PUSH1 0x4 DUP3 ADD MSTORE PUSH1 0x22 PUSH1 0x24 DUP3 ADD MSTORE PUSH32 0x45434453413A20696E76616C6964207369676E6174757265202773272076616C PUSH1 0x44 DUP3 ADD MSTORE PUSH2 0x7565 PUSH1 0xF0 SHL PUSH1 0x64 DUP3 ADD MSTORE PUSH1 0x84 ADD PUSH2 0x8D2 JUMP JUMPDEST PUSH1 0x4 DUP2 PUSH1 0x4 DUP2 GT ISZERO PUSH2 0x35F1 JUMPI PUSH4 0x4E487B71 PUSH1 0xE0 SHL PUSH1 0x0 MSTORE PUSH1 0x21 PUSH1 0x4 MSTORE PUSH1 0x24 PUSH1 0x0 REVERT JUMPDEST EQ ISZERO PUSH2 0xD50 JUMPI PUSH1 0x40 MLOAD PUSH3 0x461BCD PUSH1 0xE5 SHL DUP2 MSTORE PUSH1 0x20 PUSH1 0x4 DUP3 ADD MSTORE PUSH1 0x22 PUSH1 0x24 DUP3 ADD MSTORE PUSH32 0x45434453413A20696E76616C6964207369676E6174757265202776272076616C PUSH1 0x44 DUP3 ADD MSTORE PUSH2 0x7565 PUSH1 0xF0 SHL PUSH1 0x64 DUP3 ADD MSTORE PUSH1 0x84 ADD PUSH2 0x8D2 JUMP JUMPDEST PUSH1 0x0 DUP1 PUSH32 0x7FFFFFFFFFFFFFFFFFFFFFFFFFFFFFFF5D576E7357A4501DDFE92F46681B20A0 DUP4 GT ISZERO PUSH2 0x3681 JUMPI POP PUSH1 0x0 SWAP1 POP PUSH1 0x3 PUSH2 0x372E JUMP JUMPDEST DUP5 PUSH1 0xFF AND PUSH1 0x1B EQ ISZERO DUP1 ISZERO PUSH2 0x3699 JUMPI POP DUP5 PUSH1 0xFF AND PUSH1 0x1C EQ ISZERO JUMPDEST ISZERO PUSH2 0x36AA JUMPI POP PUSH1 0x0 SWAP1 POP PUSH1 0x4 PUSH2 0x372E JUMP JUMPDEST PUSH1 0x40 DUP1 MLOAD PUSH1 0x0 DUP1 DUP3 MSTORE PUSH1 0x20 DUP3 ADD DUP1 DUP5 MSTORE DUP10 SWAP1 MSTORE PUSH1 0xFF DUP9 AND SWAP3 DUP3 ADD SWAP3 SWAP1 SWAP3 MSTORE PUSH1 0x60 DUP2 ADD DUP7 SWAP1 MSTORE PUSH1 0x80 DUP2 ADD DUP6 SWAP1 MSTORE PUSH1 0x1 SWAP1 PUSH1 0xA0 ADD PUSH1 0x20 PUSH1 0x40 MLOAD PUSH1 0x20 DUP2 SUB SWAP1 DUP1 DUP5 SUB SWAP1 DUP6 GAS STATICCALL ISZERO DUP1 ISZERO PUSH2 0x36FE JUMPI RETURNDATASIZE PUSH1 0x0 DUP1 RETURNDATACOPY RETURNDATASIZE PUSH1 0x0 REVERT JUMPDEST POP POP PUSH1 0x40 MLOAD PUSH1 0x1F NOT ADD MLOAD SWAP2 POP POP PUSH1 0x1 PUSH1 0x1 PUSH1 0xA0 SHL SUB DUP2 AND PUSH2 0x3727 JUMPI PUSH1 0x0 PUSH1 0x1 SWAP3 POP SWAP3 POP POP PUSH2 0x372E JUMP JUMPDEST SWAP2 POP PUSH1 0x0 SWAP1 POP JUMPDEST SWAP5 POP SWAP5 SWAP3 POP POP POP JUMP JUMPDEST PUSH1 0x0 DUP1 PUSH1 0x1 PUSH1 0x1 PUSH1 0xFF SHL SUB DUP4 AND DUP2 PUSH2 0x3754 PUSH1 0xFF DUP7 SWAP1 SHR PUSH1 0x1B PUSH2 0x43C7 JUMP JUMPDEST SWAP1 POP PUSH2 0x3762 DUP8 DUP3 DUP9 DUP6 PUSH2 0x364A JUMP JUMPDEST SWAP4 POP SWAP4 POP POP POP SWAP4 POP SWAP4 SWAP2 POP POP JUMP JUMPDEST DUP3 DUP1 SLOAD PUSH2 0x377C SWAP1 PUSH2 0x4529 JUMP JUMPDEST SWAP1 PUSH1 0x0 MSTORE PUSH1 0x20 PUSH1 0x0 KECCAK256 SWAP1 PUSH1 0x1F ADD PUSH1 0x20 SWAP1 DIV DUP2 ADD SWAP3 DUP3 PUSH2 0x379E JUMPI PUSH1 0x0 DUP6 SSTORE PUSH2 0x37E4 JUMP JUMPDEST DUP3 PUSH1 0x1F LT PUSH2 0x37B7 JUMPI DUP1 MLOAD PUSH1 0xFF NOT AND DUP4 DUP1 ADD OR DUP6 SSTORE PUSH2 0x37E4 JUMP JUMPDEST DUP3 DUP1 ADD PUSH1 0x1 ADD DUP6 SSTORE DUP3 ISZERO PUSH2 0x37E4 JUMPI SWAP2 DUP3 ADD JUMPDEST DUP3 DUP2 GT ISZERO PUSH2 0x37E4 JUMPI DUP3 MLOAD DUP3 SSTORE SWAP2 PUSH1 0x20 ADD SWAP2 SWAP1 PUSH1 0x1 ADD SWAP1 PUSH2 0x37C9 JUMP JUMPDEST POP PUSH2 0x37F0 SWAP3 SWAP2 POP PUSH2 0x37F4 JUMP JUMPDEST POP SWAP1 JUMP JUMPDEST JUMPDEST DUP1 DUP3 GT ISZERO PUSH2 0x37F0 JUMPI PUSH1 0x0 DUP2 SSTORE PUSH1 0x1 ADD PUSH2 0x37F5 JUMP JUMPDEST PUSH1 0x0 DUP3 PUSH1 0x1F DUP4 ADD SLT PUSH2 0x3819 JUMPI DUP1 DUP2 REVERT JUMPDEST DUP2 CALLDATALOAD PUSH1 0x20 PUSH2 0x3826 DUP3 PUSH2 0x43A4 JUMP JUMPDEST PUSH1 0x40 MLOAD PUSH2 0x3833 DUP3 DUP3 PUSH2 0x4564 JUMP JUMPDEST DUP4 DUP2 MSTORE DUP3 DUP2 ADD SWAP2 POP DUP6 DUP4 ADD PUSH1 0x5 DUP6 SWAP1 SHL DUP8 ADD DUP5 ADD DUP9 LT ISZERO PUSH2 0x3852 JUMPI DUP6 DUP7 REVERT JUMPDEST DUP6 JUMPDEST DUP6 DUP2 LT ISZERO PUSH2 0x3870 JUMPI DUP2 CALLDATALOAD DUP5 MSTORE SWAP3 DUP5 ADD SWAP3 SWAP1 DUP5 ADD SWAP1 PUSH1 0x1 ADD PUSH2 0x3854 JUMP JUMPDEST POP SWAP1 SWAP8 SWAP7 POP POP POP POP POP POP POP JUMP JUMPDEST PUSH1 0x0 DUP3 PUSH1 0x1F DUP4 ADD SLT PUSH2 0x388D JUMPI DUP1 DUP2 REVERT JUMPDEST DUP2 CALLDATALOAD PUSH1 0x1 PUSH1 0x1 PUSH1 0x40 SHL SUB DUP2 GT ISZERO PUSH2 0x38A6 JUMPI PUSH2 0x38A6 PUSH2 0x45EB JUMP JUMPDEST PUSH1 0x40 MLOAD PUSH2 0x38BD PUSH1 0x1F DUP4 ADD PUSH1 0x1F NOT AND PUSH1 0x20 ADD DUP3 PUSH2 0x4564 JUMP JUMPDEST DUP2 DUP2 MSTORE DUP5 PUSH1 0x20 DUP4 DUP7 ADD ADD GT ISZERO PUSH2 0x38D1 JUMPI DUP3 DUP4 REVERT JUMPDEST DUP2 PUSH1 0x20 DUP6 ADD PUSH1 0x20 DUP4 ADD CALLDATACOPY SWAP1 DUP2 ADD PUSH1 0x20 ADD SWAP2 SWAP1 SWAP2 MSTORE SWAP3 SWAP2 POP POP JUMP JUMPDEST PUSH1 0x0 PUSH1 0x20 DUP3 DUP5 SUB SLT ISZERO PUSH2 0x38FC JUMPI DUP1 DUP2 REVERT JUMPDEST DUP2 CALLDATALOAD PUSH2 0x1DA9 DUP2 PUSH2 0x46A1 JUMP JUMPDEST PUSH1 0x0 DUP1 PUSH1 0x40 DUP4 DUP6 SUB SLT ISZERO PUSH2 0x3919 JUMPI DUP1 DUP2 REVERT JUMPDEST DUP3 CALLDATALOAD PUSH2 0x3924 DUP2 PUSH2 0x46A1 JUMP JUMPDEST SWAP5 PUSH1 0x20 SWAP4 SWAP1 SWAP4 ADD CALLDATALOAD SWAP4 POP POP POP JUMP JUMPDEST PUSH1 0x0 DUP1 PUSH1 0x40 DUP4 DUP6 SUB SLT ISZERO PUSH2 0x3944 JUMPI DUP2 DUP3 REVERT JUMPDEST DUP3 CALLDATALOAD PUSH2 0x394F DUP2 PUSH2 0x46A1 JUMP JUMPDEST SWAP2 POP PUSH1 0x20 DUP4 ADD CALLDATALOAD PUSH2 0x395F DUP2 PUSH2 0x46A1 JUMP JUMPDEST DUP1 SWAP2 POP POP SWAP3 POP SWAP3 SWAP1 POP JUMP JUMPDEST PUSH1 0x0 DUP1 PUSH1 0x0 DUP1 PUSH1 0x0 PUSH1 0xA0 DUP7 DUP9 SUB SLT ISZERO PUSH2 0x3981 JUMPI DUP1 DUP2 REVERT JUMPDEST DUP6 CALLDATALOAD PUSH2 0x398C DUP2 PUSH2 0x46A1 JUMP JUMPDEST SWAP5 POP PUSH1 0x20 DUP7 ADD CALLDATALOAD PUSH2 0x399C DUP2 PUSH2 0x46A1 JUMP JUMPDEST SWAP4 POP PUSH1 0x40 DUP7 ADD CALLDATALOAD PUSH1 0x1 PUSH1 0x1 PUSH1 0x40 SHL SUB DUP1 DUP3 GT ISZERO PUSH2 0x39B7 JUMPI DUP3 DUP4 REVERT JUMPDEST PUSH2 0x39C3 DUP10 DUP4 DUP11 ADD PUSH2 0x3809 JUMP JUMPDEST SWAP5 POP PUSH1 0x60 DUP9 ADD CALLDATALOAD SWAP2 POP DUP1 DUP3 GT ISZERO PUSH2 0x39D8 JUMPI DUP3 DUP4 REVERT JUMPDEST PUSH2 0x39E4 DUP10 DUP4 DUP11 ADD PUSH2 0x3809 JUMP JUMPDEST SWAP4 POP PUSH1 0x80 DUP9 ADD CALLDATALOAD SWAP2 POP DUP1 DUP3 GT ISZERO PUSH2 0x39F9 JUMPI DUP3 DUP4 REVERT JUMPDEST POP PUSH2 0x3A06 DUP9 DUP3 DUP10 ADD PUSH2 0x387D JUMP JUMPDEST SWAP2 POP POP SWAP3 SWAP6 POP SWAP3 SWAP6 SWAP1 SWAP4 POP JUMP JUMPDEST PUSH1 0x0 DUP1 PUSH1 0x0 DUP1 PUSH1 0x0 PUSH1 0xA0 DUP7 DUP9 SUB SLT ISZERO PUSH2 0x3A2A JUMPI DUP1 DUP2 REVERT JUMPDEST DUP6 CALLDATALOAD PUSH2 0x3A35 DUP2 PUSH2 0x46A1 JUMP JUMPDEST SWAP5 POP PUSH1 0x20 DUP7 ADD CALLDATALOAD PUSH2 0x3A45 DUP2 PUSH2 0x46A1 JUMP JUMPDEST SWAP4 POP PUSH1 0x40 DUP7 ADD CALLDATALOAD SWAP3 POP PUSH1 0x60 DUP7 ADD CALLDATALOAD SWAP2 POP PUSH1 0x80 DUP7 ADD CALLDATALOAD PUSH1 0x1 PUSH1 0x1 PUSH1 0x40 SHL SUB DUP2 GT ISZERO PUSH2 0x3A6D JUMPI DUP2 DUP3 REVERT JUMPDEST PUSH2 0x3A06 DUP9 DUP3 DUP10 ADD PUSH2 0x387D JUMP JUMPDEST PUSH1 0x0 DUP1 PUSH1 0x0 PUSH1 0x60 DUP5 DUP7 SUB SLT ISZERO PUSH2 0x3A8D JUMPI DUP3 DUP4 REVERT JUMPDEST DUP4 CALLDATALOAD PUSH2 0x3A98 DUP2 PUSH2 0x46A1 JUMP JUMPDEST SWAP3 POP PUSH1 0x20 DUP5 ADD CALLDATALOAD PUSH1 0x1 PUSH1 0x1 PUSH1 0x40 SHL SUB DUP1 DUP3 GT ISZERO PUSH2 0x3AB3 JUMPI DUP4 DUP5 REVERT JUMPDEST PUSH2 0x3ABF DUP8 DUP4 DUP9 ADD PUSH2 0x3809 JUMP JUMPDEST SWAP4 POP PUSH1 0x40 DUP7 ADD CALLDATALOAD SWAP2 POP DUP1 DUP3 GT ISZERO PUSH2 0x3AD4 JUMPI DUP3 DUP4 REVERT JUMPDEST POP PUSH2 0x3AE1 DUP7 DUP3 DUP8 ADD PUSH2 0x3809 JUMP JUMPDEST SWAP2 POP POP SWAP3 POP SWAP3 POP SWAP3 JUMP JUMPDEST PUSH1 0x0 DUP1 PUSH1 0x40 DUP4 DUP6 SUB SLT ISZERO PUSH2 0x3AFD JUMPI DUP2 DUP3 REVERT JUMPDEST DUP3 CALLDATALOAD PUSH2 0x3B08 DUP2 PUSH2 0x46A1 JUMP JUMPDEST SWAP2 POP PUSH1 0x20 DUP4 ADD CALLDATALOAD DUP1 ISZERO ISZERO DUP2 EQ PUSH2 0x395F JUMPI DUP2 DUP3 REVERT JUMPDEST PUSH1 0x0 DUP1 PUSH1 0x40 DUP4 DUP6 SUB SLT ISZERO PUSH2 0x3919 JUMPI DUP2 DUP3 REVERT JUMPDEST PUSH1 0x0 DUP1 PUSH1 0x0 PUSH1 0x60 DUP5 DUP7 SUB SLT ISZERO PUSH2 0x3B42 JUMPI DUP1 DUP2 REVERT JUMPDEST DUP4 CALLDATALOAD PUSH2 0x3B4D DUP2 PUSH2 0x46A1 JUMP JUMPDEST SWAP6 PUSH1 0x20 DUP6 ADD CALLDATALOAD SWAP6 POP PUSH1 0x40 SWAP1 SWAP5 ADD CALLDATALOAD SWAP4 SWAP3 POP POP POP JUMP JUMPDEST PUSH1 0x0 DUP1 PUSH1 0x40 DUP4 DUP6 SUB SLT ISZERO PUSH2 0x3B74 JUMPI DUP2 DUP3 REVERT JUMPDEST DUP3 CALLDATALOAD PUSH1 0x1 PUSH1 0x1 PUSH1 0x40 SHL SUB DUP1 DUP3 GT ISZERO PUSH2 0x3B8A JUMPI DUP4 DUP5 REVERT JUMPDEST DUP2 DUP6 ADD SWAP2 POP DUP6 PUSH1 0x1F DUP4 ADD SLT PUSH2 0x3B9D JUMPI DUP4 DUP5 REVERT JUMPDEST DUP2 CALLDATALOAD PUSH1 0x20 PUSH2 0x3BAA DUP3 PUSH2 0x43A4 JUMP JUMPDEST PUSH1 0x40 MLOAD PUSH2 0x3BB7 DUP3 DUP3 PUSH2 0x4564 JUMP JUMPDEST DUP4 DUP2 MSTORE DUP3 DUP2 ADD SWAP2 POP DUP6 DUP4 ADD PUSH1 0x5 DUP6 SWAP1 SHL DUP8 ADD DUP5 ADD DUP12 LT ISZERO PUSH2 0x3BD6 JUMPI DUP9 DUP10 REVERT JUMPDEST DUP9 SWAP7 POP JUMPDEST DUP5 DUP8 LT ISZERO PUSH2 0x3C01 JUMPI DUP1 CALLDATALOAD PUSH2 0x3BED DUP2 PUSH2 0x46A1 JUMP JUMPDEST DUP4 MSTORE PUSH1 0x1 SWAP7 SWAP1 SWAP7 ADD SWAP6 SWAP2 DUP4 ADD SWAP2 DUP4 ADD PUSH2 0x3BDA JUMP JUMPDEST POP SWAP7 POP POP DUP7 ADD CALLDATALOAD SWAP3 POP POP DUP1 DUP3 GT ISZERO PUSH2 0x3C17 JUMPI DUP3 DUP4 REVERT JUMPDEST POP PUSH2 0x3C24 DUP6 DUP3 DUP7 ADD PUSH2 0x3809 JUMP JUMPDEST SWAP2 POP POP SWAP3 POP SWAP3 SWAP1 POP JUMP JUMPDEST PUSH1 0x0 DUP1 PUSH1 0x40 DUP4 DUP6 SUB SLT ISZERO PUSH2 0x3C40 JUMPI DUP2 DUP3 REVERT JUMPDEST DUP3 CALLDATALOAD PUSH1 0x1 PUSH1 0x1 PUSH1 0x40 SHL SUB DUP1 DUP3 GT ISZERO PUSH2 0x3C56 JUMPI DUP4 DUP5 REVERT JUMPDEST PUSH2 0x3C62 DUP7 DUP4 DUP8 ADD PUSH2 0x3809 JUMP JUMPDEST SWAP4 POP PUSH1 0x20 DUP6 ADD CALLDATALOAD SWAP2 POP DUP1 DUP3 GT ISZERO PUSH2 0x3C77 JUMPI DUP3 DUP4 REVERT JUMPDEST POP PUSH2 0x3C24 DUP6 DUP3 DUP7 ADD PUSH2 0x387D JUMP JUMPDEST PUSH1 0x0 PUSH1 0x20 DUP3 DUP5 SUB SLT ISZERO PUSH2 0x3C95 JUMPI DUP1 DUP2 REVERT JUMPDEST DUP2 CALLDATALOAD PUSH2 0x1DA9 DUP2 PUSH2 0x46B6 JUMP JUMPDEST PUSH1 0x0 PUSH1 0x20 DUP3 DUP5 SUB SLT ISZERO PUSH2 0x3CB1 JUMPI DUP1 DUP2 REVERT JUMPDEST DUP2 MLOAD PUSH2 0x1DA9 DUP2 PUSH2 0x46B6 JUMP JUMPDEST PUSH1 0x0 PUSH1 0x20 DUP3 DUP5 SUB SLT ISZERO PUSH2 0x3CCD JUMPI DUP1 DUP2 REVERT JUMPDEST DUP2 CALLDATALOAD PUSH1 0x1 PUSH1 0x1 PUSH1 0x40 SHL SUB DUP2 GT ISZERO PUSH2 0x3CE2 JUMPI DUP2 DUP3 REVERT JUMPDEST PUSH2 0x3CEE DUP5 DUP3 DUP6 ADD PUSH2 0x387D JUMP JUMPDEST SWAP5 SWAP4 POP POP POP POP JUMP JUMPDEST PUSH1 0x0 DUP1 PUSH1 0x40 DUP4 DUP6 SUB SLT ISZERO PUSH2 0x3D08 JUMPI DUP2 DUP3 REVERT JUMPDEST DUP3 CALLDATALOAD PUSH1 0x1 PUSH1 0x1 PUSH1 0x40 SHL SUB DUP2 GT ISZERO PUSH2 0x3D1D JUMPI DUP3 DUP4 REVERT JUMPDEST PUSH2 0x3D29 DUP6 DUP3 DUP7 ADD PUSH2 0x387D JUMP JUMPDEST SWAP6 PUSH1 0x20 SWAP5 SWAP1 SWAP5 ADD CALLDATALOAD SWAP5 POP POP POP POP JUMP JUMPDEST PUSH1 0x0 DUP1 PUSH1 0x0 PUSH1 0x60 DUP5 DUP7 SUB SLT ISZERO PUSH2 0x3D4C JUMPI DUP1 DUP2 REVERT JUMPDEST DUP4 CALLDATALOAD PUSH1 0x1 PUSH1 0x1 PUSH1 0x40 SHL SUB DUP1 DUP3 GT ISZERO PUSH2 0x3D62 JUMPI DUP3 DUP4 REVERT JUMPDEST PUSH2 0x3D6E DUP8 DUP4 DUP9 ADD PUSH2 0x387D JUMP JUMPDEST SWAP5 POP PUSH1 0x20 DUP7 ADD CALLDATALOAD SWAP4 POP PUSH1 0x40 DUP7 ADD CALLDATALOAD SWAP2 POP DUP1 DUP3 GT ISZERO PUSH2 0x3D8A JUMPI DUP3 DUP4 REVERT JUMPDEST POP PUSH2 0x3AE1 DUP7 DUP3 DUP8 ADD PUSH2 0x387D JUMP JUMPDEST PUSH1 0x0 DUP1 PUSH1 0x0 DUP1 PUSH1 0x0 DUP1 PUSH1 0xC0 DUP8 DUP10 SUB SLT ISZERO PUSH2 0x3DAF JUMPI DUP4 DUP5 REVERT JUMPDEST DUP7 CALLDATALOAD PUSH1 0x1 PUSH1 0x1 PUSH1 0x40 SHL SUB DUP1 DUP3 GT ISZERO PUSH2 0x3DC5 JUMPI DUP6 DUP7 REVERT JUMPDEST PUSH2 0x3DD1 DUP11 DUP4 DUP12 ADD PUSH2 0x387D JUMP JUMPDEST SWAP8 POP PUSH1 0x20 DUP10 ADD CALLDATALOAD SWAP7 POP PUSH1 0x40 DUP10 ADD CALLDATALOAD SWAP2 POP DUP1 DUP3 GT ISZERO PUSH2 0x3DED JUMPI DUP6 DUP7 REVERT JUMPDEST PUSH2 0x3DF9 DUP11 DUP4 DUP12 ADD PUSH2 0x387D JUMP JUMPDEST SWAP6 POP PUSH1 0x60 DUP10 ADD CALLDATALOAD SWAP2 POP DUP1 DUP3 GT ISZERO PUSH2 0x3E0E JUMPI DUP3 DUP4 REVERT JUMPDEST PUSH2 0x3E1A DUP11 DUP4 DUP12 ADD PUSH2 0x387D JUMP JUMPDEST SWAP5 POP PUSH1 0x80 DUP10 ADD CALLDATALOAD SWAP4 POP PUSH1 0xA0 DUP10 ADD CALLDATALOAD SWAP2 POP DUP1 DUP3 GT ISZERO PUSH2 0x3E36 JUMPI DUP3 DUP4 REVERT JUMPDEST POP PUSH2 0x3E43 DUP10 DUP3 DUP11 ADD PUSH2 0x387D JUMP JUMPDEST SWAP2 POP POP SWAP3 SWAP6 POP SWAP3 SWAP6 POP SWAP3 SWAP6 JUMP JUMPDEST PUSH1 0x0 PUSH1 0x20 DUP3 DUP5 SUB SLT ISZERO PUSH2 0x3E61 JUMPI DUP1 DUP2 REVERT JUMPDEST POP CALLDATALOAD SWAP2 SWAP1 POP JUMP JUMPDEST PUSH1 0x0 PUSH1 0x20 DUP3 DUP5 SUB SLT ISZERO PUSH2 0x3E79 JUMPI DUP1 DUP2 REVERT JUMPDEST POP MLOAD SWAP2 SWAP1 POP JUMP JUMPDEST PUSH1 0x0 DUP1 PUSH1 0x40 DUP4 DUP6 SUB SLT ISZERO PUSH2 0x3E92 JUMPI DUP2 DUP3 REVERT JUMPDEST DUP3 CALLDATALOAD SWAP2 POP PUSH1 0x20 DUP4 ADD CALLDATALOAD PUSH1 0x1 PUSH1 0x1 PUSH1 0x40 SHL SUB DUP2 GT ISZERO PUSH2 0x3EAE JUMPI DUP2 DUP3 REVERT JUMPDEST PUSH2 0x3C24 DUP6 DUP3 DUP7 ADD PUSH2 0x387D JUMP JUMPDEST PUSH1 0x0 DUP2 MLOAD DUP1 DUP5 MSTORE PUSH1 0x20 DUP1 DUP6 ADD SWAP5 POP DUP1 DUP5 ADD DUP4 JUMPDEST DUP4 DUP2 LT ISZERO PUSH2 0x3EE9 JUMPI DUP2 MLOAD DUP8 MSTORE SWAP6 DUP3 ADD SWAP6 SWAP1 DUP3 ADD SWAP1 PUSH1 0x1 ADD PUSH2 0x3ECD JUMP JUMPDEST POP SWAP5 SWAP6 SWAP5 POP POP POP POP POP JUMP JUMPDEST PUSH1 0x0 DUP2 MLOAD DUP1 DUP5 MSTORE PUSH2 0x3F0C DUP2 PUSH1 0x20 DUP7 ADD PUSH1 0x20 DUP7 ADD PUSH2 0x44FD JUMP JUMPDEST PUSH1 0x1F ADD PUSH1 0x1F NOT AND SWAP3 SWAP1 SWAP3 ADD PUSH1 0x20 ADD SWAP3 SWAP2 POP POP JUMP JUMPDEST PUSH1 0x0 DUP2 MLOAD PUSH2 0x3F32 DUP2 DUP6 PUSH1 0x20 DUP7 ADD PUSH2 0x44FD JUMP JUMPDEST SWAP3 SWAP1 SWAP3 ADD SWAP3 SWAP2 POP POP JUMP JUMPDEST PUSH1 0x0 DUP3 MLOAD PUSH2 0x3F4E DUP2 DUP5 PUSH1 0x20 DUP8 ADD PUSH2 0x44FD JUMP JUMPDEST SWAP2 SWAP1 SWAP2 ADD SWAP3 SWAP2 POP POP JUMP JUMPDEST PUSH1 0x0 DUP1 DUP5 SLOAD DUP3 PUSH1 0x1 DUP3 DUP2 SHR SWAP2 POP DUP1 DUP4 AND DUP1 PUSH2 0x3F74 JUMPI PUSH1 0x7F DUP4 AND SWAP3 POP JUMPDEST PUSH1 0x20 DUP1 DUP5 LT DUP3 EQ ISZERO PUSH2 0x3F94 JUMPI PUSH4 0x4E487B71 PUSH1 0xE0 SHL DUP8 MSTORE PUSH1 0x22 PUSH1 0x4 MSTORE PUSH1 0x24 DUP8 REVERT JUMPDEST DUP2 DUP1 ISZERO PUSH2 0x3FA8 JUMPI PUSH1 0x1 DUP2 EQ PUSH2 0x3FB9 JUMPI PUSH2 0x3FE5 JUMP JUMPDEST PUSH1 0xFF NOT DUP7 AND DUP10 MSTORE DUP5 DUP10 ADD SWAP7 POP PUSH2 0x3FE5 JUMP JUMPDEST PUSH1 0x0 DUP12 DUP2 MSTORE PUSH1 0x20 SWAP1 KECCAK256 DUP9 JUMPDEST DUP7 DUP2 LT ISZERO PUSH2 0x3FDD JUMPI DUP2 SLOAD DUP12 DUP3 ADD MSTORE SWAP1 DUP6 ADD SWAP1 DUP4 ADD PUSH2 0x3FC4 JUMP JUMPDEST POP POP DUP5 DUP10 ADD SWAP7 POP JUMPDEST POP POP POP POP POP POP PUSH2 0x3FF5 DUP2 DUP6 PUSH2 0x3F20 JUMP JUMPDEST SWAP6 SWAP5 POP POP POP POP POP JUMP JUMPDEST PUSH1 0x1 PUSH1 0x1 PUSH1 0xA0 SHL SUB DUP7 DUP2 AND DUP3 MSTORE DUP6 AND PUSH1 0x20 DUP3 ADD MSTORE PUSH1 0xA0 PUSH1 0x40 DUP3 ADD DUP2 SWAP1 MSTORE PUSH1 0x0 SWAP1 PUSH2 0x402A SWAP1 DUP4 ADD DUP7 PUSH2 0x3EBA JUMP JUMPDEST DUP3 DUP2 SUB PUSH1 0x60 DUP5 ADD MSTORE PUSH2 0x403C DUP2 DUP7 PUSH2 0x3EBA JUMP JUMPDEST SWAP1 POP DUP3 DUP2 SUB PUSH1 0x80 DUP5 ADD MSTORE PUSH2 0x4050 DUP2 DUP6 PUSH2 0x3EF4 JUMP JUMPDEST SWAP9 SWAP8 POP POP POP POP POP POP POP POP JUMP JUMPDEST PUSH1 0x1 PUSH1 0x1 PUSH1 0xA0 SHL SUB DUP7 DUP2 AND DUP3 MSTORE DUP6 AND PUSH1 0x20 DUP3 ADD MSTORE PUSH1 0x40 DUP2 ADD DUP5 SWAP1 MSTORE PUSH1 0x60 DUP2 ADD DUP4 SWAP1 MSTORE PUSH1 0xA0 PUSH1 0x80 DUP3 ADD DUP2 SWAP1 MSTORE PUSH1 0x0 SWAP1 PUSH2 0x4096 SWAP1 DUP4 ADD DUP5 PUSH2 0x3EF4 JUMP JUMPDEST SWAP8 SWAP7 POP POP POP POP POP POP POP JUMP JUMPDEST PUSH1 0x20 DUP2 MSTORE PUSH1 0x0 PUSH2 0x1DA9 PUSH1 0x20 DUP4 ADD DUP5 PUSH2 0x3EBA JUMP JUMPDEST PUSH1 0x40 DUP2 MSTORE PUSH1 0x0 PUSH2 0x40C7 PUSH1 0x40 DUP4 ADD DUP6 PUSH2 0x3EBA JUMP JUMPDEST DUP3 DUP2 SUB PUSH1 0x20 DUP5 ADD MSTORE PUSH2 0x3FF5 DUP2 DUP6 PUSH2 0x3EBA JUMP JUMPDEST PUSH1 0x20 DUP2 MSTORE PUSH1 0x0 PUSH2 0x1DA9 PUSH1 0x20 DUP4 ADD DUP5 PUSH2 0x3EF4 JUMP JUMPDEST PUSH1 0x20 DUP1 DUP3 MSTORE PUSH1 0x2F SWAP1 DUP3 ADD MSTORE PUSH32 0x455243313135353A2063616C6C6572206973206E6F7420746F6B656E206F776E PUSH1 0x40 DUP3 ADD MSTORE PUSH15 0x195C881B9BDC88185C1C1C9BDD9959 PUSH1 0x8A SHL PUSH1 0x60 DUP3 ADD MSTORE PUSH1 0x80 ADD SWAP1 JUMP JUMPDEST PUSH1 0x20 DUP1 DUP3 MSTORE PUSH1 0x28 SWAP1 DUP3 ADD MSTORE PUSH32 0x455243313135353A204552433131353552656365697665722072656A65637465 PUSH1 0x40 DUP3 ADD MSTORE PUSH8 0x6420746F6B656E73 PUSH1 0xC0 SHL PUSH1 0x60 DUP3 ADD MSTORE PUSH1 0x80 ADD SWAP1 JUMP JUMPDEST PUSH1 0x20 DUP1 DUP3 MSTORE PUSH1 0x24 SWAP1 DUP3 ADD MSTORE PUSH32 0x455243313135353A206275726E20616D6F756E7420657863656564732062616C PUSH1 0x40 DUP3 ADD MSTORE PUSH4 0x616E6365 PUSH1 0xE0 SHL PUSH1 0x60 DUP3 ADD MSTORE PUSH1 0x80 ADD SWAP1 JUMP JUMPDEST PUSH1 0x20 DUP1 DUP3 MSTORE PUSH1 0x25 SWAP1 DUP3 ADD MSTORE PUSH32 0x455243313135353A207472616E7366657220746F20746865207A65726F206164 PUSH1 0x40 DUP3 ADD MSTORE PUSH5 0x6472657373 PUSH1 0xD8 SHL PUSH1 0x60 DUP3 ADD MSTORE PUSH1 0x80 ADD SWAP1 JUMP JUMPDEST PUSH1 0x20 DUP1 DUP3 MSTORE PUSH1 0x23 SWAP1 DUP3 ADD MSTORE PUSH32 0x455243313135353A206275726E2066726F6D20746865207A65726F2061646472 PUSH1 0x40 DUP3 ADD MSTORE PUSH3 0x657373 PUSH1 0xE8 SHL PUSH1 0x60 DUP3 ADD MSTORE PUSH1 0x80 ADD SWAP1 JUMP JUMPDEST PUSH1 0x20 DUP1 DUP3 MSTORE PUSH1 0x2A SWAP1 DUP3 ADD MSTORE PUSH32 0x455243313135353A20696E73756666696369656E742062616C616E636520666F PUSH1 0x40 DUP3 ADD MSTORE PUSH10 0x39103A3930B739B332B9 PUSH1 0xB1 SHL PUSH1 0x60 DUP3 ADD MSTORE PUSH1 0x80 ADD SWAP1 JUMP JUMPDEST PUSH1 0x20 DUP1 DUP3 MSTORE PUSH1 0x2B SWAP1 DUP3 ADD MSTORE PUSH32 0x4D696E74696E672066726F6D20736D61727420636F6E74726163747320697320 PUSH1 0x40 DUP3 ADD MSTORE PUSH11 0x1B9BDD08185B1B1BDDD959 PUSH1 0xAA SHL PUSH1 0x60 DUP3 ADD MSTORE PUSH1 0x80 ADD SWAP1 JUMP JUMPDEST PUSH1 0x20 DUP1 DUP3 MSTORE PUSH1 0x28 SWAP1 DUP3 ADD MSTORE PUSH32 0x455243313135353A2069647320616E6420616D6F756E7473206C656E67746820 PUSH1 0x40 DUP3 ADD MSTORE PUSH8 0xDAD2E6DAC2E8C6D PUSH1 0xC3 SHL PUSH1 0x60 DUP3 ADD MSTORE PUSH1 0x80 ADD SWAP1 JUMP JUMPDEST PUSH1 0x20 DUP1 DUP3 MSTORE PUSH1 0x21 SWAP1 DUP3 ADD MSTORE PUSH32 0x455243313135353A206D696E7420746F20746865207A65726F20616464726573 PUSH1 0x40 DUP3 ADD MSTORE PUSH1 0x73 PUSH1 0xF8 SHL PUSH1 0x60 DUP3 ADD MSTORE PUSH1 0x80 ADD SWAP1 JUMP JUMPDEST PUSH1 0x20 DUP1 DUP3 MSTORE PUSH1 0x1F SWAP1 DUP3 ADD MSTORE PUSH32 0x5265656E7472616E637947756172643A207265656E7472616E742063616C6C00 PUSH1 0x40 DUP3 ADD MSTORE PUSH1 0x60 ADD SWAP1 JUMP JUMPDEST PUSH1 0x0 PUSH1 0x1 PUSH1 0x1 PUSH1 0x40 SHL SUB DUP3 GT ISZERO PUSH2 0x43BD JUMPI PUSH2 0x43BD PUSH2 0x45EB JUMP JUMPDEST POP PUSH1 0x5 SHL PUSH1 0x20 ADD SWAP1 JUMP JUMPDEST PUSH1 0x0 DUP3 NOT DUP3 GT ISZERO PUSH2 0x43DA JUMPI PUSH2 0x43DA PUSH2 0x45BF JUMP JUMPDEST POP ADD SWAP1 JUMP JUMPDEST PUSH1 0x0 DUP3 PUSH2 0x43EE JUMPI PUSH2 0x43EE PUSH2 0x45D5 JUMP JUMPDEST POP DIV SWAP1 JUMP JUMPDEST PUSH1 0x1 DUP2 DUP2 JUMPDEST DUP1 DUP6 GT ISZERO PUSH2 0x442E JUMPI DUP2 PUSH1 0x0 NOT DIV DUP3 GT ISZERO PUSH2 0x4414 JUMPI PUSH2 0x4414 PUSH2 0x45BF JUMP JUMPDEST DUP1 DUP6 AND ISZERO PUSH2 0x4421 JUMPI SWAP2 DUP2 MUL SWAP2 JUMPDEST SWAP4 DUP5 SHR SWAP4 SWAP1 DUP1 MUL SWAP1 PUSH2 0x43F8 JUMP JUMPDEST POP SWAP3 POP SWAP3 SWAP1 POP JUMP JUMPDEST PUSH1 0x0 PUSH2 0x1DA9 DUP4 DUP4 PUSH1 0x0 DUP3 PUSH2 0x444C JUMPI POP PUSH1 0x1 PUSH2 0x8FE JUMP JUMPDEST DUP2 PUSH2 0x4459 JUMPI POP PUSH1 0x0 PUSH2 0x8FE JUMP JUMPDEST DUP2 PUSH1 0x1 DUP2 EQ PUSH2 0x446F JUMPI PUSH1 0x2 DUP2 EQ PUSH2 0x4479 JUMPI PUSH2 0x4495 JUMP JUMPDEST PUSH1 0x1 SWAP2 POP POP PUSH2 0x8FE JUMP JUMPDEST PUSH1 0xFF DUP5 GT ISZERO PUSH2 0x448A JUMPI PUSH2 0x448A PUSH2 0x45BF JUMP JUMPDEST POP POP PUSH1 0x1 DUP3 SHL PUSH2 0x8FE JUMP JUMPDEST POP PUSH1 0x20 DUP4 LT PUSH2 0x133 DUP4 LT AND PUSH1 0x4E DUP5 LT PUSH1 0xB DUP5 LT AND OR ISZERO PUSH2 0x44B8 JUMPI POP DUP2 DUP2 EXP PUSH2 0x8FE JUMP JUMPDEST PUSH2 0x44C2 DUP4 DUP4 PUSH2 0x43F3 JUMP JUMPDEST DUP1 PUSH1 0x0 NOT DIV DUP3 GT ISZERO PUSH2 0x44D6 JUMPI PUSH2 0x44D6 PUSH2 0x45BF JUMP JUMPDEST MUL SWAP4 SWAP3 POP POP POP JUMP JUMPDEST PUSH1 0x0 DUP2 PUSH1 0x0 NOT DIV DUP4 GT DUP3 ISZERO ISZERO AND ISZERO PUSH2 0x44F8 JUMPI PUSH2 0x44F8 PUSH2 0x45BF JUMP JUMPDEST POP MUL SWAP1 JUMP JUMPDEST PUSH1 0x0 JUMPDEST DUP4 DUP2 LT ISZERO PUSH2 0x4518 JUMPI DUP2 DUP2 ADD MLOAD DUP4 DUP3 ADD MSTORE PUSH1 0x20 ADD PUSH2 0x4500 JUMP JUMPDEST DUP4 DUP2 GT ISZERO PUSH2 0x20E9 JUMPI POP POP PUSH1 0x0 SWAP2 ADD MSTORE JUMP JUMPDEST PUSH1 0x1 DUP2 DUP2 SHR SWAP1 DUP3 AND DUP1 PUSH2 0x453D JUMPI PUSH1 0x7F DUP3 AND SWAP2 POP JUMPDEST PUSH1 0x20 DUP3 LT DUP2 EQ ISZERO PUSH2 0x455E JUMPI PUSH4 0x4E487B71 PUSH1 0xE0 SHL PUSH1 0x0 MSTORE PUSH1 0x22 PUSH1 0x4 MSTORE PUSH1 0x24 PUSH1 0x0 REVERT JUMPDEST POP SWAP2 SWAP1 POP JUMP JUMPDEST PUSH1 0x1F DUP3 ADD PUSH1 0x1F NOT AND DUP2 ADD PUSH1 0x1 PUSH1 0x1 PUSH1 0x40 SHL SUB DUP2 GT DUP3 DUP3 LT OR ISZERO PUSH2 0x4589 JUMPI PUSH2 0x4589 PUSH2 0x45EB JUMP JUMPDEST PUSH1 0x40 MSTORE POP POP JUMP JUMPDEST PUSH1 0x0 PUSH1 0x0 NOT DUP3 EQ ISZERO PUSH2 0x45A4 JUMPI PUSH2 0x45A4 PUSH2 0x45BF JUMP JUMPDEST POP PUSH1 0x1 ADD SWAP1 JUMP JUMPDEST PUSH1 0x0 DUP3 PUSH2 0x45BA JUMPI PUSH2 0x45BA PUSH2 0x45D5 JUMP JUMPDEST POP MOD SWAP1 JUMP JUMPDEST PUSH4 0x4E487B71 PUSH1 0xE0 SHL PUSH1 0x0 MSTORE PUSH1 0x11 PUSH1 0x4 MSTORE PUSH1 0x24 PUSH1 0x0 REVERT JUMPDEST PUSH4 0x4E487B71 PUSH1 0xE0 SHL PUSH1 0x0 MSTORE PUSH1 0x12 PUSH1 0x4 MSTORE PUSH1 0x24 PUSH1 0x0 REVERT JUMPDEST PUSH4 0x4E487B71 PUSH1 0xE0 SHL PUSH1 0x0 MSTORE PUSH1 0x41 PUSH1 0x4 MSTORE PUSH1 0x24 PUSH1 0x0 REVERT JUMPDEST PUSH1 0x0 PUSH1 0x3 RETURNDATASIZE GT ISZERO PUSH2 0xD72 JUMPI PUSH1 0x4 DUP2 DUP3 RETURNDATACOPY MLOAD PUSH1 0xE0 SHR SWAP1 JUMP JUMPDEST PUSH1 0x0 PUSH1 0x44 RETURNDATASIZE LT ISZERO PUSH2 0x4626 JUMPI SWAP1 JUMP JUMPDEST PUSH1 0x40 MLOAD PUSH1 0x3 NOT RETURNDATASIZE DUP2 ADD PUSH1 0x4 DUP4 RETURNDATACOPY DUP2 MLOAD RETURNDATASIZE PUSH1 0x1 PUSH1 0x1 PUSH1 0x40 SHL SUB DUP2 PUSH1 0x24 DUP5 ADD GT DUP2 DUP5 GT OR ISZERO PUSH2 0x4655 JUMPI POP POP POP POP POP SWAP1 JUMP JUMPDEST DUP3 DUP6 ADD SWAP2 POP DUP2 MLOAD DUP2 DUP2 GT ISZERO PUSH2 0x466D JUMPI POP POP POP POP POP POP SWAP1 JUMP JUMPDEST DUP5 RETURNDATASIZE DUP8 ADD ADD PUSH1 0x20 DUP3 DUP6 ADD ADD GT ISZERO PUSH2 0x4687 JUMPI POP POP POP POP POP POP SWAP1 JUMP JUMPDEST PUSH2 0x4696 PUSH1 0x20 DUP3 DUP7 ADD ADD DUP8 PUSH2 0x4564 JUMP JUMPDEST POP SWAP1 SWAP6 SWAP5 POP POP POP POP POP JUMP JUMPDEST PUSH1 0x1 PUSH1 0x1 PUSH1 0xA0 SHL SUB DUP2 AND DUP2 EQ PUSH2 0xD50 JUMPI PUSH1 0x0 DUP1 REVERT JUMPDEST PUSH1 0x1 PUSH1 0x1 PUSH1 0xE0 SHL SUB NOT DUP2 AND DUP2 EQ PUSH2 0xD50 JUMPI PUSH1 0x0 DUP1 REVERT INVALID LOG2 PUSH5 0x6970667358 0x22 SLT KECCAK256 DUP8 0xD0 SIGNEXTEND SWAP15 DUP13 0xC4 SWAP7 PUSH32 0x4265A70E6B33A98DD81E5D7FE09EE9659094D34B47B34C3164736F6C63430008 DIV STOP CALLER PUSH1 0x80 PUSH1 0x40 MSTORE CALLVALUE DUP1 ISZERO PUSH2 0x10 JUMPI PUSH1 0x0 DUP1 REVERT JUMPDEST POP PUSH2 0x1A CALLER PUSH2 0x1F JUMP JUMPDEST PUSH2 0x6F JUMP JUMPDEST PUSH1 0x0 DUP1 SLOAD PUSH1 0x1 PUSH1 0x1 PUSH1 0xA0 SHL SUB DUP4 DUP2 AND PUSH1 0x1 PUSH1 0x1 PUSH1 0xA0 SHL SUB NOT DUP4 AND DUP2 OR DUP5 SSTORE PUSH1 0x40 MLOAD SWAP2 SWAP1 SWAP3 AND SWAP3 DUP4 SWAP2 PUSH32 0x8BE0079C531659141344CD1FD0A4F28419497F9722A3DAAFE3B4186F6B6457E0 SWAP2 SWAP1 LOG3 POP POP JUMP JUMPDEST PUSH2 0x50A DUP1 PUSH2 0x7E PUSH1 0x0 CODECOPY PUSH1 0x0 RETURN INVALID PUSH1 0x80 PUSH1 0x40 MSTORE PUSH1 0x4 CALLDATASIZE LT PUSH2 0x55 JUMPI PUSH1 0x0 CALLDATALOAD PUSH1 0xE0 SHR DUP1 PUSH4 0x51CFF8D9 EQ PUSH2 0x5A JUMPI DUP1 PUSH4 0x715018A6 EQ PUSH2 0x7C JUMPI DUP1 PUSH4 0x8DA5CB5B EQ PUSH2 0x91 JUMPI DUP1 PUSH4 0xE3A9DB1A EQ PUSH2 0xBE JUMPI DUP1 PUSH4 0xF2FDE38B EQ PUSH2 0x102 JUMPI DUP1 PUSH4 0xF340FA01 EQ PUSH2 0x122 JUMPI JUMPDEST PUSH1 0x0 DUP1 REVERT JUMPDEST CALLVALUE DUP1 ISZERO PUSH2 0x66 JUMPI PUSH1 0x0 DUP1 REVERT JUMPDEST POP PUSH2 0x7A PUSH2 0x75 CALLDATASIZE PUSH1 0x4 PUSH2 0x478 JUMP JUMPDEST PUSH2 0x135 JUMP JUMPDEST STOP JUMPDEST CALLVALUE DUP1 ISZERO PUSH2 0x88 JUMPI PUSH1 0x0 DUP1 REVERT JUMPDEST POP PUSH2 0x7A PUSH2 0x1AC JUMP JUMPDEST CALLVALUE DUP1 ISZERO PUSH2 0x9D JUMPI PUSH1 0x0 DUP1 REVERT JUMPDEST POP PUSH1 0x0 SLOAD PUSH1 0x40 MLOAD PUSH1 0x1 PUSH1 0x1 PUSH1 0xA0 SHL SUB SWAP1 SWAP2 AND DUP2 MSTORE PUSH1 0x20 ADD JUMPDEST PUSH1 0x40 MLOAD DUP1 SWAP2 SUB SWAP1 RETURN JUMPDEST CALLVALUE DUP1 ISZERO PUSH2 0xCA JUMPI PUSH1 0x0 DUP1 REVERT JUMPDEST POP PUSH2 0xF4 PUSH2 0xD9 CALLDATASIZE PUSH1 0x4 PUSH2 0x478 JUMP JUMPDEST PUSH1 0x1 PUSH1 0x1 PUSH1 0xA0 SHL SUB AND PUSH1 0x0 SWAP1 DUP2 MSTORE PUSH1 0x1 PUSH1 0x20 MSTORE PUSH1 0x40 SWAP1 KECCAK256 SLOAD SWAP1 JUMP JUMPDEST PUSH1 0x40 MLOAD SWAP1 DUP2 MSTORE PUSH1 0x20 ADD PUSH2 0xB5 JUMP JUMPDEST CALLVALUE DUP1 ISZERO PUSH2 0x10E JUMPI PUSH1 0x0 DUP1 REVERT JUMPDEST POP PUSH2 0x7A PUSH2 0x11D CALLDATASIZE PUSH1 0x4 PUSH2 0x478 JUMP JUMPDEST PUSH2 0x1C0 JUMP JUMPDEST PUSH2 0x7A PUSH2 0x130 CALLDATASIZE PUSH1 0x4 PUSH2 0x478 JUMP JUMPDEST PUSH2 0x23E JUMP JUMPDEST PUSH2 0x13D PUSH2 0x2B0 JUMP JUMPDEST PUSH1 0x1 PUSH1 0x1 PUSH1 0xA0 SHL SUB DUP2 AND PUSH1 0x0 DUP2 DUP2 MSTORE PUSH1 0x1 PUSH1 0x20 MSTORE PUSH1 0x40 DUP2 KECCAK256 DUP1 SLOAD SWAP2 SWAP1 SSTORE SWAP1 PUSH2 0x165 SWAP1 DUP3 PUSH2 0x30A JUMP JUMPDEST DUP2 PUSH1 0x1 PUSH1 0x1 PUSH1 0xA0 SHL SUB AND PUSH32 0x7084F5476618D8E60B11EF0D7D3F06914655ADB8793E28FF7F018D4C76D505D5 DUP3 PUSH1 0x40 MLOAD PUSH2 0x1A0 SWAP2 DUP2 MSTORE PUSH1 0x20 ADD SWAP1 JUMP JUMPDEST PUSH1 0x40 MLOAD DUP1 SWAP2 SUB SWAP1 LOG2 POP POP JUMP JUMPDEST PUSH2 0x1B4 PUSH2 0x2B0 JUMP JUMPDEST PUSH2 0x1BE PUSH1 0x0 PUSH2 0x428 JUMP JUMPDEST JUMP JUMPDEST PUSH2 0x1C8 PUSH2 0x2B0 JUMP JUMPDEST PUSH1 0x1 PUSH1 0x1 PUSH1 0xA0 SHL SUB DUP2 AND PUSH2 0x232 JUMPI PUSH1 0x40 MLOAD PUSH3 0x461BCD PUSH1 0xE5 SHL DUP2 MSTORE PUSH1 0x20 PUSH1 0x4 DUP3 ADD MSTORE PUSH1 0x26 PUSH1 0x24 DUP3 ADD MSTORE PUSH32 0x4F776E61626C653A206E6577206F776E657220697320746865207A65726F2061 PUSH1 0x44 DUP3 ADD MSTORE PUSH6 0x646472657373 PUSH1 0xD0 SHL PUSH1 0x64 DUP3 ADD MSTORE PUSH1 0x84 ADD JUMPDEST PUSH1 0x40 MLOAD DUP1 SWAP2 SUB SWAP1 REVERT JUMPDEST PUSH2 0x23B DUP2 PUSH2 0x428 JUMP JUMPDEST POP JUMP JUMPDEST PUSH2 0x246 PUSH2 0x2B0 JUMP JUMPDEST PUSH1 0x1 PUSH1 0x1 PUSH1 0xA0 SHL SUB DUP2 AND PUSH1 0x0 SWAP1 DUP2 MSTORE PUSH1 0x1 PUSH1 0x20 MSTORE PUSH1 0x40 DUP2 KECCAK256 DUP1 SLOAD CALLVALUE SWAP3 DUP4 SWAP3 SWAP2 PUSH2 0x270 SWAP1 DUP5 SWAP1 PUSH2 0x49B JUMP JUMPDEST SWAP1 SWAP2 SSTORE POP POP PUSH1 0x40 MLOAD DUP2 DUP2 MSTORE PUSH1 0x1 PUSH1 0x1 PUSH1 0xA0 SHL SUB DUP4 AND SWAP1 PUSH32 0x2DA466A7B24304F47E87FA2E1E5A81B9831CE54FEC19055CE277CA2F39BA42C4 SWAP1 PUSH1 0x20 ADD PUSH2 0x1A0 JUMP JUMPDEST PUSH1 0x0 SLOAD PUSH1 0x1 PUSH1 0x1 PUSH1 0xA0 SHL SUB AND CALLER EQ PUSH2 0x1BE JUMPI PUSH1 0x40 MLOAD PUSH3 0x461BCD PUSH1 0xE5 SHL DUP2 MSTORE PUSH1 0x20 PUSH1 0x4 DUP3 ADD DUP2 SWAP1 MSTORE PUSH1 0x24 DUP3 ADD MSTORE PUSH32 0x4F776E61626C653A2063616C6C6572206973206E6F7420746865206F776E6572 PUSH1 0x44 DUP3 ADD MSTORE PUSH1 0x64 ADD PUSH2 0x229 JUMP JUMPDEST DUP1 SELFBALANCE LT ISZERO PUSH2 0x35A JUMPI PUSH1 0x40 MLOAD PUSH3 0x461BCD PUSH1 0xE5 SHL DUP2 MSTORE PUSH1 0x20 PUSH1 0x4 DUP3 ADD MSTORE PUSH1 0x1D PUSH1 0x24 DUP3 ADD MSTORE PUSH32 0x416464726573733A20696E73756666696369656E742062616C616E6365000000 PUSH1 0x44 DUP3 ADD MSTORE PUSH1 0x64 ADD PUSH2 0x229 JUMP JUMPDEST PUSH1 0x0 DUP3 PUSH1 0x1 PUSH1 0x1 PUSH1 0xA0 SHL SUB AND DUP3 PUSH1 0x40 MLOAD PUSH1 0x0 PUSH1 0x40 MLOAD DUP1 DUP4 SUB DUP2 DUP6 DUP8 GAS CALL SWAP3 POP POP POP RETURNDATASIZE DUP1 PUSH1 0x0 DUP2 EQ PUSH2 0x3A7 JUMPI PUSH1 0x40 MLOAD SWAP2 POP PUSH1 0x1F NOT PUSH1 0x3F RETURNDATASIZE ADD AND DUP3 ADD PUSH1 0x40 MSTORE RETURNDATASIZE DUP3 MSTORE RETURNDATASIZE PUSH1 0x0 PUSH1 0x20 DUP5 ADD RETURNDATACOPY PUSH2 0x3AC JUMP JUMPDEST PUSH1 0x60 SWAP2 POP JUMPDEST POP POP SWAP1 POP DUP1 PUSH2 0x423 JUMPI PUSH1 0x40 MLOAD PUSH3 0x461BCD PUSH1 0xE5 SHL DUP2 MSTORE PUSH1 0x20 PUSH1 0x4 DUP3 ADD MSTORE PUSH1 0x3A PUSH1 0x24 DUP3 ADD MSTORE PUSH32 0x416464726573733A20756E61626C6520746F2073656E642076616C75652C2072 PUSH1 0x44 DUP3 ADD MSTORE PUSH32 0x6563697069656E74206D61792068617665207265766572746564000000000000 PUSH1 0x64 DUP3 ADD MSTORE PUSH1 0x84 ADD PUSH2 0x229 JUMP JUMPDEST POP POP POP JUMP JUMPDEST PUSH1 0x0 DUP1 SLOAD PUSH1 0x1 PUSH1 0x1 PUSH1 0xA0 SHL SUB DUP4 DUP2 AND PUSH1 0x1 PUSH1 0x1 PUSH1 0xA0 SHL SUB NOT DUP4 AND DUP2 OR DUP5 SSTORE PUSH1 0x40 MLOAD SWAP2 SWAP1 SWAP3 AND SWAP3 DUP4 SWAP2 PUSH32 0x8BE0079C531659141344CD1FD0A4F28419497F9722A3DAAFE3B4186F6B6457E0 SWAP2 SWAP1 LOG3 POP POP JUMP JUMPDEST PUSH1 0x0 PUSH1 0x20 DUP3 DUP5 SUB SLT ISZERO PUSH2 0x489 JUMPI DUP1 DUP2 REVERT JUMPDEST DUP2 CALLDATALOAD PUSH2 0x494 DUP2 PUSH2 0x4BF JUMP JUMPDEST SWAP4 SWAP3 POP POP POP JUMP JUMPDEST PUSH1 0x0 DUP3 NOT DUP3 GT ISZERO PUSH2 0x4BA JUMPI PUSH4 0x4E487B71 PUSH1 0xE0 SHL DUP2 MSTORE PUSH1 0x11 PUSH1 0x4 MSTORE PUSH1 0x24 DUP2 REVERT JUMPDEST POP ADD SWAP1 JUMP JUMPDEST PUSH1 0x1 PUSH1 0x1 PUSH1 0xA0 SHL SUB DUP2 AND DUP2 EQ PUSH2 0x23B JUMPI PUSH1 0x0 DUP1 REVERT INVALID LOG2 PUSH5 0x6970667358 0x22 SLT KECCAK256 PUSH4 0x8995151E 0xC 0xEB PUSH24 0x9BA1D9B80B35E5F810C9137E9DB1C63FC2F954C5C1ED5246 PUSH5 0x736F6C6343 STOP ADDMOD DIV STOP CALLER PUSH9 0x747470733A2F2F6D65 PUSH21 0x61707974686F6E2E6865726F6B756170702E636F6D 0x2F PUSH2 0x7069 0x2F PUSH6 0x6C656D656E74 0x2F PUSH28 0x69647D68747470733A2F2F6D657461707974686F6E2E6865726F6B75 PUSH2 0x7070 0x2E PUSH4 0x6F6D2F61 PUSH17 0x692F73746F72652F000000000000000000 "
		},
		"gasEstimates": {
			"creation": {
				"codeDepositCost": "3635600",
				"executionCost": "infinite",
				"totalCost": "infinite"
			},
			"external": {
				"asyncTransfer(address,uint256)": "infinite",
				"balanceOf(address,uint256)": "1417",
				"balanceOfBatch(address[],uint256[])": "infinite",
				"burn(address,uint256,uint256)": "infinite",
				"burnBatch(address,uint256[],uint256[])": "infinite",
				"exists(uint256)": "1261",
				"getContractURI()": "infinite",
				"getCost()": "1136",
				"getCostFactor()": "1114",
				"getHasSaleStarted()": "1093",
				"getMaxMints()": "1049",
				"getProxy()": "1142",
				"getTokensetMinted()": "1049",
				"hasSoldOut()": "1991",
				"isApprovedForAll(address,address)": "infinite",
				"merge(uint256[],bytes)": "infinite",
				"mint(string,uint256,bytes)": "infinite",
				"owner()": "1109",
				"pause()": "infinite",
				"pauseSale()": "infinite",
				"paused()": "1111",
				"payments(address)": "infinite",
				"permanentURI(string,uint256)": "infinite",
				"ranConsumed(string)": "infinite",
				"renounceOwnership()": "infinite",
				"safeBatchTransferFrom(address,address,uint256[],uint256[],bytes)": "infinite",
				"safeTransferFrom(address,address,uint256,uint256,bytes)": "infinite",
				"setApprovalForAll(address,bool)": "infinite",
				"setCost(uint256)": "infinite",
				"setCostFactor(uint256)": "infinite",
				"setMaxMints(uint256)": "infinite",
				"setProxy(address)": "infinite",
				"setRanSigner(address)": "infinite",
				"setSigner(address)": "infinite",
				"setStoreMetaURL(string)": "infinite",
				"setTokenURI(uint256,string)": "infinite",
				"setURI(string)": "infinite",
				"split(uint256,bytes)": "infinite",
				"startSale()": "infinite",
				"supportsInterface(bytes4)": "601",
				"totalSupply(uint256)": "1171",
				"transferOwnership(address)": "infinite",
				"unpause()": "infinite",
				"uri(uint256)": "infinite",
				"withdrawPayments(address)": "infinite",
				"wlConsumed(string)": "infinite",
				"wlMint(string,uint256,bytes,string,uint256,bytes)": "infinite"
			},
			"internal": {
				"_beforeTokenTransfer(address,address,address,uint256[] memory,uint256[] memory,bytes memory)": "infinite",
				"_msgSender()": "infinite",
				"verify(string memory,uint256,address,bytes memory)": "infinite"
			}
		},
		"methodIdentifiers": {
			"asyncTransfer(address,uint256)": "b7ec44b4",
			"balanceOf(address,uint256)": "00fdd58e",
			"balanceOfBatch(address[],uint256[])": "4e1273f4",
			"burn(address,uint256,uint256)": "f5298aca",
			"burnBatch(address,uint256[],uint256[])": "6b20c454",
			"exists(uint256)": "4f558e79",
			"getContractURI()": "37929eb4",
			"getCost()": "bd3e19d4",
			"getCostFactor()": "94423f6b",
			"getHasSaleStarted()": "b0c33af4",
			"getMaxMints()": "5bdf01c8",
			"getProxy()": "933a9ce8",
			"getTokensetMinted()": "2a9de840",
			"hasSoldOut()": "03824f76",
			"isApprovedForAll(address,address)": "e985e9c5",
			"merge(uint256[],bytes)": "02ea2b22",
			"mint(string,uint256,bytes)": "10662e91",
			"owner()": "8da5cb5b",
			"pause()": "8456cb59",
			"pauseSale()": "55367ba9",
			"paused()": "5c975abb",
			"payments(address)": "e2982c21",
			"permanentURI(string,uint256)": "5a7256c7",
			"ranConsumed(string)": "2286843c",
			"renounceOwnership()": "715018a6",
			"safeBatchTransferFrom(address,address,uint256[],uint256[],bytes)": "2eb2c2d6",
			"safeTransferFrom(address,address,uint256,uint256,bytes)": "f242432a",
			"setApprovalForAll(address,bool)": "a22cb465",
			"setCost(uint256)": "44a0d68a",
			"setCostFactor(uint256)": "039295fa",
			"setMaxMints(uint256)": "79c9cb7b",
			"setProxy(address)": "97107d6d",
			"setRanSigner(address)": "156980a8",
			"setSigner(address)": "6c19e783",
			"setStoreMetaURL(string)": "30e995a6",
			"setTokenURI(uint256,string)": "162094c4",
			"setURI(string)": "02fe5305",
			"split(uint256,bytes)": "29aa6335",
			"startSale()": "b66a0e5d",
			"supportsInterface(bytes4)": "01ffc9a7",
			"totalSupply(uint256)": "bd85b039",
			"transferOwnership(address)": "f2fde38b",
			"unpause()": "3f4ba83a",
			"uri(uint256)": "0e89341c",
			"withdrawPayments(address)": "31b3eb94",
			"wlConsumed(string)": "51a921dd",
			"wlMint(string,uint256,bytes,string,uint256,bytes)": "aa9c386a"
		}
	},
	"abi": [
		{
			"inputs": [],
			"stateMutability": "nonpayable",
			"type": "constructor"
		},
		{
			"anonymous": false,
			"inputs": [
				{
					"indexed": true,
					"internalType": "address",
					"name": "account",
					"type": "address"
				},
				{
					"indexed": true,
					"internalType": "address",
					"name": "operator",
					"type": "address"
				},
				{
					"indexed": false,
					"internalType": "bool",
					"name": "approved",
					"type": "bool"
				}
			],
			"name": "ApprovalForAll",
			"type": "event"
		},
		{
			"anonymous": false,
			"inputs": [
				{
					"indexed": false,
					"internalType": "address",
					"name": "to",
					"type": "address"
				},
				{
					"indexed": false,
					"internalType": "uint256",
					"name": "tokenId",
					"type": "uint256"
				},
				{
					"indexed": false,
					"internalType": "uint256",
					"name": "amount",
					"type": "uint256"
				}
			],
			"name": "Merged",
			"type": "event"
		},
		{
			"anonymous": false,
			"inputs": [
				{
					"indexed": false,
					"internalType": "address",
					"name": "to",
					"type": "address"
				},
				{
					"indexed": false,
					"internalType": "uint256",
					"name": "tokenId",
					"type": "uint256"
				},
				{
					"indexed": false,
					"internalType": "uint256",
					"name": "amount",
					"type": "uint256"
				}
			],
			"name": "Minted",
			"type": "event"
		},
		{
			"anonymous": false,
			"inputs": [
				{
					"indexed": false,
					"internalType": "address",
					"name": "to",
					"type": "address"
				},
				{
					"indexed": false,
					"internalType": "uint256[]",
					"name": "ids",
					"type": "uint256[]"
				},
				{
					"indexed": false,
					"internalType": "uint256[]",
					"name": "amounts",
					"type": "uint256[]"
				}
			],
			"name": "MintedBatch",
			"type": "event"
		},
		{
			"anonymous": false,
			"inputs": [
				{
					"indexed": true,
					"internalType": "address",
					"name": "previousOwner",
					"type": "address"
				},
				{
					"indexed": true,
					"internalType": "address",
					"name": "newOwner",
					"type": "address"
				}
			],
			"name": "OwnershipTransferred",
			"type": "event"
		},
		{
			"anonymous": false,
			"inputs": [
				{
					"indexed": false,
					"internalType": "address",
					"name": "account",
					"type": "address"
				}
			],
			"name": "Paused",
			"type": "event"
		},
		{
			"anonymous": false,
			"inputs": [
				{
					"indexed": false,
					"internalType": "string",
					"name": "_value",
					"type": "string"
				},
				{
					"indexed": true,
					"internalType": "uint256",
					"name": "_id",
					"type": "uint256"
				}
			],
			"name": "PermanentURI",
			"type": "event"
		},
		{
			"anonymous": false,
			"inputs": [
				{
					"indexed": false,
					"internalType": "address",
					"name": "to",
					"type": "address"
				},
				{
					"indexed": false,
					"internalType": "uint256",
					"name": "id",
					"type": "uint256"
				}
			],
			"name": "Split",
			"type": "event"
		},
		{
			"anonymous": false,
			"inputs": [
				{
					"indexed": true,
					"internalType": "address",
					"name": "operator",
					"type": "address"
				},
				{
					"indexed": true,
					"internalType": "address",
					"name": "from",
					"type": "address"
				},
				{
					"indexed": true,
					"internalType": "address",
					"name": "to",
					"type": "address"
				},
				{
					"indexed": false,
					"internalType": "uint256[]",
					"name": "ids",
					"type": "uint256[]"
				},
				{
					"indexed": false,
					"internalType": "uint256[]",
					"name": "values",
					"type": "uint256[]"
				}
			],
			"name": "TransferBatch",
			"type": "event"
		},
		{
			"anonymous": false,
			"inputs": [
				{
					"indexed": true,
					"internalType": "address",
					"name": "operator",
					"type": "address"
				},
				{
					"indexed": true,
					"internalType": "address",
					"name": "from",
					"type": "address"
				},
				{
					"indexed": true,
					"internalType": "address",
					"name": "to",
					"type": "address"
				},
				{
					"indexed": false,
					"internalType": "uint256",
					"name": "id",
					"type": "uint256"
				},
				{
					"indexed": false,
					"internalType": "uint256",
					"name": "value",
					"type": "uint256"
				}
			],
			"name": "TransferSingle",
			"type": "event"
		},
		{
			"anonymous": false,
			"inputs": [
				{
					"indexed": false,
					"internalType": "string",
					"name": "value",
					"type": "string"
				},
				{
					"indexed": true,
					"internalType": "uint256",
					"name": "id",
					"type": "uint256"
				}
			],
			"name": "URI",
			"type": "event"
		},
		{
			"anonymous": false,
			"inputs": [
				{
					"indexed": false,
					"internalType": "address",
					"name": "account",
					"type": "address"
				}
			],
			"name": "Unpaused",
			"type": "event"
		},
		{
			"anonymous": false,
			"inputs": [
				{
					"indexed": false,
					"internalType": "address",
					"name": "to",
					"type": "address"
				},
				{
					"indexed": false,
					"internalType": "uint256",
					"name": "tokenId",
					"type": "uint256"
				},
				{
					"indexed": false,
					"internalType": "uint256",
					"name": "amount",
					"type": "uint256"
				}
			],
			"name": "wlMinted",
			"type": "event"
		},
		{
			"inputs": [
				{
					"internalType": "address payable",
					"name": "dest",
					"type": "address"
				},
				{
					"internalType": "uint256",
					"name": "amount",
					"type": "uint256"
				}
			],
			"name": "asyncTransfer",
			"outputs": [],
			"stateMutability": "nonpayable",
			"type": "function"
		},
		{
			"inputs": [
				{
					"internalType": "address",
					"name": "account",
					"type": "address"
				},
				{
					"internalType": "uint256",
					"name": "id",
					"type": "uint256"
				}
			],
			"name": "balanceOf",
			"outputs": [
				{
					"internalType": "uint256",
					"name": "",
					"type": "uint256"
				}
			],
			"stateMutability": "view",
			"type": "function"
		},
		{
			"inputs": [
				{
					"internalType": "address[]",
					"name": "accounts",
					"type": "address[]"
				},
				{
					"internalType": "uint256[]",
					"name": "ids",
					"type": "uint256[]"
				}
			],
			"name": "balanceOfBatch",
			"outputs": [
				{
					"internalType": "uint256[]",
					"name": "",
					"type": "uint256[]"
				}
			],
			"stateMutability": "view",
			"type": "function"
		},
		{
			"inputs": [
				{
					"internalType": "address",
					"name": "account",
					"type": "address"
				},
				{
					"internalType": "uint256",
					"name": "id",
					"type": "uint256"
				},
				{
					"internalType": "uint256",
					"name": "value",
					"type": "uint256"
				}
			],
			"name": "burn",
			"outputs": [],
			"stateMutability": "nonpayable",
			"type": "function"
		},
		{
			"inputs": [
				{
					"internalType": "address",
					"name": "account",
					"type": "address"
				},
				{
					"internalType": "uint256[]",
					"name": "ids",
					"type": "uint256[]"
				},
				{
					"internalType": "uint256[]",
					"name": "values",
					"type": "uint256[]"
				}
			],
			"name": "burnBatch",
			"outputs": [],
			"stateMutability": "nonpayable",
			"type": "function"
		},
		{
			"inputs": [
				{
					"internalType": "uint256",
					"name": "id",
					"type": "uint256"
				}
			],
			"name": "exists",
			"outputs": [
				{
					"internalType": "bool",
					"name": "",
					"type": "bool"
				}
			],
			"stateMutability": "view",
			"type": "function"
		},
		{
			"inputs": [],
			"name": "getContractURI",
			"outputs": [
				{
					"internalType": "string",
					"name": "",
					"type": "string"
				}
			],
			"stateMutability": "view",
			"type": "function"
		},
		{
			"inputs": [],
			"name": "getCost",
			"outputs": [
				{
					"internalType": "uint256",
					"name": "",
					"type": "uint256"
				}
			],
			"stateMutability": "view",
			"type": "function"
		},
		{
			"inputs": [],
			"name": "getCostFactor",
			"outputs": [
				{
					"internalType": "uint256",
					"name": "",
					"type": "uint256"
				}
			],
			"stateMutability": "view",
			"type": "function"
		},
		{
			"inputs": [],
			"name": "getHasSaleStarted",
			"outputs": [
				{
					"internalType": "bool",
					"name": "",
					"type": "bool"
				}
			],
			"stateMutability": "view",
			"type": "function"
		},
		{
			"inputs": [],
			"name": "getMaxMints",
			"outputs": [
				{
					"internalType": "uint256",
					"name": "",
					"type": "uint256"
				}
			],
			"stateMutability": "view",
			"type": "function"
		},
		{
			"inputs": [],
			"name": "getProxy",
			"outputs": [
				{
					"internalType": "address",
					"name": "",
					"type": "address"
				}
			],
			"stateMutability": "view",
			"type": "function"
		},
		{
			"inputs": [],
			"name": "getTokensetMinted",
			"outputs": [
				{
					"internalType": "uint256",
					"name": "",
					"type": "uint256"
				}
			],
			"stateMutability": "view",
			"type": "function"
		},
		{
			"inputs": [],
			"name": "hasSoldOut",
			"outputs": [
				{
					"internalType": "bool",
					"name": "",
					"type": "bool"
				}
			],
			"stateMutability": "view",
			"type": "function"
		},
		{
			"inputs": [
				{
					"internalType": "address",
					"name": "_owner",
					"type": "address"
				},
				{
					"internalType": "address",
					"name": "_operator",
					"type": "address"
				}
			],
			"name": "isApprovedForAll",
			"outputs": [
				{
					"internalType": "bool",
					"name": "isOperator",
					"type": "bool"
				}
			],
			"stateMutability": "view",
			"type": "function"
		},
		{
			"inputs": [
				{
					"internalType": "uint256[]",
					"name": "ids",
					"type": "uint256[]"
				},
				{
					"internalType": "bytes",
					"name": "data",
					"type": "bytes"
				}
			],
			"name": "merge",
			"outputs": [],
			"stateMutability": "nonpayable",
			"type": "function"
		},
		{
			"inputs": [
				{
					"internalType": "string",
					"name": "ranId",
					"type": "string"
				},
				{
					"internalType": "uint256",
					"name": "randomNumber",
					"type": "uint256"
				},
				{
					"internalType": "bytes",
					"name": "ranSignature",
					"type": "bytes"
				}
			],
			"name": "mint",
			"outputs": [],
			"stateMutability": "payable",
			"type": "function"
		},
		{
			"inputs": [],
			"name": "owner",
			"outputs": [
				{
					"internalType": "address",
					"name": "",
					"type": "address"
				}
			],
			"stateMutability": "view",
			"type": "function"
		},
		{
			"inputs": [],
			"name": "pause",
			"outputs": [],
			"stateMutability": "nonpayable",
			"type": "function"
		},
		{
			"inputs": [],
			"name": "pauseSale",
			"outputs": [],
			"stateMutability": "nonpayable",
			"type": "function"
		},
		{
			"inputs": [],
			"name": "paused",
			"outputs": [
				{
					"internalType": "bool",
					"name": "",
					"type": "bool"
				}
			],
			"stateMutability": "view",
			"type": "function"
		},
		{
			"inputs": [
				{
					"internalType": "address",
					"name": "dest",
					"type": "address"
				}
			],
			"name": "payments",
			"outputs": [
				{
					"internalType": "uint256",
					"name": "",
					"type": "uint256"
				}
			],
			"stateMutability": "view",
			"type": "function"
		},
		{
			"inputs": [
				{
					"internalType": "string",
					"name": "_value",
					"type": "string"
				},
				{
					"internalType": "uint256",
					"name": "_id",
					"type": "uint256"
				}
			],
			"name": "permanentURI",
			"outputs": [],
			"stateMutability": "nonpayable",
			"type": "function"
		},
		{
			"inputs": [
				{
					"internalType": "string",
					"name": "",
					"type": "string"
				}
			],
			"name": "ranConsumed",
			"outputs": [
				{
					"internalType": "uint256",
					"name": "",
					"type": "uint256"
				}
			],
			"stateMutability": "view",
			"type": "function"
		},
		{
			"inputs": [],
			"name": "renounceOwnership",
			"outputs": [],
			"stateMutability": "nonpayable",
			"type": "function"
		},
		{
			"inputs": [
				{
					"internalType": "address",
					"name": "from",
					"type": "address"
				},
				{
					"internalType": "address",
					"name": "to",
					"type": "address"
				},
				{
					"internalType": "uint256[]",
					"name": "ids",
					"type": "uint256[]"
				},
				{
					"internalType": "uint256[]",
					"name": "amounts",
					"type": "uint256[]"
				},
				{
					"internalType": "bytes",
					"name": "data",
					"type": "bytes"
				}
			],
			"name": "safeBatchTransferFrom",
			"outputs": [],
			"stateMutability": "nonpayable",
			"type": "function"
		},
		{
			"inputs": [
				{
					"internalType": "address",
					"name": "from",
					"type": "address"
				},
				{
					"internalType": "address",
					"name": "to",
					"type": "address"
				},
				{
					"internalType": "uint256",
					"name": "id",
					"type": "uint256"
				},
				{
					"internalType": "uint256",
					"name": "amount",
					"type": "uint256"
				},
				{
					"internalType": "bytes",
					"name": "data",
					"type": "bytes"
				}
			],
			"name": "safeTransferFrom",
			"outputs": [],
			"stateMutability": "nonpayable",
			"type": "function"
		},
		{
			"inputs": [
				{
					"internalType": "address",
					"name": "operator",
					"type": "address"
				},
				{
					"internalType": "bool",
					"name": "approved",
					"type": "bool"
				}
			],
			"name": "setApprovalForAll",
			"outputs": [],
			"stateMutability": "nonpayable",
			"type": "function"
		},
		{
			"inputs": [
				{
					"internalType": "uint256",
					"name": "_cost_per_token_set",
					"type": "uint256"
				}
			],
			"name": "setCost",
			"outputs": [],
			"stateMutability": "nonpayable",
			"type": "function"
		},
		{
			"inputs": [
				{
					"internalType": "uint256",
					"name": "_costFactor",
					"type": "uint256"
				}
			],
			"name": "setCostFactor",
			"outputs": [],
			"stateMutability": "nonpayable",
			"type": "function"
		},
		{
			"inputs": [
				{
					"internalType": "uint256",
					"name": "max_mints",
					"type": "uint256"
				}
			],
			"name": "setMaxMints",
			"outputs": [],
			"stateMutability": "nonpayable",
			"type": "function"
		},
		{
			"inputs": [
				{
					"internalType": "address",
					"name": "_proxyAddress",
					"type": "address"
				}
			],
			"name": "setProxy",
			"outputs": [],
			"stateMutability": "nonpayable",
			"type": "function"
		},
		{
			"inputs": [
				{
					"internalType": "address",
					"name": "ranSignerAddress_",
					"type": "address"
				}
			],
			"name": "setRanSigner",
			"outputs": [],
			"stateMutability": "nonpayable",
			"type": "function"
		},
		{
			"inputs": [
				{
					"internalType": "address",
					"name": "signerAddress_",
					"type": "address"
				}
			],
			"name": "setSigner",
			"outputs": [],
			"stateMutability": "nonpayable",
			"type": "function"
		},
		{
			"inputs": [
				{
					"internalType": "string",
					"name": "_storeMetaURL",
					"type": "string"
				}
			],
			"name": "setStoreMetaURL",
			"outputs": [],
			"stateMutability": "nonpayable",
			"type": "function"
		},
		{
			"inputs": [
				{
					"internalType": "uint256",
					"name": "tokenId",
					"type": "uint256"
				},
				{
					"internalType": "string",
					"name": "tokenURI",
					"type": "string"
				}
			],
			"name": "setTokenURI",
			"outputs": [],
			"stateMutability": "nonpayable",
			"type": "function"
		},
		{
			"inputs": [
				{
					"internalType": "string",
					"name": "newuri",
					"type": "string"
				}
			],
			"name": "setURI",
			"outputs": [],
			"stateMutability": "nonpayable",
			"type": "function"
		},
		{
			"inputs": [
				{
					"internalType": "uint256",
					"name": "id",
					"type": "uint256"
				},
				{
					"internalType": "bytes",
					"name": "data",
					"type": "bytes"
				}
			],
			"name": "split",
			"outputs": [],
			"stateMutability": "nonpayable",
			"type": "function"
		},
		{
			"inputs": [],
			"name": "startSale",
			"outputs": [],
			"stateMutability": "nonpayable",
			"type": "function"
		},
		{
			"inputs": [
				{
					"internalType": "bytes4",
					"name": "interfaceId",
					"type": "bytes4"
				}
			],
			"name": "supportsInterface",
			"outputs": [
				{
					"internalType": "bool",
					"name": "",
					"type": "bool"
				}
			],
			"stateMutability": "view",
			"type": "function"
		},
		{
			"inputs": [
				{
					"internalType": "uint256",
					"name": "id",
					"type": "uint256"
				}
			],
			"name": "totalSupply",
			"outputs": [
				{
					"internalType": "uint256",
					"name": "",
					"type": "uint256"
				}
			],
			"stateMutability": "view",
			"type": "function"
		},
		{
			"inputs": [
				{
					"internalType": "address",
					"name": "newOwner",
					"type": "address"
				}
			],
			"name": "transferOwnership",
			"outputs": [],
			"stateMutability": "nonpayable",
			"type": "function"
		},
		{
			"inputs": [],
			"name": "unpause",
			"outputs": [],
			"stateMutability": "nonpayable",
			"type": "function"
		},
		{
			"inputs": [
				{
					"internalType": "uint256",
					"name": "tokenId",
					"type": "uint256"
				}
			],
			"name": "uri",
			"outputs": [
				{
					"internalType": "string",
					"name": "",
					"type": "string"
				}
			],
			"stateMutability": "view",
			"type": "function"
		},
		{
			"inputs": [
				{
					"internalType": "address payable",
					"name": "payee",
					"type": "address"
				}
			],
			"name": "withdrawPayments",
			"outputs": [],
			"stateMutability": "nonpayable",
			"type": "function"
		},
		{
			"inputs": [
				{
					"internalType": "string",
					"name": "",
					"type": "string"
				}
			],
			"name": "wlConsumed",
			"outputs": [
				{
					"internalType": "uint256",
					"name": "",
					"type": "uint256"
				}
			],
			"stateMutability": "view",
			"type": "function"
		},
		{
			"inputs": [
				{
					"internalType": "string",
					"name": "wlId",
					"type": "string"
				},
				{
					"internalType": "uint256",
					"name": "maxWLTokenNum",
					"type": "uint256"
				},
				{
					"internalType": "bytes",
					"name": "wlSignature",
					"type": "bytes"
				},
				{
					"internalType": "string",
					"name": "ranId",
					"type": "string"
				},
				{
					"internalType": "uint256",
					"name": "randomNumber",
					"type": "uint256"
				},
				{
					"internalType": "bytes",
					"name": "ranSignature",
					"type": "bytes"
				}
			],
			"name": "wlMint",
			"outputs": [],
			"stateMutability": "payable",
			"type": "function"
		}
	]
}